{
  "contractName": "Animal",
  "abi": [
    {
      "anonymous": false,
      "inputs": [
        {
          "indexed": true,
          "internalType": "address",
          "name": "owner",
          "type": "address"
        },
        {
          "indexed": true,
          "internalType": "address",
          "name": "approved",
          "type": "address"
        },
        {
          "indexed": true,
          "internalType": "uint256",
          "name": "tokenId",
          "type": "uint256"
        }
      ],
      "name": "Approval",
      "type": "event"
    },
    {
      "anonymous": false,
      "inputs": [
        {
          "indexed": true,
          "internalType": "address",
          "name": "owner",
          "type": "address"
        },
        {
          "indexed": true,
          "internalType": "address",
          "name": "operator",
          "type": "address"
        },
        {
          "indexed": false,
          "internalType": "bool",
          "name": "approved",
          "type": "bool"
        }
      ],
      "name": "ApprovalForAll",
      "type": "event"
    },
    {
      "anonymous": false,
      "inputs": [
        {
          "indexed": false,
          "internalType": "uint256",
          "name": "animalId",
          "type": "uint256"
        },
        {
          "indexed": false,
          "internalType": "uint256",
          "name": "amount",
          "type": "uint256"
        }
      ],
      "name": "GainExp",
      "type": "event"
    },
    {
      "anonymous": false,
      "inputs": [
        {
          "indexed": false,
          "internalType": "uint256",
          "name": "animalId",
          "type": "uint256"
        }
      ],
      "name": "GainLevel",
      "type": "event"
    },
    {
      "anonymous": false,
      "inputs": [
        {
          "indexed": true,
          "internalType": "bytes32",
          "name": "role",
          "type": "bytes32"
        },
        {
          "indexed": true,
          "internalType": "bytes32",
          "name": "previousAdminRole",
          "type": "bytes32"
        },
        {
          "indexed": true,
          "internalType": "bytes32",
          "name": "newAdminRole",
          "type": "bytes32"
        }
      ],
      "name": "RoleAdminChanged",
      "type": "event"
    },
    {
      "anonymous": false,
      "inputs": [
        {
          "indexed": true,
          "internalType": "bytes32",
          "name": "role",
          "type": "bytes32"
        },
        {
          "indexed": true,
          "internalType": "address",
          "name": "account",
          "type": "address"
        },
        {
          "indexed": true,
          "internalType": "address",
          "name": "sender",
          "type": "address"
        }
      ],
      "name": "RoleGranted",
      "type": "event"
    },
    {
      "anonymous": false,
      "inputs": [
        {
          "indexed": true,
          "internalType": "bytes32",
          "name": "role",
          "type": "bytes32"
        },
        {
          "indexed": true,
          "internalType": "address",
          "name": "account",
          "type": "address"
        },
        {
          "indexed": true,
          "internalType": "address",
          "name": "sender",
          "type": "address"
        }
      ],
      "name": "RoleRevoked",
      "type": "event"
    },
    {
      "anonymous": false,
      "inputs": [
        {
          "indexed": true,
          "internalType": "address",
          "name": "from",
          "type": "address"
        },
        {
          "indexed": true,
          "internalType": "address",
          "name": "to",
          "type": "address"
        },
        {
          "indexed": true,
          "internalType": "uint256",
          "name": "tokenId",
          "type": "uint256"
        }
      ],
      "name": "Transfer",
      "type": "event"
    },
    {
      "inputs": [],
      "name": "DEFAULT_ADMIN_ROLE",
      "outputs": [
        {
          "internalType": "bytes32",
          "name": "",
          "type": "bytes32"
        }
      ],
      "stateMutability": "view",
      "type": "function"
    },
    {
      "inputs": [],
      "name": "QUEST_ROLE",
      "outputs": [
        {
          "internalType": "bytes32",
          "name": "",
          "type": "bytes32"
        }
      ],
      "stateMutability": "view",
      "type": "function"
    },
    {
      "inputs": [],
      "name": "UPG_ROLE",
      "outputs": [
        {
          "internalType": "bytes32",
          "name": "",
          "type": "bytes32"
        }
      ],
      "stateMutability": "view",
      "type": "function"
    },
    {
      "inputs": [
        {
          "internalType": "address",
          "name": "to",
          "type": "address"
        },
        {
          "internalType": "uint256",
          "name": "tokenId",
          "type": "uint256"
        }
      ],
      "name": "approve",
      "outputs": [],
      "stateMutability": "nonpayable",
      "type": "function"
    },
    {
      "inputs": [
        {
          "internalType": "address",
          "name": "owner",
          "type": "address"
        }
      ],
      "name": "balanceOf",
      "outputs": [
        {
          "internalType": "uint256",
          "name": "",
          "type": "uint256"
        }
      ],
      "stateMutability": "view",
      "type": "function"
    },
    {
      "inputs": [
        {
          "internalType": "uint256",
          "name": "tokenId",
          "type": "uint256"
        }
      ],
      "name": "getApproved",
      "outputs": [
        {
          "internalType": "address",
          "name": "",
          "type": "address"
        }
      ],
      "stateMutability": "view",
      "type": "function"
    },
    {
      "inputs": [
        {
          "internalType": "bytes32",
          "name": "role",
          "type": "bytes32"
        }
      ],
      "name": "getRoleAdmin",
      "outputs": [
        {
          "internalType": "bytes32",
          "name": "",
          "type": "bytes32"
        }
      ],
      "stateMutability": "view",
      "type": "function"
    },
    {
      "inputs": [
        {
          "internalType": "bytes32",
          "name": "role",
          "type": "bytes32"
        },
        {
          "internalType": "address",
          "name": "account",
          "type": "address"
        }
      ],
      "name": "grantRole",
      "outputs": [],
      "stateMutability": "nonpayable",
      "type": "function"
    },
    {
      "inputs": [
        {
          "internalType": "bytes32",
          "name": "role",
          "type": "bytes32"
        },
        {
          "internalType": "address",
          "name": "account",
          "type": "address"
        }
      ],
      "name": "hasRole",
      "outputs": [
        {
          "internalType": "bool",
          "name": "",
          "type": "bool"
        }
      ],
      "stateMutability": "view",
      "type": "function"
    },
    {
      "inputs": [
        {
          "internalType": "address",
          "name": "owner",
          "type": "address"
        },
        {
          "internalType": "address",
          "name": "operator",
          "type": "address"
        }
      ],
      "name": "isApprovedForAll",
      "outputs": [
        {
          "internalType": "bool",
          "name": "",
          "type": "bool"
        }
      ],
      "stateMutability": "view",
      "type": "function"
    },
    {
      "inputs": [],
      "name": "name",
      "outputs": [
        {
          "internalType": "string",
          "name": "",
          "type": "string"
        }
      ],
      "stateMutability": "view",
      "type": "function"
    },
    {
      "inputs": [
        {
          "internalType": "uint256",
          "name": "tokenId",
          "type": "uint256"
        }
      ],
      "name": "ownerOf",
      "outputs": [
        {
          "internalType": "address",
          "name": "",
          "type": "address"
        }
      ],
      "stateMutability": "view",
      "type": "function"
    },
    {
      "inputs": [
        {
          "internalType": "bytes32",
          "name": "role",
          "type": "bytes32"
        },
        {
          "internalType": "address",
          "name": "account",
          "type": "address"
        }
      ],
      "name": "renounceRole",
      "outputs": [],
      "stateMutability": "nonpayable",
      "type": "function"
    },
    {
      "inputs": [
        {
          "internalType": "bytes32",
          "name": "role",
          "type": "bytes32"
        },
        {
          "internalType": "address",
          "name": "account",
          "type": "address"
        }
      ],
      "name": "revokeRole",
      "outputs": [],
      "stateMutability": "nonpayable",
      "type": "function"
    },
    {
      "inputs": [
        {
          "internalType": "address",
          "name": "from",
          "type": "address"
        },
        {
          "internalType": "address",
          "name": "to",
          "type": "address"
        },
        {
          "internalType": "uint256",
          "name": "tokenId",
          "type": "uint256"
        }
      ],
      "name": "safeTransferFrom",
      "outputs": [],
      "stateMutability": "nonpayable",
      "type": "function"
    },
    {
      "inputs": [
        {
          "internalType": "address",
          "name": "from",
          "type": "address"
        },
        {
          "internalType": "address",
          "name": "to",
          "type": "address"
        },
        {
          "internalType": "uint256",
          "name": "tokenId",
          "type": "uint256"
        },
        {
          "internalType": "bytes",
          "name": "_data",
          "type": "bytes"
        }
      ],
      "name": "safeTransferFrom",
      "outputs": [],
      "stateMutability": "nonpayable",
      "type": "function"
    },
    {
      "inputs": [
        {
          "internalType": "address",
          "name": "operator",
          "type": "address"
        },
        {
          "internalType": "bool",
          "name": "approved",
          "type": "bool"
        }
      ],
      "name": "setApprovalForAll",
      "outputs": [],
      "stateMutability": "nonpayable",
      "type": "function"
    },
    {
      "inputs": [],
      "name": "symbol",
      "outputs": [
        {
          "internalType": "string",
          "name": "",
          "type": "string"
        }
      ],
      "stateMutability": "view",
      "type": "function"
    },
    {
      "inputs": [
        {
          "internalType": "uint256",
          "name": "tokenId",
          "type": "uint256"
        }
      ],
      "name": "tokenURI",
      "outputs": [
        {
          "internalType": "string",
          "name": "",
          "type": "string"
        }
      ],
      "stateMutability": "view",
      "type": "function"
    },
    {
      "inputs": [
        {
          "internalType": "address",
          "name": "from",
          "type": "address"
        },
        {
          "internalType": "address",
          "name": "to",
          "type": "address"
        },
        {
          "internalType": "uint256",
          "name": "tokenId",
          "type": "uint256"
        }
      ],
      "name": "transferFrom",
      "outputs": [],
      "stateMutability": "nonpayable",
      "type": "function"
    },
    {
      "inputs": [
        {
          "internalType": "bytes4",
          "name": "interfaceId",
          "type": "bytes4"
        }
      ],
      "name": "supportsInterface",
      "outputs": [
        {
          "internalType": "bool",
          "name": "",
          "type": "bool"
        }
      ],
      "stateMutability": "view",
      "type": "function"
    },
    {
      "inputs": [],
      "name": "initialize",
      "outputs": [],
      "stateMutability": "nonpayable",
      "type": "function"
    },
    {
      "inputs": [],
      "name": "vrf",
      "outputs": [
        {
          "internalType": "bytes32",
          "name": "result",
          "type": "bytes32"
        }
      ],
      "stateMutability": "view",
      "type": "function"
    },
    {
      "inputs": [
        {
          "internalType": "uint256",
          "name": "animalId",
          "type": "uint256"
        },
        {
          "internalType": "address",
          "name": "user",
          "type": "address"
        }
      ],
      "name": "gainLevel",
      "outputs": [],
      "stateMutability": "nonpayable",
      "type": "function"
    },
    {
      "inputs": [
        {
          "internalType": "uint256",
          "name": "animalId",
          "type": "uint256"
        },
        {
          "internalType": "uint256",
          "name": "amount",
          "type": "uint256"
        }
      ],
      "name": "gainExp",
      "outputs": [],
      "stateMutability": "nonpayable",
      "type": "function"
    }
  ],
  "bytecode": "0x608060405234801561001057600080fd5b50613d93806100206000396000f3fe608060405234801561001057600080fd5b50600436106101725760003560e01c80636cad6932116100de578063a217fddf11610097578063b88d4fde11610071578063b88d4fde14610435578063c87b56dd14610451578063d547741f14610481578063e985e9c51461049d57610172565b8063a217fddf146103dd578063a22cb465146103fb578063b3c7663c1461041757610172565b80636cad69321461031d57806370a08231146103395780638129fc1c1461036957806391d148541461037357806395d89b41146103a35780639dcb26e6146103c157610172565b806323b872dd1161013057806323b872dd1461024d578063248a9ca3146102695780632f2ff15d1461029957806336568abe146102b557806342842e0e146102d15780636352211e146102ed57610172565b8062e23cfc1461017757806301ffc9a71461019557806306fdde03146101c5578063081812fc146101e3578063095ea7b3146102135780630c9490431461022f575b600080fd5b61017f6104cd565b60405161018c9190612615565b60405180910390f35b6101af60048036038101906101aa919061269c565b6104f1565b6040516101bc91906126e4565b60405180910390f35b6101cd610503565b6040516101da9190612798565b60405180910390f35b6101fd60048036038101906101f891906127f0565b610595565b60405161020a919061285e565b60405180910390f35b61022d600480360381019061022891906128a5565b61061a565b005b610237610732565b6040516102449190612615565b60405180910390f35b610267600480360381019061026291906128e5565b610778565b005b610283600480360381019061027e9190612964565b6107d8565b6040516102909190612615565b60405180910390f35b6102b360048036038101906102ae9190612991565b6107f8565b005b6102cf60048036038101906102ca9190612991565b610821565b005b6102eb60048036038101906102e691906128e5565b6108a4565b005b610307600480360381019061030291906127f0565b6108c4565b604051610314919061285e565b60405180910390f35b610337600480360381019061033291906129d1565b610976565b005b610353600480360381019061034e9190612a11565b610aaf565b6040516103609190612a4d565b60405180910390f35b610371610b67565b005b61038d60048036038101906103889190612991565b610d93565b60405161039a91906126e4565b60405180910390f35b6103ab610dfe565b6040516103b89190612798565b60405180910390f35b6103db60048036038101906103d69190612a68565b610e90565b005b6103e56111d7565b6040516103f29190612615565b60405180910390f35b61041560048036038101906104109190612ad4565b6111de565b005b61041f6111f4565b60405161042c9190612615565b60405180910390f35b61044f600480360381019061044a9190612c49565b611218565b005b61046b600480360381019061046691906127f0565b61127a565b6040516104789190612798565b60405180910390f35b61049b60048036038101906104969190612991565b611321565b005b6104b760048036038101906104b29190612ccc565b61134a565b6040516104c491906126e4565b60405180910390f35b7f19ac353dd86d6954025a359137447e1fda8f14ba7ba6373372af73b706fa3b2281565b60006104fc826113de565b9050919050565b60606065805461051290612d3b565b80601f016020809104026020016040519081016040528092919081815260200182805461053e90612d3b565b801561058b5780601f106105605761010080835404028352916020019161058b565b820191906000526020600020905b81548152906001019060200180831161056e57829003601f168201915b5050505050905090565b60006105a082611458565b6105df576040517f08c379a00000000000000000000000000000000000000000000000000000000081526004016105d690612ddf565b60405180910390fd5b6069600083815260200190815260200160002060009054906101000a900473ffffffffffffffffffffffffffffffffffffffff169050919050565b6000610625826108c4565b90508073ffffffffffffffffffffffffffffffffffffffff168373ffffffffffffffffffffffffffffffffffffffff161415610696576040517f08c379a000000000000000000000000000000000000000000000000000000000815260040161068d90612e71565b60405180910390fd5b8073ffffffffffffffffffffffffffffffffffffffff166106b56114c4565b73ffffffffffffffffffffffffffffffffffffffff1614806106e457506106e3816106de6114c4565b61134a565b5b610723576040517f08c379a000000000000000000000000000000000000000000000000000000000815260040161071a90612f03565b60405180910390fd5b61072d83836114cc565b505050565b600061073c612537565b438160006001811061075157610750612f23565b5b60200201818152505060405160208160208460ff600019fa61076f57fe5b80519250505090565b6107896107836114c4565b82611585565b6107c8576040517f08c379a00000000000000000000000000000000000000000000000000000000081526004016107bf90612fc4565b60405180910390fd5b6107d3838383611663565b505050565b600060976000838152602001908152602001600020600101549050919050565b610801826107d8565b6108128161080d6114c4565b6118bf565b61081c838361195c565b505050565b6108296114c4565b73ffffffffffffffffffffffffffffffffffffffff168173ffffffffffffffffffffffffffffffffffffffff1614610896576040517f08c379a000000000000000000000000000000000000000000000000000000000815260040161088d90613056565b60405180910390fd5b6108a08282611a3d565b5050565b6108bf83838360405180602001604052806000815250611218565b505050565b6000806067600084815260200190815260200160002060009054906101000a900473ffffffffffffffffffffffffffffffffffffffff169050600073ffffffffffffffffffffffffffffffffffffffff168173ffffffffffffffffffffffffffffffffffffffff16141561096d576040517f08c379a0000000000000000000000000000000000000000000000000000000008152600401610964906130e8565b60405180910390fd5b80915050919050565b7f19ac353dd86d6954025a359137447e1fda8f14ba7ba6373372af73b706fa3b226109a8816109a36114c4565b6118bf565b8160ce6000858152602001908152602001600020600201546109ca9190613137565b606460ce6000868152602001908152602001600020600101546109ed919061318d565b11610a3457606460ce600085815260200190815260200160002060010154610a15919061318d565b60ce600085815260200190815260200160002060020181905550610a71565b8160ce600085815260200190815260200160002060020154610a569190613137565b60ce6000858152602001908152602001600020600201819055505b7ffa65d54a674245861f726a6e25ffd7e32b5f7e7a6a62bd81b222ad6f53643d288383604051610aa29291906131e7565b60405180910390a1505050565b60008073ffffffffffffffffffffffffffffffffffffffff168273ffffffffffffffffffffffffffffffffffffffff161415610b20576040517f08c379a0000000000000000000000000000000000000000000000000000000008152600401610b1790613282565b60405180910390fd5b606860008373ffffffffffffffffffffffffffffffffffffffff1673ffffffffffffffffffffffffffffffffffffffff168152602001908152602001600020549050919050565b600060019054906101000a900460ff16610b8f5760008054906101000a900460ff1615610b98565b610b97611b1f565b5b610bd7576040517f08c379a0000000000000000000000000000000000000000000000000000000008152600401610bce90613314565b60405180910390fd5b60008060019054906101000a900460ff161590508015610c27576001600060016101000a81548160ff02191690831515021790555060016000806101000a81548160ff0219169083151502179055505b601060c98190555060c954600a610c3e9190613467565b60ca81905550737c50d01c7ba0ede836bda6dac88a952f325756e360cb60006101000a81548173ffffffffffffffffffffffffffffffffffffffff021916908373ffffffffffffffffffffffffffffffffffffffff16021790555073a691623968855b91a066661b0552a7d3764c9a6460cc60006101000a81548173ffffffffffffffffffffffffffffffffffffffff021916908373ffffffffffffffffffffffffffffffffffffffff160217905550610cfb6000801b33611b30565b610d6f6040518060400160405280601081526020017f50617461676f6e696320416e696d616c000000000000000000000000000000008152506040518060400160405280600781526020017f70416e696d616c00000000000000000000000000000000000000000000000000815250611b3e565b8015610d905760008060016101000a81548160ff0219169083151502179055505b50565b60006097600084815260200190815260200160002060000160008373ffffffffffffffffffffffffffffffffffffffff1673ffffffffffffffffffffffffffffffffffffffff16815260200190815260200160002060009054906101000a900460ff16905092915050565b606060668054610e0d90612d3b565b80601f0160208091040260200160405190810160405280929190818152602001828054610e3990612d3b565b8015610e865780601f10610e5b57610100808354040283529160200191610e86565b820191906000526020600020905b815481529060010190602001808311610e6957829003601f168201915b5050505050905090565b7f8b83cff217526f65affab658236a6c4f2d8020cd01ccd4c27987c26870279b14610ec281610ebd6114c4565b6118bf565b6000670de0b6b3a764000060ce600086815260200190815260200160002060010154610eee919061318d565b90508060cd60009054906101000a900473ffffffffffffffffffffffffffffffffffffffff1673ffffffffffffffffffffffffffffffffffffffff166370a08231856040518263ffffffff1660e01b8152600401610f4c919061285e565b602060405180830381865afa158015610f69573d6000803e3d6000fd5b505050506040513d601f19601f82011682018060405250810190610f8d91906134c7565b1015610f9857600080fd5b60cd60009054906101000a900473ffffffffffffffffffffffffffffffffffffffff1673ffffffffffffffffffffffffffffffffffffffff166323b872dd8460cc60009054906101000a900473ffffffffffffffffffffffffffffffffffffffff166064606086611009919061318d565b6110139190613523565b6040518463ffffffff1660e01b8152600401611031939291906135b3565b6020604051808303816000875af1158015611050573d6000803e3d6000fd5b505050506040513d601f19601f8201168201806040525081019061107491906135ff565b5060cd60009054906101000a900473ffffffffffffffffffffffffffffffffffffffff1673ffffffffffffffffffffffffffffffffffffffff166323b872dd8460cb60009054906101000a900473ffffffffffffffffffffffffffffffffffffffff1660646004866110e6919061318d565b6110f09190613523565b6040518463ffffffff1660e01b815260040161110e939291906135b3565b6020604051808303816000875af115801561112d573d6000803e3d6000fd5b505050506040513d601f19601f8201168201806040525081019061115191906135ff565b50600060ce60008681526020019081526020016000206002018190555060ce600085815260200190815260200160002060010160008154809291906111959061362c565b91905055507f7ef1df0b6d95a41d9ebcaa695746726b382e110036a9127b009babdb11c656a2846040516111c99190612a4d565b60405180910390a150505050565b6000801b81565b6111f06111e96114c4565b8383611bab565b5050565b7f8b83cff217526f65affab658236a6c4f2d8020cd01ccd4c27987c26870279b1481565b6112296112236114c4565b83611585565b611268576040517f08c379a000000000000000000000000000000000000000000000000000000000815260040161125f90612fc4565b60405180910390fd5b61127484848484611d18565b50505050565b606061128582611458565b6112c4576040517f08c379a00000000000000000000000000000000000000000000000000000000081526004016112bb906136e7565b60405180910390fd5b60006112ce611d74565b905060008151116112ee5760405180602001604052806000815250611319565b806112f884611d8b565b604051602001611309929190613743565b6040516020818303038152906040525b915050919050565b61132a826107d8565b61133b816113366114c4565b6118bf565b6113458383611a3d565b505050565b6000606a60008473ffffffffffffffffffffffffffffffffffffffff1673ffffffffffffffffffffffffffffffffffffffff16815260200190815260200160002060008373ffffffffffffffffffffffffffffffffffffffff1673ffffffffffffffffffffffffffffffffffffffff16815260200190815260200160002060009054906101000a900460ff16905092915050565b60007f7965db0b000000000000000000000000000000000000000000000000000000007bffffffffffffffffffffffffffffffffffffffffffffffffffffffff1916827bffffffffffffffffffffffffffffffffffffffffffffffffffffffff19161480611451575061145082611eec565b5b9050919050565b60008073ffffffffffffffffffffffffffffffffffffffff166067600084815260200190815260200160002060009054906101000a900473ffffffffffffffffffffffffffffffffffffffff1673ffffffffffffffffffffffffffffffffffffffff1614159050919050565b600033905090565b816069600083815260200190815260200160002060006101000a81548173ffffffffffffffffffffffffffffffffffffffff021916908373ffffffffffffffffffffffffffffffffffffffff160217905550808273ffffffffffffffffffffffffffffffffffffffff1661153f836108c4565b73ffffffffffffffffffffffffffffffffffffffff167f8c5be1e5ebec7d5bd14f71427d1e84f3dd0314c0f7b2291e5b200ac8c7c3b92560405160405180910390a45050565b600061159082611458565b6115cf576040517f08c379a00000000000000000000000000000000000000000000000000000000081526004016115c6906137d9565b60405180910390fd5b60006115da836108c4565b90508073ffffffffffffffffffffffffffffffffffffffff168473ffffffffffffffffffffffffffffffffffffffff16148061164957508373ffffffffffffffffffffffffffffffffffffffff1661163184610595565b73ffffffffffffffffffffffffffffffffffffffff16145b8061165a5750611659818561134a565b5b91505092915050565b8273ffffffffffffffffffffffffffffffffffffffff16611683826108c4565b73ffffffffffffffffffffffffffffffffffffffff16146116d9576040517f08c379a00000000000000000000000000000000000000000000000000000000081526004016116d09061386b565b60405180910390fd5b600073ffffffffffffffffffffffffffffffffffffffff168273ffffffffffffffffffffffffffffffffffffffff161415611749576040517f08c379a0000000000000000000000000000000000000000000000000000000008152600401611740906138fd565b60405180910390fd5b611754838383611fce565b61175f6000826114cc565b6001606860008573ffffffffffffffffffffffffffffffffffffffff1673ffffffffffffffffffffffffffffffffffffffff16815260200190815260200160002060008282546117af919061391d565b925050819055506001606860008473ffffffffffffffffffffffffffffffffffffffff1673ffffffffffffffffffffffffffffffffffffffff16815260200190815260200160002060008282546118069190613137565b92505081905550816067600083815260200190815260200160002060006101000a81548173ffffffffffffffffffffffffffffffffffffffff021916908373ffffffffffffffffffffffffffffffffffffffff160217905550808273ffffffffffffffffffffffffffffffffffffffff168473ffffffffffffffffffffffffffffffffffffffff167fddf252ad1be2c89b69c2b068fc378daa952ba7f163c4a11628f55a4df523b3ef60405160405180910390a4505050565b6118c98282610d93565b611958576118ee8173ffffffffffffffffffffffffffffffffffffffff166014611fd3565b6118fc8360001c6020611fd3565b60405160200161190d9291906139e9565b6040516020818303038152906040526040517f08c379a000000000000000000000000000000000000000000000000000000000815260040161194f9190612798565b60405180910390fd5b5050565b6119668282610d93565b611a395760016097600084815260200190815260200160002060000160008373ffffffffffffffffffffffffffffffffffffffff1673ffffffffffffffffffffffffffffffffffffffff16815260200190815260200160002060006101000a81548160ff0219169083151502179055506119de6114c4565b73ffffffffffffffffffffffffffffffffffffffff168173ffffffffffffffffffffffffffffffffffffffff16837f2f8788117e7eff1d82e926ec794901d17c78024a50270940304540a733656f0d60405160405180910390a45b5050565b611a478282610d93565b15611b1b5760006097600084815260200190815260200160002060000160008373ffffffffffffffffffffffffffffffffffffffff1673ffffffffffffffffffffffffffffffffffffffff16815260200190815260200160002060006101000a81548160ff021916908315150217905550611ac06114c4565b73ffffffffffffffffffffffffffffffffffffffff168173ffffffffffffffffffffffffffffffffffffffff16837ff6391f5c32d9c69d2a47ea670b442974b53935d1edc7fd64eb21e047a839171b60405160405180910390a45b5050565b6000611b2a3061220f565b15905090565b611b3a828261195c565b5050565b600060019054906101000a900460ff16611b8d576040517f08c379a0000000000000000000000000000000000000000000000000000000008152600401611b8490613a95565b60405180910390fd5b611b95612222565b611b9d612273565b611ba782826122c4565b5050565b8173ffffffffffffffffffffffffffffffffffffffff168373ffffffffffffffffffffffffffffffffffffffff161415611c1a576040517f08c379a0000000000000000000000000000000000000000000000000000000008152600401611c1190613b01565b60405180910390fd5b80606a60008573ffffffffffffffffffffffffffffffffffffffff1673ffffffffffffffffffffffffffffffffffffffff16815260200190815260200160002060008473ffffffffffffffffffffffffffffffffffffffff1673ffffffffffffffffffffffffffffffffffffffff16815260200190815260200160002060006101000a81548160ff0219169083151502179055508173ffffffffffffffffffffffffffffffffffffffff168373ffffffffffffffffffffffffffffffffffffffff167f17307eab39ab6107e8899845ad3d59bd9653f200f220920489ca2b5937696c3183604051611d0b91906126e4565b60405180910390a3505050565b611d23848484611663565b611d2f84848484612345565b611d6e576040517f08c379a0000000000000000000000000000000000000000000000000000000008152600401611d6590613b93565b60405180910390fd5b50505050565b606060405180602001604052806000815250905090565b60606000821415611dd3576040518060400160405280600181526020017f30000000000000000000000000000000000000000000000000000000000000008152509050611ee7565b600082905060005b60008214611e05578080611dee9061362c565b915050600a82611dfe9190613523565b9150611ddb565b60008167ffffffffffffffff811115611e2157611e20612b1e565b5b6040519080825280601f01601f191660200182016040528015611e535781602001600182028036833780820191505090505b5090505b60008514611ee057600182611e6c919061391d565b9150600a85611e7b9190613bb3565b6030611e879190613137565b60f81b818381518110611e9d57611e9c612f23565b5b60200101907effffffffffffffffffffffffffffffffffffffffffffffffffffffffffffff1916908160001a905350600a85611ed99190613523565b9450611e57565b8093505050505b919050565b60007f80ac58cd000000000000000000000000000000000000000000000000000000007bffffffffffffffffffffffffffffffffffffffffffffffffffffffff1916827bffffffffffffffffffffffffffffffffffffffffffffffffffffffff19161480611fb757507f5b5e139f000000000000000000000000000000000000000000000000000000007bffffffffffffffffffffffffffffffffffffffffffffffffffffffff1916827bffffffffffffffffffffffffffffffffffffffffffffffffffffffff1916145b80611fc75750611fc6826124cd565b5b9050919050565b505050565b606060006002836002611fe6919061318d565b611ff09190613137565b67ffffffffffffffff81111561200957612008612b1e565b5b6040519080825280601f01601f19166020018201604052801561203b5781602001600182028036833780820191505090505b5090507f30000000000000000000000000000000000000000000000000000000000000008160008151811061207357612072612f23565b5b60200101907effffffffffffffffffffffffffffffffffffffffffffffffffffffffffffff1916908160001a9053507f7800000000000000000000000000000000000000000000000000000000000000816001815181106120d7576120d6612f23565b5b60200101907effffffffffffffffffffffffffffffffffffffffffffffffffffffffffffff1916908160001a90535060006001846002612117919061318d565b6121219190613137565b90505b60018111156121c1577f3031323334353637383961626364656600000000000000000000000000000000600f86166010811061216357612162612f23565b5b1a60f81b82828151811061217a57612179612f23565b5b60200101907effffffffffffffffffffffffffffffffffffffffffffffffffffffffffffff1916908160001a905350600485901c9450806121ba90613be4565b9050612124565b5060008414612205576040517f08c379a00000000000000000000000000000000000000000000000000000000081526004016121fc90613c5a565b60405180910390fd5b8091505092915050565b600080823b905060008111915050919050565b600060019054906101000a900460ff16612271576040517f08c379a000000000000000000000000000000000000000000000000000000000815260040161226890613a95565b60405180910390fd5b565b600060019054906101000a900460ff166122c2576040517f08c379a00000000000000000000000000000000000000000000000000000000081526004016122b990613a95565b60405180910390fd5b565b600060019054906101000a900460ff16612313576040517f08c379a000000000000000000000000000000000000000000000000000000000815260040161230a90613a95565b60405180910390fd5b8160659080519060200190612329929190612559565b508060669080519060200190612340929190612559565b505050565b60006123668473ffffffffffffffffffffffffffffffffffffffff1661220f565b156124c0578373ffffffffffffffffffffffffffffffffffffffff1663150b7a0261238f6114c4565b8786866040518563ffffffff1660e01b81526004016123b19493929190613ccf565b6020604051808303816000875af19250505080156123ed57506040513d601f19601f820116820180604052508101906123ea9190613d30565b60015b612470573d806000811461241d576040519150601f19603f3d011682016040523d82523d6000602084013e612422565b606091505b50600081511415612468576040517f08c379a000000000000000000000000000000000000000000000000000000000815260040161245f90613b93565b60405180910390fd5b805181602001fd5b63150b7a0260e01b7bffffffffffffffffffffffffffffffffffffffffffffffffffffffff1916817bffffffffffffffffffffffffffffffffffffffffffffffffffffffff1916149150506124c5565b600190505b949350505050565b60007f01ffc9a7000000000000000000000000000000000000000000000000000000007bffffffffffffffffffffffffffffffffffffffffffffffffffffffff1916827bffffffffffffffffffffffffffffffffffffffffffffffffffffffff1916149050919050565b6040518060200160405280600190602082028036833780820191505090505090565b82805461256590612d3b565b90600052602060002090601f01602090048101928261258757600085556125ce565b82601f106125a057805160ff19168380011785556125ce565b828001600101855582156125ce579182015b828111156125cd5782518255916020019190600101906125b2565b5b5090506125db91906125df565b5090565b5b808211156125f85760008160009055506001016125e0565b5090565b6000819050919050565b61260f816125fc565b82525050565b600060208201905061262a6000830184612606565b92915050565b6000604051905090565b600080fd5b600080fd5b60007fffffffff0000000000000000000000000000000000000000000000000000000082169050919050565b61267981612644565b811461268457600080fd5b50565b60008135905061269681612670565b92915050565b6000602082840312156126b2576126b161263a565b5b60006126c084828501612687565b91505092915050565b60008115159050919050565b6126de816126c9565b82525050565b60006020820190506126f960008301846126d5565b92915050565b600081519050919050565b600082825260208201905092915050565b60005b8381101561273957808201518184015260208101905061271e565b83811115612748576000848401525b50505050565b6000601f19601f8301169050919050565b600061276a826126ff565b612774818561270a565b935061278481856020860161271b565b61278d8161274e565b840191505092915050565b600060208201905081810360008301526127b2818461275f565b905092915050565b6000819050919050565b6127cd816127ba565b81146127d857600080fd5b50565b6000813590506127ea816127c4565b92915050565b6000602082840312156128065761280561263a565b5b6000612814848285016127db565b91505092915050565b600073ffffffffffffffffffffffffffffffffffffffff82169050919050565b60006128488261281d565b9050919050565b6128588161283d565b82525050565b6000602082019050612873600083018461284f565b92915050565b6128828161283d565b811461288d57600080fd5b50565b60008135905061289f81612879565b92915050565b600080604083850312156128bc576128bb61263a565b5b60006128ca85828601612890565b92505060206128db858286016127db565b9150509250929050565b6000806000606084860312156128fe576128fd61263a565b5b600061290c86828701612890565b935050602061291d86828701612890565b925050604061292e868287016127db565b9150509250925092565b612941816125fc565b811461294c57600080fd5b50565b60008135905061295e81612938565b92915050565b60006020828403121561297a5761297961263a565b5b60006129888482850161294f565b91505092915050565b600080604083850312156129a8576129a761263a565b5b60006129b68582860161294f565b92505060206129c785828601612890565b9150509250929050565b600080604083850312156129e8576129e761263a565b5b60006129f6858286016127db565b9250506020612a07858286016127db565b9150509250929050565b600060208284031215612a2757612a2661263a565b5b6000612a3584828501612890565b91505092915050565b612a47816127ba565b82525050565b6000602082019050612a626000830184612a3e565b92915050565b60008060408385031215612a7f57612a7e61263a565b5b6000612a8d858286016127db565b9250506020612a9e85828601612890565b9150509250929050565b612ab1816126c9565b8114612abc57600080fd5b50565b600081359050612ace81612aa8565b92915050565b60008060408385031215612aeb57612aea61263a565b5b6000612af985828601612890565b9250506020612b0a85828601612abf565b9150509250929050565b600080fd5b600080fd5b7f4e487b7100000000000000000000000000000000000000000000000000000000600052604160045260246000fd5b612b568261274e565b810181811067ffffffffffffffff82111715612b7557612b74612b1e565b5b80604052505050565b6000612b88612630565b9050612b948282612b4d565b919050565b600067ffffffffffffffff821115612bb457612bb3612b1e565b5b612bbd8261274e565b9050602081019050919050565b82818337600083830152505050565b6000612bec612be784612b99565b612b7e565b905082815260208101848484011115612c0857612c07612b19565b5b612c13848285612bca565b509392505050565b600082601f830112612c3057612c2f612b14565b5b8135612c40848260208601612bd9565b91505092915050565b60008060008060808587031215612c6357612c6261263a565b5b6000612c7187828801612890565b9450506020612c8287828801612890565b9350506040612c93878288016127db565b925050606085013567ffffffffffffffff811115612cb457612cb361263f565b5b612cc087828801612c1b565b91505092959194509250565b60008060408385031215612ce357612ce261263a565b5b6000612cf185828601612890565b9250506020612d0285828601612890565b9150509250929050565b7f4e487b7100000000000000000000000000000000000000000000000000000000600052602260045260246000fd5b60006002820490506001821680612d5357607f821691505b60208210811415612d6757612d66612d0c565b5b50919050565b7f4552433732313a20617070726f76656420717565727920666f72206e6f6e657860008201527f697374656e7420746f6b656e0000000000000000000000000000000000000000602082015250565b6000612dc9602c8361270a565b9150612dd482612d6d565b604082019050919050565b60006020820190508181036000830152612df881612dbc565b9050919050565b7f4552433732313a20617070726f76616c20746f2063757272656e74206f776e6560008201527f7200000000000000000000000000000000000000000000000000000000000000602082015250565b6000612e5b60218361270a565b9150612e6682612dff565b604082019050919050565b60006020820190508181036000830152612e8a81612e4e565b9050919050565b7f4552433732313a20617070726f76652063616c6c6572206973206e6f74206f7760008201527f6e6572206e6f7220617070726f76656420666f7220616c6c0000000000000000602082015250565b6000612eed60388361270a565b9150612ef882612e91565b604082019050919050565b60006020820190508181036000830152612f1c81612ee0565b9050919050565b7f4e487b7100000000000000000000000000000000000000000000000000000000600052603260045260246000fd5b7f4552433732313a207472616e736665722063616c6c6572206973206e6f74206f60008201527f776e6572206e6f7220617070726f766564000000000000000000000000000000602082015250565b6000612fae60318361270a565b9150612fb982612f52565b604082019050919050565b60006020820190508181036000830152612fdd81612fa1565b9050919050565b7f416363657373436f6e74726f6c3a2063616e206f6e6c792072656e6f756e636560008201527f20726f6c657320666f722073656c660000000000000000000000000000000000602082015250565b6000613040602f8361270a565b915061304b82612fe4565b604082019050919050565b6000602082019050818103600083015261306f81613033565b9050919050565b7f4552433732313a206f776e657220717565727920666f72206e6f6e657869737460008201527f656e7420746f6b656e0000000000000000000000000000000000000000000000602082015250565b60006130d260298361270a565b91506130dd82613076565b604082019050919050565b60006020820190508181036000830152613101816130c5565b9050919050565b7f4e487b7100000000000000000000000000000000000000000000000000000000600052601160045260246000fd5b6000613142826127ba565b915061314d836127ba565b9250827fffffffffffffffffffffffffffffffffffffffffffffffffffffffffffffffff0382111561318257613181613108565b5b828201905092915050565b6000613198826127ba565b91506131a3836127ba565b9250817fffffffffffffffffffffffffffffffffffffffffffffffffffffffffffffffff04831182151516156131dc576131db613108565b5b828202905092915050565b60006040820190506131fc6000830185612a3e565b6132096020830184612a3e565b9392505050565b7f4552433732313a2062616c616e636520717565727920666f7220746865207a6560008201527f726f206164647265737300000000000000000000000000000000000000000000602082015250565b600061326c602a8361270a565b915061327782613210565b604082019050919050565b6000602082019050818103600083015261329b8161325f565b9050919050565b7f496e697469616c697a61626c653a20636f6e747261637420697320616c72656160008201527f647920696e697469616c697a6564000000000000000000000000000000000000602082015250565b60006132fe602e8361270a565b9150613309826132a2565b604082019050919050565b6000602082019050818103600083015261332d816132f1565b9050919050565b60008160011c9050919050565b6000808291508390505b600185111561338b5780860481111561336757613366613108565b5b60018516156133765780820291505b808102905061338485613334565b945061334b565b94509492505050565b6000826133a45760019050613460565b816133b25760009050613460565b81600181146133c857600281146133d257613401565b6001915050613460565b60ff8411156133e4576133e3613108565b5b8360020a9150848211156133fb576133fa613108565b5b50613460565b5060208310610133831016604e8410600b84101617156134365782820a90508381111561343157613430613108565b5b613460565b6134438484846001613341565b9250905081840481111561345a57613459613108565b5b81810290505b9392505050565b6000613472826127ba565b915061347d836127ba565b92506134aa7fffffffffffffffffffffffffffffffffffffffffffffffffffffffffffffffff8484613394565b905092915050565b6000815190506134c1816127c4565b92915050565b6000602082840312156134dd576134dc61263a565b5b60006134eb848285016134b2565b91505092915050565b7f4e487b7100000000000000000000000000000000000000000000000000000000600052601260045260246000fd5b600061352e826127ba565b9150613539836127ba565b925082613549576135486134f4565b5b828204905092915050565b6000819050919050565b600061357961357461356f8461281d565b613554565b61281d565b9050919050565b600061358b8261355e565b9050919050565b600061359d82613580565b9050919050565b6135ad81613592565b82525050565b60006060820190506135c8600083018661284f565b6135d560208301856135a4565b6135e26040830184612a3e565b949350505050565b6000815190506135f981612aa8565b92915050565b6000602082840312156136155761361461263a565b5b6000613623848285016135ea565b91505092915050565b6000613637826127ba565b91507fffffffffffffffffffffffffffffffffffffffffffffffffffffffffffffffff82141561366a57613669613108565b5b600182019050919050565b7f4552433732314d657461646174613a2055524920717565727920666f72206e6f60008201527f6e6578697374656e7420746f6b656e0000000000000000000000000000000000602082015250565b60006136d1602f8361270a565b91506136dc82613675565b604082019050919050565b60006020820190508181036000830152613700816136c4565b9050919050565b600081905092915050565b600061371d826126ff565b6137278185613707565b935061373781856020860161271b565b80840191505092915050565b600061374f8285613712565b915061375b8284613712565b91508190509392505050565b7f4552433732313a206f70657261746f7220717565727920666f72206e6f6e657860008201527f697374656e7420746f6b656e0000000000000000000000000000000000000000602082015250565b60006137c3602c8361270a565b91506137ce82613767565b604082019050919050565b600060208201905081810360008301526137f2816137b6565b9050919050565b7f4552433732313a207472616e73666572206f6620746f6b656e2074686174206960008201527f73206e6f74206f776e0000000000000000000000000000000000000000000000602082015250565b600061385560298361270a565b9150613860826137f9565b604082019050919050565b6000602082019050818103600083015261388481613848565b9050919050565b7f4552433732313a207472616e7366657220746f20746865207a65726f2061646460008201527f7265737300000000000000000000000000000000000000000000000000000000602082015250565b60006138e760248361270a565b91506138f28261388b565b604082019050919050565b60006020820190508181036000830152613916816138da565b9050919050565b6000613928826127ba565b9150613933836127ba565b92508282101561394657613945613108565b5b828203905092915050565b7f416363657373436f6e74726f6c3a206163636f756e7420000000000000000000600082015250565b6000613987601783613707565b915061399282613951565b601782019050919050565b7f206973206d697373696e6720726f6c6520000000000000000000000000000000600082015250565b60006139d3601183613707565b91506139de8261399d565b601182019050919050565b60006139f48261397a565b9150613a008285613712565b9150613a0b826139c6565b9150613a178284613712565b91508190509392505050565b7f496e697469616c697a61626c653a20636f6e7472616374206973206e6f74206960008201527f6e697469616c697a696e67000000000000000000000000000000000000000000602082015250565b6000613a7f602b8361270a565b9150613a8a82613a23565b604082019050919050565b60006020820190508181036000830152613aae81613a72565b9050919050565b7f4552433732313a20617070726f766520746f2063616c6c657200000000000000600082015250565b6000613aeb60198361270a565b9150613af682613ab5565b602082019050919050565b60006020820190508181036000830152613b1a81613ade565b9050919050565b7f4552433732313a207472616e7366657220746f206e6f6e20455243373231526560008201527f63656976657220696d706c656d656e7465720000000000000000000000000000602082015250565b6000613b7d60328361270a565b9150613b8882613b21565b604082019050919050565b60006020820190508181036000830152613bac81613b70565b9050919050565b6000613bbe826127ba565b9150613bc9836127ba565b925082613bd957613bd86134f4565b5b828206905092915050565b6000613bef826127ba565b91506000821415613c0357613c02613108565b5b600182039050919050565b7f537472696e67733a20686578206c656e67746820696e73756666696369656e74600082015250565b6000613c4460208361270a565b9150613c4f82613c0e565b602082019050919050565b60006020820190508181036000830152613c7381613c37565b9050919050565b600081519050919050565b600082825260208201905092915050565b6000613ca182613c7a565b613cab8185613c85565b9350613cbb81856020860161271b565b613cc48161274e565b840191505092915050565b6000608082019050613ce4600083018761284f565b613cf1602083018661284f565b613cfe6040830185612a3e565b8181036060830152613d108184613c96565b905095945050505050565b600081519050613d2a81612670565b92915050565b600060208284031215613d4657613d4561263a565b5b6000613d5484828501613d1b565b9150509291505056fea2646970667358221220207ff60cc40eeba1fb0688b5ffcc5b8c3c0ec0cd961c876a494da1d1d7a6e70364736f6c634300080c0033",
  "immutableReferences": {},
  "source": "// SPDX-License-Identifier: UNLICENSED\r\n\r\npragma solidity ^0.8.3;\r\n\r\nimport \"@openzeppelin/contracts-upgradeable/utils/CountersUpgradeable.sol\";\r\nimport \"@openzeppelin/contracts-upgradeable/access/AccessControlUpgradeable.sol\";\r\nimport \"@openzeppelin/contracts-upgradeable/token/ERC721/ERC721Upgradeable.sol\";\r\nimport \"@openzeppelin/contracts-upgradeable/token/ERC20/IERC20Upgradeable.sol\";\r\n\r\n\r\ncontract Animal is ERC721Upgradeable, AccessControlUpgradeable {\r\n\r\n    bytes32 public constant QUEST_ROLE = keccak256(\"QUEST_ROLE\");\r\n    bytes32 public constant UPG_ROLE = keccak256(\"UPG_ROLE\");\r\n\r\n    event GainLevel(uint256 animalId);\r\n    event GainExp(uint256 animalId, uint256 amount);\r\n\r\n    uint256 Digits;\r\n    uint256 Modulus;\r\n\r\n    address payable DevelopmentAddress;\r\n    address payable TreasuryAddress;\r\n    address TokenAddress;\r\n\r\n    struct AnimalStruct {\r\n        uint256 DNA;\r\n        uint256 level;\r\n        uint256 exp;\r\n        uint256 stamina;\r\n        uint256 maxStamina;\r\n    }\r\n    \r\n    mapping(uint256 => AnimalStruct) animals;\r\n\r\n    using CountersUpgradeable for CountersUpgradeable.Counter;\r\n    CountersUpgradeable.Counter private animalCounter;\r\n\r\n    function supportsInterface(bytes4 interfaceId) public view virtual override(ERC721Upgradeable, AccessControlUpgradeable) returns (bool) {\r\n        return super.supportsInterface(interfaceId);\r\n    }\r\n\r\n    function initialize() initializer public {\r\n        Digits = 16;\r\n        Modulus = 10 ** Digits;\r\n\r\n        DevelopmentAddress = payable(0x7C50D01C7Ba0EDE836bDA6daC88A952f325756e3);\r\n        TreasuryAddress = payable(0xa691623968855b91A066661b0552a7D3764c9a64);\r\n        _setupRole(DEFAULT_ADMIN_ROLE, msg.sender);\r\n        __ERC721_init(\"Patagonic Animal\", \"pAnimal\");\r\n    }\r\n\r\n    //Util Functions\r\n\r\n    function vrf() public view returns (bytes32 result) {\r\n        uint[1] memory bn;\r\n        bn[0] = block.number;\r\n        assembly {\r\n            let memPtr := mload(0x40)\r\n            if iszero(staticcall(not(0), 0xff, bn, 0x20, memPtr, 0x20)) {\r\n                invalid()\r\n            }\r\n            result := mload(memPtr)\r\n        }\r\n    }\r\n\r\n    function _generateRandomDNA() internal view returns (uint256) {\r\n        uint256 rand = uint256(keccak256(abi.encodePacked(vrf())));\r\n        return rand % Modulus;\r\n    }\r\n\r\n    function gainLevel(uint256 animalId, address user) external onlyRole(UPG_ROLE) {\r\n        uint256 amount = animals[animalId].level*10**18;\r\n        require(IERC20Upgradeable(TokenAddress).balanceOf(user)>= amount);\r\n        IERC20Upgradeable(TokenAddress).transferFrom(user, TreasuryAddress, amount*96/100);\r\n        IERC20Upgradeable(TokenAddress).transferFrom(user, DevelopmentAddress, amount*4/100);\r\n        animals[animalId].exp = 0;\r\n        animals[animalId].level++;\r\n        emit GainLevel(animalId);\r\n    }\r\n\r\n    function gainExp(uint256 animalId, uint256 amount) external onlyRole(QUEST_ROLE) {\r\n        if (animals[animalId].level*100 <= animals[animalId].exp + amount) {\r\n            animals[animalId].exp = animals[animalId].level*100;\r\n        } else {\r\n            animals[animalId].exp = animals[animalId].exp + amount;\r\n        }\r\n        emit GainExp(animalId, amount);\r\n    }\r\n}",
  "sourcePath": "C:\\Users\\jtsch\\OneDrive\\Escritorio\\Python\\SmartContracts-NFT-Agus\\contracts\\Animal.sol",
  "compiler": {
    "name": "solc",
    "version": "0.8.12+commit.f00d7308.Emscripten.clang"
  },
  "schemaVersion": "3.4.3",
  "updatedAt": "2022-02-24T19:18:42.878Z",
  "devdoc": {
    "kind": "dev",
    "methods": {
      "approve(address,uint256)": {
        "details": "See {IERC721-approve}."
      },
      "balanceOf(address)": {
        "details": "See {IERC721-balanceOf}."
      },
      "getApproved(uint256)": {
        "details": "See {IERC721-getApproved}."
      },
      "getRoleAdmin(bytes32)": {
        "details": "Returns the admin role that controls `role`. See {grantRole} and {revokeRole}. To change a role's admin, use {_setRoleAdmin}."
      },
      "grantRole(bytes32,address)": {
        "details": "Grants `role` to `account`. If `account` had not been already granted `role`, emits a {RoleGranted} event. Requirements: - the caller must have ``role``'s admin role."
      },
      "hasRole(bytes32,address)": {
        "details": "Returns `true` if `account` has been granted `role`."
      },
      "isApprovedForAll(address,address)": {
        "details": "See {IERC721-isApprovedForAll}."
      },
      "name()": {
        "details": "See {IERC721Metadata-name}."
      },
      "ownerOf(uint256)": {
        "details": "See {IERC721-ownerOf}."
      },
      "renounceRole(bytes32,address)": {
        "details": "Revokes `role` from the calling account. Roles are often managed via {grantRole} and {revokeRole}: this function's purpose is to provide a mechanism for accounts to lose their privileges if they are compromised (such as when a trusted device is misplaced). If the calling account had been revoked `role`, emits a {RoleRevoked} event. Requirements: - the caller must be `account`."
      },
      "revokeRole(bytes32,address)": {
        "details": "Revokes `role` from `account`. If `account` had been granted `role`, emits a {RoleRevoked} event. Requirements: - the caller must have ``role``'s admin role."
      },
      "safeTransferFrom(address,address,uint256)": {
        "details": "See {IERC721-safeTransferFrom}."
      },
      "safeTransferFrom(address,address,uint256,bytes)": {
        "details": "See {IERC721-safeTransferFrom}."
      },
      "setApprovalForAll(address,bool)": {
        "details": "See {IERC721-setApprovalForAll}."
      },
      "symbol()": {
        "details": "See {IERC721Metadata-symbol}."
      },
      "tokenURI(uint256)": {
        "details": "See {IERC721Metadata-tokenURI}."
      },
      "transferFrom(address,address,uint256)": {
        "details": "See {IERC721-transferFrom}."
      }
    },
    "version": 1
  },
  "userdoc": {
    "kind": "user",
    "methods": {},
    "version": 1
  }
}