{
  "contractName": "BasicRune",
  "abi": [
    {
      "anonymous": false,
      "inputs": [
        {
          "indexed": true,
          "internalType": "address",
          "name": "owner",
          "type": "address"
        },
        {
          "indexed": true,
          "internalType": "address",
          "name": "approved",
          "type": "address"
        },
        {
          "indexed": true,
          "internalType": "uint256",
          "name": "tokenId",
          "type": "uint256"
        }
      ],
      "name": "Approval",
      "type": "event"
    },
    {
      "anonymous": false,
      "inputs": [
        {
          "indexed": true,
          "internalType": "address",
          "name": "owner",
          "type": "address"
        },
        {
          "indexed": true,
          "internalType": "address",
          "name": "operator",
          "type": "address"
        },
        {
          "indexed": false,
          "internalType": "bool",
          "name": "approved",
          "type": "bool"
        }
      ],
      "name": "ApprovalForAll",
      "type": "event"
    },
    {
      "anonymous": false,
      "inputs": [
        {
          "indexed": true,
          "internalType": "address",
          "name": "from",
          "type": "address"
        },
        {
          "indexed": true,
          "internalType": "address",
          "name": "to",
          "type": "address"
        },
        {
          "indexed": true,
          "internalType": "uint256",
          "name": "tokenId",
          "type": "uint256"
        }
      ],
      "name": "Transfer",
      "type": "event"
    },
    {
      "inputs": [
        {
          "internalType": "address",
          "name": "to",
          "type": "address"
        },
        {
          "internalType": "uint256",
          "name": "tokenId",
          "type": "uint256"
        }
      ],
      "name": "approve",
      "outputs": [],
      "stateMutability": "nonpayable",
      "type": "function"
    },
    {
      "inputs": [
        {
          "internalType": "address",
          "name": "owner",
          "type": "address"
        }
      ],
      "name": "balanceOf",
      "outputs": [
        {
          "internalType": "uint256",
          "name": "",
          "type": "uint256"
        }
      ],
      "stateMutability": "view",
      "type": "function"
    },
    {
      "inputs": [
        {
          "internalType": "uint256",
          "name": "",
          "type": "uint256"
        }
      ],
      "name": "basicRunes",
      "outputs": [
        {
          "internalType": "uint256",
          "name": "",
          "type": "uint256"
        }
      ],
      "stateMutability": "view",
      "type": "function"
    },
    {
      "inputs": [
        {
          "internalType": "uint256",
          "name": "tokenId",
          "type": "uint256"
        }
      ],
      "name": "getApproved",
      "outputs": [
        {
          "internalType": "address",
          "name": "",
          "type": "address"
        }
      ],
      "stateMutability": "view",
      "type": "function"
    },
    {
      "inputs": [
        {
          "internalType": "address",
          "name": "owner",
          "type": "address"
        },
        {
          "internalType": "address",
          "name": "operator",
          "type": "address"
        }
      ],
      "name": "isApprovedForAll",
      "outputs": [
        {
          "internalType": "bool",
          "name": "",
          "type": "bool"
        }
      ],
      "stateMutability": "view",
      "type": "function"
    },
    {
      "inputs": [],
      "name": "name",
      "outputs": [
        {
          "internalType": "string",
          "name": "",
          "type": "string"
        }
      ],
      "stateMutability": "view",
      "type": "function"
    },
    {
      "inputs": [
        {
          "internalType": "uint256",
          "name": "tokenId",
          "type": "uint256"
        }
      ],
      "name": "ownerOf",
      "outputs": [
        {
          "internalType": "address",
          "name": "",
          "type": "address"
        }
      ],
      "stateMutability": "view",
      "type": "function"
    },
    {
      "inputs": [
        {
          "internalType": "address",
          "name": "from",
          "type": "address"
        },
        {
          "internalType": "address",
          "name": "to",
          "type": "address"
        },
        {
          "internalType": "uint256",
          "name": "tokenId",
          "type": "uint256"
        }
      ],
      "name": "safeTransferFrom",
      "outputs": [],
      "stateMutability": "nonpayable",
      "type": "function"
    },
    {
      "inputs": [
        {
          "internalType": "address",
          "name": "from",
          "type": "address"
        },
        {
          "internalType": "address",
          "name": "to",
          "type": "address"
        },
        {
          "internalType": "uint256",
          "name": "tokenId",
          "type": "uint256"
        },
        {
          "internalType": "bytes",
          "name": "_data",
          "type": "bytes"
        }
      ],
      "name": "safeTransferFrom",
      "outputs": [],
      "stateMutability": "nonpayable",
      "type": "function"
    },
    {
      "inputs": [
        {
          "internalType": "address",
          "name": "operator",
          "type": "address"
        },
        {
          "internalType": "bool",
          "name": "approved",
          "type": "bool"
        }
      ],
      "name": "setApprovalForAll",
      "outputs": [],
      "stateMutability": "nonpayable",
      "type": "function"
    },
    {
      "inputs": [
        {
          "internalType": "bytes4",
          "name": "interfaceId",
          "type": "bytes4"
        }
      ],
      "name": "supportsInterface",
      "outputs": [
        {
          "internalType": "bool",
          "name": "",
          "type": "bool"
        }
      ],
      "stateMutability": "view",
      "type": "function"
    },
    {
      "inputs": [],
      "name": "symbol",
      "outputs": [
        {
          "internalType": "string",
          "name": "",
          "type": "string"
        }
      ],
      "stateMutability": "view",
      "type": "function"
    },
    {
      "inputs": [
        {
          "internalType": "uint256",
          "name": "tokenId",
          "type": "uint256"
        }
      ],
      "name": "tokenURI",
      "outputs": [
        {
          "internalType": "string",
          "name": "",
          "type": "string"
        }
      ],
      "stateMutability": "view",
      "type": "function"
    },
    {
      "inputs": [
        {
          "internalType": "address",
          "name": "from",
          "type": "address"
        },
        {
          "internalType": "address",
          "name": "to",
          "type": "address"
        },
        {
          "internalType": "uint256",
          "name": "tokenId",
          "type": "uint256"
        }
      ],
      "name": "transferFrom",
      "outputs": [],
      "stateMutability": "nonpayable",
      "type": "function"
    },
    {
      "inputs": [],
      "name": "initialize",
      "outputs": [],
      "stateMutability": "nonpayable",
      "type": "function"
    },
    {
      "inputs": [
        {
          "internalType": "address",
          "name": "_address",
          "type": "address"
        }
      ],
      "name": "mint",
      "outputs": [],
      "stateMutability": "payable",
      "type": "function"
    },
    {
      "inputs": [
        {
          "internalType": "address",
          "name": "newOwner",
          "type": "address"
        }
      ],
      "name": "transferOwnership",
      "outputs": [],
      "stateMutability": "payable",
      "type": "function"
    },
    {
      "inputs": [
        {
          "internalType": "address",
          "name": "newQuestContract",
          "type": "address"
        }
      ],
      "name": "transferQuestContract",
      "outputs": [],
      "stateMutability": "payable",
      "type": "function"
    }
  ],
  "bytecode": "0x608060405234801561001057600080fd5b50612f42806100206000396000f3fe6080604052600436106101095760003560e01c806370a0823111610095578063a22cb46511610064578063a22cb4651461035f578063b88d4fde14610388578063c87b56dd146103b1578063e985e9c5146103ee578063f2fde38b1461042b57610109565b806370a08231146102a35780637f0dc99d146102e05780638129fc1c1461031d57806395d89b411461033457610109565b8063104e21b2116100dc578063104e21b2146101dc57806323b872dd146101f857806342842e0e146102215780636352211e1461024a5780636a6278421461028757610109565b806301ffc9a71461010e57806306fdde031461014b578063081812fc14610176578063095ea7b3146101b3575b600080fd5b34801561011a57600080fd5b5061013560048036038101906101309190611da1565b610447565b6040516101429190611de9565b60405180910390f35b34801561015757600080fd5b50610160610529565b60405161016d9190611e9d565b60405180910390f35b34801561018257600080fd5b5061019d60048036038101906101989190611ef5565b6105bb565b6040516101aa9190611f63565b60405180910390f35b3480156101bf57600080fd5b506101da60048036038101906101d59190611faa565b610640565b005b6101f660048036038101906101f19190611fea565b610758565b005b34801561020457600080fd5b5061021f600480360381019061021a9190612017565b6107f6565b005b34801561022d57600080fd5b5061024860048036038101906102439190612017565b610856565b005b34801561025657600080fd5b50610271600480360381019061026c9190611ef5565b610876565b60405161027e9190611f63565b60405180910390f35b6102a1600480360381019061029c9190611fea565b610928565b005b3480156102af57600080fd5b506102ca60048036038101906102c59190611fea565b6109c3565b6040516102d79190612079565b60405180910390f35b3480156102ec57600080fd5b5061030760048036038101906103029190611ef5565b610a7b565b6040516103149190612079565b60405180910390f35b34801561032957600080fd5b50610332610a9f565b005b34801561034057600080fd5b50610349610c8e565b6040516103569190611e9d565b60405180910390f35b34801561036b57600080fd5b50610386600480360381019061038191906120c0565b610d20565b005b34801561039457600080fd5b506103af60048036038101906103aa9190612235565b610d36565b005b3480156103bd57600080fd5b506103d860048036038101906103d39190611ef5565b610d98565b6040516103e59190611e9d565b60405180910390f35b3480156103fa57600080fd5b50610415600480360381019061041091906122b8565b610e3f565b6040516104229190611de9565b60405180910390f35b61044560048036038101906104409190611fea565b610ed3565b005b60007f80ac58cd000000000000000000000000000000000000000000000000000000007bffffffffffffffffffffffffffffffffffffffffffffffffffffffff1916827bffffffffffffffffffffffffffffffffffffffffffffffffffffffff1916148061051257507f5b5e139f000000000000000000000000000000000000000000000000000000007bffffffffffffffffffffffffffffffffffffffffffffffffffffffff1916827bffffffffffffffffffffffffffffffffffffffffffffffffffffffff1916145b80610522575061052182610f71565b5b9050919050565b60606065805461053890612327565b80601f016020809104026020016040519081016040528092919081815260200182805461056490612327565b80156105b15780601f10610586576101008083540402835291602001916105b1565b820191906000526020600020905b81548152906001019060200180831161059457829003601f168201915b5050505050905090565b60006105c682610fdb565b610605576040517f08c379a00000000000000000000000000000000000000000000000000000000081526004016105fc906123cb565b60405180910390fd5b6069600083815260200190815260200160002060009054906101000a900473ffffffffffffffffffffffffffffffffffffffff169050919050565b600061064b82610876565b90508073ffffffffffffffffffffffffffffffffffffffff168373ffffffffffffffffffffffffffffffffffffffff1614156106bc576040517f08c379a00000000000000000000000000000000000000000000000000000000081526004016106b39061245d565b60405180910390fd5b8073ffffffffffffffffffffffffffffffffffffffff166106db611047565b73ffffffffffffffffffffffffffffffffffffffff16148061070a575061070981610704611047565b610e3f565b5b610749576040517f08c379a0000000000000000000000000000000000000000000000000000000008152600401610740906124ef565b60405180910390fd5b610753838361104f565b505050565b3373ffffffffffffffffffffffffffffffffffffffff16609760009054906101000a900473ffffffffffffffffffffffffffffffffffffffff1673ffffffffffffffffffffffffffffffffffffffff16146107b257600080fd5b80609860006101000a81548173ffffffffffffffffffffffffffffffffffffffff021916908373ffffffffffffffffffffffffffffffffffffffff16021790555050565b610807610801611047565b82611108565b610846576040517f08c379a000000000000000000000000000000000000000000000000000000000815260040161083d90612581565b60405180910390fd5b6108518383836111e6565b505050565b61087183838360405180602001604052806000815250610d36565b505050565b6000806067600084815260200190815260200160002060009054906101000a900473ffffffffffffffffffffffffffffffffffffffff169050600073ffffffffffffffffffffffffffffffffffffffff168173ffffffffffffffffffffffffffffffffffffffff16141561091f576040517f08c379a000000000000000000000000000000000000000000000000000000000815260040161091690612613565b60405180910390fd5b80915050919050565b3373ffffffffffffffffffffffffffffffffffffffff16609860009054906101000a900473ffffffffffffffffffffffffffffffffffffffff1673ffffffffffffffffffffffffffffffffffffffff161461098257600080fd5b6000609980549050905060998190806001815401808255809150506001900390600052602060002001600090919091909150556109bf8282611442565b5050565b60008073ffffffffffffffffffffffffffffffffffffffff168273ffffffffffffffffffffffffffffffffffffffff161415610a34576040517f08c379a0000000000000000000000000000000000000000000000000000000008152600401610a2b906126a5565b60405180910390fd5b606860008373ffffffffffffffffffffffffffffffffffffffff1673ffffffffffffffffffffffffffffffffffffffff168152602001908152602001600020549050919050565b60998181548110610a8b57600080fd5b906000526020600020016000915090505481565b600060019054906101000a900460ff16610ac75760008054906101000a900460ff1615610ad0565b610acf611610565b5b610b0f576040517f08c379a0000000000000000000000000000000000000000000000000000000008152600401610b0690612737565b60405180910390fd5b60008060019054906101000a900460ff161590508015610b5f576001600060016101000a81548160ff02191690831515021790555060016000806101000a81548160ff0219169083151502179055505b73f577601a5ef1d5079da672f01d7ab3b80dd2bd1d609760006101000a81548173ffffffffffffffffffffffffffffffffffffffff021916908373ffffffffffffffffffffffffffffffffffffffff1602179055506000609860006101000a81548173ffffffffffffffffffffffffffffffffffffffff021916908373ffffffffffffffffffffffffffffffffffffffff160217905550610c6a6040518060400160405280600a81526020017f42617369632052756e65000000000000000000000000000000000000000000008152506040518060400160405280600681526020017f426152756e650000000000000000000000000000000000000000000000000000815250611621565b8015610c8b5760008060016101000a81548160ff0219169083151502179055505b50565b606060668054610c9d90612327565b80601f0160208091040260200160405190810160405280929190818152602001828054610cc990612327565b8015610d165780601f10610ceb57610100808354040283529160200191610d16565b820191906000526020600020905b815481529060010190602001808311610cf957829003601f168201915b5050505050905090565b610d32610d2b611047565b838361168e565b5050565b610d47610d41611047565b83611108565b610d86576040517f08c379a0000000000000000000000000000000000000000000000000000000008152600401610d7d90612581565b60405180910390fd5b610d92848484846117fb565b50505050565b6060610da382610fdb565b610de2576040517f08c379a0000000000000000000000000000000000000000000000000000000008152600401610dd9906127c9565b60405180910390fd5b6000610dec611857565b90506000815111610e0c5760405180602001604052806000815250610e37565b80610e168461186e565b604051602001610e27929190612825565b6040516020818303038152906040525b915050919050565b6000606a60008473ffffffffffffffffffffffffffffffffffffffff1673ffffffffffffffffffffffffffffffffffffffff16815260200190815260200160002060008373ffffffffffffffffffffffffffffffffffffffff1673ffffffffffffffffffffffffffffffffffffffff16815260200190815260200160002060009054906101000a900460ff16905092915050565b3373ffffffffffffffffffffffffffffffffffffffff16609760009054906101000a900473ffffffffffffffffffffffffffffffffffffffff1673ffffffffffffffffffffffffffffffffffffffff1614610f2d57600080fd5b80609760006101000a81548173ffffffffffffffffffffffffffffffffffffffff021916908373ffffffffffffffffffffffffffffffffffffffff16021790555050565b60007f01ffc9a7000000000000000000000000000000000000000000000000000000007bffffffffffffffffffffffffffffffffffffffffffffffffffffffff1916827bffffffffffffffffffffffffffffffffffffffffffffffffffffffff1916149050919050565b60008073ffffffffffffffffffffffffffffffffffffffff166067600084815260200190815260200160002060009054906101000a900473ffffffffffffffffffffffffffffffffffffffff1673ffffffffffffffffffffffffffffffffffffffff1614159050919050565b600033905090565b816069600083815260200190815260200160002060006101000a81548173ffffffffffffffffffffffffffffffffffffffff021916908373ffffffffffffffffffffffffffffffffffffffff160217905550808273ffffffffffffffffffffffffffffffffffffffff166110c283610876565b73ffffffffffffffffffffffffffffffffffffffff167f8c5be1e5ebec7d5bd14f71427d1e84f3dd0314c0f7b2291e5b200ac8c7c3b92560405160405180910390a45050565b600061111382610fdb565b611152576040517f08c379a0000000000000000000000000000000000000000000000000000000008152600401611149906128bb565b60405180910390fd5b600061115d83610876565b90508073ffffffffffffffffffffffffffffffffffffffff168473ffffffffffffffffffffffffffffffffffffffff1614806111cc57508373ffffffffffffffffffffffffffffffffffffffff166111b4846105bb565b73ffffffffffffffffffffffffffffffffffffffff16145b806111dd57506111dc8185610e3f565b5b91505092915050565b8273ffffffffffffffffffffffffffffffffffffffff1661120682610876565b73ffffffffffffffffffffffffffffffffffffffff161461125c576040517f08c379a00000000000000000000000000000000000000000000000000000000081526004016112539061294d565b60405180910390fd5b600073ffffffffffffffffffffffffffffffffffffffff168273ffffffffffffffffffffffffffffffffffffffff1614156112cc576040517f08c379a00000000000000000000000000000000000000000000000000000000081526004016112c3906129df565b60405180910390fd5b6112d78383836119cf565b6112e260008261104f565b6001606860008573ffffffffffffffffffffffffffffffffffffffff1673ffffffffffffffffffffffffffffffffffffffff16815260200190815260200160002060008282546113329190612a2e565b925050819055506001606860008473ffffffffffffffffffffffffffffffffffffffff1673ffffffffffffffffffffffffffffffffffffffff16815260200190815260200160002060008282546113899190612a62565b92505081905550816067600083815260200190815260200160002060006101000a81548173ffffffffffffffffffffffffffffffffffffffff021916908373ffffffffffffffffffffffffffffffffffffffff160217905550808273ffffffffffffffffffffffffffffffffffffffff168473ffffffffffffffffffffffffffffffffffffffff167fddf252ad1be2c89b69c2b068fc378daa952ba7f163c4a11628f55a4df523b3ef60405160405180910390a4505050565b600073ffffffffffffffffffffffffffffffffffffffff168273ffffffffffffffffffffffffffffffffffffffff1614156114b2576040517f08c379a00000000000000000000000000000000000000000000000000000000081526004016114a990612b04565b60405180910390fd5b6114bb81610fdb565b156114fb576040517f08c379a00000000000000000000000000000000000000000000000000000000081526004016114f290612b70565b60405180910390fd5b611507600083836119cf565b6001606860008473ffffffffffffffffffffffffffffffffffffffff1673ffffffffffffffffffffffffffffffffffffffff16815260200190815260200160002060008282546115579190612a62565b92505081905550816067600083815260200190815260200160002060006101000a81548173ffffffffffffffffffffffffffffffffffffffff021916908373ffffffffffffffffffffffffffffffffffffffff160217905550808273ffffffffffffffffffffffffffffffffffffffff16600073ffffffffffffffffffffffffffffffffffffffff167fddf252ad1be2c89b69c2b068fc378daa952ba7f163c4a11628f55a4df523b3ef60405160405180910390a45050565b600061161b306119d4565b15905090565b600060019054906101000a900460ff16611670576040517f08c379a000000000000000000000000000000000000000000000000000000000815260040161166790612c02565b60405180910390fd5b6116786119e7565b611680611a38565b61168a8282611a89565b5050565b8173ffffffffffffffffffffffffffffffffffffffff168373ffffffffffffffffffffffffffffffffffffffff1614156116fd576040517f08c379a00000000000000000000000000000000000000000000000000000000081526004016116f490612c6e565b60405180910390fd5b80606a60008573ffffffffffffffffffffffffffffffffffffffff1673ffffffffffffffffffffffffffffffffffffffff16815260200190815260200160002060008473ffffffffffffffffffffffffffffffffffffffff1673ffffffffffffffffffffffffffffffffffffffff16815260200190815260200160002060006101000a81548160ff0219169083151502179055508173ffffffffffffffffffffffffffffffffffffffff168373ffffffffffffffffffffffffffffffffffffffff167f17307eab39ab6107e8899845ad3d59bd9653f200f220920489ca2b5937696c31836040516117ee9190611de9565b60405180910390a3505050565b6118068484846111e6565b61181284848484611b0a565b611851576040517f08c379a000000000000000000000000000000000000000000000000000000000815260040161184890612d00565b60405180910390fd5b50505050565b606060405180602001604052806000815250905090565b606060008214156118b6576040518060400160405280600181526020017f300000000000000000000000000000000000000000000000000000000000000081525090506119ca565b600082905060005b600082146118e85780806118d190612d20565b915050600a826118e19190612d98565b91506118be565b60008167ffffffffffffffff8111156119045761190361210a565b5b6040519080825280601f01601f1916602001820160405280156119365781602001600182028036833780820191505090505b5090505b600085146119c35760018261194f9190612a2e565b9150600a8561195e9190612dc9565b603061196a9190612a62565b60f81b8183815181106119805761197f612dfa565b5b60200101907effffffffffffffffffffffffffffffffffffffffffffffffffffffffffffff1916908160001a905350600a856119bc9190612d98565b945061193a565b8093505050505b919050565b505050565b600080823b905060008111915050919050565b600060019054906101000a900460ff16611a36576040517f08c379a0000000000000000000000000000000000000000000000000000000008152600401611a2d90612c02565b60405180910390fd5b565b600060019054906101000a900460ff16611a87576040517f08c379a0000000000000000000000000000000000000000000000000000000008152600401611a7e90612c02565b60405180910390fd5b565b600060019054906101000a900460ff16611ad8576040517f08c379a0000000000000000000000000000000000000000000000000000000008152600401611acf90612c02565b60405180910390fd5b8160659080519060200190611aee929190611c92565b508060669080519060200190611b05929190611c92565b505050565b6000611b2b8473ffffffffffffffffffffffffffffffffffffffff166119d4565b15611c85578373ffffffffffffffffffffffffffffffffffffffff1663150b7a02611b54611047565b8786866040518563ffffffff1660e01b8152600401611b769493929190612e7e565b6020604051808303816000875af1925050508015611bb257506040513d601f19601f82011682018060405250810190611baf9190612edf565b60015b611c35573d8060008114611be2576040519150601f19603f3d011682016040523d82523d6000602084013e611be7565b606091505b50600081511415611c2d576040517f08c379a0000000000000000000000000000000000000000000000000000000008152600401611c2490612d00565b60405180910390fd5b805181602001fd5b63150b7a0260e01b7bffffffffffffffffffffffffffffffffffffffffffffffffffffffff1916817bffffffffffffffffffffffffffffffffffffffffffffffffffffffff191614915050611c8a565b600190505b949350505050565b828054611c9e90612327565b90600052602060002090601f016020900481019282611cc05760008555611d07565b82601f10611cd957805160ff1916838001178555611d07565b82800160010185558215611d07579182015b82811115611d06578251825591602001919060010190611ceb565b5b509050611d149190611d18565b5090565b5b80821115611d31576000816000905550600101611d19565b5090565b6000604051905090565b600080fd5b600080fd5b60007fffffffff0000000000000000000000000000000000000000000000000000000082169050919050565b611d7e81611d49565b8114611d8957600080fd5b50565b600081359050611d9b81611d75565b92915050565b600060208284031215611db757611db6611d3f565b5b6000611dc584828501611d8c565b91505092915050565b60008115159050919050565b611de381611dce565b82525050565b6000602082019050611dfe6000830184611dda565b92915050565b600081519050919050565b600082825260208201905092915050565b60005b83811015611e3e578082015181840152602081019050611e23565b83811115611e4d576000848401525b50505050565b6000601f19601f8301169050919050565b6000611e6f82611e04565b611e798185611e0f565b9350611e89818560208601611e20565b611e9281611e53565b840191505092915050565b60006020820190508181036000830152611eb78184611e64565b905092915050565b6000819050919050565b611ed281611ebf565b8114611edd57600080fd5b50565b600081359050611eef81611ec9565b92915050565b600060208284031215611f0b57611f0a611d3f565b5b6000611f1984828501611ee0565b91505092915050565b600073ffffffffffffffffffffffffffffffffffffffff82169050919050565b6000611f4d82611f22565b9050919050565b611f5d81611f42565b82525050565b6000602082019050611f786000830184611f54565b92915050565b611f8781611f42565b8114611f9257600080fd5b50565b600081359050611fa481611f7e565b92915050565b60008060408385031215611fc157611fc0611d3f565b5b6000611fcf85828601611f95565b9250506020611fe085828601611ee0565b9150509250929050565b60006020828403121561200057611fff611d3f565b5b600061200e84828501611f95565b91505092915050565b6000806000606084860312156120305761202f611d3f565b5b600061203e86828701611f95565b935050602061204f86828701611f95565b925050604061206086828701611ee0565b9150509250925092565b61207381611ebf565b82525050565b600060208201905061208e600083018461206a565b92915050565b61209d81611dce565b81146120a857600080fd5b50565b6000813590506120ba81612094565b92915050565b600080604083850312156120d7576120d6611d3f565b5b60006120e585828601611f95565b92505060206120f6858286016120ab565b9150509250929050565b600080fd5b600080fd5b7f4e487b7100000000000000000000000000000000000000000000000000000000600052604160045260246000fd5b61214282611e53565b810181811067ffffffffffffffff821117156121615761216061210a565b5b80604052505050565b6000612174611d35565b90506121808282612139565b919050565b600067ffffffffffffffff8211156121a05761219f61210a565b5b6121a982611e53565b9050602081019050919050565b82818337600083830152505050565b60006121d86121d384612185565b61216a565b9050828152602081018484840111156121f4576121f3612105565b5b6121ff8482856121b6565b509392505050565b600082601f83011261221c5761221b612100565b5b813561222c8482602086016121c5565b91505092915050565b6000806000806080858703121561224f5761224e611d3f565b5b600061225d87828801611f95565b945050602061226e87828801611f95565b935050604061227f87828801611ee0565b925050606085013567ffffffffffffffff8111156122a05761229f611d44565b5b6122ac87828801612207565b91505092959194509250565b600080604083850312156122cf576122ce611d3f565b5b60006122dd85828601611f95565b92505060206122ee85828601611f95565b9150509250929050565b7f4e487b7100000000000000000000000000000000000000000000000000000000600052602260045260246000fd5b6000600282049050600182168061233f57607f821691505b60208210811415612353576123526122f8565b5b50919050565b7f4552433732313a20617070726f76656420717565727920666f72206e6f6e657860008201527f697374656e7420746f6b656e0000000000000000000000000000000000000000602082015250565b60006123b5602c83611e0f565b91506123c082612359565b604082019050919050565b600060208201905081810360008301526123e4816123a8565b9050919050565b7f4552433732313a20617070726f76616c20746f2063757272656e74206f776e6560008201527f7200000000000000000000000000000000000000000000000000000000000000602082015250565b6000612447602183611e0f565b9150612452826123eb565b604082019050919050565b600060208201905081810360008301526124768161243a565b9050919050565b7f4552433732313a20617070726f76652063616c6c6572206973206e6f74206f7760008201527f6e6572206e6f7220617070726f76656420666f7220616c6c0000000000000000602082015250565b60006124d9603883611e0f565b91506124e48261247d565b604082019050919050565b60006020820190508181036000830152612508816124cc565b9050919050565b7f4552433732313a207472616e736665722063616c6c6572206973206e6f74206f60008201527f776e6572206e6f7220617070726f766564000000000000000000000000000000602082015250565b600061256b603183611e0f565b91506125768261250f565b604082019050919050565b6000602082019050818103600083015261259a8161255e565b9050919050565b7f4552433732313a206f776e657220717565727920666f72206e6f6e657869737460008201527f656e7420746f6b656e0000000000000000000000000000000000000000000000602082015250565b60006125fd602983611e0f565b9150612608826125a1565b604082019050919050565b6000602082019050818103600083015261262c816125f0565b9050919050565b7f4552433732313a2062616c616e636520717565727920666f7220746865207a6560008201527f726f206164647265737300000000000000000000000000000000000000000000602082015250565b600061268f602a83611e0f565b915061269a82612633565b604082019050919050565b600060208201905081810360008301526126be81612682565b9050919050565b7f496e697469616c697a61626c653a20636f6e747261637420697320616c72656160008201527f647920696e697469616c697a6564000000000000000000000000000000000000602082015250565b6000612721602e83611e0f565b915061272c826126c5565b604082019050919050565b6000602082019050818103600083015261275081612714565b9050919050565b7f4552433732314d657461646174613a2055524920717565727920666f72206e6f60008201527f6e6578697374656e7420746f6b656e0000000000000000000000000000000000602082015250565b60006127b3602f83611e0f565b91506127be82612757565b604082019050919050565b600060208201905081810360008301526127e2816127a6565b9050919050565b600081905092915050565b60006127ff82611e04565b61280981856127e9565b9350612819818560208601611e20565b80840191505092915050565b600061283182856127f4565b915061283d82846127f4565b91508190509392505050565b7f4552433732313a206f70657261746f7220717565727920666f72206e6f6e657860008201527f697374656e7420746f6b656e0000000000000000000000000000000000000000602082015250565b60006128a5602c83611e0f565b91506128b082612849565b604082019050919050565b600060208201905081810360008301526128d481612898565b9050919050565b7f4552433732313a207472616e73666572206f6620746f6b656e2074686174206960008201527f73206e6f74206f776e0000000000000000000000000000000000000000000000602082015250565b6000612937602983611e0f565b9150612942826128db565b604082019050919050565b600060208201905081810360008301526129668161292a565b9050919050565b7f4552433732313a207472616e7366657220746f20746865207a65726f2061646460008201527f7265737300000000000000000000000000000000000000000000000000000000602082015250565b60006129c9602483611e0f565b91506129d48261296d565b604082019050919050565b600060208201905081810360008301526129f8816129bc565b9050919050565b7f4e487b7100000000000000000000000000000000000000000000000000000000600052601160045260246000fd5b6000612a3982611ebf565b9150612a4483611ebf565b925082821015612a5757612a566129ff565b5b828203905092915050565b6000612a6d82611ebf565b9150612a7883611ebf565b9250827fffffffffffffffffffffffffffffffffffffffffffffffffffffffffffffffff03821115612aad57612aac6129ff565b5b828201905092915050565b7f4552433732313a206d696e7420746f20746865207a65726f2061646472657373600082015250565b6000612aee602083611e0f565b9150612af982612ab8565b602082019050919050565b60006020820190508181036000830152612b1d81612ae1565b9050919050565b7f4552433732313a20746f6b656e20616c7265616479206d696e74656400000000600082015250565b6000612b5a601c83611e0f565b9150612b6582612b24565b602082019050919050565b60006020820190508181036000830152612b8981612b4d565b9050919050565b7f496e697469616c697a61626c653a20636f6e7472616374206973206e6f74206960008201527f6e697469616c697a696e67000000000000000000000000000000000000000000602082015250565b6000612bec602b83611e0f565b9150612bf782612b90565b604082019050919050565b60006020820190508181036000830152612c1b81612bdf565b9050919050565b7f4552433732313a20617070726f766520746f2063616c6c657200000000000000600082015250565b6000612c58601983611e0f565b9150612c6382612c22565b602082019050919050565b60006020820190508181036000830152612c8781612c4b565b9050919050565b7f4552433732313a207472616e7366657220746f206e6f6e20455243373231526560008201527f63656976657220696d706c656d656e7465720000000000000000000000000000602082015250565b6000612cea603283611e0f565b9150612cf582612c8e565b604082019050919050565b60006020820190508181036000830152612d1981612cdd565b9050919050565b6000612d2b82611ebf565b91507fffffffffffffffffffffffffffffffffffffffffffffffffffffffffffffffff821415612d5e57612d5d6129ff565b5b600182019050919050565b7f4e487b7100000000000000000000000000000000000000000000000000000000600052601260045260246000fd5b6000612da382611ebf565b9150612dae83611ebf565b925082612dbe57612dbd612d69565b5b828204905092915050565b6000612dd482611ebf565b9150612ddf83611ebf565b925082612def57612dee612d69565b5b828206905092915050565b7f4e487b7100000000000000000000000000000000000000000000000000000000600052603260045260246000fd5b600081519050919050565b600082825260208201905092915050565b6000612e5082612e29565b612e5a8185612e34565b9350612e6a818560208601611e20565b612e7381611e53565b840191505092915050565b6000608082019050612e936000830187611f54565b612ea06020830186611f54565b612ead604083018561206a565b8181036060830152612ebf8184612e45565b905095945050505050565b600081519050612ed981611d75565b92915050565b600060208284031215612ef557612ef4611d3f565b5b6000612f0384828501612eca565b9150509291505056fea2646970667358221220bd3734313590f548366fd774bf1cf0940d61c30cd85382d069401e7999c4603564736f6c634300080b0033",
  "immutableReferences": {},
  "source": "// SPDX-License-Identifier: UNLICENSED\r\n\r\npragma solidity ^0.8.3;\r\n\r\nimport \"../node_modules/@openzeppelin/contracts-upgradeable/token/ERC721/ERC721Upgradeable.sol\";\r\n\r\ncontract BasicRune is ERC721Upgradeable {\r\n\r\n    address ContractOwner;\r\n    address QuestContract;\r\n\r\n    uint[] public basicRunes;\r\n\r\n    modifier onlyOwner() {\r\n        require(ContractOwner == msg.sender);\r\n        _;\r\n    }\r\n\r\n    modifier onlyQuestContract() {\r\n        require(QuestContract == msg.sender);\r\n        _;\r\n    }\r\n\r\n    function initialize() initializer public {\r\n        ContractOwner = 0xf577601a5eF1d5079Da672f01D7aB3b80dD2bd1D;\r\n        QuestContract = address(0);\r\n        __ERC721_init(\"Basic Rune\", \"BaRune\");\r\n    }\r\n\r\n    function mint(address _address) public payable onlyQuestContract() {\r\n        uint id = basicRunes.length;\r\n        basicRunes.push(id);\r\n        _mint(_address, id);\r\n    }\r\n\r\n    function transferOwnership(address newOwner) public payable onlyOwner() {\r\n        ContractOwner = newOwner;\r\n    }\r\n\r\n    function transferQuestContract(address newQuestContract) public payable onlyOwner() {\r\n        QuestContract = newQuestContract;\r\n    }\r\n}",
  "sourcePath": "C:\\Users\\jtsch\\OneDrive\\Escritorio\\Python\\SmartContracts-NFT-Agus\\contracts\\BasicRune.sol",
  "compiler": {
    "name": "solc",
    "version": "0.8.11+commit.d7f03943.Emscripten.clang"
  },
  "schemaVersion": "3.4.3",
  "updatedAt": "2022-01-16T15:31:28.100Z",
  "devdoc": {
    "kind": "dev",
    "methods": {
      "approve(address,uint256)": {
        "details": "See {IERC721-approve}."
      },
      "balanceOf(address)": {
        "details": "See {IERC721-balanceOf}."
      },
      "getApproved(uint256)": {
        "details": "See {IERC721-getApproved}."
      },
      "isApprovedForAll(address,address)": {
        "details": "See {IERC721-isApprovedForAll}."
      },
      "name()": {
        "details": "See {IERC721Metadata-name}."
      },
      "ownerOf(uint256)": {
        "details": "See {IERC721-ownerOf}."
      },
      "safeTransferFrom(address,address,uint256)": {
        "details": "See {IERC721-safeTransferFrom}."
      },
      "safeTransferFrom(address,address,uint256,bytes)": {
        "details": "See {IERC721-safeTransferFrom}."
      },
      "setApprovalForAll(address,bool)": {
        "details": "See {IERC721-setApprovalForAll}."
      },
      "supportsInterface(bytes4)": {
        "details": "See {IERC165-supportsInterface}."
      },
      "symbol()": {
        "details": "See {IERC721Metadata-symbol}."
      },
      "tokenURI(uint256)": {
        "details": "See {IERC721Metadata-tokenURI}."
      },
      "transferFrom(address,address,uint256)": {
        "details": "See {IERC721-transferFrom}."
      }
    },
    "version": 1
  },
  "userdoc": {
    "kind": "user",
    "methods": {},
    "version": 1
  }
}