{
  "contractName": "CleanRootsQuest",
  "abi": [
    {
      "anonymous": false,
      "inputs": [
        {
          "indexed": false,
          "internalType": "uint256",
          "name": "treeId",
          "type": "uint256"
        }
      ],
      "name": "CancelQuest",
      "type": "event"
    },
    {
      "anonymous": false,
      "inputs": [
        {
          "indexed": false,
          "internalType": "uint256",
          "name": "treeId",
          "type": "uint256"
        }
      ],
      "name": "CompleteQuest",
      "type": "event"
    },
    {
      "anonymous": false,
      "inputs": [
        {
          "indexed": false,
          "internalType": "uint256",
          "name": "treeId",
          "type": "uint256"
        }
      ],
      "name": "StartQuest",
      "type": "event"
    },
    {
      "inputs": [
        {
          "internalType": "uint256",
          "name": "treeId",
          "type": "uint256"
        }
      ],
      "name": "startQuest",
      "outputs": [],
      "stateMutability": "payable",
      "type": "function",
      "payable": true
    },
    {
      "inputs": [
        {
          "internalType": "uint256",
          "name": "treeId",
          "type": "uint256"
        }
      ],
      "name": "completeQuest",
      "outputs": [],
      "stateMutability": "payable",
      "type": "function",
      "payable": true
    },
    {
      "inputs": [
        {
          "internalType": "uint256",
          "name": "treeId",
          "type": "uint256"
        }
      ],
      "name": "cancelQuest",
      "outputs": [],
      "stateMutability": "payable",
      "type": "function",
      "payable": true
    },
    {
      "inputs": [
        {
          "internalType": "address",
          "name": "newOwner",
          "type": "address"
        }
      ],
      "name": "transferOwnership",
      "outputs": [],
      "stateMutability": "payable",
      "type": "function",
      "payable": true
    }
  ],
  "bytecode": "0x608060405273f577601a5ef1d5079da672f01d7ab3b80dd2bd1d6000806101000a81548173ffffffffffffffffffffffffffffffffffffffff021916908373ffffffffffffffffffffffffffffffffffffffff16021790555073fd768e668a158c173e9549d1632902c2a4363178600160006101000a81548173ffffffffffffffffffffffffffffffffffffffff021916908373ffffffffffffffffffffffffffffffffffffffff16021790555073190460adf29cd8fa28b537a8e403cb36c0fc84cc600260006101000a81548173ffffffffffffffffffffffffffffffffffffffff021916908373ffffffffffffffffffffffffffffffffffffffff16021790555073cd571ed43b347a4ab01bae2d23f9535bbafe955d600360006101000a81548173ffffffffffffffffffffffffffffffffffffffff021916908373ffffffffffffffffffffffffffffffffffffffff160217905550600260009054906101000a900473ffffffffffffffffffffffffffffffffffffffff16600460006101000a81548173ffffffffffffffffffffffffffffffffffffffff021916908373ffffffffffffffffffffffffffffffffffffffff1602179055503480156101c657600080fd5b50610def806101d66000396000f3fe60806040526004361061003f5760003560e01c8063528be0a9146100445780639e56354414610060578063f2fde38b1461007c578063fe90ff7d14610098575b600080fd5b61005e60048036038101906100599190610a8c565b6100b4565b005b61007a60048036038101906100759190610a8c565b610511565b005b61009660048036038101906100919190610b17565b61076c565b005b6100b260048036038101906100ad9190610a8c565b610807565b005b803373ffffffffffffffffffffffffffffffffffffffff16600460009054906101000a900473ffffffffffffffffffffffffffffffffffffffff1673ffffffffffffffffffffffffffffffffffffffff16636352211e836040518263ffffffff1660e01b81526004016101279190610b53565b602060405180830381865afa158015610144573d6000803e3d6000fd5b505050506040513d601f19601f820116820180604052508101906101689190610b83565b73ffffffffffffffffffffffffffffffffffffffff161461018857600080fd5b6000600460009054906101000a900473ffffffffffffffffffffffffffffffffffffffff1673ffffffffffffffffffffffffffffffffffffffff1663850b0f3c846040518263ffffffff1660e01b81526004016101e59190610b53565b6020604051808303816000875af1158015610204573d6000803e3d6000fd5b505050506040513d601f19601f820116820180604052508101906102289190610bc5565b141561023357600080fd5b600460009054906101000a900473ffffffffffffffffffffffffffffffffffffffff1673ffffffffffffffffffffffffffffffffffffffff1663850b0f3c836040518263ffffffff1660e01b815260040161028e9190610b53565b6020604051808303816000875af11580156102ad573d6000803e3d6000fd5b505050506040513d601f19601f820116820180604052508101906102d19190610bc5565b4210156102dd57600080fd5b6000600a90506000670de0b6b3a76400009050600460009054906101000a900473ffffffffffffffffffffffffffffffffffffffff1673ffffffffffffffffffffffffffffffffffffffff16636cad693285846040518363ffffffff1660e01b815260040161034d929190610bf2565b600060405180830381600087803b15801561036757600080fd5b505af115801561037b573d6000803e3d6000fd5b50505050600460009054906101000a900473ffffffffffffffffffffffffffffffffffffffff1673ffffffffffffffffffffffffffffffffffffffff16638536496f8560006040518363ffffffff1660e01b81526004016103dd929190610c60565b600060405180830381600087803b1580156103f757600080fd5b505af115801561040b573d6000803e3d6000fd5b50505050600360009054906101000a900473ffffffffffffffffffffffffffffffffffffffff1673ffffffffffffffffffffffffffffffffffffffff166323b872dd600160009054906101000a900473ffffffffffffffffffffffffffffffffffffffff1633846040518463ffffffff1660e01b815260040161049093929190610c98565b6020604051808303816000875af11580156104af573d6000803e3d6000fd5b505050506040513d601f19601f820116820180604052508101906104d39190610d07565b507f5273dfa3d1fc049a584932419b8c05854c3222437df81de178c54c71c916a6dd846040516105039190610b53565b60405180910390a150505050565b803373ffffffffffffffffffffffffffffffffffffffff16600460009054906101000a900473ffffffffffffffffffffffffffffffffffffffff1673ffffffffffffffffffffffffffffffffffffffff16636352211e836040518263ffffffff1660e01b81526004016105849190610b53565b602060405180830381865afa1580156105a1573d6000803e3d6000fd5b505050506040513d601f19601f820116820180604052508101906105c59190610b83565b73ffffffffffffffffffffffffffffffffffffffff16146105e557600080fd5b6000600460009054906101000a900473ffffffffffffffffffffffffffffffffffffffff1673ffffffffffffffffffffffffffffffffffffffff1663850b0f3c846040518263ffffffff1660e01b81526004016106429190610b53565b6020604051808303816000875af1158015610661573d6000803e3d6000fd5b505050506040513d601f19601f820116820180604052508101906106859190610bc5565b1461068f57600080fd5b60006170809050600460009054906101000a900473ffffffffffffffffffffffffffffffffffffffff1673ffffffffffffffffffffffffffffffffffffffff16638536496f8483426106e19190610d63565b6040518363ffffffff1660e01b81526004016106fe929190610bf2565b600060405180830381600087803b15801561071857600080fd5b505af115801561072c573d6000803e3d6000fd5b505050507f8be4cf06738657d74440bcb65f14b991377f1e63a9d8ee60c295cc6a0e5eb4b78360405161075f9190610b53565b60405180910390a1505050565b3373ffffffffffffffffffffffffffffffffffffffff1660008054906101000a900473ffffffffffffffffffffffffffffffffffffffff1673ffffffffffffffffffffffffffffffffffffffff16146107c457600080fd5b806000806101000a81548173ffffffffffffffffffffffffffffffffffffffff021916908373ffffffffffffffffffffffffffffffffffffffff16021790555050565b803373ffffffffffffffffffffffffffffffffffffffff16600460009054906101000a900473ffffffffffffffffffffffffffffffffffffffff1673ffffffffffffffffffffffffffffffffffffffff16636352211e836040518263ffffffff1660e01b815260040161087a9190610b53565b602060405180830381865afa158015610897573d6000803e3d6000fd5b505050506040513d601f19601f820116820180604052508101906108bb9190610b83565b73ffffffffffffffffffffffffffffffffffffffff16146108db57600080fd5b6000600460009054906101000a900473ffffffffffffffffffffffffffffffffffffffff1673ffffffffffffffffffffffffffffffffffffffff1663850b0f3c846040518263ffffffff1660e01b81526004016109389190610b53565b6020604051808303816000875af1158015610957573d6000803e3d6000fd5b505050506040513d601f19601f8201168201806040525081019061097b9190610bc5565b141561098657600080fd5b600460009054906101000a900473ffffffffffffffffffffffffffffffffffffffff1673ffffffffffffffffffffffffffffffffffffffff16638536496f8360006040518363ffffffff1660e01b81526004016109e4929190610c60565b600060405180830381600087803b1580156109fe57600080fd5b505af1158015610a12573d6000803e3d6000fd5b505050507fb88508b2f80153b1c0470af222d07d2b35a566ffa75f980c3d63de01a3b3f07682604051610a459190610b53565b60405180910390a15050565b600080fd5b6000819050919050565b610a6981610a56565b8114610a7457600080fd5b50565b600081359050610a8681610a60565b92915050565b600060208284031215610aa257610aa1610a51565b5b6000610ab084828501610a77565b91505092915050565b600073ffffffffffffffffffffffffffffffffffffffff82169050919050565b6000610ae482610ab9565b9050919050565b610af481610ad9565b8114610aff57600080fd5b50565b600081359050610b1181610aeb565b92915050565b600060208284031215610b2d57610b2c610a51565b5b6000610b3b84828501610b02565b91505092915050565b610b4d81610a56565b82525050565b6000602082019050610b686000830184610b44565b92915050565b600081519050610b7d81610aeb565b92915050565b600060208284031215610b9957610b98610a51565b5b6000610ba784828501610b6e565b91505092915050565b600081519050610bbf81610a60565b92915050565b600060208284031215610bdb57610bda610a51565b5b6000610be984828501610bb0565b91505092915050565b6000604082019050610c076000830185610b44565b610c146020830184610b44565b9392505050565b6000819050919050565b6000819050919050565b6000610c4a610c45610c4084610c1b565b610c25565b610a56565b9050919050565b610c5a81610c2f565b82525050565b6000604082019050610c756000830185610b44565b610c826020830184610c51565b9392505050565b610c9281610ad9565b82525050565b6000606082019050610cad6000830186610c89565b610cba6020830185610c89565b610cc76040830184610b44565b949350505050565b60008115159050919050565b610ce481610ccf565b8114610cef57600080fd5b50565b600081519050610d0181610cdb565b92915050565b600060208284031215610d1d57610d1c610a51565b5b6000610d2b84828501610cf2565b91505092915050565b7f4e487b7100000000000000000000000000000000000000000000000000000000600052601160045260246000fd5b6000610d6e82610a56565b9150610d7983610a56565b9250827fffffffffffffffffffffffffffffffffffffffffffffffffffffffffffffffff03821115610dae57610dad610d34565b5b82820190509291505056fea264697066735822122034f5a6b739062e4e757dd947fe3f0f778c52e35b46fcddcfd7e7d880fde7292964736f6c634300080b0033",
  "immutableReferences": {},
  "source": "// SPDX-License-Identifier: UNLICENSED\r\n\r\npragma solidity ^0.8.0;\r\nimport \"./AbstractTree.sol\";\r\nimport \"../node_modules/@openzeppelin/contracts/token/ERC20/IERC20.sol\";\r\n\r\ncontract CleanRootsQuest {\r\n\r\n    event StartQuest(uint treeId);\r\n    event CompleteQuest(uint treeId);\r\n    event CancelQuest(uint treeId);\r\n\r\n    address ContractOwner = 0xf577601a5eF1d5079Da672f01D7aB3b80dD2bd1D;\r\n    address Treasury = 0xfd768E668A158C173e9549d1632902C2A4363178;\r\n    \r\n    //Get TreeAddress after TreeContract Deployment\r\n    address TreeAddress = 0x190460adF29CD8FA28B537a8E403cb36C0fc84cC;\r\n    \r\n    //Get TokenAddress after TokenContract Deployment\r\n    address Token = 0xCd571eD43B347a4Ab01BAe2d23F9535BBAFe955d;\r\n\r\n    Tree tree = Tree(TreeAddress);\r\n\r\n    modifier onlyOwnerOf(uint _treeId) {\r\n        require(tree.ownerOf(_treeId) == msg.sender);\r\n        _;\r\n    }\r\n\r\n    modifier onlyOwner() {\r\n        require(ContractOwner == msg.sender);\r\n        _;\r\n    }\r\n\r\n    //Payable Functions\r\n\r\n    function startQuest(uint treeId) public payable onlyOwnerOf(treeId) {\r\n        require(tree.questStatus(treeId) == 0);\r\n        uint questDuration = 8*60*60;\r\n        tree.updateQuestStatus(treeId, block.timestamp+questDuration);\r\n        emit StartQuest(treeId);\r\n    }\r\n\r\n    function completeQuest(uint treeId) public payable onlyOwnerOf(treeId) {\r\n        require(tree.questStatus(treeId) != 0);\r\n        require(block.timestamp >= tree.questStatus(treeId));\r\n        uint expReward = 10;\r\n        uint tokenReward = 1*10**18;\r\n        tree.gainExp(treeId, expReward);\r\n        tree.updateQuestStatus(treeId, 0);\r\n        IERC20(Token).transferFrom(Treasury, msg.sender, tokenReward);\r\n        emit CompleteQuest(treeId);\r\n\r\n    }\r\n\r\n    function cancelQuest(uint treeId) public payable onlyOwnerOf(treeId) {\r\n        require(tree.questStatus(treeId) != 0);\r\n        tree.updateQuestStatus(treeId, 0);\r\n        emit CancelQuest(treeId);\r\n\r\n    }\r\n\r\n    function transferOwnership(address newOwner) public payable onlyOwner() {\r\n        ContractOwner = newOwner;\r\n    }\r\n}",
  "sourcePath": "C:\\Users\\jtsch\\OneDrive\\Escritorio\\Python\\SmartContracts-NFT-Agus\\contracts\\CleanRootsQuest.sol",
  "compiler": {
    "name": "solc",
    "version": "0.8.11+commit.d7f03943.Emscripten.clang"
  },
  "schemaVersion": "3.4.3",
  "updatedAt": "2022-01-09T19:37:46.947Z",
  "networkType": "ethereum",
  "devdoc": {
    "kind": "dev",
    "methods": {},
    "version": 1
  },
  "userdoc": {
    "kind": "user",
    "methods": {},
    "version": 1
  }
}