{
  "contractName": "CleanRootsQuest",
  "abi": [
    {
      "anonymous": false,
      "inputs": [
        {
          "indexed": false,
          "internalType": "uint256",
          "name": "treeId",
          "type": "uint256"
        }
      ],
      "name": "CancelQuest",
      "type": "event"
    },
    {
      "anonymous": false,
      "inputs": [
        {
          "indexed": false,
          "internalType": "uint256",
          "name": "treeId",
          "type": "uint256"
        }
      ],
      "name": "CompleteQuest",
      "type": "event"
    },
    {
      "anonymous": false,
      "inputs": [
        {
          "indexed": false,
          "internalType": "uint256",
          "name": "treeId",
          "type": "uint256"
        }
      ],
      "name": "StartQuest",
      "type": "event"
    },
    {
      "inputs": [],
      "name": "initialize",
      "outputs": [],
      "stateMutability": "nonpayable",
      "type": "function"
    },
    {
      "inputs": [],
      "name": "treasuryMultiplicator",
      "outputs": [
        {
          "internalType": "uint256",
          "name": "",
          "type": "uint256"
        }
      ],
      "stateMutability": "view",
      "type": "function"
    },
    {
      "inputs": [
        {
          "internalType": "uint256",
          "name": "treeId",
          "type": "uint256"
        }
      ],
      "name": "startQuest",
      "outputs": [],
      "stateMutability": "payable",
      "type": "function"
    },
    {
      "inputs": [
        {
          "internalType": "uint256",
          "name": "treeId",
          "type": "uint256"
        }
      ],
      "name": "completeQuest",
      "outputs": [],
      "stateMutability": "payable",
      "type": "function"
    },
    {
      "inputs": [
        {
          "internalType": "uint256",
          "name": "treeId",
          "type": "uint256"
        }
      ],
      "name": "cancelQuest",
      "outputs": [],
      "stateMutability": "payable",
      "type": "function"
    },
    {
      "inputs": [
        {
          "internalType": "address",
          "name": "newOwner",
          "type": "address"
        }
      ],
      "name": "transferOwnership",
      "outputs": [],
      "stateMutability": "payable",
      "type": "function"
    }
  ],
  "bytecode": "0x608060405234801561001057600080fd5b506115ac806100206000396000f3fe6080604052600436106100555760003560e01c8063528be0a91461005a5780636d9dcc45146100765780638129fc1c146100a15780639e563544146100b8578063f2fde38b146100d4578063fe90ff7d146100f0575b600080fd5b610074600480360381019061006f919061109d565b61010c565b005b34801561008257600080fd5b5061008b610651565b60405161009891906110d9565b60405180910390f35b3480156100ad57600080fd5b506100b661081f565b005b6100d260048036038101906100cd919061109d565b610ac4565b005b6100ee60048036038101906100e99190611152565b610d1e565b005b61010a6004803603810190610105919061109d565b610dbc565b005b803373ffffffffffffffffffffffffffffffffffffffff16600560009054906101000a900473ffffffffffffffffffffffffffffffffffffffff1673ffffffffffffffffffffffffffffffffffffffff16636352211e836040518263ffffffff1660e01b815260040161017f91906110d9565b602060405180830381865afa15801561019c573d6000803e3d6000fd5b505050506040513d601f19601f820116820180604052508101906101c09190611194565b73ffffffffffffffffffffffffffffffffffffffff16146101e057600080fd5b6000600560009054906101000a900473ffffffffffffffffffffffffffffffffffffffff1673ffffffffffffffffffffffffffffffffffffffff1663850b0f3c846040518263ffffffff1660e01b815260040161023d91906110d9565b6020604051808303816000875af115801561025c573d6000803e3d6000fd5b505050506040513d601f19601f8201168201806040525081019061028091906111d6565b141561028b57600080fd5b600560009054906101000a900473ffffffffffffffffffffffffffffffffffffffff1673ffffffffffffffffffffffffffffffffffffffff1663850b0f3c836040518263ffffffff1660e01b81526004016102e691906110d9565b6020604051808303816000875af1158015610305573d6000803e3d6000fd5b505050506040513d601f19601f8201168201806040525081019061032991906111d6565b42101561033557600080fd5b600060649050600560009054906101000a900473ffffffffffffffffffffffffffffffffffffffff1673ffffffffffffffffffffffffffffffffffffffff16636cad693284836040518363ffffffff1660e01b8152600401610398929190611203565b600060405180830381600087803b1580156103b257600080fd5b505af11580156103c6573d6000803e3d6000fd5b5050505060006005610476600560009054906101000a900473ffffffffffffffffffffffffffffffffffffffff1673ffffffffffffffffffffffffffffffffffffffff16635fa461fc876040518263ffffffff1660e01b815260040161042c91906110d9565b6020604051808303816000875af115801561044b573d6000803e3d6000fd5b505050506040513d601f19601f8201168201806040525081019061046f91906111d6565b6005611006565b610480919061128a565b9050600061048c610651565b9050600060648383670de0b6b3a76400006104a791906112bb565b6104b191906112bb565b6104bb919061128a565b9050600560009054906101000a900473ffffffffffffffffffffffffffffffffffffffff1673ffffffffffffffffffffffffffffffffffffffff16638536496f8760006040518363ffffffff1660e01b815260040161051b92919061135a565b600060405180830381600087803b15801561053557600080fd5b505af1158015610549573d6000803e3d6000fd5b50505050600360009054906101000a900473ffffffffffffffffffffffffffffffffffffffff1673ffffffffffffffffffffffffffffffffffffffff166323b872dd600160009054906101000a900473ffffffffffffffffffffffffffffffffffffffff1633846040518463ffffffff1660e01b81526004016105ce93929190611392565b6020604051808303816000875af11580156105ed573d6000803e3d6000fd5b505050506040513d601f19601f820116820180604052508101906106119190611401565b507f5273dfa3d1fc049a584932419b8c05854c3222437df81de178c54c71c916a6dd8660405161064191906110d9565b60405180910390a1505050505050565b600080600360009054906101000a900473ffffffffffffffffffffffffffffffffffffffff1673ffffffffffffffffffffffffffffffffffffffff166370a08231600160009054906101000a900473ffffffffffffffffffffffffffffffffffffffff166040518263ffffffff1660e01b81526004016106d1919061142e565b602060405180830381865afa1580156106ee573d6000803e3d6000fd5b505050506040513d601f19601f8201168201806040525081019061071291906111d6565b90506064600560045461072591906112bb565b61072f919061128a565b811061073f57606491505061081c565b60646004805461074f91906112bb565b610759919061128a565b811061076957605091505061081c565b6064600360045461077a91906112bb565b610784919061128a565b811061079457603c91505061081c565b606460026004546107a591906112bb565b6107af919061128a565b81106107bf57602891505061081c565b606460016004546107d091906112bb565b6107da919061128a565b81106107ea57601491505061081c565b6103e860016004546107fc91906112bb565b610806919061128a565b811061081657600591505061081c565b60009150505b90565b600060019054906101000a900460ff166108475760008054906101000a900460ff1615610850565b61084f61103e565b5b61088f576040517f08c379a0000000000000000000000000000000000000000000000000000000008152600401610886906114cc565b60405180910390fd5b60008060019054906101000a900460ff1615905080156108df576001600060016101000a81548160ff02191690831515021790555060016000806101000a81548160ff0219169083151502179055505b73f577601a5ef1d5079da672f01d7ab3b80dd2bd1d600060026101000a81548173ffffffffffffffffffffffffffffffffffffffff021916908373ffffffffffffffffffffffffffffffffffffffff16021790555073fd768e668a158c173e9549d1632902c2a4363178600160006101000a81548173ffffffffffffffffffffffffffffffffffffffff021916908373ffffffffffffffffffffffffffffffffffffffff1602179055507356ab64e87641864c0849d4a4ef4d1fd7245b2e27600260006101000a81548173ffffffffffffffffffffffffffffffffffffffff021916908373ffffffffffffffffffffffffffffffffffffffff16021790555073cd571ed43b347a4ab01bae2d23f9535bbafe955d600360006101000a81548173ffffffffffffffffffffffffffffffffffffffff021916908373ffffffffffffffffffffffffffffffffffffffff160217905550623d0900600481905550600260009054906101000a900473ffffffffffffffffffffffffffffffffffffffff16600560006101000a81548173ffffffffffffffffffffffffffffffffffffffff021916908373ffffffffffffffffffffffffffffffffffffffff1602179055508015610ac15760008060016101000a81548160ff0219169083151502179055505b50565b803373ffffffffffffffffffffffffffffffffffffffff16600560009054906101000a900473ffffffffffffffffffffffffffffffffffffffff1673ffffffffffffffffffffffffffffffffffffffff16636352211e836040518263ffffffff1660e01b8152600401610b3791906110d9565b602060405180830381865afa158015610b54573d6000803e3d6000fd5b505050506040513d601f19601f82011682018060405250810190610b789190611194565b73ffffffffffffffffffffffffffffffffffffffff1614610b9857600080fd5b6000600560009054906101000a900473ffffffffffffffffffffffffffffffffffffffff1673ffffffffffffffffffffffffffffffffffffffff1663850b0f3c846040518263ffffffff1660e01b8152600401610bf591906110d9565b6020604051808303816000875af1158015610c14573d6000803e3d6000fd5b505050506040513d601f19601f82011682018060405250810190610c3891906111d6565b14610c4257600080fd5b6000603c9050600560009054906101000a900473ffffffffffffffffffffffffffffffffffffffff1673ffffffffffffffffffffffffffffffffffffffff16638536496f848342610c9391906114ec565b6040518363ffffffff1660e01b8152600401610cb0929190611203565b600060405180830381600087803b158015610cca57600080fd5b505af1158015610cde573d6000803e3d6000fd5b505050507f8be4cf06738657d74440bcb65f14b991377f1e63a9d8ee60c295cc6a0e5eb4b783604051610d1191906110d9565b60405180910390a1505050565b3373ffffffffffffffffffffffffffffffffffffffff16600060029054906101000a900473ffffffffffffffffffffffffffffffffffffffff1673ffffffffffffffffffffffffffffffffffffffff1614610d7857600080fd5b80600060026101000a81548173ffffffffffffffffffffffffffffffffffffffff021916908373ffffffffffffffffffffffffffffffffffffffff16021790555050565b803373ffffffffffffffffffffffffffffffffffffffff16600560009054906101000a900473ffffffffffffffffffffffffffffffffffffffff1673ffffffffffffffffffffffffffffffffffffffff16636352211e836040518263ffffffff1660e01b8152600401610e2f91906110d9565b602060405180830381865afa158015610e4c573d6000803e3d6000fd5b505050506040513d601f19601f82011682018060405250810190610e709190611194565b73ffffffffffffffffffffffffffffffffffffffff1614610e9057600080fd5b6000600560009054906101000a900473ffffffffffffffffffffffffffffffffffffffff1673ffffffffffffffffffffffffffffffffffffffff1663850b0f3c846040518263ffffffff1660e01b8152600401610eed91906110d9565b6020604051808303816000875af1158015610f0c573d6000803e3d6000fd5b505050506040513d601f19601f82011682018060405250810190610f3091906111d6565b1415610f3b57600080fd5b600560009054906101000a900473ffffffffffffffffffffffffffffffffffffffff1673ffffffffffffffffffffffffffffffffffffffff16638536496f8360006040518363ffffffff1660e01b8152600401610f9992919061135a565b600060405180830381600087803b158015610fb357600080fd5b505af1158015610fc7573d6000803e3d6000fd5b505050507fb88508b2f80153b1c0470af222d07d2b35a566ffa75f980c3d63de01a3b3f07682604051610ffa91906110d9565b60405180910390a15050565b600081826001848661101891906114ec565b6110229190611542565b61102c919061128a565b61103691906112bb565b905092915050565b60006110493061104f565b15905090565b600080823b905060008111915050919050565b600080fd5b6000819050919050565b61107a81611067565b811461108557600080fd5b50565b60008135905061109781611071565b92915050565b6000602082840312156110b3576110b2611062565b5b60006110c184828501611088565b91505092915050565b6110d381611067565b82525050565b60006020820190506110ee60008301846110ca565b92915050565b600073ffffffffffffffffffffffffffffffffffffffff82169050919050565b600061111f826110f4565b9050919050565b61112f81611114565b811461113a57600080fd5b50565b60008135905061114c81611126565b92915050565b60006020828403121561116857611167611062565b5b60006111768482850161113d565b91505092915050565b60008151905061118e81611126565b92915050565b6000602082840312156111aa576111a9611062565b5b60006111b88482850161117f565b91505092915050565b6000815190506111d081611071565b92915050565b6000602082840312156111ec576111eb611062565b5b60006111fa848285016111c1565b91505092915050565b600060408201905061121860008301856110ca565b61122560208301846110ca565b9392505050565b7f4e487b7100000000000000000000000000000000000000000000000000000000600052601260045260246000fd5b7f4e487b7100000000000000000000000000000000000000000000000000000000600052601160045260246000fd5b600061129582611067565b91506112a083611067565b9250826112b0576112af61122c565b5b828204905092915050565b60006112c682611067565b91506112d183611067565b9250817fffffffffffffffffffffffffffffffffffffffffffffffffffffffffffffffff048311821515161561130a5761130961125b565b5b828202905092915050565b6000819050919050565b6000819050919050565b600061134461133f61133a84611315565b61131f565b611067565b9050919050565b61135481611329565b82525050565b600060408201905061136f60008301856110ca565b61137c602083018461134b565b9392505050565b61138c81611114565b82525050565b60006060820190506113a76000830186611383565b6113b46020830185611383565b6113c160408301846110ca565b949350505050565b60008115159050919050565b6113de816113c9565b81146113e957600080fd5b50565b6000815190506113fb816113d5565b92915050565b60006020828403121561141757611416611062565b5b6000611425848285016113ec565b91505092915050565b60006020820190506114436000830184611383565b92915050565b600082825260208201905092915050565b7f496e697469616c697a61626c653a20636f6e747261637420697320616c72656160008201527f647920696e697469616c697a6564000000000000000000000000000000000000602082015250565b60006114b6602e83611449565b91506114c18261145a565b604082019050919050565b600060208201905081810360008301526114e5816114a9565b9050919050565b60006114f782611067565b915061150283611067565b9250827fffffffffffffffffffffffffffffffffffffffffffffffffffffffffffffffff038211156115375761153661125b565b5b828201905092915050565b600061154d82611067565b915061155883611067565b92508282101561156b5761156a61125b565b5b82820390509291505056fea26469706673582212209842d173a48bee5d82f2fbdc9b5ebca86ecadabfb98343b2924b8ceb2a18ba4064736f6c634300080b0033",
  "immutableReferences": {},
  "source": "// SPDX-License-Identifier: UNLICENSED\r\n\r\npragma solidity ^0.8.0;\r\nimport \"./AbstractTree.sol\";\r\nimport \"../node_modules/@openzeppelin/contracts/token/ERC20/IERC20.sol\";\r\nimport \"../node_modules/@openzeppelin/contracts/proxy/utils/Initializable.sol\";\r\n\r\ncontract CleanRootsQuest is Initializable {\r\n\r\n    event StartQuest(uint treeId);\r\n    event CompleteQuest(uint treeId);\r\n    event CancelQuest(uint treeId);\r\n\r\n    address ContractOwner;\r\n    address Treasury;\r\n    \r\n    //Get TreeAddress after TreeContract Deployment\r\n    address TreeAddress;\r\n    \r\n    //Get TokenAddress after TokenContract Deployment\r\n    address Token;\r\n    uint totalTreasuryBalance;\r\n\r\n    Tree tree;\r\n\r\n    modifier onlyOwnerOf(uint _treeId) {\r\n        require(tree.ownerOf(_treeId) == msg.sender);\r\n        _;\r\n    }\r\n\r\n    modifier onlyOwner() {\r\n        require(ContractOwner == msg.sender);\r\n        _;\r\n    }\r\n\r\n    function initialize() initializer public {\r\n        ContractOwner = 0xf577601a5eF1d5079Da672f01D7aB3b80dD2bd1D;\r\n        Treasury = 0xfd768E668A158C173e9549d1632902C2A4363178;\r\n        TreeAddress = 0x56Ab64E87641864C0849d4A4Ef4D1Fd7245b2e27;\r\n        Token = 0xCd571eD43B347a4Ab01BAe2d23F9535BBAFe955d;\r\n        totalTreasuryBalance = 4000000;\r\n        tree = Tree(TreeAddress);\r\n    }\r\n    \r\n    // Util functions\r\n\r\n    function ceil(uint _a, uint _m) internal pure returns (uint ) {\r\n        return ((_a + _m - 1) / _m) * _m;\r\n    }\r\n    function treasuryMultiplicator() public view returns (uint) {\r\n        uint currentTreasuryBalance = IERC20(Token).balanceOf(Treasury);\r\n        if (currentTreasuryBalance >= totalTreasuryBalance*5/100) {\r\n            return 100;\r\n        } else if (currentTreasuryBalance >= totalTreasuryBalance*4/100) {\r\n            return 80;\r\n        } else if (currentTreasuryBalance >= totalTreasuryBalance*3/100) {\r\n            return 60;\r\n        } else if (currentTreasuryBalance >= totalTreasuryBalance*2/100) {\r\n            return 40;\r\n        } else if (currentTreasuryBalance >= totalTreasuryBalance*1/100) {\r\n            return 20;\r\n        } else if (currentTreasuryBalance >= totalTreasuryBalance*1/1000) {\r\n            return 5;\r\n        } else {\r\n            return 0;\r\n        }\r\n    }\r\n\r\n    //Payable Functions\r\n\r\n    function startQuest(uint treeId) public payable onlyOwnerOf(treeId) {\r\n        require(tree.questStatus(treeId) == 0);\r\n        uint questDuration = 60;\r\n        tree.updateQuestStatus(treeId, block.timestamp+questDuration);\r\n        emit StartQuest(treeId);\r\n    }\r\n\r\n    function completeQuest(uint treeId) public payable onlyOwnerOf(treeId) {\r\n        require(tree.questStatus(treeId) != 0);\r\n        require(block.timestamp >= tree.questStatus(treeId));\r\n\r\n        uint expReward = 100;\r\n        tree.gainExp(treeId, expReward);\r\n\r\n        uint treeMult = ceil(tree.treeExp(treeId),5)/5;\r\n        uint treasuryMult = treasuryMultiplicator();\r\n        uint tokenReward = (1*10**18)*treasuryMult*treeMult/100;\r\n        tree.updateQuestStatus(treeId, 0);\r\n        IERC20(Token).transferFrom(Treasury, msg.sender, tokenReward);\r\n        emit CompleteQuest(treeId);\r\n\r\n    }\r\n\r\n    function cancelQuest(uint treeId) public payable onlyOwnerOf(treeId) {\r\n        require(tree.questStatus(treeId) != 0);\r\n        tree.updateQuestStatus(treeId, 0);\r\n        emit CancelQuest(treeId);\r\n\r\n    }\r\n\r\n    function transferOwnership(address newOwner) public payable onlyOwner() {\r\n        ContractOwner = newOwner;\r\n    }\r\n}",
  "sourcePath": "C:\\Users\\jtsch\\OneDrive\\Escritorio\\Python\\SmartContracts-NFT-Agus\\contracts\\CleanRootsQuest.sol",
  "compiler": {
    "name": "solc",
    "version": "0.8.11+commit.d7f03943.Emscripten.clang"
  },
  "schemaVersion": "3.4.3",
  "updatedAt": "2022-01-15T17:54:33.831Z",
  "devdoc": {
    "kind": "dev",
    "methods": {},
    "version": 1
  },
  "userdoc": {
    "kind": "user",
    "methods": {},
    "version": 1
  }
}