{
  "contractName": "CleanRootsQuest",
  "abi": [
    {
      "anonymous": false,
      "inputs": [
        {
          "indexed": false,
          "internalType": "uint256",
          "name": "treeId",
          "type": "uint256"
        }
      ],
      "name": "CancelQuest",
      "type": "event"
    },
    {
      "anonymous": false,
      "inputs": [
        {
          "indexed": false,
          "internalType": "uint256",
          "name": "treeId",
          "type": "uint256"
        }
      ],
      "name": "CompleteQuest",
      "type": "event"
    },
    {
      "anonymous": false,
      "inputs": [
        {
          "indexed": false,
          "internalType": "uint256",
          "name": "treeId",
          "type": "uint256"
        }
      ],
      "name": "StartQuest",
      "type": "event"
    },
    {
      "inputs": [
        {
          "internalType": "uint256",
          "name": "treeId",
          "type": "uint256"
        }
      ],
      "name": "startQuest",
      "outputs": [],
      "stateMutability": "payable",
      "type": "function",
      "payable": true
    },
    {
      "inputs": [
        {
          "internalType": "uint256",
          "name": "treeId",
          "type": "uint256"
        }
      ],
      "name": "completeQuest",
      "outputs": [],
      "stateMutability": "payable",
      "type": "function",
      "payable": true
    },
    {
      "inputs": [
        {
          "internalType": "uint256",
          "name": "treeId",
          "type": "uint256"
        }
      ],
      "name": "cancelQuest",
      "outputs": [],
      "stateMutability": "payable",
      "type": "function",
      "payable": true
    },
    {
      "inputs": [
        {
          "internalType": "address",
          "name": "newOwner",
          "type": "address"
        }
      ],
      "name": "transferOwnership",
      "outputs": [],
      "stateMutability": "payable",
      "type": "function",
      "payable": true
    }
  ],
  "bytecode": "0x608060405273f577601a5ef1d5079da672f01d7ab3b80dd2bd1d6000806101000a81548173ffffffffffffffffffffffffffffffffffffffff021916908373ffffffffffffffffffffffffffffffffffffffff16021790555073fd768e668a158c173e9549d1632902c2a4363178600160006101000a81548173ffffffffffffffffffffffffffffffffffffffff021916908373ffffffffffffffffffffffffffffffffffffffff1602179055507356ab64e87641864c0849d4a4ef4d1fd7245b2e27600260006101000a81548173ffffffffffffffffffffffffffffffffffffffff021916908373ffffffffffffffffffffffffffffffffffffffff16021790555073cd571ed43b347a4ab01bae2d23f9535bbafe955d600360006101000a81548173ffffffffffffffffffffffffffffffffffffffff021916908373ffffffffffffffffffffffffffffffffffffffff160217905550600260009054906101000a900473ffffffffffffffffffffffffffffffffffffffff16600460006101000a81548173ffffffffffffffffffffffffffffffffffffffff021916908373ffffffffffffffffffffffffffffffffffffffff1602179055503480156101c657600080fd5b50610dee806101d66000396000f3fe60806040526004361061003f5760003560e01c8063528be0a9146100445780639e56354414610060578063f2fde38b1461007c578063fe90ff7d14610098575b600080fd5b61005e60048036038101906100599190610a8b565b6100b4565b005b61007a60048036038101906100759190610a8b565b610511565b005b61009660048036038101906100919190610b16565b61076b565b005b6100b260048036038101906100ad9190610a8b565b610806565b005b803373ffffffffffffffffffffffffffffffffffffffff16600460009054906101000a900473ffffffffffffffffffffffffffffffffffffffff1673ffffffffffffffffffffffffffffffffffffffff16636352211e836040518263ffffffff1660e01b81526004016101279190610b52565b602060405180830381865afa158015610144573d6000803e3d6000fd5b505050506040513d601f19601f820116820180604052508101906101689190610b82565b73ffffffffffffffffffffffffffffffffffffffff161461018857600080fd5b6000600460009054906101000a900473ffffffffffffffffffffffffffffffffffffffff1673ffffffffffffffffffffffffffffffffffffffff1663850b0f3c846040518263ffffffff1660e01b81526004016101e59190610b52565b6020604051808303816000875af1158015610204573d6000803e3d6000fd5b505050506040513d601f19601f820116820180604052508101906102289190610bc4565b141561023357600080fd5b600460009054906101000a900473ffffffffffffffffffffffffffffffffffffffff1673ffffffffffffffffffffffffffffffffffffffff1663850b0f3c836040518263ffffffff1660e01b815260040161028e9190610b52565b6020604051808303816000875af11580156102ad573d6000803e3d6000fd5b505050506040513d601f19601f820116820180604052508101906102d19190610bc4565b4210156102dd57600080fd5b6000600a90506000670de0b6b3a76400009050600460009054906101000a900473ffffffffffffffffffffffffffffffffffffffff1673ffffffffffffffffffffffffffffffffffffffff16636cad693285846040518363ffffffff1660e01b815260040161034d929190610bf1565b600060405180830381600087803b15801561036757600080fd5b505af115801561037b573d6000803e3d6000fd5b50505050600460009054906101000a900473ffffffffffffffffffffffffffffffffffffffff1673ffffffffffffffffffffffffffffffffffffffff16638536496f8560006040518363ffffffff1660e01b81526004016103dd929190610c5f565b600060405180830381600087803b1580156103f757600080fd5b505af115801561040b573d6000803e3d6000fd5b50505050600360009054906101000a900473ffffffffffffffffffffffffffffffffffffffff1673ffffffffffffffffffffffffffffffffffffffff166323b872dd600160009054906101000a900473ffffffffffffffffffffffffffffffffffffffff1633846040518463ffffffff1660e01b815260040161049093929190610c97565b6020604051808303816000875af11580156104af573d6000803e3d6000fd5b505050506040513d601f19601f820116820180604052508101906104d39190610d06565b507f5273dfa3d1fc049a584932419b8c05854c3222437df81de178c54c71c916a6dd846040516105039190610b52565b60405180910390a150505050565b803373ffffffffffffffffffffffffffffffffffffffff16600460009054906101000a900473ffffffffffffffffffffffffffffffffffffffff1673ffffffffffffffffffffffffffffffffffffffff16636352211e836040518263ffffffff1660e01b81526004016105849190610b52565b602060405180830381865afa1580156105a1573d6000803e3d6000fd5b505050506040513d601f19601f820116820180604052508101906105c59190610b82565b73ffffffffffffffffffffffffffffffffffffffff16146105e557600080fd5b6000600460009054906101000a900473ffffffffffffffffffffffffffffffffffffffff1673ffffffffffffffffffffffffffffffffffffffff1663850b0f3c846040518263ffffffff1660e01b81526004016106429190610b52565b6020604051808303816000875af1158015610661573d6000803e3d6000fd5b505050506040513d601f19601f820116820180604052508101906106859190610bc4565b1461068f57600080fd5b6000603c9050600460009054906101000a900473ffffffffffffffffffffffffffffffffffffffff1673ffffffffffffffffffffffffffffffffffffffff16638536496f8483426106e09190610d62565b6040518363ffffffff1660e01b81526004016106fd929190610bf1565b600060405180830381600087803b15801561071757600080fd5b505af115801561072b573d6000803e3d6000fd5b505050507f8be4cf06738657d74440bcb65f14b991377f1e63a9d8ee60c295cc6a0e5eb4b78360405161075e9190610b52565b60405180910390a1505050565b3373ffffffffffffffffffffffffffffffffffffffff1660008054906101000a900473ffffffffffffffffffffffffffffffffffffffff1673ffffffffffffffffffffffffffffffffffffffff16146107c357600080fd5b806000806101000a81548173ffffffffffffffffffffffffffffffffffffffff021916908373ffffffffffffffffffffffffffffffffffffffff16021790555050565b803373ffffffffffffffffffffffffffffffffffffffff16600460009054906101000a900473ffffffffffffffffffffffffffffffffffffffff1673ffffffffffffffffffffffffffffffffffffffff16636352211e836040518263ffffffff1660e01b81526004016108799190610b52565b602060405180830381865afa158015610896573d6000803e3d6000fd5b505050506040513d601f19601f820116820180604052508101906108ba9190610b82565b73ffffffffffffffffffffffffffffffffffffffff16146108da57600080fd5b6000600460009054906101000a900473ffffffffffffffffffffffffffffffffffffffff1673ffffffffffffffffffffffffffffffffffffffff1663850b0f3c846040518263ffffffff1660e01b81526004016109379190610b52565b6020604051808303816000875af1158015610956573d6000803e3d6000fd5b505050506040513d601f19601f8201168201806040525081019061097a9190610bc4565b141561098557600080fd5b600460009054906101000a900473ffffffffffffffffffffffffffffffffffffffff1673ffffffffffffffffffffffffffffffffffffffff16638536496f8360006040518363ffffffff1660e01b81526004016109e3929190610c5f565b600060405180830381600087803b1580156109fd57600080fd5b505af1158015610a11573d6000803e3d6000fd5b505050507fb88508b2f80153b1c0470af222d07d2b35a566ffa75f980c3d63de01a3b3f07682604051610a449190610b52565b60405180910390a15050565b600080fd5b6000819050919050565b610a6881610a55565b8114610a7357600080fd5b50565b600081359050610a8581610a5f565b92915050565b600060208284031215610aa157610aa0610a50565b5b6000610aaf84828501610a76565b91505092915050565b600073ffffffffffffffffffffffffffffffffffffffff82169050919050565b6000610ae382610ab8565b9050919050565b610af381610ad8565b8114610afe57600080fd5b50565b600081359050610b1081610aea565b92915050565b600060208284031215610b2c57610b2b610a50565b5b6000610b3a84828501610b01565b91505092915050565b610b4c81610a55565b82525050565b6000602082019050610b676000830184610b43565b92915050565b600081519050610b7c81610aea565b92915050565b600060208284031215610b9857610b97610a50565b5b6000610ba684828501610b6d565b91505092915050565b600081519050610bbe81610a5f565b92915050565b600060208284031215610bda57610bd9610a50565b5b6000610be884828501610baf565b91505092915050565b6000604082019050610c066000830185610b43565b610c136020830184610b43565b9392505050565b6000819050919050565b6000819050919050565b6000610c49610c44610c3f84610c1a565b610c24565b610a55565b9050919050565b610c5981610c2e565b82525050565b6000604082019050610c746000830185610b43565b610c816020830184610c50565b9392505050565b610c9181610ad8565b82525050565b6000606082019050610cac6000830186610c88565b610cb96020830185610c88565b610cc66040830184610b43565b949350505050565b60008115159050919050565b610ce381610cce565b8114610cee57600080fd5b50565b600081519050610d0081610cda565b92915050565b600060208284031215610d1c57610d1b610a50565b5b6000610d2a84828501610cf1565b91505092915050565b7f4e487b7100000000000000000000000000000000000000000000000000000000600052601160045260246000fd5b6000610d6d82610a55565b9150610d7883610a55565b9250827fffffffffffffffffffffffffffffffffffffffffffffffffffffffffffffffff03821115610dad57610dac610d33565b5b82820190509291505056fea26469706673582212201fd6ede2685f57b4388c5b82beb194c27c3fafb9433b4a664be24dc17c56853564736f6c634300080b0033",
  "immutableReferences": {},
  "source": "// SPDX-License-Identifier: UNLICENSED\r\n\r\npragma solidity ^0.8.0;\r\nimport \"./AbstractTree.sol\";\r\nimport \"../node_modules/@openzeppelin/contracts/token/ERC20/IERC20.sol\";\r\n\r\ncontract CleanRootsQuest {\r\n\r\n    event StartQuest(uint treeId);\r\n    event CompleteQuest(uint treeId);\r\n    event CancelQuest(uint treeId);\r\n\r\n    address ContractOwner = 0xf577601a5eF1d5079Da672f01D7aB3b80dD2bd1D;\r\n    address Treasury = 0xfd768E668A158C173e9549d1632902C2A4363178;\r\n    \r\n    //Get TreeAddress after TreeContract Deployment\r\n    address TreeAddress = 0x56Ab64E87641864C0849d4A4Ef4D1Fd7245b2e27;\r\n    \r\n    //Get TokenAddress after TokenContract Deployment\r\n    address Token = 0xCd571eD43B347a4Ab01BAe2d23F9535BBAFe955d;\r\n\r\n    Tree tree = Tree(TreeAddress);\r\n\r\n    modifier onlyOwnerOf(uint _treeId) {\r\n        require(tree.ownerOf(_treeId) == msg.sender);\r\n        _;\r\n    }\r\n\r\n    modifier onlyOwner() {\r\n        require(ContractOwner == msg.sender);\r\n        _;\r\n    }\r\n\r\n    //Payable Functions\r\n\r\n    function startQuest(uint treeId) public payable onlyOwnerOf(treeId) {\r\n        require(tree.questStatus(treeId) == 0);\r\n        uint questDuration = 60;\r\n        tree.updateQuestStatus(treeId, block.timestamp+questDuration);\r\n        emit StartQuest(treeId);\r\n    }\r\n\r\n    function completeQuest(uint treeId) public payable onlyOwnerOf(treeId) {\r\n        require(tree.questStatus(treeId) != 0);\r\n        require(block.timestamp >= tree.questStatus(treeId));\r\n        uint expReward = 10;\r\n        uint tokenReward = 1*10**18;\r\n        tree.gainExp(treeId, expReward);\r\n        tree.updateQuestStatus(treeId, 0);\r\n        IERC20(Token).transferFrom(Treasury, msg.sender, tokenReward);\r\n        emit CompleteQuest(treeId);\r\n\r\n    }\r\n\r\n    function cancelQuest(uint treeId) public payable onlyOwnerOf(treeId) {\r\n        require(tree.questStatus(treeId) != 0);\r\n        tree.updateQuestStatus(treeId, 0);\r\n        emit CancelQuest(treeId);\r\n\r\n    }\r\n\r\n    function transferOwnership(address newOwner) public payable onlyOwner() {\r\n        ContractOwner = newOwner;\r\n    }\r\n}",
  "sourcePath": "C:\\Users\\jtsch\\OneDrive\\Escritorio\\Python\\SmartContracts-NFT-Agus\\contracts\\CleanRootsQuest.sol",
  "compiler": {
    "name": "solc",
    "version": "0.8.11+commit.d7f03943.Emscripten.clang"
  },
  "schemaVersion": "3.4.3",
  "updatedAt": "2022-01-11T16:18:15.355Z",
  "networkType": "ethereum",
  "devdoc": {
    "kind": "dev",
    "methods": {},
    "version": 1
  },
  "userdoc": {
    "kind": "user",
    "methods": {},
    "version": 1
  }
}