{
  "contractName": "ERC1155Marketplace",
  "abi": [
    {
      "anonymous": false,
      "inputs": [
        {
          "indexed": false,
          "internalType": "uint256",
          "name": "offerId",
          "type": "uint256"
        },
        {
          "indexed": false,
          "internalType": "string",
          "name": "status",
          "type": "string"
        }
      ],
      "name": "OfferStatusChange",
      "type": "event"
    },
    {
      "anonymous": false,
      "inputs": [
        {
          "indexed": true,
          "internalType": "bytes32",
          "name": "role",
          "type": "bytes32"
        },
        {
          "indexed": true,
          "internalType": "bytes32",
          "name": "previousAdminRole",
          "type": "bytes32"
        },
        {
          "indexed": true,
          "internalType": "bytes32",
          "name": "newAdminRole",
          "type": "bytes32"
        }
      ],
      "name": "RoleAdminChanged",
      "type": "event"
    },
    {
      "anonymous": false,
      "inputs": [
        {
          "indexed": true,
          "internalType": "bytes32",
          "name": "role",
          "type": "bytes32"
        },
        {
          "indexed": true,
          "internalType": "address",
          "name": "account",
          "type": "address"
        },
        {
          "indexed": true,
          "internalType": "address",
          "name": "sender",
          "type": "address"
        }
      ],
      "name": "RoleGranted",
      "type": "event"
    },
    {
      "anonymous": false,
      "inputs": [
        {
          "indexed": true,
          "internalType": "bytes32",
          "name": "role",
          "type": "bytes32"
        },
        {
          "indexed": true,
          "internalType": "address",
          "name": "account",
          "type": "address"
        },
        {
          "indexed": true,
          "internalType": "address",
          "name": "sender",
          "type": "address"
        }
      ],
      "name": "RoleRevoked",
      "type": "event"
    },
    {
      "inputs": [],
      "name": "DEFAULT_ADMIN_ROLE",
      "outputs": [
        {
          "internalType": "bytes32",
          "name": "",
          "type": "bytes32"
        }
      ],
      "stateMutability": "view",
      "type": "function",
      "constant": true
    },
    {
      "inputs": [
        {
          "internalType": "bytes32",
          "name": "role",
          "type": "bytes32"
        }
      ],
      "name": "getRoleAdmin",
      "outputs": [
        {
          "internalType": "bytes32",
          "name": "",
          "type": "bytes32"
        }
      ],
      "stateMutability": "view",
      "type": "function",
      "constant": true
    },
    {
      "inputs": [
        {
          "internalType": "bytes32",
          "name": "role",
          "type": "bytes32"
        },
        {
          "internalType": "address",
          "name": "account",
          "type": "address"
        }
      ],
      "name": "grantRole",
      "outputs": [],
      "stateMutability": "nonpayable",
      "type": "function"
    },
    {
      "inputs": [
        {
          "internalType": "bytes32",
          "name": "role",
          "type": "bytes32"
        },
        {
          "internalType": "address",
          "name": "account",
          "type": "address"
        }
      ],
      "name": "hasRole",
      "outputs": [
        {
          "internalType": "bool",
          "name": "",
          "type": "bool"
        }
      ],
      "stateMutability": "view",
      "type": "function",
      "constant": true
    },
    {
      "inputs": [
        {
          "internalType": "address",
          "name": "",
          "type": "address"
        },
        {
          "internalType": "address",
          "name": "",
          "type": "address"
        },
        {
          "internalType": "uint256[]",
          "name": "",
          "type": "uint256[]"
        },
        {
          "internalType": "uint256[]",
          "name": "",
          "type": "uint256[]"
        },
        {
          "internalType": "bytes",
          "name": "",
          "type": "bytes"
        }
      ],
      "name": "onERC1155BatchReceived",
      "outputs": [
        {
          "internalType": "bytes4",
          "name": "",
          "type": "bytes4"
        }
      ],
      "stateMutability": "nonpayable",
      "type": "function"
    },
    {
      "inputs": [
        {
          "internalType": "address",
          "name": "",
          "type": "address"
        },
        {
          "internalType": "address",
          "name": "",
          "type": "address"
        },
        {
          "internalType": "uint256",
          "name": "",
          "type": "uint256"
        },
        {
          "internalType": "uint256",
          "name": "",
          "type": "uint256"
        },
        {
          "internalType": "bytes",
          "name": "",
          "type": "bytes"
        }
      ],
      "name": "onERC1155Received",
      "outputs": [
        {
          "internalType": "bytes4",
          "name": "",
          "type": "bytes4"
        }
      ],
      "stateMutability": "nonpayable",
      "type": "function"
    },
    {
      "inputs": [
        {
          "internalType": "bytes32",
          "name": "role",
          "type": "bytes32"
        },
        {
          "internalType": "address",
          "name": "account",
          "type": "address"
        }
      ],
      "name": "renounceRole",
      "outputs": [],
      "stateMutability": "nonpayable",
      "type": "function"
    },
    {
      "inputs": [
        {
          "internalType": "bytes32",
          "name": "role",
          "type": "bytes32"
        },
        {
          "internalType": "address",
          "name": "account",
          "type": "address"
        }
      ],
      "name": "revokeRole",
      "outputs": [],
      "stateMutability": "nonpayable",
      "type": "function"
    },
    {
      "inputs": [
        {
          "internalType": "address",
          "name": "Payout",
          "type": "address"
        },
        {
          "internalType": "address",
          "name": "TokenAddress",
          "type": "address"
        },
        {
          "internalType": "address",
          "name": "BaseERC1155Address",
          "type": "address"
        }
      ],
      "name": "initialize",
      "outputs": [],
      "stateMutability": "nonpayable",
      "type": "function"
    },
    {
      "inputs": [
        {
          "internalType": "bytes4",
          "name": "interfaceId",
          "type": "bytes4"
        }
      ],
      "name": "supportsInterface",
      "outputs": [
        {
          "internalType": "bool",
          "name": "",
          "type": "bool"
        }
      ],
      "stateMutability": "view",
      "type": "function",
      "constant": true
    },
    {
      "inputs": [
        {
          "internalType": "uint256",
          "name": "offerId",
          "type": "uint256"
        }
      ],
      "name": "getOffer",
      "outputs": [
        {
          "internalType": "address",
          "name": "",
          "type": "address"
        },
        {
          "internalType": "address",
          "name": "",
          "type": "address"
        },
        {
          "internalType": "uint256",
          "name": "",
          "type": "uint256"
        },
        {
          "internalType": "uint256",
          "name": "",
          "type": "uint256"
        },
        {
          "internalType": "uint256",
          "name": "",
          "type": "uint256"
        },
        {
          "internalType": "uint256",
          "name": "",
          "type": "uint256"
        },
        {
          "internalType": "string",
          "name": "",
          "type": "string"
        }
      ],
      "stateMutability": "view",
      "type": "function",
      "constant": true
    },
    {
      "inputs": [
        {
          "internalType": "address",
          "name": "addr",
          "type": "address"
        }
      ],
      "name": "getOffersOfAddress",
      "outputs": [
        {
          "internalType": "uint256[]",
          "name": "",
          "type": "uint256[]"
        }
      ],
      "stateMutability": "view",
      "type": "function",
      "constant": true
    },
    {
      "inputs": [],
      "name": "getOfferQuantities",
      "outputs": [
        {
          "internalType": "uint256",
          "name": "",
          "type": "uint256"
        }
      ],
      "stateMutability": "view",
      "type": "function",
      "constant": true
    },
    {
      "inputs": [
        {
          "internalType": "uint256",
          "name": "nftId",
          "type": "uint256"
        },
        {
          "internalType": "address",
          "name": "nftAddress",
          "type": "address"
        },
        {
          "internalType": "uint256",
          "name": "itemQnt",
          "type": "uint256"
        },
        {
          "internalType": "uint256",
          "name": "price",
          "type": "uint256"
        }
      ],
      "name": "CreateOffer",
      "outputs": [],
      "stateMutability": "nonpayable",
      "type": "function"
    },
    {
      "inputs": [
        {
          "internalType": "uint256",
          "name": "offerId",
          "type": "uint256"
        }
      ],
      "name": "CancelOffer",
      "outputs": [],
      "stateMutability": "nonpayable",
      "type": "function"
    },
    {
      "inputs": [
        {
          "internalType": "uint256",
          "name": "offerId",
          "type": "uint256"
        },
        {
          "internalType": "uint256",
          "name": "itemQnt",
          "type": "uint256"
        }
      ],
      "name": "AcceptOffer",
      "outputs": [],
      "stateMutability": "nonpayable",
      "type": "function"
    },
    {
      "inputs": [
        {
          "internalType": "address",
          "name": "newPayout",
          "type": "address"
        }
      ],
      "name": "transferPayoutAddress",
      "outputs": [],
      "stateMutability": "nonpayable",
      "type": "function"
    },
    {
      "inputs": [
        {
          "internalType": "uint256",
          "name": "newFee",
          "type": "uint256"
        }
      ],
      "name": "changeFee",
      "outputs": [],
      "stateMutability": "nonpayable",
      "type": "function"
    },
    {
      "inputs": [
        {
          "internalType": "address",
          "name": "_contract",
          "type": "address"
        }
      ],
      "name": "addContract",
      "outputs": [],
      "stateMutability": "nonpayable",
      "type": "function"
    },
    {
      "inputs": [
        {
          "internalType": "address",
          "name": "_contract",
          "type": "address"
        }
      ],
      "name": "removeContract",
      "outputs": [],
      "stateMutability": "nonpayable",
      "type": "function"
    }
  ],
  "bytecode": "0x608060405234801561001057600080fd5b50613142806100206000396000f3fe608060405234801561001057600080fd5b506004361061012c5760003560e01c80638486014d116100ad578063bc197c8111610071578063bc197c8114610343578063c0c53b8b14610373578063c375c2ef1461038f578063d547741f146103ab578063f23a6e61146103c75761012c565b80638486014d1461028b57806391d14854146102a9578063a217fddf146102d9578063a362edc6146102f7578063ae699e2e146103275761012c565b80634e455dbe116100f45780634e455dbe146101ff5780635f539d691461021b5780636a1db1bf14610237578063719eee46146102535780637669ad431461026f5761012c565b806301ffc9a714610131578063248a9ca3146101615780632f2ff15d1461019157806336568abe146101ad5780634579268a146101c9575b600080fd5b61014b60048036038101906101469190611f34565b6103f7565b6040516101589190611f7c565b60405180910390f35b61017b60048036038101906101769190611fcd565b610409565b6040516101889190612009565b60405180910390f35b6101ab60048036038101906101a69190612082565b610429565b005b6101c760048036038101906101c29190612082565b610452565b005b6101e360048036038101906101de91906120f8565b6104d5565b6040516101f697969594939291906121dc565b60405180910390f35b610219600480360381019061021491906120f8565b6106a6565b005b61023560048036038101906102309190612252565b610960565b005b610251600480360381019061024c91906120f8565b6109d2565b005b61026d6004803603810190610268919061227f565b6109f3565b005b610289600480360381019061028491906122e6565b610ddc565b005b6102936113b7565b6040516102a09190612326565b60405180910390f35b6102c360048036038101906102be9190612082565b6113c9565b6040516102d09190611f7c565b60405180910390f35b6102e1611434565b6040516102ee9190612009565b60405180910390f35b610311600480360381019061030c9190612252565b61143b565b60405161031e91906123ff565b60405180910390f35b610341600480360381019061033c9190612252565b6114d3565b005b61035d6004803603810190610358919061261e565b61152e565b60405161036a91906126fc565b60405180910390f35b61038d60048036038101906103889190612717565b611543565b005b6103a960048036038101906103a49190612252565b61171d565b005b6103c560048036038101906103c09190612082565b61178f565b005b6103e160048036038101906103dc919061276a565b6117b8565b6040516103ee91906126fc565b60405180910390f35b6000610402826117cd565b9050919050565b600060656000838152602001908152602001600020600101549050919050565b61043282610409565b6104438161043e611847565b61184f565b61044d83836118ec565b505050565b61045a611847565b73ffffffffffffffffffffffffffffffffffffffff168173ffffffffffffffffffffffffffffffffffffffff16146104c7576040517f08c379a00000000000000000000000000000000000000000000000000000000081526004016104be90612873565b60405180910390fd5b6104d182826119cd565b5050565b6000806000806000806060600061012d60008a81526020019081526020016000206040518060e00160405290816000820160009054906101000a900473ffffffffffffffffffffffffffffffffffffffff1673ffffffffffffffffffffffffffffffffffffffff1673ffffffffffffffffffffffffffffffffffffffff1681526020016001820160009054906101000a900473ffffffffffffffffffffffffffffffffffffffff1673ffffffffffffffffffffffffffffffffffffffff1673ffffffffffffffffffffffffffffffffffffffff168152602001600282015481526020016003820154815260200160048201548152602001600582015481526020016006820180546105e5906128c2565b80601f0160208091040260200160405190810160405280929190818152602001828054610611906128c2565b801561065e5780601f106106335761010080835404028352916020019161065e565b820191906000526020600020905b81548152906001019060200180831161064157829003601f168201915b5050505050815250509050806000015181602001518260400151836060015184608001518560a001518660c00151975097509750975097509750975050919395979092949650565b600260fb5414156106ec576040517f08c379a00000000000000000000000000000000000000000000000000000000081526004016106e390612940565b60405180910390fd5b600260fb819055503373ffffffffffffffffffffffffffffffffffffffff1661012d600083815260200190815260200160002060000160009054906101000a900473ffffffffffffffffffffffffffffffffffffffff1673ffffffffffffffffffffffffffffffffffffffff161461076357600080fd5b604051602001610772906129b7565b6040516020818303038152906040528051906020012061012d60008381526020019081526020016000206006016040516020016107af9190612a60565b60405160208183030381529060405280519060200120146107cf57600080fd5b6040518060400160405280600981526020017f43616e63656c6c6564000000000000000000000000000000000000000000000081525061012d6000838152602001908152602001600020600601908051906020019061082f929190611e25565b5061012d600082815260200190815260200160002060010160009054906101000a900473ffffffffffffffffffffffffffffffffffffffff1673ffffffffffffffffffffffffffffffffffffffff1663f242432a303361012d60008681526020019081526020016000206002015461012d6000878152602001908152602001600020600401546040518563ffffffff1660e01b81526004016108d49493929190612aae565b600060405180830381600087803b1580156108ee57600080fd5b505af1158015610902573d6000803e3d6000fd5b505050507f1ce667ae522f1f380b3262bf7881f17067f07d7f50dc398385709938a9340daf8161012d600084815260200190815260200160002060060160405161094d929190612b86565b60405180910390a1600160fb8190555050565b6000801b61097581610970611847565b61184f565b600161012f60008473ffffffffffffffffffffffffffffffffffffffff1673ffffffffffffffffffffffffffffffffffffffff16815260200190815260200160002060006101000a81548160ff0219169083151502179055505050565b6000801b6109e7816109e2611847565b61184f565b81610131819055505050565b600260fb541415610a39576040517f08c379a0000000000000000000000000000000000000000000000000000000008152600401610a3090612940565b60405180910390fd5b600260fb819055506001151561012f60008573ffffffffffffffffffffffffffffffffffffffff1673ffffffffffffffffffffffffffffffffffffffff16815260200190815260200160002060009054906101000a900460ff16151514610a9f57600080fd5b818373ffffffffffffffffffffffffffffffffffffffff1662fdd58e33876040518363ffffffff1660e01b8152600401610ada929190612bb6565b602060405180830381865afa158015610af7573d6000803e3d6000fd5b505050506040513d601f19601f82011682018060405250810190610b1b9190612bf4565b1015610b2657600080fd5b8273ffffffffffffffffffffffffffffffffffffffff1663f242432a333087866040518563ffffffff1660e01b8152600401610b659493929190612aae565b600060405180830381600087803b158015610b7f57600080fd5b505af1158015610b93573d6000803e3d6000fd5b505050506000610ba4610130611aaf565b9050610bb1610130611abd565b6040518060e001604052803373ffffffffffffffffffffffffffffffffffffffff1681526020018573ffffffffffffffffffffffffffffffffffffffff1681526020018681526020018481526020018481526020018381526020016040518060400160405280600481526020017f4f70656e0000000000000000000000000000000000000000000000000000000081525081525061012d600083815260200190815260200160002060008201518160000160006101000a81548173ffffffffffffffffffffffffffffffffffffffff021916908373ffffffffffffffffffffffffffffffffffffffff16021790555060208201518160010160006101000a81548173ffffffffffffffffffffffffffffffffffffffff021916908373ffffffffffffffffffffffffffffffffffffffff16021790555060408201518160020155606082015181600301556080820151816004015560a0820151816005015560c0820151816006019080519060200190610d2b929190611e25565b5090505061012e60003373ffffffffffffffffffffffffffffffffffffffff1673ffffffffffffffffffffffffffffffffffffffff1681526020019081526020016000208190806001815401808255809150506001900390600052602060002001600090919091909150557f1ce667ae522f1f380b3262bf7881f17067f07d7f50dc398385709938a9340daf81604051610dc59190612c44565b60405180910390a150600160fb8190555050505050565b600260fb541415610e22576040517f08c379a0000000000000000000000000000000000000000000000000000000008152600401610e1990612940565b60405180910390fd5b600260fb819055503373ffffffffffffffffffffffffffffffffffffffff1661012d600084815260200190815260200160002060000160009054906101000a900473ffffffffffffffffffffffffffffffffffffffff1673ffffffffffffffffffffffffffffffffffffffff161415610e9a57600080fd5b604051602001610ea9906129b7565b6040516020818303038152906040528051906020012061012d6000848152602001908152602001600020600601604051602001610ee69190612a60565b6040516020818303038152906040528051906020012014610f0657600080fd5b60008161012d600085815260200190815260200160002060050154610f2b9190612ca1565b90508061013360009054906101000a900473ffffffffffffffffffffffffffffffffffffffff1673ffffffffffffffffffffffffffffffffffffffff166370a08231336040518263ffffffff1660e01b8152600401610f8a9190612cfb565b602060405180830381865afa158015610fa7573d6000803e3d6000fd5b505050506040513d601f19601f82011682018060405250810190610fcb9190612bf4565b1015610fd657600080fd5b61012d600084815260200190815260200160002060040154821115610ffa57600080fd5b8161012d60008581526020019081526020016000206004015461101d9190612d16565b61012d600085815260200190815260200160002060040181905550600061012d60008581526020019081526020016000206004015414156110ba576040518060400160405280600681526020017f436c6f736564000000000000000000000000000000000000000000000000000081525061012d600085815260200190815260200160002060060190805190602001906110b8929190611e25565b505b61013360009054906101000a900473ffffffffffffffffffffffffffffffffffffffff1673ffffffffffffffffffffffffffffffffffffffff166323b872dd3361012d600087815260200190815260200160002060000160009054906101000a900473ffffffffffffffffffffffffffffffffffffffff1660646101315460646111449190612d16565b8661114f9190612ca1565b6111599190612d79565b6040518463ffffffff1660e01b815260040161117793929190612daa565b6020604051808303816000875af1158015611196573d6000803e3d6000fd5b505050506040513d601f19601f820116820180604052508101906111ba9190612e0d565b5061013360009054906101000a900473ffffffffffffffffffffffffffffffffffffffff1673ffffffffffffffffffffffffffffffffffffffff166323b872dd3361013260009054906101000a900473ffffffffffffffffffffffffffffffffffffffff16606461013154866112309190612ca1565b61123a9190612d79565b6040518463ffffffff1660e01b815260040161125893929190612daa565b6020604051808303816000875af1158015611277573d6000803e3d6000fd5b505050506040513d601f19601f8201168201806040525081019061129b9190612e0d565b5061012d600084815260200190815260200160002060010160009054906101000a900473ffffffffffffffffffffffffffffffffffffffff1673ffffffffffffffffffffffffffffffffffffffff1663f242432a303361012d600088815260200190815260200160002060020154866040518563ffffffff1660e01b81526004016113299493929190612aae565b600060405180830381600087803b15801561134357600080fd5b505af1158015611357573d6000803e3d6000fd5b505050507f1ce667ae522f1f380b3262bf7881f17067f07d7f50dc398385709938a9340daf8361012d60008681526020019081526020016000206006016040516113a2929190612b86565b60405180910390a150600160fb819055505050565b60006113c4610130611aaf565b905090565b60006065600084815260200190815260200160002060000160008373ffffffffffffffffffffffffffffffffffffffff1673ffffffffffffffffffffffffffffffffffffffff16815260200190815260200160002060009054906101000a900460ff16905092915050565b6000801b81565b606061012e60008373ffffffffffffffffffffffffffffffffffffffff1673ffffffffffffffffffffffffffffffffffffffff1681526020019081526020016000208054806020026020016040519081016040528092919081815260200182805480156114c757602002820191906000526020600020905b8154815260200190600101908083116114b3575b50505050509050919050565b6000801b6114e8816114e3611847565b61184f565b8161013260006101000a81548173ffffffffffffffffffffffffffffffffffffffff021916908373ffffffffffffffffffffffffffffffffffffffff1602179055505050565b600063bc197c8160e01b905095945050505050565b600060019054906101000a900460ff1661156b5760008054906101000a900460ff1615611574565b611573611ad3565b5b6115b3576040517f08c379a00000000000000000000000000000000000000000000000000000000081526004016115aa90612eac565b60405180910390fd5b60008060019054906101000a900460ff161590508015611603576001600060016101000a81548160ff02191690831515021790555060016000806101000a81548160ff0219169083151502179055505b8361013260006101000a81548173ffffffffffffffffffffffffffffffffffffffff021916908373ffffffffffffffffffffffffffffffffffffffff1602179055506004610131819055508261013360006101000a81548173ffffffffffffffffffffffffffffffffffffffff021916908373ffffffffffffffffffffffffffffffffffffffff160217905550600161012f60008473ffffffffffffffffffffffffffffffffffffffff1673ffffffffffffffffffffffffffffffffffffffff16815260200190815260200160002060006101000a81548160ff0219169083151502179055506116f66000801b33611ae4565b80156117175760008060016101000a81548160ff0219169083151502179055505b50505050565b6000801b6117328161172d611847565b61184f565b600061012f60008473ffffffffffffffffffffffffffffffffffffffff1673ffffffffffffffffffffffffffffffffffffffff16815260200190815260200160002060006101000a81548160ff0219169083151502179055505050565b61179882610409565b6117a9816117a4611847565b61184f565b6117b383836119cd565b505050565b600063f23a6e6160e01b905095945050505050565b60007f4e2312e0000000000000000000000000000000000000000000000000000000007bffffffffffffffffffffffffffffffffffffffffffffffffffffffff1916827bffffffffffffffffffffffffffffffffffffffffffffffffffffffff19161480611840575061183f82611af2565b5b9050919050565b600033905090565b61185982826113c9565b6118e85761187e8173ffffffffffffffffffffffffffffffffffffffff166014611b6c565b61188c8360001c6020611b6c565b60405160200161189d929190612f95565b6040516020818303038152906040526040517f08c379a00000000000000000000000000000000000000000000000000000000081526004016118df9190612fcf565b60405180910390fd5b5050565b6118f682826113c9565b6119c95760016065600084815260200190815260200160002060000160008373ffffffffffffffffffffffffffffffffffffffff1673ffffffffffffffffffffffffffffffffffffffff16815260200190815260200160002060006101000a81548160ff02191690831515021790555061196e611847565b73ffffffffffffffffffffffffffffffffffffffff168173ffffffffffffffffffffffffffffffffffffffff16837f2f8788117e7eff1d82e926ec794901d17c78024a50270940304540a733656f0d60405160405180910390a45b5050565b6119d782826113c9565b15611aab5760006065600084815260200190815260200160002060000160008373ffffffffffffffffffffffffffffffffffffffff1673ffffffffffffffffffffffffffffffffffffffff16815260200190815260200160002060006101000a81548160ff021916908315150217905550611a50611847565b73ffffffffffffffffffffffffffffffffffffffff168173ffffffffffffffffffffffffffffffffffffffff16837ff6391f5c32d9c69d2a47ea670b442974b53935d1edc7fd64eb21e047a839171b60405160405180910390a45b5050565b600081600001549050919050565b6001816000016000828254019250508190555050565b6000611ade30611da8565b15905090565b611aee82826118ec565b5050565b60007f7965db0b000000000000000000000000000000000000000000000000000000007bffffffffffffffffffffffffffffffffffffffffffffffffffffffff1916827bffffffffffffffffffffffffffffffffffffffffffffffffffffffff19161480611b655750611b6482611dbb565b5b9050919050565b606060006002836002611b7f9190612ca1565b611b899190612ff1565b67ffffffffffffffff811115611ba257611ba1612426565b5b6040519080825280601f01601f191660200182016040528015611bd45781602001600182028036833780820191505090505b5090507f300000000000000000000000000000000000000000000000000000000000000081600081518110611c0c57611c0b613047565b5b60200101907effffffffffffffffffffffffffffffffffffffffffffffffffffffffffffff1916908160001a9053507f780000000000000000000000000000000000000000000000000000000000000081600181518110611c7057611c6f613047565b5b60200101907effffffffffffffffffffffffffffffffffffffffffffffffffffffffffffff1916908160001a90535060006001846002611cb09190612ca1565b611cba9190612ff1565b90505b6001811115611d5a577f3031323334353637383961626364656600000000000000000000000000000000600f861660108110611cfc57611cfb613047565b5b1a60f81b828281518110611d1357611d12613047565b5b60200101907effffffffffffffffffffffffffffffffffffffffffffffffffffffffffffff1916908160001a905350600485901c945080611d5390613076565b9050611cbd565b5060008414611d9e576040517f08c379a0000000000000000000000000000000000000000000000000000000008152600401611d95906130ec565b60405180910390fd5b8091505092915050565b600080823b905060008111915050919050565b60007f01ffc9a7000000000000000000000000000000000000000000000000000000007bffffffffffffffffffffffffffffffffffffffffffffffffffffffff1916827bffffffffffffffffffffffffffffffffffffffffffffffffffffffff1916149050919050565b828054611e31906128c2565b90600052602060002090601f016020900481019282611e535760008555611e9a565b82601f10611e6c57805160ff1916838001178555611e9a565b82800160010185558215611e9a579182015b82811115611e99578251825591602001919060010190611e7e565b5b509050611ea79190611eab565b5090565b5b80821115611ec4576000816000905550600101611eac565b5090565b6000604051905090565b600080fd5b600080fd5b60007fffffffff0000000000000000000000000000000000000000000000000000000082169050919050565b611f1181611edc565b8114611f1c57600080fd5b50565b600081359050611f2e81611f08565b92915050565b600060208284031215611f4a57611f49611ed2565b5b6000611f5884828501611f1f565b91505092915050565b60008115159050919050565b611f7681611f61565b82525050565b6000602082019050611f916000830184611f6d565b92915050565b6000819050919050565b611faa81611f97565b8114611fb557600080fd5b50565b600081359050611fc781611fa1565b92915050565b600060208284031215611fe357611fe2611ed2565b5b6000611ff184828501611fb8565b91505092915050565b61200381611f97565b82525050565b600060208201905061201e6000830184611ffa565b92915050565b600073ffffffffffffffffffffffffffffffffffffffff82169050919050565b600061204f82612024565b9050919050565b61205f81612044565b811461206a57600080fd5b50565b60008135905061207c81612056565b92915050565b6000806040838503121561209957612098611ed2565b5b60006120a785828601611fb8565b92505060206120b88582860161206d565b9150509250929050565b6000819050919050565b6120d5816120c2565b81146120e057600080fd5b50565b6000813590506120f2816120cc565b92915050565b60006020828403121561210e5761210d611ed2565b5b600061211c848285016120e3565b91505092915050565b61212e81612044565b82525050565b61213d816120c2565b82525050565b600081519050919050565b600082825260208201905092915050565b60005b8381101561217d578082015181840152602081019050612162565b8381111561218c576000848401525b50505050565b6000601f19601f8301169050919050565b60006121ae82612143565b6121b8818561214e565b93506121c881856020860161215f565b6121d181612192565b840191505092915050565b600060e0820190506121f1600083018a612125565b6121fe6020830189612125565b61220b6040830188612134565b6122186060830187612134565b6122256080830186612134565b61223260a0830185612134565b81810360c083015261224481846121a3565b905098975050505050505050565b60006020828403121561226857612267611ed2565b5b60006122768482850161206d565b91505092915050565b6000806000806080858703121561229957612298611ed2565b5b60006122a7878288016120e3565b94505060206122b88782880161206d565b93505060406122c9878288016120e3565b92505060606122da878288016120e3565b91505092959194509250565b600080604083850312156122fd576122fc611ed2565b5b600061230b858286016120e3565b925050602061231c858286016120e3565b9150509250929050565b600060208201905061233b6000830184612134565b92915050565b600081519050919050565b600082825260208201905092915050565b6000819050602082019050919050565b612376816120c2565b82525050565b6000612388838361236d565b60208301905092915050565b6000602082019050919050565b60006123ac82612341565b6123b6818561234c565b93506123c18361235d565b8060005b838110156123f25781516123d9888261237c565b97506123e483612394565b9250506001810190506123c5565b5085935050505092915050565b6000602082019050818103600083015261241981846123a1565b905092915050565b600080fd5b7f4e487b7100000000000000000000000000000000000000000000000000000000600052604160045260246000fd5b61245e82612192565b810181811067ffffffffffffffff8211171561247d5761247c612426565b5b80604052505050565b6000612490611ec8565b905061249c8282612455565b919050565b600067ffffffffffffffff8211156124bc576124bb612426565b5b602082029050602081019050919050565b600080fd5b60006124e56124e0846124a1565b612486565b90508083825260208201905060208402830185811115612508576125076124cd565b5b835b81811015612531578061251d88826120e3565b84526020840193505060208101905061250a565b5050509392505050565b600082601f8301126125505761254f612421565b5b81356125608482602086016124d2565b91505092915050565b600080fd5b600067ffffffffffffffff82111561258957612588612426565b5b61259282612192565b9050602081019050919050565b82818337600083830152505050565b60006125c16125bc8461256e565b612486565b9050828152602081018484840111156125dd576125dc612569565b5b6125e884828561259f565b509392505050565b600082601f83011261260557612604612421565b5b81356126158482602086016125ae565b91505092915050565b600080600080600060a0868803121561263a57612639611ed2565b5b60006126488882890161206d565b95505060206126598882890161206d565b945050604086013567ffffffffffffffff81111561267a57612679611ed7565b5b6126868882890161253b565b935050606086013567ffffffffffffffff8111156126a7576126a6611ed7565b5b6126b38882890161253b565b925050608086013567ffffffffffffffff8111156126d4576126d3611ed7565b5b6126e0888289016125f0565b9150509295509295909350565b6126f681611edc565b82525050565b600060208201905061271160008301846126ed565b92915050565b6000806000606084860312156127305761272f611ed2565b5b600061273e8682870161206d565b935050602061274f8682870161206d565b92505060406127608682870161206d565b9150509250925092565b600080600080600060a0868803121561278657612785611ed2565b5b60006127948882890161206d565b95505060206127a58882890161206d565b94505060406127b6888289016120e3565b93505060606127c7888289016120e3565b925050608086013567ffffffffffffffff8111156127e8576127e7611ed7565b5b6127f4888289016125f0565b9150509295509295909350565b7f416363657373436f6e74726f6c3a2063616e206f6e6c792072656e6f756e636560008201527f20726f6c657320666f722073656c660000000000000000000000000000000000602082015250565b600061285d602f8361214e565b915061286882612801565b604082019050919050565b6000602082019050818103600083015261288c81612850565b9050919050565b7f4e487b7100000000000000000000000000000000000000000000000000000000600052602260045260246000fd5b600060028204905060018216806128da57607f821691505b602082108114156128ee576128ed612893565b5b50919050565b7f5265656e7472616e637947756172643a207265656e7472616e742063616c6c00600082015250565b600061292a601f8361214e565b9150612935826128f4565b602082019050919050565b600060208201905081810360008301526129598161291d565b9050919050565b600081905092915050565b7f4f70656e00000000000000000000000000000000000000000000000000000000600082015250565b60006129a1600483612960565b91506129ac8261296b565b600482019050919050565b60006129c282612994565b9150819050919050565b60008190508160005260206000209050919050565b600081546129ee816128c2565b6129f88186612960565b94506001821660008114612a135760018114612a2457612a57565b60ff19831686528186019350612a57565b612a2d856129cc565b60005b83811015612a4f57815481890152600182019150602081019050612a30565b838801955050505b50505092915050565b6000612a6c82846129e1565b915081905092915050565b600082825260208201905092915050565b50565b6000612a98600083612a77565b9150612aa382612a88565b600082019050919050565b600060a082019050612ac36000830187612125565b612ad06020830186612125565b612add6040830185612134565b612aea6060830184612134565b8181036080830152612afb81612a8b565b905095945050505050565b60008154612b13816128c2565b612b1d818661214e565b94506001821660008114612b385760018114612b4a57612b7d565b60ff1983168652602086019350612b7d565b612b53856129cc565b60005b83811015612b7557815481890152600182019150602081019050612b56565b808801955050505b50505092915050565b6000604082019050612b9b6000830185612134565b8181036020830152612bad8184612b06565b90509392505050565b6000604082019050612bcb6000830185612125565b612bd86020830184612134565b9392505050565b600081519050612bee816120cc565b92915050565b600060208284031215612c0a57612c09611ed2565b5b6000612c1884828501612bdf565b91505092915050565b6000612c2e60048361214e565b9150612c398261296b565b602082019050919050565b6000604082019050612c596000830184612134565b8181036020830152612c6a81612c21565b905092915050565b7f4e487b7100000000000000000000000000000000000000000000000000000000600052601160045260246000fd5b6000612cac826120c2565b9150612cb7836120c2565b9250817fffffffffffffffffffffffffffffffffffffffffffffffffffffffffffffffff0483118215151615612cf057612cef612c72565b5b828202905092915050565b6000602082019050612d106000830184612125565b92915050565b6000612d21826120c2565b9150612d2c836120c2565b925082821015612d3f57612d3e612c72565b5b828203905092915050565b7f4e487b7100000000000000000000000000000000000000000000000000000000600052601260045260246000fd5b6000612d84826120c2565b9150612d8f836120c2565b925082612d9f57612d9e612d4a565b5b828204905092915050565b6000606082019050612dbf6000830186612125565b612dcc6020830185612125565b612dd96040830184612134565b949350505050565b612dea81611f61565b8114612df557600080fd5b50565b600081519050612e0781612de1565b92915050565b600060208284031215612e2357612e22611ed2565b5b6000612e3184828501612df8565b91505092915050565b7f496e697469616c697a61626c653a20636f6e747261637420697320616c72656160008201527f647920696e697469616c697a6564000000000000000000000000000000000000602082015250565b6000612e96602e8361214e565b9150612ea182612e3a565b604082019050919050565b60006020820190508181036000830152612ec581612e89565b9050919050565b7f416363657373436f6e74726f6c3a206163636f756e7420000000000000000000600082015250565b6000612f02601783612960565b9150612f0d82612ecc565b601782019050919050565b6000612f2382612143565b612f2d8185612960565b9350612f3d81856020860161215f565b80840191505092915050565b7f206973206d697373696e6720726f6c6520000000000000000000000000000000600082015250565b6000612f7f601183612960565b9150612f8a82612f49565b601182019050919050565b6000612fa082612ef5565b9150612fac8285612f18565b9150612fb782612f72565b9150612fc38284612f18565b91508190509392505050565b60006020820190508181036000830152612fe981846121a3565b905092915050565b6000612ffc826120c2565b9150613007836120c2565b9250827fffffffffffffffffffffffffffffffffffffffffffffffffffffffffffffffff0382111561303c5761303b612c72565b5b828201905092915050565b7f4e487b7100000000000000000000000000000000000000000000000000000000600052603260045260246000fd5b6000613081826120c2565b9150600082141561309557613094612c72565b5b600182039050919050565b7f537472696e67733a20686578206c656e67746820696e73756666696369656e74600082015250565b60006130d660208361214e565b91506130e1826130a0565b602082019050919050565b60006020820190508181036000830152613105816130c9565b905091905056fea2646970667358221220588c8a8ba0445ea2f56f7ca1283073b01b9f52ba89bb53b56ec645b2c53419ab64736f6c634300080c0033",
  "immutableReferences": {},
  "source": "// SPDX-License-Identifier: UNLICENSED\r\n\r\npragma solidity ^0.8.3;\r\n\r\nimport \"@openzeppelin/contracts-upgradeable/utils/CountersUpgradeable.sol\";\r\nimport \"@openzeppelin/contracts-upgradeable/token/ERC20/IERC20Upgradeable.sol\";\r\nimport \"@openzeppelin/contracts-upgradeable/token/ERC1155/IERC1155Upgradeable.sol\";\r\nimport \"@openzeppelin/contracts-upgradeable/token/ERC1155/utils/ERC1155HolderUpgradeable.sol\";\r\nimport \"@openzeppelin/contracts-upgradeable/access/AccessControlUpgradeable.sol\";\r\nimport \"@openzeppelin/contracts-upgradeable/proxy/utils/Initializable.sol\";\r\nimport \"@openzeppelin/contracts-upgradeable/security/ReentrancyGuardUpgradeable.sol\";\r\n\r\ncontract ERC1155Marketplace is Initializable, AccessControlUpgradeable, ERC1155HolderUpgradeable, ReentrancyGuardUpgradeable {\r\n\r\n    event OfferStatusChange(uint256 offerId, string status);\r\n\r\n    struct Offer {\r\n        address owner;\r\n        address nft;\r\n        uint nftId;\r\n        uint originalAmount;\r\n        uint currentAmount;\r\n        uint price;\r\n        string status;\r\n    }\r\n\r\n    mapping(uint256 => Offer) offers;\r\n    mapping(address => uint256[]) addressToOffers;\r\n    mapping(address => bool) addressToBool;\r\n\r\n    using CountersUpgradeable for CountersUpgradeable.Counter;\r\n    CountersUpgradeable.Counter private offerCounter;\r\n\r\n    uint256 Fee;\r\n    address PayoutAddress;\r\n    IERC20Upgradeable token;\r\n\r\n    function initialize(address Payout, address TokenAddress, address BaseERC1155Address) initializer public {\r\n        PayoutAddress = Payout;\r\n        Fee = 4;\r\n        token = IERC20Upgradeable(TokenAddress);\r\n        addressToBool[BaseERC1155Address] = true;\r\n        _setupRole(DEFAULT_ADMIN_ROLE, msg.sender);\r\n    }\r\n\r\n    function supportsInterface(bytes4 interfaceId) public view virtual override(ERC1155ReceiverUpgradeable, AccessControlUpgradeable) returns (bool) {\r\n        return super.supportsInterface(interfaceId);\r\n    }\r\n\r\n    function getOffer(uint256 offerId) external view returns (address, address, uint256, uint256, uint256, uint256, string memory) {\r\n        Offer memory offer = offers[offerId];\r\n        return (offer.owner, offer.nft, offer.nftId, offer.originalAmount, offer.currentAmount, offer.price, offer.status);\r\n    }\r\n\r\n    function getOffersOfAddress(address addr) external view returns (uint256[] memory) {\r\n        return addressToOffers[addr];\r\n    }\r\n\r\n    function getOfferQuantities() external view returns (uint256) {\r\n        return offerCounter.current();\r\n    }\r\n\r\n    function CreateOffer(uint nftId, address nftAddress, uint itemQnt, uint price) external nonReentrant() {\r\n        require(addressToBool[nftAddress] == true);\r\n        require(IERC1155Upgradeable(nftAddress).balanceOf(msg.sender, nftId) >= itemQnt);\r\n        \r\n        IERC1155Upgradeable(nftAddress).safeTransferFrom(msg.sender, address(this), nftId, itemQnt, \"\");\r\n        \r\n        uint current = offerCounter.current();\r\n        offerCounter.increment();\r\n        offers[current] = Offer(msg.sender, nftAddress, nftId, itemQnt, itemQnt, price, \"Open\");\r\n        addressToOffers[msg.sender].push(current);\r\n        emit OfferStatusChange(current, \"Open\");\r\n    }\r\n\r\n    function CancelOffer(uint offerId) external nonReentrant() {\r\n        require(offers[offerId].owner == msg.sender);\r\n        require(keccak256(abi.encodePacked(offers[offerId].status)) == keccak256(abi.encodePacked(\"Open\")));\r\n        offers[offerId].status = \"Cancelled\";\r\n        IERC1155Upgradeable(offers[offerId].nft).safeTransferFrom(address(this), msg.sender, offers[offerId].nftId, offers[offerId].currentAmount, \"\");\r\n        emit OfferStatusChange(offerId, offers[offerId].status);\r\n    }\r\n\r\n    function AcceptOffer(uint offerId, uint itemQnt) external nonReentrant() {\r\n        require(offers[offerId].owner != msg.sender);\r\n        require(keccak256(abi.encodePacked(offers[offerId].status)) == keccak256(abi.encodePacked(\"Open\")));\r\n        uint totalPrice = offers[offerId].price*itemQnt;\r\n        require(token.balanceOf(msg.sender)>= totalPrice);\r\n        require(itemQnt <= offers[offerId].currentAmount);\r\n\r\n        offers[offerId].currentAmount = offers[offerId].currentAmount - itemQnt;\r\n        if (offers[offerId].currentAmount == 0) {\r\n            offers[offerId].status = \"Closed\";\r\n        }\r\n        token.transferFrom(msg.sender, offers[offerId].owner, totalPrice*(100-Fee)/100);\r\n        token.transferFrom(msg.sender, PayoutAddress, totalPrice*Fee/100);\r\n        IERC1155Upgradeable(offers[offerId].nft).safeTransferFrom(address(this), msg.sender, offers[offerId].nftId, itemQnt, \"\");\r\n        emit OfferStatusChange(offerId, offers[offerId].status);\r\n\r\n    }\r\n\r\n    /**\r\n     * @dev Changes account to send payout.\r\n     * @param newPayout new address to send payout.\r\n     */\r\n    function transferPayoutAddress(address newPayout) external onlyRole(DEFAULT_ADMIN_ROLE) {\r\n        PayoutAddress = newPayout;\r\n    }\r\n\r\n    /**\r\n     * @dev Changes the fee \r\n     * @param newFee new fee.\r\n     */\r\n    function changeFee(uint256 newFee) external onlyRole(DEFAULT_ADMIN_ROLE) {\r\n        Fee = newFee;\r\n    }\r\n\r\n        /**\r\n     * @dev adds new contract ERC1155 to the protocol\r\n     * @param _contract contract address to whitelist.\r\n     */\r\n    function addContract(address _contract) external onlyRole(DEFAULT_ADMIN_ROLE) {\r\n        addressToBool[_contract] = true;\r\n    }\r\n\r\n    /**\r\n     * @dev removes a contract ERC1155 from the protocol\r\n     * @param _contract contract address to blacklist.\r\n     */\r\n    function removeContract(address _contract) external onlyRole(DEFAULT_ADMIN_ROLE) {\r\n        addressToBool[_contract] = false;\r\n    }\r\n\r\n}",
  "sourcePath": "C:\\Users\\jtsch\\OneDrive\\Escritorio\\Python\\SmartContracts-NFT-Agus\\contracts\\ERC1155Marketplace.sol",
  "compiler": {
    "name": "solc",
    "version": "0.8.12+commit.f00d7308.Emscripten.clang"
  },
  "schemaVersion": "3.4.3",
  "updatedAt": "2022-02-22T17:58:33.895Z",
  "networkType": "ethereum",
  "devdoc": {
    "kind": "dev",
    "methods": {
      "addContract(address)": {
        "details": "adds new contract ERC1155 to the protocol",
        "params": {
          "_contract": "contract address to whitelist."
        }
      },
      "changeFee(uint256)": {
        "details": "Changes the fee ",
        "params": {
          "newFee": "new fee."
        }
      },
      "getRoleAdmin(bytes32)": {
        "details": "Returns the admin role that controls `role`. See {grantRole} and {revokeRole}. To change a role's admin, use {_setRoleAdmin}."
      },
      "grantRole(bytes32,address)": {
        "details": "Grants `role` to `account`. If `account` had not been already granted `role`, emits a {RoleGranted} event. Requirements: - the caller must have ``role``'s admin role."
      },
      "hasRole(bytes32,address)": {
        "details": "Returns `true` if `account` has been granted `role`."
      },
      "removeContract(address)": {
        "details": "removes a contract ERC1155 from the protocol",
        "params": {
          "_contract": "contract address to blacklist."
        }
      },
      "renounceRole(bytes32,address)": {
        "details": "Revokes `role` from the calling account. Roles are often managed via {grantRole} and {revokeRole}: this function's purpose is to provide a mechanism for accounts to lose their privileges if they are compromised (such as when a trusted device is misplaced). If the calling account had been revoked `role`, emits a {RoleRevoked} event. Requirements: - the caller must be `account`."
      },
      "revokeRole(bytes32,address)": {
        "details": "Revokes `role` from `account`. If `account` had been granted `role`, emits a {RoleRevoked} event. Requirements: - the caller must have ``role``'s admin role."
      },
      "transferPayoutAddress(address)": {
        "details": "Changes account to send payout.",
        "params": {
          "newPayout": "new address to send payout."
        }
      }
    },
    "version": 1
  },
  "userdoc": {
    "kind": "user",
    "methods": {},
    "version": 1
  }
}