{
  "contractName": "ERC1155Upgradeable",
  "abi": [
    {
      "anonymous": false,
      "inputs": [
        {
          "indexed": true,
          "internalType": "address",
          "name": "account",
          "type": "address"
        },
        {
          "indexed": true,
          "internalType": "address",
          "name": "operator",
          "type": "address"
        },
        {
          "indexed": false,
          "internalType": "bool",
          "name": "approved",
          "type": "bool"
        }
      ],
      "name": "ApprovalForAll",
      "type": "event"
    },
    {
      "anonymous": false,
      "inputs": [
        {
          "indexed": true,
          "internalType": "address",
          "name": "operator",
          "type": "address"
        },
        {
          "indexed": true,
          "internalType": "address",
          "name": "from",
          "type": "address"
        },
        {
          "indexed": true,
          "internalType": "address",
          "name": "to",
          "type": "address"
        },
        {
          "indexed": false,
          "internalType": "uint256[]",
          "name": "ids",
          "type": "uint256[]"
        },
        {
          "indexed": false,
          "internalType": "uint256[]",
          "name": "values",
          "type": "uint256[]"
        }
      ],
      "name": "TransferBatch",
      "type": "event"
    },
    {
      "anonymous": false,
      "inputs": [
        {
          "indexed": true,
          "internalType": "address",
          "name": "operator",
          "type": "address"
        },
        {
          "indexed": true,
          "internalType": "address",
          "name": "from",
          "type": "address"
        },
        {
          "indexed": true,
          "internalType": "address",
          "name": "to",
          "type": "address"
        },
        {
          "indexed": false,
          "internalType": "uint256",
          "name": "id",
          "type": "uint256"
        },
        {
          "indexed": false,
          "internalType": "uint256",
          "name": "value",
          "type": "uint256"
        }
      ],
      "name": "TransferSingle",
      "type": "event"
    },
    {
      "anonymous": false,
      "inputs": [
        {
          "indexed": false,
          "internalType": "string",
          "name": "value",
          "type": "string"
        },
        {
          "indexed": true,
          "internalType": "uint256",
          "name": "id",
          "type": "uint256"
        }
      ],
      "name": "URI",
      "type": "event"
    },
    {
      "inputs": [
        {
          "internalType": "bytes4",
          "name": "interfaceId",
          "type": "bytes4"
        }
      ],
      "name": "supportsInterface",
      "outputs": [
        {
          "internalType": "bool",
          "name": "",
          "type": "bool"
        }
      ],
      "stateMutability": "view",
      "type": "function"
    },
    {
      "inputs": [
        {
          "internalType": "uint256",
          "name": "",
          "type": "uint256"
        }
      ],
      "name": "uri",
      "outputs": [
        {
          "internalType": "string",
          "name": "",
          "type": "string"
        }
      ],
      "stateMutability": "view",
      "type": "function"
    },
    {
      "inputs": [
        {
          "internalType": "address",
          "name": "account",
          "type": "address"
        },
        {
          "internalType": "uint256",
          "name": "id",
          "type": "uint256"
        }
      ],
      "name": "balanceOf",
      "outputs": [
        {
          "internalType": "uint256",
          "name": "",
          "type": "uint256"
        }
      ],
      "stateMutability": "view",
      "type": "function"
    },
    {
      "inputs": [
        {
          "internalType": "address[]",
          "name": "accounts",
          "type": "address[]"
        },
        {
          "internalType": "uint256[]",
          "name": "ids",
          "type": "uint256[]"
        }
      ],
      "name": "balanceOfBatch",
      "outputs": [
        {
          "internalType": "uint256[]",
          "name": "",
          "type": "uint256[]"
        }
      ],
      "stateMutability": "view",
      "type": "function"
    },
    {
      "inputs": [
        {
          "internalType": "address",
          "name": "operator",
          "type": "address"
        },
        {
          "internalType": "bool",
          "name": "approved",
          "type": "bool"
        }
      ],
      "name": "setApprovalForAll",
      "outputs": [],
      "stateMutability": "nonpayable",
      "type": "function"
    },
    {
      "inputs": [
        {
          "internalType": "address",
          "name": "account",
          "type": "address"
        },
        {
          "internalType": "address",
          "name": "operator",
          "type": "address"
        }
      ],
      "name": "isApprovedForAll",
      "outputs": [
        {
          "internalType": "bool",
          "name": "",
          "type": "bool"
        }
      ],
      "stateMutability": "view",
      "type": "function"
    },
    {
      "inputs": [
        {
          "internalType": "address",
          "name": "from",
          "type": "address"
        },
        {
          "internalType": "address",
          "name": "to",
          "type": "address"
        },
        {
          "internalType": "uint256",
          "name": "id",
          "type": "uint256"
        },
        {
          "internalType": "uint256",
          "name": "amount",
          "type": "uint256"
        },
        {
          "internalType": "bytes",
          "name": "data",
          "type": "bytes"
        }
      ],
      "name": "safeTransferFrom",
      "outputs": [],
      "stateMutability": "nonpayable",
      "type": "function"
    },
    {
      "inputs": [
        {
          "internalType": "address",
          "name": "from",
          "type": "address"
        },
        {
          "internalType": "address",
          "name": "to",
          "type": "address"
        },
        {
          "internalType": "uint256[]",
          "name": "ids",
          "type": "uint256[]"
        },
        {
          "internalType": "uint256[]",
          "name": "amounts",
          "type": "uint256[]"
        },
        {
          "internalType": "bytes",
          "name": "data",
          "type": "bytes"
        }
      ],
      "name": "safeBatchTransferFrom",
      "outputs": [],
      "stateMutability": "nonpayable",
      "type": "function"
    }
  ],
  "bytecode": "0x608060405234801561001057600080fd5b50612589806100206000396000f3fe608060405234801561001057600080fd5b50600436106100875760003560e01c80634e1273f41161005b5780634e1273f414610138578063a22cb46514610168578063e985e9c514610184578063f242432a146101b457610087565b8062fdd58e1461008c57806301ffc9a7146100bc5780630e89341c146100ec5780632eb2c2d61461011c575b600080fd5b6100a660048036038101906100a1919061137d565b6101d0565b6040516100b391906113cc565b60405180910390f35b6100d660048036038101906100d1919061143f565b61029a565b6040516100e39190611487565b60405180910390f35b610106600480360381019061010191906114a2565b61037c565b6040516101139190611568565b60405180910390f35b61013660048036038101906101319190611787565b610410565b005b610152600480360381019061014d9190611919565b6104b1565b60405161015f9190611a4f565b60405180910390f35b610182600480360381019061017d9190611a9d565b6105ca565b005b61019e60048036038101906101999190611add565b6105e0565b6040516101ab9190611487565b60405180910390f35b6101ce60048036038101906101c99190611b1d565b610674565b005b60008073ffffffffffffffffffffffffffffffffffffffff168373ffffffffffffffffffffffffffffffffffffffff161415610241576040517f08c379a000000000000000000000000000000000000000000000000000000000815260040161023890611c26565b60405180910390fd5b6065600083815260200190815260200160002060008473ffffffffffffffffffffffffffffffffffffffff1673ffffffffffffffffffffffffffffffffffffffff16815260200190815260200160002054905092915050565b60007fd9b67a26000000000000000000000000000000000000000000000000000000007bffffffffffffffffffffffffffffffffffffffffffffffffffffffff1916827bffffffffffffffffffffffffffffffffffffffffffffffffffffffff1916148061036557507f0e89341c000000000000000000000000000000000000000000000000000000007bffffffffffffffffffffffffffffffffffffffffffffffffffffffff1916827bffffffffffffffffffffffffffffffffffffffffffffffffffffffff1916145b80610375575061037482610715565b5b9050919050565b60606067805461038b90611c75565b80601f01602080910402602001604051908101604052809291908181526020018280546103b790611c75565b80156104045780601f106103d957610100808354040283529160200191610404565b820191906000526020600020905b8154815290600101906020018083116103e757829003601f168201915b50505050509050919050565b61041861077f565b73ffffffffffffffffffffffffffffffffffffffff168573ffffffffffffffffffffffffffffffffffffffff16148061045e575061045d8561045861077f565b6105e0565b5b61049d576040517f08c379a000000000000000000000000000000000000000000000000000000000815260040161049490611d19565b60405180910390fd5b6104aa8585858585610787565b5050505050565b606081518351146104f7576040517f08c379a00000000000000000000000000000000000000000000000000000000081526004016104ee90611dab565b60405180910390fd5b6000835167ffffffffffffffff8111156105145761051361158f565b5b6040519080825280602002602001820160405280156105425781602001602082028036833780820191505090505b50905060005b84518110156105bf5761058f85828151811061056757610566611dcb565b5b602002602001015185838151811061058257610581611dcb565b5b60200260200101516101d0565b8282815181106105a2576105a1611dcb565b5b602002602001018181525050806105b890611e29565b9050610548565b508091505092915050565b6105dc6105d561077f565b8383610a9e565b5050565b6000606660008473ffffffffffffffffffffffffffffffffffffffff1673ffffffffffffffffffffffffffffffffffffffff16815260200190815260200160002060008373ffffffffffffffffffffffffffffffffffffffff1673ffffffffffffffffffffffffffffffffffffffff16815260200190815260200160002060009054906101000a900460ff16905092915050565b61067c61077f565b73ffffffffffffffffffffffffffffffffffffffff168573ffffffffffffffffffffffffffffffffffffffff1614806106c257506106c1856106bc61077f565b6105e0565b5b610701576040517f08c379a00000000000000000000000000000000000000000000000000000000081526004016106f890611ee4565b60405180910390fd5b61070e8585858585610c0b565b5050505050565b60007f01ffc9a7000000000000000000000000000000000000000000000000000000007bffffffffffffffffffffffffffffffffffffffffffffffffffffffff1916827bffffffffffffffffffffffffffffffffffffffffffffffffffffffff1916149050919050565b600033905090565b81518351146107cb576040517f08c379a00000000000000000000000000000000000000000000000000000000081526004016107c290611f76565b60405180910390fd5b600073ffffffffffffffffffffffffffffffffffffffff168473ffffffffffffffffffffffffffffffffffffffff16141561083b576040517f08c379a000000000000000000000000000000000000000000000000000000000815260040161083290612008565b60405180910390fd5b600061084561077f565b9050610855818787878787610e90565b60005b8451811015610a0957600085828151811061087657610875611dcb565b5b60200260200101519050600085838151811061089557610894611dcb565b5b6020026020010151905060006065600084815260200190815260200160002060008b73ffffffffffffffffffffffffffffffffffffffff1673ffffffffffffffffffffffffffffffffffffffff16815260200190815260200160002054905081811015610937576040517f08c379a000000000000000000000000000000000000000000000000000000000815260040161092e9061209a565b60405180910390fd5b8181036065600085815260200190815260200160002060008c73ffffffffffffffffffffffffffffffffffffffff1673ffffffffffffffffffffffffffffffffffffffff16815260200190815260200160002081905550816065600085815260200190815260200160002060008b73ffffffffffffffffffffffffffffffffffffffff1673ffffffffffffffffffffffffffffffffffffffff16815260200190815260200160002060008282546109ee91906120ba565b9250508190555050505080610a0290611e29565b9050610858565b508473ffffffffffffffffffffffffffffffffffffffff168673ffffffffffffffffffffffffffffffffffffffff168273ffffffffffffffffffffffffffffffffffffffff167f4a39dc06d4c0dbc64b70af90fd698a233a518aa5d07e595d983b8c0526c8f7fb8787604051610a80929190612110565b60405180910390a4610a96818787878787610e98565b505050505050565b8173ffffffffffffffffffffffffffffffffffffffff168373ffffffffffffffffffffffffffffffffffffffff161415610b0d576040517f08c379a0000000000000000000000000000000000000000000000000000000008152600401610b04906121b9565b60405180910390fd5b80606660008573ffffffffffffffffffffffffffffffffffffffff1673ffffffffffffffffffffffffffffffffffffffff16815260200190815260200160002060008473ffffffffffffffffffffffffffffffffffffffff1673ffffffffffffffffffffffffffffffffffffffff16815260200190815260200160002060006101000a81548160ff0219169083151502179055508173ffffffffffffffffffffffffffffffffffffffff168373ffffffffffffffffffffffffffffffffffffffff167f17307eab39ab6107e8899845ad3d59bd9653f200f220920489ca2b5937696c3183604051610bfe9190611487565b60405180910390a3505050565b600073ffffffffffffffffffffffffffffffffffffffff168473ffffffffffffffffffffffffffffffffffffffff161415610c7b576040517f08c379a0000000000000000000000000000000000000000000000000000000008152600401610c7290612008565b60405180910390fd5b6000610c8561077f565b9050610ca5818787610c9688611070565b610c9f88611070565b87610e90565b60006065600086815260200190815260200160002060008873ffffffffffffffffffffffffffffffffffffffff1673ffffffffffffffffffffffffffffffffffffffff16815260200190815260200160002054905083811015610d3d576040517f08c379a0000000000000000000000000000000000000000000000000000000008152600401610d349061209a565b60405180910390fd5b8381036065600087815260200190815260200160002060008973ffffffffffffffffffffffffffffffffffffffff1673ffffffffffffffffffffffffffffffffffffffff16815260200190815260200160002081905550836065600087815260200190815260200160002060008873ffffffffffffffffffffffffffffffffffffffff1673ffffffffffffffffffffffffffffffffffffffff1681526020019081526020016000206000828254610df491906120ba565b925050819055508573ffffffffffffffffffffffffffffffffffffffff168773ffffffffffffffffffffffffffffffffffffffff168373ffffffffffffffffffffffffffffffffffffffff167fc3d58168c5ae7397731d063d5bbf3d657854427343f4c083240f7aacaa2d0f628888604051610e719291906121d9565b60405180910390a4610e878288888888886110ea565b50505050505050565b505050505050565b610eb78473ffffffffffffffffffffffffffffffffffffffff166112c2565b15611068578373ffffffffffffffffffffffffffffffffffffffff1663bc197c8187878686866040518663ffffffff1660e01b8152600401610efd959493929190612266565b6020604051808303816000875af1925050508015610f3957506040513d601f19601f82011682018060405250810190610f3691906122e3565b60015b610fdf57610f4561231d565b806308c379a01415610fa25750610f5a61233f565b80610f655750610fa4565b806040517f08c379a0000000000000000000000000000000000000000000000000000000008152600401610f999190611568565b60405180910390fd5b505b6040517f08c379a0000000000000000000000000000000000000000000000000000000008152600401610fd690612447565b60405180910390fd5b63bc197c8160e01b7bffffffffffffffffffffffffffffffffffffffffffffffffffffffff1916817bffffffffffffffffffffffffffffffffffffffffffffffffffffffff191614611066576040517f08c379a000000000000000000000000000000000000000000000000000000000815260040161105d906124d9565b60405180910390fd5b505b505050505050565b60606000600167ffffffffffffffff81111561108f5761108e61158f565b5b6040519080825280602002602001820160405280156110bd5781602001602082028036833780820191505090505b50905082816000815181106110d5576110d4611dcb565b5b60200260200101818152505080915050919050565b6111098473ffffffffffffffffffffffffffffffffffffffff166112c2565b156112ba578373ffffffffffffffffffffffffffffffffffffffff1663f23a6e6187878686866040518663ffffffff1660e01b815260040161114f9594939291906124f9565b6020604051808303816000875af192505050801561118b57506040513d601f19601f8201168201806040525081019061118891906122e3565b60015b6112315761119761231d565b806308c379a014156111f457506111ac61233f565b806111b757506111f6565b806040517f08c379a00000000000000000000000000000000000000000000000000000000081526004016111eb9190611568565b60405180910390fd5b505b6040517f08c379a000000000000000000000000000000000000000000000000000000000815260040161122890612447565b60405180910390fd5b63f23a6e6160e01b7bffffffffffffffffffffffffffffffffffffffffffffffffffffffff1916817bffffffffffffffffffffffffffffffffffffffffffffffffffffffff1916146112b8576040517f08c379a00000000000000000000000000000000000000000000000000000000081526004016112af906124d9565b60405180910390fd5b505b505050505050565b600080823b905060008111915050919050565b6000604051905090565b600080fd5b600080fd5b600073ffffffffffffffffffffffffffffffffffffffff82169050919050565b6000611314826112e9565b9050919050565b61132481611309565b811461132f57600080fd5b50565b6000813590506113418161131b565b92915050565b6000819050919050565b61135a81611347565b811461136557600080fd5b50565b60008135905061137781611351565b92915050565b60008060408385031215611394576113936112df565b5b60006113a285828601611332565b92505060206113b385828601611368565b9150509250929050565b6113c681611347565b82525050565b60006020820190506113e160008301846113bd565b92915050565b60007fffffffff0000000000000000000000000000000000000000000000000000000082169050919050565b61141c816113e7565b811461142757600080fd5b50565b60008135905061143981611413565b92915050565b600060208284031215611455576114546112df565b5b60006114638482850161142a565b91505092915050565b60008115159050919050565b6114818161146c565b82525050565b600060208201905061149c6000830184611478565b92915050565b6000602082840312156114b8576114b76112df565b5b60006114c684828501611368565b91505092915050565b600081519050919050565b600082825260208201905092915050565b60005b838110156115095780820151818401526020810190506114ee565b83811115611518576000848401525b50505050565b6000601f19601f8301169050919050565b600061153a826114cf565b61154481856114da565b93506115548185602086016114eb565b61155d8161151e565b840191505092915050565b60006020820190508181036000830152611582818461152f565b905092915050565b600080fd5b7f4e487b7100000000000000000000000000000000000000000000000000000000600052604160045260246000fd5b6115c78261151e565b810181811067ffffffffffffffff821117156115e6576115e561158f565b5b80604052505050565b60006115f96112d5565b905061160582826115be565b919050565b600067ffffffffffffffff8211156116255761162461158f565b5b602082029050602081019050919050565b600080fd5b600061164e6116498461160a565b6115ef565b9050808382526020820190506020840283018581111561167157611670611636565b5b835b8181101561169a57806116868882611368565b845260208401935050602081019050611673565b5050509392505050565b600082601f8301126116b9576116b861158a565b5b81356116c984826020860161163b565b91505092915050565b600080fd5b600067ffffffffffffffff8211156116f2576116f161158f565b5b6116fb8261151e565b9050602081019050919050565b82818337600083830152505050565b600061172a611725846116d7565b6115ef565b905082815260208101848484011115611746576117456116d2565b5b611751848285611708565b509392505050565b600082601f83011261176e5761176d61158a565b5b813561177e848260208601611717565b91505092915050565b600080600080600060a086880312156117a3576117a26112df565b5b60006117b188828901611332565b95505060206117c288828901611332565b945050604086013567ffffffffffffffff8111156117e3576117e26112e4565b5b6117ef888289016116a4565b935050606086013567ffffffffffffffff8111156118105761180f6112e4565b5b61181c888289016116a4565b925050608086013567ffffffffffffffff81111561183d5761183c6112e4565b5b61184988828901611759565b9150509295509295909350565b600067ffffffffffffffff8211156118715761187061158f565b5b602082029050602081019050919050565b600061189561189084611856565b6115ef565b905080838252602082019050602084028301858111156118b8576118b7611636565b5b835b818110156118e157806118cd8882611332565b8452602084019350506020810190506118ba565b5050509392505050565b600082601f830112611900576118ff61158a565b5b8135611910848260208601611882565b91505092915050565b600080604083850312156119305761192f6112df565b5b600083013567ffffffffffffffff81111561194e5761194d6112e4565b5b61195a858286016118eb565b925050602083013567ffffffffffffffff81111561197b5761197a6112e4565b5b611987858286016116a4565b9150509250929050565b600081519050919050565b600082825260208201905092915050565b6000819050602082019050919050565b6119c681611347565b82525050565b60006119d883836119bd565b60208301905092915050565b6000602082019050919050565b60006119fc82611991565b611a06818561199c565b9350611a11836119ad565b8060005b83811015611a42578151611a2988826119cc565b9750611a34836119e4565b925050600181019050611a15565b5085935050505092915050565b60006020820190508181036000830152611a6981846119f1565b905092915050565b611a7a8161146c565b8114611a8557600080fd5b50565b600081359050611a9781611a71565b92915050565b60008060408385031215611ab457611ab36112df565b5b6000611ac285828601611332565b9250506020611ad385828601611a88565b9150509250929050565b60008060408385031215611af457611af36112df565b5b6000611b0285828601611332565b9250506020611b1385828601611332565b9150509250929050565b600080600080600060a08688031215611b3957611b386112df565b5b6000611b4788828901611332565b9550506020611b5888828901611332565b9450506040611b6988828901611368565b9350506060611b7a88828901611368565b925050608086013567ffffffffffffffff811115611b9b57611b9a6112e4565b5b611ba788828901611759565b9150509295509295909350565b7f455243313135353a2062616c616e636520717565727920666f7220746865207a60008201527f65726f2061646472657373000000000000000000000000000000000000000000602082015250565b6000611c10602b836114da565b9150611c1b82611bb4565b604082019050919050565b60006020820190508181036000830152611c3f81611c03565b9050919050565b7f4e487b7100000000000000000000000000000000000000000000000000000000600052602260045260246000fd5b60006002820490506001821680611c8d57607f821691505b60208210811415611ca157611ca0611c46565b5b50919050565b7f455243313135353a207472616e736665722063616c6c6572206973206e6f742060008201527f6f776e6572206e6f7220617070726f7665640000000000000000000000000000602082015250565b6000611d036032836114da565b9150611d0e82611ca7565b604082019050919050565b60006020820190508181036000830152611d3281611cf6565b9050919050565b7f455243313135353a206163636f756e747320616e6420696473206c656e67746860008201527f206d69736d617463680000000000000000000000000000000000000000000000602082015250565b6000611d956029836114da565b9150611da082611d39565b604082019050919050565b60006020820190508181036000830152611dc481611d88565b9050919050565b7f4e487b7100000000000000000000000000000000000000000000000000000000600052603260045260246000fd5b7f4e487b7100000000000000000000000000000000000000000000000000000000600052601160045260246000fd5b6000611e3482611347565b91507fffffffffffffffffffffffffffffffffffffffffffffffffffffffffffffffff821415611e6757611e66611dfa565b5b600182019050919050565b7f455243313135353a2063616c6c6572206973206e6f74206f776e6572206e6f7260008201527f20617070726f7665640000000000000000000000000000000000000000000000602082015250565b6000611ece6029836114da565b9150611ed982611e72565b604082019050919050565b60006020820190508181036000830152611efd81611ec1565b9050919050565b7f455243313135353a2069647320616e6420616d6f756e7473206c656e6774682060008201527f6d69736d61746368000000000000000000000000000000000000000000000000602082015250565b6000611f606028836114da565b9150611f6b82611f04565b604082019050919050565b60006020820190508181036000830152611f8f81611f53565b9050919050565b7f455243313135353a207472616e7366657220746f20746865207a65726f20616460008201527f6472657373000000000000000000000000000000000000000000000000000000602082015250565b6000611ff26025836114da565b9150611ffd82611f96565b604082019050919050565b6000602082019050818103600083015261202181611fe5565b9050919050565b7f455243313135353a20696e73756666696369656e742062616c616e636520666f60008201527f72207472616e7366657200000000000000000000000000000000000000000000602082015250565b6000612084602a836114da565b915061208f82612028565b604082019050919050565b600060208201905081810360008301526120b381612077565b9050919050565b60006120c582611347565b91506120d083611347565b9250827fffffffffffffffffffffffffffffffffffffffffffffffffffffffffffffffff0382111561210557612104611dfa565b5b828201905092915050565b6000604082019050818103600083015261212a81856119f1565b9050818103602083015261213e81846119f1565b90509392505050565b7f455243313135353a2073657474696e6720617070726f76616c2073746174757360008201527f20666f722073656c660000000000000000000000000000000000000000000000602082015250565b60006121a36029836114da565b91506121ae82612147565b604082019050919050565b600060208201905081810360008301526121d281612196565b9050919050565b60006040820190506121ee60008301856113bd565b6121fb60208301846113bd565b9392505050565b61220b81611309565b82525050565b600081519050919050565b600082825260208201905092915050565b600061223882612211565b612242818561221c565b93506122528185602086016114eb565b61225b8161151e565b840191505092915050565b600060a08201905061227b6000830188612202565b6122886020830187612202565b818103604083015261229a81866119f1565b905081810360608301526122ae81856119f1565b905081810360808301526122c2818461222d565b90509695505050505050565b6000815190506122dd81611413565b92915050565b6000602082840312156122f9576122f86112df565b5b6000612307848285016122ce565b91505092915050565b60008160e01c9050919050565b600060033d111561233c5760046000803e612339600051612310565b90505b90565b600060443d101561234f576123d2565b6123576112d5565b60043d036004823e80513d602482011167ffffffffffffffff8211171561237f5750506123d2565b808201805167ffffffffffffffff81111561239d57505050506123d2565b80602083010160043d0385018111156123ba5750505050506123d2565b6123c9826020018501866115be565b82955050505050505b90565b7f455243313135353a207472616e7366657220746f206e6f6e204552433131353560008201527f526563656976657220696d706c656d656e746572000000000000000000000000602082015250565b60006124316034836114da565b915061243c826123d5565b604082019050919050565b6000602082019050818103600083015261246081612424565b9050919050565b7f455243313135353a204552433131353552656365697665722072656a6563746560008201527f6420746f6b656e73000000000000000000000000000000000000000000000000602082015250565b60006124c36028836114da565b91506124ce82612467565b604082019050919050565b600060208201905081810360008301526124f2816124b6565b9050919050565b600060a08201905061250e6000830188612202565b61251b6020830187612202565b61252860408301866113bd565b61253560608301856113bd565b8181036080830152612547818461222d565b9050969550505050505056fea26469706673582212200f37ebf5aa4e8c9a665064b63cb3d0f524f395f2b7e44e41dbaa9a52fe50ece464736f6c634300080c0033",
  "immutableReferences": {},
  "source": "// SPDX-License-Identifier: MIT\n// OpenZeppelin Contracts v4.4.1 (token/ERC1155/ERC1155.sol)\n\npragma solidity ^0.8.0;\n\nimport \"./IERC1155Upgradeable.sol\";\nimport \"./IERC1155ReceiverUpgradeable.sol\";\nimport \"./extensions/IERC1155MetadataURIUpgradeable.sol\";\nimport \"../../utils/AddressUpgradeable.sol\";\nimport \"../../utils/ContextUpgradeable.sol\";\nimport \"../../utils/introspection/ERC165Upgradeable.sol\";\nimport \"../../proxy/utils/Initializable.sol\";\n\n/**\n * @dev Implementation of the basic standard multi-token.\n * See https://eips.ethereum.org/EIPS/eip-1155\n * Originally based on code by Enjin: https://github.com/enjin/erc-1155\n *\n * _Available since v3.1._\n */\ncontract ERC1155Upgradeable is Initializable, ContextUpgradeable, ERC165Upgradeable, IERC1155Upgradeable, IERC1155MetadataURIUpgradeable {\n    using AddressUpgradeable for address;\n\n    // Mapping from token ID to account balances\n    mapping(uint256 => mapping(address => uint256)) private _balances;\n\n    // Mapping from account to operator approvals\n    mapping(address => mapping(address => bool)) private _operatorApprovals;\n\n    // Used as the URI for all token types by relying on ID substitution, e.g. https://token-cdn-domain/{id}.json\n    string private _uri;\n\n    /**\n     * @dev See {_setURI}.\n     */\n    function __ERC1155_init(string memory uri_) internal onlyInitializing {\n        __Context_init_unchained();\n        __ERC165_init_unchained();\n        __ERC1155_init_unchained(uri_);\n    }\n\n    function __ERC1155_init_unchained(string memory uri_) internal onlyInitializing {\n        _setURI(uri_);\n    }\n\n    /**\n     * @dev See {IERC165-supportsInterface}.\n     */\n    function supportsInterface(bytes4 interfaceId) public view virtual override(ERC165Upgradeable, IERC165Upgradeable) returns (bool) {\n        return\n            interfaceId == type(IERC1155Upgradeable).interfaceId ||\n            interfaceId == type(IERC1155MetadataURIUpgradeable).interfaceId ||\n            super.supportsInterface(interfaceId);\n    }\n\n    /**\n     * @dev See {IERC1155MetadataURI-uri}.\n     *\n     * This implementation returns the same URI for *all* token types. It relies\n     * on the token type ID substitution mechanism\n     * https://eips.ethereum.org/EIPS/eip-1155#metadata[defined in the EIP].\n     *\n     * Clients calling this function must replace the `\\{id\\}` substring with the\n     * actual token type ID.\n     */\n    function uri(uint256) public view virtual override returns (string memory) {\n        return _uri;\n    }\n\n    /**\n     * @dev See {IERC1155-balanceOf}.\n     *\n     * Requirements:\n     *\n     * - `account` cannot be the zero address.\n     */\n    function balanceOf(address account, uint256 id) public view virtual override returns (uint256) {\n        require(account != address(0), \"ERC1155: balance query for the zero address\");\n        return _balances[id][account];\n    }\n\n    /**\n     * @dev See {IERC1155-balanceOfBatch}.\n     *\n     * Requirements:\n     *\n     * - `accounts` and `ids` must have the same length.\n     */\n    function balanceOfBatch(address[] memory accounts, uint256[] memory ids)\n        public\n        view\n        virtual\n        override\n        returns (uint256[] memory)\n    {\n        require(accounts.length == ids.length, \"ERC1155: accounts and ids length mismatch\");\n\n        uint256[] memory batchBalances = new uint256[](accounts.length);\n\n        for (uint256 i = 0; i < accounts.length; ++i) {\n            batchBalances[i] = balanceOf(accounts[i], ids[i]);\n        }\n\n        return batchBalances;\n    }\n\n    /**\n     * @dev See {IERC1155-setApprovalForAll}.\n     */\n    function setApprovalForAll(address operator, bool approved) public virtual override {\n        _setApprovalForAll(_msgSender(), operator, approved);\n    }\n\n    /**\n     * @dev See {IERC1155-isApprovedForAll}.\n     */\n    function isApprovedForAll(address account, address operator) public view virtual override returns (bool) {\n        return _operatorApprovals[account][operator];\n    }\n\n    /**\n     * @dev See {IERC1155-safeTransferFrom}.\n     */\n    function safeTransferFrom(\n        address from,\n        address to,\n        uint256 id,\n        uint256 amount,\n        bytes memory data\n    ) public virtual override {\n        require(\n            from == _msgSender() || isApprovedForAll(from, _msgSender()),\n            \"ERC1155: caller is not owner nor approved\"\n        );\n        _safeTransferFrom(from, to, id, amount, data);\n    }\n\n    /**\n     * @dev See {IERC1155-safeBatchTransferFrom}.\n     */\n    function safeBatchTransferFrom(\n        address from,\n        address to,\n        uint256[] memory ids,\n        uint256[] memory amounts,\n        bytes memory data\n    ) public virtual override {\n        require(\n            from == _msgSender() || isApprovedForAll(from, _msgSender()),\n            \"ERC1155: transfer caller is not owner nor approved\"\n        );\n        _safeBatchTransferFrom(from, to, ids, amounts, data);\n    }\n\n    /**\n     * @dev Transfers `amount` tokens of token type `id` from `from` to `to`.\n     *\n     * Emits a {TransferSingle} event.\n     *\n     * Requirements:\n     *\n     * - `to` cannot be the zero address.\n     * - `from` must have a balance of tokens of type `id` of at least `amount`.\n     * - If `to` refers to a smart contract, it must implement {IERC1155Receiver-onERC1155Received} and return the\n     * acceptance magic value.\n     */\n    function _safeTransferFrom(\n        address from,\n        address to,\n        uint256 id,\n        uint256 amount,\n        bytes memory data\n    ) internal virtual {\n        require(to != address(0), \"ERC1155: transfer to the zero address\");\n\n        address operator = _msgSender();\n\n        _beforeTokenTransfer(operator, from, to, _asSingletonArray(id), _asSingletonArray(amount), data);\n\n        uint256 fromBalance = _balances[id][from];\n        require(fromBalance >= amount, \"ERC1155: insufficient balance for transfer\");\n        unchecked {\n            _balances[id][from] = fromBalance - amount;\n        }\n        _balances[id][to] += amount;\n\n        emit TransferSingle(operator, from, to, id, amount);\n\n        _doSafeTransferAcceptanceCheck(operator, from, to, id, amount, data);\n    }\n\n    /**\n     * @dev xref:ROOT:erc1155.adoc#batch-operations[Batched] version of {_safeTransferFrom}.\n     *\n     * Emits a {TransferBatch} event.\n     *\n     * Requirements:\n     *\n     * - If `to` refers to a smart contract, it must implement {IERC1155Receiver-onERC1155BatchReceived} and return the\n     * acceptance magic value.\n     */\n    function _safeBatchTransferFrom(\n        address from,\n        address to,\n        uint256[] memory ids,\n        uint256[] memory amounts,\n        bytes memory data\n    ) internal virtual {\n        require(ids.length == amounts.length, \"ERC1155: ids and amounts length mismatch\");\n        require(to != address(0), \"ERC1155: transfer to the zero address\");\n\n        address operator = _msgSender();\n\n        _beforeTokenTransfer(operator, from, to, ids, amounts, data);\n\n        for (uint256 i = 0; i < ids.length; ++i) {\n            uint256 id = ids[i];\n            uint256 amount = amounts[i];\n\n            uint256 fromBalance = _balances[id][from];\n            require(fromBalance >= amount, \"ERC1155: insufficient balance for transfer\");\n            unchecked {\n                _balances[id][from] = fromBalance - amount;\n            }\n            _balances[id][to] += amount;\n        }\n\n        emit TransferBatch(operator, from, to, ids, amounts);\n\n        _doSafeBatchTransferAcceptanceCheck(operator, from, to, ids, amounts, data);\n    }\n\n    /**\n     * @dev Sets a new URI for all token types, by relying on the token type ID\n     * substitution mechanism\n     * https://eips.ethereum.org/EIPS/eip-1155#metadata[defined in the EIP].\n     *\n     * By this mechanism, any occurrence of the `\\{id\\}` substring in either the\n     * URI or any of the amounts in the JSON file at said URI will be replaced by\n     * clients with the token type ID.\n     *\n     * For example, the `https://token-cdn-domain/\\{id\\}.json` URI would be\n     * interpreted by clients as\n     * `https://token-cdn-domain/000000000000000000000000000000000000000000000000000000000004cce0.json`\n     * for token type ID 0x4cce0.\n     *\n     * See {uri}.\n     *\n     * Because these URIs cannot be meaningfully represented by the {URI} event,\n     * this function emits no events.\n     */\n    function _setURI(string memory newuri) internal virtual {\n        _uri = newuri;\n    }\n\n    /**\n     * @dev Creates `amount` tokens of token type `id`, and assigns them to `to`.\n     *\n     * Emits a {TransferSingle} event.\n     *\n     * Requirements:\n     *\n     * - `to` cannot be the zero address.\n     * - If `to` refers to a smart contract, it must implement {IERC1155Receiver-onERC1155Received} and return the\n     * acceptance magic value.\n     */\n    function _mint(\n        address to,\n        uint256 id,\n        uint256 amount,\n        bytes memory data\n    ) internal virtual {\n        require(to != address(0), \"ERC1155: mint to the zero address\");\n\n        address operator = _msgSender();\n\n        _beforeTokenTransfer(operator, address(0), to, _asSingletonArray(id), _asSingletonArray(amount), data);\n\n        _balances[id][to] += amount;\n        emit TransferSingle(operator, address(0), to, id, amount);\n\n        _doSafeTransferAcceptanceCheck(operator, address(0), to, id, amount, data);\n    }\n\n    /**\n     * @dev xref:ROOT:erc1155.adoc#batch-operations[Batched] version of {_mint}.\n     *\n     * Requirements:\n     *\n     * - `ids` and `amounts` must have the same length.\n     * - If `to` refers to a smart contract, it must implement {IERC1155Receiver-onERC1155BatchReceived} and return the\n     * acceptance magic value.\n     */\n    function _mintBatch(\n        address to,\n        uint256[] memory ids,\n        uint256[] memory amounts,\n        bytes memory data\n    ) internal virtual {\n        require(to != address(0), \"ERC1155: mint to the zero address\");\n        require(ids.length == amounts.length, \"ERC1155: ids and amounts length mismatch\");\n\n        address operator = _msgSender();\n\n        _beforeTokenTransfer(operator, address(0), to, ids, amounts, data);\n\n        for (uint256 i = 0; i < ids.length; i++) {\n            _balances[ids[i]][to] += amounts[i];\n        }\n\n        emit TransferBatch(operator, address(0), to, ids, amounts);\n\n        _doSafeBatchTransferAcceptanceCheck(operator, address(0), to, ids, amounts, data);\n    }\n\n    /**\n     * @dev Destroys `amount` tokens of token type `id` from `from`\n     *\n     * Requirements:\n     *\n     * - `from` cannot be the zero address.\n     * - `from` must have at least `amount` tokens of token type `id`.\n     */\n    function _burn(\n        address from,\n        uint256 id,\n        uint256 amount\n    ) internal virtual {\n        require(from != address(0), \"ERC1155: burn from the zero address\");\n\n        address operator = _msgSender();\n\n        _beforeTokenTransfer(operator, from, address(0), _asSingletonArray(id), _asSingletonArray(amount), \"\");\n\n        uint256 fromBalance = _balances[id][from];\n        require(fromBalance >= amount, \"ERC1155: burn amount exceeds balance\");\n        unchecked {\n            _balances[id][from] = fromBalance - amount;\n        }\n\n        emit TransferSingle(operator, from, address(0), id, amount);\n    }\n\n    /**\n     * @dev xref:ROOT:erc1155.adoc#batch-operations[Batched] version of {_burn}.\n     *\n     * Requirements:\n     *\n     * - `ids` and `amounts` must have the same length.\n     */\n    function _burnBatch(\n        address from,\n        uint256[] memory ids,\n        uint256[] memory amounts\n    ) internal virtual {\n        require(from != address(0), \"ERC1155: burn from the zero address\");\n        require(ids.length == amounts.length, \"ERC1155: ids and amounts length mismatch\");\n\n        address operator = _msgSender();\n\n        _beforeTokenTransfer(operator, from, address(0), ids, amounts, \"\");\n\n        for (uint256 i = 0; i < ids.length; i++) {\n            uint256 id = ids[i];\n            uint256 amount = amounts[i];\n\n            uint256 fromBalance = _balances[id][from];\n            require(fromBalance >= amount, \"ERC1155: burn amount exceeds balance\");\n            unchecked {\n                _balances[id][from] = fromBalance - amount;\n            }\n        }\n\n        emit TransferBatch(operator, from, address(0), ids, amounts);\n    }\n\n    /**\n     * @dev Approve `operator` to operate on all of `owner` tokens\n     *\n     * Emits a {ApprovalForAll} event.\n     */\n    function _setApprovalForAll(\n        address owner,\n        address operator,\n        bool approved\n    ) internal virtual {\n        require(owner != operator, \"ERC1155: setting approval status for self\");\n        _operatorApprovals[owner][operator] = approved;\n        emit ApprovalForAll(owner, operator, approved);\n    }\n\n    /**\n     * @dev Hook that is called before any token transfer. This includes minting\n     * and burning, as well as batched variants.\n     *\n     * The same hook is called on both single and batched variants. For single\n     * transfers, the length of the `id` and `amount` arrays will be 1.\n     *\n     * Calling conditions (for each `id` and `amount` pair):\n     *\n     * - When `from` and `to` are both non-zero, `amount` of ``from``'s tokens\n     * of token type `id` will be  transferred to `to`.\n     * - When `from` is zero, `amount` tokens of token type `id` will be minted\n     * for `to`.\n     * - when `to` is zero, `amount` of ``from``'s tokens of token type `id`\n     * will be burned.\n     * - `from` and `to` are never both zero.\n     * - `ids` and `amounts` have the same, non-zero length.\n     *\n     * To learn more about hooks, head to xref:ROOT:extending-contracts.adoc#using-hooks[Using Hooks].\n     */\n    function _beforeTokenTransfer(\n        address operator,\n        address from,\n        address to,\n        uint256[] memory ids,\n        uint256[] memory amounts,\n        bytes memory data\n    ) internal virtual {}\n\n    function _doSafeTransferAcceptanceCheck(\n        address operator,\n        address from,\n        address to,\n        uint256 id,\n        uint256 amount,\n        bytes memory data\n    ) private {\n        if (to.isContract()) {\n            try IERC1155ReceiverUpgradeable(to).onERC1155Received(operator, from, id, amount, data) returns (bytes4 response) {\n                if (response != IERC1155ReceiverUpgradeable.onERC1155Received.selector) {\n                    revert(\"ERC1155: ERC1155Receiver rejected tokens\");\n                }\n            } catch Error(string memory reason) {\n                revert(reason);\n            } catch {\n                revert(\"ERC1155: transfer to non ERC1155Receiver implementer\");\n            }\n        }\n    }\n\n    function _doSafeBatchTransferAcceptanceCheck(\n        address operator,\n        address from,\n        address to,\n        uint256[] memory ids,\n        uint256[] memory amounts,\n        bytes memory data\n    ) private {\n        if (to.isContract()) {\n            try IERC1155ReceiverUpgradeable(to).onERC1155BatchReceived(operator, from, ids, amounts, data) returns (\n                bytes4 response\n            ) {\n                if (response != IERC1155ReceiverUpgradeable.onERC1155BatchReceived.selector) {\n                    revert(\"ERC1155: ERC1155Receiver rejected tokens\");\n                }\n            } catch Error(string memory reason) {\n                revert(reason);\n            } catch {\n                revert(\"ERC1155: transfer to non ERC1155Receiver implementer\");\n            }\n        }\n    }\n\n    function _asSingletonArray(uint256 element) private pure returns (uint256[] memory) {\n        uint256[] memory array = new uint256[](1);\n        array[0] = element;\n\n        return array;\n    }\n    uint256[47] private __gap;\n}\n",
  "sourcePath": "@openzeppelin\\contracts-upgradeable\\token\\ERC1155\\ERC1155Upgradeable.sol",
  "compiler": {
    "name": "solc",
    "version": "0.8.12+commit.f00d7308.Emscripten.clang"
  },
  "schemaVersion": "3.4.3",
  "updatedAt": "2022-02-24T19:05:35.544Z",
  "devdoc": {
    "details": "Implementation of the basic standard multi-token. See https://eips.ethereum.org/EIPS/eip-1155 Originally based on code by Enjin: https://github.com/enjin/erc-1155 _Available since v3.1._",
    "kind": "dev",
    "methods": {
      "balanceOf(address,uint256)": {
        "details": "See {IERC1155-balanceOf}. Requirements: - `account` cannot be the zero address."
      },
      "balanceOfBatch(address[],uint256[])": {
        "details": "See {IERC1155-balanceOfBatch}. Requirements: - `accounts` and `ids` must have the same length."
      },
      "isApprovedForAll(address,address)": {
        "details": "See {IERC1155-isApprovedForAll}."
      },
      "safeBatchTransferFrom(address,address,uint256[],uint256[],bytes)": {
        "details": "See {IERC1155-safeBatchTransferFrom}."
      },
      "safeTransferFrom(address,address,uint256,uint256,bytes)": {
        "details": "See {IERC1155-safeTransferFrom}."
      },
      "setApprovalForAll(address,bool)": {
        "details": "See {IERC1155-setApprovalForAll}."
      },
      "supportsInterface(bytes4)": {
        "details": "See {IERC165-supportsInterface}."
      },
      "uri(uint256)": {
        "details": "See {IERC1155MetadataURI-uri}. This implementation returns the same URI for *all* token types. It relies on the token type ID substitution mechanism https://eips.ethereum.org/EIPS/eip-1155#metadata[defined in the EIP]. Clients calling this function must replace the `\\{id\\}` substring with the actual token type ID."
      }
    },
    "version": 1
  },
  "userdoc": {
    "kind": "user",
    "methods": {},
    "version": 1
  }
}