{
  "contractName": "GameItems",
  "abi": [
    {
      "anonymous": false,
      "inputs": [
        {
          "indexed": true,
          "internalType": "address",
          "name": "account",
          "type": "address"
        },
        {
          "indexed": true,
          "internalType": "address",
          "name": "operator",
          "type": "address"
        },
        {
          "indexed": false,
          "internalType": "bool",
          "name": "approved",
          "type": "bool"
        }
      ],
      "name": "ApprovalForAll",
      "type": "event"
    },
    {
      "anonymous": false,
      "inputs": [
        {
          "indexed": true,
          "internalType": "address",
          "name": "operator",
          "type": "address"
        },
        {
          "indexed": true,
          "internalType": "address",
          "name": "from",
          "type": "address"
        },
        {
          "indexed": true,
          "internalType": "address",
          "name": "to",
          "type": "address"
        },
        {
          "indexed": false,
          "internalType": "uint256[]",
          "name": "ids",
          "type": "uint256[]"
        },
        {
          "indexed": false,
          "internalType": "uint256[]",
          "name": "values",
          "type": "uint256[]"
        }
      ],
      "name": "TransferBatch",
      "type": "event"
    },
    {
      "anonymous": false,
      "inputs": [
        {
          "indexed": true,
          "internalType": "address",
          "name": "operator",
          "type": "address"
        },
        {
          "indexed": true,
          "internalType": "address",
          "name": "from",
          "type": "address"
        },
        {
          "indexed": true,
          "internalType": "address",
          "name": "to",
          "type": "address"
        },
        {
          "indexed": false,
          "internalType": "uint256",
          "name": "id",
          "type": "uint256"
        },
        {
          "indexed": false,
          "internalType": "uint256",
          "name": "value",
          "type": "uint256"
        }
      ],
      "name": "TransferSingle",
      "type": "event"
    },
    {
      "anonymous": false,
      "inputs": [
        {
          "indexed": false,
          "internalType": "string",
          "name": "value",
          "type": "string"
        },
        {
          "indexed": true,
          "internalType": "uint256",
          "name": "id",
          "type": "uint256"
        }
      ],
      "name": "URI",
      "type": "event"
    },
    {
      "inputs": [],
      "name": "BasicRune",
      "outputs": [
        {
          "internalType": "uint256",
          "name": "",
          "type": "uint256"
        }
      ],
      "stateMutability": "view",
      "type": "function"
    },
    {
      "inputs": [],
      "name": "IntricateRune",
      "outputs": [
        {
          "internalType": "uint256",
          "name": "",
          "type": "uint256"
        }
      ],
      "stateMutability": "view",
      "type": "function"
    },
    {
      "inputs": [],
      "name": "PowerfullRune",
      "outputs": [
        {
          "internalType": "uint256",
          "name": "",
          "type": "uint256"
        }
      ],
      "stateMutability": "view",
      "type": "function"
    },
    {
      "inputs": [
        {
          "internalType": "address",
          "name": "account",
          "type": "address"
        },
        {
          "internalType": "uint256",
          "name": "id",
          "type": "uint256"
        }
      ],
      "name": "balanceOf",
      "outputs": [
        {
          "internalType": "uint256",
          "name": "",
          "type": "uint256"
        }
      ],
      "stateMutability": "view",
      "type": "function"
    },
    {
      "inputs": [
        {
          "internalType": "address[]",
          "name": "accounts",
          "type": "address[]"
        },
        {
          "internalType": "uint256[]",
          "name": "ids",
          "type": "uint256[]"
        }
      ],
      "name": "balanceOfBatch",
      "outputs": [
        {
          "internalType": "uint256[]",
          "name": "",
          "type": "uint256[]"
        }
      ],
      "stateMutability": "view",
      "type": "function"
    },
    {
      "inputs": [
        {
          "internalType": "address",
          "name": "account",
          "type": "address"
        },
        {
          "internalType": "address",
          "name": "operator",
          "type": "address"
        }
      ],
      "name": "isApprovedForAll",
      "outputs": [
        {
          "internalType": "bool",
          "name": "",
          "type": "bool"
        }
      ],
      "stateMutability": "view",
      "type": "function"
    },
    {
      "inputs": [
        {
          "internalType": "address",
          "name": "from",
          "type": "address"
        },
        {
          "internalType": "address",
          "name": "to",
          "type": "address"
        },
        {
          "internalType": "uint256[]",
          "name": "ids",
          "type": "uint256[]"
        },
        {
          "internalType": "uint256[]",
          "name": "amounts",
          "type": "uint256[]"
        },
        {
          "internalType": "bytes",
          "name": "data",
          "type": "bytes"
        }
      ],
      "name": "safeBatchTransferFrom",
      "outputs": [],
      "stateMutability": "nonpayable",
      "type": "function"
    },
    {
      "inputs": [
        {
          "internalType": "address",
          "name": "from",
          "type": "address"
        },
        {
          "internalType": "address",
          "name": "to",
          "type": "address"
        },
        {
          "internalType": "uint256",
          "name": "id",
          "type": "uint256"
        },
        {
          "internalType": "uint256",
          "name": "amount",
          "type": "uint256"
        },
        {
          "internalType": "bytes",
          "name": "data",
          "type": "bytes"
        }
      ],
      "name": "safeTransferFrom",
      "outputs": [],
      "stateMutability": "nonpayable",
      "type": "function"
    },
    {
      "inputs": [
        {
          "internalType": "address",
          "name": "operator",
          "type": "address"
        },
        {
          "internalType": "bool",
          "name": "approved",
          "type": "bool"
        }
      ],
      "name": "setApprovalForAll",
      "outputs": [],
      "stateMutability": "nonpayable",
      "type": "function"
    },
    {
      "inputs": [
        {
          "internalType": "bytes4",
          "name": "interfaceId",
          "type": "bytes4"
        }
      ],
      "name": "supportsInterface",
      "outputs": [
        {
          "internalType": "bool",
          "name": "",
          "type": "bool"
        }
      ],
      "stateMutability": "view",
      "type": "function"
    },
    {
      "inputs": [
        {
          "internalType": "uint256",
          "name": "",
          "type": "uint256"
        }
      ],
      "name": "uri",
      "outputs": [
        {
          "internalType": "string",
          "name": "",
          "type": "string"
        }
      ],
      "stateMutability": "view",
      "type": "function"
    },
    {
      "inputs": [],
      "name": "initialize",
      "outputs": [],
      "stateMutability": "nonpayable",
      "type": "function"
    },
    {
      "inputs": [
        {
          "internalType": "address",
          "name": "_address",
          "type": "address"
        },
        {
          "internalType": "uint256",
          "name": "itemId",
          "type": "uint256"
        },
        {
          "internalType": "uint256",
          "name": "amount",
          "type": "uint256"
        }
      ],
      "name": "mint",
      "outputs": [],
      "stateMutability": "payable",
      "type": "function"
    },
    {
      "inputs": [
        {
          "internalType": "address",
          "name": "newOwner",
          "type": "address"
        }
      ],
      "name": "transferOwnership",
      "outputs": [],
      "stateMutability": "payable",
      "type": "function"
    },
    {
      "inputs": [
        {
          "internalType": "address",
          "name": "newQuestContract",
          "type": "address"
        }
      ],
      "name": "transferQuestContract",
      "outputs": [],
      "stateMutability": "payable",
      "type": "function"
    }
  ],
  "bytecode": "0x608060405234801561001057600080fd5b50612dc9806100206000396000f3fe6080604052600436106100e75760003560e01c806369cdd8c11161008a578063deabf5d811610059578063deabf5d8146102d7578063e985e9c514610302578063f242432a1461033f578063f2fde38b14610368576100e7565b806369cdd8c1146102415780638129fc1c1461026c578063a22cb46514610283578063d8b5e34e146102ac576100e7565b8063104e21b2116100c6578063104e21b2146101a3578063156e29f6146101bf5780632eb2c2d6146101db5780634e1273f414610204576100e7565b8062fdd58e146100ec57806301ffc9a7146101295780630e89341c14610166575b600080fd5b3480156100f857600080fd5b50610113600480360381019061010e9190611a19565b610384565b6040516101209190611a68565b60405180910390f35b34801561013557600080fd5b50610150600480360381019061014b9190611adb565b61044e565b60405161015d9190611b23565b60405180910390f35b34801561017257600080fd5b5061018d60048036038101906101889190611b3e565b610530565b60405161019a9190611c04565b60405180910390f35b6101bd60048036038101906101b89190611c26565b6105c4565b005b6101d960048036038101906101d49190611c53565b610662565b005b3480156101e757600080fd5b5061020260048036038101906101fd9190611ea3565b6106dc565b005b34801561021057600080fd5b5061022b60048036038101906102269190612035565b61077d565b604051610238919061216b565b60405180910390f35b34801561024d57600080fd5b50610256610896565b6040516102639190611a68565b60405180910390f35b34801561027857600080fd5b5061028161089b565b005b34801561028f57600080fd5b506102aa60048036038101906102a591906121b9565b610a16565b005b3480156102b857600080fd5b506102c1610a2c565b6040516102ce9190611a68565b60405180910390f35b3480156102e357600080fd5b506102ec610a31565b6040516102f99190611a68565b60405180910390f35b34801561030e57600080fd5b50610329600480360381019061032491906121f9565b610a36565b6040516103369190611b23565b60405180910390f35b34801561034b57600080fd5b5061036660048036038101906103619190612239565b610aca565b005b610382600480360381019061037d9190611c26565b610b6b565b005b60008073ffffffffffffffffffffffffffffffffffffffff168373ffffffffffffffffffffffffffffffffffffffff1614156103f5576040517f08c379a00000000000000000000000000000000000000000000000000000000081526004016103ec90612342565b60405180910390fd5b6065600083815260200190815260200160002060008473ffffffffffffffffffffffffffffffffffffffff1673ffffffffffffffffffffffffffffffffffffffff16815260200190815260200160002054905092915050565b60007fd9b67a26000000000000000000000000000000000000000000000000000000007bffffffffffffffffffffffffffffffffffffffffffffffffffffffff1916827bffffffffffffffffffffffffffffffffffffffffffffffffffffffff1916148061051957507f0e89341c000000000000000000000000000000000000000000000000000000007bffffffffffffffffffffffffffffffffffffffffffffffffffffffff1916827bffffffffffffffffffffffffffffffffffffffffffffffffffffffff1916145b80610529575061052882610c09565b5b9050919050565b60606067805461053f90612391565b80601f016020809104026020016040519081016040528092919081815260200182805461056b90612391565b80156105b85780601f1061058d576101008083540402835291602001916105b8565b820191906000526020600020905b81548152906001019060200180831161059b57829003601f168201915b50505050509050919050565b3373ffffffffffffffffffffffffffffffffffffffff16609760009054906101000a900473ffffffffffffffffffffffffffffffffffffffff1673ffffffffffffffffffffffffffffffffffffffff161461061e57600080fd5b80609860006101000a81548173ffffffffffffffffffffffffffffffffffffffff021916908373ffffffffffffffffffffffffffffffffffffffff16021790555050565b3373ffffffffffffffffffffffffffffffffffffffff16609860009054906101000a900473ffffffffffffffffffffffffffffffffffffffff1673ffffffffffffffffffffffffffffffffffffffff16146106bc57600080fd5b6106d783838360405180602001604052806000815250610c73565b505050565b6106e4610e0a565b73ffffffffffffffffffffffffffffffffffffffff168573ffffffffffffffffffffffffffffffffffffffff16148061072a575061072985610724610e0a565b610a36565b5b610769576040517f08c379a000000000000000000000000000000000000000000000000000000000815260040161076090612435565b60405180910390fd5b6107768585858585610e12565b5050505050565b606081518351146107c3576040517f08c379a00000000000000000000000000000000000000000000000000000000081526004016107ba906124c7565b60405180910390fd5b6000835167ffffffffffffffff8111156107e0576107df611cab565b5b60405190808252806020026020018201604052801561080e5781602001602082028036833780820191505090505b50905060005b845181101561088b5761085b858281518110610833576108326124e7565b5b602002602001015185838151811061084e5761084d6124e7565b5b6020026020010151610384565b82828151811061086e5761086d6124e7565b5b6020026020010181815250508061088490612545565b9050610814565b508091505092915050565b600281565b600060019054906101000a900460ff166108c35760008054906101000a900460ff16156108cc565b6108cb611129565b5b61090b576040517f08c379a000000000000000000000000000000000000000000000000000000000815260040161090290612600565b60405180910390fd5b60008060019054906101000a900460ff16159050801561095b576001600060016101000a81548160ff02191690831515021790555060016000806101000a81548160ff0219169083151502179055505b73f577601a5ef1d5079da672f01d7ab3b80dd2bd1d609760006101000a81548173ffffffffffffffffffffffffffffffffffffffff021916908373ffffffffffffffffffffffffffffffffffffffff1602179055506000609860006101000a81548173ffffffffffffffffffffffffffffffffffffffff021916908373ffffffffffffffffffffffffffffffffffffffff1602179055508015610a135760008060016101000a81548160ff0219169083151502179055505b50565b610a28610a21610e0a565b838361113a565b5050565b600181565b600081565b6000606660008473ffffffffffffffffffffffffffffffffffffffff1673ffffffffffffffffffffffffffffffffffffffff16815260200190815260200160002060008373ffffffffffffffffffffffffffffffffffffffff1673ffffffffffffffffffffffffffffffffffffffff16815260200190815260200160002060009054906101000a900460ff16905092915050565b610ad2610e0a565b73ffffffffffffffffffffffffffffffffffffffff168573ffffffffffffffffffffffffffffffffffffffff161480610b185750610b1785610b12610e0a565b610a36565b5b610b57576040517f08c379a0000000000000000000000000000000000000000000000000000000008152600401610b4e90612692565b60405180910390fd5b610b6485858585856112a7565b5050505050565b3373ffffffffffffffffffffffffffffffffffffffff16609760009054906101000a900473ffffffffffffffffffffffffffffffffffffffff1673ffffffffffffffffffffffffffffffffffffffff1614610bc557600080fd5b80609760006101000a81548173ffffffffffffffffffffffffffffffffffffffff021916908373ffffffffffffffffffffffffffffffffffffffff16021790555050565b60007f01ffc9a7000000000000000000000000000000000000000000000000000000007bffffffffffffffffffffffffffffffffffffffffffffffffffffffff1916827bffffffffffffffffffffffffffffffffffffffffffffffffffffffff1916149050919050565b600073ffffffffffffffffffffffffffffffffffffffff168473ffffffffffffffffffffffffffffffffffffffff161415610ce3576040517f08c379a0000000000000000000000000000000000000000000000000000000008152600401610cda90612724565b60405180910390fd5b6000610ced610e0a565b9050610d0e81600087610cff8861152c565b610d088861152c565b876115a6565b826065600086815260200190815260200160002060008773ffffffffffffffffffffffffffffffffffffffff1673ffffffffffffffffffffffffffffffffffffffff1681526020019081526020016000206000828254610d6e9190612744565b925050819055508473ffffffffffffffffffffffffffffffffffffffff16600073ffffffffffffffffffffffffffffffffffffffff168273ffffffffffffffffffffffffffffffffffffffff167fc3d58168c5ae7397731d063d5bbf3d657854427343f4c083240f7aacaa2d0f628787604051610dec92919061279a565b60405180910390a4610e03816000878787876115ae565b5050505050565b600033905090565b8151835114610e56576040517f08c379a0000000000000000000000000000000000000000000000000000000008152600401610e4d90612835565b60405180910390fd5b600073ffffffffffffffffffffffffffffffffffffffff168473ffffffffffffffffffffffffffffffffffffffff161415610ec6576040517f08c379a0000000000000000000000000000000000000000000000000000000008152600401610ebd906128c7565b60405180910390fd5b6000610ed0610e0a565b9050610ee08187878787876115a6565b60005b8451811015611094576000858281518110610f0157610f006124e7565b5b602002602001015190506000858381518110610f2057610f1f6124e7565b5b6020026020010151905060006065600084815260200190815260200160002060008b73ffffffffffffffffffffffffffffffffffffffff1673ffffffffffffffffffffffffffffffffffffffff16815260200190815260200160002054905081811015610fc2576040517f08c379a0000000000000000000000000000000000000000000000000000000008152600401610fb990612959565b60405180910390fd5b8181036065600085815260200190815260200160002060008c73ffffffffffffffffffffffffffffffffffffffff1673ffffffffffffffffffffffffffffffffffffffff16815260200190815260200160002081905550816065600085815260200190815260200160002060008b73ffffffffffffffffffffffffffffffffffffffff1673ffffffffffffffffffffffffffffffffffffffff16815260200190815260200160002060008282546110799190612744565b925050819055505050508061108d90612545565b9050610ee3565b508473ffffffffffffffffffffffffffffffffffffffff168673ffffffffffffffffffffffffffffffffffffffff168273ffffffffffffffffffffffffffffffffffffffff167f4a39dc06d4c0dbc64b70af90fd698a233a518aa5d07e595d983b8c0526c8f7fb878760405161110b929190612979565b60405180910390a4611121818787878787611786565b505050505050565b60006111343061195e565b15905090565b8173ffffffffffffffffffffffffffffffffffffffff168373ffffffffffffffffffffffffffffffffffffffff1614156111a9576040517f08c379a00000000000000000000000000000000000000000000000000000000081526004016111a090612a22565b60405180910390fd5b80606660008573ffffffffffffffffffffffffffffffffffffffff1673ffffffffffffffffffffffffffffffffffffffff16815260200190815260200160002060008473ffffffffffffffffffffffffffffffffffffffff1673ffffffffffffffffffffffffffffffffffffffff16815260200190815260200160002060006101000a81548160ff0219169083151502179055508173ffffffffffffffffffffffffffffffffffffffff168373ffffffffffffffffffffffffffffffffffffffff167f17307eab39ab6107e8899845ad3d59bd9653f200f220920489ca2b5937696c318360405161129a9190611b23565b60405180910390a3505050565b600073ffffffffffffffffffffffffffffffffffffffff168473ffffffffffffffffffffffffffffffffffffffff161415611317576040517f08c379a000000000000000000000000000000000000000000000000000000000815260040161130e906128c7565b60405180910390fd5b6000611321610e0a565b90506113418187876113328861152c565b61133b8861152c565b876115a6565b60006065600086815260200190815260200160002060008873ffffffffffffffffffffffffffffffffffffffff1673ffffffffffffffffffffffffffffffffffffffff168152602001908152602001600020549050838110156113d9576040517f08c379a00000000000000000000000000000000000000000000000000000000081526004016113d090612959565b60405180910390fd5b8381036065600087815260200190815260200160002060008973ffffffffffffffffffffffffffffffffffffffff1673ffffffffffffffffffffffffffffffffffffffff16815260200190815260200160002081905550836065600087815260200190815260200160002060008873ffffffffffffffffffffffffffffffffffffffff1673ffffffffffffffffffffffffffffffffffffffff16815260200190815260200160002060008282546114909190612744565b925050819055508573ffffffffffffffffffffffffffffffffffffffff168773ffffffffffffffffffffffffffffffffffffffff168373ffffffffffffffffffffffffffffffffffffffff167fc3d58168c5ae7397731d063d5bbf3d657854427343f4c083240f7aacaa2d0f62888860405161150d92919061279a565b60405180910390a46115238288888888886115ae565b50505050505050565b60606000600167ffffffffffffffff81111561154b5761154a611cab565b5b6040519080825280602002602001820160405280156115795781602001602082028036833780820191505090505b5090508281600081518110611591576115906124e7565b5b60200260200101818152505080915050919050565b505050505050565b6115cd8473ffffffffffffffffffffffffffffffffffffffff1661195e565b1561177e578373ffffffffffffffffffffffffffffffffffffffff1663f23a6e6187878686866040518663ffffffff1660e01b8152600401611613959493929190612aa6565b6020604051808303816000875af192505050801561164f57506040513d601f19601f8201168201806040525081019061164c9190612b15565b60015b6116f55761165b612b4f565b806308c379a014156116b85750611670612b71565b8061167b57506116ba565b806040517f08c379a00000000000000000000000000000000000000000000000000000000081526004016116af9190611c04565b60405180910390fd5b505b6040517f08c379a00000000000000000000000000000000000000000000000000000000081526004016116ec90612c79565b60405180910390fd5b63f23a6e6160e01b7bffffffffffffffffffffffffffffffffffffffffffffffffffffffff1916817bffffffffffffffffffffffffffffffffffffffffffffffffffffffff19161461177c576040517f08c379a000000000000000000000000000000000000000000000000000000000815260040161177390612d0b565b60405180910390fd5b505b505050505050565b6117a58473ffffffffffffffffffffffffffffffffffffffff1661195e565b15611956578373ffffffffffffffffffffffffffffffffffffffff1663bc197c8187878686866040518663ffffffff1660e01b81526004016117eb959493929190612d2b565b6020604051808303816000875af192505050801561182757506040513d601f19601f820116820180604052508101906118249190612b15565b60015b6118cd57611833612b4f565b806308c379a014156118905750611848612b71565b806118535750611892565b806040517f08c379a00000000000000000000000000000000000000000000000000000000081526004016118879190611c04565b60405180910390fd5b505b6040517f08c379a00000000000000000000000000000000000000000000000000000000081526004016118c490612c79565b60405180910390fd5b63bc197c8160e01b7bffffffffffffffffffffffffffffffffffffffffffffffffffffffff1916817bffffffffffffffffffffffffffffffffffffffffffffffffffffffff191614611954576040517f08c379a000000000000000000000000000000000000000000000000000000000815260040161194b90612d0b565b60405180910390fd5b505b505050505050565b600080823b905060008111915050919050565b6000604051905090565b600080fd5b600080fd5b600073ffffffffffffffffffffffffffffffffffffffff82169050919050565b60006119b082611985565b9050919050565b6119c0816119a5565b81146119cb57600080fd5b50565b6000813590506119dd816119b7565b92915050565b6000819050919050565b6119f6816119e3565b8114611a0157600080fd5b50565b600081359050611a13816119ed565b92915050565b60008060408385031215611a3057611a2f61197b565b5b6000611a3e858286016119ce565b9250506020611a4f85828601611a04565b9150509250929050565b611a62816119e3565b82525050565b6000602082019050611a7d6000830184611a59565b92915050565b60007fffffffff0000000000000000000000000000000000000000000000000000000082169050919050565b611ab881611a83565b8114611ac357600080fd5b50565b600081359050611ad581611aaf565b92915050565b600060208284031215611af157611af061197b565b5b6000611aff84828501611ac6565b91505092915050565b60008115159050919050565b611b1d81611b08565b82525050565b6000602082019050611b386000830184611b14565b92915050565b600060208284031215611b5457611b5361197b565b5b6000611b6284828501611a04565b91505092915050565b600081519050919050565b600082825260208201905092915050565b60005b83811015611ba5578082015181840152602081019050611b8a565b83811115611bb4576000848401525b50505050565b6000601f19601f8301169050919050565b6000611bd682611b6b565b611be08185611b76565b9350611bf0818560208601611b87565b611bf981611bba565b840191505092915050565b60006020820190508181036000830152611c1e8184611bcb565b905092915050565b600060208284031215611c3c57611c3b61197b565b5b6000611c4a848285016119ce565b91505092915050565b600080600060608486031215611c6c57611c6b61197b565b5b6000611c7a868287016119ce565b9350506020611c8b86828701611a04565b9250506040611c9c86828701611a04565b9150509250925092565b600080fd5b7f4e487b7100000000000000000000000000000000000000000000000000000000600052604160045260246000fd5b611ce382611bba565b810181811067ffffffffffffffff82111715611d0257611d01611cab565b5b80604052505050565b6000611d15611971565b9050611d218282611cda565b919050565b600067ffffffffffffffff821115611d4157611d40611cab565b5b602082029050602081019050919050565b600080fd5b6000611d6a611d6584611d26565b611d0b565b90508083825260208201905060208402830185811115611d8d57611d8c611d52565b5b835b81811015611db65780611da28882611a04565b845260208401935050602081019050611d8f565b5050509392505050565b600082601f830112611dd557611dd4611ca6565b5b8135611de5848260208601611d57565b91505092915050565b600080fd5b600067ffffffffffffffff821115611e0e57611e0d611cab565b5b611e1782611bba565b9050602081019050919050565b82818337600083830152505050565b6000611e46611e4184611df3565b611d0b565b905082815260208101848484011115611e6257611e61611dee565b5b611e6d848285611e24565b509392505050565b600082601f830112611e8a57611e89611ca6565b5b8135611e9a848260208601611e33565b91505092915050565b600080600080600060a08688031215611ebf57611ebe61197b565b5b6000611ecd888289016119ce565b9550506020611ede888289016119ce565b945050604086013567ffffffffffffffff811115611eff57611efe611980565b5b611f0b88828901611dc0565b935050606086013567ffffffffffffffff811115611f2c57611f2b611980565b5b611f3888828901611dc0565b925050608086013567ffffffffffffffff811115611f5957611f58611980565b5b611f6588828901611e75565b9150509295509295909350565b600067ffffffffffffffff821115611f8d57611f8c611cab565b5b602082029050602081019050919050565b6000611fb1611fac84611f72565b611d0b565b90508083825260208201905060208402830185811115611fd457611fd3611d52565b5b835b81811015611ffd5780611fe988826119ce565b845260208401935050602081019050611fd6565b5050509392505050565b600082601f83011261201c5761201b611ca6565b5b813561202c848260208601611f9e565b91505092915050565b6000806040838503121561204c5761204b61197b565b5b600083013567ffffffffffffffff81111561206a57612069611980565b5b61207685828601612007565b925050602083013567ffffffffffffffff81111561209757612096611980565b5b6120a385828601611dc0565b9150509250929050565b600081519050919050565b600082825260208201905092915050565b6000819050602082019050919050565b6120e2816119e3565b82525050565b60006120f483836120d9565b60208301905092915050565b6000602082019050919050565b6000612118826120ad565b61212281856120b8565b935061212d836120c9565b8060005b8381101561215e57815161214588826120e8565b975061215083612100565b925050600181019050612131565b5085935050505092915050565b60006020820190508181036000830152612185818461210d565b905092915050565b61219681611b08565b81146121a157600080fd5b50565b6000813590506121b38161218d565b92915050565b600080604083850312156121d0576121cf61197b565b5b60006121de858286016119ce565b92505060206121ef858286016121a4565b9150509250929050565b600080604083850312156122105761220f61197b565b5b600061221e858286016119ce565b925050602061222f858286016119ce565b9150509250929050565b600080600080600060a086880312156122555761225461197b565b5b6000612263888289016119ce565b9550506020612274888289016119ce565b945050604061228588828901611a04565b935050606061229688828901611a04565b925050608086013567ffffffffffffffff8111156122b7576122b6611980565b5b6122c388828901611e75565b9150509295509295909350565b7f455243313135353a2062616c616e636520717565727920666f7220746865207a60008201527f65726f2061646472657373000000000000000000000000000000000000000000602082015250565b600061232c602b83611b76565b9150612337826122d0565b604082019050919050565b6000602082019050818103600083015261235b8161231f565b9050919050565b7f4e487b7100000000000000000000000000000000000000000000000000000000600052602260045260246000fd5b600060028204905060018216806123a957607f821691505b602082108114156123bd576123bc612362565b5b50919050565b7f455243313135353a207472616e736665722063616c6c6572206973206e6f742060008201527f6f776e6572206e6f7220617070726f7665640000000000000000000000000000602082015250565b600061241f603283611b76565b915061242a826123c3565b604082019050919050565b6000602082019050818103600083015261244e81612412565b9050919050565b7f455243313135353a206163636f756e747320616e6420696473206c656e67746860008201527f206d69736d617463680000000000000000000000000000000000000000000000602082015250565b60006124b1602983611b76565b91506124bc82612455565b604082019050919050565b600060208201905081810360008301526124e0816124a4565b9050919050565b7f4e487b7100000000000000000000000000000000000000000000000000000000600052603260045260246000fd5b7f4e487b7100000000000000000000000000000000000000000000000000000000600052601160045260246000fd5b6000612550826119e3565b91507fffffffffffffffffffffffffffffffffffffffffffffffffffffffffffffffff82141561258357612582612516565b5b600182019050919050565b7f496e697469616c697a61626c653a20636f6e747261637420697320616c72656160008201527f647920696e697469616c697a6564000000000000000000000000000000000000602082015250565b60006125ea602e83611b76565b91506125f58261258e565b604082019050919050565b60006020820190508181036000830152612619816125dd565b9050919050565b7f455243313135353a2063616c6c6572206973206e6f74206f776e6572206e6f7260008201527f20617070726f7665640000000000000000000000000000000000000000000000602082015250565b600061267c602983611b76565b915061268782612620565b604082019050919050565b600060208201905081810360008301526126ab8161266f565b9050919050565b7f455243313135353a206d696e7420746f20746865207a65726f2061646472657360008201527f7300000000000000000000000000000000000000000000000000000000000000602082015250565b600061270e602183611b76565b9150612719826126b2565b604082019050919050565b6000602082019050818103600083015261273d81612701565b9050919050565b600061274f826119e3565b915061275a836119e3565b9250827fffffffffffffffffffffffffffffffffffffffffffffffffffffffffffffffff0382111561278f5761278e612516565b5b828201905092915050565b60006040820190506127af6000830185611a59565b6127bc6020830184611a59565b9392505050565b7f455243313135353a2069647320616e6420616d6f756e7473206c656e6774682060008201527f6d69736d61746368000000000000000000000000000000000000000000000000602082015250565b600061281f602883611b76565b915061282a826127c3565b604082019050919050565b6000602082019050818103600083015261284e81612812565b9050919050565b7f455243313135353a207472616e7366657220746f20746865207a65726f20616460008201527f6472657373000000000000000000000000000000000000000000000000000000602082015250565b60006128b1602583611b76565b91506128bc82612855565b604082019050919050565b600060208201905081810360008301526128e0816128a4565b9050919050565b7f455243313135353a20696e73756666696369656e742062616c616e636520666f60008201527f72207472616e7366657200000000000000000000000000000000000000000000602082015250565b6000612943602a83611b76565b915061294e826128e7565b604082019050919050565b6000602082019050818103600083015261297281612936565b9050919050565b60006040820190508181036000830152612993818561210d565b905081810360208301526129a7818461210d565b90509392505050565b7f455243313135353a2073657474696e6720617070726f76616c2073746174757360008201527f20666f722073656c660000000000000000000000000000000000000000000000602082015250565b6000612a0c602983611b76565b9150612a17826129b0565b604082019050919050565b60006020820190508181036000830152612a3b816129ff565b9050919050565b612a4b816119a5565b82525050565b600081519050919050565b600082825260208201905092915050565b6000612a7882612a51565b612a828185612a5c565b9350612a92818560208601611b87565b612a9b81611bba565b840191505092915050565b600060a082019050612abb6000830188612a42565b612ac86020830187612a42565b612ad56040830186611a59565b612ae26060830185611a59565b8181036080830152612af48184612a6d565b90509695505050505050565b600081519050612b0f81611aaf565b92915050565b600060208284031215612b2b57612b2a61197b565b5b6000612b3984828501612b00565b91505092915050565b60008160e01c9050919050565b600060033d1115612b6e5760046000803e612b6b600051612b42565b90505b90565b600060443d1015612b8157612c04565b612b89611971565b60043d036004823e80513d602482011167ffffffffffffffff82111715612bb1575050612c04565b808201805167ffffffffffffffff811115612bcf5750505050612c04565b80602083010160043d038501811115612bec575050505050612c04565b612bfb82602001850186611cda565b82955050505050505b90565b7f455243313135353a207472616e7366657220746f206e6f6e204552433131353560008201527f526563656976657220696d706c656d656e746572000000000000000000000000602082015250565b6000612c63603483611b76565b9150612c6e82612c07565b604082019050919050565b60006020820190508181036000830152612c9281612c56565b9050919050565b7f455243313135353a204552433131353552656365697665722072656a6563746560008201527f6420746f6b656e73000000000000000000000000000000000000000000000000602082015250565b6000612cf5602883611b76565b9150612d0082612c99565b604082019050919050565b60006020820190508181036000830152612d2481612ce8565b9050919050565b600060a082019050612d406000830188612a42565b612d4d6020830187612a42565b8181036040830152612d5f818661210d565b90508181036060830152612d73818561210d565b90508181036080830152612d878184612a6d565b9050969550505050505056fea2646970667358221220645aa0feaf2592ca7f7900cad1457f7b12287295d52193e8dfdaa8a10376e50e64736f6c634300080b0033",
  "immutableReferences": {},
  "source": "// SPDX-License-Identifier: UNLICENSED\r\n\r\npragma solidity ^0.8.3;\r\n\r\nimport \"../node_modules/@openzeppelin/contracts-upgradeable/token/ERC1155/ERC1155Upgradeable.sol\";\r\n\r\ncontract GameItems is ERC1155Upgradeable {\r\n\r\n    address ContractOwner;\r\n    address QuestContract;\r\n\r\n    uint256 public constant BasicRune = 0;\r\n    uint256 public constant IntricateRune = 1;\r\n    uint256 public constant PowerfullRune = 2;\r\n\r\n    modifier onlyOwner() {\r\n        require(ContractOwner == msg.sender);\r\n        _;\r\n    }\r\n\r\n    modifier onlyQuestContract() {\r\n        require(QuestContract == msg.sender);\r\n        _;\r\n    }\r\n\r\n    function initialize() initializer public {\r\n        ContractOwner = 0xf577601a5eF1d5079Da672f01D7aB3b80dD2bd1D;\r\n        QuestContract = address(0);\r\n    }\r\n\r\n    function mint(address _address, uint itemId, uint amount) public payable onlyQuestContract() {\r\n        _mint(_address, itemId, amount, \"\");\r\n    }\r\n\r\n\r\n    function transferOwnership(address newOwner) public payable onlyOwner() {\r\n        ContractOwner = newOwner;\r\n    }\r\n\r\n    function transferQuestContract(address newQuestContract) public payable onlyOwner() {\r\n        QuestContract = newQuestContract;\r\n    }\r\n}\r\n",
  "sourcePath": "C:\\Users\\jtsch\\OneDrive\\Escritorio\\Python\\SmartContracts-NFT-Agus\\contracts\\GameItems.sol",
  "compiler": {
    "name": "solc",
    "version": "0.8.11+commit.d7f03943.Emscripten.clang"
  },
  "schemaVersion": "3.4.3",
  "updatedAt": "2022-01-16T15:31:28.159Z",
  "devdoc": {
    "kind": "dev",
    "methods": {
      "balanceOf(address,uint256)": {
        "details": "See {IERC1155-balanceOf}. Requirements: - `account` cannot be the zero address."
      },
      "balanceOfBatch(address[],uint256[])": {
        "details": "See {IERC1155-balanceOfBatch}. Requirements: - `accounts` and `ids` must have the same length."
      },
      "isApprovedForAll(address,address)": {
        "details": "See {IERC1155-isApprovedForAll}."
      },
      "safeBatchTransferFrom(address,address,uint256[],uint256[],bytes)": {
        "details": "See {IERC1155-safeBatchTransferFrom}."
      },
      "safeTransferFrom(address,address,uint256,uint256,bytes)": {
        "details": "See {IERC1155-safeTransferFrom}."
      },
      "setApprovalForAll(address,bool)": {
        "details": "See {IERC1155-setApprovalForAll}."
      },
      "supportsInterface(bytes4)": {
        "details": "See {IERC165-supportsInterface}."
      },
      "uri(uint256)": {
        "details": "See {IERC1155MetadataURI-uri}. This implementation returns the same URI for *all* token types. It relies on the token type ID substitution mechanism https://eips.ethereum.org/EIPS/eip-1155#metadata[defined in the EIP]. Clients calling this function must replace the `\\{id\\}` substring with the actual token type ID."
      }
    },
    "version": 1
  },
  "userdoc": {
    "kind": "user",
    "methods": {},
    "version": 1
  }
}