{
  "contractName": "GameItems",
  "abi": [
    {
      "anonymous": false,
      "inputs": [
        {
          "indexed": true,
          "internalType": "address",
          "name": "account",
          "type": "address"
        },
        {
          "indexed": true,
          "internalType": "address",
          "name": "operator",
          "type": "address"
        },
        {
          "indexed": false,
          "internalType": "bool",
          "name": "approved",
          "type": "bool"
        }
      ],
      "name": "ApprovalForAll",
      "type": "event"
    },
    {
      "anonymous": false,
      "inputs": [
        {
          "indexed": true,
          "internalType": "bytes32",
          "name": "role",
          "type": "bytes32"
        },
        {
          "indexed": true,
          "internalType": "bytes32",
          "name": "previousAdminRole",
          "type": "bytes32"
        },
        {
          "indexed": true,
          "internalType": "bytes32",
          "name": "newAdminRole",
          "type": "bytes32"
        }
      ],
      "name": "RoleAdminChanged",
      "type": "event"
    },
    {
      "anonymous": false,
      "inputs": [
        {
          "indexed": true,
          "internalType": "bytes32",
          "name": "role",
          "type": "bytes32"
        },
        {
          "indexed": true,
          "internalType": "address",
          "name": "account",
          "type": "address"
        },
        {
          "indexed": true,
          "internalType": "address",
          "name": "sender",
          "type": "address"
        }
      ],
      "name": "RoleGranted",
      "type": "event"
    },
    {
      "anonymous": false,
      "inputs": [
        {
          "indexed": true,
          "internalType": "bytes32",
          "name": "role",
          "type": "bytes32"
        },
        {
          "indexed": true,
          "internalType": "address",
          "name": "account",
          "type": "address"
        },
        {
          "indexed": true,
          "internalType": "address",
          "name": "sender",
          "type": "address"
        }
      ],
      "name": "RoleRevoked",
      "type": "event"
    },
    {
      "anonymous": false,
      "inputs": [
        {
          "indexed": true,
          "internalType": "address",
          "name": "operator",
          "type": "address"
        },
        {
          "indexed": true,
          "internalType": "address",
          "name": "from",
          "type": "address"
        },
        {
          "indexed": true,
          "internalType": "address",
          "name": "to",
          "type": "address"
        },
        {
          "indexed": false,
          "internalType": "uint256[]",
          "name": "ids",
          "type": "uint256[]"
        },
        {
          "indexed": false,
          "internalType": "uint256[]",
          "name": "values",
          "type": "uint256[]"
        }
      ],
      "name": "TransferBatch",
      "type": "event"
    },
    {
      "anonymous": false,
      "inputs": [
        {
          "indexed": true,
          "internalType": "address",
          "name": "operator",
          "type": "address"
        },
        {
          "indexed": true,
          "internalType": "address",
          "name": "from",
          "type": "address"
        },
        {
          "indexed": true,
          "internalType": "address",
          "name": "to",
          "type": "address"
        },
        {
          "indexed": false,
          "internalType": "uint256",
          "name": "id",
          "type": "uint256"
        },
        {
          "indexed": false,
          "internalType": "uint256",
          "name": "value",
          "type": "uint256"
        }
      ],
      "name": "TransferSingle",
      "type": "event"
    },
    {
      "anonymous": false,
      "inputs": [
        {
          "indexed": false,
          "internalType": "string",
          "name": "value",
          "type": "string"
        },
        {
          "indexed": true,
          "internalType": "uint256",
          "name": "id",
          "type": "uint256"
        }
      ],
      "name": "URI",
      "type": "event"
    },
    {
      "inputs": [],
      "name": "BasicRune",
      "outputs": [
        {
          "internalType": "uint256",
          "name": "",
          "type": "uint256"
        }
      ],
      "stateMutability": "view",
      "type": "function"
    },
    {
      "inputs": [],
      "name": "DEFAULT_ADMIN_ROLE",
      "outputs": [
        {
          "internalType": "bytes32",
          "name": "",
          "type": "bytes32"
        }
      ],
      "stateMutability": "view",
      "type": "function"
    },
    {
      "inputs": [],
      "name": "IntricateRune",
      "outputs": [
        {
          "internalType": "uint256",
          "name": "",
          "type": "uint256"
        }
      ],
      "stateMutability": "view",
      "type": "function"
    },
    {
      "inputs": [],
      "name": "MINTER_ROLE",
      "outputs": [
        {
          "internalType": "bytes32",
          "name": "",
          "type": "bytes32"
        }
      ],
      "stateMutability": "view",
      "type": "function"
    },
    {
      "inputs": [],
      "name": "PowerfullRune",
      "outputs": [
        {
          "internalType": "uint256",
          "name": "",
          "type": "uint256"
        }
      ],
      "stateMutability": "view",
      "type": "function"
    },
    {
      "inputs": [
        {
          "internalType": "address",
          "name": "account",
          "type": "address"
        },
        {
          "internalType": "uint256",
          "name": "id",
          "type": "uint256"
        }
      ],
      "name": "balanceOf",
      "outputs": [
        {
          "internalType": "uint256",
          "name": "",
          "type": "uint256"
        }
      ],
      "stateMutability": "view",
      "type": "function"
    },
    {
      "inputs": [
        {
          "internalType": "address[]",
          "name": "accounts",
          "type": "address[]"
        },
        {
          "internalType": "uint256[]",
          "name": "ids",
          "type": "uint256[]"
        }
      ],
      "name": "balanceOfBatch",
      "outputs": [
        {
          "internalType": "uint256[]",
          "name": "",
          "type": "uint256[]"
        }
      ],
      "stateMutability": "view",
      "type": "function"
    },
    {
      "inputs": [
        {
          "internalType": "bytes32",
          "name": "role",
          "type": "bytes32"
        }
      ],
      "name": "getRoleAdmin",
      "outputs": [
        {
          "internalType": "bytes32",
          "name": "",
          "type": "bytes32"
        }
      ],
      "stateMutability": "view",
      "type": "function"
    },
    {
      "inputs": [
        {
          "internalType": "bytes32",
          "name": "role",
          "type": "bytes32"
        },
        {
          "internalType": "address",
          "name": "account",
          "type": "address"
        }
      ],
      "name": "grantRole",
      "outputs": [],
      "stateMutability": "nonpayable",
      "type": "function"
    },
    {
      "inputs": [
        {
          "internalType": "bytes32",
          "name": "role",
          "type": "bytes32"
        },
        {
          "internalType": "address",
          "name": "account",
          "type": "address"
        }
      ],
      "name": "hasRole",
      "outputs": [
        {
          "internalType": "bool",
          "name": "",
          "type": "bool"
        }
      ],
      "stateMutability": "view",
      "type": "function"
    },
    {
      "inputs": [
        {
          "internalType": "address",
          "name": "account",
          "type": "address"
        },
        {
          "internalType": "address",
          "name": "operator",
          "type": "address"
        }
      ],
      "name": "isApprovedForAll",
      "outputs": [
        {
          "internalType": "bool",
          "name": "",
          "type": "bool"
        }
      ],
      "stateMutability": "view",
      "type": "function"
    },
    {
      "inputs": [
        {
          "internalType": "bytes32",
          "name": "role",
          "type": "bytes32"
        },
        {
          "internalType": "address",
          "name": "account",
          "type": "address"
        }
      ],
      "name": "renounceRole",
      "outputs": [],
      "stateMutability": "nonpayable",
      "type": "function"
    },
    {
      "inputs": [
        {
          "internalType": "bytes32",
          "name": "role",
          "type": "bytes32"
        },
        {
          "internalType": "address",
          "name": "account",
          "type": "address"
        }
      ],
      "name": "revokeRole",
      "outputs": [],
      "stateMutability": "nonpayable",
      "type": "function"
    },
    {
      "inputs": [
        {
          "internalType": "address",
          "name": "from",
          "type": "address"
        },
        {
          "internalType": "address",
          "name": "to",
          "type": "address"
        },
        {
          "internalType": "uint256[]",
          "name": "ids",
          "type": "uint256[]"
        },
        {
          "internalType": "uint256[]",
          "name": "amounts",
          "type": "uint256[]"
        },
        {
          "internalType": "bytes",
          "name": "data",
          "type": "bytes"
        }
      ],
      "name": "safeBatchTransferFrom",
      "outputs": [],
      "stateMutability": "nonpayable",
      "type": "function"
    },
    {
      "inputs": [
        {
          "internalType": "address",
          "name": "from",
          "type": "address"
        },
        {
          "internalType": "address",
          "name": "to",
          "type": "address"
        },
        {
          "internalType": "uint256",
          "name": "id",
          "type": "uint256"
        },
        {
          "internalType": "uint256",
          "name": "amount",
          "type": "uint256"
        },
        {
          "internalType": "bytes",
          "name": "data",
          "type": "bytes"
        }
      ],
      "name": "safeTransferFrom",
      "outputs": [],
      "stateMutability": "nonpayable",
      "type": "function"
    },
    {
      "inputs": [
        {
          "internalType": "address",
          "name": "operator",
          "type": "address"
        },
        {
          "internalType": "bool",
          "name": "approved",
          "type": "bool"
        }
      ],
      "name": "setApprovalForAll",
      "outputs": [],
      "stateMutability": "nonpayable",
      "type": "function"
    },
    {
      "inputs": [
        {
          "internalType": "uint256",
          "name": "",
          "type": "uint256"
        }
      ],
      "name": "uri",
      "outputs": [
        {
          "internalType": "string",
          "name": "",
          "type": "string"
        }
      ],
      "stateMutability": "view",
      "type": "function"
    },
    {
      "inputs": [
        {
          "internalType": "bytes4",
          "name": "interfaceId",
          "type": "bytes4"
        }
      ],
      "name": "supportsInterface",
      "outputs": [
        {
          "internalType": "bool",
          "name": "",
          "type": "bool"
        }
      ],
      "stateMutability": "view",
      "type": "function"
    },
    {
      "inputs": [],
      "name": "initialize",
      "outputs": [],
      "stateMutability": "nonpayable",
      "type": "function"
    },
    {
      "inputs": [
        {
          "internalType": "address",
          "name": "_address",
          "type": "address"
        },
        {
          "internalType": "uint256",
          "name": "itemId",
          "type": "uint256"
        },
        {
          "internalType": "uint256",
          "name": "amount",
          "type": "uint256"
        }
      ],
      "name": "mint",
      "outputs": [],
      "stateMutability": "payable",
      "type": "function"
    }
  ],
  "bytecode": "0x608060405234801561001057600080fd5b50613717806100206000396000f3fe60806040526004361061011e5760003560e01c80638129fc1c116100a0578063d547741f11610064578063d547741f146103e9578063d8b5e34e14610412578063deabf5d81461043d578063e985e9c514610468578063f242432a146104a55761011e565b80638129fc1c1461031657806391d148541461032d578063a217fddf1461036a578063a22cb46514610395578063d5391393146103be5761011e565b80632eb2c2d6116100e75780632eb2c2d6146102335780632f2ff15d1461025c57806336568abe146102855780634e1273f4146102ae57806369cdd8c1146102eb5761011e565b8062fdd58e1461012357806301ffc9a7146101605780630e89341c1461019d578063156e29f6146101da578063248a9ca3146101f6575b600080fd5b34801561012f57600080fd5b5061014a60048036038101906101459190612037565b6104ce565b6040516101579190612086565b60405180910390f35b34801561016c57600080fd5b50610187600480360381019061018291906120f9565b610598565b6040516101949190612141565b60405180910390f35b3480156101a957600080fd5b506101c460048036038101906101bf919061215c565b6105aa565b6040516101d19190612222565b60405180910390f35b6101f460048036038101906101ef9190612244565b61063e565b005b34801561020257600080fd5b5061021d600480360381019061021891906122cd565b610691565b60405161022a9190612309565b60405180910390f35b34801561023f57600080fd5b5061025a60048036038101906102559190612521565b6106b1565b005b34801561026857600080fd5b50610283600480360381019061027e91906125f0565b610752565b005b34801561029157600080fd5b506102ac60048036038101906102a791906125f0565b61077b565b005b3480156102ba57600080fd5b506102d560048036038101906102d091906126f3565b6107fe565b6040516102e29190612829565b60405180910390f35b3480156102f757600080fd5b50610300610917565b60405161030d9190612086565b60405180910390f35b34801561032257600080fd5b5061032b61091c565b005b34801561033957600080fd5b50610354600480360381019061034f91906125f0565b610a0d565b6040516103619190612141565b60405180910390f35b34801561037657600080fd5b5061037f610a78565b60405161038c9190612309565b60405180910390f35b3480156103a157600080fd5b506103bc60048036038101906103b79190612877565b610a7f565b005b3480156103ca57600080fd5b506103d3610a95565b6040516103e09190612309565b60405180910390f35b3480156103f557600080fd5b50610410600480360381019061040b91906125f0565b610ab9565b005b34801561041e57600080fd5b50610427610ae2565b6040516104349190612086565b60405180910390f35b34801561044957600080fd5b50610452610ae7565b60405161045f9190612086565b60405180910390f35b34801561047457600080fd5b5061048f600480360381019061048a91906128b7565b610aec565b60405161049c9190612141565b60405180910390f35b3480156104b157600080fd5b506104cc60048036038101906104c791906128f7565b610b80565b005b60008073ffffffffffffffffffffffffffffffffffffffff168373ffffffffffffffffffffffffffffffffffffffff16141561053f576040517f08c379a000000000000000000000000000000000000000000000000000000000815260040161053690612a00565b60405180910390fd5b6065600083815260200190815260200160002060008473ffffffffffffffffffffffffffffffffffffffff1673ffffffffffffffffffffffffffffffffffffffff16815260200190815260200160002054905092915050565b60006105a382610c21565b9050919050565b6060606780546105b990612a4f565b80601f01602080910402602001604051908101604052809291908181526020018280546105e590612a4f565b80156106325780601f1061060757610100808354040283529160200191610632565b820191906000526020600020905b81548152906001019060200180831161061557829003601f168201915b50505050509050919050565b7f9f2df0fed2c77648de5860a4cc508cd0818c85b8b8a1ab4ceeef8d981c8956a66106708161066b610c9b565b610ca3565b61068b84848460405180602001604052806000815250610d40565b50505050565b600060976000838152602001908152602001600020600101549050919050565b6106b9610c9b565b73ffffffffffffffffffffffffffffffffffffffff168573ffffffffffffffffffffffffffffffffffffffff1614806106ff57506106fe856106f9610c9b565b610aec565b5b61073e576040517f08c379a000000000000000000000000000000000000000000000000000000000815260040161073590612af3565b60405180910390fd5b61074b8585858585610ed7565b5050505050565b61075b82610691565b61076c81610767610c9b565b610ca3565b61077683836111ee565b505050565b610783610c9b565b73ffffffffffffffffffffffffffffffffffffffff168173ffffffffffffffffffffffffffffffffffffffff16146107f0576040517f08c379a00000000000000000000000000000000000000000000000000000000081526004016107e790612b85565b60405180910390fd5b6107fa82826112cf565b5050565b60608151835114610844576040517f08c379a000000000000000000000000000000000000000000000000000000000815260040161083b90612c17565b60405180910390fd5b6000835167ffffffffffffffff81111561086157610860612329565b5b60405190808252806020026020018201604052801561088f5781602001602082028036833780820191505090505b50905060005b845181101561090c576108dc8582815181106108b4576108b3612c37565b5b60200260200101518583815181106108cf576108ce612c37565b5b60200260200101516104ce565b8282815181106108ef576108ee612c37565b5b6020026020010181815250508061090590612c95565b9050610895565b508091505092915050565b600281565b600060019054906101000a900460ff166109445760008054906101000a900460ff161561094d565b61094c6113b1565b5b61098c576040517f08c379a000000000000000000000000000000000000000000000000000000000815260040161098390612d50565b60405180910390fd5b60008060019054906101000a900460ff1615905080156109dc576001600060016101000a81548160ff02191690831515021790555060016000806101000a81548160ff0219169083151502179055505b6109e96000801b336113c2565b8015610a0a5760008060016101000a81548160ff0219169083151502179055505b50565b60006097600084815260200190815260200160002060000160008373ffffffffffffffffffffffffffffffffffffffff1673ffffffffffffffffffffffffffffffffffffffff16815260200190815260200160002060009054906101000a900460ff16905092915050565b6000801b81565b610a91610a8a610c9b565b83836113d0565b5050565b7f9f2df0fed2c77648de5860a4cc508cd0818c85b8b8a1ab4ceeef8d981c8956a681565b610ac282610691565b610ad381610ace610c9b565b610ca3565b610add83836112cf565b505050565b600181565b600081565b6000606660008473ffffffffffffffffffffffffffffffffffffffff1673ffffffffffffffffffffffffffffffffffffffff16815260200190815260200160002060008373ffffffffffffffffffffffffffffffffffffffff1673ffffffffffffffffffffffffffffffffffffffff16815260200190815260200160002060009054906101000a900460ff16905092915050565b610b88610c9b565b73ffffffffffffffffffffffffffffffffffffffff168573ffffffffffffffffffffffffffffffffffffffff161480610bce5750610bcd85610bc8610c9b565b610aec565b5b610c0d576040517f08c379a0000000000000000000000000000000000000000000000000000000008152600401610c0490612de2565b60405180910390fd5b610c1a858585858561153d565b5050505050565b60007f7965db0b000000000000000000000000000000000000000000000000000000007bffffffffffffffffffffffffffffffffffffffffffffffffffffffff1916827bffffffffffffffffffffffffffffffffffffffffffffffffffffffff19161480610c945750610c93826117c2565b5b9050919050565b600033905090565b610cad8282610a0d565b610d3c57610cd28173ffffffffffffffffffffffffffffffffffffffff1660146118a4565b610ce08360001c60206118a4565b604051602001610cf1929190612ed6565b6040516020818303038152906040526040517f08c379a0000000000000000000000000000000000000000000000000000000008152600401610d339190612222565b60405180910390fd5b5050565b600073ffffffffffffffffffffffffffffffffffffffff168473ffffffffffffffffffffffffffffffffffffffff161415610db0576040517f08c379a0000000000000000000000000000000000000000000000000000000008152600401610da790612f82565b60405180910390fd5b6000610dba610c9b565b9050610ddb81600087610dcc88611ae0565b610dd588611ae0565b87611b5a565b826065600086815260200190815260200160002060008773ffffffffffffffffffffffffffffffffffffffff1673ffffffffffffffffffffffffffffffffffffffff1681526020019081526020016000206000828254610e3b9190612fa2565b925050819055508473ffffffffffffffffffffffffffffffffffffffff16600073ffffffffffffffffffffffffffffffffffffffff168273ffffffffffffffffffffffffffffffffffffffff167fc3d58168c5ae7397731d063d5bbf3d657854427343f4c083240f7aacaa2d0f628787604051610eb9929190612ff8565b60405180910390a4610ed081600087878787611b62565b5050505050565b8151835114610f1b576040517f08c379a0000000000000000000000000000000000000000000000000000000008152600401610f1290613093565b60405180910390fd5b600073ffffffffffffffffffffffffffffffffffffffff168473ffffffffffffffffffffffffffffffffffffffff161415610f8b576040517f08c379a0000000000000000000000000000000000000000000000000000000008152600401610f8290613125565b60405180910390fd5b6000610f95610c9b565b9050610fa5818787878787611b5a565b60005b8451811015611159576000858281518110610fc657610fc5612c37565b5b602002602001015190506000858381518110610fe557610fe4612c37565b5b6020026020010151905060006065600084815260200190815260200160002060008b73ffffffffffffffffffffffffffffffffffffffff1673ffffffffffffffffffffffffffffffffffffffff16815260200190815260200160002054905081811015611087576040517f08c379a000000000000000000000000000000000000000000000000000000000815260040161107e906131b7565b60405180910390fd5b8181036065600085815260200190815260200160002060008c73ffffffffffffffffffffffffffffffffffffffff1673ffffffffffffffffffffffffffffffffffffffff16815260200190815260200160002081905550816065600085815260200190815260200160002060008b73ffffffffffffffffffffffffffffffffffffffff1673ffffffffffffffffffffffffffffffffffffffff168152602001908152602001600020600082825461113e9190612fa2565b925050819055505050508061115290612c95565b9050610fa8565b508473ffffffffffffffffffffffffffffffffffffffff168673ffffffffffffffffffffffffffffffffffffffff168273ffffffffffffffffffffffffffffffffffffffff167f4a39dc06d4c0dbc64b70af90fd698a233a518aa5d07e595d983b8c0526c8f7fb87876040516111d09291906131d7565b60405180910390a46111e6818787878787611d3a565b505050505050565b6111f88282610a0d565b6112cb5760016097600084815260200190815260200160002060000160008373ffffffffffffffffffffffffffffffffffffffff1673ffffffffffffffffffffffffffffffffffffffff16815260200190815260200160002060006101000a81548160ff021916908315150217905550611270610c9b565b73ffffffffffffffffffffffffffffffffffffffff168173ffffffffffffffffffffffffffffffffffffffff16837f2f8788117e7eff1d82e926ec794901d17c78024a50270940304540a733656f0d60405160405180910390a45b5050565b6112d98282610a0d565b156113ad5760006097600084815260200190815260200160002060000160008373ffffffffffffffffffffffffffffffffffffffff1673ffffffffffffffffffffffffffffffffffffffff16815260200190815260200160002060006101000a81548160ff021916908315150217905550611352610c9b565b73ffffffffffffffffffffffffffffffffffffffff168173ffffffffffffffffffffffffffffffffffffffff16837ff6391f5c32d9c69d2a47ea670b442974b53935d1edc7fd64eb21e047a839171b60405160405180910390a45b5050565b60006113bc30611f12565b15905090565b6113cc82826111ee565b5050565b8173ffffffffffffffffffffffffffffffffffffffff168373ffffffffffffffffffffffffffffffffffffffff16141561143f576040517f08c379a000000000000000000000000000000000000000000000000000000000815260040161143690613280565b60405180910390fd5b80606660008573ffffffffffffffffffffffffffffffffffffffff1673ffffffffffffffffffffffffffffffffffffffff16815260200190815260200160002060008473ffffffffffffffffffffffffffffffffffffffff1673ffffffffffffffffffffffffffffffffffffffff16815260200190815260200160002060006101000a81548160ff0219169083151502179055508173ffffffffffffffffffffffffffffffffffffffff168373ffffffffffffffffffffffffffffffffffffffff167f17307eab39ab6107e8899845ad3d59bd9653f200f220920489ca2b5937696c31836040516115309190612141565b60405180910390a3505050565b600073ffffffffffffffffffffffffffffffffffffffff168473ffffffffffffffffffffffffffffffffffffffff1614156115ad576040517f08c379a00000000000000000000000000000000000000000000000000000000081526004016115a490613125565b60405180910390fd5b60006115b7610c9b565b90506115d78187876115c888611ae0565b6115d188611ae0565b87611b5a565b60006065600086815260200190815260200160002060008873ffffffffffffffffffffffffffffffffffffffff1673ffffffffffffffffffffffffffffffffffffffff1681526020019081526020016000205490508381101561166f576040517f08c379a0000000000000000000000000000000000000000000000000000000008152600401611666906131b7565b60405180910390fd5b8381036065600087815260200190815260200160002060008973ffffffffffffffffffffffffffffffffffffffff1673ffffffffffffffffffffffffffffffffffffffff16815260200190815260200160002081905550836065600087815260200190815260200160002060008873ffffffffffffffffffffffffffffffffffffffff1673ffffffffffffffffffffffffffffffffffffffff16815260200190815260200160002060008282546117269190612fa2565b925050819055508573ffffffffffffffffffffffffffffffffffffffff168773ffffffffffffffffffffffffffffffffffffffff168373ffffffffffffffffffffffffffffffffffffffff167fc3d58168c5ae7397731d063d5bbf3d657854427343f4c083240f7aacaa2d0f6288886040516117a3929190612ff8565b60405180910390a46117b9828888888888611b62565b50505050505050565b60007fd9b67a26000000000000000000000000000000000000000000000000000000007bffffffffffffffffffffffffffffffffffffffffffffffffffffffff1916827bffffffffffffffffffffffffffffffffffffffffffffffffffffffff1916148061188d57507f0e89341c000000000000000000000000000000000000000000000000000000007bffffffffffffffffffffffffffffffffffffffffffffffffffffffff1916827bffffffffffffffffffffffffffffffffffffffffffffffffffffffff1916145b8061189d575061189c82611f25565b5b9050919050565b6060600060028360026118b791906132a0565b6118c19190612fa2565b67ffffffffffffffff8111156118da576118d9612329565b5b6040519080825280601f01601f19166020018201604052801561190c5781602001600182028036833780820191505090505b5090507f30000000000000000000000000000000000000000000000000000000000000008160008151811061194457611943612c37565b5b60200101907effffffffffffffffffffffffffffffffffffffffffffffffffffffffffffff1916908160001a9053507f7800000000000000000000000000000000000000000000000000000000000000816001815181106119a8576119a7612c37565b5b60200101907effffffffffffffffffffffffffffffffffffffffffffffffffffffffffffff1916908160001a905350600060018460026119e891906132a0565b6119f29190612fa2565b90505b6001811115611a92577f3031323334353637383961626364656600000000000000000000000000000000600f861660108110611a3457611a33612c37565b5b1a60f81b828281518110611a4b57611a4a612c37565b5b60200101907effffffffffffffffffffffffffffffffffffffffffffffffffffffffffffff1916908160001a905350600485901c945080611a8b906132fa565b90506119f5565b5060008414611ad6576040517f08c379a0000000000000000000000000000000000000000000000000000000008152600401611acd90613370565b60405180910390fd5b8091505092915050565b60606000600167ffffffffffffffff811115611aff57611afe612329565b5b604051908082528060200260200182016040528015611b2d5781602001602082028036833780820191505090505b5090508281600081518110611b4557611b44612c37565b5b60200260200101818152505080915050919050565b505050505050565b611b818473ffffffffffffffffffffffffffffffffffffffff16611f12565b15611d32578373ffffffffffffffffffffffffffffffffffffffff1663f23a6e6187878686866040518663ffffffff1660e01b8152600401611bc79594939291906133f4565b6020604051808303816000875af1925050508015611c0357506040513d601f19601f82011682018060405250810190611c009190613463565b60015b611ca957611c0f61349d565b806308c379a01415611c6c5750611c246134bf565b80611c2f5750611c6e565b806040517f08c379a0000000000000000000000000000000000000000000000000000000008152600401611c639190612222565b60405180910390fd5b505b6040517f08c379a0000000000000000000000000000000000000000000000000000000008152600401611ca0906135c7565b60405180910390fd5b63f23a6e6160e01b7bffffffffffffffffffffffffffffffffffffffffffffffffffffffff1916817bffffffffffffffffffffffffffffffffffffffffffffffffffffffff191614611d30576040517f08c379a0000000000000000000000000000000000000000000000000000000008152600401611d2790613659565b60405180910390fd5b505b505050505050565b611d598473ffffffffffffffffffffffffffffffffffffffff16611f12565b15611f0a578373ffffffffffffffffffffffffffffffffffffffff1663bc197c8187878686866040518663ffffffff1660e01b8152600401611d9f959493929190613679565b6020604051808303816000875af1925050508015611ddb57506040513d601f19601f82011682018060405250810190611dd89190613463565b60015b611e8157611de761349d565b806308c379a01415611e445750611dfc6134bf565b80611e075750611e46565b806040517f08c379a0000000000000000000000000000000000000000000000000000000008152600401611e3b9190612222565b60405180910390fd5b505b6040517f08c379a0000000000000000000000000000000000000000000000000000000008152600401611e78906135c7565b60405180910390fd5b63bc197c8160e01b7bffffffffffffffffffffffffffffffffffffffffffffffffffffffff1916817bffffffffffffffffffffffffffffffffffffffffffffffffffffffff191614611f08576040517f08c379a0000000000000000000000000000000000000000000000000000000008152600401611eff90613659565b60405180910390fd5b505b505050505050565b600080823b905060008111915050919050565b60007f01ffc9a7000000000000000000000000000000000000000000000000000000007bffffffffffffffffffffffffffffffffffffffffffffffffffffffff1916827bffffffffffffffffffffffffffffffffffffffffffffffffffffffff1916149050919050565b6000604051905090565b600080fd5b600080fd5b600073ffffffffffffffffffffffffffffffffffffffff82169050919050565b6000611fce82611fa3565b9050919050565b611fde81611fc3565b8114611fe957600080fd5b50565b600081359050611ffb81611fd5565b92915050565b6000819050919050565b61201481612001565b811461201f57600080fd5b50565b6000813590506120318161200b565b92915050565b6000806040838503121561204e5761204d611f99565b5b600061205c85828601611fec565b925050602061206d85828601612022565b9150509250929050565b61208081612001565b82525050565b600060208201905061209b6000830184612077565b92915050565b60007fffffffff0000000000000000000000000000000000000000000000000000000082169050919050565b6120d6816120a1565b81146120e157600080fd5b50565b6000813590506120f3816120cd565b92915050565b60006020828403121561210f5761210e611f99565b5b600061211d848285016120e4565b91505092915050565b60008115159050919050565b61213b81612126565b82525050565b60006020820190506121566000830184612132565b92915050565b60006020828403121561217257612171611f99565b5b600061218084828501612022565b91505092915050565b600081519050919050565b600082825260208201905092915050565b60005b838110156121c35780820151818401526020810190506121a8565b838111156121d2576000848401525b50505050565b6000601f19601f8301169050919050565b60006121f482612189565b6121fe8185612194565b935061220e8185602086016121a5565b612217816121d8565b840191505092915050565b6000602082019050818103600083015261223c81846121e9565b905092915050565b60008060006060848603121561225d5761225c611f99565b5b600061226b86828701611fec565b935050602061227c86828701612022565b925050604061228d86828701612022565b9150509250925092565b6000819050919050565b6122aa81612297565b81146122b557600080fd5b50565b6000813590506122c7816122a1565b92915050565b6000602082840312156122e3576122e2611f99565b5b60006122f1848285016122b8565b91505092915050565b61230381612297565b82525050565b600060208201905061231e60008301846122fa565b92915050565b600080fd5b7f4e487b7100000000000000000000000000000000000000000000000000000000600052604160045260246000fd5b612361826121d8565b810181811067ffffffffffffffff821117156123805761237f612329565b5b80604052505050565b6000612393611f8f565b905061239f8282612358565b919050565b600067ffffffffffffffff8211156123bf576123be612329565b5b602082029050602081019050919050565b600080fd5b60006123e86123e3846123a4565b612389565b9050808382526020820190506020840283018581111561240b5761240a6123d0565b5b835b8181101561243457806124208882612022565b84526020840193505060208101905061240d565b5050509392505050565b600082601f83011261245357612452612324565b5b81356124638482602086016123d5565b91505092915050565b600080fd5b600067ffffffffffffffff82111561248c5761248b612329565b5b612495826121d8565b9050602081019050919050565b82818337600083830152505050565b60006124c46124bf84612471565b612389565b9050828152602081018484840111156124e0576124df61246c565b5b6124eb8482856124a2565b509392505050565b600082601f83011261250857612507612324565b5b81356125188482602086016124b1565b91505092915050565b600080600080600060a0868803121561253d5761253c611f99565b5b600061254b88828901611fec565b955050602061255c88828901611fec565b945050604086013567ffffffffffffffff81111561257d5761257c611f9e565b5b6125898882890161243e565b935050606086013567ffffffffffffffff8111156125aa576125a9611f9e565b5b6125b68882890161243e565b925050608086013567ffffffffffffffff8111156125d7576125d6611f9e565b5b6125e3888289016124f3565b9150509295509295909350565b6000806040838503121561260757612606611f99565b5b6000612615858286016122b8565b925050602061262685828601611fec565b9150509250929050565b600067ffffffffffffffff82111561264b5761264a612329565b5b602082029050602081019050919050565b600061266f61266a84612630565b612389565b90508083825260208201905060208402830185811115612692576126916123d0565b5b835b818110156126bb57806126a78882611fec565b845260208401935050602081019050612694565b5050509392505050565b600082601f8301126126da576126d9612324565b5b81356126ea84826020860161265c565b91505092915050565b6000806040838503121561270a57612709611f99565b5b600083013567ffffffffffffffff81111561272857612727611f9e565b5b612734858286016126c5565b925050602083013567ffffffffffffffff81111561275557612754611f9e565b5b6127618582860161243e565b9150509250929050565b600081519050919050565b600082825260208201905092915050565b6000819050602082019050919050565b6127a081612001565b82525050565b60006127b28383612797565b60208301905092915050565b6000602082019050919050565b60006127d68261276b565b6127e08185612776565b93506127eb83612787565b8060005b8381101561281c57815161280388826127a6565b975061280e836127be565b9250506001810190506127ef565b5085935050505092915050565b6000602082019050818103600083015261284381846127cb565b905092915050565b61285481612126565b811461285f57600080fd5b50565b6000813590506128718161284b565b92915050565b6000806040838503121561288e5761288d611f99565b5b600061289c85828601611fec565b92505060206128ad85828601612862565b9150509250929050565b600080604083850312156128ce576128cd611f99565b5b60006128dc85828601611fec565b92505060206128ed85828601611fec565b9150509250929050565b600080600080600060a0868803121561291357612912611f99565b5b600061292188828901611fec565b955050602061293288828901611fec565b945050604061294388828901612022565b935050606061295488828901612022565b925050608086013567ffffffffffffffff81111561297557612974611f9e565b5b612981888289016124f3565b9150509295509295909350565b7f455243313135353a2062616c616e636520717565727920666f7220746865207a60008201527f65726f2061646472657373000000000000000000000000000000000000000000602082015250565b60006129ea602b83612194565b91506129f58261298e565b604082019050919050565b60006020820190508181036000830152612a19816129dd565b9050919050565b7f4e487b7100000000000000000000000000000000000000000000000000000000600052602260045260246000fd5b60006002820490506001821680612a6757607f821691505b60208210811415612a7b57612a7a612a20565b5b50919050565b7f455243313135353a207472616e736665722063616c6c6572206973206e6f742060008201527f6f776e6572206e6f7220617070726f7665640000000000000000000000000000602082015250565b6000612add603283612194565b9150612ae882612a81565b604082019050919050565b60006020820190508181036000830152612b0c81612ad0565b9050919050565b7f416363657373436f6e74726f6c3a2063616e206f6e6c792072656e6f756e636560008201527f20726f6c657320666f722073656c660000000000000000000000000000000000602082015250565b6000612b6f602f83612194565b9150612b7a82612b13565b604082019050919050565b60006020820190508181036000830152612b9e81612b62565b9050919050565b7f455243313135353a206163636f756e747320616e6420696473206c656e67746860008201527f206d69736d617463680000000000000000000000000000000000000000000000602082015250565b6000612c01602983612194565b9150612c0c82612ba5565b604082019050919050565b60006020820190508181036000830152612c3081612bf4565b9050919050565b7f4e487b7100000000000000000000000000000000000000000000000000000000600052603260045260246000fd5b7f4e487b7100000000000000000000000000000000000000000000000000000000600052601160045260246000fd5b6000612ca082612001565b91507fffffffffffffffffffffffffffffffffffffffffffffffffffffffffffffffff821415612cd357612cd2612c66565b5b600182019050919050565b7f496e697469616c697a61626c653a20636f6e747261637420697320616c72656160008201527f647920696e697469616c697a6564000000000000000000000000000000000000602082015250565b6000612d3a602e83612194565b9150612d4582612cde565b604082019050919050565b60006020820190508181036000830152612d6981612d2d565b9050919050565b7f455243313135353a2063616c6c6572206973206e6f74206f776e6572206e6f7260008201527f20617070726f7665640000000000000000000000000000000000000000000000602082015250565b6000612dcc602983612194565b9150612dd782612d70565b604082019050919050565b60006020820190508181036000830152612dfb81612dbf565b9050919050565b600081905092915050565b7f416363657373436f6e74726f6c3a206163636f756e7420000000000000000000600082015250565b6000612e43601783612e02565b9150612e4e82612e0d565b601782019050919050565b6000612e6482612189565b612e6e8185612e02565b9350612e7e8185602086016121a5565b80840191505092915050565b7f206973206d697373696e6720726f6c6520000000000000000000000000000000600082015250565b6000612ec0601183612e02565b9150612ecb82612e8a565b601182019050919050565b6000612ee182612e36565b9150612eed8285612e59565b9150612ef882612eb3565b9150612f048284612e59565b91508190509392505050565b7f455243313135353a206d696e7420746f20746865207a65726f2061646472657360008201527f7300000000000000000000000000000000000000000000000000000000000000602082015250565b6000612f6c602183612194565b9150612f7782612f10565b604082019050919050565b60006020820190508181036000830152612f9b81612f5f565b9050919050565b6000612fad82612001565b9150612fb883612001565b9250827fffffffffffffffffffffffffffffffffffffffffffffffffffffffffffffffff03821115612fed57612fec612c66565b5b828201905092915050565b600060408201905061300d6000830185612077565b61301a6020830184612077565b9392505050565b7f455243313135353a2069647320616e6420616d6f756e7473206c656e6774682060008201527f6d69736d61746368000000000000000000000000000000000000000000000000602082015250565b600061307d602883612194565b915061308882613021565b604082019050919050565b600060208201905081810360008301526130ac81613070565b9050919050565b7f455243313135353a207472616e7366657220746f20746865207a65726f20616460008201527f6472657373000000000000000000000000000000000000000000000000000000602082015250565b600061310f602583612194565b915061311a826130b3565b604082019050919050565b6000602082019050818103600083015261313e81613102565b9050919050565b7f455243313135353a20696e73756666696369656e742062616c616e636520666f60008201527f72207472616e7366657200000000000000000000000000000000000000000000602082015250565b60006131a1602a83612194565b91506131ac82613145565b604082019050919050565b600060208201905081810360008301526131d081613194565b9050919050565b600060408201905081810360008301526131f181856127cb565b9050818103602083015261320581846127cb565b90509392505050565b7f455243313135353a2073657474696e6720617070726f76616c2073746174757360008201527f20666f722073656c660000000000000000000000000000000000000000000000602082015250565b600061326a602983612194565b91506132758261320e565b604082019050919050565b600060208201905081810360008301526132998161325d565b9050919050565b60006132ab82612001565b91506132b683612001565b9250817fffffffffffffffffffffffffffffffffffffffffffffffffffffffffffffffff04831182151516156132ef576132ee612c66565b5b828202905092915050565b600061330582612001565b9150600082141561331957613318612c66565b5b600182039050919050565b7f537472696e67733a20686578206c656e67746820696e73756666696369656e74600082015250565b600061335a602083612194565b915061336582613324565b602082019050919050565b600060208201905081810360008301526133898161334d565b9050919050565b61339981611fc3565b82525050565b600081519050919050565b600082825260208201905092915050565b60006133c68261339f565b6133d081856133aa565b93506133e08185602086016121a5565b6133e9816121d8565b840191505092915050565b600060a0820190506134096000830188613390565b6134166020830187613390565b6134236040830186612077565b6134306060830185612077565b818103608083015261344281846133bb565b90509695505050505050565b60008151905061345d816120cd565b92915050565b60006020828403121561347957613478611f99565b5b60006134878482850161344e565b91505092915050565b60008160e01c9050919050565b600060033d11156134bc5760046000803e6134b9600051613490565b90505b90565b600060443d10156134cf57613552565b6134d7611f8f565b60043d036004823e80513d602482011167ffffffffffffffff821117156134ff575050613552565b808201805167ffffffffffffffff81111561351d5750505050613552565b80602083010160043d03850181111561353a575050505050613552565b61354982602001850186612358565b82955050505050505b90565b7f455243313135353a207472616e7366657220746f206e6f6e204552433131353560008201527f526563656976657220696d706c656d656e746572000000000000000000000000602082015250565b60006135b1603483612194565b91506135bc82613555565b604082019050919050565b600060208201905081810360008301526135e0816135a4565b9050919050565b7f455243313135353a204552433131353552656365697665722072656a6563746560008201527f6420746f6b656e73000000000000000000000000000000000000000000000000602082015250565b6000613643602883612194565b915061364e826135e7565b604082019050919050565b6000602082019050818103600083015261367281613636565b9050919050565b600060a08201905061368e6000830188613390565b61369b6020830187613390565b81810360408301526136ad81866127cb565b905081810360608301526136c181856127cb565b905081810360808301526136d581846133bb565b9050969550505050505056fea264697066735822122014cc54ff1b1528f4e3dc0e97e69162b7ba82c97b289fe2d701ca25a1d155f50664736f6c634300080b0033",
  "immutableReferences": {},
  "source": "// SPDX-License-Identifier: UNLICENSED\r\n\r\npragma solidity ^0.8.3;\r\n\r\nimport \"../node_modules/@openzeppelin/contracts-upgradeable/access/AccessControlUpgradeable.sol\";\r\nimport \"../node_modules/@openzeppelin/contracts-upgradeable/token/ERC1155/ERC1155Upgradeable.sol\";\r\n\r\ncontract GameItems is ERC1155Upgradeable, AccessControlUpgradeable {\r\n\r\n    bytes32 public constant MINTER_ROLE = keccak256(\"MINTER_ROLE\");\r\n\r\n    uint256 public constant BasicRune = 0;\r\n    uint256 public constant IntricateRune = 1;\r\n    uint256 public constant PowerfullRune = 2;\r\n\r\n    function supportsInterface(bytes4 interfaceId) public view virtual override(ERC1155Upgradeable, AccessControlUpgradeable) returns (bool) {\r\n        return super.supportsInterface(interfaceId);\r\n    }\r\n\r\n    function initialize() initializer public {\r\n        _setupRole(DEFAULT_ADMIN_ROLE, msg.sender);\r\n    }\r\n\r\n    function mint(address _address, uint itemId, uint amount) public payable onlyRole(MINTER_ROLE) {\r\n        _mint(_address, itemId, amount, \"\");\r\n    }\r\n}\r\n",
  "sourcePath": "C:\\Users\\jtsch\\OneDrive\\Escritorio\\Python\\SmartContracts-NFT-Agus\\contracts\\GameItems.sol",
  "compiler": {
    "name": "solc",
    "version": "0.8.11+commit.d7f03943.Emscripten.clang"
  },
  "schemaVersion": "3.4.3",
  "updatedAt": "2022-01-24T23:23:27.567Z",
  "devdoc": {
    "kind": "dev",
    "methods": {
      "balanceOf(address,uint256)": {
        "details": "See {IERC1155-balanceOf}. Requirements: - `account` cannot be the zero address."
      },
      "balanceOfBatch(address[],uint256[])": {
        "details": "See {IERC1155-balanceOfBatch}. Requirements: - `accounts` and `ids` must have the same length."
      },
      "getRoleAdmin(bytes32)": {
        "details": "Returns the admin role that controls `role`. See {grantRole} and {revokeRole}. To change a role's admin, use {_setRoleAdmin}."
      },
      "grantRole(bytes32,address)": {
        "details": "Grants `role` to `account`. If `account` had not been already granted `role`, emits a {RoleGranted} event. Requirements: - the caller must have ``role``'s admin role."
      },
      "hasRole(bytes32,address)": {
        "details": "Returns `true` if `account` has been granted `role`."
      },
      "isApprovedForAll(address,address)": {
        "details": "See {IERC1155-isApprovedForAll}."
      },
      "renounceRole(bytes32,address)": {
        "details": "Revokes `role` from the calling account. Roles are often managed via {grantRole} and {revokeRole}: this function's purpose is to provide a mechanism for accounts to lose their privileges if they are compromised (such as when a trusted device is misplaced). If the calling account had been revoked `role`, emits a {RoleRevoked} event. Requirements: - the caller must be `account`."
      },
      "revokeRole(bytes32,address)": {
        "details": "Revokes `role` from `account`. If `account` had been granted `role`, emits a {RoleRevoked} event. Requirements: - the caller must have ``role``'s admin role."
      },
      "safeBatchTransferFrom(address,address,uint256[],uint256[],bytes)": {
        "details": "See {IERC1155-safeBatchTransferFrom}."
      },
      "safeTransferFrom(address,address,uint256,uint256,bytes)": {
        "details": "See {IERC1155-safeTransferFrom}."
      },
      "setApprovalForAll(address,bool)": {
        "details": "See {IERC1155-setApprovalForAll}."
      },
      "uri(uint256)": {
        "details": "See {IERC1155MetadataURI-uri}. This implementation returns the same URI for *all* token types. It relies on the token type ID substitution mechanism https://eips.ethereum.org/EIPS/eip-1155#metadata[defined in the EIP]. Clients calling this function must replace the `\\{id\\}` substring with the actual token type ID."
      }
    },
    "version": 1
  },
  "userdoc": {
    "kind": "user",
    "methods": {},
    "version": 1
  }
}