{
  "contractName": "GameItems",
  "abi": [
    {
      "anonymous": false,
      "inputs": [
        {
          "indexed": true,
          "internalType": "address",
          "name": "account",
          "type": "address"
        },
        {
          "indexed": true,
          "internalType": "address",
          "name": "operator",
          "type": "address"
        },
        {
          "indexed": false,
          "internalType": "bool",
          "name": "approved",
          "type": "bool"
        }
      ],
      "name": "ApprovalForAll",
      "type": "event"
    },
    {
      "anonymous": false,
      "inputs": [
        {
          "indexed": true,
          "internalType": "bytes32",
          "name": "role",
          "type": "bytes32"
        },
        {
          "indexed": true,
          "internalType": "bytes32",
          "name": "previousAdminRole",
          "type": "bytes32"
        },
        {
          "indexed": true,
          "internalType": "bytes32",
          "name": "newAdminRole",
          "type": "bytes32"
        }
      ],
      "name": "RoleAdminChanged",
      "type": "event"
    },
    {
      "anonymous": false,
      "inputs": [
        {
          "indexed": true,
          "internalType": "bytes32",
          "name": "role",
          "type": "bytes32"
        },
        {
          "indexed": true,
          "internalType": "address",
          "name": "account",
          "type": "address"
        },
        {
          "indexed": true,
          "internalType": "address",
          "name": "sender",
          "type": "address"
        }
      ],
      "name": "RoleGranted",
      "type": "event"
    },
    {
      "anonymous": false,
      "inputs": [
        {
          "indexed": true,
          "internalType": "bytes32",
          "name": "role",
          "type": "bytes32"
        },
        {
          "indexed": true,
          "internalType": "address",
          "name": "account",
          "type": "address"
        },
        {
          "indexed": true,
          "internalType": "address",
          "name": "sender",
          "type": "address"
        }
      ],
      "name": "RoleRevoked",
      "type": "event"
    },
    {
      "anonymous": false,
      "inputs": [
        {
          "indexed": true,
          "internalType": "address",
          "name": "operator",
          "type": "address"
        },
        {
          "indexed": true,
          "internalType": "address",
          "name": "from",
          "type": "address"
        },
        {
          "indexed": true,
          "internalType": "address",
          "name": "to",
          "type": "address"
        },
        {
          "indexed": false,
          "internalType": "uint256[]",
          "name": "ids",
          "type": "uint256[]"
        },
        {
          "indexed": false,
          "internalType": "uint256[]",
          "name": "values",
          "type": "uint256[]"
        }
      ],
      "name": "TransferBatch",
      "type": "event"
    },
    {
      "anonymous": false,
      "inputs": [
        {
          "indexed": true,
          "internalType": "address",
          "name": "operator",
          "type": "address"
        },
        {
          "indexed": true,
          "internalType": "address",
          "name": "from",
          "type": "address"
        },
        {
          "indexed": true,
          "internalType": "address",
          "name": "to",
          "type": "address"
        },
        {
          "indexed": false,
          "internalType": "uint256",
          "name": "id",
          "type": "uint256"
        },
        {
          "indexed": false,
          "internalType": "uint256",
          "name": "value",
          "type": "uint256"
        }
      ],
      "name": "TransferSingle",
      "type": "event"
    },
    {
      "anonymous": false,
      "inputs": [
        {
          "indexed": false,
          "internalType": "string",
          "name": "value",
          "type": "string"
        },
        {
          "indexed": true,
          "internalType": "uint256",
          "name": "id",
          "type": "uint256"
        }
      ],
      "name": "URI",
      "type": "event"
    },
    {
      "inputs": [],
      "name": "BURNER_ROLE",
      "outputs": [
        {
          "internalType": "bytes32",
          "name": "",
          "type": "bytes32"
        }
      ],
      "stateMutability": "view",
      "type": "function"
    },
    {
      "inputs": [],
      "name": "BasicRune",
      "outputs": [
        {
          "internalType": "uint256",
          "name": "",
          "type": "uint256"
        }
      ],
      "stateMutability": "view",
      "type": "function"
    },
    {
      "inputs": [],
      "name": "DEFAULT_ADMIN_ROLE",
      "outputs": [
        {
          "internalType": "bytes32",
          "name": "",
          "type": "bytes32"
        }
      ],
      "stateMutability": "view",
      "type": "function"
    },
    {
      "inputs": [],
      "name": "IntricateRune",
      "outputs": [
        {
          "internalType": "uint256",
          "name": "",
          "type": "uint256"
        }
      ],
      "stateMutability": "view",
      "type": "function"
    },
    {
      "inputs": [],
      "name": "MINTER_ROLE",
      "outputs": [
        {
          "internalType": "bytes32",
          "name": "",
          "type": "bytes32"
        }
      ],
      "stateMutability": "view",
      "type": "function"
    },
    {
      "inputs": [],
      "name": "PowerfullRune",
      "outputs": [
        {
          "internalType": "uint256",
          "name": "",
          "type": "uint256"
        }
      ],
      "stateMutability": "view",
      "type": "function"
    },
    {
      "inputs": [
        {
          "internalType": "address",
          "name": "account",
          "type": "address"
        },
        {
          "internalType": "uint256",
          "name": "id",
          "type": "uint256"
        }
      ],
      "name": "balanceOf",
      "outputs": [
        {
          "internalType": "uint256",
          "name": "",
          "type": "uint256"
        }
      ],
      "stateMutability": "view",
      "type": "function"
    },
    {
      "inputs": [
        {
          "internalType": "address[]",
          "name": "accounts",
          "type": "address[]"
        },
        {
          "internalType": "uint256[]",
          "name": "ids",
          "type": "uint256[]"
        }
      ],
      "name": "balanceOfBatch",
      "outputs": [
        {
          "internalType": "uint256[]",
          "name": "",
          "type": "uint256[]"
        }
      ],
      "stateMutability": "view",
      "type": "function"
    },
    {
      "inputs": [
        {
          "internalType": "bytes32",
          "name": "role",
          "type": "bytes32"
        }
      ],
      "name": "getRoleAdmin",
      "outputs": [
        {
          "internalType": "bytes32",
          "name": "",
          "type": "bytes32"
        }
      ],
      "stateMutability": "view",
      "type": "function"
    },
    {
      "inputs": [
        {
          "internalType": "bytes32",
          "name": "role",
          "type": "bytes32"
        },
        {
          "internalType": "address",
          "name": "account",
          "type": "address"
        }
      ],
      "name": "grantRole",
      "outputs": [],
      "stateMutability": "nonpayable",
      "type": "function"
    },
    {
      "inputs": [
        {
          "internalType": "bytes32",
          "name": "role",
          "type": "bytes32"
        },
        {
          "internalType": "address",
          "name": "account",
          "type": "address"
        }
      ],
      "name": "hasRole",
      "outputs": [
        {
          "internalType": "bool",
          "name": "",
          "type": "bool"
        }
      ],
      "stateMutability": "view",
      "type": "function"
    },
    {
      "inputs": [
        {
          "internalType": "address",
          "name": "account",
          "type": "address"
        },
        {
          "internalType": "address",
          "name": "operator",
          "type": "address"
        }
      ],
      "name": "isApprovedForAll",
      "outputs": [
        {
          "internalType": "bool",
          "name": "",
          "type": "bool"
        }
      ],
      "stateMutability": "view",
      "type": "function"
    },
    {
      "inputs": [
        {
          "internalType": "bytes32",
          "name": "role",
          "type": "bytes32"
        },
        {
          "internalType": "address",
          "name": "account",
          "type": "address"
        }
      ],
      "name": "renounceRole",
      "outputs": [],
      "stateMutability": "nonpayable",
      "type": "function"
    },
    {
      "inputs": [
        {
          "internalType": "bytes32",
          "name": "role",
          "type": "bytes32"
        },
        {
          "internalType": "address",
          "name": "account",
          "type": "address"
        }
      ],
      "name": "revokeRole",
      "outputs": [],
      "stateMutability": "nonpayable",
      "type": "function"
    },
    {
      "inputs": [
        {
          "internalType": "address",
          "name": "from",
          "type": "address"
        },
        {
          "internalType": "address",
          "name": "to",
          "type": "address"
        },
        {
          "internalType": "uint256[]",
          "name": "ids",
          "type": "uint256[]"
        },
        {
          "internalType": "uint256[]",
          "name": "amounts",
          "type": "uint256[]"
        },
        {
          "internalType": "bytes",
          "name": "data",
          "type": "bytes"
        }
      ],
      "name": "safeBatchTransferFrom",
      "outputs": [],
      "stateMutability": "nonpayable",
      "type": "function"
    },
    {
      "inputs": [
        {
          "internalType": "address",
          "name": "from",
          "type": "address"
        },
        {
          "internalType": "address",
          "name": "to",
          "type": "address"
        },
        {
          "internalType": "uint256",
          "name": "id",
          "type": "uint256"
        },
        {
          "internalType": "uint256",
          "name": "amount",
          "type": "uint256"
        },
        {
          "internalType": "bytes",
          "name": "data",
          "type": "bytes"
        }
      ],
      "name": "safeTransferFrom",
      "outputs": [],
      "stateMutability": "nonpayable",
      "type": "function"
    },
    {
      "inputs": [
        {
          "internalType": "address",
          "name": "operator",
          "type": "address"
        },
        {
          "internalType": "bool",
          "name": "approved",
          "type": "bool"
        }
      ],
      "name": "setApprovalForAll",
      "outputs": [],
      "stateMutability": "nonpayable",
      "type": "function"
    },
    {
      "inputs": [
        {
          "internalType": "uint256",
          "name": "",
          "type": "uint256"
        }
      ],
      "name": "uri",
      "outputs": [
        {
          "internalType": "string",
          "name": "",
          "type": "string"
        }
      ],
      "stateMutability": "view",
      "type": "function"
    },
    {
      "inputs": [
        {
          "internalType": "bytes4",
          "name": "interfaceId",
          "type": "bytes4"
        }
      ],
      "name": "supportsInterface",
      "outputs": [
        {
          "internalType": "bool",
          "name": "",
          "type": "bool"
        }
      ],
      "stateMutability": "view",
      "type": "function"
    },
    {
      "inputs": [],
      "name": "initialize",
      "outputs": [],
      "stateMutability": "nonpayable",
      "type": "function"
    },
    {
      "inputs": [
        {
          "internalType": "address",
          "name": "_address",
          "type": "address"
        },
        {
          "internalType": "uint256",
          "name": "itemId",
          "type": "uint256"
        },
        {
          "internalType": "uint256",
          "name": "amount",
          "type": "uint256"
        }
      ],
      "name": "mint",
      "outputs": [],
      "stateMutability": "nonpayable",
      "type": "function"
    },
    {
      "inputs": [
        {
          "internalType": "address",
          "name": "from",
          "type": "address"
        },
        {
          "internalType": "uint256",
          "name": "id",
          "type": "uint256"
        },
        {
          "internalType": "uint256",
          "name": "amount",
          "type": "uint256"
        }
      ],
      "name": "burn",
      "outputs": [],
      "stateMutability": "nonpayable",
      "type": "function"
    }
  ],
  "bytecode": "0x608060405234801561001057600080fd5b50613a27806100206000396000f3fe608060405234801561001057600080fd5b50600436106101415760003560e01c80638129fc1c116100b8578063d547741f1161007c578063d547741f14610374578063d8b5e34e14610390578063deabf5d8146103ae578063e985e9c5146103cc578063f242432a146103fc578063f5298aca1461041857610141565b80638129fc1c146102e257806391d14854146102ec578063a217fddf1461031c578063a22cb4651461033a578063d53913931461035657610141565b8063282c51f31161010a578063282c51f3146102225780632eb2c2d6146102405780632f2ff15d1461025c57806336568abe146102785780634e1273f41461029457806369cdd8c1146102c457610141565b8062fdd58e1461014657806301ffc9a7146101765780630e89341c146101a6578063156e29f6146101d6578063248a9ca3146101f2575b600080fd5b610160600480360381019061015b9190612223565b610434565b60405161016d9190612272565b60405180910390f35b610190600480360381019061018b91906122e5565b6104fe565b60405161019d919061232d565b60405180910390f35b6101c060048036038101906101bb9190612348565b610510565b6040516101cd919061240e565b60405180910390f35b6101f060048036038101906101eb9190612430565b6105a4565b005b61020c600480360381019061020791906124b9565b6105f7565b60405161021991906124f5565b60405180910390f35b61022a610617565b60405161023791906124f5565b60405180910390f35b61025a6004803603810190610255919061270d565b61063b565b005b610276600480360381019061027191906127dc565b6106dc565b005b610292600480360381019061028d91906127dc565b610705565b005b6102ae60048036038101906102a991906128df565b610788565b6040516102bb9190612a15565b60405180910390f35b6102cc6108a1565b6040516102d99190612272565b60405180910390f35b6102ea6108a6565b005b610306600480360381019061030191906127dc565b610997565b604051610313919061232d565b60405180910390f35b610324610a02565b60405161033191906124f5565b60405180910390f35b610354600480360381019061034f9190612a63565b610a09565b005b61035e610a1f565b60405161036b91906124f5565b60405180910390f35b61038e600480360381019061038991906127dc565b610a43565b005b610398610a6c565b6040516103a59190612272565b60405180910390f35b6103b6610a71565b6040516103c39190612272565b60405180910390f35b6103e660048036038101906103e19190612aa3565b610a76565b6040516103f3919061232d565b60405180910390f35b61041660048036038101906104119190612ae3565b610b0a565b005b610432600480360381019061042d9190612430565b610bab565b005b60008073ffffffffffffffffffffffffffffffffffffffff168373ffffffffffffffffffffffffffffffffffffffff1614156104a5576040517f08c379a000000000000000000000000000000000000000000000000000000000815260040161049c90612bec565b60405180910390fd5b6065600083815260200190815260200160002060008473ffffffffffffffffffffffffffffffffffffffff1673ffffffffffffffffffffffffffffffffffffffff16815260200190815260200160002054905092915050565b600061050982610bee565b9050919050565b60606067805461051f90612c3b565b80601f016020809104026020016040519081016040528092919081815260200182805461054b90612c3b565b80156105985780601f1061056d57610100808354040283529160200191610598565b820191906000526020600020905b81548152906001019060200180831161057b57829003601f168201915b50505050509050919050565b7f9f2df0fed2c77648de5860a4cc508cd0818c85b8b8a1ab4ceeef8d981c8956a66105d6816105d1610c68565b610c70565b6105f184848460405180602001604052806000815250610d0d565b50505050565b600060976000838152602001908152602001600020600101549050919050565b7f3c11d16cbaffd01df69ce1c404f6340ee057498f5f00246190ea54220576a84881565b610643610c68565b73ffffffffffffffffffffffffffffffffffffffff168573ffffffffffffffffffffffffffffffffffffffff161480610689575061068885610683610c68565b610a76565b5b6106c8576040517f08c379a00000000000000000000000000000000000000000000000000000000081526004016106bf90612cdf565b60405180910390fd5b6106d58585858585610ea4565b5050505050565b6106e5826105f7565b6106f6816106f1610c68565b610c70565b61070083836111bb565b505050565b61070d610c68565b73ffffffffffffffffffffffffffffffffffffffff168173ffffffffffffffffffffffffffffffffffffffff161461077a576040517f08c379a000000000000000000000000000000000000000000000000000000000815260040161077190612d71565b60405180910390fd5b610784828261129c565b5050565b606081518351146107ce576040517f08c379a00000000000000000000000000000000000000000000000000000000081526004016107c590612e03565b60405180910390fd5b6000835167ffffffffffffffff8111156107eb576107ea612515565b5b6040519080825280602002602001820160405280156108195781602001602082028036833780820191505090505b50905060005b84518110156108965761086685828151811061083e5761083d612e23565b5b602002602001015185838151811061085957610858612e23565b5b6020026020010151610434565b82828151811061087957610878612e23565b5b6020026020010181815250508061088f90612e81565b905061081f565b508091505092915050565b600281565b600060019054906101000a900460ff166108ce5760008054906101000a900460ff16156108d7565b6108d661137e565b5b610916576040517f08c379a000000000000000000000000000000000000000000000000000000000815260040161090d90612f3c565b60405180910390fd5b60008060019054906101000a900460ff161590508015610966576001600060016101000a81548160ff02191690831515021790555060016000806101000a81548160ff0219169083151502179055505b6109736000801b3361138f565b80156109945760008060016101000a81548160ff0219169083151502179055505b50565b60006097600084815260200190815260200160002060000160008373ffffffffffffffffffffffffffffffffffffffff1673ffffffffffffffffffffffffffffffffffffffff16815260200190815260200160002060009054906101000a900460ff16905092915050565b6000801b81565b610a1b610a14610c68565b838361139d565b5050565b7f9f2df0fed2c77648de5860a4cc508cd0818c85b8b8a1ab4ceeef8d981c8956a681565b610a4c826105f7565b610a5d81610a58610c68565b610c70565b610a67838361129c565b505050565b600181565b600081565b6000606660008473ffffffffffffffffffffffffffffffffffffffff1673ffffffffffffffffffffffffffffffffffffffff16815260200190815260200160002060008373ffffffffffffffffffffffffffffffffffffffff1673ffffffffffffffffffffffffffffffffffffffff16815260200190815260200160002060009054906101000a900460ff16905092915050565b610b12610c68565b73ffffffffffffffffffffffffffffffffffffffff168573ffffffffffffffffffffffffffffffffffffffff161480610b585750610b5785610b52610c68565b610a76565b5b610b97576040517f08c379a0000000000000000000000000000000000000000000000000000000008152600401610b8e90612fce565b60405180910390fd5b610ba4858585858561150a565b5050505050565b7f3c11d16cbaffd01df69ce1c404f6340ee057498f5f00246190ea54220576a848610bdd81610bd8610c68565b610c70565b610be884848461178f565b50505050565b60007f7965db0b000000000000000000000000000000000000000000000000000000007bffffffffffffffffffffffffffffffffffffffffffffffffffffffff1916827bffffffffffffffffffffffffffffffffffffffffffffffffffffffff19161480610c615750610c60826119ae565b5b9050919050565b600033905090565b610c7a8282610997565b610d0957610c9f8173ffffffffffffffffffffffffffffffffffffffff166014611a90565b610cad8360001c6020611a90565b604051602001610cbe9291906130c2565b6040516020818303038152906040526040517f08c379a0000000000000000000000000000000000000000000000000000000008152600401610d00919061240e565b60405180910390fd5b5050565b600073ffffffffffffffffffffffffffffffffffffffff168473ffffffffffffffffffffffffffffffffffffffff161415610d7d576040517f08c379a0000000000000000000000000000000000000000000000000000000008152600401610d749061316e565b60405180910390fd5b6000610d87610c68565b9050610da881600087610d9988611ccc565b610da288611ccc565b87611d46565b826065600086815260200190815260200160002060008773ffffffffffffffffffffffffffffffffffffffff1673ffffffffffffffffffffffffffffffffffffffff1681526020019081526020016000206000828254610e08919061318e565b925050819055508473ffffffffffffffffffffffffffffffffffffffff16600073ffffffffffffffffffffffffffffffffffffffff168273ffffffffffffffffffffffffffffffffffffffff167fc3d58168c5ae7397731d063d5bbf3d657854427343f4c083240f7aacaa2d0f628787604051610e869291906131e4565b60405180910390a4610e9d81600087878787611d4e565b5050505050565b8151835114610ee8576040517f08c379a0000000000000000000000000000000000000000000000000000000008152600401610edf9061327f565b60405180910390fd5b600073ffffffffffffffffffffffffffffffffffffffff168473ffffffffffffffffffffffffffffffffffffffff161415610f58576040517f08c379a0000000000000000000000000000000000000000000000000000000008152600401610f4f90613311565b60405180910390fd5b6000610f62610c68565b9050610f72818787878787611d46565b60005b8451811015611126576000858281518110610f9357610f92612e23565b5b602002602001015190506000858381518110610fb257610fb1612e23565b5b6020026020010151905060006065600084815260200190815260200160002060008b73ffffffffffffffffffffffffffffffffffffffff1673ffffffffffffffffffffffffffffffffffffffff16815260200190815260200160002054905081811015611054576040517f08c379a000000000000000000000000000000000000000000000000000000000815260040161104b906133a3565b60405180910390fd5b8181036065600085815260200190815260200160002060008c73ffffffffffffffffffffffffffffffffffffffff1673ffffffffffffffffffffffffffffffffffffffff16815260200190815260200160002081905550816065600085815260200190815260200160002060008b73ffffffffffffffffffffffffffffffffffffffff1673ffffffffffffffffffffffffffffffffffffffff168152602001908152602001600020600082825461110b919061318e565b925050819055505050508061111f90612e81565b9050610f75565b508473ffffffffffffffffffffffffffffffffffffffff168673ffffffffffffffffffffffffffffffffffffffff168273ffffffffffffffffffffffffffffffffffffffff167f4a39dc06d4c0dbc64b70af90fd698a233a518aa5d07e595d983b8c0526c8f7fb878760405161119d9291906133c3565b60405180910390a46111b3818787878787611f26565b505050505050565b6111c58282610997565b6112985760016097600084815260200190815260200160002060000160008373ffffffffffffffffffffffffffffffffffffffff1673ffffffffffffffffffffffffffffffffffffffff16815260200190815260200160002060006101000a81548160ff02191690831515021790555061123d610c68565b73ffffffffffffffffffffffffffffffffffffffff168173ffffffffffffffffffffffffffffffffffffffff16837f2f8788117e7eff1d82e926ec794901d17c78024a50270940304540a733656f0d60405160405180910390a45b5050565b6112a68282610997565b1561137a5760006097600084815260200190815260200160002060000160008373ffffffffffffffffffffffffffffffffffffffff1673ffffffffffffffffffffffffffffffffffffffff16815260200190815260200160002060006101000a81548160ff02191690831515021790555061131f610c68565b73ffffffffffffffffffffffffffffffffffffffff168173ffffffffffffffffffffffffffffffffffffffff16837ff6391f5c32d9c69d2a47ea670b442974b53935d1edc7fd64eb21e047a839171b60405160405180910390a45b5050565b6000611389306120fe565b15905090565b61139982826111bb565b5050565b8173ffffffffffffffffffffffffffffffffffffffff168373ffffffffffffffffffffffffffffffffffffffff16141561140c576040517f08c379a00000000000000000000000000000000000000000000000000000000081526004016114039061346c565b60405180910390fd5b80606660008573ffffffffffffffffffffffffffffffffffffffff1673ffffffffffffffffffffffffffffffffffffffff16815260200190815260200160002060008473ffffffffffffffffffffffffffffffffffffffff1673ffffffffffffffffffffffffffffffffffffffff16815260200190815260200160002060006101000a81548160ff0219169083151502179055508173ffffffffffffffffffffffffffffffffffffffff168373ffffffffffffffffffffffffffffffffffffffff167f17307eab39ab6107e8899845ad3d59bd9653f200f220920489ca2b5937696c31836040516114fd919061232d565b60405180910390a3505050565b600073ffffffffffffffffffffffffffffffffffffffff168473ffffffffffffffffffffffffffffffffffffffff16141561157a576040517f08c379a000000000000000000000000000000000000000000000000000000000815260040161157190613311565b60405180910390fd5b6000611584610c68565b90506115a481878761159588611ccc565b61159e88611ccc565b87611d46565b60006065600086815260200190815260200160002060008873ffffffffffffffffffffffffffffffffffffffff1673ffffffffffffffffffffffffffffffffffffffff1681526020019081526020016000205490508381101561163c576040517f08c379a0000000000000000000000000000000000000000000000000000000008152600401611633906133a3565b60405180910390fd5b8381036065600087815260200190815260200160002060008973ffffffffffffffffffffffffffffffffffffffff1673ffffffffffffffffffffffffffffffffffffffff16815260200190815260200160002081905550836065600087815260200190815260200160002060008873ffffffffffffffffffffffffffffffffffffffff1673ffffffffffffffffffffffffffffffffffffffff16815260200190815260200160002060008282546116f3919061318e565b925050819055508573ffffffffffffffffffffffffffffffffffffffff168773ffffffffffffffffffffffffffffffffffffffff168373ffffffffffffffffffffffffffffffffffffffff167fc3d58168c5ae7397731d063d5bbf3d657854427343f4c083240f7aacaa2d0f6288886040516117709291906131e4565b60405180910390a4611786828888888888611d4e565b50505050505050565b600073ffffffffffffffffffffffffffffffffffffffff168373ffffffffffffffffffffffffffffffffffffffff1614156117ff576040517f08c379a00000000000000000000000000000000000000000000000000000000081526004016117f6906134fe565b60405180910390fd5b6000611809610c68565b90506118398185600061181b87611ccc565b61182487611ccc565b60405180602001604052806000815250611d46565b60006065600085815260200190815260200160002060008673ffffffffffffffffffffffffffffffffffffffff1673ffffffffffffffffffffffffffffffffffffffff168152602001908152602001600020549050828110156118d1576040517f08c379a00000000000000000000000000000000000000000000000000000000081526004016118c890613590565b60405180910390fd5b8281036065600086815260200190815260200160002060008773ffffffffffffffffffffffffffffffffffffffff1673ffffffffffffffffffffffffffffffffffffffff16815260200190815260200160002081905550600073ffffffffffffffffffffffffffffffffffffffff168573ffffffffffffffffffffffffffffffffffffffff168373ffffffffffffffffffffffffffffffffffffffff167fc3d58168c5ae7397731d063d5bbf3d657854427343f4c083240f7aacaa2d0f62878760405161199f9291906131e4565b60405180910390a45050505050565b60007fd9b67a26000000000000000000000000000000000000000000000000000000007bffffffffffffffffffffffffffffffffffffffffffffffffffffffff1916827bffffffffffffffffffffffffffffffffffffffffffffffffffffffff19161480611a7957507f0e89341c000000000000000000000000000000000000000000000000000000007bffffffffffffffffffffffffffffffffffffffffffffffffffffffff1916827bffffffffffffffffffffffffffffffffffffffffffffffffffffffff1916145b80611a895750611a8882612111565b5b9050919050565b606060006002836002611aa391906135b0565b611aad919061318e565b67ffffffffffffffff811115611ac657611ac5612515565b5b6040519080825280601f01601f191660200182016040528015611af85781602001600182028036833780820191505090505b5090507f300000000000000000000000000000000000000000000000000000000000000081600081518110611b3057611b2f612e23565b5b60200101907effffffffffffffffffffffffffffffffffffffffffffffffffffffffffffff1916908160001a9053507f780000000000000000000000000000000000000000000000000000000000000081600181518110611b9457611b93612e23565b5b60200101907effffffffffffffffffffffffffffffffffffffffffffffffffffffffffffff1916908160001a90535060006001846002611bd491906135b0565b611bde919061318e565b90505b6001811115611c7e577f3031323334353637383961626364656600000000000000000000000000000000600f861660108110611c2057611c1f612e23565b5b1a60f81b828281518110611c3757611c36612e23565b5b60200101907effffffffffffffffffffffffffffffffffffffffffffffffffffffffffffff1916908160001a905350600485901c945080611c779061360a565b9050611be1565b5060008414611cc2576040517f08c379a0000000000000000000000000000000000000000000000000000000008152600401611cb990613680565b60405180910390fd5b8091505092915050565b60606000600167ffffffffffffffff811115611ceb57611cea612515565b5b604051908082528060200260200182016040528015611d195781602001602082028036833780820191505090505b5090508281600081518110611d3157611d30612e23565b5b60200260200101818152505080915050919050565b505050505050565b611d6d8473ffffffffffffffffffffffffffffffffffffffff166120fe565b15611f1e578373ffffffffffffffffffffffffffffffffffffffff1663f23a6e6187878686866040518663ffffffff1660e01b8152600401611db3959493929190613704565b6020604051808303816000875af1925050508015611def57506040513d601f19601f82011682018060405250810190611dec9190613773565b60015b611e9557611dfb6137ad565b806308c379a01415611e585750611e106137cf565b80611e1b5750611e5a565b806040517f08c379a0000000000000000000000000000000000000000000000000000000008152600401611e4f919061240e565b60405180910390fd5b505b6040517f08c379a0000000000000000000000000000000000000000000000000000000008152600401611e8c906138d7565b60405180910390fd5b63f23a6e6160e01b7bffffffffffffffffffffffffffffffffffffffffffffffffffffffff1916817bffffffffffffffffffffffffffffffffffffffffffffffffffffffff191614611f1c576040517f08c379a0000000000000000000000000000000000000000000000000000000008152600401611f1390613969565b60405180910390fd5b505b505050505050565b611f458473ffffffffffffffffffffffffffffffffffffffff166120fe565b156120f6578373ffffffffffffffffffffffffffffffffffffffff1663bc197c8187878686866040518663ffffffff1660e01b8152600401611f8b959493929190613989565b6020604051808303816000875af1925050508015611fc757506040513d601f19601f82011682018060405250810190611fc49190613773565b60015b61206d57611fd36137ad565b806308c379a014156120305750611fe86137cf565b80611ff35750612032565b806040517f08c379a0000000000000000000000000000000000000000000000000000000008152600401612027919061240e565b60405180910390fd5b505b6040517f08c379a0000000000000000000000000000000000000000000000000000000008152600401612064906138d7565b60405180910390fd5b63bc197c8160e01b7bffffffffffffffffffffffffffffffffffffffffffffffffffffffff1916817bffffffffffffffffffffffffffffffffffffffffffffffffffffffff1916146120f4576040517f08c379a00000000000000000000000000000000000000000000000000000000081526004016120eb90613969565b60405180910390fd5b505b505050505050565b600080823b905060008111915050919050565b60007f01ffc9a7000000000000000000000000000000000000000000000000000000007bffffffffffffffffffffffffffffffffffffffffffffffffffffffff1916827bffffffffffffffffffffffffffffffffffffffffffffffffffffffff1916149050919050565b6000604051905090565b600080fd5b600080fd5b600073ffffffffffffffffffffffffffffffffffffffff82169050919050565b60006121ba8261218f565b9050919050565b6121ca816121af565b81146121d557600080fd5b50565b6000813590506121e7816121c1565b92915050565b6000819050919050565b612200816121ed565b811461220b57600080fd5b50565b60008135905061221d816121f7565b92915050565b6000806040838503121561223a57612239612185565b5b6000612248858286016121d8565b92505060206122598582860161220e565b9150509250929050565b61226c816121ed565b82525050565b60006020820190506122876000830184612263565b92915050565b60007fffffffff0000000000000000000000000000000000000000000000000000000082169050919050565b6122c28161228d565b81146122cd57600080fd5b50565b6000813590506122df816122b9565b92915050565b6000602082840312156122fb576122fa612185565b5b6000612309848285016122d0565b91505092915050565b60008115159050919050565b61232781612312565b82525050565b6000602082019050612342600083018461231e565b92915050565b60006020828403121561235e5761235d612185565b5b600061236c8482850161220e565b91505092915050565b600081519050919050565b600082825260208201905092915050565b60005b838110156123af578082015181840152602081019050612394565b838111156123be576000848401525b50505050565b6000601f19601f8301169050919050565b60006123e082612375565b6123ea8185612380565b93506123fa818560208601612391565b612403816123c4565b840191505092915050565b6000602082019050818103600083015261242881846123d5565b905092915050565b60008060006060848603121561244957612448612185565b5b6000612457868287016121d8565b93505060206124688682870161220e565b92505060406124798682870161220e565b9150509250925092565b6000819050919050565b61249681612483565b81146124a157600080fd5b50565b6000813590506124b38161248d565b92915050565b6000602082840312156124cf576124ce612185565b5b60006124dd848285016124a4565b91505092915050565b6124ef81612483565b82525050565b600060208201905061250a60008301846124e6565b92915050565b600080fd5b7f4e487b7100000000000000000000000000000000000000000000000000000000600052604160045260246000fd5b61254d826123c4565b810181811067ffffffffffffffff8211171561256c5761256b612515565b5b80604052505050565b600061257f61217b565b905061258b8282612544565b919050565b600067ffffffffffffffff8211156125ab576125aa612515565b5b602082029050602081019050919050565b600080fd5b60006125d46125cf84612590565b612575565b905080838252602082019050602084028301858111156125f7576125f66125bc565b5b835b81811015612620578061260c888261220e565b8452602084019350506020810190506125f9565b5050509392505050565b600082601f83011261263f5761263e612510565b5b813561264f8482602086016125c1565b91505092915050565b600080fd5b600067ffffffffffffffff82111561267857612677612515565b5b612681826123c4565b9050602081019050919050565b82818337600083830152505050565b60006126b06126ab8461265d565b612575565b9050828152602081018484840111156126cc576126cb612658565b5b6126d784828561268e565b509392505050565b600082601f8301126126f4576126f3612510565b5b813561270484826020860161269d565b91505092915050565b600080600080600060a0868803121561272957612728612185565b5b6000612737888289016121d8565b9550506020612748888289016121d8565b945050604086013567ffffffffffffffff8111156127695761276861218a565b5b6127758882890161262a565b935050606086013567ffffffffffffffff8111156127965761279561218a565b5b6127a28882890161262a565b925050608086013567ffffffffffffffff8111156127c3576127c261218a565b5b6127cf888289016126df565b9150509295509295909350565b600080604083850312156127f3576127f2612185565b5b6000612801858286016124a4565b9250506020612812858286016121d8565b9150509250929050565b600067ffffffffffffffff82111561283757612836612515565b5b602082029050602081019050919050565b600061285b6128568461281c565b612575565b9050808382526020820190506020840283018581111561287e5761287d6125bc565b5b835b818110156128a7578061289388826121d8565b845260208401935050602081019050612880565b5050509392505050565b600082601f8301126128c6576128c5612510565b5b81356128d6848260208601612848565b91505092915050565b600080604083850312156128f6576128f5612185565b5b600083013567ffffffffffffffff8111156129145761291361218a565b5b612920858286016128b1565b925050602083013567ffffffffffffffff8111156129415761294061218a565b5b61294d8582860161262a565b9150509250929050565b600081519050919050565b600082825260208201905092915050565b6000819050602082019050919050565b61298c816121ed565b82525050565b600061299e8383612983565b60208301905092915050565b6000602082019050919050565b60006129c282612957565b6129cc8185612962565b93506129d783612973565b8060005b83811015612a085781516129ef8882612992565b97506129fa836129aa565b9250506001810190506129db565b5085935050505092915050565b60006020820190508181036000830152612a2f81846129b7565b905092915050565b612a4081612312565b8114612a4b57600080fd5b50565b600081359050612a5d81612a37565b92915050565b60008060408385031215612a7a57612a79612185565b5b6000612a88858286016121d8565b9250506020612a9985828601612a4e565b9150509250929050565b60008060408385031215612aba57612ab9612185565b5b6000612ac8858286016121d8565b9250506020612ad9858286016121d8565b9150509250929050565b600080600080600060a08688031215612aff57612afe612185565b5b6000612b0d888289016121d8565b9550506020612b1e888289016121d8565b9450506040612b2f8882890161220e565b9350506060612b408882890161220e565b925050608086013567ffffffffffffffff811115612b6157612b6061218a565b5b612b6d888289016126df565b9150509295509295909350565b7f455243313135353a2062616c616e636520717565727920666f7220746865207a60008201527f65726f2061646472657373000000000000000000000000000000000000000000602082015250565b6000612bd6602b83612380565b9150612be182612b7a565b604082019050919050565b60006020820190508181036000830152612c0581612bc9565b9050919050565b7f4e487b7100000000000000000000000000000000000000000000000000000000600052602260045260246000fd5b60006002820490506001821680612c5357607f821691505b60208210811415612c6757612c66612c0c565b5b50919050565b7f455243313135353a207472616e736665722063616c6c6572206973206e6f742060008201527f6f776e6572206e6f7220617070726f7665640000000000000000000000000000602082015250565b6000612cc9603283612380565b9150612cd482612c6d565b604082019050919050565b60006020820190508181036000830152612cf881612cbc565b9050919050565b7f416363657373436f6e74726f6c3a2063616e206f6e6c792072656e6f756e636560008201527f20726f6c657320666f722073656c660000000000000000000000000000000000602082015250565b6000612d5b602f83612380565b9150612d6682612cff565b604082019050919050565b60006020820190508181036000830152612d8a81612d4e565b9050919050565b7f455243313135353a206163636f756e747320616e6420696473206c656e67746860008201527f206d69736d617463680000000000000000000000000000000000000000000000602082015250565b6000612ded602983612380565b9150612df882612d91565b604082019050919050565b60006020820190508181036000830152612e1c81612de0565b9050919050565b7f4e487b7100000000000000000000000000000000000000000000000000000000600052603260045260246000fd5b7f4e487b7100000000000000000000000000000000000000000000000000000000600052601160045260246000fd5b6000612e8c826121ed565b91507fffffffffffffffffffffffffffffffffffffffffffffffffffffffffffffffff821415612ebf57612ebe612e52565b5b600182019050919050565b7f496e697469616c697a61626c653a20636f6e747261637420697320616c72656160008201527f647920696e697469616c697a6564000000000000000000000000000000000000602082015250565b6000612f26602e83612380565b9150612f3182612eca565b604082019050919050565b60006020820190508181036000830152612f5581612f19565b9050919050565b7f455243313135353a2063616c6c6572206973206e6f74206f776e6572206e6f7260008201527f20617070726f7665640000000000000000000000000000000000000000000000602082015250565b6000612fb8602983612380565b9150612fc382612f5c565b604082019050919050565b60006020820190508181036000830152612fe781612fab565b9050919050565b600081905092915050565b7f416363657373436f6e74726f6c3a206163636f756e7420000000000000000000600082015250565b600061302f601783612fee565b915061303a82612ff9565b601782019050919050565b600061305082612375565b61305a8185612fee565b935061306a818560208601612391565b80840191505092915050565b7f206973206d697373696e6720726f6c6520000000000000000000000000000000600082015250565b60006130ac601183612fee565b91506130b782613076565b601182019050919050565b60006130cd82613022565b91506130d98285613045565b91506130e48261309f565b91506130f08284613045565b91508190509392505050565b7f455243313135353a206d696e7420746f20746865207a65726f2061646472657360008201527f7300000000000000000000000000000000000000000000000000000000000000602082015250565b6000613158602183612380565b9150613163826130fc565b604082019050919050565b600060208201905081810360008301526131878161314b565b9050919050565b6000613199826121ed565b91506131a4836121ed565b9250827fffffffffffffffffffffffffffffffffffffffffffffffffffffffffffffffff038211156131d9576131d8612e52565b5b828201905092915050565b60006040820190506131f96000830185612263565b6132066020830184612263565b9392505050565b7f455243313135353a2069647320616e6420616d6f756e7473206c656e6774682060008201527f6d69736d61746368000000000000000000000000000000000000000000000000602082015250565b6000613269602883612380565b91506132748261320d565b604082019050919050565b600060208201905081810360008301526132988161325c565b9050919050565b7f455243313135353a207472616e7366657220746f20746865207a65726f20616460008201527f6472657373000000000000000000000000000000000000000000000000000000602082015250565b60006132fb602583612380565b91506133068261329f565b604082019050919050565b6000602082019050818103600083015261332a816132ee565b9050919050565b7f455243313135353a20696e73756666696369656e742062616c616e636520666f60008201527f72207472616e7366657200000000000000000000000000000000000000000000602082015250565b600061338d602a83612380565b915061339882613331565b604082019050919050565b600060208201905081810360008301526133bc81613380565b9050919050565b600060408201905081810360008301526133dd81856129b7565b905081810360208301526133f181846129b7565b90509392505050565b7f455243313135353a2073657474696e6720617070726f76616c2073746174757360008201527f20666f722073656c660000000000000000000000000000000000000000000000602082015250565b6000613456602983612380565b9150613461826133fa565b604082019050919050565b6000602082019050818103600083015261348581613449565b9050919050565b7f455243313135353a206275726e2066726f6d20746865207a65726f206164647260008201527f6573730000000000000000000000000000000000000000000000000000000000602082015250565b60006134e8602383612380565b91506134f38261348c565b604082019050919050565b60006020820190508181036000830152613517816134db565b9050919050565b7f455243313135353a206275726e20616d6f756e7420657863656564732062616c60008201527f616e636500000000000000000000000000000000000000000000000000000000602082015250565b600061357a602483612380565b91506135858261351e565b604082019050919050565b600060208201905081810360008301526135a98161356d565b9050919050565b60006135bb826121ed565b91506135c6836121ed565b9250817fffffffffffffffffffffffffffffffffffffffffffffffffffffffffffffffff04831182151516156135ff576135fe612e52565b5b828202905092915050565b6000613615826121ed565b9150600082141561362957613628612e52565b5b600182039050919050565b7f537472696e67733a20686578206c656e67746820696e73756666696369656e74600082015250565b600061366a602083612380565b915061367582613634565b602082019050919050565b600060208201905081810360008301526136998161365d565b9050919050565b6136a9816121af565b82525050565b600081519050919050565b600082825260208201905092915050565b60006136d6826136af565b6136e081856136ba565b93506136f0818560208601612391565b6136f9816123c4565b840191505092915050565b600060a08201905061371960008301886136a0565b61372660208301876136a0565b6137336040830186612263565b6137406060830185612263565b818103608083015261375281846136cb565b90509695505050505050565b60008151905061376d816122b9565b92915050565b60006020828403121561378957613788612185565b5b60006137978482850161375e565b91505092915050565b60008160e01c9050919050565b600060033d11156137cc5760046000803e6137c96000516137a0565b90505b90565b600060443d10156137df57613862565b6137e761217b565b60043d036004823e80513d602482011167ffffffffffffffff8211171561380f575050613862565b808201805167ffffffffffffffff81111561382d5750505050613862565b80602083010160043d03850181111561384a575050505050613862565b61385982602001850186612544565b82955050505050505b90565b7f455243313135353a207472616e7366657220746f206e6f6e204552433131353560008201527f526563656976657220696d706c656d656e746572000000000000000000000000602082015250565b60006138c1603483612380565b91506138cc82613865565b604082019050919050565b600060208201905081810360008301526138f0816138b4565b9050919050565b7f455243313135353a204552433131353552656365697665722072656a6563746560008201527f6420746f6b656e73000000000000000000000000000000000000000000000000602082015250565b6000613953602883612380565b915061395e826138f7565b604082019050919050565b6000602082019050818103600083015261398281613946565b9050919050565b600060a08201905061399e60008301886136a0565b6139ab60208301876136a0565b81810360408301526139bd81866129b7565b905081810360608301526139d181856129b7565b905081810360808301526139e581846136cb565b9050969550505050505056fea2646970667358221220f10cfc0b03cb35d11d7264b2548eb2b0d9c4ea2fd66d2da00f7a3cd77085d2cf64736f6c634300080c0033",
  "immutableReferences": {},
  "source": "// SPDX-License-Identifier: UNLICENSED\r\n\r\npragma solidity ^0.8.3;\r\n\r\nimport \"@openzeppelin/contracts-upgradeable/access/AccessControlUpgradeable.sol\";\r\nimport \"@openzeppelin/contracts-upgradeable/token/ERC1155/ERC1155Upgradeable.sol\";\r\n\r\ncontract GameItems is ERC1155Upgradeable, AccessControlUpgradeable {\r\n\r\n    bytes32 public constant MINTER_ROLE = keccak256(\"MINTER_ROLE\");\r\n    bytes32 public constant BURNER_ROLE = keccak256(\"BURNER_ROLE\");\r\n\r\n    uint256 public constant BasicRune = 0;\r\n    uint256 public constant IntricateRune = 1;\r\n    uint256 public constant PowerfullRune = 2;\r\n\r\n    function supportsInterface(bytes4 interfaceId) public view virtual override(ERC1155Upgradeable, AccessControlUpgradeable) returns (bool) {\r\n        return super.supportsInterface(interfaceId);\r\n    }\r\n\r\n    function initialize() initializer public {\r\n        _setupRole(DEFAULT_ADMIN_ROLE, msg.sender);\r\n    }\r\n\r\n    function mint(address _address, uint itemId, uint amount) public onlyRole(MINTER_ROLE) {\r\n        _mint(_address, itemId, amount, \"\");\r\n    }\r\n\r\n    function burn(address from, uint id, uint amount) public onlyRole(BURNER_ROLE) {\r\n        _burn(from, id, amount);\r\n    }\r\n}\r\n",
  "sourcePath": "C:\\Users\\jtsch\\OneDrive\\Escritorio\\Python\\SmartContracts-NFT-Agus\\contracts\\GameItems.sol",
  "compiler": {
    "name": "solc",
    "version": "0.8.12+commit.f00d7308.Emscripten.clang"
  },
  "schemaVersion": "3.4.3",
  "updatedAt": "2022-02-22T17:56:51.125Z",
  "devdoc": {
    "kind": "dev",
    "methods": {
      "balanceOf(address,uint256)": {
        "details": "See {IERC1155-balanceOf}. Requirements: - `account` cannot be the zero address."
      },
      "balanceOfBatch(address[],uint256[])": {
        "details": "See {IERC1155-balanceOfBatch}. Requirements: - `accounts` and `ids` must have the same length."
      },
      "getRoleAdmin(bytes32)": {
        "details": "Returns the admin role that controls `role`. See {grantRole} and {revokeRole}. To change a role's admin, use {_setRoleAdmin}."
      },
      "grantRole(bytes32,address)": {
        "details": "Grants `role` to `account`. If `account` had not been already granted `role`, emits a {RoleGranted} event. Requirements: - the caller must have ``role``'s admin role."
      },
      "hasRole(bytes32,address)": {
        "details": "Returns `true` if `account` has been granted `role`."
      },
      "isApprovedForAll(address,address)": {
        "details": "See {IERC1155-isApprovedForAll}."
      },
      "renounceRole(bytes32,address)": {
        "details": "Revokes `role` from the calling account. Roles are often managed via {grantRole} and {revokeRole}: this function's purpose is to provide a mechanism for accounts to lose their privileges if they are compromised (such as when a trusted device is misplaced). If the calling account had been revoked `role`, emits a {RoleRevoked} event. Requirements: - the caller must be `account`."
      },
      "revokeRole(bytes32,address)": {
        "details": "Revokes `role` from `account`. If `account` had been granted `role`, emits a {RoleRevoked} event. Requirements: - the caller must have ``role``'s admin role."
      },
      "safeBatchTransferFrom(address,address,uint256[],uint256[],bytes)": {
        "details": "See {IERC1155-safeBatchTransferFrom}."
      },
      "safeTransferFrom(address,address,uint256,uint256,bytes)": {
        "details": "See {IERC1155-safeTransferFrom}."
      },
      "setApprovalForAll(address,bool)": {
        "details": "See {IERC1155-setApprovalForAll}."
      },
      "uri(uint256)": {
        "details": "See {IERC1155MetadataURI-uri}. This implementation returns the same URI for *all* token types. It relies on the token type ID substitution mechanism https://eips.ethereum.org/EIPS/eip-1155#metadata[defined in the EIP]. Clients calling this function must replace the `\\{id\\}` substring with the actual token type ID."
      }
    },
    "version": 1
  },
  "userdoc": {
    "kind": "user",
    "methods": {},
    "version": 1
  }
}