{
  "contractName": "GameItems",
  "abi": [
    {
      "anonymous": false,
      "inputs": [
        {
          "indexed": true,
          "internalType": "address",
          "name": "account",
          "type": "address"
        },
        {
          "indexed": true,
          "internalType": "address",
          "name": "operator",
          "type": "address"
        },
        {
          "indexed": false,
          "internalType": "bool",
          "name": "approved",
          "type": "bool"
        }
      ],
      "name": "ApprovalForAll",
      "type": "event"
    },
    {
      "anonymous": false,
      "inputs": [
        {
          "indexed": true,
          "internalType": "address",
          "name": "operator",
          "type": "address"
        },
        {
          "indexed": true,
          "internalType": "address",
          "name": "from",
          "type": "address"
        },
        {
          "indexed": true,
          "internalType": "address",
          "name": "to",
          "type": "address"
        },
        {
          "indexed": false,
          "internalType": "uint256[]",
          "name": "ids",
          "type": "uint256[]"
        },
        {
          "indexed": false,
          "internalType": "uint256[]",
          "name": "values",
          "type": "uint256[]"
        }
      ],
      "name": "TransferBatch",
      "type": "event"
    },
    {
      "anonymous": false,
      "inputs": [
        {
          "indexed": true,
          "internalType": "address",
          "name": "operator",
          "type": "address"
        },
        {
          "indexed": true,
          "internalType": "address",
          "name": "from",
          "type": "address"
        },
        {
          "indexed": true,
          "internalType": "address",
          "name": "to",
          "type": "address"
        },
        {
          "indexed": false,
          "internalType": "uint256",
          "name": "id",
          "type": "uint256"
        },
        {
          "indexed": false,
          "internalType": "uint256",
          "name": "value",
          "type": "uint256"
        }
      ],
      "name": "TransferSingle",
      "type": "event"
    },
    {
      "anonymous": false,
      "inputs": [
        {
          "indexed": false,
          "internalType": "string",
          "name": "value",
          "type": "string"
        },
        {
          "indexed": true,
          "internalType": "uint256",
          "name": "id",
          "type": "uint256"
        }
      ],
      "name": "URI",
      "type": "event"
    },
    {
      "inputs": [],
      "name": "BasicRune",
      "outputs": [
        {
          "internalType": "uint256",
          "name": "",
          "type": "uint256"
        }
      ],
      "stateMutability": "view",
      "type": "function",
      "constant": true
    },
    {
      "inputs": [],
      "name": "IntricateRune",
      "outputs": [
        {
          "internalType": "uint256",
          "name": "",
          "type": "uint256"
        }
      ],
      "stateMutability": "view",
      "type": "function",
      "constant": true
    },
    {
      "inputs": [],
      "name": "PowerfullRune",
      "outputs": [
        {
          "internalType": "uint256",
          "name": "",
          "type": "uint256"
        }
      ],
      "stateMutability": "view",
      "type": "function",
      "constant": true
    },
    {
      "inputs": [
        {
          "internalType": "address",
          "name": "account",
          "type": "address"
        },
        {
          "internalType": "uint256",
          "name": "id",
          "type": "uint256"
        }
      ],
      "name": "balanceOf",
      "outputs": [
        {
          "internalType": "uint256",
          "name": "",
          "type": "uint256"
        }
      ],
      "stateMutability": "view",
      "type": "function",
      "constant": true
    },
    {
      "inputs": [
        {
          "internalType": "address[]",
          "name": "accounts",
          "type": "address[]"
        },
        {
          "internalType": "uint256[]",
          "name": "ids",
          "type": "uint256[]"
        }
      ],
      "name": "balanceOfBatch",
      "outputs": [
        {
          "internalType": "uint256[]",
          "name": "",
          "type": "uint256[]"
        }
      ],
      "stateMutability": "view",
      "type": "function",
      "constant": true
    },
    {
      "inputs": [
        {
          "internalType": "address",
          "name": "account",
          "type": "address"
        },
        {
          "internalType": "address",
          "name": "operator",
          "type": "address"
        }
      ],
      "name": "isApprovedForAll",
      "outputs": [
        {
          "internalType": "bool",
          "name": "",
          "type": "bool"
        }
      ],
      "stateMutability": "view",
      "type": "function",
      "constant": true
    },
    {
      "inputs": [
        {
          "internalType": "address",
          "name": "from",
          "type": "address"
        },
        {
          "internalType": "address",
          "name": "to",
          "type": "address"
        },
        {
          "internalType": "uint256[]",
          "name": "ids",
          "type": "uint256[]"
        },
        {
          "internalType": "uint256[]",
          "name": "amounts",
          "type": "uint256[]"
        },
        {
          "internalType": "bytes",
          "name": "data",
          "type": "bytes"
        }
      ],
      "name": "safeBatchTransferFrom",
      "outputs": [],
      "stateMutability": "nonpayable",
      "type": "function"
    },
    {
      "inputs": [
        {
          "internalType": "address",
          "name": "from",
          "type": "address"
        },
        {
          "internalType": "address",
          "name": "to",
          "type": "address"
        },
        {
          "internalType": "uint256",
          "name": "id",
          "type": "uint256"
        },
        {
          "internalType": "uint256",
          "name": "amount",
          "type": "uint256"
        },
        {
          "internalType": "bytes",
          "name": "data",
          "type": "bytes"
        }
      ],
      "name": "safeTransferFrom",
      "outputs": [],
      "stateMutability": "nonpayable",
      "type": "function"
    },
    {
      "inputs": [
        {
          "internalType": "address",
          "name": "operator",
          "type": "address"
        },
        {
          "internalType": "bool",
          "name": "approved",
          "type": "bool"
        }
      ],
      "name": "setApprovalForAll",
      "outputs": [],
      "stateMutability": "nonpayable",
      "type": "function"
    },
    {
      "inputs": [
        {
          "internalType": "bytes4",
          "name": "interfaceId",
          "type": "bytes4"
        }
      ],
      "name": "supportsInterface",
      "outputs": [
        {
          "internalType": "bool",
          "name": "",
          "type": "bool"
        }
      ],
      "stateMutability": "view",
      "type": "function",
      "constant": true
    },
    {
      "inputs": [
        {
          "internalType": "uint256",
          "name": "",
          "type": "uint256"
        }
      ],
      "name": "uri",
      "outputs": [
        {
          "internalType": "string",
          "name": "",
          "type": "string"
        }
      ],
      "stateMutability": "view",
      "type": "function",
      "constant": true
    },
    {
      "inputs": [],
      "name": "initialize",
      "outputs": [],
      "stateMutability": "nonpayable",
      "type": "function"
    },
    {
      "inputs": [
        {
          "internalType": "address",
          "name": "_address",
          "type": "address"
        },
        {
          "internalType": "uint256",
          "name": "itemId",
          "type": "uint256"
        },
        {
          "internalType": "uint256",
          "name": "amount",
          "type": "uint256"
        }
      ],
      "name": "mint",
      "outputs": [],
      "stateMutability": "payable",
      "type": "function",
      "payable": true
    },
    {
      "inputs": [
        {
          "internalType": "address",
          "name": "newOwner",
          "type": "address"
        }
      ],
      "name": "transferOwnership",
      "outputs": [],
      "stateMutability": "payable",
      "type": "function",
      "payable": true
    },
    {
      "inputs": [
        {
          "internalType": "address",
          "name": "newQuest",
          "type": "address"
        }
      ],
      "name": "transferQuestAddress",
      "outputs": [],
      "stateMutability": "payable",
      "type": "function",
      "payable": true
    }
  ],
  "bytecode": "0x608060405234801561001057600080fd5b50612d87806100206000396000f3fe6080604052600436106100e75760003560e01c80638129fc1c1161008a578063deabf5d811610059578063deabf5d8146102d7578063e985e9c514610302578063f242432a1461033f578063f2fde38b14610368576100e7565b80638129fc1c14610250578063a22cb46514610267578063d46a669d14610290578063d8b5e34e146102ac576100e7565b8063156e29f6116100c6578063156e29f6146101a35780632eb2c2d6146101bf5780634e1273f4146101e857806369cdd8c114610225576100e7565b8062fdd58e146100ec57806301ffc9a7146101295780630e89341c14610166575b600080fd5b3480156100f857600080fd5b50610113600480360381019061010e91906119d7565b610384565b6040516101209190611a26565b60405180910390f35b34801561013557600080fd5b50610150600480360381019061014b9190611a99565b61044e565b60405161015d9190611ae1565b60405180910390f35b34801561017257600080fd5b5061018d60048036038101906101889190611afc565b610530565b60405161019a9190611bc2565b60405180910390f35b6101bd60048036038101906101b89190611be4565b6105c4565b005b3480156101cb57600080fd5b506101e660048036038101906101e19190611e34565b61063e565b005b3480156101f457600080fd5b5061020f600480360381019061020a9190611fc6565b6106df565b60405161021c91906120fc565b60405180910390f35b34801561023157600080fd5b5061023a6107f8565b6040516102479190611a26565b60405180910390f35b34801561025c57600080fd5b506102656107fd565b005b34801561027357600080fd5b5061028e6004803603810190610289919061214a565b610936565b005b6102aa60048036038101906102a5919061218a565b61094c565b005b3480156102b857600080fd5b506102c16109ea565b6040516102ce9190611a26565b60405180910390f35b3480156102e357600080fd5b506102ec6109ef565b6040516102f99190611a26565b60405180910390f35b34801561030e57600080fd5b50610329600480360381019061032491906121b7565b6109f4565b6040516103369190611ae1565b60405180910390f35b34801561034b57600080fd5b50610366600480360381019061036191906121f7565b610a88565b005b610382600480360381019061037d919061218a565b610b29565b005b60008073ffffffffffffffffffffffffffffffffffffffff168373ffffffffffffffffffffffffffffffffffffffff1614156103f5576040517f08c379a00000000000000000000000000000000000000000000000000000000081526004016103ec90612300565b60405180910390fd5b6065600083815260200190815260200160002060008473ffffffffffffffffffffffffffffffffffffffff1673ffffffffffffffffffffffffffffffffffffffff16815260200190815260200160002054905092915050565b60007fd9b67a26000000000000000000000000000000000000000000000000000000007bffffffffffffffffffffffffffffffffffffffffffffffffffffffff1916827bffffffffffffffffffffffffffffffffffffffffffffffffffffffff1916148061051957507f0e89341c000000000000000000000000000000000000000000000000000000007bffffffffffffffffffffffffffffffffffffffffffffffffffffffff1916827bffffffffffffffffffffffffffffffffffffffffffffffffffffffff1916145b80610529575061052882610bc7565b5b9050919050565b60606067805461053f9061234f565b80601f016020809104026020016040519081016040528092919081815260200182805461056b9061234f565b80156105b85780601f1061058d576101008083540402835291602001916105b8565b820191906000526020600020905b81548152906001019060200180831161059b57829003601f168201915b50505050509050919050565b3373ffffffffffffffffffffffffffffffffffffffff16609860009054906101000a900473ffffffffffffffffffffffffffffffffffffffff1673ffffffffffffffffffffffffffffffffffffffff161461061e57600080fd5b61063983838360405180602001604052806000815250610c31565b505050565b610646610dc8565b73ffffffffffffffffffffffffffffffffffffffff168573ffffffffffffffffffffffffffffffffffffffff16148061068c575061068b85610686610dc8565b6109f4565b5b6106cb576040517f08c379a00000000000000000000000000000000000000000000000000000000081526004016106c2906123f3565b60405180910390fd5b6106d88585858585610dd0565b5050505050565b60608151835114610725576040517f08c379a000000000000000000000000000000000000000000000000000000000815260040161071c90612485565b60405180910390fd5b6000835167ffffffffffffffff81111561074257610741611c3c565b5b6040519080825280602002602001820160405280156107705781602001602082028036833780820191505090505b50905060005b84518110156107ed576107bd858281518110610795576107946124a5565b5b60200260200101518583815181106107b0576107af6124a5565b5b6020026020010151610384565b8282815181106107d0576107cf6124a5565b5b602002602001018181525050806107e690612503565b9050610776565b508091505092915050565b600281565b600060019054906101000a900460ff166108255760008054906101000a900460ff161561082e565b61082d6110e7565b5b61086d576040517f08c379a0000000000000000000000000000000000000000000000000000000008152600401610864906125be565b60405180910390fd5b60008060019054906101000a900460ff1615905080156108bd576001600060016101000a81548160ff02191690831515021790555060016000806101000a81548160ff0219169083151502179055505b73f577601a5ef1d5079da672f01d7ab3b80dd2bd1d609760006101000a81548173ffffffffffffffffffffffffffffffffffffffff021916908373ffffffffffffffffffffffffffffffffffffffff16021790555080156109335760008060016101000a81548160ff0219169083151502179055505b50565b610948610941610dc8565b83836110f8565b5050565b3373ffffffffffffffffffffffffffffffffffffffff16609760009054906101000a900473ffffffffffffffffffffffffffffffffffffffff1673ffffffffffffffffffffffffffffffffffffffff16146109a657600080fd5b80609860006101000a81548173ffffffffffffffffffffffffffffffffffffffff021916908373ffffffffffffffffffffffffffffffffffffffff16021790555050565b600181565b600081565b6000606660008473ffffffffffffffffffffffffffffffffffffffff1673ffffffffffffffffffffffffffffffffffffffff16815260200190815260200160002060008373ffffffffffffffffffffffffffffffffffffffff1673ffffffffffffffffffffffffffffffffffffffff16815260200190815260200160002060009054906101000a900460ff16905092915050565b610a90610dc8565b73ffffffffffffffffffffffffffffffffffffffff168573ffffffffffffffffffffffffffffffffffffffff161480610ad65750610ad585610ad0610dc8565b6109f4565b5b610b15576040517f08c379a0000000000000000000000000000000000000000000000000000000008152600401610b0c90612650565b60405180910390fd5b610b228585858585611265565b5050505050565b3373ffffffffffffffffffffffffffffffffffffffff16609760009054906101000a900473ffffffffffffffffffffffffffffffffffffffff1673ffffffffffffffffffffffffffffffffffffffff1614610b8357600080fd5b80609760006101000a81548173ffffffffffffffffffffffffffffffffffffffff021916908373ffffffffffffffffffffffffffffffffffffffff16021790555050565b60007f01ffc9a7000000000000000000000000000000000000000000000000000000007bffffffffffffffffffffffffffffffffffffffffffffffffffffffff1916827bffffffffffffffffffffffffffffffffffffffffffffffffffffffff1916149050919050565b600073ffffffffffffffffffffffffffffffffffffffff168473ffffffffffffffffffffffffffffffffffffffff161415610ca1576040517f08c379a0000000000000000000000000000000000000000000000000000000008152600401610c98906126e2565b60405180910390fd5b6000610cab610dc8565b9050610ccc81600087610cbd886114ea565b610cc6886114ea565b87611564565b826065600086815260200190815260200160002060008773ffffffffffffffffffffffffffffffffffffffff1673ffffffffffffffffffffffffffffffffffffffff1681526020019081526020016000206000828254610d2c9190612702565b925050819055508473ffffffffffffffffffffffffffffffffffffffff16600073ffffffffffffffffffffffffffffffffffffffff168273ffffffffffffffffffffffffffffffffffffffff167fc3d58168c5ae7397731d063d5bbf3d657854427343f4c083240f7aacaa2d0f628787604051610daa929190612758565b60405180910390a4610dc18160008787878761156c565b5050505050565b600033905090565b8151835114610e14576040517f08c379a0000000000000000000000000000000000000000000000000000000008152600401610e0b906127f3565b60405180910390fd5b600073ffffffffffffffffffffffffffffffffffffffff168473ffffffffffffffffffffffffffffffffffffffff161415610e84576040517f08c379a0000000000000000000000000000000000000000000000000000000008152600401610e7b90612885565b60405180910390fd5b6000610e8e610dc8565b9050610e9e818787878787611564565b60005b8451811015611052576000858281518110610ebf57610ebe6124a5565b5b602002602001015190506000858381518110610ede57610edd6124a5565b5b6020026020010151905060006065600084815260200190815260200160002060008b73ffffffffffffffffffffffffffffffffffffffff1673ffffffffffffffffffffffffffffffffffffffff16815260200190815260200160002054905081811015610f80576040517f08c379a0000000000000000000000000000000000000000000000000000000008152600401610f7790612917565b60405180910390fd5b8181036065600085815260200190815260200160002060008c73ffffffffffffffffffffffffffffffffffffffff1673ffffffffffffffffffffffffffffffffffffffff16815260200190815260200160002081905550816065600085815260200190815260200160002060008b73ffffffffffffffffffffffffffffffffffffffff1673ffffffffffffffffffffffffffffffffffffffff16815260200190815260200160002060008282546110379190612702565b925050819055505050508061104b90612503565b9050610ea1565b508473ffffffffffffffffffffffffffffffffffffffff168673ffffffffffffffffffffffffffffffffffffffff168273ffffffffffffffffffffffffffffffffffffffff167f4a39dc06d4c0dbc64b70af90fd698a233a518aa5d07e595d983b8c0526c8f7fb87876040516110c9929190612937565b60405180910390a46110df818787878787611744565b505050505050565b60006110f23061191c565b15905090565b8173ffffffffffffffffffffffffffffffffffffffff168373ffffffffffffffffffffffffffffffffffffffff161415611167576040517f08c379a000000000000000000000000000000000000000000000000000000000815260040161115e906129e0565b60405180910390fd5b80606660008573ffffffffffffffffffffffffffffffffffffffff1673ffffffffffffffffffffffffffffffffffffffff16815260200190815260200160002060008473ffffffffffffffffffffffffffffffffffffffff1673ffffffffffffffffffffffffffffffffffffffff16815260200190815260200160002060006101000a81548160ff0219169083151502179055508173ffffffffffffffffffffffffffffffffffffffff168373ffffffffffffffffffffffffffffffffffffffff167f17307eab39ab6107e8899845ad3d59bd9653f200f220920489ca2b5937696c31836040516112589190611ae1565b60405180910390a3505050565b600073ffffffffffffffffffffffffffffffffffffffff168473ffffffffffffffffffffffffffffffffffffffff1614156112d5576040517f08c379a00000000000000000000000000000000000000000000000000000000081526004016112cc90612885565b60405180910390fd5b60006112df610dc8565b90506112ff8187876112f0886114ea565b6112f9886114ea565b87611564565b60006065600086815260200190815260200160002060008873ffffffffffffffffffffffffffffffffffffffff1673ffffffffffffffffffffffffffffffffffffffff16815260200190815260200160002054905083811015611397576040517f08c379a000000000000000000000000000000000000000000000000000000000815260040161138e90612917565b60405180910390fd5b8381036065600087815260200190815260200160002060008973ffffffffffffffffffffffffffffffffffffffff1673ffffffffffffffffffffffffffffffffffffffff16815260200190815260200160002081905550836065600087815260200190815260200160002060008873ffffffffffffffffffffffffffffffffffffffff1673ffffffffffffffffffffffffffffffffffffffff168152602001908152602001600020600082825461144e9190612702565b925050819055508573ffffffffffffffffffffffffffffffffffffffff168773ffffffffffffffffffffffffffffffffffffffff168373ffffffffffffffffffffffffffffffffffffffff167fc3d58168c5ae7397731d063d5bbf3d657854427343f4c083240f7aacaa2d0f6288886040516114cb929190612758565b60405180910390a46114e182888888888861156c565b50505050505050565b60606000600167ffffffffffffffff81111561150957611508611c3c565b5b6040519080825280602002602001820160405280156115375781602001602082028036833780820191505090505b509050828160008151811061154f5761154e6124a5565b5b60200260200101818152505080915050919050565b505050505050565b61158b8473ffffffffffffffffffffffffffffffffffffffff1661191c565b1561173c578373ffffffffffffffffffffffffffffffffffffffff1663f23a6e6187878686866040518663ffffffff1660e01b81526004016115d1959493929190612a64565b6020604051808303816000875af192505050801561160d57506040513d601f19601f8201168201806040525081019061160a9190612ad3565b60015b6116b357611619612b0d565b806308c379a01415611676575061162e612b2f565b806116395750611678565b806040517f08c379a000000000000000000000000000000000000000000000000000000000815260040161166d9190611bc2565b60405180910390fd5b505b6040517f08c379a00000000000000000000000000000000000000000000000000000000081526004016116aa90612c37565b60405180910390fd5b63f23a6e6160e01b7bffffffffffffffffffffffffffffffffffffffffffffffffffffffff1916817bffffffffffffffffffffffffffffffffffffffffffffffffffffffff19161461173a576040517f08c379a000000000000000000000000000000000000000000000000000000000815260040161173190612cc9565b60405180910390fd5b505b505050505050565b6117638473ffffffffffffffffffffffffffffffffffffffff1661191c565b15611914578373ffffffffffffffffffffffffffffffffffffffff1663bc197c8187878686866040518663ffffffff1660e01b81526004016117a9959493929190612ce9565b6020604051808303816000875af19250505080156117e557506040513d601f19601f820116820180604052508101906117e29190612ad3565b60015b61188b576117f1612b0d565b806308c379a0141561184e5750611806612b2f565b806118115750611850565b806040517f08c379a00000000000000000000000000000000000000000000000000000000081526004016118459190611bc2565b60405180910390fd5b505b6040517f08c379a000000000000000000000000000000000000000000000000000000000815260040161188290612c37565b60405180910390fd5b63bc197c8160e01b7bffffffffffffffffffffffffffffffffffffffffffffffffffffffff1916817bffffffffffffffffffffffffffffffffffffffffffffffffffffffff191614611912576040517f08c379a000000000000000000000000000000000000000000000000000000000815260040161190990612cc9565b60405180910390fd5b505b505050505050565b600080823b905060008111915050919050565b6000604051905090565b600080fd5b600080fd5b600073ffffffffffffffffffffffffffffffffffffffff82169050919050565b600061196e82611943565b9050919050565b61197e81611963565b811461198957600080fd5b50565b60008135905061199b81611975565b92915050565b6000819050919050565b6119b4816119a1565b81146119bf57600080fd5b50565b6000813590506119d1816119ab565b92915050565b600080604083850312156119ee576119ed611939565b5b60006119fc8582860161198c565b9250506020611a0d858286016119c2565b9150509250929050565b611a20816119a1565b82525050565b6000602082019050611a3b6000830184611a17565b92915050565b60007fffffffff0000000000000000000000000000000000000000000000000000000082169050919050565b611a7681611a41565b8114611a8157600080fd5b50565b600081359050611a9381611a6d565b92915050565b600060208284031215611aaf57611aae611939565b5b6000611abd84828501611a84565b91505092915050565b60008115159050919050565b611adb81611ac6565b82525050565b6000602082019050611af66000830184611ad2565b92915050565b600060208284031215611b1257611b11611939565b5b6000611b20848285016119c2565b91505092915050565b600081519050919050565b600082825260208201905092915050565b60005b83811015611b63578082015181840152602081019050611b48565b83811115611b72576000848401525b50505050565b6000601f19601f8301169050919050565b6000611b9482611b29565b611b9e8185611b34565b9350611bae818560208601611b45565b611bb781611b78565b840191505092915050565b60006020820190508181036000830152611bdc8184611b89565b905092915050565b600080600060608486031215611bfd57611bfc611939565b5b6000611c0b8682870161198c565b9350506020611c1c868287016119c2565b9250506040611c2d868287016119c2565b9150509250925092565b600080fd5b7f4e487b7100000000000000000000000000000000000000000000000000000000600052604160045260246000fd5b611c7482611b78565b810181811067ffffffffffffffff82111715611c9357611c92611c3c565b5b80604052505050565b6000611ca661192f565b9050611cb28282611c6b565b919050565b600067ffffffffffffffff821115611cd257611cd1611c3c565b5b602082029050602081019050919050565b600080fd5b6000611cfb611cf684611cb7565b611c9c565b90508083825260208201905060208402830185811115611d1e57611d1d611ce3565b5b835b81811015611d475780611d3388826119c2565b845260208401935050602081019050611d20565b5050509392505050565b600082601f830112611d6657611d65611c37565b5b8135611d76848260208601611ce8565b91505092915050565b600080fd5b600067ffffffffffffffff821115611d9f57611d9e611c3c565b5b611da882611b78565b9050602081019050919050565b82818337600083830152505050565b6000611dd7611dd284611d84565b611c9c565b905082815260208101848484011115611df357611df2611d7f565b5b611dfe848285611db5565b509392505050565b600082601f830112611e1b57611e1a611c37565b5b8135611e2b848260208601611dc4565b91505092915050565b600080600080600060a08688031215611e5057611e4f611939565b5b6000611e5e8882890161198c565b9550506020611e6f8882890161198c565b945050604086013567ffffffffffffffff811115611e9057611e8f61193e565b5b611e9c88828901611d51565b935050606086013567ffffffffffffffff811115611ebd57611ebc61193e565b5b611ec988828901611d51565b925050608086013567ffffffffffffffff811115611eea57611ee961193e565b5b611ef688828901611e06565b9150509295509295909350565b600067ffffffffffffffff821115611f1e57611f1d611c3c565b5b602082029050602081019050919050565b6000611f42611f3d84611f03565b611c9c565b90508083825260208201905060208402830185811115611f6557611f64611ce3565b5b835b81811015611f8e5780611f7a888261198c565b845260208401935050602081019050611f67565b5050509392505050565b600082601f830112611fad57611fac611c37565b5b8135611fbd848260208601611f2f565b91505092915050565b60008060408385031215611fdd57611fdc611939565b5b600083013567ffffffffffffffff811115611ffb57611ffa61193e565b5b61200785828601611f98565b925050602083013567ffffffffffffffff8111156120285761202761193e565b5b61203485828601611d51565b9150509250929050565b600081519050919050565b600082825260208201905092915050565b6000819050602082019050919050565b612073816119a1565b82525050565b6000612085838361206a565b60208301905092915050565b6000602082019050919050565b60006120a98261203e565b6120b38185612049565b93506120be8361205a565b8060005b838110156120ef5781516120d68882612079565b97506120e183612091565b9250506001810190506120c2565b5085935050505092915050565b60006020820190508181036000830152612116818461209e565b905092915050565b61212781611ac6565b811461213257600080fd5b50565b6000813590506121448161211e565b92915050565b6000806040838503121561216157612160611939565b5b600061216f8582860161198c565b925050602061218085828601612135565b9150509250929050565b6000602082840312156121a05761219f611939565b5b60006121ae8482850161198c565b91505092915050565b600080604083850312156121ce576121cd611939565b5b60006121dc8582860161198c565b92505060206121ed8582860161198c565b9150509250929050565b600080600080600060a0868803121561221357612212611939565b5b60006122218882890161198c565b95505060206122328882890161198c565b9450506040612243888289016119c2565b9350506060612254888289016119c2565b925050608086013567ffffffffffffffff8111156122755761227461193e565b5b61228188828901611e06565b9150509295509295909350565b7f455243313135353a2062616c616e636520717565727920666f7220746865207a60008201527f65726f2061646472657373000000000000000000000000000000000000000000602082015250565b60006122ea602b83611b34565b91506122f58261228e565b604082019050919050565b60006020820190508181036000830152612319816122dd565b9050919050565b7f4e487b7100000000000000000000000000000000000000000000000000000000600052602260045260246000fd5b6000600282049050600182168061236757607f821691505b6020821081141561237b5761237a612320565b5b50919050565b7f455243313135353a207472616e736665722063616c6c6572206973206e6f742060008201527f6f776e6572206e6f7220617070726f7665640000000000000000000000000000602082015250565b60006123dd603283611b34565b91506123e882612381565b604082019050919050565b6000602082019050818103600083015261240c816123d0565b9050919050565b7f455243313135353a206163636f756e747320616e6420696473206c656e67746860008201527f206d69736d617463680000000000000000000000000000000000000000000000602082015250565b600061246f602983611b34565b915061247a82612413565b604082019050919050565b6000602082019050818103600083015261249e81612462565b9050919050565b7f4e487b7100000000000000000000000000000000000000000000000000000000600052603260045260246000fd5b7f4e487b7100000000000000000000000000000000000000000000000000000000600052601160045260246000fd5b600061250e826119a1565b91507fffffffffffffffffffffffffffffffffffffffffffffffffffffffffffffffff821415612541576125406124d4565b5b600182019050919050565b7f496e697469616c697a61626c653a20636f6e747261637420697320616c72656160008201527f647920696e697469616c697a6564000000000000000000000000000000000000602082015250565b60006125a8602e83611b34565b91506125b38261254c565b604082019050919050565b600060208201905081810360008301526125d78161259b565b9050919050565b7f455243313135353a2063616c6c6572206973206e6f74206f776e6572206e6f7260008201527f20617070726f7665640000000000000000000000000000000000000000000000602082015250565b600061263a602983611b34565b9150612645826125de565b604082019050919050565b600060208201905081810360008301526126698161262d565b9050919050565b7f455243313135353a206d696e7420746f20746865207a65726f2061646472657360008201527f7300000000000000000000000000000000000000000000000000000000000000602082015250565b60006126cc602183611b34565b91506126d782612670565b604082019050919050565b600060208201905081810360008301526126fb816126bf565b9050919050565b600061270d826119a1565b9150612718836119a1565b9250827fffffffffffffffffffffffffffffffffffffffffffffffffffffffffffffffff0382111561274d5761274c6124d4565b5b828201905092915050565b600060408201905061276d6000830185611a17565b61277a6020830184611a17565b9392505050565b7f455243313135353a2069647320616e6420616d6f756e7473206c656e6774682060008201527f6d69736d61746368000000000000000000000000000000000000000000000000602082015250565b60006127dd602883611b34565b91506127e882612781565b604082019050919050565b6000602082019050818103600083015261280c816127d0565b9050919050565b7f455243313135353a207472616e7366657220746f20746865207a65726f20616460008201527f6472657373000000000000000000000000000000000000000000000000000000602082015250565b600061286f602583611b34565b915061287a82612813565b604082019050919050565b6000602082019050818103600083015261289e81612862565b9050919050565b7f455243313135353a20696e73756666696369656e742062616c616e636520666f60008201527f72207472616e7366657200000000000000000000000000000000000000000000602082015250565b6000612901602a83611b34565b915061290c826128a5565b604082019050919050565b60006020820190508181036000830152612930816128f4565b9050919050565b60006040820190508181036000830152612951818561209e565b90508181036020830152612965818461209e565b90509392505050565b7f455243313135353a2073657474696e6720617070726f76616c2073746174757360008201527f20666f722073656c660000000000000000000000000000000000000000000000602082015250565b60006129ca602983611b34565b91506129d58261296e565b604082019050919050565b600060208201905081810360008301526129f9816129bd565b9050919050565b612a0981611963565b82525050565b600081519050919050565b600082825260208201905092915050565b6000612a3682612a0f565b612a408185612a1a565b9350612a50818560208601611b45565b612a5981611b78565b840191505092915050565b600060a082019050612a796000830188612a00565b612a866020830187612a00565b612a936040830186611a17565b612aa06060830185611a17565b8181036080830152612ab28184612a2b565b90509695505050505050565b600081519050612acd81611a6d565b92915050565b600060208284031215612ae957612ae8611939565b5b6000612af784828501612abe565b91505092915050565b60008160e01c9050919050565b600060033d1115612b2c5760046000803e612b29600051612b00565b90505b90565b600060443d1015612b3f57612bc2565b612b4761192f565b60043d036004823e80513d602482011167ffffffffffffffff82111715612b6f575050612bc2565b808201805167ffffffffffffffff811115612b8d5750505050612bc2565b80602083010160043d038501811115612baa575050505050612bc2565b612bb982602001850186611c6b565b82955050505050505b90565b7f455243313135353a207472616e7366657220746f206e6f6e204552433131353560008201527f526563656976657220696d706c656d656e746572000000000000000000000000602082015250565b6000612c21603483611b34565b9150612c2c82612bc5565b604082019050919050565b60006020820190508181036000830152612c5081612c14565b9050919050565b7f455243313135353a204552433131353552656365697665722072656a6563746560008201527f6420746f6b656e73000000000000000000000000000000000000000000000000602082015250565b6000612cb3602883611b34565b9150612cbe82612c57565b604082019050919050565b60006020820190508181036000830152612ce281612ca6565b9050919050565b600060a082019050612cfe6000830188612a00565b612d0b6020830187612a00565b8181036040830152612d1d818661209e565b90508181036060830152612d31818561209e565b90508181036080830152612d458184612a2b565b9050969550505050505056fea2646970667358221220431596dc7240e79fa9d3ae862d51efb5bc3a1c9d3e1b13480eb532e7873429a764736f6c634300080b0033",
  "immutableReferences": {},
  "source": "// SPDX-License-Identifier: UNLICENSED\r\n\r\npragma solidity ^0.8.3;\r\n\r\nimport \"../node_modules/@openzeppelin/contracts-upgradeable/token/ERC1155/ERC1155Upgradeable.sol\";\r\n\r\ncontract GameItems is ERC1155Upgradeable {\r\n\r\n    address ContractOwner;\r\n    address QuestContract;\r\n\r\n    uint256 public constant BasicRune = 0;\r\n    uint256 public constant IntricateRune = 1;\r\n    uint256 public constant PowerfullRune = 2;\r\n\r\n    modifier onlyOwner() {\r\n        require(ContractOwner == msg.sender);\r\n        _;\r\n    }\r\n\r\n    modifier onlyQuestContract() {\r\n        require(QuestContract == msg.sender);\r\n        _;\r\n    }\r\n\r\n    function initialize() initializer public {\r\n        ContractOwner = 0xf577601a5eF1d5079Da672f01D7aB3b80dD2bd1D;\r\n    }\r\n\r\n    function mint(address _address, uint itemId, uint amount) public payable onlyQuestContract() {\r\n        _mint(_address, itemId, amount, \"\");\r\n    }\r\n\r\n\r\n    function transferOwnership(address newOwner) public payable onlyOwner() {\r\n        ContractOwner = newOwner;\r\n    }\r\n\r\n    function transferQuestAddress(address newQuest) public payable onlyOwner() {\r\n        QuestContract = newQuest;\r\n    }\r\n}\r\n",
  "sourcePath": "C:\\Users\\jtsch\\OneDrive\\Escritorio\\Python\\SmartContracts-NFT-Agus\\contracts\\GameItems.sol",
  "compiler": {
    "name": "solc",
    "version": "0.8.11+commit.d7f03943.Emscripten.clang"
  },
  "schemaVersion": "3.4.3",
  "updatedAt": "2022-01-16T16:05:48.948Z",
  "networkType": "ethereum",
  "devdoc": {
    "kind": "dev",
    "methods": {
      "balanceOf(address,uint256)": {
        "details": "See {IERC1155-balanceOf}. Requirements: - `account` cannot be the zero address."
      },
      "balanceOfBatch(address[],uint256[])": {
        "details": "See {IERC1155-balanceOfBatch}. Requirements: - `accounts` and `ids` must have the same length."
      },
      "isApprovedForAll(address,address)": {
        "details": "See {IERC1155-isApprovedForAll}."
      },
      "safeBatchTransferFrom(address,address,uint256[],uint256[],bytes)": {
        "details": "See {IERC1155-safeBatchTransferFrom}."
      },
      "safeTransferFrom(address,address,uint256,uint256,bytes)": {
        "details": "See {IERC1155-safeTransferFrom}."
      },
      "setApprovalForAll(address,bool)": {
        "details": "See {IERC1155-setApprovalForAll}."
      },
      "supportsInterface(bytes4)": {
        "details": "See {IERC165-supportsInterface}."
      },
      "uri(uint256)": {
        "details": "See {IERC1155MetadataURI-uri}. This implementation returns the same URI for *all* token types. It relies on the token type ID substitution mechanism https://eips.ethereum.org/EIPS/eip-1155#metadata[defined in the EIP]. Clients calling this function must replace the `\\{id\\}` substring with the actual token type ID."
      }
    },
    "version": 1
  },
  "userdoc": {
    "kind": "user",
    "methods": {},
    "version": 1
  }
}