{
  "contractName": "GameItems",
  "abi": [
    {
      "anonymous": false,
      "inputs": [
        {
          "indexed": true,
          "internalType": "address",
          "name": "account",
          "type": "address"
        },
        {
          "indexed": true,
          "internalType": "address",
          "name": "operator",
          "type": "address"
        },
        {
          "indexed": false,
          "internalType": "bool",
          "name": "approved",
          "type": "bool"
        }
      ],
      "name": "ApprovalForAll",
      "type": "event"
    },
    {
      "anonymous": false,
      "inputs": [
        {
          "indexed": true,
          "internalType": "bytes32",
          "name": "role",
          "type": "bytes32"
        },
        {
          "indexed": true,
          "internalType": "bytes32",
          "name": "previousAdminRole",
          "type": "bytes32"
        },
        {
          "indexed": true,
          "internalType": "bytes32",
          "name": "newAdminRole",
          "type": "bytes32"
        }
      ],
      "name": "RoleAdminChanged",
      "type": "event"
    },
    {
      "anonymous": false,
      "inputs": [
        {
          "indexed": true,
          "internalType": "bytes32",
          "name": "role",
          "type": "bytes32"
        },
        {
          "indexed": true,
          "internalType": "address",
          "name": "account",
          "type": "address"
        },
        {
          "indexed": true,
          "internalType": "address",
          "name": "sender",
          "type": "address"
        }
      ],
      "name": "RoleGranted",
      "type": "event"
    },
    {
      "anonymous": false,
      "inputs": [
        {
          "indexed": true,
          "internalType": "bytes32",
          "name": "role",
          "type": "bytes32"
        },
        {
          "indexed": true,
          "internalType": "address",
          "name": "account",
          "type": "address"
        },
        {
          "indexed": true,
          "internalType": "address",
          "name": "sender",
          "type": "address"
        }
      ],
      "name": "RoleRevoked",
      "type": "event"
    },
    {
      "anonymous": false,
      "inputs": [
        {
          "indexed": true,
          "internalType": "address",
          "name": "operator",
          "type": "address"
        },
        {
          "indexed": true,
          "internalType": "address",
          "name": "from",
          "type": "address"
        },
        {
          "indexed": true,
          "internalType": "address",
          "name": "to",
          "type": "address"
        },
        {
          "indexed": false,
          "internalType": "uint256[]",
          "name": "ids",
          "type": "uint256[]"
        },
        {
          "indexed": false,
          "internalType": "uint256[]",
          "name": "values",
          "type": "uint256[]"
        }
      ],
      "name": "TransferBatch",
      "type": "event"
    },
    {
      "anonymous": false,
      "inputs": [
        {
          "indexed": true,
          "internalType": "address",
          "name": "operator",
          "type": "address"
        },
        {
          "indexed": true,
          "internalType": "address",
          "name": "from",
          "type": "address"
        },
        {
          "indexed": true,
          "internalType": "address",
          "name": "to",
          "type": "address"
        },
        {
          "indexed": false,
          "internalType": "uint256",
          "name": "id",
          "type": "uint256"
        },
        {
          "indexed": false,
          "internalType": "uint256",
          "name": "value",
          "type": "uint256"
        }
      ],
      "name": "TransferSingle",
      "type": "event"
    },
    {
      "anonymous": false,
      "inputs": [
        {
          "indexed": false,
          "internalType": "string",
          "name": "value",
          "type": "string"
        },
        {
          "indexed": true,
          "internalType": "uint256",
          "name": "id",
          "type": "uint256"
        }
      ],
      "name": "URI",
      "type": "event"
    },
    {
      "inputs": [],
      "name": "BasicRune",
      "outputs": [
        {
          "internalType": "uint256",
          "name": "",
          "type": "uint256"
        }
      ],
      "stateMutability": "view",
      "type": "function",
      "constant": true
    },
    {
      "inputs": [],
      "name": "DEFAULT_ADMIN_ROLE",
      "outputs": [
        {
          "internalType": "bytes32",
          "name": "",
          "type": "bytes32"
        }
      ],
      "stateMutability": "view",
      "type": "function",
      "constant": true
    },
    {
      "inputs": [],
      "name": "IntricateRune",
      "outputs": [
        {
          "internalType": "uint256",
          "name": "",
          "type": "uint256"
        }
      ],
      "stateMutability": "view",
      "type": "function",
      "constant": true
    },
    {
      "inputs": [],
      "name": "MINTER_ROLE",
      "outputs": [
        {
          "internalType": "bytes32",
          "name": "",
          "type": "bytes32"
        }
      ],
      "stateMutability": "view",
      "type": "function",
      "constant": true
    },
    {
      "inputs": [],
      "name": "PowerfullRune",
      "outputs": [
        {
          "internalType": "uint256",
          "name": "",
          "type": "uint256"
        }
      ],
      "stateMutability": "view",
      "type": "function",
      "constant": true
    },
    {
      "inputs": [
        {
          "internalType": "address",
          "name": "account",
          "type": "address"
        },
        {
          "internalType": "uint256",
          "name": "id",
          "type": "uint256"
        }
      ],
      "name": "balanceOf",
      "outputs": [
        {
          "internalType": "uint256",
          "name": "",
          "type": "uint256"
        }
      ],
      "stateMutability": "view",
      "type": "function",
      "constant": true
    },
    {
      "inputs": [
        {
          "internalType": "address[]",
          "name": "accounts",
          "type": "address[]"
        },
        {
          "internalType": "uint256[]",
          "name": "ids",
          "type": "uint256[]"
        }
      ],
      "name": "balanceOfBatch",
      "outputs": [
        {
          "internalType": "uint256[]",
          "name": "",
          "type": "uint256[]"
        }
      ],
      "stateMutability": "view",
      "type": "function",
      "constant": true
    },
    {
      "inputs": [
        {
          "internalType": "bytes32",
          "name": "role",
          "type": "bytes32"
        }
      ],
      "name": "getRoleAdmin",
      "outputs": [
        {
          "internalType": "bytes32",
          "name": "",
          "type": "bytes32"
        }
      ],
      "stateMutability": "view",
      "type": "function",
      "constant": true
    },
    {
      "inputs": [
        {
          "internalType": "bytes32",
          "name": "role",
          "type": "bytes32"
        },
        {
          "internalType": "address",
          "name": "account",
          "type": "address"
        }
      ],
      "name": "grantRole",
      "outputs": [],
      "stateMutability": "nonpayable",
      "type": "function"
    },
    {
      "inputs": [
        {
          "internalType": "bytes32",
          "name": "role",
          "type": "bytes32"
        },
        {
          "internalType": "address",
          "name": "account",
          "type": "address"
        }
      ],
      "name": "hasRole",
      "outputs": [
        {
          "internalType": "bool",
          "name": "",
          "type": "bool"
        }
      ],
      "stateMutability": "view",
      "type": "function",
      "constant": true
    },
    {
      "inputs": [
        {
          "internalType": "address",
          "name": "account",
          "type": "address"
        },
        {
          "internalType": "address",
          "name": "operator",
          "type": "address"
        }
      ],
      "name": "isApprovedForAll",
      "outputs": [
        {
          "internalType": "bool",
          "name": "",
          "type": "bool"
        }
      ],
      "stateMutability": "view",
      "type": "function",
      "constant": true
    },
    {
      "inputs": [
        {
          "internalType": "bytes32",
          "name": "role",
          "type": "bytes32"
        },
        {
          "internalType": "address",
          "name": "account",
          "type": "address"
        }
      ],
      "name": "renounceRole",
      "outputs": [],
      "stateMutability": "nonpayable",
      "type": "function"
    },
    {
      "inputs": [
        {
          "internalType": "bytes32",
          "name": "role",
          "type": "bytes32"
        },
        {
          "internalType": "address",
          "name": "account",
          "type": "address"
        }
      ],
      "name": "revokeRole",
      "outputs": [],
      "stateMutability": "nonpayable",
      "type": "function"
    },
    {
      "inputs": [
        {
          "internalType": "address",
          "name": "from",
          "type": "address"
        },
        {
          "internalType": "address",
          "name": "to",
          "type": "address"
        },
        {
          "internalType": "uint256[]",
          "name": "ids",
          "type": "uint256[]"
        },
        {
          "internalType": "uint256[]",
          "name": "amounts",
          "type": "uint256[]"
        },
        {
          "internalType": "bytes",
          "name": "data",
          "type": "bytes"
        }
      ],
      "name": "safeBatchTransferFrom",
      "outputs": [],
      "stateMutability": "nonpayable",
      "type": "function"
    },
    {
      "inputs": [
        {
          "internalType": "address",
          "name": "from",
          "type": "address"
        },
        {
          "internalType": "address",
          "name": "to",
          "type": "address"
        },
        {
          "internalType": "uint256",
          "name": "id",
          "type": "uint256"
        },
        {
          "internalType": "uint256",
          "name": "amount",
          "type": "uint256"
        },
        {
          "internalType": "bytes",
          "name": "data",
          "type": "bytes"
        }
      ],
      "name": "safeTransferFrom",
      "outputs": [],
      "stateMutability": "nonpayable",
      "type": "function"
    },
    {
      "inputs": [
        {
          "internalType": "address",
          "name": "operator",
          "type": "address"
        },
        {
          "internalType": "bool",
          "name": "approved",
          "type": "bool"
        }
      ],
      "name": "setApprovalForAll",
      "outputs": [],
      "stateMutability": "nonpayable",
      "type": "function"
    },
    {
      "inputs": [
        {
          "internalType": "uint256",
          "name": "",
          "type": "uint256"
        }
      ],
      "name": "uri",
      "outputs": [
        {
          "internalType": "string",
          "name": "",
          "type": "string"
        }
      ],
      "stateMutability": "view",
      "type": "function",
      "constant": true
    },
    {
      "inputs": [
        {
          "internalType": "bytes4",
          "name": "interfaceId",
          "type": "bytes4"
        }
      ],
      "name": "supportsInterface",
      "outputs": [
        {
          "internalType": "bool",
          "name": "",
          "type": "bool"
        }
      ],
      "stateMutability": "view",
      "type": "function",
      "constant": true
    },
    {
      "inputs": [],
      "name": "initialize",
      "outputs": [],
      "stateMutability": "nonpayable",
      "type": "function"
    },
    {
      "inputs": [
        {
          "internalType": "address",
          "name": "_address",
          "type": "address"
        },
        {
          "internalType": "uint256",
          "name": "itemId",
          "type": "uint256"
        },
        {
          "internalType": "uint256",
          "name": "amount",
          "type": "uint256"
        }
      ],
      "name": "mint",
      "outputs": [],
      "stateMutability": "payable",
      "type": "function",
      "payable": true
    },
    {
      "inputs": [
        {
          "internalType": "address",
          "name": "from",
          "type": "address"
        },
        {
          "internalType": "uint256",
          "name": "id",
          "type": "uint256"
        },
        {
          "internalType": "uint256",
          "name": "amount",
          "type": "uint256"
        }
      ],
      "name": "burn",
      "outputs": [],
      "stateMutability": "payable",
      "type": "function",
      "payable": true
    }
  ],
  "bytecode": "0x608060405234801561001057600080fd5b50613a91806100206000396000f3fe6080604052600436106101295760003560e01c80638129fc1c116100ab578063d547741f1161006f578063d547741f146103f4578063d8b5e34e1461041d578063deabf5d814610448578063e985e9c514610473578063f242432a146104b0578063f5298aca146104d957610129565b80638129fc1c1461032157806391d1485414610338578063a217fddf14610375578063a22cb465146103a0578063d5391393146103c957610129565b80632eb2c2d6116100f25780632eb2c2d61461023e5780632f2ff15d1461026757806336568abe146102905780634e1273f4146102b957806369cdd8c1146102f657610129565b8062fdd58e1461012e57806301ffc9a71461016b5780630e89341c146101a8578063156e29f6146101e5578063248a9ca314610201575b600080fd5b34801561013a57600080fd5b506101556004803603810190610150919061228d565b6104f5565b60405161016291906122dc565b60405180910390f35b34801561017757600080fd5b50610192600480360381019061018d919061234f565b6105bf565b60405161019f9190612397565b60405180910390f35b3480156101b457600080fd5b506101cf60048036038101906101ca91906123b2565b6105d1565b6040516101dc9190612478565b60405180910390f35b6101ff60048036038101906101fa919061249a565b610665565b005b34801561020d57600080fd5b5061022860048036038101906102239190612523565b6106b8565b604051610235919061255f565b60405180910390f35b34801561024a57600080fd5b5061026560048036038101906102609190612777565b6106d8565b005b34801561027357600080fd5b5061028e60048036038101906102899190612846565b610779565b005b34801561029c57600080fd5b506102b760048036038101906102b29190612846565b6107a2565b005b3480156102c557600080fd5b506102e060048036038101906102db9190612949565b610825565b6040516102ed9190612a7f565b60405180910390f35b34801561030257600080fd5b5061030b61093e565b60405161031891906122dc565b60405180910390f35b34801561032d57600080fd5b50610336610943565b005b34801561034457600080fd5b5061035f600480360381019061035a9190612846565b610a34565b60405161036c9190612397565b60405180910390f35b34801561038157600080fd5b5061038a610a9f565b604051610397919061255f565b60405180910390f35b3480156103ac57600080fd5b506103c760048036038101906103c29190612acd565b610aa6565b005b3480156103d557600080fd5b506103de610abc565b6040516103eb919061255f565b60405180910390f35b34801561040057600080fd5b5061041b60048036038101906104169190612846565b610ae0565b005b34801561042957600080fd5b50610432610b09565b60405161043f91906122dc565b60405180910390f35b34801561045457600080fd5b5061045d610b0e565b60405161046a91906122dc565b60405180910390f35b34801561047f57600080fd5b5061049a60048036038101906104959190612b0d565b610b13565b6040516104a79190612397565b60405180910390f35b3480156104bc57600080fd5b506104d760048036038101906104d29190612b4d565b610ba7565b005b6104f360048036038101906104ee919061249a565b610c48565b005b60008073ffffffffffffffffffffffffffffffffffffffff168373ffffffffffffffffffffffffffffffffffffffff161415610566576040517f08c379a000000000000000000000000000000000000000000000000000000000815260040161055d90612c56565b60405180910390fd5b6065600083815260200190815260200160002060008473ffffffffffffffffffffffffffffffffffffffff1673ffffffffffffffffffffffffffffffffffffffff16815260200190815260200160002054905092915050565b60006105ca82610c58565b9050919050565b6060606780546105e090612ca5565b80601f016020809104026020016040519081016040528092919081815260200182805461060c90612ca5565b80156106595780601f1061062e57610100808354040283529160200191610659565b820191906000526020600020905b81548152906001019060200180831161063c57829003601f168201915b50505050509050919050565b7f9f2df0fed2c77648de5860a4cc508cd0818c85b8b8a1ab4ceeef8d981c8956a661069781610692610cd2565b610cda565b6106b284848460405180602001604052806000815250610d77565b50505050565b600060976000838152602001908152602001600020600101549050919050565b6106e0610cd2565b73ffffffffffffffffffffffffffffffffffffffff168573ffffffffffffffffffffffffffffffffffffffff161480610726575061072585610720610cd2565b610b13565b5b610765576040517f08c379a000000000000000000000000000000000000000000000000000000000815260040161075c90612d49565b60405180910390fd5b6107728585858585610f0e565b5050505050565b610782826106b8565b6107938161078e610cd2565b610cda565b61079d8383611225565b505050565b6107aa610cd2565b73ffffffffffffffffffffffffffffffffffffffff168173ffffffffffffffffffffffffffffffffffffffff1614610817576040517f08c379a000000000000000000000000000000000000000000000000000000000815260040161080e90612ddb565b60405180910390fd5b6108218282611306565b5050565b6060815183511461086b576040517f08c379a000000000000000000000000000000000000000000000000000000000815260040161086290612e6d565b60405180910390fd5b6000835167ffffffffffffffff8111156108885761088761257f565b5b6040519080825280602002602001820160405280156108b65781602001602082028036833780820191505090505b50905060005b8451811015610933576109038582815181106108db576108da612e8d565b5b60200260200101518583815181106108f6576108f5612e8d565b5b60200260200101516104f5565b82828151811061091657610915612e8d565b5b6020026020010181815250508061092c90612eeb565b90506108bc565b508091505092915050565b600281565b600060019054906101000a900460ff1661096b5760008054906101000a900460ff1615610974565b6109736113e8565b5b6109b3576040517f08c379a00000000000000000000000000000000000000000000000000000000081526004016109aa90612fa6565b60405180910390fd5b60008060019054906101000a900460ff161590508015610a03576001600060016101000a81548160ff02191690831515021790555060016000806101000a81548160ff0219169083151502179055505b610a106000801b336113f9565b8015610a315760008060016101000a81548160ff0219169083151502179055505b50565b60006097600084815260200190815260200160002060000160008373ffffffffffffffffffffffffffffffffffffffff1673ffffffffffffffffffffffffffffffffffffffff16815260200190815260200160002060009054906101000a900460ff16905092915050565b6000801b81565b610ab8610ab1610cd2565b8383611407565b5050565b7f9f2df0fed2c77648de5860a4cc508cd0818c85b8b8a1ab4ceeef8d981c8956a681565b610ae9826106b8565b610afa81610af5610cd2565b610cda565b610b048383611306565b505050565b600181565b600081565b6000606660008473ffffffffffffffffffffffffffffffffffffffff1673ffffffffffffffffffffffffffffffffffffffff16815260200190815260200160002060008373ffffffffffffffffffffffffffffffffffffffff1673ffffffffffffffffffffffffffffffffffffffff16815260200190815260200160002060009054906101000a900460ff16905092915050565b610baf610cd2565b73ffffffffffffffffffffffffffffffffffffffff168573ffffffffffffffffffffffffffffffffffffffff161480610bf55750610bf485610bef610cd2565b610b13565b5b610c34576040517f08c379a0000000000000000000000000000000000000000000000000000000008152600401610c2b90613038565b60405180910390fd5b610c418585858585611574565b5050505050565b610c538383836117f9565b505050565b60007f7965db0b000000000000000000000000000000000000000000000000000000007bffffffffffffffffffffffffffffffffffffffffffffffffffffffff1916827bffffffffffffffffffffffffffffffffffffffffffffffffffffffff19161480610ccb5750610cca82611a18565b5b9050919050565b600033905090565b610ce48282610a34565b610d7357610d098173ffffffffffffffffffffffffffffffffffffffff166014611afa565b610d178360001c6020611afa565b604051602001610d2892919061312c565b6040516020818303038152906040526040517f08c379a0000000000000000000000000000000000000000000000000000000008152600401610d6a9190612478565b60405180910390fd5b5050565b600073ffffffffffffffffffffffffffffffffffffffff168473ffffffffffffffffffffffffffffffffffffffff161415610de7576040517f08c379a0000000000000000000000000000000000000000000000000000000008152600401610dde906131d8565b60405180910390fd5b6000610df1610cd2565b9050610e1281600087610e0388611d36565b610e0c88611d36565b87611db0565b826065600086815260200190815260200160002060008773ffffffffffffffffffffffffffffffffffffffff1673ffffffffffffffffffffffffffffffffffffffff1681526020019081526020016000206000828254610e7291906131f8565b925050819055508473ffffffffffffffffffffffffffffffffffffffff16600073ffffffffffffffffffffffffffffffffffffffff168273ffffffffffffffffffffffffffffffffffffffff167fc3d58168c5ae7397731d063d5bbf3d657854427343f4c083240f7aacaa2d0f628787604051610ef092919061324e565b60405180910390a4610f0781600087878787611db8565b5050505050565b8151835114610f52576040517f08c379a0000000000000000000000000000000000000000000000000000000008152600401610f49906132e9565b60405180910390fd5b600073ffffffffffffffffffffffffffffffffffffffff168473ffffffffffffffffffffffffffffffffffffffff161415610fc2576040517f08c379a0000000000000000000000000000000000000000000000000000000008152600401610fb99061337b565b60405180910390fd5b6000610fcc610cd2565b9050610fdc818787878787611db0565b60005b8451811015611190576000858281518110610ffd57610ffc612e8d565b5b60200260200101519050600085838151811061101c5761101b612e8d565b5b6020026020010151905060006065600084815260200190815260200160002060008b73ffffffffffffffffffffffffffffffffffffffff1673ffffffffffffffffffffffffffffffffffffffff168152602001908152602001600020549050818110156110be576040517f08c379a00000000000000000000000000000000000000000000000000000000081526004016110b59061340d565b60405180910390fd5b8181036065600085815260200190815260200160002060008c73ffffffffffffffffffffffffffffffffffffffff1673ffffffffffffffffffffffffffffffffffffffff16815260200190815260200160002081905550816065600085815260200190815260200160002060008b73ffffffffffffffffffffffffffffffffffffffff1673ffffffffffffffffffffffffffffffffffffffff168152602001908152602001600020600082825461117591906131f8565b925050819055505050508061118990612eeb565b9050610fdf565b508473ffffffffffffffffffffffffffffffffffffffff168673ffffffffffffffffffffffffffffffffffffffff168273ffffffffffffffffffffffffffffffffffffffff167f4a39dc06d4c0dbc64b70af90fd698a233a518aa5d07e595d983b8c0526c8f7fb878760405161120792919061342d565b60405180910390a461121d818787878787611f90565b505050505050565b61122f8282610a34565b6113025760016097600084815260200190815260200160002060000160008373ffffffffffffffffffffffffffffffffffffffff1673ffffffffffffffffffffffffffffffffffffffff16815260200190815260200160002060006101000a81548160ff0219169083151502179055506112a7610cd2565b73ffffffffffffffffffffffffffffffffffffffff168173ffffffffffffffffffffffffffffffffffffffff16837f2f8788117e7eff1d82e926ec794901d17c78024a50270940304540a733656f0d60405160405180910390a45b5050565b6113108282610a34565b156113e45760006097600084815260200190815260200160002060000160008373ffffffffffffffffffffffffffffffffffffffff1673ffffffffffffffffffffffffffffffffffffffff16815260200190815260200160002060006101000a81548160ff021916908315150217905550611389610cd2565b73ffffffffffffffffffffffffffffffffffffffff168173ffffffffffffffffffffffffffffffffffffffff16837ff6391f5c32d9c69d2a47ea670b442974b53935d1edc7fd64eb21e047a839171b60405160405180910390a45b5050565b60006113f330612168565b15905090565b6114038282611225565b5050565b8173ffffffffffffffffffffffffffffffffffffffff168373ffffffffffffffffffffffffffffffffffffffff161415611476576040517f08c379a000000000000000000000000000000000000000000000000000000000815260040161146d906134d6565b60405180910390fd5b80606660008573ffffffffffffffffffffffffffffffffffffffff1673ffffffffffffffffffffffffffffffffffffffff16815260200190815260200160002060008473ffffffffffffffffffffffffffffffffffffffff1673ffffffffffffffffffffffffffffffffffffffff16815260200190815260200160002060006101000a81548160ff0219169083151502179055508173ffffffffffffffffffffffffffffffffffffffff168373ffffffffffffffffffffffffffffffffffffffff167f17307eab39ab6107e8899845ad3d59bd9653f200f220920489ca2b5937696c31836040516115679190612397565b60405180910390a3505050565b600073ffffffffffffffffffffffffffffffffffffffff168473ffffffffffffffffffffffffffffffffffffffff1614156115e4576040517f08c379a00000000000000000000000000000000000000000000000000000000081526004016115db9061337b565b60405180910390fd5b60006115ee610cd2565b905061160e8187876115ff88611d36565b61160888611d36565b87611db0565b60006065600086815260200190815260200160002060008873ffffffffffffffffffffffffffffffffffffffff1673ffffffffffffffffffffffffffffffffffffffff168152602001908152602001600020549050838110156116a6576040517f08c379a000000000000000000000000000000000000000000000000000000000815260040161169d9061340d565b60405180910390fd5b8381036065600087815260200190815260200160002060008973ffffffffffffffffffffffffffffffffffffffff1673ffffffffffffffffffffffffffffffffffffffff16815260200190815260200160002081905550836065600087815260200190815260200160002060008873ffffffffffffffffffffffffffffffffffffffff1673ffffffffffffffffffffffffffffffffffffffff168152602001908152602001600020600082825461175d91906131f8565b925050819055508573ffffffffffffffffffffffffffffffffffffffff168773ffffffffffffffffffffffffffffffffffffffff168373ffffffffffffffffffffffffffffffffffffffff167fc3d58168c5ae7397731d063d5bbf3d657854427343f4c083240f7aacaa2d0f6288886040516117da92919061324e565b60405180910390a46117f0828888888888611db8565b50505050505050565b600073ffffffffffffffffffffffffffffffffffffffff168373ffffffffffffffffffffffffffffffffffffffff161415611869576040517f08c379a000000000000000000000000000000000000000000000000000000000815260040161186090613568565b60405180910390fd5b6000611873610cd2565b90506118a38185600061188587611d36565b61188e87611d36565b60405180602001604052806000815250611db0565b60006065600085815260200190815260200160002060008673ffffffffffffffffffffffffffffffffffffffff1673ffffffffffffffffffffffffffffffffffffffff1681526020019081526020016000205490508281101561193b576040517f08c379a0000000000000000000000000000000000000000000000000000000008152600401611932906135fa565b60405180910390fd5b8281036065600086815260200190815260200160002060008773ffffffffffffffffffffffffffffffffffffffff1673ffffffffffffffffffffffffffffffffffffffff16815260200190815260200160002081905550600073ffffffffffffffffffffffffffffffffffffffff168573ffffffffffffffffffffffffffffffffffffffff168373ffffffffffffffffffffffffffffffffffffffff167fc3d58168c5ae7397731d063d5bbf3d657854427343f4c083240f7aacaa2d0f628787604051611a0992919061324e565b60405180910390a45050505050565b60007fd9b67a26000000000000000000000000000000000000000000000000000000007bffffffffffffffffffffffffffffffffffffffffffffffffffffffff1916827bffffffffffffffffffffffffffffffffffffffffffffffffffffffff19161480611ae357507f0e89341c000000000000000000000000000000000000000000000000000000007bffffffffffffffffffffffffffffffffffffffffffffffffffffffff1916827bffffffffffffffffffffffffffffffffffffffffffffffffffffffff1916145b80611af35750611af28261217b565b5b9050919050565b606060006002836002611b0d919061361a565b611b1791906131f8565b67ffffffffffffffff811115611b3057611b2f61257f565b5b6040519080825280601f01601f191660200182016040528015611b625781602001600182028036833780820191505090505b5090507f300000000000000000000000000000000000000000000000000000000000000081600081518110611b9a57611b99612e8d565b5b60200101907effffffffffffffffffffffffffffffffffffffffffffffffffffffffffffff1916908160001a9053507f780000000000000000000000000000000000000000000000000000000000000081600181518110611bfe57611bfd612e8d565b5b60200101907effffffffffffffffffffffffffffffffffffffffffffffffffffffffffffff1916908160001a90535060006001846002611c3e919061361a565b611c4891906131f8565b90505b6001811115611ce8577f3031323334353637383961626364656600000000000000000000000000000000600f861660108110611c8a57611c89612e8d565b5b1a60f81b828281518110611ca157611ca0612e8d565b5b60200101907effffffffffffffffffffffffffffffffffffffffffffffffffffffffffffff1916908160001a905350600485901c945080611ce190613674565b9050611c4b565b5060008414611d2c576040517f08c379a0000000000000000000000000000000000000000000000000000000008152600401611d23906136ea565b60405180910390fd5b8091505092915050565b60606000600167ffffffffffffffff811115611d5557611d5461257f565b5b604051908082528060200260200182016040528015611d835781602001602082028036833780820191505090505b5090508281600081518110611d9b57611d9a612e8d565b5b60200260200101818152505080915050919050565b505050505050565b611dd78473ffffffffffffffffffffffffffffffffffffffff16612168565b15611f88578373ffffffffffffffffffffffffffffffffffffffff1663f23a6e6187878686866040518663ffffffff1660e01b8152600401611e1d95949392919061376e565b6020604051808303816000875af1925050508015611e5957506040513d601f19601f82011682018060405250810190611e5691906137dd565b60015b611eff57611e65613817565b806308c379a01415611ec25750611e7a613839565b80611e855750611ec4565b806040517f08c379a0000000000000000000000000000000000000000000000000000000008152600401611eb99190612478565b60405180910390fd5b505b6040517f08c379a0000000000000000000000000000000000000000000000000000000008152600401611ef690613941565b60405180910390fd5b63f23a6e6160e01b7bffffffffffffffffffffffffffffffffffffffffffffffffffffffff1916817bffffffffffffffffffffffffffffffffffffffffffffffffffffffff191614611f86576040517f08c379a0000000000000000000000000000000000000000000000000000000008152600401611f7d906139d3565b60405180910390fd5b505b505050505050565b611faf8473ffffffffffffffffffffffffffffffffffffffff16612168565b15612160578373ffffffffffffffffffffffffffffffffffffffff1663bc197c8187878686866040518663ffffffff1660e01b8152600401611ff59594939291906139f3565b6020604051808303816000875af192505050801561203157506040513d601f19601f8201168201806040525081019061202e91906137dd565b60015b6120d75761203d613817565b806308c379a0141561209a5750612052613839565b8061205d575061209c565b806040517f08c379a00000000000000000000000000000000000000000000000000000000081526004016120919190612478565b60405180910390fd5b505b6040517f08c379a00000000000000000000000000000000000000000000000000000000081526004016120ce90613941565b60405180910390fd5b63bc197c8160e01b7bffffffffffffffffffffffffffffffffffffffffffffffffffffffff1916817bffffffffffffffffffffffffffffffffffffffffffffffffffffffff19161461215e576040517f08c379a0000000000000000000000000000000000000000000000000000000008152600401612155906139d3565b60405180910390fd5b505b505050505050565b600080823b905060008111915050919050565b60007f01ffc9a7000000000000000000000000000000000000000000000000000000007bffffffffffffffffffffffffffffffffffffffffffffffffffffffff1916827bffffffffffffffffffffffffffffffffffffffffffffffffffffffff1916149050919050565b6000604051905090565b600080fd5b600080fd5b600073ffffffffffffffffffffffffffffffffffffffff82169050919050565b6000612224826121f9565b9050919050565b61223481612219565b811461223f57600080fd5b50565b6000813590506122518161222b565b92915050565b6000819050919050565b61226a81612257565b811461227557600080fd5b50565b60008135905061228781612261565b92915050565b600080604083850312156122a4576122a36121ef565b5b60006122b285828601612242565b92505060206122c385828601612278565b9150509250929050565b6122d681612257565b82525050565b60006020820190506122f160008301846122cd565b92915050565b60007fffffffff0000000000000000000000000000000000000000000000000000000082169050919050565b61232c816122f7565b811461233757600080fd5b50565b60008135905061234981612323565b92915050565b600060208284031215612365576123646121ef565b5b60006123738482850161233a565b91505092915050565b60008115159050919050565b6123918161237c565b82525050565b60006020820190506123ac6000830184612388565b92915050565b6000602082840312156123c8576123c76121ef565b5b60006123d684828501612278565b91505092915050565b600081519050919050565b600082825260208201905092915050565b60005b838110156124195780820151818401526020810190506123fe565b83811115612428576000848401525b50505050565b6000601f19601f8301169050919050565b600061244a826123df565b61245481856123ea565b93506124648185602086016123fb565b61246d8161242e565b840191505092915050565b60006020820190508181036000830152612492818461243f565b905092915050565b6000806000606084860312156124b3576124b26121ef565b5b60006124c186828701612242565b93505060206124d286828701612278565b92505060406124e386828701612278565b9150509250925092565b6000819050919050565b612500816124ed565b811461250b57600080fd5b50565b60008135905061251d816124f7565b92915050565b600060208284031215612539576125386121ef565b5b60006125478482850161250e565b91505092915050565b612559816124ed565b82525050565b60006020820190506125746000830184612550565b92915050565b600080fd5b7f4e487b7100000000000000000000000000000000000000000000000000000000600052604160045260246000fd5b6125b78261242e565b810181811067ffffffffffffffff821117156125d6576125d561257f565b5b80604052505050565b60006125e96121e5565b90506125f582826125ae565b919050565b600067ffffffffffffffff8211156126155761261461257f565b5b602082029050602081019050919050565b600080fd5b600061263e612639846125fa565b6125df565b9050808382526020820190506020840283018581111561266157612660612626565b5b835b8181101561268a57806126768882612278565b845260208401935050602081019050612663565b5050509392505050565b600082601f8301126126a9576126a861257a565b5b81356126b984826020860161262b565b91505092915050565b600080fd5b600067ffffffffffffffff8211156126e2576126e161257f565b5b6126eb8261242e565b9050602081019050919050565b82818337600083830152505050565b600061271a612715846126c7565b6125df565b905082815260208101848484011115612736576127356126c2565b5b6127418482856126f8565b509392505050565b600082601f83011261275e5761275d61257a565b5b813561276e848260208601612707565b91505092915050565b600080600080600060a08688031215612793576127926121ef565b5b60006127a188828901612242565b95505060206127b288828901612242565b945050604086013567ffffffffffffffff8111156127d3576127d26121f4565b5b6127df88828901612694565b935050606086013567ffffffffffffffff811115612800576127ff6121f4565b5b61280c88828901612694565b925050608086013567ffffffffffffffff81111561282d5761282c6121f4565b5b61283988828901612749565b9150509295509295909350565b6000806040838503121561285d5761285c6121ef565b5b600061286b8582860161250e565b925050602061287c85828601612242565b9150509250929050565b600067ffffffffffffffff8211156128a1576128a061257f565b5b602082029050602081019050919050565b60006128c56128c084612886565b6125df565b905080838252602082019050602084028301858111156128e8576128e7612626565b5b835b8181101561291157806128fd8882612242565b8452602084019350506020810190506128ea565b5050509392505050565b600082601f8301126129305761292f61257a565b5b81356129408482602086016128b2565b91505092915050565b600080604083850312156129605761295f6121ef565b5b600083013567ffffffffffffffff81111561297e5761297d6121f4565b5b61298a8582860161291b565b925050602083013567ffffffffffffffff8111156129ab576129aa6121f4565b5b6129b785828601612694565b9150509250929050565b600081519050919050565b600082825260208201905092915050565b6000819050602082019050919050565b6129f681612257565b82525050565b6000612a0883836129ed565b60208301905092915050565b6000602082019050919050565b6000612a2c826129c1565b612a3681856129cc565b9350612a41836129dd565b8060005b83811015612a72578151612a5988826129fc565b9750612a6483612a14565b925050600181019050612a45565b5085935050505092915050565b60006020820190508181036000830152612a998184612a21565b905092915050565b612aaa8161237c565b8114612ab557600080fd5b50565b600081359050612ac781612aa1565b92915050565b60008060408385031215612ae457612ae36121ef565b5b6000612af285828601612242565b9250506020612b0385828601612ab8565b9150509250929050565b60008060408385031215612b2457612b236121ef565b5b6000612b3285828601612242565b9250506020612b4385828601612242565b9150509250929050565b600080600080600060a08688031215612b6957612b686121ef565b5b6000612b7788828901612242565b9550506020612b8888828901612242565b9450506040612b9988828901612278565b9350506060612baa88828901612278565b925050608086013567ffffffffffffffff811115612bcb57612bca6121f4565b5b612bd788828901612749565b9150509295509295909350565b7f455243313135353a2062616c616e636520717565727920666f7220746865207a60008201527f65726f2061646472657373000000000000000000000000000000000000000000602082015250565b6000612c40602b836123ea565b9150612c4b82612be4565b604082019050919050565b60006020820190508181036000830152612c6f81612c33565b9050919050565b7f4e487b7100000000000000000000000000000000000000000000000000000000600052602260045260246000fd5b60006002820490506001821680612cbd57607f821691505b60208210811415612cd157612cd0612c76565b5b50919050565b7f455243313135353a207472616e736665722063616c6c6572206973206e6f742060008201527f6f776e6572206e6f7220617070726f7665640000000000000000000000000000602082015250565b6000612d336032836123ea565b9150612d3e82612cd7565b604082019050919050565b60006020820190508181036000830152612d6281612d26565b9050919050565b7f416363657373436f6e74726f6c3a2063616e206f6e6c792072656e6f756e636560008201527f20726f6c657320666f722073656c660000000000000000000000000000000000602082015250565b6000612dc5602f836123ea565b9150612dd082612d69565b604082019050919050565b60006020820190508181036000830152612df481612db8565b9050919050565b7f455243313135353a206163636f756e747320616e6420696473206c656e67746860008201527f206d69736d617463680000000000000000000000000000000000000000000000602082015250565b6000612e576029836123ea565b9150612e6282612dfb565b604082019050919050565b60006020820190508181036000830152612e8681612e4a565b9050919050565b7f4e487b7100000000000000000000000000000000000000000000000000000000600052603260045260246000fd5b7f4e487b7100000000000000000000000000000000000000000000000000000000600052601160045260246000fd5b6000612ef682612257565b91507fffffffffffffffffffffffffffffffffffffffffffffffffffffffffffffffff821415612f2957612f28612ebc565b5b600182019050919050565b7f496e697469616c697a61626c653a20636f6e747261637420697320616c72656160008201527f647920696e697469616c697a6564000000000000000000000000000000000000602082015250565b6000612f90602e836123ea565b9150612f9b82612f34565b604082019050919050565b60006020820190508181036000830152612fbf81612f83565b9050919050565b7f455243313135353a2063616c6c6572206973206e6f74206f776e6572206e6f7260008201527f20617070726f7665640000000000000000000000000000000000000000000000602082015250565b60006130226029836123ea565b915061302d82612fc6565b604082019050919050565b6000602082019050818103600083015261305181613015565b9050919050565b600081905092915050565b7f416363657373436f6e74726f6c3a206163636f756e7420000000000000000000600082015250565b6000613099601783613058565b91506130a482613063565b601782019050919050565b60006130ba826123df565b6130c48185613058565b93506130d48185602086016123fb565b80840191505092915050565b7f206973206d697373696e6720726f6c6520000000000000000000000000000000600082015250565b6000613116601183613058565b9150613121826130e0565b601182019050919050565b60006131378261308c565b915061314382856130af565b915061314e82613109565b915061315a82846130af565b91508190509392505050565b7f455243313135353a206d696e7420746f20746865207a65726f2061646472657360008201527f7300000000000000000000000000000000000000000000000000000000000000602082015250565b60006131c26021836123ea565b91506131cd82613166565b604082019050919050565b600060208201905081810360008301526131f1816131b5565b9050919050565b600061320382612257565b915061320e83612257565b9250827fffffffffffffffffffffffffffffffffffffffffffffffffffffffffffffffff0382111561324357613242612ebc565b5b828201905092915050565b600060408201905061326360008301856122cd565b61327060208301846122cd565b9392505050565b7f455243313135353a2069647320616e6420616d6f756e7473206c656e6774682060008201527f6d69736d61746368000000000000000000000000000000000000000000000000602082015250565b60006132d36028836123ea565b91506132de82613277565b604082019050919050565b60006020820190508181036000830152613302816132c6565b9050919050565b7f455243313135353a207472616e7366657220746f20746865207a65726f20616460008201527f6472657373000000000000000000000000000000000000000000000000000000602082015250565b60006133656025836123ea565b915061337082613309565b604082019050919050565b6000602082019050818103600083015261339481613358565b9050919050565b7f455243313135353a20696e73756666696369656e742062616c616e636520666f60008201527f72207472616e7366657200000000000000000000000000000000000000000000602082015250565b60006133f7602a836123ea565b91506134028261339b565b604082019050919050565b60006020820190508181036000830152613426816133ea565b9050919050565b600060408201905081810360008301526134478185612a21565b9050818103602083015261345b8184612a21565b90509392505050565b7f455243313135353a2073657474696e6720617070726f76616c2073746174757360008201527f20666f722073656c660000000000000000000000000000000000000000000000602082015250565b60006134c06029836123ea565b91506134cb82613464565b604082019050919050565b600060208201905081810360008301526134ef816134b3565b9050919050565b7f455243313135353a206275726e2066726f6d20746865207a65726f206164647260008201527f6573730000000000000000000000000000000000000000000000000000000000602082015250565b60006135526023836123ea565b915061355d826134f6565b604082019050919050565b6000602082019050818103600083015261358181613545565b9050919050565b7f455243313135353a206275726e20616d6f756e7420657863656564732062616c60008201527f616e636500000000000000000000000000000000000000000000000000000000602082015250565b60006135e46024836123ea565b91506135ef82613588565b604082019050919050565b60006020820190508181036000830152613613816135d7565b9050919050565b600061362582612257565b915061363083612257565b9250817fffffffffffffffffffffffffffffffffffffffffffffffffffffffffffffffff048311821515161561366957613668612ebc565b5b828202905092915050565b600061367f82612257565b9150600082141561369357613692612ebc565b5b600182039050919050565b7f537472696e67733a20686578206c656e67746820696e73756666696369656e74600082015250565b60006136d46020836123ea565b91506136df8261369e565b602082019050919050565b60006020820190508181036000830152613703816136c7565b9050919050565b61371381612219565b82525050565b600081519050919050565b600082825260208201905092915050565b600061374082613719565b61374a8185613724565b935061375a8185602086016123fb565b6137638161242e565b840191505092915050565b600060a082019050613783600083018861370a565b613790602083018761370a565b61379d60408301866122cd565b6137aa60608301856122cd565b81810360808301526137bc8184613735565b90509695505050505050565b6000815190506137d781612323565b92915050565b6000602082840312156137f3576137f26121ef565b5b6000613801848285016137c8565b91505092915050565b60008160e01c9050919050565b600060033d11156138365760046000803e61383360005161380a565b90505b90565b600060443d1015613849576138cc565b6138516121e5565b60043d036004823e80513d602482011167ffffffffffffffff821117156138795750506138cc565b808201805167ffffffffffffffff81111561389757505050506138cc565b80602083010160043d0385018111156138b45750505050506138cc565b6138c3826020018501866125ae565b82955050505050505b90565b7f455243313135353a207472616e7366657220746f206e6f6e204552433131353560008201527f526563656976657220696d706c656d656e746572000000000000000000000000602082015250565b600061392b6034836123ea565b9150613936826138cf565b604082019050919050565b6000602082019050818103600083015261395a8161391e565b9050919050565b7f455243313135353a204552433131353552656365697665722072656a6563746560008201527f6420746f6b656e73000000000000000000000000000000000000000000000000602082015250565b60006139bd6028836123ea565b91506139c882613961565b604082019050919050565b600060208201905081810360008301526139ec816139b0565b9050919050565b600060a082019050613a08600083018861370a565b613a15602083018761370a565b8181036040830152613a278186612a21565b90508181036060830152613a3b8185612a21565b90508181036080830152613a4f8184613735565b9050969550505050505056fea2646970667358221220b1a8dd4cbea6a2a98aa521eec1dce9c471f42ba3a5fa3db78d35d345b105cb1564736f6c634300080b0033",
  "immutableReferences": {},
  "source": "// SPDX-License-Identifier: UNLICENSED\r\n\r\npragma solidity ^0.8.3;\r\n\r\nimport \"../node_modules/@openzeppelin/contracts-upgradeable/access/AccessControlUpgradeable.sol\";\r\nimport \"../node_modules/@openzeppelin/contracts-upgradeable/token/ERC1155/ERC1155Upgradeable.sol\";\r\n\r\ncontract GameItems is ERC1155Upgradeable, AccessControlUpgradeable {\r\n\r\n    bytes32 public constant MINTER_ROLE = keccak256(\"MINTER_ROLE\");\r\n\r\n    uint256 public constant BasicRune = 0;\r\n    uint256 public constant IntricateRune = 1;\r\n    uint256 public constant PowerfullRune = 2;\r\n\r\n    function supportsInterface(bytes4 interfaceId) public view virtual override(ERC1155Upgradeable, AccessControlUpgradeable) returns (bool) {\r\n        return super.supportsInterface(interfaceId);\r\n    }\r\n\r\n    function initialize() initializer public {\r\n        _setupRole(DEFAULT_ADMIN_ROLE, msg.sender);\r\n    }\r\n\r\n    function mint(address _address, uint itemId, uint amount) public payable onlyRole(MINTER_ROLE) {\r\n        _mint(_address, itemId, amount, \"\");\r\n    }\r\n\r\n    function burn(address from, uint id, uint amount) public payable {\r\n        _burn(from, id, amount);\r\n    }\r\n}\r\n",
  "sourcePath": "C:\\Users\\jtsch\\OneDrive\\Escritorio\\Python\\SmartContracts-NFT-Agus\\contracts\\GameItems.sol",
  "compiler": {
    "name": "solc",
    "version": "0.8.11+commit.d7f03943.Emscripten.clang"
  },
  "schemaVersion": "3.4.3",
  "updatedAt": "2022-02-09T16:55:33.441Z",
  "networkType": "ethereum",
  "devdoc": {
    "kind": "dev",
    "methods": {
      "balanceOf(address,uint256)": {
        "details": "See {IERC1155-balanceOf}. Requirements: - `account` cannot be the zero address."
      },
      "balanceOfBatch(address[],uint256[])": {
        "details": "See {IERC1155-balanceOfBatch}. Requirements: - `accounts` and `ids` must have the same length."
      },
      "getRoleAdmin(bytes32)": {
        "details": "Returns the admin role that controls `role`. See {grantRole} and {revokeRole}. To change a role's admin, use {_setRoleAdmin}."
      },
      "grantRole(bytes32,address)": {
        "details": "Grants `role` to `account`. If `account` had not been already granted `role`, emits a {RoleGranted} event. Requirements: - the caller must have ``role``'s admin role."
      },
      "hasRole(bytes32,address)": {
        "details": "Returns `true` if `account` has been granted `role`."
      },
      "isApprovedForAll(address,address)": {
        "details": "See {IERC1155-isApprovedForAll}."
      },
      "renounceRole(bytes32,address)": {
        "details": "Revokes `role` from the calling account. Roles are often managed via {grantRole} and {revokeRole}: this function's purpose is to provide a mechanism for accounts to lose their privileges if they are compromised (such as when a trusted device is misplaced). If the calling account had been revoked `role`, emits a {RoleRevoked} event. Requirements: - the caller must be `account`."
      },
      "revokeRole(bytes32,address)": {
        "details": "Revokes `role` from `account`. If `account` had been granted `role`, emits a {RoleRevoked} event. Requirements: - the caller must have ``role``'s admin role."
      },
      "safeBatchTransferFrom(address,address,uint256[],uint256[],bytes)": {
        "details": "See {IERC1155-safeBatchTransferFrom}."
      },
      "safeTransferFrom(address,address,uint256,uint256,bytes)": {
        "details": "See {IERC1155-safeTransferFrom}."
      },
      "setApprovalForAll(address,bool)": {
        "details": "See {IERC1155-setApprovalForAll}."
      },
      "uri(uint256)": {
        "details": "See {IERC1155MetadataURI-uri}. This implementation returns the same URI for *all* token types. It relies on the token type ID substitution mechanism https://eips.ethereum.org/EIPS/eip-1155#metadata[defined in the EIP]. Clients calling this function must replace the `\\{id\\}` substring with the actual token type ID."
      }
    },
    "version": 1
  },
  "userdoc": {
    "kind": "user",
    "methods": {},
    "version": 1
  }
}