{
  "contractName": "Marketplace",
  "abi": [
    {
      "anonymous": false,
      "inputs": [
        {
          "indexed": false,
          "internalType": "uint256",
          "name": "offerId",
          "type": "uint256"
        },
        {
          "indexed": false,
          "internalType": "address",
          "name": "owner",
          "type": "address"
        },
        {
          "indexed": false,
          "internalType": "uint256",
          "name": "itemId",
          "type": "uint256"
        },
        {
          "indexed": false,
          "internalType": "uint256",
          "name": "originalAmount",
          "type": "uint256"
        },
        {
          "indexed": false,
          "internalType": "uint256",
          "name": "currentAmount",
          "type": "uint256"
        },
        {
          "indexed": false,
          "internalType": "uint256",
          "name": "price",
          "type": "uint256"
        },
        {
          "indexed": false,
          "internalType": "string",
          "name": "status",
          "type": "string"
        }
      ],
      "name": "OfferUpdated",
      "type": "event"
    },
    {
      "anonymous": false,
      "inputs": [
        {
          "indexed": true,
          "internalType": "bytes32",
          "name": "role",
          "type": "bytes32"
        },
        {
          "indexed": true,
          "internalType": "bytes32",
          "name": "previousAdminRole",
          "type": "bytes32"
        },
        {
          "indexed": true,
          "internalType": "bytes32",
          "name": "newAdminRole",
          "type": "bytes32"
        }
      ],
      "name": "RoleAdminChanged",
      "type": "event"
    },
    {
      "anonymous": false,
      "inputs": [
        {
          "indexed": true,
          "internalType": "bytes32",
          "name": "role",
          "type": "bytes32"
        },
        {
          "indexed": true,
          "internalType": "address",
          "name": "account",
          "type": "address"
        },
        {
          "indexed": true,
          "internalType": "address",
          "name": "sender",
          "type": "address"
        }
      ],
      "name": "RoleGranted",
      "type": "event"
    },
    {
      "anonymous": false,
      "inputs": [
        {
          "indexed": true,
          "internalType": "bytes32",
          "name": "role",
          "type": "bytes32"
        },
        {
          "indexed": true,
          "internalType": "address",
          "name": "account",
          "type": "address"
        },
        {
          "indexed": true,
          "internalType": "address",
          "name": "sender",
          "type": "address"
        }
      ],
      "name": "RoleRevoked",
      "type": "event"
    },
    {
      "inputs": [],
      "name": "DEFAULT_ADMIN_ROLE",
      "outputs": [
        {
          "internalType": "bytes32",
          "name": "",
          "type": "bytes32"
        }
      ],
      "stateMutability": "view",
      "type": "function",
      "constant": true
    },
    {
      "inputs": [
        {
          "internalType": "bytes32",
          "name": "role",
          "type": "bytes32"
        }
      ],
      "name": "getRoleAdmin",
      "outputs": [
        {
          "internalType": "bytes32",
          "name": "",
          "type": "bytes32"
        }
      ],
      "stateMutability": "view",
      "type": "function",
      "constant": true
    },
    {
      "inputs": [
        {
          "internalType": "bytes32",
          "name": "role",
          "type": "bytes32"
        },
        {
          "internalType": "address",
          "name": "account",
          "type": "address"
        }
      ],
      "name": "grantRole",
      "outputs": [],
      "stateMutability": "nonpayable",
      "type": "function"
    },
    {
      "inputs": [
        {
          "internalType": "bytes32",
          "name": "role",
          "type": "bytes32"
        },
        {
          "internalType": "address",
          "name": "account",
          "type": "address"
        }
      ],
      "name": "hasRole",
      "outputs": [
        {
          "internalType": "bool",
          "name": "",
          "type": "bool"
        }
      ],
      "stateMutability": "view",
      "type": "function",
      "constant": true
    },
    {
      "inputs": [
        {
          "internalType": "uint256",
          "name": "",
          "type": "uint256"
        }
      ],
      "name": "offers",
      "outputs": [
        {
          "internalType": "address",
          "name": "owner",
          "type": "address"
        },
        {
          "internalType": "uint256",
          "name": "itemId",
          "type": "uint256"
        },
        {
          "internalType": "uint256",
          "name": "originalAmount",
          "type": "uint256"
        },
        {
          "internalType": "uint256",
          "name": "currentAmount",
          "type": "uint256"
        },
        {
          "internalType": "uint256",
          "name": "price",
          "type": "uint256"
        },
        {
          "internalType": "string",
          "name": "status",
          "type": "string"
        }
      ],
      "stateMutability": "view",
      "type": "function",
      "constant": true
    },
    {
      "inputs": [
        {
          "internalType": "address",
          "name": "",
          "type": "address"
        },
        {
          "internalType": "address",
          "name": "",
          "type": "address"
        },
        {
          "internalType": "uint256[]",
          "name": "",
          "type": "uint256[]"
        },
        {
          "internalType": "uint256[]",
          "name": "",
          "type": "uint256[]"
        },
        {
          "internalType": "bytes",
          "name": "",
          "type": "bytes"
        }
      ],
      "name": "onERC1155BatchReceived",
      "outputs": [
        {
          "internalType": "bytes4",
          "name": "",
          "type": "bytes4"
        }
      ],
      "stateMutability": "nonpayable",
      "type": "function"
    },
    {
      "inputs": [
        {
          "internalType": "address",
          "name": "",
          "type": "address"
        },
        {
          "internalType": "address",
          "name": "",
          "type": "address"
        },
        {
          "internalType": "uint256",
          "name": "",
          "type": "uint256"
        },
        {
          "internalType": "uint256",
          "name": "",
          "type": "uint256"
        },
        {
          "internalType": "bytes",
          "name": "",
          "type": "bytes"
        }
      ],
      "name": "onERC1155Received",
      "outputs": [
        {
          "internalType": "bytes4",
          "name": "",
          "type": "bytes4"
        }
      ],
      "stateMutability": "nonpayable",
      "type": "function"
    },
    {
      "inputs": [
        {
          "internalType": "bytes32",
          "name": "role",
          "type": "bytes32"
        },
        {
          "internalType": "address",
          "name": "account",
          "type": "address"
        }
      ],
      "name": "renounceRole",
      "outputs": [],
      "stateMutability": "nonpayable",
      "type": "function"
    },
    {
      "inputs": [
        {
          "internalType": "bytes32",
          "name": "role",
          "type": "bytes32"
        },
        {
          "internalType": "address",
          "name": "account",
          "type": "address"
        }
      ],
      "name": "revokeRole",
      "outputs": [],
      "stateMutability": "nonpayable",
      "type": "function"
    },
    {
      "inputs": [],
      "name": "initialize",
      "outputs": [],
      "stateMutability": "nonpayable",
      "type": "function"
    },
    {
      "inputs": [
        {
          "internalType": "bytes4",
          "name": "interfaceId",
          "type": "bytes4"
        }
      ],
      "name": "supportsInterface",
      "outputs": [
        {
          "internalType": "bool",
          "name": "",
          "type": "bool"
        }
      ],
      "stateMutability": "view",
      "type": "function",
      "constant": true
    },
    {
      "inputs": [
        {
          "internalType": "uint256",
          "name": "offerId",
          "type": "uint256"
        }
      ],
      "name": "offerOwner",
      "outputs": [
        {
          "internalType": "address",
          "name": "",
          "type": "address"
        }
      ],
      "stateMutability": "view",
      "type": "function",
      "constant": true
    },
    {
      "inputs": [
        {
          "internalType": "uint256",
          "name": "offerId",
          "type": "uint256"
        }
      ],
      "name": "offerItemId",
      "outputs": [
        {
          "internalType": "uint256",
          "name": "",
          "type": "uint256"
        }
      ],
      "stateMutability": "view",
      "type": "function",
      "constant": true
    },
    {
      "inputs": [
        {
          "internalType": "uint256",
          "name": "offerId",
          "type": "uint256"
        }
      ],
      "name": "offerOriginalAmount",
      "outputs": [
        {
          "internalType": "uint256",
          "name": "",
          "type": "uint256"
        }
      ],
      "stateMutability": "view",
      "type": "function",
      "constant": true
    },
    {
      "inputs": [
        {
          "internalType": "uint256",
          "name": "offerId",
          "type": "uint256"
        }
      ],
      "name": "offerCurrentAmount",
      "outputs": [
        {
          "internalType": "uint256",
          "name": "",
          "type": "uint256"
        }
      ],
      "stateMutability": "view",
      "type": "function",
      "constant": true
    },
    {
      "inputs": [
        {
          "internalType": "uint256",
          "name": "offerId",
          "type": "uint256"
        }
      ],
      "name": "offerPrice",
      "outputs": [
        {
          "internalType": "uint256",
          "name": "",
          "type": "uint256"
        }
      ],
      "stateMutability": "view",
      "type": "function",
      "constant": true
    },
    {
      "inputs": [
        {
          "internalType": "uint256",
          "name": "offerId",
          "type": "uint256"
        }
      ],
      "name": "offerStatus",
      "outputs": [
        {
          "internalType": "string",
          "name": "",
          "type": "string"
        }
      ],
      "stateMutability": "view",
      "type": "function",
      "constant": true
    },
    {
      "inputs": [],
      "name": "offersQuantity",
      "outputs": [
        {
          "internalType": "uint256",
          "name": "",
          "type": "uint256"
        }
      ],
      "stateMutability": "view",
      "type": "function",
      "constant": true
    },
    {
      "inputs": [
        {
          "internalType": "uint256",
          "name": "itemId",
          "type": "uint256"
        },
        {
          "internalType": "uint256",
          "name": "itemQnt",
          "type": "uint256"
        },
        {
          "internalType": "uint256",
          "name": "price",
          "type": "uint256"
        }
      ],
      "name": "CreateOffer",
      "outputs": [],
      "stateMutability": "nonpayable",
      "type": "function"
    },
    {
      "inputs": [
        {
          "internalType": "uint256",
          "name": "offerId",
          "type": "uint256"
        }
      ],
      "name": "CancelOffer",
      "outputs": [],
      "stateMutability": "nonpayable",
      "type": "function"
    },
    {
      "inputs": [
        {
          "internalType": "uint256",
          "name": "offerId",
          "type": "uint256"
        },
        {
          "internalType": "uint256",
          "name": "itemQnt",
          "type": "uint256"
        }
      ],
      "name": "AcceptOffer",
      "outputs": [],
      "stateMutability": "nonpayable",
      "type": "function"
    },
    {
      "inputs": [
        {
          "internalType": "address",
          "name": "newGameItems",
          "type": "address"
        }
      ],
      "name": "transferGameItemsAddress",
      "outputs": [],
      "stateMutability": "nonpayable",
      "type": "function"
    },
    {
      "inputs": [
        {
          "internalType": "address",
          "name": "newToken",
          "type": "address"
        }
      ],
      "name": "transferTokenAddress",
      "outputs": [],
      "stateMutability": "nonpayable",
      "type": "function"
    },
    {
      "inputs": [
        {
          "internalType": "address",
          "name": "newGameDev",
          "type": "address"
        }
      ],
      "name": "transferGameDevAddress",
      "outputs": [],
      "stateMutability": "nonpayable",
      "type": "function"
    }
  ],
  "bytecode": "0x608060405234801561001057600080fd5b50613128806100206000396000f3fe608060405234801561001057600080fd5b50600436106101585760003560e01c80636b429216116100c3578063a217fddf1161007c578063a217fddf146103ea578063a9de3db114610408578063bc197c8114610438578063d547741f14610468578063d843b2c714610484578063f23a6e61146104b457610158565b80636b429216146103115780637669ad431461032f5780638129fc1c1461034b5780638a0103bb146103555780638a72ea6a1461038557806391d14854146103ba57610158565b806336568abe1161011557806336568abe14610241578063368c38db1461025d578063438e49c4146102795780634e455dbe146102a95780634ed4d42a146102c557806368a53da0146102e157610158565b806301ffc9a71461015d57806316f6bca91461018d578063248a9ca3146101a957806324c59b6e146101d957806328bc02cc146101f55780632f2ff15d14610225575b600080fd5b6101776004803603810190610172919061204f565b6104e4565b6040516101849190612097565b60405180910390f35b6101a760048036038101906101a29190612110565b6104f6565b005b6101c360048036038101906101be9190612173565b6105b3565b6040516101d091906121af565b60405180910390f35b6101f360048036038101906101ee9190612200565b6105d3565b005b61020f600480360381019061020a9190612253565b610891565b60405161021c919061228f565b60405180910390f35b61023f600480360381019061023a91906122aa565b6108e0565b005b61025b600480360381019061025691906122aa565b610909565b005b61027760048036038101906102729190612110565b61098c565b005b610293600480360381019061028e9190612253565b6109e6565b6040516102a091906122f9565b60405180910390f35b6102c360048036038101906102be9190612253565b610a15565b005b6102df60048036038101906102da9190612110565b610d9b565b005b6102fb60048036038101906102f69190612253565b610e58565b60405161030891906122f9565b60405180910390f35b610319610e87565b60405161032691906122f9565b60405180910390f35b61034960048036038101906103449190612314565b610e99565b005b610353611572565b005b61036f600480360381019061036a9190612253565b6116b8565b60405161037c91906122f9565b60405180910390f35b61039f600480360381019061039a9190612253565b6116e7565b6040516103b1969594939291906123ed565b60405180910390f35b6103d460048036038101906103cf91906122aa565b6117db565b6040516103e19190612097565b60405180910390f35b6103f2611846565b6040516103ff91906121af565b60405180910390f35b610422600480360381019061041d9190612253565b61184d565b60405161042f91906122f9565b60405180910390f35b610452600480360381019061044d9190612652565b61187c565b60405161045f9190612730565b60405180910390f35b610482600480360381019061047d91906122aa565b611891565b005b61049e60048036038101906104999190612253565b6118ba565b6040516104ab919061274b565b60405180910390f35b6104ce60048036038101906104c9919061276d565b611971565b6040516104db9190612730565b60405180910390f35b60006104ef82611986565b9050919050565b6000801b61050b81610506611a00565b611a08565b81609760006101000a81548173ffffffffffffffffffffffffffffffffffffffff021916908373ffffffffffffffffffffffffffffffffffffffff160217905550609760009054906101000a900473ffffffffffffffffffffffffffffffffffffffff16609b60006101000a81548173ffffffffffffffffffffffffffffffffffffffff021916908373ffffffffffffffffffffffffffffffffffffffff1602179055505050565b600060656000838152602001908152602001600020600101549050919050565b81609b60009054906101000a900473ffffffffffffffffffffffffffffffffffffffff1673ffffffffffffffffffffffffffffffffffffffff1662fdd58e33866040518363ffffffff1660e01b8152600401610630929190612804565b602060405180830381865afa15801561064d573d6000803e3d6000fd5b505050506040513d601f19601f820116820180604052508101906106719190612842565b101561067c57600080fd5b609b60009054906101000a900473ffffffffffffffffffffffffffffffffffffffff1673ffffffffffffffffffffffffffffffffffffffff1663f242432a333086866040518563ffffffff1660e01b81526004016106dd94939291906128a6565b600060405180830381600087803b1580156106f757600080fd5b505af115801561070b573d6000803e3d6000fd5b505050506000609a805490509050609a6040518060c001604052803373ffffffffffffffffffffffffffffffffffffffff1681526020018681526020018581526020018581526020018481526020016040518060400160405280600481526020017f4f70656e00000000000000000000000000000000000000000000000000000000815250815250908060018154018082558091505060019003906000526020600020906006020160009091909190915060008201518160000160006101000a81548173ffffffffffffffffffffffffffffffffffffffff021916908373ffffffffffffffffffffffffffffffffffffffff1602179055506020820151816001015560408201518160020155606082015181600301556080820151816004015560a0820151816005019080519060200190610847929190611f40565b5050507fd1bbe3d7bf0c75159ef7737ae16570cbb13ba2e5716e4324dc03524e62745abc8133868687876040516108839695949392919061294a565b60405180910390a150505050565b6000609a82815481106108a7576108a66129be565b5b906000526020600020906006020160000160009054906101000a900473ffffffffffffffffffffffffffffffffffffffff169050919050565b6108e9826105b3565b6108fa816108f5611a00565b611a08565b6109048383611aa5565b505050565b610911611a00565b73ffffffffffffffffffffffffffffffffffffffff168173ffffffffffffffffffffffffffffffffffffffff161461097e576040517f08c379a000000000000000000000000000000000000000000000000000000000815260040161097590612a5f565b60405180910390fd5b6109888282611b86565b5050565b6000801b6109a18161099c611a00565b611a08565b81609960006101000a81548173ffffffffffffffffffffffffffffffffffffffff021916908373ffffffffffffffffffffffffffffffffffffffff1602179055505050565b6000609a82815481106109fc576109fb6129be565b5b9060005260206000209060060201600401549050919050565b3373ffffffffffffffffffffffffffffffffffffffff16609a8281548110610a4057610a3f6129be565b5b906000526020600020906006020160000160009054906101000a900473ffffffffffffffffffffffffffffffffffffffff1673ffffffffffffffffffffffffffffffffffffffff1614610a9257600080fd5b604051602001610aa190612aad565b60405160208183030381529060405280519060200120609a8281548110610acb57610aca6129be565b5b9060005260206000209060060201600501604051602001610aec9190612bb7565b6040516020818303038152906040528051906020012014610b0c57600080fd5b6040518060400160405280600981526020017f43616e63656c6c65640000000000000000000000000000000000000000000000815250609a8281548110610b5657610b556129be565b5b90600052602060002090600602016005019080519060200190610b7a929190611f40565b50609b60009054906101000a900473ffffffffffffffffffffffffffffffffffffffff1673ffffffffffffffffffffffffffffffffffffffff1663f242432a3033609a8581548110610bcf57610bce6129be565b5b906000526020600020906006020160010154609a8681548110610bf557610bf46129be565b5b9060005260206000209060060201600301546040518563ffffffff1660e01b8152600401610c2694939291906128a6565b600060405180830381600087803b158015610c4057600080fd5b505af1158015610c54573d6000803e3d6000fd5b505050507fd1bbe3d7bf0c75159ef7737ae16570cbb13ba2e5716e4324dc03524e62745abc81609a8381548110610c8e57610c8d6129be565b5b906000526020600020906006020160000160009054906101000a900473ffffffffffffffffffffffffffffffffffffffff16609a8481548110610cd457610cd36129be565b5b906000526020600020906006020160010154609a8581548110610cfa57610cf96129be565b5b906000526020600020906006020160020154609a8681548110610d2057610d1f6129be565b5b906000526020600020906006020160030154609a8781548110610d4657610d456129be565b5b906000526020600020906006020160040154609a8881548110610d6c57610d6b6129be565b5b9060005260206000209060060201600501604051610d909796959493929190612c4e565b60405180910390a150565b6000801b610db081610dab611a00565b611a08565b81609860006101000a81548173ffffffffffffffffffffffffffffffffffffffff021916908373ffffffffffffffffffffffffffffffffffffffff160217905550609860009054906101000a900473ffffffffffffffffffffffffffffffffffffffff16609c60006101000a81548173ffffffffffffffffffffffffffffffffffffffff021916908373ffffffffffffffffffffffffffffffffffffffff1602179055505050565b6000609a8281548110610e6e57610e6d6129be565b5b9060005260206000209060060201600301549050919050565b600080609a8054905090508091505090565b3373ffffffffffffffffffffffffffffffffffffffff16609a8381548110610ec457610ec36129be565b5b906000526020600020906006020160000160009054906101000a900473ffffffffffffffffffffffffffffffffffffffff1673ffffffffffffffffffffffffffffffffffffffff161415610f1757600080fd5b604051602001610f2690612aad565b60405160208183030381529060405280519060200120609a8381548110610f5057610f4f6129be565b5b9060005260206000209060060201600501604051602001610f719190612bb7565b6040516020818303038152906040528051906020012014610f9157600080fd5b600081609a8481548110610fa857610fa76129be565b5b906000526020600020906006020160040154610fc49190612cf3565b905080609c60009054906101000a900473ffffffffffffffffffffffffffffffffffffffff1673ffffffffffffffffffffffffffffffffffffffff166370a08231336040518263ffffffff1660e01b8152600401611022919061228f565b602060405180830381865afa15801561103f573d6000803e3d6000fd5b505050506040513d601f19601f820116820180604052508101906110639190612842565b101561106e57600080fd5b609a8381548110611082576110816129be565b5b9060005260206000209060060201600301548211156110a057600080fd5b81609a84815481106110b5576110b46129be565b5b9060005260206000209060060201600301546110d19190612d4d565b609a84815481106110e5576110e46129be565b5b9060005260206000209060060201600301819055506000609a84815481106111105761110f6129be565b5b9060005260206000209060060201600301541415611198576040518060400160405280600681526020017f436c6f7365640000000000000000000000000000000000000000000000000000815250609a8481548110611172576111716129be565b5b90600052602060002090600602016005019080519060200190611196929190611f40565b505b609c60009054906101000a900473ffffffffffffffffffffffffffffffffffffffff1673ffffffffffffffffffffffffffffffffffffffff166323b872dd33609a86815481106111eb576111ea6129be565b5b906000526020600020906006020160000160009054906101000a900473ffffffffffffffffffffffffffffffffffffffff16606460608661122c9190612cf3565b6112369190612db0565b6040518463ffffffff1660e01b815260040161125493929190612de1565b6020604051808303816000875af1158015611273573d6000803e3d6000fd5b505050506040513d601f19601f820116820180604052508101906112979190612e44565b50609c60009054906101000a900473ffffffffffffffffffffffffffffffffffffffff1673ffffffffffffffffffffffffffffffffffffffff166323b872dd33609960009054906101000a900473ffffffffffffffffffffffffffffffffffffffff1660646004866113099190612cf3565b6113139190612db0565b6040518463ffffffff1660e01b815260040161133193929190612de1565b6020604051808303816000875af1158015611350573d6000803e3d6000fd5b505050506040513d601f19601f820116820180604052508101906113749190612e44565b50609b60009054906101000a900473ffffffffffffffffffffffffffffffffffffffff1673ffffffffffffffffffffffffffffffffffffffff1663f242432a3033609a87815481106113c9576113c86129be565b5b906000526020600020906006020160010154866040518563ffffffff1660e01b81526004016113fb94939291906128a6565b600060405180830381600087803b15801561141557600080fd5b505af1158015611429573d6000803e3d6000fd5b505050507fd1bbe3d7bf0c75159ef7737ae16570cbb13ba2e5716e4324dc03524e62745abc83609a8581548110611463576114626129be565b5b906000526020600020906006020160000160009054906101000a900473ffffffffffffffffffffffffffffffffffffffff16609a86815481106114a9576114a86129be565b5b906000526020600020906006020160010154609a87815481106114cf576114ce6129be565b5b906000526020600020906006020160020154609a88815481106114f5576114f46129be565b5b906000526020600020906006020160030154609a898154811061151b5761151a6129be565b5b906000526020600020906006020160040154609a8a81548110611541576115406129be565b5b90600052602060002090600602016005016040516115659796959493929190612c4e565b60405180910390a1505050565b600060019054906101000a900460ff1661159a5760008054906101000a900460ff16156115a3565b6115a2611c68565b5b6115e2576040517f08c379a00000000000000000000000000000000000000000000000000000000081526004016115d990612ee3565b60405180910390fd5b60008060019054906101000a900460ff161590508015611632576001600060016101000a81548160ff02191690831515021790555060016000806101000a81548160ff0219169083151502179055505b73fd768e668a158c173e9549d1632902c2a4363178609960006101000a81548173ffffffffffffffffffffffffffffffffffffffff021916908373ffffffffffffffffffffffffffffffffffffffff1602179055506116946000801b33611c79565b80156116b55760008060016101000a81548160ff0219169083151502179055505b50565b6000609a82815481106116ce576116cd6129be565b5b9060005260206000209060060201600101549050919050565b609a81815481106116f757600080fd5b90600052602060002090600602016000915090508060000160009054906101000a900473ffffffffffffffffffffffffffffffffffffffff169080600101549080600201549080600301549080600401549080600501805461175890612af1565b80601f016020809104026020016040519081016040528092919081815260200182805461178490612af1565b80156117d15780601f106117a6576101008083540402835291602001916117d1565b820191906000526020600020905b8154815290600101906020018083116117b457829003601f168201915b5050505050905086565b60006065600084815260200190815260200160002060000160008373ffffffffffffffffffffffffffffffffffffffff1673ffffffffffffffffffffffffffffffffffffffff16815260200190815260200160002060009054906101000a900460ff16905092915050565b6000801b81565b6000609a8281548110611863576118626129be565b5b9060005260206000209060060201600201549050919050565b600063bc197c8160e01b905095945050505050565b61189a826105b3565b6118ab816118a6611a00565b611a08565b6118b58383611b86565b505050565b6060609a82815481106118d0576118cf6129be565b5b906000526020600020906006020160050180546118ec90612af1565b80601f016020809104026020016040519081016040528092919081815260200182805461191890612af1565b80156119655780601f1061193a57610100808354040283529160200191611965565b820191906000526020600020905b81548152906001019060200180831161194857829003601f168201915b50505050509050919050565b600063f23a6e6160e01b905095945050505050565b60007f4e2312e0000000000000000000000000000000000000000000000000000000007bffffffffffffffffffffffffffffffffffffffffffffffffffffffff1916827bffffffffffffffffffffffffffffffffffffffffffffffffffffffff191614806119f957506119f882611c87565b5b9050919050565b600033905090565b611a1282826117db565b611aa157611a378173ffffffffffffffffffffffffffffffffffffffff166014611cf1565b611a458360001c6020611cf1565b604051602001611a56929190612fcc565b6040516020818303038152906040526040517f08c379a0000000000000000000000000000000000000000000000000000000008152600401611a98919061274b565b60405180910390fd5b5050565b611aaf82826117db565b611b825760016065600084815260200190815260200160002060000160008373ffffffffffffffffffffffffffffffffffffffff1673ffffffffffffffffffffffffffffffffffffffff16815260200190815260200160002060006101000a81548160ff021916908315150217905550611b27611a00565b73ffffffffffffffffffffffffffffffffffffffff168173ffffffffffffffffffffffffffffffffffffffff16837f2f8788117e7eff1d82e926ec794901d17c78024a50270940304540a733656f0d60405160405180910390a45b5050565b611b9082826117db565b15611c645760006065600084815260200190815260200160002060000160008373ffffffffffffffffffffffffffffffffffffffff1673ffffffffffffffffffffffffffffffffffffffff16815260200190815260200160002060006101000a81548160ff021916908315150217905550611c09611a00565b73ffffffffffffffffffffffffffffffffffffffff168173ffffffffffffffffffffffffffffffffffffffff16837ff6391f5c32d9c69d2a47ea670b442974b53935d1edc7fd64eb21e047a839171b60405160405180910390a45b5050565b6000611c7330611f2d565b15905090565b611c838282611aa5565b5050565b60007f01ffc9a7000000000000000000000000000000000000000000000000000000007bffffffffffffffffffffffffffffffffffffffffffffffffffffffff1916827bffffffffffffffffffffffffffffffffffffffffffffffffffffffff1916149050919050565b606060006002836002611d049190612cf3565b611d0e9190613006565b67ffffffffffffffff811115611d2757611d2661245a565b5b6040519080825280601f01601f191660200182016040528015611d595781602001600182028036833780820191505090505b5090507f300000000000000000000000000000000000000000000000000000000000000081600081518110611d9157611d906129be565b5b60200101907effffffffffffffffffffffffffffffffffffffffffffffffffffffffffffff1916908160001a9053507f780000000000000000000000000000000000000000000000000000000000000081600181518110611df557611df46129be565b5b60200101907effffffffffffffffffffffffffffffffffffffffffffffffffffffffffffff1916908160001a90535060006001846002611e359190612cf3565b611e3f9190613006565b90505b6001811115611edf577f3031323334353637383961626364656600000000000000000000000000000000600f861660108110611e8157611e806129be565b5b1a60f81b828281518110611e9857611e976129be565b5b60200101907effffffffffffffffffffffffffffffffffffffffffffffffffffffffffffff1916908160001a905350600485901c945080611ed89061305c565b9050611e42565b5060008414611f23576040517f08c379a0000000000000000000000000000000000000000000000000000000008152600401611f1a906130d2565b60405180910390fd5b8091505092915050565b600080823b905060008111915050919050565b828054611f4c90612af1565b90600052602060002090601f016020900481019282611f6e5760008555611fb5565b82601f10611f8757805160ff1916838001178555611fb5565b82800160010185558215611fb5579182015b82811115611fb4578251825591602001919060010190611f99565b5b509050611fc29190611fc6565b5090565b5b80821115611fdf576000816000905550600101611fc7565b5090565b6000604051905090565b600080fd5b600080fd5b60007fffffffff0000000000000000000000000000000000000000000000000000000082169050919050565b61202c81611ff7565b811461203757600080fd5b50565b60008135905061204981612023565b92915050565b60006020828403121561206557612064611fed565b5b60006120738482850161203a565b91505092915050565b60008115159050919050565b6120918161207c565b82525050565b60006020820190506120ac6000830184612088565b92915050565b600073ffffffffffffffffffffffffffffffffffffffff82169050919050565b60006120dd826120b2565b9050919050565b6120ed816120d2565b81146120f857600080fd5b50565b60008135905061210a816120e4565b92915050565b60006020828403121561212657612125611fed565b5b6000612134848285016120fb565b91505092915050565b6000819050919050565b6121508161213d565b811461215b57600080fd5b50565b60008135905061216d81612147565b92915050565b60006020828403121561218957612188611fed565b5b60006121978482850161215e565b91505092915050565b6121a98161213d565b82525050565b60006020820190506121c460008301846121a0565b92915050565b6000819050919050565b6121dd816121ca565b81146121e857600080fd5b50565b6000813590506121fa816121d4565b92915050565b60008060006060848603121561221957612218611fed565b5b6000612227868287016121eb565b9350506020612238868287016121eb565b9250506040612249868287016121eb565b9150509250925092565b60006020828403121561226957612268611fed565b5b6000612277848285016121eb565b91505092915050565b612289816120d2565b82525050565b60006020820190506122a46000830184612280565b92915050565b600080604083850312156122c1576122c0611fed565b5b60006122cf8582860161215e565b92505060206122e0858286016120fb565b9150509250929050565b6122f3816121ca565b82525050565b600060208201905061230e60008301846122ea565b92915050565b6000806040838503121561232b5761232a611fed565b5b6000612339858286016121eb565b925050602061234a858286016121eb565b9150509250929050565b600081519050919050565b600082825260208201905092915050565b60005b8381101561238e578082015181840152602081019050612373565b8381111561239d576000848401525b50505050565b6000601f19601f8301169050919050565b60006123bf82612354565b6123c9818561235f565b93506123d9818560208601612370565b6123e2816123a3565b840191505092915050565b600060c0820190506124026000830189612280565b61240f60208301886122ea565b61241c60408301876122ea565b61242960608301866122ea565b61243660808301856122ea565b81810360a083015261244881846123b4565b9050979650505050505050565b600080fd5b7f4e487b7100000000000000000000000000000000000000000000000000000000600052604160045260246000fd5b612492826123a3565b810181811067ffffffffffffffff821117156124b1576124b061245a565b5b80604052505050565b60006124c4611fe3565b90506124d08282612489565b919050565b600067ffffffffffffffff8211156124f0576124ef61245a565b5b602082029050602081019050919050565b600080fd5b6000612519612514846124d5565b6124ba565b9050808382526020820190506020840283018581111561253c5761253b612501565b5b835b81811015612565578061255188826121eb565b84526020840193505060208101905061253e565b5050509392505050565b600082601f83011261258457612583612455565b5b8135612594848260208601612506565b91505092915050565b600080fd5b600067ffffffffffffffff8211156125bd576125bc61245a565b5b6125c6826123a3565b9050602081019050919050565b82818337600083830152505050565b60006125f56125f0846125a2565b6124ba565b9050828152602081018484840111156126115761261061259d565b5b61261c8482856125d3565b509392505050565b600082601f83011261263957612638612455565b5b81356126498482602086016125e2565b91505092915050565b600080600080600060a0868803121561266e5761266d611fed565b5b600061267c888289016120fb565b955050602061268d888289016120fb565b945050604086013567ffffffffffffffff8111156126ae576126ad611ff2565b5b6126ba8882890161256f565b935050606086013567ffffffffffffffff8111156126db576126da611ff2565b5b6126e78882890161256f565b925050608086013567ffffffffffffffff81111561270857612707611ff2565b5b61271488828901612624565b9150509295509295909350565b61272a81611ff7565b82525050565b60006020820190506127456000830184612721565b92915050565b6000602082019050818103600083015261276581846123b4565b905092915050565b600080600080600060a0868803121561278957612788611fed565b5b6000612797888289016120fb565b95505060206127a8888289016120fb565b94505060406127b9888289016121eb565b93505060606127ca888289016121eb565b925050608086013567ffffffffffffffff8111156127eb576127ea611ff2565b5b6127f788828901612624565b9150509295509295909350565b60006040820190506128196000830185612280565b61282660208301846122ea565b9392505050565b60008151905061283c816121d4565b92915050565b60006020828403121561285857612857611fed565b5b60006128668482850161282d565b91505092915050565b600082825260208201905092915050565b50565b600061289060008361286f565b915061289b82612880565b600082019050919050565b600060a0820190506128bb6000830187612280565b6128c86020830186612280565b6128d560408301856122ea565b6128e260608301846122ea565b81810360808301526128f381612883565b905095945050505050565b7f4f70656e00000000000000000000000000000000000000000000000000000000600082015250565b600061293460048361235f565b915061293f826128fe565b602082019050919050565b600060e08201905061295f60008301896122ea565b61296c6020830188612280565b61297960408301876122ea565b61298660608301866122ea565b61299360808301856122ea565b6129a060a08301846122ea565b81810360c08301526129b181612927565b9050979650505050505050565b7f4e487b7100000000000000000000000000000000000000000000000000000000600052603260045260246000fd5b7f416363657373436f6e74726f6c3a2063616e206f6e6c792072656e6f756e636560008201527f20726f6c657320666f722073656c660000000000000000000000000000000000602082015250565b6000612a49602f8361235f565b9150612a54826129ed565b604082019050919050565b60006020820190508181036000830152612a7881612a3c565b9050919050565b600081905092915050565b6000612a97600483612a7f565b9150612aa2826128fe565b600482019050919050565b6000612ab882612a8a565b9150819050919050565b7f4e487b7100000000000000000000000000000000000000000000000000000000600052602260045260246000fd5b60006002820490506001821680612b0957607f821691505b60208210811415612b1d57612b1c612ac2565b5b50919050565b60008190508160005260206000209050919050565b60008154612b4581612af1565b612b4f8186612a7f565b94506001821660008114612b6a5760018114612b7b57612bae565b60ff19831686528186019350612bae565b612b8485612b23565b60005b83811015612ba657815481890152600182019150602081019050612b87565b838801955050505b50505092915050565b6000612bc38284612b38565b915081905092915050565b60008154612bdb81612af1565b612be5818661235f565b94506001821660008114612c005760018114612c1257612c45565b60ff1983168652602086019350612c45565b612c1b85612b23565b60005b83811015612c3d57815481890152600182019150602081019050612c1e565b808801955050505b50505092915050565b600060e082019050612c63600083018a6122ea565b612c706020830189612280565b612c7d60408301886122ea565b612c8a60608301876122ea565b612c9760808301866122ea565b612ca460a08301856122ea565b81810360c0830152612cb68184612bce565b905098975050505050505050565b7f4e487b7100000000000000000000000000000000000000000000000000000000600052601160045260246000fd5b6000612cfe826121ca565b9150612d09836121ca565b9250817fffffffffffffffffffffffffffffffffffffffffffffffffffffffffffffffff0483118215151615612d4257612d41612cc4565b5b828202905092915050565b6000612d58826121ca565b9150612d63836121ca565b925082821015612d7657612d75612cc4565b5b828203905092915050565b7f4e487b7100000000000000000000000000000000000000000000000000000000600052601260045260246000fd5b6000612dbb826121ca565b9150612dc6836121ca565b925082612dd657612dd5612d81565b5b828204905092915050565b6000606082019050612df66000830186612280565b612e036020830185612280565b612e1060408301846122ea565b949350505050565b612e218161207c565b8114612e2c57600080fd5b50565b600081519050612e3e81612e18565b92915050565b600060208284031215612e5a57612e59611fed565b5b6000612e6884828501612e2f565b91505092915050565b7f496e697469616c697a61626c653a20636f6e747261637420697320616c72656160008201527f647920696e697469616c697a6564000000000000000000000000000000000000602082015250565b6000612ecd602e8361235f565b9150612ed882612e71565b604082019050919050565b60006020820190508181036000830152612efc81612ec0565b9050919050565b7f416363657373436f6e74726f6c3a206163636f756e7420000000000000000000600082015250565b6000612f39601783612a7f565b9150612f4482612f03565b601782019050919050565b6000612f5a82612354565b612f648185612a7f565b9350612f74818560208601612370565b80840191505092915050565b7f206973206d697373696e6720726f6c6520000000000000000000000000000000600082015250565b6000612fb6601183612a7f565b9150612fc182612f80565b601182019050919050565b6000612fd782612f2c565b9150612fe38285612f4f565b9150612fee82612fa9565b9150612ffa8284612f4f565b91508190509392505050565b6000613011826121ca565b915061301c836121ca565b9250827fffffffffffffffffffffffffffffffffffffffffffffffffffffffffffffffff0382111561305157613050612cc4565b5b828201905092915050565b6000613067826121ca565b9150600082141561307b5761307a612cc4565b5b600182039050919050565b7f537472696e67733a20686578206c656e67746820696e73756666696369656e74600082015250565b60006130bc60208361235f565b91506130c782613086565b602082019050919050565b600060208201905081810360008301526130eb816130af565b905091905056fea2646970667358221220a9a8d0f4881e2d641cd544a7d29bd206377398b83eb93e5d44a2caa64f73dc1764736f6c634300080b0033",
  "immutableReferences": {},
  "source": "// SPDX-License-Identifier: UNLICENSED\r\n\r\npragma solidity ^0.8.3;\r\n\r\nimport \"./AbstractGameItems.sol\";\r\nimport \"./AbstractPTG.sol\";\r\nimport \"../node_modules/@openzeppelin/contracts/token/ERC1155/utils/ERC1155Holder.sol\";\r\nimport \"../node_modules/@openzeppelin/contracts-upgradeable/access/AccessControlUpgradeable.sol\";\r\nimport \"../node_modules/@openzeppelin/contracts-upgradeable/proxy/utils/Initializable.sol\";\r\n\r\ncontract Marketplace is Initializable, AccessControlUpgradeable, ERC1155Holder {\r\n\r\n    event OfferUpdated(\r\n        uint offerId,\r\n        address owner,\r\n        uint itemId,\r\n        uint originalAmount,\r\n        uint currentAmount,\r\n        uint price,\r\n        string status\r\n        );\r\n\r\n    address GameItemsAddress;\r\n    address TokenAddress;\r\n    address GameDevAddress;\r\n\r\n    struct Offer {\r\n        address owner;\r\n        uint itemId;\r\n        uint originalAmount;\r\n        uint currentAmount;\r\n        uint price;\r\n        string status;\r\n    }\r\n\r\n    Offer[] public offers;\r\n    AbstractGameItems gameItems;\r\n    AbstractPTG PTG;\r\n\r\n    function initialize() initializer public {\r\n        GameDevAddress = 0xfd768E668A158C173e9549d1632902C2A4363178;\r\n        _setupRole(DEFAULT_ADMIN_ROLE, msg.sender);\r\n    }\r\n\r\n    function supportsInterface(bytes4 interfaceId) public view virtual override(ERC1155Receiver, AccessControlUpgradeable) returns (bool) {\r\n        return super.supportsInterface(interfaceId);\r\n    }\r\n\r\n    //View Functions\r\n    function offerOwner(uint offerId) public view returns (address) {\r\n        return offers[offerId].owner;\r\n    }\r\n\r\n    function offerItemId(uint offerId) public view returns (uint) {\r\n        return offers[offerId].itemId;\r\n    }\r\n\r\n    function offerOriginalAmount(uint offerId) public view returns (uint) {\r\n        return offers[offerId].originalAmount;\r\n    }\r\n    function offerCurrentAmount(uint offerId) public view returns (uint) {\r\n        return offers[offerId].currentAmount;\r\n    }\r\n\r\n    function offerPrice(uint offerId) public view returns (uint) {\r\n        return offers[offerId].price;\r\n    }\r\n\r\n    function offerStatus(uint offerId) public view returns (string memory) {\r\n        return offers[offerId].status;\r\n    }\r\n\r\n    function offersQuantity() public view returns (uint) {\r\n        uint quantity = offers.length;\r\n        return quantity;\r\n    }\r\n\r\n    function CreateOffer(uint itemId, uint itemQnt, uint price) public {\r\n        require(gameItems.balanceOf(msg.sender, itemId) >= itemQnt);\r\n        gameItems.safeTransferFrom(msg.sender, address(this), itemId, itemQnt, \"\");\r\n        uint offerId = offers.length;\r\n        offers.push(Offer(msg.sender, itemId, itemQnt, itemQnt, price, \"Open\"));\r\n        emit OfferUpdated(offerId, msg.sender, itemId, itemQnt, itemQnt, price, \"Open\");\r\n    }\r\n\r\n    function CancelOffer(uint offerId) public {\r\n        require(offers[offerId].owner == msg.sender);\r\n        require(keccak256(abi.encodePacked(offers[offerId].status)) == keccak256(abi.encodePacked(\"Open\")));\r\n        offers[offerId].status = \"Cancelled\";\r\n        gameItems.safeTransferFrom(address(this), msg.sender, offers[offerId].itemId, offers[offerId].currentAmount, \"\");\r\n        emit OfferUpdated(offerId, offers[offerId].owner, offers[offerId].itemId, offers[offerId].originalAmount, offers[offerId].currentAmount, offers[offerId].price, offers[offerId].status);\r\n    }\r\n\r\n    function AcceptOffer(uint offerId, uint itemQnt) public {\r\n        require(offers[offerId].owner != msg.sender);\r\n        require(keccak256(abi.encodePacked(offers[offerId].status)) == keccak256(abi.encodePacked(\"Open\")));\r\n        uint totalPrice = offers[offerId].price*itemQnt;\r\n        require(PTG.balanceOf(msg.sender)>= totalPrice);\r\n        require(itemQnt <= offers[offerId].currentAmount);\r\n\r\n        offers[offerId].currentAmount = offers[offerId].currentAmount - itemQnt;\r\n        if (offers[offerId].currentAmount == 0) {\r\n            offers[offerId].status = \"Closed\";\r\n        }\r\n        PTG.transferFrom(msg.sender, offers[offerId].owner, totalPrice*96/100);\r\n        PTG.transferFrom(msg.sender, GameDevAddress, totalPrice*4/100);\r\n        gameItems.safeTransferFrom(address(this), msg.sender, offers[offerId].itemId, itemQnt, \"\");\r\n        emit OfferUpdated(offerId, offers[offerId].owner, offers[offerId].itemId, offers[offerId].originalAmount, offers[offerId].currentAmount, offers[offerId].price, offers[offerId].status);\r\n\r\n    }\r\n\r\n    function transferGameItemsAddress(address newGameItems) public onlyRole(DEFAULT_ADMIN_ROLE) {\r\n        GameItemsAddress = newGameItems;\r\n        gameItems = AbstractGameItems(GameItemsAddress);\r\n    }\r\n\r\n    function transferTokenAddress(address newToken) public onlyRole(DEFAULT_ADMIN_ROLE) {\r\n        TokenAddress = newToken;\r\n        PTG = AbstractPTG(TokenAddress);\r\n    }\r\n\r\n    function transferGameDevAddress(address newGameDev) public onlyRole(DEFAULT_ADMIN_ROLE) {\r\n        GameDevAddress = newGameDev;\r\n    }\r\n\r\n}",
  "sourcePath": "C:\\Users\\jtsch\\OneDrive\\Escritorio\\Python\\SmartContracts-NFT-Agus\\contracts\\Marketplace.sol",
  "compiler": {
    "name": "solc",
    "version": "0.8.11+commit.d7f03943.Emscripten.clang"
  },
  "schemaVersion": "3.4.3",
  "updatedAt": "2022-02-14T12:21:25.939Z",
  "networkType": "ethereum",
  "devdoc": {
    "kind": "dev",
    "methods": {
      "getRoleAdmin(bytes32)": {
        "details": "Returns the admin role that controls `role`. See {grantRole} and {revokeRole}. To change a role's admin, use {_setRoleAdmin}."
      },
      "grantRole(bytes32,address)": {
        "details": "Grants `role` to `account`. If `account` had not been already granted `role`, emits a {RoleGranted} event. Requirements: - the caller must have ``role``'s admin role."
      },
      "hasRole(bytes32,address)": {
        "details": "Returns `true` if `account` has been granted `role`."
      },
      "renounceRole(bytes32,address)": {
        "details": "Revokes `role` from the calling account. Roles are often managed via {grantRole} and {revokeRole}: this function's purpose is to provide a mechanism for accounts to lose their privileges if they are compromised (such as when a trusted device is misplaced). If the calling account had been revoked `role`, emits a {RoleRevoked} event. Requirements: - the caller must be `account`."
      },
      "revokeRole(bytes32,address)": {
        "details": "Revokes `role` from `account`. If `account` had been granted `role`, emits a {RoleRevoked} event. Requirements: - the caller must have ``role``'s admin role."
      }
    },
    "version": 1
  },
  "userdoc": {
    "kind": "user",
    "methods": {},
    "version": 1
  }
}