{
  "contractName": "Marketplace",
  "abi": [
    {
      "anonymous": false,
      "inputs": [
        {
          "indexed": false,
          "internalType": "uint256",
          "name": "offerId",
          "type": "uint256"
        }
      ],
      "name": "NewOffer",
      "type": "event"
    },
    {
      "anonymous": false,
      "inputs": [
        {
          "indexed": false,
          "internalType": "uint256",
          "name": "offerId",
          "type": "uint256"
        }
      ],
      "name": "OfferCancelled",
      "type": "event"
    },
    {
      "anonymous": false,
      "inputs": [
        {
          "indexed": false,
          "internalType": "uint256",
          "name": "offerId",
          "type": "uint256"
        }
      ],
      "name": "OfferUpdated",
      "type": "event"
    },
    {
      "anonymous": false,
      "inputs": [
        {
          "indexed": true,
          "internalType": "bytes32",
          "name": "role",
          "type": "bytes32"
        },
        {
          "indexed": true,
          "internalType": "bytes32",
          "name": "previousAdminRole",
          "type": "bytes32"
        },
        {
          "indexed": true,
          "internalType": "bytes32",
          "name": "newAdminRole",
          "type": "bytes32"
        }
      ],
      "name": "RoleAdminChanged",
      "type": "event"
    },
    {
      "anonymous": false,
      "inputs": [
        {
          "indexed": true,
          "internalType": "bytes32",
          "name": "role",
          "type": "bytes32"
        },
        {
          "indexed": true,
          "internalType": "address",
          "name": "account",
          "type": "address"
        },
        {
          "indexed": true,
          "internalType": "address",
          "name": "sender",
          "type": "address"
        }
      ],
      "name": "RoleGranted",
      "type": "event"
    },
    {
      "anonymous": false,
      "inputs": [
        {
          "indexed": true,
          "internalType": "bytes32",
          "name": "role",
          "type": "bytes32"
        },
        {
          "indexed": true,
          "internalType": "address",
          "name": "account",
          "type": "address"
        },
        {
          "indexed": true,
          "internalType": "address",
          "name": "sender",
          "type": "address"
        }
      ],
      "name": "RoleRevoked",
      "type": "event"
    },
    {
      "inputs": [],
      "name": "DEFAULT_ADMIN_ROLE",
      "outputs": [
        {
          "internalType": "bytes32",
          "name": "",
          "type": "bytes32"
        }
      ],
      "stateMutability": "view",
      "type": "function",
      "constant": true
    },
    {
      "inputs": [
        {
          "internalType": "bytes32",
          "name": "role",
          "type": "bytes32"
        }
      ],
      "name": "getRoleAdmin",
      "outputs": [
        {
          "internalType": "bytes32",
          "name": "",
          "type": "bytes32"
        }
      ],
      "stateMutability": "view",
      "type": "function",
      "constant": true
    },
    {
      "inputs": [
        {
          "internalType": "bytes32",
          "name": "role",
          "type": "bytes32"
        },
        {
          "internalType": "address",
          "name": "account",
          "type": "address"
        }
      ],
      "name": "grantRole",
      "outputs": [],
      "stateMutability": "nonpayable",
      "type": "function"
    },
    {
      "inputs": [
        {
          "internalType": "bytes32",
          "name": "role",
          "type": "bytes32"
        },
        {
          "internalType": "address",
          "name": "account",
          "type": "address"
        }
      ],
      "name": "hasRole",
      "outputs": [
        {
          "internalType": "bool",
          "name": "",
          "type": "bool"
        }
      ],
      "stateMutability": "view",
      "type": "function",
      "constant": true
    },
    {
      "inputs": [
        {
          "internalType": "uint256",
          "name": "",
          "type": "uint256"
        }
      ],
      "name": "offers",
      "outputs": [
        {
          "internalType": "address",
          "name": "owner",
          "type": "address"
        },
        {
          "internalType": "uint256",
          "name": "itemId",
          "type": "uint256"
        },
        {
          "internalType": "uint256",
          "name": "originalAmount",
          "type": "uint256"
        },
        {
          "internalType": "uint256",
          "name": "currentAmount",
          "type": "uint256"
        },
        {
          "internalType": "uint256",
          "name": "price",
          "type": "uint256"
        },
        {
          "internalType": "string",
          "name": "status",
          "type": "string"
        }
      ],
      "stateMutability": "view",
      "type": "function",
      "constant": true
    },
    {
      "inputs": [
        {
          "internalType": "address",
          "name": "",
          "type": "address"
        },
        {
          "internalType": "address",
          "name": "",
          "type": "address"
        },
        {
          "internalType": "uint256[]",
          "name": "",
          "type": "uint256[]"
        },
        {
          "internalType": "uint256[]",
          "name": "",
          "type": "uint256[]"
        },
        {
          "internalType": "bytes",
          "name": "",
          "type": "bytes"
        }
      ],
      "name": "onERC1155BatchReceived",
      "outputs": [
        {
          "internalType": "bytes4",
          "name": "",
          "type": "bytes4"
        }
      ],
      "stateMutability": "nonpayable",
      "type": "function"
    },
    {
      "inputs": [
        {
          "internalType": "address",
          "name": "",
          "type": "address"
        },
        {
          "internalType": "address",
          "name": "",
          "type": "address"
        },
        {
          "internalType": "uint256",
          "name": "",
          "type": "uint256"
        },
        {
          "internalType": "uint256",
          "name": "",
          "type": "uint256"
        },
        {
          "internalType": "bytes",
          "name": "",
          "type": "bytes"
        }
      ],
      "name": "onERC1155Received",
      "outputs": [
        {
          "internalType": "bytes4",
          "name": "",
          "type": "bytes4"
        }
      ],
      "stateMutability": "nonpayable",
      "type": "function"
    },
    {
      "inputs": [
        {
          "internalType": "bytes32",
          "name": "role",
          "type": "bytes32"
        },
        {
          "internalType": "address",
          "name": "account",
          "type": "address"
        }
      ],
      "name": "renounceRole",
      "outputs": [],
      "stateMutability": "nonpayable",
      "type": "function"
    },
    {
      "inputs": [
        {
          "internalType": "bytes32",
          "name": "role",
          "type": "bytes32"
        },
        {
          "internalType": "address",
          "name": "account",
          "type": "address"
        }
      ],
      "name": "revokeRole",
      "outputs": [],
      "stateMutability": "nonpayable",
      "type": "function"
    },
    {
      "inputs": [],
      "name": "initialize",
      "outputs": [],
      "stateMutability": "nonpayable",
      "type": "function"
    },
    {
      "inputs": [
        {
          "internalType": "bytes4",
          "name": "interfaceId",
          "type": "bytes4"
        }
      ],
      "name": "supportsInterface",
      "outputs": [
        {
          "internalType": "bool",
          "name": "",
          "type": "bool"
        }
      ],
      "stateMutability": "view",
      "type": "function",
      "constant": true
    },
    {
      "inputs": [
        {
          "internalType": "uint256",
          "name": "offerId",
          "type": "uint256"
        }
      ],
      "name": "offerOwner",
      "outputs": [
        {
          "internalType": "address",
          "name": "",
          "type": "address"
        }
      ],
      "stateMutability": "view",
      "type": "function",
      "constant": true
    },
    {
      "inputs": [
        {
          "internalType": "uint256",
          "name": "offerId",
          "type": "uint256"
        }
      ],
      "name": "offerItemId",
      "outputs": [
        {
          "internalType": "uint256",
          "name": "",
          "type": "uint256"
        }
      ],
      "stateMutability": "view",
      "type": "function",
      "constant": true
    },
    {
      "inputs": [
        {
          "internalType": "uint256",
          "name": "offerId",
          "type": "uint256"
        }
      ],
      "name": "offerOriginalAmount",
      "outputs": [
        {
          "internalType": "uint256",
          "name": "",
          "type": "uint256"
        }
      ],
      "stateMutability": "view",
      "type": "function",
      "constant": true
    },
    {
      "inputs": [
        {
          "internalType": "uint256",
          "name": "offerId",
          "type": "uint256"
        }
      ],
      "name": "offerCurrentAmount",
      "outputs": [
        {
          "internalType": "uint256",
          "name": "",
          "type": "uint256"
        }
      ],
      "stateMutability": "view",
      "type": "function",
      "constant": true
    },
    {
      "inputs": [
        {
          "internalType": "uint256",
          "name": "offerId",
          "type": "uint256"
        }
      ],
      "name": "offerPrice",
      "outputs": [
        {
          "internalType": "uint256",
          "name": "",
          "type": "uint256"
        }
      ],
      "stateMutability": "view",
      "type": "function",
      "constant": true
    },
    {
      "inputs": [
        {
          "internalType": "uint256",
          "name": "offerId",
          "type": "uint256"
        }
      ],
      "name": "offerStatus",
      "outputs": [
        {
          "internalType": "string",
          "name": "",
          "type": "string"
        }
      ],
      "stateMutability": "view",
      "type": "function",
      "constant": true
    },
    {
      "inputs": [],
      "name": "offersQuantity",
      "outputs": [
        {
          "internalType": "uint256",
          "name": "",
          "type": "uint256"
        }
      ],
      "stateMutability": "view",
      "type": "function",
      "constant": true
    },
    {
      "inputs": [
        {
          "internalType": "uint256",
          "name": "itemId",
          "type": "uint256"
        },
        {
          "internalType": "uint256",
          "name": "itemQnt",
          "type": "uint256"
        },
        {
          "internalType": "uint256",
          "name": "price",
          "type": "uint256"
        }
      ],
      "name": "CreateOffer",
      "outputs": [],
      "stateMutability": "nonpayable",
      "type": "function"
    },
    {
      "inputs": [
        {
          "internalType": "uint256",
          "name": "offerId",
          "type": "uint256"
        }
      ],
      "name": "CancelOffer",
      "outputs": [],
      "stateMutability": "nonpayable",
      "type": "function"
    },
    {
      "inputs": [
        {
          "internalType": "uint256",
          "name": "offerId",
          "type": "uint256"
        },
        {
          "internalType": "uint256",
          "name": "itemQnt",
          "type": "uint256"
        }
      ],
      "name": "AcceptOffer",
      "outputs": [],
      "stateMutability": "nonpayable",
      "type": "function"
    },
    {
      "inputs": [
        {
          "internalType": "address",
          "name": "newGameItems",
          "type": "address"
        }
      ],
      "name": "transferGameItemsAddress",
      "outputs": [],
      "stateMutability": "nonpayable",
      "type": "function"
    },
    {
      "inputs": [
        {
          "internalType": "address",
          "name": "newToken",
          "type": "address"
        }
      ],
      "name": "transferTokenAddress",
      "outputs": [],
      "stateMutability": "nonpayable",
      "type": "function"
    },
    {
      "inputs": [
        {
          "internalType": "address",
          "name": "newGameDev",
          "type": "address"
        }
      ],
      "name": "transferGameDevAddress",
      "outputs": [],
      "stateMutability": "nonpayable",
      "type": "function"
    }
  ],
  "bytecode": "0x608060405234801561001057600080fd5b50612d7f806100206000396000f3fe608060405234801561001057600080fd5b50600436106101585760003560e01c80636b429216116100c3578063a217fddf1161007c578063a217fddf146103ea578063a9de3db114610408578063bc197c8114610438578063d547741f14610468578063d843b2c714610484578063f23a6e61146104b457610158565b80636b429216146103115780637669ad431461032f5780638129fc1c1461034b5780638a0103bb146103555780638a72ea6a1461038557806391d14854146103ba57610158565b806336568abe1161011557806336568abe14610241578063368c38db1461025d578063438e49c4146102795780634e455dbe146102a95780634ed4d42a146102c557806368a53da0146102e157610158565b806301ffc9a71461015d57806316f6bca91461018d578063248a9ca3146101a957806324c59b6e146101d957806328bc02cc146101f55780632f2ff15d14610225575b600080fd5b61017760048036038101906101729190611e33565b6104e4565b6040516101849190611e7b565b60405180910390f35b6101a760048036038101906101a29190611ef4565b6104f6565b005b6101c360048036038101906101be9190611f57565b6105b3565b6040516101d09190611f93565b60405180910390f35b6101f360048036038101906101ee9190611fe4565b6105d3565b005b61020f600480360381019061020a9190612037565b610887565b60405161021c9190612073565b60405180910390f35b61023f600480360381019061023a919061208e565b6108d6565b005b61025b6004803603810190610256919061208e565b6108ff565b005b61027760048036038101906102729190611ef4565b610982565b005b610293600480360381019061028e9190612037565b6109dc565b6040516102a091906120dd565b60405180910390f35b6102c360048036038101906102be9190612037565b610a0b565b005b6102df60048036038101906102da9190611ef4565b610c88565b005b6102fb60048036038101906102f69190612037565b610d45565b60405161030891906120dd565b60405180910390f35b610319610d74565b60405161032691906120dd565b60405180910390f35b610349600480360381019061034491906120f8565b610d86565b005b610353611356565b005b61036f600480360381019061036a9190612037565b61149c565b60405161037c91906120dd565b60405180910390f35b61039f600480360381019061039a9190612037565b6114cb565b6040516103b1969594939291906121d1565b60405180910390f35b6103d460048036038101906103cf919061208e565b6115bf565b6040516103e19190611e7b565b60405180910390f35b6103f261162a565b6040516103ff9190611f93565b60405180910390f35b610422600480360381019061041d9190612037565b611631565b60405161042f91906120dd565b60405180910390f35b610452600480360381019061044d9190612436565b611660565b60405161045f9190612514565b60405180910390f35b610482600480360381019061047d919061208e565b611675565b005b61049e60048036038101906104999190612037565b61169e565b6040516104ab919061252f565b60405180910390f35b6104ce60048036038101906104c99190612551565b611755565b6040516104db9190612514565b60405180910390f35b60006104ef8261176a565b9050919050565b6000801b61050b816105066117e4565b6117ec565b81609760006101000a81548173ffffffffffffffffffffffffffffffffffffffff021916908373ffffffffffffffffffffffffffffffffffffffff160217905550609760009054906101000a900473ffffffffffffffffffffffffffffffffffffffff16609b60006101000a81548173ffffffffffffffffffffffffffffffffffffffff021916908373ffffffffffffffffffffffffffffffffffffffff1602179055505050565b600060656000838152602001908152602001600020600101549050919050565b81609b60009054906101000a900473ffffffffffffffffffffffffffffffffffffffff1673ffffffffffffffffffffffffffffffffffffffff1662fdd58e33866040518363ffffffff1660e01b81526004016106309291906125e8565b602060405180830381865afa15801561064d573d6000803e3d6000fd5b505050506040513d601f19601f820116820180604052508101906106719190612626565b101561067c57600080fd5b609b60009054906101000a900473ffffffffffffffffffffffffffffffffffffffff1673ffffffffffffffffffffffffffffffffffffffff1663f242432a333086866040518563ffffffff1660e01b81526004016106dd949392919061268a565b600060405180830381600087803b1580156106f757600080fd5b505af115801561070b573d6000803e3d6000fd5b50505050609a6040518060c001604052803373ffffffffffffffffffffffffffffffffffffffff1681526020018581526020018481526020018481526020018381526020016040518060400160405280600481526020017f4f70656e00000000000000000000000000000000000000000000000000000000815250815250908060018154018082558091505060019003906000526020600020906006020160009091909190915060008201518160000160006101000a81548173ffffffffffffffffffffffffffffffffffffffff021916908373ffffffffffffffffffffffffffffffffffffffff1602179055506020820151816001015560408201518160020155606082015181600301556080820151816004015560a082015181600501908051906020019061083d929190611d24565b5050506000609a8054905090507fc3e96d1275e81254d707531f5025b9b6d01f2bec370e5ff07979d37afbd3ee418160405161087991906120dd565b60405180910390a150505050565b6000609a828154811061089d5761089c6126e2565b5b906000526020600020906006020160000160009054906101000a900473ffffffffffffffffffffffffffffffffffffffff169050919050565b6108df826105b3565b6108f0816108eb6117e4565b6117ec565b6108fa8383611889565b505050565b6109076117e4565b73ffffffffffffffffffffffffffffffffffffffff168173ffffffffffffffffffffffffffffffffffffffff1614610974576040517f08c379a000000000000000000000000000000000000000000000000000000000815260040161096b90612783565b60405180910390fd5b61097e828261196a565b5050565b6000801b610997816109926117e4565b6117ec565b81609960006101000a81548173ffffffffffffffffffffffffffffffffffffffff021916908373ffffffffffffffffffffffffffffffffffffffff1602179055505050565b6000609a82815481106109f2576109f16126e2565b5b9060005260206000209060060201600401549050919050565b3373ffffffffffffffffffffffffffffffffffffffff16609a8281548110610a3657610a356126e2565b5b906000526020600020906006020160000160009054906101000a900473ffffffffffffffffffffffffffffffffffffffff1673ffffffffffffffffffffffffffffffffffffffff1614610a8857600080fd5b604051602001610a97906127fa565b60405160208183030381529060405280519060200120609a8281548110610ac157610ac06126e2565b5b9060005260206000209060060201600501604051602001610ae29190612904565b6040516020818303038152906040528051906020012014610b0257600080fd5b6040518060400160405280600981526020017f43616e63656c6c65640000000000000000000000000000000000000000000000815250609a8281548110610b4c57610b4b6126e2565b5b90600052602060002090600602016005019080519060200190610b70929190611d24565b50609b60009054906101000a900473ffffffffffffffffffffffffffffffffffffffff1673ffffffffffffffffffffffffffffffffffffffff1663f242432a3033609a8581548110610bc557610bc46126e2565b5b906000526020600020906006020160010154609a8681548110610beb57610bea6126e2565b5b9060005260206000209060060201600301546040518563ffffffff1660e01b8152600401610c1c949392919061268a565b600060405180830381600087803b158015610c3657600080fd5b505af1158015610c4a573d6000803e3d6000fd5b505050507fc28b4aed030bfacc245c0501326e1beb8c0ef0d60e4edc21067fdeb52da2a7aa81604051610c7d91906120dd565b60405180910390a150565b6000801b610c9d81610c986117e4565b6117ec565b81609860006101000a81548173ffffffffffffffffffffffffffffffffffffffff021916908373ffffffffffffffffffffffffffffffffffffffff160217905550609860009054906101000a900473ffffffffffffffffffffffffffffffffffffffff16609c60006101000a81548173ffffffffffffffffffffffffffffffffffffffff021916908373ffffffffffffffffffffffffffffffffffffffff1602179055505050565b6000609a8281548110610d5b57610d5a6126e2565b5b9060005260206000209060060201600301549050919050565b600080609a8054905090508091505090565b3373ffffffffffffffffffffffffffffffffffffffff16609a8381548110610db157610db06126e2565b5b906000526020600020906006020160000160009054906101000a900473ffffffffffffffffffffffffffffffffffffffff1673ffffffffffffffffffffffffffffffffffffffff161415610e0457600080fd5b604051602001610e13906127fa565b60405160208183030381529060405280519060200120609a8381548110610e3d57610e3c6126e2565b5b9060005260206000209060060201600501604051602001610e5e9190612904565b6040516020818303038152906040528051906020012014610e7e57600080fd5b600081609a8481548110610e9557610e946126e2565b5b906000526020600020906006020160040154610eb1919061294a565b905080609c60009054906101000a900473ffffffffffffffffffffffffffffffffffffffff1673ffffffffffffffffffffffffffffffffffffffff166370a08231336040518263ffffffff1660e01b8152600401610f0f9190612073565b602060405180830381865afa158015610f2c573d6000803e3d6000fd5b505050506040513d601f19601f82011682018060405250810190610f509190612626565b1015610f5b57600080fd5b609a8381548110610f6f57610f6e6126e2565b5b906000526020600020906006020160030154821115610f8d57600080fd5b81609a8481548110610fa257610fa16126e2565b5b906000526020600020906006020160030154610fbe91906129a4565b609a8481548110610fd257610fd16126e2565b5b9060005260206000209060060201600301819055506000609a8481548110610ffd57610ffc6126e2565b5b9060005260206000209060060201600301541415611085576040518060400160405280600681526020017f436c6f7365640000000000000000000000000000000000000000000000000000815250609a848154811061105f5761105e6126e2565b5b90600052602060002090600602016005019080519060200190611083929190611d24565b505b609c60009054906101000a900473ffffffffffffffffffffffffffffffffffffffff1673ffffffffffffffffffffffffffffffffffffffff166323b872dd33609a86815481106110d8576110d76126e2565b5b906000526020600020906006020160000160009054906101000a900473ffffffffffffffffffffffffffffffffffffffff166064606086611119919061294a565b6111239190612a07565b6040518463ffffffff1660e01b815260040161114193929190612a38565b6020604051808303816000875af1158015611160573d6000803e3d6000fd5b505050506040513d601f19601f820116820180604052508101906111849190612a9b565b50609c60009054906101000a900473ffffffffffffffffffffffffffffffffffffffff1673ffffffffffffffffffffffffffffffffffffffff166323b872dd33609960009054906101000a900473ffffffffffffffffffffffffffffffffffffffff1660646004866111f6919061294a565b6112009190612a07565b6040518463ffffffff1660e01b815260040161121e93929190612a38565b6020604051808303816000875af115801561123d573d6000803e3d6000fd5b505050506040513d601f19601f820116820180604052508101906112619190612a9b565b50609b60009054906101000a900473ffffffffffffffffffffffffffffffffffffffff1673ffffffffffffffffffffffffffffffffffffffff1663f242432a3033609a87815481106112b6576112b56126e2565b5b906000526020600020906006020160010154866040518563ffffffff1660e01b81526004016112e8949392919061268a565b600060405180830381600087803b15801561130257600080fd5b505af1158015611316573d6000803e3d6000fd5b505050507f7eff4a127d11f41398f54211d23467816d498336249c9103adb206d679f0e4828360405161134991906120dd565b60405180910390a1505050565b600060019054906101000a900460ff1661137e5760008054906101000a900460ff1615611387565b611386611a4c565b5b6113c6576040517f08c379a00000000000000000000000000000000000000000000000000000000081526004016113bd90612b3a565b60405180910390fd5b60008060019054906101000a900460ff161590508015611416576001600060016101000a81548160ff02191690831515021790555060016000806101000a81548160ff0219169083151502179055505b73fd768e668a158c173e9549d1632902c2a4363178609960006101000a81548173ffffffffffffffffffffffffffffffffffffffff021916908373ffffffffffffffffffffffffffffffffffffffff1602179055506114786000801b33611a5d565b80156114995760008060016101000a81548160ff0219169083151502179055505b50565b6000609a82815481106114b2576114b16126e2565b5b9060005260206000209060060201600101549050919050565b609a81815481106114db57600080fd5b90600052602060002090600602016000915090508060000160009054906101000a900473ffffffffffffffffffffffffffffffffffffffff169080600101549080600201549080600301549080600401549080600501805461153c9061283e565b80601f01602080910402602001604051908101604052809291908181526020018280546115689061283e565b80156115b55780601f1061158a576101008083540402835291602001916115b5565b820191906000526020600020905b81548152906001019060200180831161159857829003601f168201915b5050505050905086565b60006065600084815260200190815260200160002060000160008373ffffffffffffffffffffffffffffffffffffffff1673ffffffffffffffffffffffffffffffffffffffff16815260200190815260200160002060009054906101000a900460ff16905092915050565b6000801b81565b6000609a8281548110611647576116466126e2565b5b9060005260206000209060060201600201549050919050565b600063bc197c8160e01b905095945050505050565b61167e826105b3565b61168f8161168a6117e4565b6117ec565b611699838361196a565b505050565b6060609a82815481106116b4576116b36126e2565b5b906000526020600020906006020160050180546116d09061283e565b80601f01602080910402602001604051908101604052809291908181526020018280546116fc9061283e565b80156117495780601f1061171e57610100808354040283529160200191611749565b820191906000526020600020905b81548152906001019060200180831161172c57829003601f168201915b50505050509050919050565b600063f23a6e6160e01b905095945050505050565b60007f4e2312e0000000000000000000000000000000000000000000000000000000007bffffffffffffffffffffffffffffffffffffffffffffffffffffffff1916827bffffffffffffffffffffffffffffffffffffffffffffffffffffffff191614806117dd57506117dc82611a6b565b5b9050919050565b600033905090565b6117f682826115bf565b6118855761181b8173ffffffffffffffffffffffffffffffffffffffff166014611ad5565b6118298360001c6020611ad5565b60405160200161183a929190612c23565b6040516020818303038152906040526040517f08c379a000000000000000000000000000000000000000000000000000000000815260040161187c919061252f565b60405180910390fd5b5050565b61189382826115bf565b6119665760016065600084815260200190815260200160002060000160008373ffffffffffffffffffffffffffffffffffffffff1673ffffffffffffffffffffffffffffffffffffffff16815260200190815260200160002060006101000a81548160ff02191690831515021790555061190b6117e4565b73ffffffffffffffffffffffffffffffffffffffff168173ffffffffffffffffffffffffffffffffffffffff16837f2f8788117e7eff1d82e926ec794901d17c78024a50270940304540a733656f0d60405160405180910390a45b5050565b61197482826115bf565b15611a485760006065600084815260200190815260200160002060000160008373ffffffffffffffffffffffffffffffffffffffff1673ffffffffffffffffffffffffffffffffffffffff16815260200190815260200160002060006101000a81548160ff0219169083151502179055506119ed6117e4565b73ffffffffffffffffffffffffffffffffffffffff168173ffffffffffffffffffffffffffffffffffffffff16837ff6391f5c32d9c69d2a47ea670b442974b53935d1edc7fd64eb21e047a839171b60405160405180910390a45b5050565b6000611a5730611d11565b15905090565b611a678282611889565b5050565b60007f01ffc9a7000000000000000000000000000000000000000000000000000000007bffffffffffffffffffffffffffffffffffffffffffffffffffffffff1916827bffffffffffffffffffffffffffffffffffffffffffffffffffffffff1916149050919050565b606060006002836002611ae8919061294a565b611af29190612c5d565b67ffffffffffffffff811115611b0b57611b0a61223e565b5b6040519080825280601f01601f191660200182016040528015611b3d5781602001600182028036833780820191505090505b5090507f300000000000000000000000000000000000000000000000000000000000000081600081518110611b7557611b746126e2565b5b60200101907effffffffffffffffffffffffffffffffffffffffffffffffffffffffffffff1916908160001a9053507f780000000000000000000000000000000000000000000000000000000000000081600181518110611bd957611bd86126e2565b5b60200101907effffffffffffffffffffffffffffffffffffffffffffffffffffffffffffff1916908160001a90535060006001846002611c19919061294a565b611c239190612c5d565b90505b6001811115611cc3577f3031323334353637383961626364656600000000000000000000000000000000600f861660108110611c6557611c646126e2565b5b1a60f81b828281518110611c7c57611c7b6126e2565b5b60200101907effffffffffffffffffffffffffffffffffffffffffffffffffffffffffffff1916908160001a905350600485901c945080611cbc90612cb3565b9050611c26565b5060008414611d07576040517f08c379a0000000000000000000000000000000000000000000000000000000008152600401611cfe90612d29565b60405180910390fd5b8091505092915050565b600080823b905060008111915050919050565b828054611d309061283e565b90600052602060002090601f016020900481019282611d525760008555611d99565b82601f10611d6b57805160ff1916838001178555611d99565b82800160010185558215611d99579182015b82811115611d98578251825591602001919060010190611d7d565b5b509050611da69190611daa565b5090565b5b80821115611dc3576000816000905550600101611dab565b5090565b6000604051905090565b600080fd5b600080fd5b60007fffffffff0000000000000000000000000000000000000000000000000000000082169050919050565b611e1081611ddb565b8114611e1b57600080fd5b50565b600081359050611e2d81611e07565b92915050565b600060208284031215611e4957611e48611dd1565b5b6000611e5784828501611e1e565b91505092915050565b60008115159050919050565b611e7581611e60565b82525050565b6000602082019050611e906000830184611e6c565b92915050565b600073ffffffffffffffffffffffffffffffffffffffff82169050919050565b6000611ec182611e96565b9050919050565b611ed181611eb6565b8114611edc57600080fd5b50565b600081359050611eee81611ec8565b92915050565b600060208284031215611f0a57611f09611dd1565b5b6000611f1884828501611edf565b91505092915050565b6000819050919050565b611f3481611f21565b8114611f3f57600080fd5b50565b600081359050611f5181611f2b565b92915050565b600060208284031215611f6d57611f6c611dd1565b5b6000611f7b84828501611f42565b91505092915050565b611f8d81611f21565b82525050565b6000602082019050611fa86000830184611f84565b92915050565b6000819050919050565b611fc181611fae565b8114611fcc57600080fd5b50565b600081359050611fde81611fb8565b92915050565b600080600060608486031215611ffd57611ffc611dd1565b5b600061200b86828701611fcf565b935050602061201c86828701611fcf565b925050604061202d86828701611fcf565b9150509250925092565b60006020828403121561204d5761204c611dd1565b5b600061205b84828501611fcf565b91505092915050565b61206d81611eb6565b82525050565b60006020820190506120886000830184612064565b92915050565b600080604083850312156120a5576120a4611dd1565b5b60006120b385828601611f42565b92505060206120c485828601611edf565b9150509250929050565b6120d781611fae565b82525050565b60006020820190506120f260008301846120ce565b92915050565b6000806040838503121561210f5761210e611dd1565b5b600061211d85828601611fcf565b925050602061212e85828601611fcf565b9150509250929050565b600081519050919050565b600082825260208201905092915050565b60005b83811015612172578082015181840152602081019050612157565b83811115612181576000848401525b50505050565b6000601f19601f8301169050919050565b60006121a382612138565b6121ad8185612143565b93506121bd818560208601612154565b6121c681612187565b840191505092915050565b600060c0820190506121e66000830189612064565b6121f360208301886120ce565b61220060408301876120ce565b61220d60608301866120ce565b61221a60808301856120ce565b81810360a083015261222c8184612198565b9050979650505050505050565b600080fd5b7f4e487b7100000000000000000000000000000000000000000000000000000000600052604160045260246000fd5b61227682612187565b810181811067ffffffffffffffff821117156122955761229461223e565b5b80604052505050565b60006122a8611dc7565b90506122b4828261226d565b919050565b600067ffffffffffffffff8211156122d4576122d361223e565b5b602082029050602081019050919050565b600080fd5b60006122fd6122f8846122b9565b61229e565b905080838252602082019050602084028301858111156123205761231f6122e5565b5b835b8181101561234957806123358882611fcf565b845260208401935050602081019050612322565b5050509392505050565b600082601f83011261236857612367612239565b5b81356123788482602086016122ea565b91505092915050565b600080fd5b600067ffffffffffffffff8211156123a1576123a061223e565b5b6123aa82612187565b9050602081019050919050565b82818337600083830152505050565b60006123d96123d484612386565b61229e565b9050828152602081018484840111156123f5576123f4612381565b5b6124008482856123b7565b509392505050565b600082601f83011261241d5761241c612239565b5b813561242d8482602086016123c6565b91505092915050565b600080600080600060a0868803121561245257612451611dd1565b5b600061246088828901611edf565b955050602061247188828901611edf565b945050604086013567ffffffffffffffff81111561249257612491611dd6565b5b61249e88828901612353565b935050606086013567ffffffffffffffff8111156124bf576124be611dd6565b5b6124cb88828901612353565b925050608086013567ffffffffffffffff8111156124ec576124eb611dd6565b5b6124f888828901612408565b9150509295509295909350565b61250e81611ddb565b82525050565b60006020820190506125296000830184612505565b92915050565b600060208201905081810360008301526125498184612198565b905092915050565b600080600080600060a0868803121561256d5761256c611dd1565b5b600061257b88828901611edf565b955050602061258c88828901611edf565b945050604061259d88828901611fcf565b93505060606125ae88828901611fcf565b925050608086013567ffffffffffffffff8111156125cf576125ce611dd6565b5b6125db88828901612408565b9150509295509295909350565b60006040820190506125fd6000830185612064565b61260a60208301846120ce565b9392505050565b60008151905061262081611fb8565b92915050565b60006020828403121561263c5761263b611dd1565b5b600061264a84828501612611565b91505092915050565b600082825260208201905092915050565b50565b6000612674600083612653565b915061267f82612664565b600082019050919050565b600060a08201905061269f6000830187612064565b6126ac6020830186612064565b6126b960408301856120ce565b6126c660608301846120ce565b81810360808301526126d781612667565b905095945050505050565b7f4e487b7100000000000000000000000000000000000000000000000000000000600052603260045260246000fd5b7f416363657373436f6e74726f6c3a2063616e206f6e6c792072656e6f756e636560008201527f20726f6c657320666f722073656c660000000000000000000000000000000000602082015250565b600061276d602f83612143565b915061277882612711565b604082019050919050565b6000602082019050818103600083015261279c81612760565b9050919050565b600081905092915050565b7f4f70656e00000000000000000000000000000000000000000000000000000000600082015250565b60006127e46004836127a3565b91506127ef826127ae565b600482019050919050565b6000612805826127d7565b9150819050919050565b7f4e487b7100000000000000000000000000000000000000000000000000000000600052602260045260246000fd5b6000600282049050600182168061285657607f821691505b6020821081141561286a5761286961280f565b5b50919050565b60008190508160005260206000209050919050565b600081546128928161283e565b61289c81866127a3565b945060018216600081146128b757600181146128c8576128fb565b60ff198316865281860193506128fb565b6128d185612870565b60005b838110156128f3578154818901526001820191506020810190506128d4565b838801955050505b50505092915050565b60006129108284612885565b915081905092915050565b7f4e487b7100000000000000000000000000000000000000000000000000000000600052601160045260246000fd5b600061295582611fae565b915061296083611fae565b9250817fffffffffffffffffffffffffffffffffffffffffffffffffffffffffffffffff04831182151516156129995761299861291b565b5b828202905092915050565b60006129af82611fae565b91506129ba83611fae565b9250828210156129cd576129cc61291b565b5b828203905092915050565b7f4e487b7100000000000000000000000000000000000000000000000000000000600052601260045260246000fd5b6000612a1282611fae565b9150612a1d83611fae565b925082612a2d57612a2c6129d8565b5b828204905092915050565b6000606082019050612a4d6000830186612064565b612a5a6020830185612064565b612a6760408301846120ce565b949350505050565b612a7881611e60565b8114612a8357600080fd5b50565b600081519050612a9581612a6f565b92915050565b600060208284031215612ab157612ab0611dd1565b5b6000612abf84828501612a86565b91505092915050565b7f496e697469616c697a61626c653a20636f6e747261637420697320616c72656160008201527f647920696e697469616c697a6564000000000000000000000000000000000000602082015250565b6000612b24602e83612143565b9150612b2f82612ac8565b604082019050919050565b60006020820190508181036000830152612b5381612b17565b9050919050565b7f416363657373436f6e74726f6c3a206163636f756e7420000000000000000000600082015250565b6000612b906017836127a3565b9150612b9b82612b5a565b601782019050919050565b6000612bb182612138565b612bbb81856127a3565b9350612bcb818560208601612154565b80840191505092915050565b7f206973206d697373696e6720726f6c6520000000000000000000000000000000600082015250565b6000612c0d6011836127a3565b9150612c1882612bd7565b601182019050919050565b6000612c2e82612b83565b9150612c3a8285612ba6565b9150612c4582612c00565b9150612c518284612ba6565b91508190509392505050565b6000612c6882611fae565b9150612c7383611fae565b9250827fffffffffffffffffffffffffffffffffffffffffffffffffffffffffffffffff03821115612ca857612ca761291b565b5b828201905092915050565b6000612cbe82611fae565b91506000821415612cd257612cd161291b565b5b600182039050919050565b7f537472696e67733a20686578206c656e67746820696e73756666696369656e74600082015250565b6000612d13602083612143565b9150612d1e82612cdd565b602082019050919050565b60006020820190508181036000830152612d4281612d06565b905091905056fea264697066735822122092c8b81a01b81c3f710d77f7a45ac8c9020b468a6d4d4932f7524915b24df35264736f6c634300080b0033",
  "immutableReferences": {},
  "source": "// SPDX-License-Identifier: UNLICENSED\r\n\r\npragma solidity ^0.8.3;\r\n\r\nimport \"./AbstractGameItems.sol\";\r\nimport \"./AbstractPTG.sol\";\r\nimport \"../node_modules/@openzeppelin/contracts/token/ERC1155/utils/ERC1155Holder.sol\";\r\nimport \"../node_modules/@openzeppelin/contracts-upgradeable/access/AccessControlUpgradeable.sol\";\r\nimport \"../node_modules/@openzeppelin/contracts-upgradeable/proxy/utils/Initializable.sol\";\r\n\r\ncontract Marketplace is Initializable, AccessControlUpgradeable, ERC1155Holder {\r\n\r\n    event NewOffer(uint offerId);\r\n    event OfferCancelled(uint offerId);\r\n    event OfferUpdated(uint offerId);\r\n\r\n    address GameItemsAddress;\r\n    address TokenAddress;\r\n    address GameDevAddress;\r\n\r\n    struct Offer {\r\n        address owner;\r\n        uint itemId;\r\n        uint originalAmount;\r\n        uint currentAmount;\r\n        uint price;\r\n        string status;\r\n    }\r\n\r\n    Offer[] public offers;\r\n    AbstractGameItems gameItems;\r\n    AbstractPTG PTG;\r\n\r\n    function initialize() initializer public {\r\n        GameDevAddress = 0xfd768E668A158C173e9549d1632902C2A4363178;\r\n        _setupRole(DEFAULT_ADMIN_ROLE, msg.sender);\r\n    }\r\n\r\n    function supportsInterface(bytes4 interfaceId) public view virtual override(ERC1155Receiver, AccessControlUpgradeable) returns (bool) {\r\n        return super.supportsInterface(interfaceId);\r\n    }\r\n\r\n    //View Functions\r\n    function offerOwner(uint offerId) public view returns (address) {\r\n        return offers[offerId].owner;\r\n    }\r\n\r\n    function offerItemId(uint offerId) public view returns (uint) {\r\n        return offers[offerId].itemId;\r\n    }\r\n\r\n    function offerOriginalAmount(uint offerId) public view returns (uint) {\r\n        return offers[offerId].originalAmount;\r\n    }\r\n    function offerCurrentAmount(uint offerId) public view returns (uint) {\r\n        return offers[offerId].currentAmount;\r\n    }\r\n\r\n    function offerPrice(uint offerId) public view returns (uint) {\r\n        return offers[offerId].price;\r\n    }\r\n\r\n    function offerStatus(uint offerId) public view returns (string memory) {\r\n        return offers[offerId].status;\r\n    }\r\n\r\n    function offersQuantity() public view returns (uint) {\r\n        uint quantity = offers.length;\r\n        return quantity;\r\n    }\r\n\r\n    function CreateOffer(uint itemId, uint itemQnt, uint price) public {\r\n        require(gameItems.balanceOf(msg.sender, itemId) >= itemQnt);\r\n        gameItems.safeTransferFrom(msg.sender, address(this), itemId, itemQnt, \"\");\r\n        offers.push(Offer(msg.sender, itemId, itemQnt, itemQnt, price, \"Open\"));\r\n        uint id = offers.length;\r\n        emit NewOffer(id);\r\n    }\r\n\r\n    function CancelOffer(uint offerId) public {\r\n        require(offers[offerId].owner == msg.sender);\r\n        require(keccak256(abi.encodePacked(offers[offerId].status)) == keccak256(abi.encodePacked(\"Open\")));\r\n        offers[offerId].status = \"Cancelled\";\r\n        gameItems.safeTransferFrom(address(this), msg.sender, offers[offerId].itemId, offers[offerId].currentAmount, \"\");\r\n        emit OfferCancelled(offerId);\r\n    }\r\n\r\n    function AcceptOffer(uint offerId, uint itemQnt) public {\r\n        require(offers[offerId].owner != msg.sender);\r\n        require(keccak256(abi.encodePacked(offers[offerId].status)) == keccak256(abi.encodePacked(\"Open\")));\r\n        uint totalPrice = offers[offerId].price*itemQnt;\r\n        require(PTG.balanceOf(msg.sender)>= totalPrice);\r\n        require(itemQnt <= offers[offerId].currentAmount);\r\n\r\n        offers[offerId].currentAmount = offers[offerId].currentAmount - itemQnt;\r\n        if (offers[offerId].currentAmount == 0) {\r\n            offers[offerId].status = \"Closed\";\r\n        }\r\n        PTG.transferFrom(msg.sender, offers[offerId].owner, totalPrice*96/100);\r\n        PTG.transferFrom(msg.sender, GameDevAddress, totalPrice*4/100);\r\n        gameItems.safeTransferFrom(address(this), msg.sender, offers[offerId].itemId, itemQnt, \"\");\r\n        emit OfferUpdated(offerId);\r\n\r\n    }\r\n\r\n    function transferGameItemsAddress(address newGameItems) public onlyRole(DEFAULT_ADMIN_ROLE) {\r\n        GameItemsAddress = newGameItems;\r\n        gameItems = AbstractGameItems(GameItemsAddress);\r\n    }\r\n\r\n    function transferTokenAddress(address newToken) public onlyRole(DEFAULT_ADMIN_ROLE) {\r\n        TokenAddress = newToken;\r\n        PTG = AbstractPTG(TokenAddress);\r\n    }\r\n\r\n    function transferGameDevAddress(address newGameDev) public onlyRole(DEFAULT_ADMIN_ROLE) {\r\n        GameDevAddress = newGameDev;\r\n    }\r\n\r\n}",
  "sourcePath": "C:\\Users\\jtsch\\OneDrive\\Escritorio\\Python\\SmartContracts-NFT-Agus\\contracts\\Marketplace.sol",
  "compiler": {
    "name": "solc",
    "version": "0.8.11+commit.d7f03943.Emscripten.clang"
  },
  "schemaVersion": "3.4.3",
  "updatedAt": "2022-02-13T20:49:49.384Z",
  "networkType": "ethereum",
  "devdoc": {
    "kind": "dev",
    "methods": {
      "getRoleAdmin(bytes32)": {
        "details": "Returns the admin role that controls `role`. See {grantRole} and {revokeRole}. To change a role's admin, use {_setRoleAdmin}."
      },
      "grantRole(bytes32,address)": {
        "details": "Grants `role` to `account`. If `account` had not been already granted `role`, emits a {RoleGranted} event. Requirements: - the caller must have ``role``'s admin role."
      },
      "hasRole(bytes32,address)": {
        "details": "Returns `true` if `account` has been granted `role`."
      },
      "renounceRole(bytes32,address)": {
        "details": "Revokes `role` from the calling account. Roles are often managed via {grantRole} and {revokeRole}: this function's purpose is to provide a mechanism for accounts to lose their privileges if they are compromised (such as when a trusted device is misplaced). If the calling account had been revoked `role`, emits a {RoleRevoked} event. Requirements: - the caller must be `account`."
      },
      "revokeRole(bytes32,address)": {
        "details": "Revokes `role` from `account`. If `account` had been granted `role`, emits a {RoleRevoked} event. Requirements: - the caller must have ``role``'s admin role."
      }
    },
    "version": 1
  },
  "userdoc": {
    "kind": "user",
    "methods": {},
    "version": 1
  }
}