{
  "contractName": "TicketSale",
  "abi": [
    {
      "inputs": [
        {
          "internalType": "address",
          "name": "_nftAddress",
          "type": "address"
        },
        {
          "internalType": "address",
          "name": "_tokenSeller",
          "type": "address"
        },
        {
          "internalType": "uint256",
          "name": "_currentPrice",
          "type": "uint256"
        }
      ],
      "stateMutability": "nonpayable",
      "type": "constructor"
    },
    {
      "anonymous": false,
      "inputs": [
        {
          "indexed": false,
          "internalType": "address",
          "name": "account",
          "type": "address"
        }
      ],
      "name": "Paused",
      "type": "event"
    },
    {
      "anonymous": false,
      "inputs": [
        {
          "indexed": true,
          "internalType": "address",
          "name": "payer",
          "type": "address"
        },
        {
          "indexed": false,
          "internalType": "uint256",
          "name": "tokenId",
          "type": "uint256"
        },
        {
          "indexed": false,
          "internalType": "uint256",
          "name": "amount",
          "type": "uint256"
        },
        {
          "indexed": false,
          "internalType": "uint256",
          "name": "balance",
          "type": "uint256"
        }
      ],
      "name": "Received",
      "type": "event"
    },
    {
      "anonymous": false,
      "inputs": [
        {
          "indexed": true,
          "internalType": "address",
          "name": "payee",
          "type": "address"
        },
        {
          "indexed": false,
          "internalType": "uint256",
          "name": "amount",
          "type": "uint256"
        },
        {
          "indexed": false,
          "internalType": "uint256",
          "name": "balance",
          "type": "uint256"
        }
      ],
      "name": "Sent",
      "type": "event"
    },
    {
      "anonymous": false,
      "inputs": [
        {
          "indexed": false,
          "internalType": "address",
          "name": "account",
          "type": "address"
        }
      ],
      "name": "Unpaused",
      "type": "event"
    },
    {
      "inputs": [],
      "name": "currentPrice",
      "outputs": [
        {
          "internalType": "uint256",
          "name": "",
          "type": "uint256"
        }
      ],
      "stateMutability": "view",
      "type": "function"
    },
    {
      "inputs": [],
      "name": "nftAddress",
      "outputs": [
        {
          "internalType": "contract ERC721",
          "name": "",
          "type": "address"
        }
      ],
      "stateMutability": "view",
      "type": "function"
    },
    {
      "inputs": [],
      "name": "paused",
      "outputs": [
        {
          "internalType": "bool",
          "name": "",
          "type": "bool"
        }
      ],
      "stateMutability": "view",
      "type": "function"
    },
    {
      "inputs": [
        {
          "internalType": "uint256",
          "name": "_tokenId",
          "type": "uint256"
        }
      ],
      "name": "purchaseToken",
      "outputs": [],
      "stateMutability": "payable",
      "type": "function"
    },
    {
      "inputs": [
        {
          "internalType": "address payable",
          "name": "_payee",
          "type": "address"
        },
        {
          "internalType": "uint256",
          "name": "_amount",
          "type": "uint256"
        }
      ],
      "name": "sendTo",
      "outputs": [],
      "stateMutability": "nonpayable",
      "type": "function"
    },
    {
      "inputs": [
        {
          "internalType": "uint256",
          "name": "_currentPrice",
          "type": "uint256"
        }
      ],
      "name": "setCurrentPrice",
      "outputs": [],
      "stateMutability": "nonpayable",
      "type": "function"
    },
    {
      "inputs": [
        {
          "internalType": "address",
          "name": "newOwner",
          "type": "address"
        }
      ],
      "name": "transferOwnership",
      "outputs": [],
      "stateMutability": "payable",
      "type": "function"
    }
  ],
  "bytecode": "0x608060405233600060016101000a81548173ffffffffffffffffffffffffffffffffffffffff021916908373ffffffffffffffffffffffffffffffffffffffff1602179055503480156200005257600080fd5b5060405162000e2838038062000e288339818101604052810190620000789190620002bf565b60008060006101000a81548160ff021916908315150217905550600073ffffffffffffffffffffffffffffffffffffffff168373ffffffffffffffffffffffffffffffffffffffff1614158015620000fc57503073ffffffffffffffffffffffffffffffffffffffff168373ffffffffffffffffffffffffffffffffffffffff1614155b6200010657600080fd5b600073ffffffffffffffffffffffffffffffffffffffff168273ffffffffffffffffffffffffffffffffffffffff16141580156200017057503073ffffffffffffffffffffffffffffffffffffffff168273ffffffffffffffffffffffffffffffffffffffff1614155b6200017a57600080fd5b600081116200018857600080fd5b81600160006101000a81548173ffffffffffffffffffffffffffffffffffffffff021916908373ffffffffffffffffffffffffffffffffffffffff16021790555082600260006101000a81548173ffffffffffffffffffffffffffffffffffffffff021916908373ffffffffffffffffffffffffffffffffffffffff160217905550806003819055505050506200031b565b600080fd5b600073ffffffffffffffffffffffffffffffffffffffff82169050919050565b60006200024c826200021f565b9050919050565b6200025e816200023f565b81146200026a57600080fd5b50565b6000815190506200027e8162000253565b92915050565b6000819050919050565b620002998162000284565b8114620002a557600080fd5b50565b600081519050620002b9816200028e565b92915050565b600080600060608486031215620002db57620002da6200021a565b5b6000620002eb868287016200026d565b9350506020620002fe868287016200026d565b92505060406200031186828701620002a8565b9150509250925092565b610afd806200032b6000396000f3fe6080604052600436106100705760003560e01c80639d1b464a1161004e5780639d1b464a146100f45780639e1a00aa1461011f578063c2db2c4214610148578063f2fde38b1461016457610070565b806318b20071146100755780635bf8633a1461009e5780635c975abb146100c9575b600080fd5b34801561008157600080fd5b5061009c60048036038101906100979190610752565b610180565b005b3480156100aa57600080fd5b506100b36101f1565b6040516100c091906107fe565b60405180910390f35b3480156100d557600080fd5b506100de610217565b6040516100eb9190610834565b60405180910390f35b34801561010057600080fd5b5061010961022d565b604051610116919061085e565b60405180910390f35b34801561012b57600080fd5b50610146600480360381019061014191906108b7565b610233565b005b610162600480360381019061015d9190610752565b6103b3565b005b61017e60048036038101906101799190610935565b610679565b005b3373ffffffffffffffffffffffffffffffffffffffff16600060019054906101000a900473ffffffffffffffffffffffffffffffffffffffff1673ffffffffffffffffffffffffffffffffffffffff16146101da57600080fd5b600081116101e757600080fd5b8060038190555050565b600260009054906101000a900473ffffffffffffffffffffffffffffffffffffffff1681565b60008060009054906101000a900460ff16905090565b60035481565b3373ffffffffffffffffffffffffffffffffffffffff16600060019054906101000a900473ffffffffffffffffffffffffffffffffffffffff1673ffffffffffffffffffffffffffffffffffffffff161461028d57600080fd5b600073ffffffffffffffffffffffffffffffffffffffff168273ffffffffffffffffffffffffffffffffffffffff16141580156102f657503073ffffffffffffffffffffffffffffffffffffffff168273ffffffffffffffffffffffffffffffffffffffff1614155b6102ff57600080fd5b60008111801561030f5750478111155b61031857600080fd5b8173ffffffffffffffffffffffffffffffffffffffff166108fc829081150290604051600060405180830381858888f1935050505015801561035e573d6000803e3d6000fd5b508173ffffffffffffffffffffffffffffffffffffffff167f6356739d963da01dc3533acba7203430fcc14f2175d48a8dd0973d7db49c785e82476040516103a7929190610962565b60405180910390a25050565b6103bb610217565b156103fb576040517f08c379a00000000000000000000000000000000000000000000000000000000081526004016103f2906109e8565b60405180910390fd5b600073ffffffffffffffffffffffffffffffffffffffff163373ffffffffffffffffffffffffffffffffffffffff161415801561046457503073ffffffffffffffffffffffffffffffffffffffff163373ffffffffffffffffffffffffffffffffffffffff1614155b61046d57600080fd5b60035434101561047c57600080fd5b600160009054906101000a900473ffffffffffffffffffffffffffffffffffffffff1673ffffffffffffffffffffffffffffffffffffffff16600260009054906101000a900473ffffffffffffffffffffffffffffffffffffffff1673ffffffffffffffffffffffffffffffffffffffff16636352211e836040518263ffffffff1660e01b8152600401610510919061085e565b602060405180830381865afa15801561052d573d6000803e3d6000fd5b505050506040513d601f19601f820116820180604052508101906105519190610a1d565b73ffffffffffffffffffffffffffffffffffffffff161461057157600080fd5b600260009054906101000a900473ffffffffffffffffffffffffffffffffffffffff1673ffffffffffffffffffffffffffffffffffffffff166342842e0e600160009054906101000a900473ffffffffffffffffffffffffffffffffffffffff1633846040518463ffffffff1660e01b81526004016105f293929190610a59565b600060405180830381600087803b15801561060c57600080fd5b505af1158015610620573d6000803e3d6000fd5b505050503373ffffffffffffffffffffffffffffffffffffffff167f02d08db2db312fc60b41a046c46a7772a6c2dcdca0c32a9d3423c6dcbde693e982344760405161066e93929190610a90565b60405180910390a250565b3373ffffffffffffffffffffffffffffffffffffffff16600060019054906101000a900473ffffffffffffffffffffffffffffffffffffffff1673ffffffffffffffffffffffffffffffffffffffff16146106d357600080fd5b80600060016101000a81548173ffffffffffffffffffffffffffffffffffffffff021916908373ffffffffffffffffffffffffffffffffffffffff16021790555050565b600080fd5b6000819050919050565b61072f8161071c565b811461073a57600080fd5b50565b60008135905061074c81610726565b92915050565b60006020828403121561076857610767610717565b5b60006107768482850161073d565b91505092915050565b600073ffffffffffffffffffffffffffffffffffffffff82169050919050565b6000819050919050565b60006107c46107bf6107ba8461077f565b61079f565b61077f565b9050919050565b60006107d6826107a9565b9050919050565b60006107e8826107cb565b9050919050565b6107f8816107dd565b82525050565b600060208201905061081360008301846107ef565b92915050565b60008115159050919050565b61082e81610819565b82525050565b60006020820190506108496000830184610825565b92915050565b6108588161071c565b82525050565b6000602082019050610873600083018461084f565b92915050565b60006108848261077f565b9050919050565b61089481610879565b811461089f57600080fd5b50565b6000813590506108b18161088b565b92915050565b600080604083850312156108ce576108cd610717565b5b60006108dc858286016108a2565b92505060206108ed8582860161073d565b9150509250929050565b60006109028261077f565b9050919050565b610912816108f7565b811461091d57600080fd5b50565b60008135905061092f81610909565b92915050565b60006020828403121561094b5761094a610717565b5b600061095984828501610920565b91505092915050565b6000604082019050610977600083018561084f565b610984602083018461084f565b9392505050565b600082825260208201905092915050565b7f5061757361626c653a2070617573656400000000000000000000000000000000600082015250565b60006109d260108361098b565b91506109dd8261099c565b602082019050919050565b60006020820190508181036000830152610a01816109c5565b9050919050565b600081519050610a1781610909565b92915050565b600060208284031215610a3357610a32610717565b5b6000610a4184828501610a08565b91505092915050565b610a53816108f7565b82525050565b6000606082019050610a6e6000830186610a4a565b610a7b6020830185610a4a565b610a88604083018461084f565b949350505050565b6000606082019050610aa5600083018661084f565b610ab2602083018561084f565b610abf604083018461084f565b94935050505056fea2646970667358221220c09933c69e47c3a7cdd1ef5155ab6385df24f76ceab5934fb666e1df04aac6c964736f6c634300080b0033",
  "immutableReferences": {},
  "source": "// SPDX-License-Identifier: UNLICENSED\r\n\r\npragma solidity ^0.8.0;\r\n\r\nimport \"../node_modules/@openzeppelin/contracts/token/ERC721/ERC721.sol\";\r\nimport \"../node_modules/@openzeppelin/contracts/security/Pausable.sol\";\r\n\r\ncontract TicketSale is Pausable {\r\n\r\n    event Sent(address indexed payee, uint256 amount, uint256 balance);\r\n    event Received(address indexed payer, uint tokenId, uint256 amount, uint256 balance);\r\n\r\n    address contractOwner = msg.sender;\r\n    address tokenSeller;\r\n    ERC721 public nftAddress;\r\n    uint256 public currentPrice;\r\n\r\n    constructor(address _nftAddress, address _tokenSeller, uint256 _currentPrice) {\r\n        require(_nftAddress != address(0) && _nftAddress != address(this));\r\n        require(_tokenSeller != address(0) && _tokenSeller != address(this));\r\n        require(_currentPrice > 0);\r\n        tokenSeller = _tokenSeller;\r\n        nftAddress = ERC721(_nftAddress);\r\n        currentPrice = _currentPrice;\r\n    }\r\n\r\n    modifier onlyOwner() {\r\n        require(contractOwner == msg.sender);\r\n        _;\r\n    }\r\n\r\n    function purchaseToken(uint256 _tokenId) public payable whenNotPaused {\r\n        require(msg.sender != address(0) && msg.sender != address(this));\r\n        require(msg.value >= currentPrice);\r\n        require(nftAddress.ownerOf(_tokenId) == tokenSeller);\r\n        nftAddress.safeTransferFrom(tokenSeller, msg.sender, _tokenId);\r\n        emit Received(msg.sender, _tokenId, msg.value, address(this).balance);\r\n    }\r\n\r\n    function sendTo(address payable _payee, uint256 _amount) public onlyOwner {\r\n        require(_payee != address(0) && _payee != address(this));\r\n        require(_amount > 0 && _amount <= address(this).balance);\r\n        _payee.transfer(_amount);\r\n        emit Sent(_payee, _amount, address(this).balance);\r\n    }\r\n\r\n    function setCurrentPrice(uint256 _currentPrice) public onlyOwner {\r\n        require(_currentPrice > 0);\r\n        currentPrice = _currentPrice;\r\n    }\r\n\r\n    function transferOwnership(address newOwner) public payable onlyOwner() {\r\n        contractOwner = newOwner;\r\n    }\r\n}",
  "sourcePath": "C:\\Users\\jtsch\\OneDrive\\Escritorio\\Python\\SmartContracts-NFT-Agus\\contracts\\TicketSale.sol",
  "compiler": {
    "name": "solc",
    "version": "0.8.11+commit.d7f03943.Emscripten.clang"
  },
  "schemaVersion": "3.4.3",
  "updatedAt": "2022-01-05T16:43:45.690Z",
  "devdoc": {
    "kind": "dev",
    "methods": {
      "paused()": {
        "details": "Returns true if the contract is paused, and false otherwise."
      }
    },
    "version": 1
  },
  "userdoc": {
    "kind": "user",
    "methods": {},
    "version": 1
  }
}