{
  "contractName": "Ticket",
  "abi": [
    {
      "inputs": [],
      "stateMutability": "nonpayable",
      "type": "constructor"
    },
    {
      "anonymous": false,
      "inputs": [
        {
          "indexed": true,
          "internalType": "address",
          "name": "owner",
          "type": "address"
        },
        {
          "indexed": true,
          "internalType": "address",
          "name": "approved",
          "type": "address"
        },
        {
          "indexed": true,
          "internalType": "uint256",
          "name": "tokenId",
          "type": "uint256"
        }
      ],
      "name": "Approval",
      "type": "event"
    },
    {
      "anonymous": false,
      "inputs": [
        {
          "indexed": true,
          "internalType": "address",
          "name": "owner",
          "type": "address"
        },
        {
          "indexed": true,
          "internalType": "address",
          "name": "operator",
          "type": "address"
        },
        {
          "indexed": false,
          "internalType": "bool",
          "name": "approved",
          "type": "bool"
        }
      ],
      "name": "ApprovalForAll",
      "type": "event"
    },
    {
      "anonymous": false,
      "inputs": [
        {
          "indexed": false,
          "internalType": "uint256",
          "name": "ticketId",
          "type": "uint256"
        }
      ],
      "name": "NewTicket",
      "type": "event"
    },
    {
      "anonymous": false,
      "inputs": [
        {
          "indexed": true,
          "internalType": "address",
          "name": "from",
          "type": "address"
        },
        {
          "indexed": true,
          "internalType": "address",
          "name": "to",
          "type": "address"
        },
        {
          "indexed": true,
          "internalType": "uint256",
          "name": "tokenId",
          "type": "uint256"
        }
      ],
      "name": "Transfer",
      "type": "event"
    },
    {
      "inputs": [
        {
          "internalType": "address",
          "name": "to",
          "type": "address"
        },
        {
          "internalType": "uint256",
          "name": "tokenId",
          "type": "uint256"
        }
      ],
      "name": "approve",
      "outputs": [],
      "stateMutability": "nonpayable",
      "type": "function"
    },
    {
      "inputs": [
        {
          "internalType": "address",
          "name": "owner",
          "type": "address"
        }
      ],
      "name": "balanceOf",
      "outputs": [
        {
          "internalType": "uint256",
          "name": "",
          "type": "uint256"
        }
      ],
      "stateMutability": "view",
      "type": "function"
    },
    {
      "inputs": [
        {
          "internalType": "uint256",
          "name": "tokenId",
          "type": "uint256"
        }
      ],
      "name": "getApproved",
      "outputs": [
        {
          "internalType": "address",
          "name": "",
          "type": "address"
        }
      ],
      "stateMutability": "view",
      "type": "function"
    },
    {
      "inputs": [
        {
          "internalType": "address",
          "name": "owner",
          "type": "address"
        },
        {
          "internalType": "address",
          "name": "operator",
          "type": "address"
        }
      ],
      "name": "isApprovedForAll",
      "outputs": [
        {
          "internalType": "bool",
          "name": "",
          "type": "bool"
        }
      ],
      "stateMutability": "view",
      "type": "function"
    },
    {
      "inputs": [],
      "name": "name",
      "outputs": [
        {
          "internalType": "string",
          "name": "",
          "type": "string"
        }
      ],
      "stateMutability": "view",
      "type": "function"
    },
    {
      "inputs": [
        {
          "internalType": "uint256",
          "name": "tokenId",
          "type": "uint256"
        }
      ],
      "name": "ownerOf",
      "outputs": [
        {
          "internalType": "address",
          "name": "",
          "type": "address"
        }
      ],
      "stateMutability": "view",
      "type": "function"
    },
    {
      "inputs": [
        {
          "internalType": "address",
          "name": "from",
          "type": "address"
        },
        {
          "internalType": "address",
          "name": "to",
          "type": "address"
        },
        {
          "internalType": "uint256",
          "name": "tokenId",
          "type": "uint256"
        }
      ],
      "name": "safeTransferFrom",
      "outputs": [],
      "stateMutability": "nonpayable",
      "type": "function"
    },
    {
      "inputs": [
        {
          "internalType": "address",
          "name": "from",
          "type": "address"
        },
        {
          "internalType": "address",
          "name": "to",
          "type": "address"
        },
        {
          "internalType": "uint256",
          "name": "tokenId",
          "type": "uint256"
        },
        {
          "internalType": "bytes",
          "name": "_data",
          "type": "bytes"
        }
      ],
      "name": "safeTransferFrom",
      "outputs": [],
      "stateMutability": "nonpayable",
      "type": "function"
    },
    {
      "inputs": [
        {
          "internalType": "address",
          "name": "operator",
          "type": "address"
        },
        {
          "internalType": "bool",
          "name": "approved",
          "type": "bool"
        }
      ],
      "name": "setApprovalForAll",
      "outputs": [],
      "stateMutability": "nonpayable",
      "type": "function"
    },
    {
      "inputs": [
        {
          "internalType": "bytes4",
          "name": "interfaceId",
          "type": "bytes4"
        }
      ],
      "name": "supportsInterface",
      "outputs": [
        {
          "internalType": "bool",
          "name": "",
          "type": "bool"
        }
      ],
      "stateMutability": "view",
      "type": "function"
    },
    {
      "inputs": [],
      "name": "symbol",
      "outputs": [
        {
          "internalType": "string",
          "name": "",
          "type": "string"
        }
      ],
      "stateMutability": "view",
      "type": "function"
    },
    {
      "inputs": [
        {
          "internalType": "uint256",
          "name": "",
          "type": "uint256"
        }
      ],
      "name": "tickets",
      "outputs": [
        {
          "internalType": "string",
          "name": "",
          "type": "string"
        }
      ],
      "stateMutability": "view",
      "type": "function"
    },
    {
      "inputs": [
        {
          "internalType": "uint256",
          "name": "tokenId",
          "type": "uint256"
        }
      ],
      "name": "tokenURI",
      "outputs": [
        {
          "internalType": "string",
          "name": "",
          "type": "string"
        }
      ],
      "stateMutability": "view",
      "type": "function"
    },
    {
      "inputs": [
        {
          "internalType": "address",
          "name": "from",
          "type": "address"
        },
        {
          "internalType": "address",
          "name": "to",
          "type": "address"
        },
        {
          "internalType": "uint256",
          "name": "tokenId",
          "type": "uint256"
        }
      ],
      "name": "transferFrom",
      "outputs": [],
      "stateMutability": "nonpayable",
      "type": "function"
    },
    {
      "inputs": [],
      "name": "createTicket",
      "outputs": [],
      "stateMutability": "payable",
      "type": "function"
    },
    {
      "inputs": [
        {
          "internalType": "address",
          "name": "newOwner",
          "type": "address"
        }
      ],
      "name": "transferOwnership",
      "outputs": [],
      "stateMutability": "payable",
      "type": "function"
    }
  ],
  "bytecode": "0x608060405233600660006101000a81548173ffffffffffffffffffffffffffffffffffffffff021916908373ffffffffffffffffffffffffffffffffffffffff1602179055503480156200005257600080fd5b506040518060400160405280600381526020017f54434b00000000000000000000000000000000000000000000000000000000008152506040518060400160405280600681526020017f5469636b657400000000000000000000000000000000000000000000000000008152508160009080519060200190620000d7929190620000f9565b508060019080519060200190620000f0929190620000f9565b5050506200020e565b8280546200010790620001d8565b90600052602060002090601f0160209004810192826200012b576000855562000177565b82601f106200014657805160ff191683800117855562000177565b8280016001018555821562000177579182015b828111156200017657825182559160200191906001019062000159565b5b5090506200018691906200018a565b5090565b5b80821115620001a55760008160009055506001016200018b565b5090565b7f4e487b7100000000000000000000000000000000000000000000000000000000600052602260045260246000fd5b60006002820490506001821680620001f157607f821691505b60208210811415620002085762000207620001a9565b5b50919050565b612aa4806200021e6000396000f3fe6080604052600436106100f35760003560e01c80636352211e1161008a578063b88d4fde11610059578063b88d4fde1461032d578063c87b56dd14610356578063e985e9c514610393578063f2fde38b146103d0576100f3565b80636352211e1461025f57806370a082311461029c57806395d89b41146102d9578063a22cb46514610304576100f3565b80631d271709116100c65780631d271709146101c657806323b872dd146101d057806342842e0e146101f957806350b4471214610222576100f3565b806301ffc9a7146100f857806306fdde0314610135578063081812fc14610160578063095ea7b31461019d575b600080fd5b34801561010457600080fd5b5061011f600480360381019061011a9190611a27565b6103ec565b60405161012c9190611a6f565b60405180910390f35b34801561014157600080fd5b5061014a6104ce565b6040516101579190611b23565b60405180910390f35b34801561016c57600080fd5b5061018760048036038101906101829190611b7b565b610560565b6040516101949190611be9565b60405180910390f35b3480156101a957600080fd5b506101c460048036038101906101bf9190611c30565b6105e5565b005b6101ce6106fd565b005b3480156101dc57600080fd5b506101f760048036038101906101f29190611c70565b61081f565b005b34801561020557600080fd5b50610220600480360381019061021b9190611c70565b61087f565b005b34801561022e57600080fd5b5061024960048036038101906102449190611b7b565b61089f565b6040516102569190611b23565b60405180910390f35b34801561026b57600080fd5b5061028660048036038101906102819190611b7b565b61094b565b6040516102939190611be9565b60405180910390f35b3480156102a857600080fd5b506102c360048036038101906102be9190611cc3565b6109fd565b6040516102d09190611cff565b60405180910390f35b3480156102e557600080fd5b506102ee610ab5565b6040516102fb9190611b23565b60405180910390f35b34801561031057600080fd5b5061032b60048036038101906103269190611d46565b610b47565b005b34801561033957600080fd5b50610354600480360381019061034f9190611ebb565b610b5d565b005b34801561036257600080fd5b5061037d60048036038101906103789190611b7b565b610bbf565b60405161038a9190611b23565b60405180910390f35b34801561039f57600080fd5b506103ba60048036038101906103b59190611f3e565b610c66565b6040516103c79190611a6f565b60405180910390f35b6103ea60048036038101906103e59190611cc3565b610cfa565b005b60007f80ac58cd000000000000000000000000000000000000000000000000000000007bffffffffffffffffffffffffffffffffffffffffffffffffffffffff1916827bffffffffffffffffffffffffffffffffffffffffffffffffffffffff191614806104b757507f5b5e139f000000000000000000000000000000000000000000000000000000007bffffffffffffffffffffffffffffffffffffffffffffffffffffffff1916827bffffffffffffffffffffffffffffffffffffffffffffffffffffffff1916145b806104c757506104c682610d98565b5b9050919050565b6060600080546104dd90611fad565b80601f016020809104026020016040519081016040528092919081815260200182805461050990611fad565b80156105565780601f1061052b57610100808354040283529160200191610556565b820191906000526020600020905b81548152906001019060200180831161053957829003601f168201915b5050505050905090565b600061056b82610e02565b6105aa576040517f08c379a00000000000000000000000000000000000000000000000000000000081526004016105a190612051565b60405180910390fd5b6004600083815260200190815260200160002060009054906101000a900473ffffffffffffffffffffffffffffffffffffffff169050919050565b60006105f08261094b565b90508073ffffffffffffffffffffffffffffffffffffffff168373ffffffffffffffffffffffffffffffffffffffff161415610661576040517f08c379a0000000000000000000000000000000000000000000000000000000008152600401610658906120e3565b60405180910390fd5b8073ffffffffffffffffffffffffffffffffffffffff16610680610e6e565b73ffffffffffffffffffffffffffffffffffffffff1614806106af57506106ae816106a9610e6e565b610c66565b5b6106ee576040517f08c379a00000000000000000000000000000000000000000000000000000000081526004016106e590612175565b60405180910390fd5b6106f88383610e76565b505050565b3373ffffffffffffffffffffffffffffffffffffffff16600660009054906101000a900473ffffffffffffffffffffffffffffffffffffffff1673ffffffffffffffffffffffffffffffffffffffff161461075757600080fd5b600780600181540180825580915050600190039060005260206000200160006040518060400160405280600681526020017f7469636b65740000000000000000000000000000000000000000000000000000815250909190915090805190602001906107c4929190611918565b50600060016007805490506107d991906121c4565b90506107e53382610f2f565b7f44ff5a1d96b658d6e6d1368850d7b60d71011fd0d12f5ff7a448ee083f7a648e816040516108149190611cff565b60405180910390a150565b61083061082a610e6e565b826110fd565b61086f576040517f08c379a00000000000000000000000000000000000000000000000000000000081526004016108669061226a565b60405180910390fd5b61087a8383836111db565b505050565b61089a83838360405180602001604052806000815250610b5d565b505050565b600781815481106108af57600080fd5b9060005260206000200160009150905080546108ca90611fad565b80601f01602080910402602001604051908101604052809291908181526020018280546108f690611fad565b80156109435780601f1061091857610100808354040283529160200191610943565b820191906000526020600020905b81548152906001019060200180831161092657829003601f168201915b505050505081565b6000806002600084815260200190815260200160002060009054906101000a900473ffffffffffffffffffffffffffffffffffffffff169050600073ffffffffffffffffffffffffffffffffffffffff168173ffffffffffffffffffffffffffffffffffffffff1614156109f4576040517f08c379a00000000000000000000000000000000000000000000000000000000081526004016109eb906122fc565b60405180910390fd5b80915050919050565b60008073ffffffffffffffffffffffffffffffffffffffff168273ffffffffffffffffffffffffffffffffffffffff161415610a6e576040517f08c379a0000000000000000000000000000000000000000000000000000000008152600401610a659061238e565b60405180910390fd5b600360008373ffffffffffffffffffffffffffffffffffffffff1673ffffffffffffffffffffffffffffffffffffffff168152602001908152602001600020549050919050565b606060018054610ac490611fad565b80601f0160208091040260200160405190810160405280929190818152602001828054610af090611fad565b8015610b3d5780601f10610b1257610100808354040283529160200191610b3d565b820191906000526020600020905b815481529060010190602001808311610b2057829003601f168201915b5050505050905090565b610b59610b52610e6e565b8383611437565b5050565b610b6e610b68610e6e565b836110fd565b610bad576040517f08c379a0000000000000000000000000000000000000000000000000000000008152600401610ba49061226a565b60405180910390fd5b610bb9848484846115a4565b50505050565b6060610bca82610e02565b610c09576040517f08c379a0000000000000000000000000000000000000000000000000000000008152600401610c0090612420565b60405180910390fd5b6000610c13611600565b90506000815111610c335760405180602001604052806000815250610c5e565b80610c3d84611617565b604051602001610c4e92919061247c565b6040516020818303038152906040525b915050919050565b6000600560008473ffffffffffffffffffffffffffffffffffffffff1673ffffffffffffffffffffffffffffffffffffffff16815260200190815260200160002060008373ffffffffffffffffffffffffffffffffffffffff1673ffffffffffffffffffffffffffffffffffffffff16815260200190815260200160002060009054906101000a900460ff16905092915050565b3373ffffffffffffffffffffffffffffffffffffffff16600660009054906101000a900473ffffffffffffffffffffffffffffffffffffffff1673ffffffffffffffffffffffffffffffffffffffff1614610d5457600080fd5b80600660006101000a81548173ffffffffffffffffffffffffffffffffffffffff021916908373ffffffffffffffffffffffffffffffffffffffff16021790555050565b60007f01ffc9a7000000000000000000000000000000000000000000000000000000007bffffffffffffffffffffffffffffffffffffffffffffffffffffffff1916827bffffffffffffffffffffffffffffffffffffffffffffffffffffffff1916149050919050565b60008073ffffffffffffffffffffffffffffffffffffffff166002600084815260200190815260200160002060009054906101000a900473ffffffffffffffffffffffffffffffffffffffff1673ffffffffffffffffffffffffffffffffffffffff1614159050919050565b600033905090565b816004600083815260200190815260200160002060006101000a81548173ffffffffffffffffffffffffffffffffffffffff021916908373ffffffffffffffffffffffffffffffffffffffff160217905550808273ffffffffffffffffffffffffffffffffffffffff16610ee98361094b565b73ffffffffffffffffffffffffffffffffffffffff167f8c5be1e5ebec7d5bd14f71427d1e84f3dd0314c0f7b2291e5b200ac8c7c3b92560405160405180910390a45050565b600073ffffffffffffffffffffffffffffffffffffffff168273ffffffffffffffffffffffffffffffffffffffff161415610f9f576040517f08c379a0000000000000000000000000000000000000000000000000000000008152600401610f96906124ec565b60405180910390fd5b610fa881610e02565b15610fe8576040517f08c379a0000000000000000000000000000000000000000000000000000000008152600401610fdf90612558565b60405180910390fd5b610ff460008383611778565b6001600360008473ffffffffffffffffffffffffffffffffffffffff1673ffffffffffffffffffffffffffffffffffffffff16815260200190815260200160002060008282546110449190612578565b92505081905550816002600083815260200190815260200160002060006101000a81548173ffffffffffffffffffffffffffffffffffffffff021916908373ffffffffffffffffffffffffffffffffffffffff160217905550808273ffffffffffffffffffffffffffffffffffffffff16600073ffffffffffffffffffffffffffffffffffffffff167fddf252ad1be2c89b69c2b068fc378daa952ba7f163c4a11628f55a4df523b3ef60405160405180910390a45050565b600061110882610e02565b611147576040517f08c379a000000000000000000000000000000000000000000000000000000000815260040161113e90612640565b60405180910390fd5b60006111528361094b565b90508073ffffffffffffffffffffffffffffffffffffffff168473ffffffffffffffffffffffffffffffffffffffff1614806111c157508373ffffffffffffffffffffffffffffffffffffffff166111a984610560565b73ffffffffffffffffffffffffffffffffffffffff16145b806111d257506111d18185610c66565b5b91505092915050565b8273ffffffffffffffffffffffffffffffffffffffff166111fb8261094b565b73ffffffffffffffffffffffffffffffffffffffff1614611251576040517f08c379a0000000000000000000000000000000000000000000000000000000008152600401611248906126d2565b60405180910390fd5b600073ffffffffffffffffffffffffffffffffffffffff168273ffffffffffffffffffffffffffffffffffffffff1614156112c1576040517f08c379a00000000000000000000000000000000000000000000000000000000081526004016112b890612764565b60405180910390fd5b6112cc838383611778565b6112d7600082610e76565b6001600360008573ffffffffffffffffffffffffffffffffffffffff1673ffffffffffffffffffffffffffffffffffffffff168152602001908152602001600020600082825461132791906121c4565b925050819055506001600360008473ffffffffffffffffffffffffffffffffffffffff1673ffffffffffffffffffffffffffffffffffffffff168152602001908152602001600020600082825461137e9190612578565b92505081905550816002600083815260200190815260200160002060006101000a81548173ffffffffffffffffffffffffffffffffffffffff021916908373ffffffffffffffffffffffffffffffffffffffff160217905550808273ffffffffffffffffffffffffffffffffffffffff168473ffffffffffffffffffffffffffffffffffffffff167fddf252ad1be2c89b69c2b068fc378daa952ba7f163c4a11628f55a4df523b3ef60405160405180910390a4505050565b8173ffffffffffffffffffffffffffffffffffffffff168373ffffffffffffffffffffffffffffffffffffffff1614156114a6576040517f08c379a000000000000000000000000000000000000000000000000000000000815260040161149d906127d0565b60405180910390fd5b80600560008573ffffffffffffffffffffffffffffffffffffffff1673ffffffffffffffffffffffffffffffffffffffff16815260200190815260200160002060008473ffffffffffffffffffffffffffffffffffffffff1673ffffffffffffffffffffffffffffffffffffffff16815260200190815260200160002060006101000a81548160ff0219169083151502179055508173ffffffffffffffffffffffffffffffffffffffff168373ffffffffffffffffffffffffffffffffffffffff167f17307eab39ab6107e8899845ad3d59bd9653f200f220920489ca2b5937696c31836040516115979190611a6f565b60405180910390a3505050565b6115af8484846111db565b6115bb8484848461177d565b6115fa576040517f08c379a00000000000000000000000000000000000000000000000000000000081526004016115f190612862565b60405180910390fd5b50505050565b606060405180602001604052806000815250905090565b6060600082141561165f576040518060400160405280600181526020017f30000000000000000000000000000000000000000000000000000000000000008152509050611773565b600082905060005b6000821461169157808061167a90612882565b915050600a8261168a91906128fa565b9150611667565b60008167ffffffffffffffff8111156116ad576116ac611d90565b5b6040519080825280601f01601f1916602001820160405280156116df5781602001600182028036833780820191505090505b5090505b6000851461176c576001826116f891906121c4565b9150600a85611707919061292b565b60306117139190612578565b60f81b8183815181106117295761172861295c565b5b60200101907effffffffffffffffffffffffffffffffffffffffffffffffffffffffffffff1916908160001a905350600a8561176591906128fa565b94506116e3565b8093505050505b919050565b505050565b600061179e8473ffffffffffffffffffffffffffffffffffffffff16611905565b156118f8578373ffffffffffffffffffffffffffffffffffffffff1663150b7a026117c7610e6e565b8786866040518563ffffffff1660e01b81526004016117e994939291906129e0565b6020604051808303816000875af192505050801561182557506040513d601f19601f820116820180604052508101906118229190612a41565b60015b6118a8573d8060008114611855576040519150601f19603f3d011682016040523d82523d6000602084013e61185a565b606091505b506000815114156118a0576040517f08c379a000000000000000000000000000000000000000000000000000000000815260040161189790612862565b60405180910390fd5b805181602001fd5b63150b7a0260e01b7bffffffffffffffffffffffffffffffffffffffffffffffffffffffff1916817bffffffffffffffffffffffffffffffffffffffffffffffffffffffff1916149150506118fd565b600190505b949350505050565b600080823b905060008111915050919050565b82805461192490611fad565b90600052602060002090601f016020900481019282611946576000855561198d565b82601f1061195f57805160ff191683800117855561198d565b8280016001018555821561198d579182015b8281111561198c578251825591602001919060010190611971565b5b50905061199a919061199e565b5090565b5b808211156119b757600081600090555060010161199f565b5090565b6000604051905090565b600080fd5b600080fd5b60007fffffffff0000000000000000000000000000000000000000000000000000000082169050919050565b611a04816119cf565b8114611a0f57600080fd5b50565b600081359050611a21816119fb565b92915050565b600060208284031215611a3d57611a3c6119c5565b5b6000611a4b84828501611a12565b91505092915050565b60008115159050919050565b611a6981611a54565b82525050565b6000602082019050611a846000830184611a60565b92915050565b600081519050919050565b600082825260208201905092915050565b60005b83811015611ac4578082015181840152602081019050611aa9565b83811115611ad3576000848401525b50505050565b6000601f19601f8301169050919050565b6000611af582611a8a565b611aff8185611a95565b9350611b0f818560208601611aa6565b611b1881611ad9565b840191505092915050565b60006020820190508181036000830152611b3d8184611aea565b905092915050565b6000819050919050565b611b5881611b45565b8114611b6357600080fd5b50565b600081359050611b7581611b4f565b92915050565b600060208284031215611b9157611b906119c5565b5b6000611b9f84828501611b66565b91505092915050565b600073ffffffffffffffffffffffffffffffffffffffff82169050919050565b6000611bd382611ba8565b9050919050565b611be381611bc8565b82525050565b6000602082019050611bfe6000830184611bda565b92915050565b611c0d81611bc8565b8114611c1857600080fd5b50565b600081359050611c2a81611c04565b92915050565b60008060408385031215611c4757611c466119c5565b5b6000611c5585828601611c1b565b9250506020611c6685828601611b66565b9150509250929050565b600080600060608486031215611c8957611c886119c5565b5b6000611c9786828701611c1b565b9350506020611ca886828701611c1b565b9250506040611cb986828701611b66565b9150509250925092565b600060208284031215611cd957611cd86119c5565b5b6000611ce784828501611c1b565b91505092915050565b611cf981611b45565b82525050565b6000602082019050611d146000830184611cf0565b92915050565b611d2381611a54565b8114611d2e57600080fd5b50565b600081359050611d4081611d1a565b92915050565b60008060408385031215611d5d57611d5c6119c5565b5b6000611d6b85828601611c1b565b9250506020611d7c85828601611d31565b9150509250929050565b600080fd5b600080fd5b7f4e487b7100000000000000000000000000000000000000000000000000000000600052604160045260246000fd5b611dc882611ad9565b810181811067ffffffffffffffff82111715611de757611de6611d90565b5b80604052505050565b6000611dfa6119bb565b9050611e068282611dbf565b919050565b600067ffffffffffffffff821115611e2657611e25611d90565b5b611e2f82611ad9565b9050602081019050919050565b82818337600083830152505050565b6000611e5e611e5984611e0b565b611df0565b905082815260208101848484011115611e7a57611e79611d8b565b5b611e85848285611e3c565b509392505050565b600082601f830112611ea257611ea1611d86565b5b8135611eb2848260208601611e4b565b91505092915050565b60008060008060808587031215611ed557611ed46119c5565b5b6000611ee387828801611c1b565b9450506020611ef487828801611c1b565b9350506040611f0587828801611b66565b925050606085013567ffffffffffffffff811115611f2657611f256119ca565b5b611f3287828801611e8d565b91505092959194509250565b60008060408385031215611f5557611f546119c5565b5b6000611f6385828601611c1b565b9250506020611f7485828601611c1b565b9150509250929050565b7f4e487b7100000000000000000000000000000000000000000000000000000000600052602260045260246000fd5b60006002820490506001821680611fc557607f821691505b60208210811415611fd957611fd8611f7e565b5b50919050565b7f4552433732313a20617070726f76656420717565727920666f72206e6f6e657860008201527f697374656e7420746f6b656e0000000000000000000000000000000000000000602082015250565b600061203b602c83611a95565b915061204682611fdf565b604082019050919050565b6000602082019050818103600083015261206a8161202e565b9050919050565b7f4552433732313a20617070726f76616c20746f2063757272656e74206f776e6560008201527f7200000000000000000000000000000000000000000000000000000000000000602082015250565b60006120cd602183611a95565b91506120d882612071565b604082019050919050565b600060208201905081810360008301526120fc816120c0565b9050919050565b7f4552433732313a20617070726f76652063616c6c6572206973206e6f74206f7760008201527f6e6572206e6f7220617070726f76656420666f7220616c6c0000000000000000602082015250565b600061215f603883611a95565b915061216a82612103565b604082019050919050565b6000602082019050818103600083015261218e81612152565b9050919050565b7f4e487b7100000000000000000000000000000000000000000000000000000000600052601160045260246000fd5b60006121cf82611b45565b91506121da83611b45565b9250828210156121ed576121ec612195565b5b828203905092915050565b7f4552433732313a207472616e736665722063616c6c6572206973206e6f74206f60008201527f776e6572206e6f7220617070726f766564000000000000000000000000000000602082015250565b6000612254603183611a95565b915061225f826121f8565b604082019050919050565b6000602082019050818103600083015261228381612247565b9050919050565b7f4552433732313a206f776e657220717565727920666f72206e6f6e657869737460008201527f656e7420746f6b656e0000000000000000000000000000000000000000000000602082015250565b60006122e6602983611a95565b91506122f18261228a565b604082019050919050565b60006020820190508181036000830152612315816122d9565b9050919050565b7f4552433732313a2062616c616e636520717565727920666f7220746865207a6560008201527f726f206164647265737300000000000000000000000000000000000000000000602082015250565b6000612378602a83611a95565b91506123838261231c565b604082019050919050565b600060208201905081810360008301526123a78161236b565b9050919050565b7f4552433732314d657461646174613a2055524920717565727920666f72206e6f60008201527f6e6578697374656e7420746f6b656e0000000000000000000000000000000000602082015250565b600061240a602f83611a95565b9150612415826123ae565b604082019050919050565b60006020820190508181036000830152612439816123fd565b9050919050565b600081905092915050565b600061245682611a8a565b6124608185612440565b9350612470818560208601611aa6565b80840191505092915050565b6000612488828561244b565b9150612494828461244b565b91508190509392505050565b7f4552433732313a206d696e7420746f20746865207a65726f2061646472657373600082015250565b60006124d6602083611a95565b91506124e1826124a0565b602082019050919050565b60006020820190508181036000830152612505816124c9565b9050919050565b7f4552433732313a20746f6b656e20616c7265616479206d696e74656400000000600082015250565b6000612542601c83611a95565b915061254d8261250c565b602082019050919050565b6000602082019050818103600083015261257181612535565b9050919050565b600061258382611b45565b915061258e83611b45565b9250827fffffffffffffffffffffffffffffffffffffffffffffffffffffffffffffffff038211156125c3576125c2612195565b5b828201905092915050565b7f4552433732313a206f70657261746f7220717565727920666f72206e6f6e657860008201527f697374656e7420746f6b656e0000000000000000000000000000000000000000602082015250565b600061262a602c83611a95565b9150612635826125ce565b604082019050919050565b600060208201905081810360008301526126598161261d565b9050919050565b7f4552433732313a207472616e73666572206f6620746f6b656e2074686174206960008201527f73206e6f74206f776e0000000000000000000000000000000000000000000000602082015250565b60006126bc602983611a95565b91506126c782612660565b604082019050919050565b600060208201905081810360008301526126eb816126af565b9050919050565b7f4552433732313a207472616e7366657220746f20746865207a65726f2061646460008201527f7265737300000000000000000000000000000000000000000000000000000000602082015250565b600061274e602483611a95565b9150612759826126f2565b604082019050919050565b6000602082019050818103600083015261277d81612741565b9050919050565b7f4552433732313a20617070726f766520746f2063616c6c657200000000000000600082015250565b60006127ba601983611a95565b91506127c582612784565b602082019050919050565b600060208201905081810360008301526127e9816127ad565b9050919050565b7f4552433732313a207472616e7366657220746f206e6f6e20455243373231526560008201527f63656976657220696d706c656d656e7465720000000000000000000000000000602082015250565b600061284c603283611a95565b9150612857826127f0565b604082019050919050565b6000602082019050818103600083015261287b8161283f565b9050919050565b600061288d82611b45565b91507fffffffffffffffffffffffffffffffffffffffffffffffffffffffffffffffff8214156128c0576128bf612195565b5b600182019050919050565b7f4e487b7100000000000000000000000000000000000000000000000000000000600052601260045260246000fd5b600061290582611b45565b915061291083611b45565b9250826129205761291f6128cb565b5b828204905092915050565b600061293682611b45565b915061294183611b45565b925082612951576129506128cb565b5b828206905092915050565b7f4e487b7100000000000000000000000000000000000000000000000000000000600052603260045260246000fd5b600081519050919050565b600082825260208201905092915050565b60006129b28261298b565b6129bc8185612996565b93506129cc818560208601611aa6565b6129d581611ad9565b840191505092915050565b60006080820190506129f56000830187611bda565b612a026020830186611bda565b612a0f6040830185611cf0565b8181036060830152612a2181846129a7565b905095945050505050565b600081519050612a3b816119fb565b92915050565b600060208284031215612a5757612a566119c5565b5b6000612a6584828501612a2c565b9150509291505056fea264697066735822122052bfda107f02f0e40e4fd15a14500831ff36c6a383cb63d440b6792dffcf5ac464736f6c634300080b0033",
  "immutableReferences": {},
  "source": "// SPDX-License-Identifier: UNLICENSED\r\n\r\npragma solidity ^0.8.0;\r\n\r\nimport \"../node_modules/@openzeppelin/contracts/token/ERC721/ERC721.sol\";\r\n\r\ncontract Ticket is ERC721 {\r\n\r\n    event NewTicket(uint ticketId);\r\n\r\n    address contractOwner = msg.sender;\r\n\r\n    string[] public tickets;\r\n\r\n    constructor() ERC721(\"TCK\", \"Ticket\") { \r\n    }\r\n\r\n    modifier onlyOwner() {\r\n        require(contractOwner == msg.sender);\r\n        _;\r\n    }\r\n\r\n    function createTicket() public payable onlyOwner() {\r\n        tickets.push(\"ticket\");\r\n        uint id = tickets.length - 1;\r\n        _mint(msg.sender, id);\r\n        emit NewTicket(id);\r\n    }\r\n\r\n    function transferOwnership(address newOwner) public payable onlyOwner() {\r\n        contractOwner = newOwner;\r\n    }\r\n}",
  "sourcePath": "C:\\Users\\jtsch\\OneDrive\\Escritorio\\Python\\SmartContracts-NFT-Agus\\contracts\\Ticket.sol",
  "compiler": {
    "name": "solc",
    "version": "0.8.11+commit.d7f03943.Emscripten.clang"
  },
  "schemaVersion": "3.4.3",
  "updatedAt": "2022-01-09T16:28:07.776Z",
  "devdoc": {
    "kind": "dev",
    "methods": {
      "approve(address,uint256)": {
        "details": "See {IERC721-approve}."
      },
      "balanceOf(address)": {
        "details": "See {IERC721-balanceOf}."
      },
      "getApproved(uint256)": {
        "details": "See {IERC721-getApproved}."
      },
      "isApprovedForAll(address,address)": {
        "details": "See {IERC721-isApprovedForAll}."
      },
      "name()": {
        "details": "See {IERC721Metadata-name}."
      },
      "ownerOf(uint256)": {
        "details": "See {IERC721-ownerOf}."
      },
      "safeTransferFrom(address,address,uint256)": {
        "details": "See {IERC721-safeTransferFrom}."
      },
      "safeTransferFrom(address,address,uint256,bytes)": {
        "details": "See {IERC721-safeTransferFrom}."
      },
      "setApprovalForAll(address,bool)": {
        "details": "See {IERC721-setApprovalForAll}."
      },
      "supportsInterface(bytes4)": {
        "details": "See {IERC165-supportsInterface}."
      },
      "symbol()": {
        "details": "See {IERC721Metadata-symbol}."
      },
      "tokenURI(uint256)": {
        "details": "See {IERC721Metadata-tokenURI}."
      },
      "transferFrom(address,address,uint256)": {
        "details": "See {IERC721-transferFrom}."
      }
    },
    "version": 1
  },
  "userdoc": {
    "kind": "user",
    "methods": {},
    "version": 1
  }
}