{
  "contractName": "Token",
  "abi": [
    {
      "inputs": [],
      "stateMutability": "nonpayable",
      "type": "constructor"
    },
    {
      "anonymous": false,
      "inputs": [
        {
          "indexed": true,
          "internalType": "address",
          "name": "owner",
          "type": "address"
        },
        {
          "indexed": true,
          "internalType": "address",
          "name": "spender",
          "type": "address"
        },
        {
          "indexed": false,
          "internalType": "uint256",
          "name": "value",
          "type": "uint256"
        }
      ],
      "name": "Approval",
      "type": "event"
    },
    {
      "anonymous": false,
      "inputs": [
        {
          "indexed": true,
          "internalType": "address",
          "name": "from",
          "type": "address"
        },
        {
          "indexed": true,
          "internalType": "address",
          "name": "to",
          "type": "address"
        },
        {
          "indexed": false,
          "internalType": "uint256",
          "name": "value",
          "type": "uint256"
        }
      ],
      "name": "Transfer",
      "type": "event"
    },
    {
      "inputs": [
        {
          "internalType": "address",
          "name": "owner",
          "type": "address"
        },
        {
          "internalType": "address",
          "name": "spender",
          "type": "address"
        }
      ],
      "name": "allowance",
      "outputs": [
        {
          "internalType": "uint256",
          "name": "",
          "type": "uint256"
        }
      ],
      "stateMutability": "view",
      "type": "function",
      "constant": true
    },
    {
      "inputs": [
        {
          "internalType": "address",
          "name": "spender",
          "type": "address"
        },
        {
          "internalType": "uint256",
          "name": "amount",
          "type": "uint256"
        }
      ],
      "name": "approve",
      "outputs": [
        {
          "internalType": "bool",
          "name": "",
          "type": "bool"
        }
      ],
      "stateMutability": "nonpayable",
      "type": "function"
    },
    {
      "inputs": [
        {
          "internalType": "address",
          "name": "account",
          "type": "address"
        }
      ],
      "name": "balanceOf",
      "outputs": [
        {
          "internalType": "uint256",
          "name": "",
          "type": "uint256"
        }
      ],
      "stateMutability": "view",
      "type": "function",
      "constant": true
    },
    {
      "inputs": [],
      "name": "decimals",
      "outputs": [
        {
          "internalType": "uint8",
          "name": "",
          "type": "uint8"
        }
      ],
      "stateMutability": "view",
      "type": "function",
      "constant": true
    },
    {
      "inputs": [
        {
          "internalType": "address",
          "name": "spender",
          "type": "address"
        },
        {
          "internalType": "uint256",
          "name": "subtractedValue",
          "type": "uint256"
        }
      ],
      "name": "decreaseAllowance",
      "outputs": [
        {
          "internalType": "bool",
          "name": "",
          "type": "bool"
        }
      ],
      "stateMutability": "nonpayable",
      "type": "function"
    },
    {
      "inputs": [
        {
          "internalType": "address",
          "name": "spender",
          "type": "address"
        },
        {
          "internalType": "uint256",
          "name": "addedValue",
          "type": "uint256"
        }
      ],
      "name": "increaseAllowance",
      "outputs": [
        {
          "internalType": "bool",
          "name": "",
          "type": "bool"
        }
      ],
      "stateMutability": "nonpayable",
      "type": "function"
    },
    {
      "inputs": [],
      "name": "name",
      "outputs": [
        {
          "internalType": "string",
          "name": "",
          "type": "string"
        }
      ],
      "stateMutability": "view",
      "type": "function",
      "constant": true
    },
    {
      "inputs": [],
      "name": "symbol",
      "outputs": [
        {
          "internalType": "string",
          "name": "",
          "type": "string"
        }
      ],
      "stateMutability": "view",
      "type": "function",
      "constant": true
    },
    {
      "inputs": [],
      "name": "totalSupply",
      "outputs": [
        {
          "internalType": "uint256",
          "name": "",
          "type": "uint256"
        }
      ],
      "stateMutability": "view",
      "type": "function",
      "constant": true
    },
    {
      "inputs": [
        {
          "internalType": "address",
          "name": "recipient",
          "type": "address"
        },
        {
          "internalType": "uint256",
          "name": "amount",
          "type": "uint256"
        }
      ],
      "name": "transfer",
      "outputs": [
        {
          "internalType": "bool",
          "name": "",
          "type": "bool"
        }
      ],
      "stateMutability": "nonpayable",
      "type": "function"
    },
    {
      "inputs": [
        {
          "internalType": "address",
          "name": "sender",
          "type": "address"
        },
        {
          "internalType": "address",
          "name": "recipient",
          "type": "address"
        },
        {
          "internalType": "uint256",
          "name": "amount",
          "type": "uint256"
        }
      ],
      "name": "transferFrom",
      "outputs": [
        {
          "internalType": "bool",
          "name": "",
          "type": "bool"
        }
      ],
      "stateMutability": "nonpayable",
      "type": "function"
    },
    {
      "inputs": [
        {
          "internalType": "address",
          "name": "newOwner",
          "type": "address"
        }
      ],
      "name": "transferOwnership",
      "outputs": [],
      "stateMutability": "payable",
      "type": "function",
      "payable": true
    }
  ],
  "bytecode": "0x608060405273f577601a5ef1d5079da672f01d7ab3b80dd2bd1d600560006101000a81548173ffffffffffffffffffffffffffffffffffffffff021916908373ffffffffffffffffffffffffffffffffffffffff16021790555073f577601a5ef1d5079da672f01d7ab3b80dd2bd1d600660006101000a81548173ffffffffffffffffffffffffffffffffffffffff021916908373ffffffffffffffffffffffffffffffffffffffff16021790555073fd768e668a158c173e9549d1632902c2a4363178600760006101000a81548173ffffffffffffffffffffffffffffffffffffffff021916908373ffffffffffffffffffffffffffffffffffffffff1602179055503480156200011057600080fd5b506040518060400160405280601481526020017f546f6b656e2050617461676f6e696120546573740000000000000000000000008152506040518060400160405280600381526020017f5450540000000000000000000000000000000000000000000000000000000000815250816003908051906020019062000195929190620003b6565b508060049080519060200190620001ae929190620003b6565b505050620001ee600660009054906101000a900473ffffffffffffffffffffffffffffffffffffffff1668056bc75e2d631000006200023360201b60201c565b6200022d600760009054906101000a900473ffffffffffffffffffffffffffffffffffffffff166a034f086f3b33b6840000006200023360201b60201c565b62000612565b600073ffffffffffffffffffffffffffffffffffffffff168273ffffffffffffffffffffffffffffffffffffffff161415620002a6576040517f08c379a00000000000000000000000000000000000000000000000000000000081526004016200029d90620004c7565b60405180910390fd5b620002ba60008383620003ac60201b60201c565b8060026000828254620002ce919062000522565b92505081905550806000808473ffffffffffffffffffffffffffffffffffffffff1673ffffffffffffffffffffffffffffffffffffffff168152602001908152602001600020600082825462000325919062000522565b925050819055508173ffffffffffffffffffffffffffffffffffffffff16600073ffffffffffffffffffffffffffffffffffffffff167fddf252ad1be2c89b69c2b068fc378daa952ba7f163c4a11628f55a4df523b3ef836040516200038c919062000590565b60405180910390a3620003a860008383620003b160201b60201c565b5050565b505050565b505050565b828054620003c490620005dc565b90600052602060002090601f016020900481019282620003e8576000855562000434565b82601f106200040357805160ff191683800117855562000434565b8280016001018555821562000434579182015b828111156200043357825182559160200191906001019062000416565b5b50905062000443919062000447565b5090565b5b808211156200046257600081600090555060010162000448565b5090565b600082825260208201905092915050565b7f45524332303a206d696e7420746f20746865207a65726f206164647265737300600082015250565b6000620004af601f8362000466565b9150620004bc8262000477565b602082019050919050565b60006020820190508181036000830152620004e281620004a0565b9050919050565b6000819050919050565b7f4e487b7100000000000000000000000000000000000000000000000000000000600052601160045260246000fd5b60006200052f82620004e9565b91506200053c83620004e9565b9250827fffffffffffffffffffffffffffffffffffffffffffffffffffffffffffffffff03821115620005745762000573620004f3565b5b828201905092915050565b6200058a81620004e9565b82525050565b6000602082019050620005a760008301846200057f565b92915050565b7f4e487b7100000000000000000000000000000000000000000000000000000000600052602260045260246000fd5b60006002820490506001821680620005f557607f821691505b602082108114156200060c576200060b620005ad565b5b50919050565b6114f180620006226000396000f3fe6080604052600436106100a75760003560e01c806370a082311161006457806370a08231146101e457806395d89b4114610221578063a457c2d71461024c578063a9059cbb14610289578063dd62ed3e146102c6578063f2fde38b14610303576100a7565b806306fdde03146100ac578063095ea7b3146100d757806318160ddd1461011457806323b872dd1461013f578063313ce5671461017c57806339509351146101a7575b600080fd5b3480156100b857600080fd5b506100c161031f565b6040516100ce9190610d85565b60405180910390f35b3480156100e357600080fd5b506100fe60048036038101906100f99190610e40565b6103b1565b60405161010b9190610e9b565b60405180910390f35b34801561012057600080fd5b506101296103cf565b6040516101369190610ec5565b60405180910390f35b34801561014b57600080fd5b5061016660048036038101906101619190610ee0565b6103d9565b6040516101739190610e9b565b60405180910390f35b34801561018857600080fd5b506101916104d1565b60405161019e9190610f4f565b60405180910390f35b3480156101b357600080fd5b506101ce60048036038101906101c99190610e40565b6104da565b6040516101db9190610e9b565b60405180910390f35b3480156101f057600080fd5b5061020b60048036038101906102069190610f6a565b610586565b6040516102189190610ec5565b60405180910390f35b34801561022d57600080fd5b506102366105ce565b6040516102439190610d85565b60405180910390f35b34801561025857600080fd5b50610273600480360381019061026e9190610e40565b610660565b6040516102809190610e9b565b60405180910390f35b34801561029557600080fd5b506102b060048036038101906102ab9190610e40565b61074b565b6040516102bd9190610e9b565b60405180910390f35b3480156102d257600080fd5b506102ed60048036038101906102e89190610f97565b610769565b6040516102fa9190610ec5565b60405180910390f35b61031d60048036038101906103189190610f6a565b6107f0565b005b60606003805461032e90611006565b80601f016020809104026020016040519081016040528092919081815260200182805461035a90611006565b80156103a75780601f1061037c576101008083540402835291602001916103a7565b820191906000526020600020905b81548152906001019060200180831161038a57829003601f168201915b5050505050905090565b60006103c56103be61088e565b8484610896565b6001905092915050565b6000600254905090565b60006103e6848484610a61565b6000600160008673ffffffffffffffffffffffffffffffffffffffff1673ffffffffffffffffffffffffffffffffffffffff168152602001908152602001600020600061043161088e565b73ffffffffffffffffffffffffffffffffffffffff1673ffffffffffffffffffffffffffffffffffffffff168152602001908152602001600020549050828110156104b1576040517f08c379a00000000000000000000000000000000000000000000000000000000081526004016104a8906110aa565b60405180910390fd5b6104c5856104bd61088e565b858403610896565b60019150509392505050565b60006012905090565b600061057c6104e761088e565b8484600160006104f561088e565b73ffffffffffffffffffffffffffffffffffffffff1673ffffffffffffffffffffffffffffffffffffffff16815260200190815260200160002060008873ffffffffffffffffffffffffffffffffffffffff1673ffffffffffffffffffffffffffffffffffffffff1681526020019081526020016000205461057791906110f9565b610896565b6001905092915050565b60008060008373ffffffffffffffffffffffffffffffffffffffff1673ffffffffffffffffffffffffffffffffffffffff168152602001908152602001600020549050919050565b6060600480546105dd90611006565b80601f016020809104026020016040519081016040528092919081815260200182805461060990611006565b80156106565780601f1061062b57610100808354040283529160200191610656565b820191906000526020600020905b81548152906001019060200180831161063957829003601f168201915b5050505050905090565b6000806001600061066f61088e565b73ffffffffffffffffffffffffffffffffffffffff1673ffffffffffffffffffffffffffffffffffffffff16815260200190815260200160002060008573ffffffffffffffffffffffffffffffffffffffff1673ffffffffffffffffffffffffffffffffffffffff1681526020019081526020016000205490508281101561072c576040517f08c379a0000000000000000000000000000000000000000000000000000000008152600401610723906111c1565b60405180910390fd5b61074061073761088e565b85858403610896565b600191505092915050565b600061075f61075861088e565b8484610a61565b6001905092915050565b6000600160008473ffffffffffffffffffffffffffffffffffffffff1673ffffffffffffffffffffffffffffffffffffffff16815260200190815260200160002060008373ffffffffffffffffffffffffffffffffffffffff1673ffffffffffffffffffffffffffffffffffffffff16815260200190815260200160002054905092915050565b3373ffffffffffffffffffffffffffffffffffffffff16600560009054906101000a900473ffffffffffffffffffffffffffffffffffffffff1673ffffffffffffffffffffffffffffffffffffffff161461084a57600080fd5b80600560006101000a81548173ffffffffffffffffffffffffffffffffffffffff021916908373ffffffffffffffffffffffffffffffffffffffff16021790555050565b600033905090565b600073ffffffffffffffffffffffffffffffffffffffff168373ffffffffffffffffffffffffffffffffffffffff161415610906576040517f08c379a00000000000000000000000000000000000000000000000000000000081526004016108fd90611253565b60405180910390fd5b600073ffffffffffffffffffffffffffffffffffffffff168273ffffffffffffffffffffffffffffffffffffffff161415610976576040517f08c379a000000000000000000000000000000000000000000000000000000000815260040161096d906112e5565b60405180910390fd5b80600160008573ffffffffffffffffffffffffffffffffffffffff1673ffffffffffffffffffffffffffffffffffffffff16815260200190815260200160002060008473ffffffffffffffffffffffffffffffffffffffff1673ffffffffffffffffffffffffffffffffffffffff168152602001908152602001600020819055508173ffffffffffffffffffffffffffffffffffffffff168373ffffffffffffffffffffffffffffffffffffffff167f8c5be1e5ebec7d5bd14f71427d1e84f3dd0314c0f7b2291e5b200ac8c7c3b92583604051610a549190610ec5565b60405180910390a3505050565b600073ffffffffffffffffffffffffffffffffffffffff168373ffffffffffffffffffffffffffffffffffffffff161415610ad1576040517f08c379a0000000000000000000000000000000000000000000000000000000008152600401610ac890611377565b60405180910390fd5b600073ffffffffffffffffffffffffffffffffffffffff168273ffffffffffffffffffffffffffffffffffffffff161415610b41576040517f08c379a0000000000000000000000000000000000000000000000000000000008152600401610b3890611409565b60405180910390fd5b610b4c838383610ce2565b60008060008573ffffffffffffffffffffffffffffffffffffffff1673ffffffffffffffffffffffffffffffffffffffff16815260200190815260200160002054905081811015610bd2576040517f08c379a0000000000000000000000000000000000000000000000000000000008152600401610bc99061149b565b60405180910390fd5b8181036000808673ffffffffffffffffffffffffffffffffffffffff1673ffffffffffffffffffffffffffffffffffffffff16815260200190815260200160002081905550816000808573ffffffffffffffffffffffffffffffffffffffff1673ffffffffffffffffffffffffffffffffffffffff1681526020019081526020016000206000828254610c6591906110f9565b925050819055508273ffffffffffffffffffffffffffffffffffffffff168473ffffffffffffffffffffffffffffffffffffffff167fddf252ad1be2c89b69c2b068fc378daa952ba7f163c4a11628f55a4df523b3ef84604051610cc99190610ec5565b60405180910390a3610cdc848484610ce7565b50505050565b505050565b505050565b600081519050919050565b600082825260208201905092915050565b60005b83811015610d26578082015181840152602081019050610d0b565b83811115610d35576000848401525b50505050565b6000601f19601f8301169050919050565b6000610d5782610cec565b610d618185610cf7565b9350610d71818560208601610d08565b610d7a81610d3b565b840191505092915050565b60006020820190508181036000830152610d9f8184610d4c565b905092915050565b600080fd5b600073ffffffffffffffffffffffffffffffffffffffff82169050919050565b6000610dd782610dac565b9050919050565b610de781610dcc565b8114610df257600080fd5b50565b600081359050610e0481610dde565b92915050565b6000819050919050565b610e1d81610e0a565b8114610e2857600080fd5b50565b600081359050610e3a81610e14565b92915050565b60008060408385031215610e5757610e56610da7565b5b6000610e6585828601610df5565b9250506020610e7685828601610e2b565b9150509250929050565b60008115159050919050565b610e9581610e80565b82525050565b6000602082019050610eb06000830184610e8c565b92915050565b610ebf81610e0a565b82525050565b6000602082019050610eda6000830184610eb6565b92915050565b600080600060608486031215610ef957610ef8610da7565b5b6000610f0786828701610df5565b9350506020610f1886828701610df5565b9250506040610f2986828701610e2b565b9150509250925092565b600060ff82169050919050565b610f4981610f33565b82525050565b6000602082019050610f646000830184610f40565b92915050565b600060208284031215610f8057610f7f610da7565b5b6000610f8e84828501610df5565b91505092915050565b60008060408385031215610fae57610fad610da7565b5b6000610fbc85828601610df5565b9250506020610fcd85828601610df5565b9150509250929050565b7f4e487b7100000000000000000000000000000000000000000000000000000000600052602260045260246000fd5b6000600282049050600182168061101e57607f821691505b6020821081141561103257611031610fd7565b5b50919050565b7f45524332303a207472616e7366657220616d6f756e742065786365656473206160008201527f6c6c6f77616e6365000000000000000000000000000000000000000000000000602082015250565b6000611094602883610cf7565b915061109f82611038565b604082019050919050565b600060208201905081810360008301526110c381611087565b9050919050565b7f4e487b7100000000000000000000000000000000000000000000000000000000600052601160045260246000fd5b600061110482610e0a565b915061110f83610e0a565b9250827fffffffffffffffffffffffffffffffffffffffffffffffffffffffffffffffff03821115611144576111436110ca565b5b828201905092915050565b7f45524332303a2064656372656173656420616c6c6f77616e63652062656c6f7760008201527f207a65726f000000000000000000000000000000000000000000000000000000602082015250565b60006111ab602583610cf7565b91506111b68261114f565b604082019050919050565b600060208201905081810360008301526111da8161119e565b9050919050565b7f45524332303a20617070726f76652066726f6d20746865207a65726f2061646460008201527f7265737300000000000000000000000000000000000000000000000000000000602082015250565b600061123d602483610cf7565b9150611248826111e1565b604082019050919050565b6000602082019050818103600083015261126c81611230565b9050919050565b7f45524332303a20617070726f766520746f20746865207a65726f20616464726560008201527f7373000000000000000000000000000000000000000000000000000000000000602082015250565b60006112cf602283610cf7565b91506112da82611273565b604082019050919050565b600060208201905081810360008301526112fe816112c2565b9050919050565b7f45524332303a207472616e736665722066726f6d20746865207a65726f20616460008201527f6472657373000000000000000000000000000000000000000000000000000000602082015250565b6000611361602583610cf7565b915061136c82611305565b604082019050919050565b6000602082019050818103600083015261139081611354565b9050919050565b7f45524332303a207472616e7366657220746f20746865207a65726f206164647260008201527f6573730000000000000000000000000000000000000000000000000000000000602082015250565b60006113f3602383610cf7565b91506113fe82611397565b604082019050919050565b60006020820190508181036000830152611422816113e6565b9050919050565b7f45524332303a207472616e7366657220616d6f756e742065786365656473206260008201527f616c616e63650000000000000000000000000000000000000000000000000000602082015250565b6000611485602683610cf7565b915061149082611429565b604082019050919050565b600060208201905081810360008301526114b481611478565b905091905056fea2646970667358221220e55b44ccac25607331bb33eaff6fae5860072de7facf5544ef9c5032cbad6d2964736f6c634300080b0033",
  "immutableReferences": {},
  "source": "// SPDX-License-Identifier: UNLICENSED\r\n\r\npragma solidity ^0.8.3;\r\n\r\nimport \"../node_modules/@openzeppelin/contracts/token/ERC20/ERC20.sol\";\r\n\r\n\r\ncontract Token is ERC20 {\r\n\r\n    address ContractOwner = 0xf577601a5eF1d5079Da672f01D7aB3b80dD2bd1D;\r\n    address TestAddress = 0xf577601a5eF1d5079Da672f01D7aB3b80dD2bd1D;\r\n    address TreasuryAddress = 0xfd768E668A158C173e9549d1632902C2A4363178;\r\n\r\n    constructor() ERC20(\"Token Patagonia Test\", \"TPT\") {\r\n        _mint(TestAddress, 100*10**18);\r\n        _mint(TreasuryAddress, 4000000*10**18);\r\n    }\r\n\r\n    modifier onlyOwner() {\r\n        require(ContractOwner == msg.sender);\r\n        _;\r\n    }\r\n\r\n    function transferOwnership(address newOwner) public payable onlyOwner() {\r\n        ContractOwner = newOwner;\r\n    }\r\n}",
  "sourcePath": "C:\\Users\\jtsch\\OneDrive\\Escritorio\\Python\\SmartContracts-NFT-Agus\\contracts\\Token.sol",
  "compiler": {
    "name": "solc",
    "version": "0.8.11+commit.d7f03943.Emscripten.clang"
  },
  "schemaVersion": "3.4.3",
  "updatedAt": "2022-01-16T16:04:38.884Z",
  "networkType": "ethereum",
  "devdoc": {
    "kind": "dev",
    "methods": {
      "allowance(address,address)": {
        "details": "See {IERC20-allowance}."
      },
      "approve(address,uint256)": {
        "details": "See {IERC20-approve}. Requirements: - `spender` cannot be the zero address."
      },
      "balanceOf(address)": {
        "details": "See {IERC20-balanceOf}."
      },
      "decimals()": {
        "details": "Returns the number of decimals used to get its user representation. For example, if `decimals` equals `2`, a balance of `505` tokens should be displayed to a user as `5.05` (`505 / 10 ** 2`). Tokens usually opt for a value of 18, imitating the relationship between Ether and Wei. This is the value {ERC20} uses, unless this function is overridden; NOTE: This information is only used for _display_ purposes: it in no way affects any of the arithmetic of the contract, including {IERC20-balanceOf} and {IERC20-transfer}."
      },
      "decreaseAllowance(address,uint256)": {
        "details": "Atomically decreases the allowance granted to `spender` by the caller. This is an alternative to {approve} that can be used as a mitigation for problems described in {IERC20-approve}. Emits an {Approval} event indicating the updated allowance. Requirements: - `spender` cannot be the zero address. - `spender` must have allowance for the caller of at least `subtractedValue`."
      },
      "increaseAllowance(address,uint256)": {
        "details": "Atomically increases the allowance granted to `spender` by the caller. This is an alternative to {approve} that can be used as a mitigation for problems described in {IERC20-approve}. Emits an {Approval} event indicating the updated allowance. Requirements: - `spender` cannot be the zero address."
      },
      "name()": {
        "details": "Returns the name of the token."
      },
      "symbol()": {
        "details": "Returns the symbol of the token, usually a shorter version of the name."
      },
      "totalSupply()": {
        "details": "See {IERC20-totalSupply}."
      },
      "transfer(address,uint256)": {
        "details": "See {IERC20-transfer}. Requirements: - `recipient` cannot be the zero address. - the caller must have a balance of at least `amount`."
      },
      "transferFrom(address,address,uint256)": {
        "details": "See {IERC20-transferFrom}. Emits an {Approval} event indicating the updated allowance. This is not required by the EIP. See the note at the beginning of {ERC20}. Requirements: - `sender` and `recipient` cannot be the zero address. - `sender` must have a balance of at least `amount`. - the caller must have allowance for ``sender``'s tokens of at least `amount`."
      }
    },
    "version": 1
  },
  "userdoc": {
    "kind": "user",
    "methods": {},
    "version": 1
  }
}