{
  "contractName": "TreeQuests",
  "abi": [
    {
      "anonymous": false,
      "inputs": [
        {
          "indexed": false,
          "internalType": "uint256",
          "name": "treeId",
          "type": "uint256"
        }
      ],
      "name": "CancelQuest",
      "type": "event"
    },
    {
      "anonymous": false,
      "inputs": [
        {
          "indexed": false,
          "internalType": "uint256",
          "name": "treeId",
          "type": "uint256"
        },
        {
          "indexed": false,
          "internalType": "uint256",
          "name": "questId",
          "type": "uint256"
        }
      ],
      "name": "CompleteQuest",
      "type": "event"
    },
    {
      "anonymous": false,
      "inputs": [
        {
          "indexed": true,
          "internalType": "bytes32",
          "name": "role",
          "type": "bytes32"
        },
        {
          "indexed": true,
          "internalType": "bytes32",
          "name": "previousAdminRole",
          "type": "bytes32"
        },
        {
          "indexed": true,
          "internalType": "bytes32",
          "name": "newAdminRole",
          "type": "bytes32"
        }
      ],
      "name": "RoleAdminChanged",
      "type": "event"
    },
    {
      "anonymous": false,
      "inputs": [
        {
          "indexed": true,
          "internalType": "bytes32",
          "name": "role",
          "type": "bytes32"
        },
        {
          "indexed": true,
          "internalType": "address",
          "name": "account",
          "type": "address"
        },
        {
          "indexed": true,
          "internalType": "address",
          "name": "sender",
          "type": "address"
        }
      ],
      "name": "RoleGranted",
      "type": "event"
    },
    {
      "anonymous": false,
      "inputs": [
        {
          "indexed": true,
          "internalType": "bytes32",
          "name": "role",
          "type": "bytes32"
        },
        {
          "indexed": true,
          "internalType": "address",
          "name": "account",
          "type": "address"
        },
        {
          "indexed": true,
          "internalType": "address",
          "name": "sender",
          "type": "address"
        }
      ],
      "name": "RoleRevoked",
      "type": "event"
    },
    {
      "anonymous": false,
      "inputs": [
        {
          "indexed": false,
          "internalType": "uint256",
          "name": "treeId",
          "type": "uint256"
        },
        {
          "indexed": false,
          "internalType": "uint256",
          "name": "questId",
          "type": "uint256"
        }
      ],
      "name": "StartQuest",
      "type": "event"
    },
    {
      "inputs": [],
      "name": "DEFAULT_ADMIN_ROLE",
      "outputs": [
        {
          "internalType": "bytes32",
          "name": "",
          "type": "bytes32"
        }
      ],
      "stateMutability": "view",
      "type": "function",
      "constant": true
    },
    {
      "inputs": [
        {
          "internalType": "bytes32",
          "name": "role",
          "type": "bytes32"
        }
      ],
      "name": "getRoleAdmin",
      "outputs": [
        {
          "internalType": "bytes32",
          "name": "",
          "type": "bytes32"
        }
      ],
      "stateMutability": "view",
      "type": "function",
      "constant": true
    },
    {
      "inputs": [
        {
          "internalType": "bytes32",
          "name": "role",
          "type": "bytes32"
        },
        {
          "internalType": "address",
          "name": "account",
          "type": "address"
        }
      ],
      "name": "grantRole",
      "outputs": [],
      "stateMutability": "nonpayable",
      "type": "function"
    },
    {
      "inputs": [
        {
          "internalType": "bytes32",
          "name": "role",
          "type": "bytes32"
        },
        {
          "internalType": "address",
          "name": "account",
          "type": "address"
        }
      ],
      "name": "hasRole",
      "outputs": [
        {
          "internalType": "bool",
          "name": "",
          "type": "bool"
        }
      ],
      "stateMutability": "view",
      "type": "function",
      "constant": true
    },
    {
      "inputs": [
        {
          "internalType": "bytes32",
          "name": "role",
          "type": "bytes32"
        },
        {
          "internalType": "address",
          "name": "account",
          "type": "address"
        }
      ],
      "name": "renounceRole",
      "outputs": [],
      "stateMutability": "nonpayable",
      "type": "function"
    },
    {
      "inputs": [
        {
          "internalType": "bytes32",
          "name": "role",
          "type": "bytes32"
        },
        {
          "internalType": "address",
          "name": "account",
          "type": "address"
        }
      ],
      "name": "revokeRole",
      "outputs": [],
      "stateMutability": "nonpayable",
      "type": "function"
    },
    {
      "inputs": [
        {
          "internalType": "bytes4",
          "name": "interfaceId",
          "type": "bytes4"
        }
      ],
      "name": "supportsInterface",
      "outputs": [
        {
          "internalType": "bool",
          "name": "",
          "type": "bool"
        }
      ],
      "stateMutability": "view",
      "type": "function",
      "constant": true
    },
    {
      "inputs": [],
      "name": "initialize",
      "outputs": [],
      "stateMutability": "nonpayable",
      "type": "function"
    },
    {
      "inputs": [],
      "name": "vrf",
      "outputs": [
        {
          "internalType": "bytes32",
          "name": "result",
          "type": "bytes32"
        }
      ],
      "stateMutability": "view",
      "type": "function",
      "constant": true
    },
    {
      "inputs": [
        {
          "internalType": "uint256",
          "name": "treeId",
          "type": "uint256"
        },
        {
          "internalType": "uint256",
          "name": "questId",
          "type": "uint256"
        }
      ],
      "name": "questLength",
      "outputs": [
        {
          "internalType": "uint256",
          "name": "",
          "type": "uint256"
        }
      ],
      "stateMutability": "view",
      "type": "function",
      "constant": true
    },
    {
      "inputs": [
        {
          "internalType": "uint256",
          "name": "treeId",
          "type": "uint256"
        },
        {
          "internalType": "uint256",
          "name": "questId",
          "type": "uint256"
        }
      ],
      "name": "startQuest",
      "outputs": [],
      "stateMutability": "nonpayable",
      "type": "function"
    },
    {
      "inputs": [
        {
          "internalType": "uint256",
          "name": "treeId",
          "type": "uint256"
        },
        {
          "internalType": "uint256",
          "name": "questId",
          "type": "uint256"
        }
      ],
      "name": "completeQuest",
      "outputs": [],
      "stateMutability": "nonpayable",
      "type": "function"
    },
    {
      "inputs": [
        {
          "internalType": "uint256",
          "name": "treeId",
          "type": "uint256"
        }
      ],
      "name": "cancelQuest",
      "outputs": [],
      "stateMutability": "nonpayable",
      "type": "function"
    },
    {
      "inputs": [
        {
          "internalType": "address",
          "name": "newTreasury",
          "type": "address"
        }
      ],
      "name": "transferTreasuryAddress",
      "outputs": [],
      "stateMutability": "nonpayable",
      "type": "function"
    },
    {
      "inputs": [
        {
          "internalType": "address",
          "name": "newToken",
          "type": "address"
        }
      ],
      "name": "transferTokenAddress",
      "outputs": [],
      "stateMutability": "nonpayable",
      "type": "function"
    },
    {
      "inputs": [
        {
          "internalType": "address",
          "name": "newGameItems",
          "type": "address"
        }
      ],
      "name": "transferGameItemsAddress",
      "outputs": [],
      "stateMutability": "nonpayable",
      "type": "function"
    },
    {
      "inputs": [
        {
          "internalType": "address",
          "name": "newTree",
          "type": "address"
        }
      ],
      "name": "transferTreeAddress",
      "outputs": [],
      "stateMutability": "nonpayable",
      "type": "function"
    }
  ],
  "bytecode": "0x608060405234801561001057600080fd5b506134f5806100206000396000f3fe608060405234801561001057600080fd5b506004361061010b5760003560e01c80634a6ed813116100a2578063a217fddf11610071578063a217fddf1461028c578063c3c33b40146102aa578063d547741f146102c6578063efa7fe44146102e2578063fe90ff7d146103125761010b565b80634a6ed8131461021a5780634ed4d42a146102365780638129fc1c1461025257806391d148541461025c5761010b565b806322cc2243116100de57806322cc224314610196578063248a9ca3146101b25780632f2ff15d146101e257806336568abe146101fe5761010b565b806301ffc9a714610110578063098d7500146101405780630c9490431461015c57806316f6bca91461017a575b600080fd5b61012a60048036038101906101259190612864565b61032e565b60405161013791906128ac565b60405180910390f35b61015a60048036038101906101559190612925565b6103a8565b005b610164610402565b604051610171919061296b565b60405180910390f35b610194600480360381019061018f9190612925565b610448565b005b6101b060048036038101906101ab91906129bc565b610505565b005b6101cc60048036038101906101c79190612a28565b610772565b6040516101d9919061296b565b60405180910390f35b6101fc60048036038101906101f79190612a55565b610792565b005b61021860048036038101906102139190612a55565b6107bb565b005b610234600480360381019061022f9190612925565b61083e565b005b610250600480360381019061024b9190612925565b6108fb565b005b61025a6109b8565b005b61027660048036038101906102719190612a55565b610b10565b60405161028391906128ac565b60405180910390f35b610294610b7b565b6040516102a1919061296b565b60405180910390f35b6102c460048036038101906102bf91906129bc565b610b82565b005b6102e060048036038101906102db9190612a55565b610dee565b005b6102fc60048036038101906102f791906129bc565b610e17565b6040516103099190612aa4565b60405180910390f35b61032c60048036038101906103279190612abf565b61106e565b005b60007f7965db0b000000000000000000000000000000000000000000000000000000007bffffffffffffffffffffffffffffffffffffffffffffffffffffffff1916827bffffffffffffffffffffffffffffffffffffffffffffffffffffffff191614806103a157506103a0826112b8565b5b9050919050565b6000801b6103bd816103b8611322565b61132a565b81609760006101000a81548173ffffffffffffffffffffffffffffffffffffffff021916908373ffffffffffffffffffffffffffffffffffffffff1602179055505050565b600061040c6127e5565b438160006001811061042157610420612aec565b5b60200201818152505060405160208160208460ff600019fa61043f57fe5b80519250505090565b6000801b61045d81610458611322565b61132a565b81609a60006101000a81548173ffffffffffffffffffffffffffffffffffffffff021916908373ffffffffffffffffffffffffffffffffffffffff160217905550609a60009054906101000a900473ffffffffffffffffffffffffffffffffffffffff16609d60006101000a81548173ffffffffffffffffffffffffffffffffffffffff021916908373ffffffffffffffffffffffffffffffffffffffff1602179055505050565b813373ffffffffffffffffffffffffffffffffffffffff16609c60009054906101000a900473ffffffffffffffffffffffffffffffffffffffff1673ffffffffffffffffffffffffffffffffffffffff16636352211e836040518263ffffffff1660e01b81526004016105789190612aa4565b602060405180830381865afa158015610595573d6000803e3d6000fd5b505050506040513d601f19601f820116820180604052508101906105b99190612b30565b73ffffffffffffffffffffffffffffffffffffffff16146105d957600080fd5b6000609c60009054906101000a900473ffffffffffffffffffffffffffffffffffffffff1673ffffffffffffffffffffffffffffffffffffffff1663a5caf0f6856040518263ffffffff1660e01b81526004016106369190612aa4565b602060405180830381865afa158015610653573d6000803e3d6000fd5b505050506040513d601f19601f820116820180604052508101906106779190612b72565b141561068257600080fd5b609c60009054906101000a900473ffffffffffffffffffffffffffffffffffffffff1673ffffffffffffffffffffffffffffffffffffffff1663a5caf0f6846040518263ffffffff1660e01b81526004016106dd9190612aa4565b602060405180830381865afa1580156106fa573d6000803e3d6000fd5b505050506040513d601f19601f8201168201806040525081019061071e9190612b72565b42101561072a57600080fd5b60018214156107415761073c836113c7565b61076d565b600282141561075857610753836117f1565b61076c565b600382141561076b5761076a83611cad565b5b5b5b505050565b600060656000838152602001908152602001600020600101549050919050565b61079b82610772565b6107ac816107a7611322565b61132a565b6107b683836120f6565b505050565b6107c3611322565b73ffffffffffffffffffffffffffffffffffffffff168173ffffffffffffffffffffffffffffffffffffffff1614610830576040517f08c379a000000000000000000000000000000000000000000000000000000000815260040161082790612c22565b60405180910390fd5b61083a82826121d7565b5050565b6000801b6108538161084e611322565b61132a565b81609860006101000a81548173ffffffffffffffffffffffffffffffffffffffff021916908373ffffffffffffffffffffffffffffffffffffffff160217905550609860009054906101000a900473ffffffffffffffffffffffffffffffffffffffff16609c60006101000a81548173ffffffffffffffffffffffffffffffffffffffff021916908373ffffffffffffffffffffffffffffffffffffffff1602179055505050565b6000801b6109108161090b611322565b61132a565b81609960006101000a81548173ffffffffffffffffffffffffffffffffffffffff021916908373ffffffffffffffffffffffffffffffffffffffff160217905550609960009054906101000a900473ffffffffffffffffffffffffffffffffffffffff16609e60006101000a81548173ffffffffffffffffffffffffffffffffffffffff021916908373ffffffffffffffffffffffffffffffffffffffff1602179055505050565b600060019054906101000a900460ff166109e05760008054906101000a900460ff16156109e9565b6109e86122b9565b5b610a28576040517f08c379a0000000000000000000000000000000000000000000000000000000008152600401610a1f90612cb4565b60405180910390fd5b60008060019054906101000a900460ff161590508015610a78576001600060016101000a81548160ff02191690831515021790555060016000806101000a81548160ff0219169083151502179055505b73fd768e668a158c173e9549d1632902c2a4363178609760006101000a81548173ffffffffffffffffffffffffffffffffffffffff021916908373ffffffffffffffffffffffffffffffffffffffff1602179055506af8277896582678ac000000609b81905550610aec6000801b336122ca565b8015610b0d5760008060016101000a81548160ff0219169083151502179055505b50565b60006065600084815260200190815260200160002060000160008373ffffffffffffffffffffffffffffffffffffffff1673ffffffffffffffffffffffffffffffffffffffff16815260200190815260200160002060009054906101000a900460ff16905092915050565b6000801b81565b813373ffffffffffffffffffffffffffffffffffffffff16609c60009054906101000a900473ffffffffffffffffffffffffffffffffffffffff1673ffffffffffffffffffffffffffffffffffffffff16636352211e836040518263ffffffff1660e01b8152600401610bf59190612aa4565b602060405180830381865afa158015610c12573d6000803e3d6000fd5b505050506040513d601f19601f82011682018060405250810190610c369190612b30565b73ffffffffffffffffffffffffffffffffffffffff1614610c5657600080fd5b6000609c60009054906101000a900473ffffffffffffffffffffffffffffffffffffffff1673ffffffffffffffffffffffffffffffffffffffff1663a5caf0f6856040518263ffffffff1660e01b8152600401610cb39190612aa4565b602060405180830381865afa158015610cd0573d6000803e3d6000fd5b505050506040513d601f19601f82011682018060405250810190610cf49190612b72565b14610cfe57600080fd5b6000609c60009054906101000a900473ffffffffffffffffffffffffffffffffffffffff1673ffffffffffffffffffffffffffffffffffffffff1663b906866a856040518263ffffffff1660e01b8152600401610d5b9190612aa4565b602060405180830381865afa158015610d78573d6000803e3d6000fd5b505050506040513d601f19601f82011682018060405250810190610d9c9190612b72565b14610da657600080fd5b6001821415610dbd57610db8836122d8565b610de9565b6002821415610dd457610dcf836123c2565b610de8565b6003821415610de757610de6836124ac565b5b5b5b505050565b610df782610772565b610e0881610e03611322565b61132a565b610e1283836121d7565b505050565b6000806001831415610ede576001609c60009054906101000a900473ffffffffffffffffffffffffffffffffffffffff1673ffffffffffffffffffffffffffffffffffffffff1663364051a6866040518263ffffffff1660e01b8152600401610e809190612aa4565b602060405180830381865afa158015610e9d573d6000803e3d6000fd5b505050506040513d601f19601f82011682018060405250810190610ec19190612b72565b610ecb9190612d03565b603c610ed79190612d5d565b9050611064565b6002831415610fa2576001609c60009054906101000a900473ffffffffffffffffffffffffffffffffffffffff1673ffffffffffffffffffffffffffffffffffffffff1663364051a6866040518263ffffffff1660e01b8152600401610f449190612aa4565b602060405180830381865afa158015610f61573d6000803e3d6000fd5b505050506040513d601f19601f82011682018060405250810190610f859190612b72565b610f8f9190612d03565b603c610f9b9190612d5d565b9050611063565b6003831415611062576001609c60009054906101000a900473ffffffffffffffffffffffffffffffffffffffff1673ffffffffffffffffffffffffffffffffffffffff1663364051a6866040518263ffffffff1660e01b81526004016110089190612aa4565b602060405180830381865afa158015611025573d6000803e3d6000fd5b505050506040513d601f19601f820116820180604052508101906110499190612b72565b6110539190612d03565b603c61105f9190612d5d565b90505b5b5b8091505092915050565b803373ffffffffffffffffffffffffffffffffffffffff16609c60009054906101000a900473ffffffffffffffffffffffffffffffffffffffff1673ffffffffffffffffffffffffffffffffffffffff16636352211e836040518263ffffffff1660e01b81526004016110e19190612aa4565b602060405180830381865afa1580156110fe573d6000803e3d6000fd5b505050506040513d601f19601f820116820180604052508101906111229190612b30565b73ffffffffffffffffffffffffffffffffffffffff161461114257600080fd5b6000609c60009054906101000a900473ffffffffffffffffffffffffffffffffffffffff1673ffffffffffffffffffffffffffffffffffffffff1663a5caf0f6846040518263ffffffff1660e01b815260040161119f9190612aa4565b602060405180830381865afa1580156111bc573d6000803e3d6000fd5b505050506040513d601f19601f820116820180604052508101906111e09190612b72565b14156111eb57600080fd5b609c60009054906101000a900473ffffffffffffffffffffffffffffffffffffffff1673ffffffffffffffffffffffffffffffffffffffff16632b60b986836000806040518463ffffffff1660e01b815260040161124b93929190612dd6565b600060405180830381600087803b15801561126557600080fd5b505af1158015611279573d6000803e3d6000fd5b505050507fb88508b2f80153b1c0470af222d07d2b35a566ffa75f980c3d63de01a3b3f076826040516112ac9190612aa4565b60405180910390a15050565b60007f01ffc9a7000000000000000000000000000000000000000000000000000000007bffffffffffffffffffffffffffffffffffffffffffffffffffffffff1916827bffffffffffffffffffffffffffffffffffffffffffffffffffffffff1916149050919050565b600033905090565b6113348282610b10565b6113c3576113598173ffffffffffffffffffffffffffffffffffffffff166014612596565b6113678360001c6020612596565b604051602001611378929190612f1f565b6040516020818303038152906040526040517f08c379a00000000000000000000000000000000000000000000000000000000081526004016113ba9190612fa3565b60405180910390fd5b5050565b6001609c60009054906101000a900473ffffffffffffffffffffffffffffffffffffffff1673ffffffffffffffffffffffffffffffffffffffff1663b906866a836040518263ffffffff1660e01b81526004016114249190612aa4565b602060405180830381865afa158015611441573d6000803e3d6000fd5b505050506040513d601f19601f820116820180604052508101906114659190612b72565b1461146f57600080fd5b60006064905060006064600a609c60009054906101000a900473ffffffffffffffffffffffffffffffffffffffff1673ffffffffffffffffffffffffffffffffffffffff16637b5aa51d866040518263ffffffff1660e01b81526004016114d69190612aa4565b602060405180830381865afa1580156114f3573d6000803e3d6000fd5b505050506040513d601f19601f820116820180604052508101906115179190612b72565b670de0b6b3a764000061152a9190612d03565b6115349190612d03565b61153e9190612ff4565b670de0b6b3a76400006115519190613025565b9050609c60009054906101000a900473ffffffffffffffffffffffffffffffffffffffff1673ffffffffffffffffffffffffffffffffffffffff16632b60b986846000806040518463ffffffff1660e01b81526004016115b393929190612dd6565b600060405180830381600087803b1580156115cd57600080fd5b505af11580156115e1573d6000803e3d6000fd5b50505050609c60009054906101000a900473ffffffffffffffffffffffffffffffffffffffff1673ffffffffffffffffffffffffffffffffffffffff16636cad693284846040518363ffffffff1660e01b815260040161164292919061307b565b600060405180830381600087803b15801561165c57600080fd5b505af1158015611670573d6000803e3d6000fd5b5050505080609e60009054906101000a900473ffffffffffffffffffffffffffffffffffffffff1673ffffffffffffffffffffffffffffffffffffffff166318160ddd6040518163ffffffff1660e01b8152600401602060405180830381865afa1580156116e2573d6000803e3d6000fd5b505050506040513d601f19601f820116820180604052508101906117069190612b72565b6117109190613025565b6b033b2e3c9fd0803ce8000000106117b257609e60009054906101000a900473ffffffffffffffffffffffffffffffffffffffff1673ffffffffffffffffffffffffffffffffffffffff166340c10f1933836040518363ffffffff1660e01b815260040161177f9291906130b3565b600060405180830381600087803b15801561179957600080fd5b505af11580156117ad573d6000803e3d6000fd5b505050505b7f30ee9e16196ba30cdcc7b150805a842d6ee2b4e5f912753ec25aae5a8016c0128360016040516117e4929190613117565b60405180910390a1505050565b6002609c60009054906101000a900473ffffffffffffffffffffffffffffffffffffffff1673ffffffffffffffffffffffffffffffffffffffff1663b906866a836040518263ffffffff1660e01b815260040161184e9190612aa4565b602060405180830381865afa15801561186b573d6000803e3d6000fd5b505050506040513d601f19601f8201168201806040525081019061188f9190612b72565b1461189957600080fd5b600060649050609c60009054906101000a900473ffffffffffffffffffffffffffffffffffffffff1673ffffffffffffffffffffffffffffffffffffffff16632b60b986836000806040518463ffffffff1660e01b81526004016118ff93929190612dd6565b600060405180830381600087803b15801561191957600080fd5b505af115801561192d573d6000803e3d6000fd5b50505050609c60009054906101000a900473ffffffffffffffffffffffffffffffffffffffff1673ffffffffffffffffffffffffffffffffffffffff16636cad693283836040518363ffffffff1660e01b815260040161198e92919061307b565b600060405180830381600087803b1580156119a857600080fd5b505af11580156119bc573d6000803e3d6000fd5b5050505060006119ca610402565b6040516020016119da9190613161565b6040516020818303038152906040528051906020012060001c90506000606482611a04919061317c565b90506032811015611aa357609d60009054906101000a900473ffffffffffffffffffffffffffffffffffffffff1673ffffffffffffffffffffffffffffffffffffffff1663156e29f633600060056040518463ffffffff1660e01b8152600401611a70939291906131e8565b600060405180830381600087803b158015611a8a57600080fd5b505af1158015611a9e573d6000803e3d6000fd5b505050505b6000611aad610402565b604051602001611abd9190613161565b6040516020818303038152906040528051906020012060001c90506000606482611ae7919061317c565b90506019811015611b8657609d60009054906101000a900473ffffffffffffffffffffffffffffffffffffffff1673ffffffffffffffffffffffffffffffffffffffff1663156e29f633600160056040518463ffffffff1660e01b8152600401611b539392919061321f565b600060405180830381600087803b158015611b6d57600080fd5b505af1158015611b81573d6000803e3d6000fd5b505050505b6000611b90610402565b604051602001611ba09190613161565b6040516020818303038152906040528051906020012060001c90506000606482611bca919061317c565b9050600a811015611c6957609d60009054906101000a900473ffffffffffffffffffffffffffffffffffffffff1673ffffffffffffffffffffffffffffffffffffffff1663156e29f633600260056040518463ffffffff1660e01b8152600401611c3693929190613291565b600060405180830381600087803b158015611c5057600080fd5b505af1158015611c64573d6000803e3d6000fd5b505050505b7f30ee9e16196ba30cdcc7b150805a842d6ee2b4e5f912753ec25aae5a8016c012886002604051611c9b9291906132c8565b60405180910390a15050505050505050565b6003609c60009054906101000a900473ffffffffffffffffffffffffffffffffffffffff1673ffffffffffffffffffffffffffffffffffffffff1663b906866a836040518263ffffffff1660e01b8152600401611d0a9190612aa4565b602060405180830381865afa158015611d27573d6000803e3d6000fd5b505050506040513d601f19601f82011682018060405250810190611d4b9190612b72565b14611d5557600080fd5b6000620186a0905060006064905060006064600a609c60009054906101000a900473ffffffffffffffffffffffffffffffffffffffff1673ffffffffffffffffffffffffffffffffffffffff16637b5aa51d876040518263ffffffff1660e01b8152600401611dc49190612aa4565b602060405180830381865afa158015611de1573d6000803e3d6000fd5b505050506040513d601f19601f82011682018060405250810190611e059190612b72565b670de0b6b3a764000085611e199190612d03565b611e239190612d03565b611e2d9190612d03565b611e379190612ff4565b670de0b6b3a764000083611e4b9190612d03565b611e559190613025565b9050609c60009054906101000a900473ffffffffffffffffffffffffffffffffffffffff1673ffffffffffffffffffffffffffffffffffffffff16632b60b986856000806040518463ffffffff1660e01b8152600401611eb793929190612dd6565b600060405180830381600087803b158015611ed157600080fd5b505af1158015611ee5573d6000803e3d6000fd5b50505050609c60009054906101000a900473ffffffffffffffffffffffffffffffffffffffff1673ffffffffffffffffffffffffffffffffffffffff16636cad693285856040518363ffffffff1660e01b8152600401611f4692919061307b565b600060405180830381600087803b158015611f6057600080fd5b505af1158015611f74573d6000803e3d6000fd5b5050505080609e60009054906101000a900473ffffffffffffffffffffffffffffffffffffffff1673ffffffffffffffffffffffffffffffffffffffff166318160ddd6040518163ffffffff1660e01b8152600401602060405180830381865afa158015611fe6573d6000803e3d6000fd5b505050506040513d601f19601f8201168201806040525081019061200a9190612b72565b6120149190613025565b6b033b2e3c9fd0803ce8000000106120b657609e60009054906101000a900473ffffffffffffffffffffffffffffffffffffffff1673ffffffffffffffffffffffffffffffffffffffff166340c10f1933836040518363ffffffff1660e01b81526004016120839291906130b3565b600060405180830381600087803b15801561209d57600080fd5b505af11580156120b1573d6000803e3d6000fd5b505050505b7f30ee9e16196ba30cdcc7b150805a842d6ee2b4e5f912753ec25aae5a8016c0128460036040516120e892919061332c565b60405180910390a150505050565b6121008282610b10565b6121d35760016065600084815260200190815260200160002060000160008373ffffffffffffffffffffffffffffffffffffffff1673ffffffffffffffffffffffffffffffffffffffff16815260200190815260200160002060006101000a81548160ff021916908315150217905550612178611322565b73ffffffffffffffffffffffffffffffffffffffff168173ffffffffffffffffffffffffffffffffffffffff16837f2f8788117e7eff1d82e926ec794901d17c78024a50270940304540a733656f0d60405160405180910390a45b5050565b6121e18282610b10565b156122b55760006065600084815260200190815260200160002060000160008373ffffffffffffffffffffffffffffffffffffffff1673ffffffffffffffffffffffffffffffffffffffff16815260200190815260200160002060006101000a81548160ff02191690831515021790555061225a611322565b73ffffffffffffffffffffffffffffffffffffffff168173ffffffffffffffffffffffffffffffffffffffff16837ff6391f5c32d9c69d2a47ea670b442974b53935d1edc7fd64eb21e047a839171b60405160405180910390a45b5050565b60006122c4306127d2565b15905090565b6122d482826120f6565b5050565b60006122e5826001610e17565b9050609c60009054906101000a900473ffffffffffffffffffffffffffffffffffffffff1673ffffffffffffffffffffffffffffffffffffffff16632b60b98683600184426123349190613025565b6040518463ffffffff1660e01b815260040161235293929190613355565b600060405180830381600087803b15801561236c57600080fd5b505af1158015612380573d6000803e3d6000fd5b505050507ff4489fbfe0edc46e6905e1f77d624c12bcd689709fdd138371d8a7edf52f5e5d8260016040516123b6929190613117565b60405180910390a15050565b60006123cf826002610e17565b9050609c60009054906101000a900473ffffffffffffffffffffffffffffffffffffffff1673ffffffffffffffffffffffffffffffffffffffff16632b60b986836002844261241e9190613025565b6040518463ffffffff1660e01b815260040161243c9392919061338c565b600060405180830381600087803b15801561245657600080fd5b505af115801561246a573d6000803e3d6000fd5b505050507ff4489fbfe0edc46e6905e1f77d624c12bcd689709fdd138371d8a7edf52f5e5d8260026040516124a09291906132c8565b60405180910390a15050565b60006124b9826003610e17565b9050609c60009054906101000a900473ffffffffffffffffffffffffffffffffffffffff1673ffffffffffffffffffffffffffffffffffffffff16632b60b98683600384426125089190613025565b6040518463ffffffff1660e01b8152600401612526939291906133c3565b600060405180830381600087803b15801561254057600080fd5b505af1158015612554573d6000803e3d6000fd5b505050507ff4489fbfe0edc46e6905e1f77d624c12bcd689709fdd138371d8a7edf52f5e5d82600360405161258a92919061332c565b60405180910390a15050565b6060600060028360026125a99190612d03565b6125b39190613025565b67ffffffffffffffff8111156125cc576125cb6133fa565b5b6040519080825280601f01601f1916602001820160405280156125fe5781602001600182028036833780820191505090505b5090507f30000000000000000000000000000000000000000000000000000000000000008160008151811061263657612635612aec565b5b60200101907effffffffffffffffffffffffffffffffffffffffffffffffffffffffffffff1916908160001a9053507f78000000000000000000000000000000000000000000000000000000000000008160018151811061269a57612699612aec565b5b60200101907effffffffffffffffffffffffffffffffffffffffffffffffffffffffffffff1916908160001a905350600060018460026126da9190612d03565b6126e49190613025565b90505b6001811115612784577f3031323334353637383961626364656600000000000000000000000000000000600f86166010811061272657612725612aec565b5b1a60f81b82828151811061273d5761273c612aec565b5b60200101907effffffffffffffffffffffffffffffffffffffffffffffffffffffffffffff1916908160001a905350600485901c94508061277d90613429565b90506126e7565b50600084146127c8576040517f08c379a00000000000000000000000000000000000000000000000000000000081526004016127bf9061349f565b60405180910390fd5b8091505092915050565b600080823b905060008111915050919050565b6040518060200160405280600190602082028036833780820191505090505090565b600080fd5b60007fffffffff0000000000000000000000000000000000000000000000000000000082169050919050565b6128418161280c565b811461284c57600080fd5b50565b60008135905061285e81612838565b92915050565b60006020828403121561287a57612879612807565b5b60006128888482850161284f565b91505092915050565b60008115159050919050565b6128a681612891565b82525050565b60006020820190506128c1600083018461289d565b92915050565b600073ffffffffffffffffffffffffffffffffffffffff82169050919050565b60006128f2826128c7565b9050919050565b612902816128e7565b811461290d57600080fd5b50565b60008135905061291f816128f9565b92915050565b60006020828403121561293b5761293a612807565b5b600061294984828501612910565b91505092915050565b6000819050919050565b61296581612952565b82525050565b6000602082019050612980600083018461295c565b92915050565b6000819050919050565b61299981612986565b81146129a457600080fd5b50565b6000813590506129b681612990565b92915050565b600080604083850312156129d3576129d2612807565b5b60006129e1858286016129a7565b92505060206129f2858286016129a7565b9150509250929050565b612a0581612952565b8114612a1057600080fd5b50565b600081359050612a22816129fc565b92915050565b600060208284031215612a3e57612a3d612807565b5b6000612a4c84828501612a13565b91505092915050565b60008060408385031215612a6c57612a6b612807565b5b6000612a7a85828601612a13565b9250506020612a8b85828601612910565b9150509250929050565b612a9e81612986565b82525050565b6000602082019050612ab96000830184612a95565b92915050565b600060208284031215612ad557612ad4612807565b5b6000612ae3848285016129a7565b91505092915050565b7f4e487b7100000000000000000000000000000000000000000000000000000000600052603260045260246000fd5b600081519050612b2a816128f9565b92915050565b600060208284031215612b4657612b45612807565b5b6000612b5484828501612b1b565b91505092915050565b600081519050612b6c81612990565b92915050565b600060208284031215612b8857612b87612807565b5b6000612b9684828501612b5d565b91505092915050565b600082825260208201905092915050565b7f416363657373436f6e74726f6c3a2063616e206f6e6c792072656e6f756e636560008201527f20726f6c657320666f722073656c660000000000000000000000000000000000602082015250565b6000612c0c602f83612b9f565b9150612c1782612bb0565b604082019050919050565b60006020820190508181036000830152612c3b81612bff565b9050919050565b7f496e697469616c697a61626c653a20636f6e747261637420697320616c72656160008201527f647920696e697469616c697a6564000000000000000000000000000000000000602082015250565b6000612c9e602e83612b9f565b9150612ca982612c42565b604082019050919050565b60006020820190508181036000830152612ccd81612c91565b9050919050565b7f4e487b7100000000000000000000000000000000000000000000000000000000600052601160045260246000fd5b6000612d0e82612986565b9150612d1983612986565b9250817fffffffffffffffffffffffffffffffffffffffffffffffffffffffffffffffff0483118215151615612d5257612d51612cd4565b5b828202905092915050565b6000612d6882612986565b9150612d7383612986565b925082821015612d8657612d85612cd4565b5b828203905092915050565b6000819050919050565b6000819050919050565b6000612dc0612dbb612db684612d91565b612d9b565b612986565b9050919050565b612dd081612da5565b82525050565b6000606082019050612deb6000830186612a95565b612df86020830185612dc7565b612e056040830184612dc7565b949350505050565b600081905092915050565b7f416363657373436f6e74726f6c3a206163636f756e7420000000000000000000600082015250565b6000612e4e601783612e0d565b9150612e5982612e18565b601782019050919050565b600081519050919050565b60005b83811015612e8d578082015181840152602081019050612e72565b83811115612e9c576000848401525b50505050565b6000612ead82612e64565b612eb78185612e0d565b9350612ec7818560208601612e6f565b80840191505092915050565b7f206973206d697373696e6720726f6c6520000000000000000000000000000000600082015250565b6000612f09601183612e0d565b9150612f1482612ed3565b601182019050919050565b6000612f2a82612e41565b9150612f368285612ea2565b9150612f4182612efc565b9150612f4d8284612ea2565b91508190509392505050565b6000601f19601f8301169050919050565b6000612f7582612e64565b612f7f8185612b9f565b9350612f8f818560208601612e6f565b612f9881612f59565b840191505092915050565b60006020820190508181036000830152612fbd8184612f6a565b905092915050565b7f4e487b7100000000000000000000000000000000000000000000000000000000600052601260045260246000fd5b6000612fff82612986565b915061300a83612986565b92508261301a57613019612fc5565b5b828204905092915050565b600061303082612986565b915061303b83612986565b9250827fffffffffffffffffffffffffffffffffffffffffffffffffffffffffffffffff038211156130705761306f612cd4565b5b828201905092915050565b60006040820190506130906000830185612a95565b61309d6020830184612a95565b9392505050565b6130ad816128e7565b82525050565b60006040820190506130c860008301856130a4565b6130d56020830184612a95565b9392505050565b6000819050919050565b60006131016130fc6130f7846130dc565b612d9b565b612986565b9050919050565b613111816130e6565b82525050565b600060408201905061312c6000830185612a95565b6131396020830184613108565b9392505050565b6000819050919050565b61315b61315682612952565b613140565b82525050565b600061316d828461314a565b60208201915081905092915050565b600061318782612986565b915061319283612986565b9250826131a2576131a1612fc5565b5b828206905092915050565b6000819050919050565b60006131d26131cd6131c8846131ad565b612d9b565b612986565b9050919050565b6131e2816131b7565b82525050565b60006060820190506131fd60008301866130a4565b61320a6020830185612dc7565b61321760408301846131d9565b949350505050565b600060608201905061323460008301866130a4565b6132416020830185613108565b61324e60408301846131d9565b949350505050565b6000819050919050565b600061327b61327661327184613256565b612d9b565b612986565b9050919050565b61328b81613260565b82525050565b60006060820190506132a660008301866130a4565b6132b36020830185613282565b6132c060408301846131d9565b949350505050565b60006040820190506132dd6000830185612a95565b6132ea6020830184613282565b9392505050565b6000819050919050565b600061331661331161330c846132f1565b612d9b565b612986565b9050919050565b613326816132fb565b82525050565b60006040820190506133416000830185612a95565b61334e602083018461331d565b9392505050565b600060608201905061336a6000830186612a95565b6133776020830185613108565b6133846040830184612a95565b949350505050565b60006060820190506133a16000830186612a95565b6133ae6020830185613282565b6133bb6040830184612a95565b949350505050565b60006060820190506133d86000830186612a95565b6133e5602083018561331d565b6133f26040830184612a95565b949350505050565b7f4e487b7100000000000000000000000000000000000000000000000000000000600052604160045260246000fd5b600061343482612986565b9150600082141561344857613447612cd4565b5b600182039050919050565b7f537472696e67733a20686578206c656e67746820696e73756666696369656e74600082015250565b6000613489602083612b9f565b915061349482613453565b602082019050919050565b600060208201905081810360008301526134b88161347c565b905091905056fea26469706673582212205dc24f1af935ceb683f7523ea91559630a3b5394b51dd9acd60b8b8e06fae62f64736f6c634300080c0033",
  "immutableReferences": {},
  "source": "// SPDX-License-Identifier: UNLICENSED\r\n\r\npragma solidity ^0.8.3;\r\nimport \"./AbstractTree.sol\";\r\nimport \"./AbstractGameItems.sol\";\r\nimport \"./AbstractPTG.sol\";\r\nimport \"../node_modules/@openzeppelin/contracts-upgradeable/access/AccessControlUpgradeable.sol\";\r\nimport \"../node_modules/@openzeppelin/contracts-upgradeable/proxy/utils/Initializable.sol\";\r\n\r\ncontract TreeQuests is Initializable, AccessControlUpgradeable {\r\n\r\n    event StartQuest(uint treeId, uint questId);\r\n    event CompleteQuest(uint treeId, uint questId);\r\n    event CancelQuest(uint treeId);\r\n\r\n    address TreasuryAddress;\r\n    address TreeAddress;\r\n    address TokenAddress;\r\n    address GameItemsAddress;\r\n\r\n    uint totalTreasuryBalance;\r\n\r\n    AbstractTree tree;\r\n    AbstractGameItems gameItems;\r\n    AbstractPTG PTG;\r\n\r\n    modifier onlyOwnerOf(uint _treeId) {\r\n        require(tree.ownerOf(_treeId) == msg.sender);\r\n        _;\r\n    }\r\n\r\n    function initialize() initializer public {\r\n        TreasuryAddress = 0xfd768E668A158C173e9549d1632902C2A4363178;\r\n\r\n        totalTreasuryBalance = (1000000000*30*(10**18))/100;\r\n        _setupRole(DEFAULT_ADMIN_ROLE, msg.sender);\r\n    }\r\n    \r\n    // Util functions\r\n\r\n    function vrf() public view returns (bytes32 result) {\r\n        uint[1] memory bn;\r\n        bn[0] = block.number;\r\n        assembly {\r\n            let memPtr := mload(0x40)\r\n            if iszero(staticcall(not(0), 0xff, bn, 0x20, memPtr, 0x20)) {\r\n                invalid()\r\n            }\r\n            result := mload(memPtr)\r\n        }\r\n    }\r\n\r\n    //Payable Functions\r\n\r\n    function questLength(uint treeId, uint questId) public view returns (uint){\r\n        uint length;\r\n        if (questId == 1) {\r\n            length = 1*60 - tree.treeBranches(treeId)*1;\r\n        } else if (questId == 2) {\r\n            length = 1*60 - tree.treeBranches(treeId)*1;\r\n        } else if (questId == 3) {\r\n            length = 1*60 - tree.treeBranches(treeId)*1;\r\n        }\r\n        return length;\r\n    }\r\n\r\n    function startQuest(uint treeId, uint questId) public onlyOwnerOf(treeId) {\r\n        require(tree.actionStatus(treeId) == 0);\r\n        require(tree.currentAction(treeId) == 0);\r\n        if (questId == 1) {\r\n            startQuest1(treeId);\r\n        } else if (questId == 2) {\r\n            startQuest2(treeId);\r\n        } else if (questId == 3) {\r\n            startQuest3(treeId);\r\n        }\r\n    }\r\n\r\n    function completeQuest(uint treeId, uint questId) public onlyOwnerOf(treeId) {\r\n        require(tree.actionStatus(treeId) != 0);\r\n        require(block.timestamp >= tree.actionStatus(treeId));\r\n        if (questId == 1) {\r\n            completeQuest1(treeId);\r\n        } else if (questId == 2) {\r\n            completeQuest2(treeId);\r\n        }  else if (questId == 3) {\r\n            completeQuest3(treeId);\r\n        }\r\n    }\r\n\r\n    function cancelQuest(uint treeId) public onlyOwnerOf(treeId) {\r\n        require(tree.actionStatus(treeId) != 0);\r\n        tree.updateAction(treeId, 0, 0);\r\n        emit CancelQuest(treeId);\r\n    }\r\n\r\n    function startQuest1(uint treeId) internal {\r\n        uint length = questLength(treeId, 1);\r\n        tree.updateAction(treeId, 1, block.timestamp+length);\r\n        emit StartQuest(treeId, 1);\r\n    }\r\n\r\n    function completeQuest1(uint treeId) internal {\r\n        require(tree.currentAction(treeId) == 1);\r\n\r\n        uint expReward = 100;\r\n        uint tokenReward = (10**18)+(10**18)*tree.treeRoots(treeId)*10/100;\r\n\r\n        tree.updateAction(treeId, 0, 0);\r\n        tree.gainExp(treeId, expReward);\r\n        if (1000000000*10**18 >= PTG.totalSupply()+tokenReward) {\r\n            PTG.mint(msg.sender, tokenReward);\r\n        }\r\n        emit CompleteQuest(treeId, 1);\r\n\r\n    }\r\n\r\n    function startQuest2(uint treeId) internal {\r\n        uint length = questLength(treeId, 2);\r\n        tree.updateAction(treeId, 2, block.timestamp+length);\r\n        emit StartQuest(treeId, 2);\r\n    }\r\n\r\n    function completeQuest2(uint treeId) internal {\r\n        require(tree.currentAction(treeId) == 2);\r\n\r\n        uint expReward = 100;\r\n        tree.updateAction(treeId, 0, 0);\r\n        tree.gainExp(treeId, expReward);\r\n        uint rand1 = uint(keccak256(abi.encodePacked(vrf())));\r\n        uint chance1 = rand1%100;\r\n        if (chance1 < 50) {\r\n            gameItems.mint(msg.sender, 0, 5);\r\n        }\r\n        uint rand2 = uint(keccak256(abi.encodePacked(vrf())));\r\n        uint chance2 = rand2%100;\r\n        if (chance2 < 25) {\r\n            gameItems.mint(msg.sender, 1, 5);\r\n        }\r\n        uint rand3 = uint(keccak256(abi.encodePacked(vrf())));\r\n        uint chance3 = rand3%100;\r\n        if (chance3 < 10) {\r\n            gameItems.mint(msg.sender, 2, 5);\r\n        }\r\n        emit CompleteQuest(treeId, 2);\r\n\r\n    }\r\n\r\n    function startQuest3(uint treeId) internal {\r\n        uint length = questLength(treeId, 3);\r\n        tree.updateAction(treeId, 3, block.timestamp+length);\r\n        emit StartQuest(treeId, 3);\r\n    }\r\n\r\n    function completeQuest3(uint treeId) internal {\r\n        require(tree.currentAction(treeId) == 3);\r\n\r\n        uint expReward = 100000;\r\n        uint base = 100;\r\n        uint tokenReward = base*(10**18)+base*(10**18)*tree.treeRoots(treeId)*10/100;\r\n\r\n        tree.updateAction(treeId, 0, 0);\r\n        tree.gainExp(treeId, expReward);\r\n        if (1000000000*10**18 >= PTG.totalSupply()+tokenReward) {\r\n            PTG.mint(msg.sender, tokenReward);\r\n        }\r\n        emit CompleteQuest(treeId, 3);\r\n\r\n    }\r\n\r\n    //Transfer functions\r\n\r\n    function transferTreasuryAddress(address newTreasury) public onlyRole(DEFAULT_ADMIN_ROLE) {\r\n        TreasuryAddress = newTreasury;\r\n    }\r\n\r\n    function transferTokenAddress(address newToken) public onlyRole(DEFAULT_ADMIN_ROLE) {\r\n        TokenAddress = newToken;\r\n        PTG = AbstractPTG(TokenAddress);\r\n    }\r\n\r\n    function transferGameItemsAddress(address newGameItems) public onlyRole(DEFAULT_ADMIN_ROLE) {\r\n        GameItemsAddress = newGameItems;\r\n        gameItems = AbstractGameItems(GameItemsAddress);\r\n    }\r\n\r\n    function transferTreeAddress(address newTree) public onlyRole(DEFAULT_ADMIN_ROLE) {\r\n        TreeAddress = newTree;\r\n        tree = AbstractTree(TreeAddress);\r\n    }\r\n\r\n}",
  "sourcePath": "C:\\Users\\jtsch\\OneDrive\\Escritorio\\Python\\SmartContracts-NFT-Agus\\contracts\\TreeQuests.sol",
  "compiler": {
    "name": "solc",
    "version": "0.8.12+commit.f00d7308.Emscripten.clang"
  },
  "schemaVersion": "3.4.3",
  "updatedAt": "2022-02-16T16:50:46.223Z",
  "networkType": "ethereum",
  "devdoc": {
    "kind": "dev",
    "methods": {
      "getRoleAdmin(bytes32)": {
        "details": "Returns the admin role that controls `role`. See {grantRole} and {revokeRole}. To change a role's admin, use {_setRoleAdmin}."
      },
      "grantRole(bytes32,address)": {
        "details": "Grants `role` to `account`. If `account` had not been already granted `role`, emits a {RoleGranted} event. Requirements: - the caller must have ``role``'s admin role."
      },
      "hasRole(bytes32,address)": {
        "details": "Returns `true` if `account` has been granted `role`."
      },
      "renounceRole(bytes32,address)": {
        "details": "Revokes `role` from the calling account. Roles are often managed via {grantRole} and {revokeRole}: this function's purpose is to provide a mechanism for accounts to lose their privileges if they are compromised (such as when a trusted device is misplaced). If the calling account had been revoked `role`, emits a {RoleRevoked} event. Requirements: - the caller must be `account`."
      },
      "revokeRole(bytes32,address)": {
        "details": "Revokes `role` from `account`. If `account` had been granted `role`, emits a {RoleRevoked} event. Requirements: - the caller must have ``role``'s admin role."
      },
      "supportsInterface(bytes4)": {
        "details": "See {IERC165-supportsInterface}."
      }
    },
    "version": 1
  },
  "userdoc": {
    "kind": "user",
    "methods": {},
    "version": 1
  }
}