{
  "contractName": "Tree",
  "abi": [
    {
      "anonymous": false,
      "inputs": [
        {
          "indexed": true,
          "internalType": "address",
          "name": "owner",
          "type": "address"
        },
        {
          "indexed": true,
          "internalType": "address",
          "name": "approved",
          "type": "address"
        },
        {
          "indexed": true,
          "internalType": "uint256",
          "name": "tokenId",
          "type": "uint256"
        }
      ],
      "name": "Approval",
      "type": "event"
    },
    {
      "anonymous": false,
      "inputs": [
        {
          "indexed": true,
          "internalType": "address",
          "name": "owner",
          "type": "address"
        },
        {
          "indexed": true,
          "internalType": "address",
          "name": "operator",
          "type": "address"
        },
        {
          "indexed": false,
          "internalType": "bool",
          "name": "approved",
          "type": "bool"
        }
      ],
      "name": "ApprovalForAll",
      "type": "event"
    },
    {
      "anonymous": false,
      "inputs": [
        {
          "indexed": false,
          "internalType": "uint256",
          "name": "treeId",
          "type": "uint256"
        },
        {
          "indexed": false,
          "internalType": "uint256",
          "name": "buildingId",
          "type": "uint256"
        }
      ],
      "name": "BuildingLevelUp",
      "type": "event"
    },
    {
      "anonymous": false,
      "inputs": [
        {
          "indexed": false,
          "internalType": "uint256",
          "name": "treeId",
          "type": "uint256"
        },
        {
          "indexed": false,
          "internalType": "uint256",
          "name": "amount",
          "type": "uint256"
        }
      ],
      "name": "GainExp",
      "type": "event"
    },
    {
      "anonymous": false,
      "inputs": [
        {
          "indexed": false,
          "internalType": "uint256",
          "name": "treeId",
          "type": "uint256"
        }
      ],
      "name": "GainLevel",
      "type": "event"
    },
    {
      "anonymous": false,
      "inputs": [
        {
          "indexed": false,
          "internalType": "uint256",
          "name": "treeId",
          "type": "uint256"
        }
      ],
      "name": "NewTree",
      "type": "event"
    },
    {
      "anonymous": false,
      "inputs": [
        {
          "indexed": true,
          "internalType": "bytes32",
          "name": "role",
          "type": "bytes32"
        },
        {
          "indexed": true,
          "internalType": "bytes32",
          "name": "previousAdminRole",
          "type": "bytes32"
        },
        {
          "indexed": true,
          "internalType": "bytes32",
          "name": "newAdminRole",
          "type": "bytes32"
        }
      ],
      "name": "RoleAdminChanged",
      "type": "event"
    },
    {
      "anonymous": false,
      "inputs": [
        {
          "indexed": true,
          "internalType": "bytes32",
          "name": "role",
          "type": "bytes32"
        },
        {
          "indexed": true,
          "internalType": "address",
          "name": "account",
          "type": "address"
        },
        {
          "indexed": true,
          "internalType": "address",
          "name": "sender",
          "type": "address"
        }
      ],
      "name": "RoleGranted",
      "type": "event"
    },
    {
      "anonymous": false,
      "inputs": [
        {
          "indexed": true,
          "internalType": "bytes32",
          "name": "role",
          "type": "bytes32"
        },
        {
          "indexed": true,
          "internalType": "address",
          "name": "account",
          "type": "address"
        },
        {
          "indexed": true,
          "internalType": "address",
          "name": "sender",
          "type": "address"
        }
      ],
      "name": "RoleRevoked",
      "type": "event"
    },
    {
      "anonymous": false,
      "inputs": [
        {
          "indexed": true,
          "internalType": "address",
          "name": "from",
          "type": "address"
        },
        {
          "indexed": true,
          "internalType": "address",
          "name": "to",
          "type": "address"
        },
        {
          "indexed": true,
          "internalType": "uint256",
          "name": "tokenId",
          "type": "uint256"
        }
      ],
      "name": "Transfer",
      "type": "event"
    },
    {
      "inputs": [],
      "name": "DEFAULT_ADMIN_ROLE",
      "outputs": [
        {
          "internalType": "bytes32",
          "name": "",
          "type": "bytes32"
        }
      ],
      "stateMutability": "view",
      "type": "function"
    },
    {
      "inputs": [],
      "name": "QUEST_ROLE",
      "outputs": [
        {
          "internalType": "bytes32",
          "name": "",
          "type": "bytes32"
        }
      ],
      "stateMutability": "view",
      "type": "function"
    },
    {
      "inputs": [
        {
          "internalType": "address",
          "name": "to",
          "type": "address"
        },
        {
          "internalType": "uint256",
          "name": "tokenId",
          "type": "uint256"
        }
      ],
      "name": "approve",
      "outputs": [],
      "stateMutability": "nonpayable",
      "type": "function"
    },
    {
      "inputs": [
        {
          "internalType": "address",
          "name": "owner",
          "type": "address"
        }
      ],
      "name": "balanceOf",
      "outputs": [
        {
          "internalType": "uint256",
          "name": "",
          "type": "uint256"
        }
      ],
      "stateMutability": "view",
      "type": "function"
    },
    {
      "inputs": [
        {
          "internalType": "uint256",
          "name": "tokenId",
          "type": "uint256"
        }
      ],
      "name": "getApproved",
      "outputs": [
        {
          "internalType": "address",
          "name": "",
          "type": "address"
        }
      ],
      "stateMutability": "view",
      "type": "function"
    },
    {
      "inputs": [
        {
          "internalType": "bytes32",
          "name": "role",
          "type": "bytes32"
        }
      ],
      "name": "getRoleAdmin",
      "outputs": [
        {
          "internalType": "bytes32",
          "name": "",
          "type": "bytes32"
        }
      ],
      "stateMutability": "view",
      "type": "function"
    },
    {
      "inputs": [
        {
          "internalType": "bytes32",
          "name": "role",
          "type": "bytes32"
        },
        {
          "internalType": "address",
          "name": "account",
          "type": "address"
        }
      ],
      "name": "grantRole",
      "outputs": [],
      "stateMutability": "nonpayable",
      "type": "function"
    },
    {
      "inputs": [
        {
          "internalType": "bytes32",
          "name": "role",
          "type": "bytes32"
        },
        {
          "internalType": "address",
          "name": "account",
          "type": "address"
        }
      ],
      "name": "hasRole",
      "outputs": [
        {
          "internalType": "bool",
          "name": "",
          "type": "bool"
        }
      ],
      "stateMutability": "view",
      "type": "function"
    },
    {
      "inputs": [
        {
          "internalType": "address",
          "name": "owner",
          "type": "address"
        },
        {
          "internalType": "address",
          "name": "operator",
          "type": "address"
        }
      ],
      "name": "isApprovedForAll",
      "outputs": [
        {
          "internalType": "bool",
          "name": "",
          "type": "bool"
        }
      ],
      "stateMutability": "view",
      "type": "function"
    },
    {
      "inputs": [],
      "name": "name",
      "outputs": [
        {
          "internalType": "string",
          "name": "",
          "type": "string"
        }
      ],
      "stateMutability": "view",
      "type": "function"
    },
    {
      "inputs": [
        {
          "internalType": "uint256",
          "name": "tokenId",
          "type": "uint256"
        }
      ],
      "name": "ownerOf",
      "outputs": [
        {
          "internalType": "address",
          "name": "",
          "type": "address"
        }
      ],
      "stateMutability": "view",
      "type": "function"
    },
    {
      "inputs": [
        {
          "internalType": "bytes32",
          "name": "role",
          "type": "bytes32"
        },
        {
          "internalType": "address",
          "name": "account",
          "type": "address"
        }
      ],
      "name": "renounceRole",
      "outputs": [],
      "stateMutability": "nonpayable",
      "type": "function"
    },
    {
      "inputs": [
        {
          "internalType": "bytes32",
          "name": "role",
          "type": "bytes32"
        },
        {
          "internalType": "address",
          "name": "account",
          "type": "address"
        }
      ],
      "name": "revokeRole",
      "outputs": [],
      "stateMutability": "nonpayable",
      "type": "function"
    },
    {
      "inputs": [
        {
          "internalType": "address",
          "name": "from",
          "type": "address"
        },
        {
          "internalType": "address",
          "name": "to",
          "type": "address"
        },
        {
          "internalType": "uint256",
          "name": "tokenId",
          "type": "uint256"
        }
      ],
      "name": "safeTransferFrom",
      "outputs": [],
      "stateMutability": "nonpayable",
      "type": "function"
    },
    {
      "inputs": [
        {
          "internalType": "address",
          "name": "from",
          "type": "address"
        },
        {
          "internalType": "address",
          "name": "to",
          "type": "address"
        },
        {
          "internalType": "uint256",
          "name": "tokenId",
          "type": "uint256"
        },
        {
          "internalType": "bytes",
          "name": "_data",
          "type": "bytes"
        }
      ],
      "name": "safeTransferFrom",
      "outputs": [],
      "stateMutability": "nonpayable",
      "type": "function"
    },
    {
      "inputs": [
        {
          "internalType": "address",
          "name": "operator",
          "type": "address"
        },
        {
          "internalType": "bool",
          "name": "approved",
          "type": "bool"
        }
      ],
      "name": "setApprovalForAll",
      "outputs": [],
      "stateMutability": "nonpayable",
      "type": "function"
    },
    {
      "inputs": [],
      "name": "symbol",
      "outputs": [
        {
          "internalType": "string",
          "name": "",
          "type": "string"
        }
      ],
      "stateMutability": "view",
      "type": "function"
    },
    {
      "inputs": [
        {
          "internalType": "uint256",
          "name": "tokenId",
          "type": "uint256"
        }
      ],
      "name": "tokenURI",
      "outputs": [
        {
          "internalType": "string",
          "name": "",
          "type": "string"
        }
      ],
      "stateMutability": "view",
      "type": "function"
    },
    {
      "inputs": [
        {
          "internalType": "address",
          "name": "from",
          "type": "address"
        },
        {
          "internalType": "address",
          "name": "to",
          "type": "address"
        },
        {
          "internalType": "uint256",
          "name": "tokenId",
          "type": "uint256"
        }
      ],
      "name": "transferFrom",
      "outputs": [],
      "stateMutability": "nonpayable",
      "type": "function"
    },
    {
      "inputs": [
        {
          "internalType": "uint256",
          "name": "",
          "type": "uint256"
        }
      ],
      "name": "trees",
      "outputs": [
        {
          "internalType": "uint256",
          "name": "treeDNA",
          "type": "uint256"
        },
        {
          "internalType": "uint256",
          "name": "level",
          "type": "uint256"
        },
        {
          "internalType": "uint256",
          "name": "exp",
          "type": "uint256"
        },
        {
          "internalType": "uint256",
          "name": "roots",
          "type": "uint256"
        },
        {
          "internalType": "uint256",
          "name": "branches",
          "type": "uint256"
        },
        {
          "internalType": "uint256",
          "name": "action",
          "type": "uint256"
        },
        {
          "internalType": "uint256",
          "name": "onActionUntil",
          "type": "uint256"
        }
      ],
      "stateMutability": "view",
      "type": "function"
    },
    {
      "inputs": [
        {
          "internalType": "bytes4",
          "name": "interfaceId",
          "type": "bytes4"
        }
      ],
      "name": "supportsInterface",
      "outputs": [
        {
          "internalType": "bool",
          "name": "",
          "type": "bool"
        }
      ],
      "stateMutability": "view",
      "type": "function"
    },
    {
      "inputs": [],
      "name": "initialize",
      "outputs": [],
      "stateMutability": "nonpayable",
      "type": "function"
    },
    {
      "inputs": [],
      "name": "vrf",
      "outputs": [
        {
          "internalType": "bytes32",
          "name": "result",
          "type": "bytes32"
        }
      ],
      "stateMutability": "view",
      "type": "function"
    },
    {
      "inputs": [
        {
          "internalType": "uint256",
          "name": "treeId",
          "type": "uint256"
        }
      ],
      "name": "treeDNA",
      "outputs": [
        {
          "internalType": "uint256",
          "name": "",
          "type": "uint256"
        }
      ],
      "stateMutability": "view",
      "type": "function"
    },
    {
      "inputs": [
        {
          "internalType": "uint256",
          "name": "treeId",
          "type": "uint256"
        }
      ],
      "name": "treeLevel",
      "outputs": [
        {
          "internalType": "uint256",
          "name": "",
          "type": "uint256"
        }
      ],
      "stateMutability": "view",
      "type": "function"
    },
    {
      "inputs": [
        {
          "internalType": "uint256",
          "name": "treeId",
          "type": "uint256"
        }
      ],
      "name": "treeExp",
      "outputs": [
        {
          "internalType": "uint256",
          "name": "",
          "type": "uint256"
        }
      ],
      "stateMutability": "view",
      "type": "function"
    },
    {
      "inputs": [
        {
          "internalType": "uint256",
          "name": "treeId",
          "type": "uint256"
        }
      ],
      "name": "treeRoots",
      "outputs": [
        {
          "internalType": "uint256",
          "name": "",
          "type": "uint256"
        }
      ],
      "stateMutability": "view",
      "type": "function"
    },
    {
      "inputs": [
        {
          "internalType": "uint256",
          "name": "treeId",
          "type": "uint256"
        }
      ],
      "name": "treeBranches",
      "outputs": [
        {
          "internalType": "uint256",
          "name": "",
          "type": "uint256"
        }
      ],
      "stateMutability": "view",
      "type": "function"
    },
    {
      "inputs": [
        {
          "internalType": "uint256",
          "name": "treeId",
          "type": "uint256"
        }
      ],
      "name": "actionStatus",
      "outputs": [
        {
          "internalType": "uint256",
          "name": "",
          "type": "uint256"
        }
      ],
      "stateMutability": "view",
      "type": "function"
    },
    {
      "inputs": [
        {
          "internalType": "uint256",
          "name": "treeId",
          "type": "uint256"
        }
      ],
      "name": "currentAction",
      "outputs": [
        {
          "internalType": "uint256",
          "name": "",
          "type": "uint256"
        }
      ],
      "stateMutability": "view",
      "type": "function"
    },
    {
      "inputs": [],
      "name": "currentPrice",
      "outputs": [
        {
          "internalType": "uint256",
          "name": "",
          "type": "uint256"
        }
      ],
      "stateMutability": "view",
      "type": "function"
    },
    {
      "inputs": [
        {
          "internalType": "uint256",
          "name": "treeId",
          "type": "uint256"
        }
      ],
      "name": "upgradeRoots",
      "outputs": [],
      "stateMutability": "payable",
      "type": "function"
    },
    {
      "inputs": [
        {
          "internalType": "uint256",
          "name": "treeId",
          "type": "uint256"
        }
      ],
      "name": "upgradeBranches",
      "outputs": [],
      "stateMutability": "payable",
      "type": "function"
    },
    {
      "inputs": [
        {
          "internalType": "uint256",
          "name": "treeId",
          "type": "uint256"
        },
        {
          "internalType": "uint256",
          "name": "action",
          "type": "uint256"
        },
        {
          "internalType": "uint256",
          "name": "time",
          "type": "uint256"
        }
      ],
      "name": "updateAction",
      "outputs": [],
      "stateMutability": "payable",
      "type": "function"
    },
    {
      "inputs": [
        {
          "internalType": "uint256",
          "name": "treeId",
          "type": "uint256"
        },
        {
          "internalType": "uint256",
          "name": "amount",
          "type": "uint256"
        }
      ],
      "name": "gainExp",
      "outputs": [],
      "stateMutability": "payable",
      "type": "function"
    },
    {
      "inputs": [
        {
          "internalType": "uint256",
          "name": "treeId",
          "type": "uint256"
        }
      ],
      "name": "gainLevel",
      "outputs": [],
      "stateMutability": "payable",
      "type": "function"
    },
    {
      "inputs": [],
      "name": "createNewTree",
      "outputs": [],
      "stateMutability": "payable",
      "type": "function"
    },
    {
      "inputs": [
        {
          "internalType": "address",
          "name": "newDevelopment",
          "type": "address"
        }
      ],
      "name": "transferDevelopmentAddress",
      "outputs": [],
      "stateMutability": "payable",
      "type": "function"
    },
    {
      "inputs": [
        {
          "internalType": "address",
          "name": "newTreasury",
          "type": "address"
        }
      ],
      "name": "transferTreasuryAddress",
      "outputs": [],
      "stateMutability": "payable",
      "type": "function"
    },
    {
      "inputs": [
        {
          "internalType": "address",
          "name": "newToken",
          "type": "address"
        }
      ],
      "name": "transferTokenAddress",
      "outputs": [],
      "stateMutability": "payable",
      "type": "function"
    },
    {
      "inputs": [
        {
          "internalType": "address",
          "name": "newGameItems",
          "type": "address"
        }
      ],
      "name": "transferGameItemsAddress",
      "outputs": [],
      "stateMutability": "payable",
      "type": "function"
    }
  ],
  "bytecode": "0x608060405234801561001057600080fd5b506156d980620000216000396000f3fe6080604052600436106102455760003560e01c80634ed4d42a1161013957806395d89b41116100b6578063b88d4fde1161007a578063b88d4fde14610841578063b906866a1461086a578063c87b56dd146108a7578063d547741f146108e4578063d94406f21461090d578063e985e9c51461094a57610245565b806395d89b411461075a5780639d1b464a14610785578063a217fddf146107b0578063a22cb465146107db578063a5caf0f61461080457610245565b80637a508022116100fd5780637a508022146106495780637b5aa51d1461068c5780638129fc1c146106c95780638bbfcac3146106e057806391d148541461071d57610245565b80634ed4d42a1461055a5780635fa461fc146105765780636352211e146105b35780636cad6932146105f057806370a082311461060c57610245565b806321cde202116101c75780632f2ff15d1161018b5780632f2ff15d14610486578063364051a6146104af57806336568abe146104ec57806342842e0e146105155780634630f73a1461053e57610245565b806321cde202146103cc57806323b872dd146103e8578063248a9ca314610411578063273a3ab61461044e5780632b60b9861461046a57610245565b8063098d75001161020e578063098d7500146103435780630c9490431461035f57806310d1eb2a1461038a57806316f6bca9146103945780631af92ed3146103b057610245565b8062e23cfc1461024a57806301ffc9a71461027557806306fdde03146102b2578063081812fc146102dd578063095ea7b31461031a575b600080fd5b34801561025657600080fd5b5061025f610987565b60405161026c9190613cd4565b60405180910390f35b34801561028157600080fd5b5061029c60048036038101906102979190613d5b565b6109ab565b6040516102a99190613da3565b60405180910390f35b3480156102be57600080fd5b506102c76109bd565b6040516102d49190613e57565b60405180910390f35b3480156102e957600080fd5b5061030460048036038101906102ff9190613eaf565b610a4f565b6040516103119190613f1d565b60405180910390f35b34801561032657600080fd5b50610341600480360381019061033c9190613f64565b610ad4565b005b61035d60048036038101906103589190613fa4565b610bec565b005b34801561036b57600080fd5b50610374610c46565b6040516103819190613cd4565b60405180910390f35b610392610c8c565b005b6103ae60048036038101906103a99190613fa4565b610e19565b005b6103ca60048036038101906103c59190613fa4565b610e73565b005b6103e660048036038101906103e19190613eaf565b610ecd565b005b3480156103f457600080fd5b5061040f600480360381019061040a9190613fd1565b6112ce565b005b34801561041d57600080fd5b5061043860048036038101906104339190614050565b61132e565b6040516104459190613cd4565b60405180910390f35b61046860048036038101906104639190613eaf565b61134e565b005b610484600480360381019061047f919061407d565b61188d565b005b34801561049257600080fd5b506104ad60048036038101906104a891906140d0565b611919565b005b3480156104bb57600080fd5b506104d660048036038101906104d19190613eaf565b611942565b6040516104e3919061411f565b60405180910390f35b3480156104f857600080fd5b50610513600480360381019061050e91906140d0565b611971565b005b34801561052157600080fd5b5061053c60048036038101906105379190613fd1565b6119f4565b005b61055860048036038101906105539190613eaf565b611a14565b005b610574600480360381019061056f9190613fa4565b611f53565b005b34801561058257600080fd5b5061059d60048036038101906105989190613eaf565b611fad565b6040516105aa919061411f565b60405180910390f35b3480156105bf57600080fd5b506105da60048036038101906105d59190613eaf565b611fdc565b6040516105e79190613f1d565b60405180910390f35b61060a6004803603810190610605919061413a565b61208e565b005b34801561061857600080fd5b50610633600480360381019061062e9190613fa4565b612158565b604051610640919061411f565b60405180910390f35b34801561065557600080fd5b50610670600480360381019061066b9190613eaf565b612210565b604051610683979695949392919061417a565b60405180910390f35b34801561069857600080fd5b506106b360048036038101906106ae9190613eaf565b612262565b6040516106c0919061411f565b60405180910390f35b3480156106d557600080fd5b506106de612291565b005b3480156106ec57600080fd5b5061070760048036038101906107029190613eaf565b6124bd565b604051610714919061411f565b60405180910390f35b34801561072957600080fd5b50610744600480360381019061073f91906140d0565b6124ec565b6040516107519190613da3565b60405180910390f35b34801561076657600080fd5b5061076f612557565b60405161077c9190613e57565b60405180910390f35b34801561079157600080fd5b5061079a6125e9565b6040516107a7919061411f565b60405180910390f35b3480156107bc57600080fd5b506107c5612615565b6040516107d29190613cd4565b60405180910390f35b3480156107e757600080fd5b5061080260048036038101906107fd9190614215565b61261c565b005b34801561081057600080fd5b5061082b60048036038101906108269190613eaf565b612632565b604051610838919061411f565b60405180910390f35b34801561084d57600080fd5b506108686004803603810190610863919061438a565b612661565b005b34801561087657600080fd5b50610891600480360381019061088c9190613eaf565b6126c3565b60405161089e919061411f565b60405180910390f35b3480156108b357600080fd5b506108ce60048036038101906108c99190613eaf565b6126f2565b6040516108db9190613e57565b60405180910390f35b3480156108f057600080fd5b5061090b600480360381019061090691906140d0565b612799565b005b34801561091957600080fd5b50610934600480360381019061092f9190613eaf565b6127c2565b604051610941919061411f565b60405180910390f35b34801561095657600080fd5b50610971600480360381019061096c919061440d565b6127f1565b60405161097e9190613da3565b60405180910390f35b7f19ac353dd86d6954025a359137447e1fda8f14ba7ba6373372af73b706fa3b2281565b60006109b682612885565b9050919050565b6060606580546109cc9061447c565b80601f01602080910402602001604051908101604052809291908181526020018280546109f89061447c565b8015610a455780601f10610a1a57610100808354040283529160200191610a45565b820191906000526020600020905b815481529060010190602001808311610a2857829003601f168201915b5050505050905090565b6000610a5a826128ff565b610a99576040517f08c379a0000000000000000000000000000000000000000000000000000000008152600401610a9090614520565b60405180910390fd5b6069600083815260200190815260200160002060009054906101000a900473ffffffffffffffffffffffffffffffffffffffff169050919050565b6000610adf82611fdc565b90508073ffffffffffffffffffffffffffffffffffffffff168373ffffffffffffffffffffffffffffffffffffffff161415610b50576040517f08c379a0000000000000000000000000000000000000000000000000000000008152600401610b47906145b2565b60405180910390fd5b8073ffffffffffffffffffffffffffffffffffffffff16610b6f61296b565b73ffffffffffffffffffffffffffffffffffffffff161480610b9e5750610b9d81610b9861296b565b6127f1565b5b610bdd576040517f08c379a0000000000000000000000000000000000000000000000000000000008152600401610bd490614644565b60405180910390fd5b610be78383612973565b505050565b6000801b610c0181610bfc61296b565b612a2c565b8160cc60006101000a81548173ffffffffffffffffffffffffffffffffffffffff021916908373ffffffffffffffffffffffffffffffffffffffff1602179055505050565b6000610c50613bf6565b4381600060018110610c6557610c64614664565b5b60200201818152505060405160208160208460ff600019fa610c8357fe5b80519250505090565b600073ffffffffffffffffffffffffffffffffffffffff163373ffffffffffffffffffffffffffffffffffffffff1614158015610cf557503073ffffffffffffffffffffffffffffffffffffffff163373ffffffffffffffffffffffffffffffffffffffff1614155b610cfe57600080fd5b610d066125e9565b341015610d1257600080fd5b600060cf8054905090506000610d26612ac9565b905060cf6040518060e00160405280838152602001600181526020016000815260200160018152602001600181526020016000815260200160008152509080600181540180825580915050600190039060005260206000209060070201600090919091909150600082015181600001556020820151816001015560408201518160020155606082015181600301556080820151816004015560a0820151816005015560c082015181600601555050610dde3383612b13565b7f5aa7f45898fcb5638757632f4ea98818ccb1f1b865b0721648cfb14cfcd2da9a82604051610e0d919061411f565b60405180910390a15050565b6000801b610e2e81610e2961296b565b612a2c565b8160ce60006101000a81548173ffffffffffffffffffffffffffffffffffffffff021916908373ffffffffffffffffffffffffffffffffffffffff1602179055505050565b6000801b610e8881610e8361296b565b612a2c565b8160cb60006101000a81548173ffffffffffffffffffffffffffffffffffffffff021916908373ffffffffffffffffffffffffffffffffffffffff1602179055505050565b803373ffffffffffffffffffffffffffffffffffffffff16610eee82611fdc565b73ffffffffffffffffffffffffffffffffffffffff1614610f0e57600080fd5b606460cf8381548110610f2457610f23614664565b5b90600052602060002090600702016001015410610f4057600080fd5b606460cf8381548110610f5657610f55614664565b5b906000526020600020906007020160010154610f7291906146c2565b60cf8381548110610f8657610f85614664565b5b9060005260206000209060070201600201541015610fa357600080fd5b600060cf8381548110610fb957610fb8614664565b5b90600052602060002090600702016005015414610fd557600080fd5b6000670de0b6b3a764000060cf8481548110610ff457610ff3614664565b5b90600052602060002090600702016001015461101091906146c2565b9050606460cf848154811061102857611027614664565b5b90600052602060002090600702016001015461104491906146c2565b60cf848154811061105857611057614664565b5b906000526020600020906007020160020154611074919061471c565b60cf848154811061108857611087614664565b5b90600052602060002090600702016002018190555060cf83815481106110b1576110b0614664565b5b906000526020600020906007020160010160008154809291906110d390614750565b919050555060cd60009054906101000a900473ffffffffffffffffffffffffffffffffffffffff1673ffffffffffffffffffffffffffffffffffffffff166323b872dd3360cc60009054906101000a900473ffffffffffffffffffffffffffffffffffffffff16606460608661114991906146c2565b61115391906147c8565b6040518463ffffffff1660e01b8152600401611171939291906147f9565b6020604051808303816000875af1158015611190573d6000803e3d6000fd5b505050506040513d601f19601f820116820180604052508101906111b49190614845565b5060cd60009054906101000a900473ffffffffffffffffffffffffffffffffffffffff1673ffffffffffffffffffffffffffffffffffffffff166323b872dd3360cb60009054906101000a900473ffffffffffffffffffffffffffffffffffffffff16606460048661122691906146c2565b61123091906147c8565b6040518463ffffffff1660e01b815260040161124e939291906147f9565b6020604051808303816000875af115801561126d573d6000803e3d6000fd5b505050506040513d601f19601f820116820180604052508101906112919190614845565b507f7ef1df0b6d95a41d9ebcaa695746726b382e110036a9127b009babdb11c656a2836040516112c1919061411f565b60405180910390a1505050565b6112df6112d961296b565b82612ce1565b61131e576040517f08c379a0000000000000000000000000000000000000000000000000000000008152600401611315906148e4565b60405180910390fd5b611329838383612dbf565b505050565b600060976000838152602001908152602001600020600101549050919050565b803373ffffffffffffffffffffffffffffffffffffffff1661136f82611fdc565b73ffffffffffffffffffffffffffffffffffffffff161461138f57600080fd5b60cf82815481106113a3576113a2614664565b5b90600052602060002090600702016004015460cf83815481106113c9576113c8614664565b5b906000526020600020906007020160010154116113e557600080fd5b60cf82815481106113f9576113f8614664565b5b90600052602060002090600702016004015460151161141757600080fd5b600060cf838154811061142d5761142c614664565b5b9060005260206000209060070201600501541461144957600080fd5b6000670de0b6b3a764000060cf848154811061146857611467614664565b5b90600052602060002090600702016004015461148491906146c2565b90508060cd60009054906101000a900473ffffffffffffffffffffffffffffffffffffffff1673ffffffffffffffffffffffffffffffffffffffff166370a08231336040518263ffffffff1660e01b81526004016114e29190613f1d565b602060405180830381865afa1580156114ff573d6000803e3d6000fd5b505050506040513d601f19601f820116820180604052508101906115239190614919565b101561152e57600080fd5b600a60cf848154811061154457611543614664565b5b9060005260206000209060070201600401541180156115885750601560cf848154811061157457611573614664565b5b906000526020600020906007020160040154105b15611659576000600a60cf85815481106115a5576115a4614664565b5b9060005260206000209060070201600401546115c1919061471c565b905060ce60009054906101000a900473ffffffffffffffffffffffffffffffffffffffff1673ffffffffffffffffffffffffffffffffffffffff1663f242432a33600080856040518563ffffffff1660e01b815260040161162594939291906149c2565b600060405180830381600087803b15801561163f57600080fd5b505af1158015611653573d6000803e3d6000fd5b50505050505b60cf838154811061166d5761166c614664565b5b9060005260206000209060070201600401600081548092919061168f90614750565b919050555060cd60009054906101000a900473ffffffffffffffffffffffffffffffffffffffff1673ffffffffffffffffffffffffffffffffffffffff166323b872dd3360cc60009054906101000a900473ffffffffffffffffffffffffffffffffffffffff16606460608661170591906146c2565b61170f91906147c8565b6040518463ffffffff1660e01b815260040161172d939291906147f9565b6020604051808303816000875af115801561174c573d6000803e3d6000fd5b505050506040513d601f19601f820116820180604052508101906117709190614845565b5060cd60009054906101000a900473ffffffffffffffffffffffffffffffffffffffff1673ffffffffffffffffffffffffffffffffffffffff166323b872dd3360cb60009054906101000a900473ffffffffffffffffffffffffffffffffffffffff1660646004866117e291906146c2565b6117ec91906147c8565b6040518463ffffffff1660e01b815260040161180a939291906147f9565b6020604051808303816000875af1158015611829573d6000803e3d6000fd5b505050506040513d601f19601f8201168201806040525081019061184d9190614845565b507f81697e2679db8e5249c35ec26a25db2189c65f1b3bc780d2f1b1129b5e57c41d836001604051611880929190614a55565b60405180910390a1505050565b7f19ac353dd86d6954025a359137447e1fda8f14ba7ba6373372af73b706fa3b226118bf816118ba61296b565b612a2c565b8160cf85815481106118d4576118d3614664565b5b9060005260206000209060070201600601819055508260cf85815481106118fe576118fd614664565b5b90600052602060002090600702016005018190555050505050565b6119228261132e565b6119338161192e61296b565b612a2c565b61193d838361301b565b505050565b600060cf828154811061195857611957614664565b5b9060005260206000209060070201600401549050919050565b61197961296b565b73ffffffffffffffffffffffffffffffffffffffff168173ffffffffffffffffffffffffffffffffffffffff16146119e6576040517f08c379a00000000000000000000000000000000000000000000000000000000081526004016119dd90614af0565b60405180910390fd5b6119f082826130fc565b5050565b611a0f83838360405180602001604052806000815250612661565b505050565b803373ffffffffffffffffffffffffffffffffffffffff16611a3582611fdc565b73ffffffffffffffffffffffffffffffffffffffff1614611a5557600080fd5b60cf8281548110611a6957611a68614664565b5b90600052602060002090600702016003015460cf8381548110611a8f57611a8e614664565b5b90600052602060002090600702016001015411611aab57600080fd5b60cf8281548110611abf57611abe614664565b5b906000526020600020906007020160030154601511611add57600080fd5b600060cf8381548110611af357611af2614664565b5b90600052602060002090600702016005015414611b0f57600080fd5b6000670de0b6b3a764000060cf8481548110611b2e57611b2d614664565b5b906000526020600020906007020160030154611b4a91906146c2565b90508060cd60009054906101000a900473ffffffffffffffffffffffffffffffffffffffff1673ffffffffffffffffffffffffffffffffffffffff166370a08231336040518263ffffffff1660e01b8152600401611ba89190613f1d565b602060405180830381865afa158015611bc5573d6000803e3d6000fd5b505050506040513d601f19601f82011682018060405250810190611be99190614919565b1015611bf457600080fd5b600a60cf8481548110611c0a57611c09614664565b5b906000526020600020906007020160030154118015611c4e5750601560cf8481548110611c3a57611c39614664565b5b906000526020600020906007020160030154105b15611d1f576000600a60cf8581548110611c6b57611c6a614664565b5b906000526020600020906007020160030154611c87919061471c565b905060ce60009054906101000a900473ffffffffffffffffffffffffffffffffffffffff1673ffffffffffffffffffffffffffffffffffffffff1663f242432a33600080856040518563ffffffff1660e01b8152600401611ceb94939291906149c2565b600060405180830381600087803b158015611d0557600080fd5b505af1158015611d19573d6000803e3d6000fd5b50505050505b60cf8381548110611d3357611d32614664565b5b90600052602060002090600702016003016000815480929190611d5590614750565b919050555060cd60009054906101000a900473ffffffffffffffffffffffffffffffffffffffff1673ffffffffffffffffffffffffffffffffffffffff166323b872dd3360cc60009054906101000a900473ffffffffffffffffffffffffffffffffffffffff166064606086611dcb91906146c2565b611dd591906147c8565b6040518463ffffffff1660e01b8152600401611df3939291906147f9565b6020604051808303816000875af1158015611e12573d6000803e3d6000fd5b505050506040513d601f19601f82011682018060405250810190611e369190614845565b5060cd60009054906101000a900473ffffffffffffffffffffffffffffffffffffffff1673ffffffffffffffffffffffffffffffffffffffff166323b872dd3360cb60009054906101000a900473ffffffffffffffffffffffffffffffffffffffff166064600486611ea891906146c2565b611eb291906147c8565b6040518463ffffffff1660e01b8152600401611ed0939291906147f9565b6020604051808303816000875af1158015611eef573d6000803e3d6000fd5b505050506040513d601f19601f82011682018060405250810190611f139190614845565b507f81697e2679db8e5249c35ec26a25db2189c65f1b3bc780d2f1b1129b5e57c41d836000604051611f46929190614b10565b60405180910390a1505050565b6000801b611f6881611f6361296b565b612a2c565b8160cd60006101000a81548173ffffffffffffffffffffffffffffffffffffffff021916908373ffffffffffffffffffffffffffffffffffffffff1602179055505050565b600060cf8281548110611fc357611fc2614664565b5b9060005260206000209060070201600201549050919050565b6000806067600084815260200190815260200160002060009054906101000a900473ffffffffffffffffffffffffffffffffffffffff169050600073ffffffffffffffffffffffffffffffffffffffff168173ffffffffffffffffffffffffffffffffffffffff161415612085576040517f08c379a000000000000000000000000000000000000000000000000000000000815260040161207c90614bab565b60405180910390fd5b80915050919050565b7f19ac353dd86d6954025a359137447e1fda8f14ba7ba6373372af73b706fa3b226120c0816120bb61296b565b612a2c565b8160cf84815481106120d5576120d4614664565b5b9060005260206000209060070201600201546120f19190614bcb565b60cf848154811061210557612104614664565b5b9060005260206000209060070201600201819055507ffa65d54a674245861f726a6e25ffd7e32b5f7e7a6a62bd81b222ad6f53643d28838360405161214b929190614c21565b60405180910390a1505050565b60008073ffffffffffffffffffffffffffffffffffffffff168273ffffffffffffffffffffffffffffffffffffffff1614156121c9576040517f08c379a00000000000000000000000000000000000000000000000000000000081526004016121c090614cbc565b60405180910390fd5b606860008373ffffffffffffffffffffffffffffffffffffffff1673ffffffffffffffffffffffffffffffffffffffff168152602001908152602001600020549050919050565b60cf818154811061222057600080fd5b90600052602060002090600702016000915090508060000154908060010154908060020154908060030154908060040154908060050154908060060154905087565b600060cf828154811061227857612277614664565b5b9060005260206000209060070201600301549050919050565b600060019054906101000a900460ff166122b95760008054906101000a900460ff16156122c2565b6122c16131de565b5b612301576040517f08c379a00000000000000000000000000000000000000000000000000000000081526004016122f890614d4e565b60405180910390fd5b60008060019054906101000a900460ff161590508015612351576001600060016101000a81548160ff02191690831515021790555060016000806101000a81548160ff0219169083151502179055505b601060c98190555060c954600a6123689190614ea1565b60ca8190555073f577601a5ef1d5079da672f01d7ab3b80dd2bd1d60cb60006101000a81548173ffffffffffffffffffffffffffffffffffffffff021916908373ffffffffffffffffffffffffffffffffffffffff16021790555073fd768e668a158c173e9549d1632902c2a436317860cc60006101000a81548173ffffffffffffffffffffffffffffffffffffffff021916908373ffffffffffffffffffffffffffffffffffffffff1602179055506124256000801b336131ef565b6124996040518060400160405280600e81526020017f50617461676f6e696320547265650000000000000000000000000000000000008152506040518060400160405280600581526020017f50545245450000000000000000000000000000000000000000000000000000008152506131fd565b80156124ba5760008060016101000a81548160ff0219169083151502179055505b50565b600060cf82815481106124d3576124d2614664565b5b9060005260206000209060070201600101549050919050565b60006097600084815260200190815260200160002060000160008373ffffffffffffffffffffffffffffffffffffffff1673ffffffffffffffffffffffffffffffffffffffff16815260200190815260200160002060009054906101000a900460ff16905092915050565b6060606680546125669061447c565b80601f01602080910402602001604051908101604052809291908181526020018280546125929061447c565b80156125df5780601f106125b4576101008083540402835291602001916125df565b820191906000526020600020905b8154815290600101906020018083116125c257829003601f168201915b5050505050905090565b6000670de0b6b3a7640000600160cf805490506126069190614bcb565b61261091906146c2565b905090565b6000801b81565b61262e61262761296b565b838361326a565b5050565b600060cf828154811061264857612647614664565b5b9060005260206000209060070201600601549050919050565b61267261266c61296b565b83612ce1565b6126b1576040517f08c379a00000000000000000000000000000000000000000000000000000000081526004016126a8906148e4565b60405180910390fd5b6126bd848484846133d7565b50505050565b600060cf82815481106126d9576126d8614664565b5b9060005260206000209060070201600501549050919050565b60606126fd826128ff565b61273c576040517f08c379a000000000000000000000000000000000000000000000000000000000815260040161273390614f5e565b60405180910390fd5b6000612746613433565b905060008151116127665760405180602001604052806000815250612791565b806127708461344a565b604051602001612781929190614fba565b6040516020818303038152906040525b915050919050565b6127a28261132e565b6127b3816127ae61296b565b612a2c565b6127bd83836130fc565b505050565b600060cf82815481106127d8576127d7614664565b5b9060005260206000209060070201600001549050919050565b6000606a60008473ffffffffffffffffffffffffffffffffffffffff1673ffffffffffffffffffffffffffffffffffffffff16815260200190815260200160002060008373ffffffffffffffffffffffffffffffffffffffff1673ffffffffffffffffffffffffffffffffffffffff16815260200190815260200160002060009054906101000a900460ff16905092915050565b60007f7965db0b000000000000000000000000000000000000000000000000000000007bffffffffffffffffffffffffffffffffffffffffffffffffffffffff1916827bffffffffffffffffffffffffffffffffffffffffffffffffffffffff191614806128f857506128f7826135ab565b5b9050919050565b60008073ffffffffffffffffffffffffffffffffffffffff166067600084815260200190815260200160002060009054906101000a900473ffffffffffffffffffffffffffffffffffffffff1673ffffffffffffffffffffffffffffffffffffffff1614159050919050565b600033905090565b816069600083815260200190815260200160002060006101000a81548173ffffffffffffffffffffffffffffffffffffffff021916908373ffffffffffffffffffffffffffffffffffffffff160217905550808273ffffffffffffffffffffffffffffffffffffffff166129e683611fdc565b73ffffffffffffffffffffffffffffffffffffffff167f8c5be1e5ebec7d5bd14f71427d1e84f3dd0314c0f7b2291e5b200ac8c7c3b92560405160405180910390a45050565b612a3682826124ec565b612ac557612a5b8173ffffffffffffffffffffffffffffffffffffffff16601461368d565b612a698360001c602061368d565b604051602001612a7a929190615076565b6040516020818303038152906040526040517f08c379a0000000000000000000000000000000000000000000000000000000008152600401612abc9190613e57565b60405180910390fd5b5050565b600080612ad4610c46565b604051602001612ae491906150d1565b6040516020818303038152906040528051906020012060001c905060ca5481612b0d91906150ec565b91505090565b600073ffffffffffffffffffffffffffffffffffffffff168273ffffffffffffffffffffffffffffffffffffffff161415612b83576040517f08c379a0000000000000000000000000000000000000000000000000000000008152600401612b7a90615169565b60405180910390fd5b612b8c816128ff565b15612bcc576040517f08c379a0000000000000000000000000000000000000000000000000000000008152600401612bc3906151d5565b60405180910390fd5b612bd8600083836138c9565b6001606860008473ffffffffffffffffffffffffffffffffffffffff1673ffffffffffffffffffffffffffffffffffffffff1681526020019081526020016000206000828254612c289190614bcb565b92505081905550816067600083815260200190815260200160002060006101000a81548173ffffffffffffffffffffffffffffffffffffffff021916908373ffffffffffffffffffffffffffffffffffffffff160217905550808273ffffffffffffffffffffffffffffffffffffffff16600073ffffffffffffffffffffffffffffffffffffffff167fddf252ad1be2c89b69c2b068fc378daa952ba7f163c4a11628f55a4df523b3ef60405160405180910390a45050565b6000612cec826128ff565b612d2b576040517f08c379a0000000000000000000000000000000000000000000000000000000008152600401612d2290615267565b60405180910390fd5b6000612d3683611fdc565b90508073ffffffffffffffffffffffffffffffffffffffff168473ffffffffffffffffffffffffffffffffffffffff161480612da557508373ffffffffffffffffffffffffffffffffffffffff16612d8d84610a4f565b73ffffffffffffffffffffffffffffffffffffffff16145b80612db65750612db581856127f1565b5b91505092915050565b8273ffffffffffffffffffffffffffffffffffffffff16612ddf82611fdc565b73ffffffffffffffffffffffffffffffffffffffff1614612e35576040517f08c379a0000000000000000000000000000000000000000000000000000000008152600401612e2c906152f9565b60405180910390fd5b600073ffffffffffffffffffffffffffffffffffffffff168273ffffffffffffffffffffffffffffffffffffffff161415612ea5576040517f08c379a0000000000000000000000000000000000000000000000000000000008152600401612e9c9061538b565b60405180910390fd5b612eb08383836138c9565b612ebb600082612973565b6001606860008573ffffffffffffffffffffffffffffffffffffffff1673ffffffffffffffffffffffffffffffffffffffff1681526020019081526020016000206000828254612f0b919061471c565b925050819055506001606860008473ffffffffffffffffffffffffffffffffffffffff1673ffffffffffffffffffffffffffffffffffffffff1681526020019081526020016000206000828254612f629190614bcb565b92505081905550816067600083815260200190815260200160002060006101000a81548173ffffffffffffffffffffffffffffffffffffffff021916908373ffffffffffffffffffffffffffffffffffffffff160217905550808273ffffffffffffffffffffffffffffffffffffffff168473ffffffffffffffffffffffffffffffffffffffff167fddf252ad1be2c89b69c2b068fc378daa952ba7f163c4a11628f55a4df523b3ef60405160405180910390a4505050565b61302582826124ec565b6130f85760016097600084815260200190815260200160002060000160008373ffffffffffffffffffffffffffffffffffffffff1673ffffffffffffffffffffffffffffffffffffffff16815260200190815260200160002060006101000a81548160ff02191690831515021790555061309d61296b565b73ffffffffffffffffffffffffffffffffffffffff168173ffffffffffffffffffffffffffffffffffffffff16837f2f8788117e7eff1d82e926ec794901d17c78024a50270940304540a733656f0d60405160405180910390a45b5050565b61310682826124ec565b156131da5760006097600084815260200190815260200160002060000160008373ffffffffffffffffffffffffffffffffffffffff1673ffffffffffffffffffffffffffffffffffffffff16815260200190815260200160002060006101000a81548160ff02191690831515021790555061317f61296b565b73ffffffffffffffffffffffffffffffffffffffff168173ffffffffffffffffffffffffffffffffffffffff16837ff6391f5c32d9c69d2a47ea670b442974b53935d1edc7fd64eb21e047a839171b60405160405180910390a45b5050565b60006131e9306138ce565b15905090565b6131f9828261301b565b5050565b600060019054906101000a900460ff1661324c576040517f08c379a00000000000000000000000000000000000000000000000000000000081526004016132439061541d565b60405180910390fd5b6132546138e1565b61325c613932565b6132668282613983565b5050565b8173ffffffffffffffffffffffffffffffffffffffff168373ffffffffffffffffffffffffffffffffffffffff1614156132d9576040517f08c379a00000000000000000000000000000000000000000000000000000000081526004016132d090615489565b60405180910390fd5b80606a60008573ffffffffffffffffffffffffffffffffffffffff1673ffffffffffffffffffffffffffffffffffffffff16815260200190815260200160002060008473ffffffffffffffffffffffffffffffffffffffff1673ffffffffffffffffffffffffffffffffffffffff16815260200190815260200160002060006101000a81548160ff0219169083151502179055508173ffffffffffffffffffffffffffffffffffffffff168373ffffffffffffffffffffffffffffffffffffffff167f17307eab39ab6107e8899845ad3d59bd9653f200f220920489ca2b5937696c31836040516133ca9190613da3565b60405180910390a3505050565b6133e2848484612dbf565b6133ee84848484613a04565b61342d576040517f08c379a00000000000000000000000000000000000000000000000000000000081526004016134249061551b565b60405180910390fd5b50505050565b606060405180602001604052806000815250905090565b60606000821415613492576040518060400160405280600181526020017f300000000000000000000000000000000000000000000000000000000000000081525090506135a6565b600082905060005b600082146134c45780806134ad90614750565b915050600a826134bd91906147c8565b915061349a565b60008167ffffffffffffffff8111156134e0576134df61425f565b5b6040519080825280601f01601f1916602001820160405280156135125781602001600182028036833780820191505090505b5090505b6000851461359f5760018261352b919061471c565b9150600a8561353a91906150ec565b60306135469190614bcb565b60f81b81838151811061355c5761355b614664565b5b60200101907effffffffffffffffffffffffffffffffffffffffffffffffffffffffffffff1916908160001a905350600a8561359891906147c8565b9450613516565b8093505050505b919050565b60007f80ac58cd000000000000000000000000000000000000000000000000000000007bffffffffffffffffffffffffffffffffffffffffffffffffffffffff1916827bffffffffffffffffffffffffffffffffffffffffffffffffffffffff1916148061367657507f5b5e139f000000000000000000000000000000000000000000000000000000007bffffffffffffffffffffffffffffffffffffffffffffffffffffffff1916827bffffffffffffffffffffffffffffffffffffffffffffffffffffffff1916145b80613686575061368582613b8c565b5b9050919050565b6060600060028360026136a091906146c2565b6136aa9190614bcb565b67ffffffffffffffff8111156136c3576136c261425f565b5b6040519080825280601f01601f1916602001820160405280156136f55781602001600182028036833780820191505090505b5090507f30000000000000000000000000000000000000000000000000000000000000008160008151811061372d5761372c614664565b5b60200101907effffffffffffffffffffffffffffffffffffffffffffffffffffffffffffff1916908160001a9053507f78000000000000000000000000000000000000000000000000000000000000008160018151811061379157613790614664565b5b60200101907effffffffffffffffffffffffffffffffffffffffffffffffffffffffffffff1916908160001a905350600060018460026137d191906146c2565b6137db9190614bcb565b90505b600181111561387b577f3031323334353637383961626364656600000000000000000000000000000000600f86166010811061381d5761381c614664565b5b1a60f81b82828151811061383457613833614664565b5b60200101907effffffffffffffffffffffffffffffffffffffffffffffffffffffffffffff1916908160001a905350600485901c9450806138749061553b565b90506137de565b50600084146138bf576040517f08c379a00000000000000000000000000000000000000000000000000000000081526004016138b6906155b1565b60405180910390fd5b8091505092915050565b505050565b600080823b905060008111915050919050565b600060019054906101000a900460ff16613930576040517f08c379a00000000000000000000000000000000000000000000000000000000081526004016139279061541d565b60405180910390fd5b565b600060019054906101000a900460ff16613981576040517f08c379a00000000000000000000000000000000000000000000000000000000081526004016139789061541d565b60405180910390fd5b565b600060019054906101000a900460ff166139d2576040517f08c379a00000000000000000000000000000000000000000000000000000000081526004016139c99061541d565b60405180910390fd5b81606590805190602001906139e8929190613c18565b5080606690805190602001906139ff929190613c18565b505050565b6000613a258473ffffffffffffffffffffffffffffffffffffffff166138ce565b15613b7f578373ffffffffffffffffffffffffffffffffffffffff1663150b7a02613a4e61296b565b8786866040518563ffffffff1660e01b8152600401613a709493929190615615565b6020604051808303816000875af1925050508015613aac57506040513d601f19601f82011682018060405250810190613aa99190615676565b60015b613b2f573d8060008114613adc576040519150601f19603f3d011682016040523d82523d6000602084013e613ae1565b606091505b50600081511415613b27576040517f08c379a0000000000000000000000000000000000000000000000000000000008152600401613b1e9061551b565b60405180910390fd5b805181602001fd5b63150b7a0260e01b7bffffffffffffffffffffffffffffffffffffffffffffffffffffffff1916817bffffffffffffffffffffffffffffffffffffffffffffffffffffffff191614915050613b84565b600190505b949350505050565b60007f01ffc9a7000000000000000000000000000000000000000000000000000000007bffffffffffffffffffffffffffffffffffffffffffffffffffffffff1916827bffffffffffffffffffffffffffffffffffffffffffffffffffffffff1916149050919050565b6040518060200160405280600190602082028036833780820191505090505090565b828054613c249061447c565b90600052602060002090601f016020900481019282613c465760008555613c8d565b82601f10613c5f57805160ff1916838001178555613c8d565b82800160010185558215613c8d579182015b82811115613c8c578251825591602001919060010190613c71565b5b509050613c9a9190613c9e565b5090565b5b80821115613cb7576000816000905550600101613c9f565b5090565b6000819050919050565b613cce81613cbb565b82525050565b6000602082019050613ce96000830184613cc5565b92915050565b6000604051905090565b600080fd5b600080fd5b60007fffffffff0000000000000000000000000000000000000000000000000000000082169050919050565b613d3881613d03565b8114613d4357600080fd5b50565b600081359050613d5581613d2f565b92915050565b600060208284031215613d7157613d70613cf9565b5b6000613d7f84828501613d46565b91505092915050565b60008115159050919050565b613d9d81613d88565b82525050565b6000602082019050613db86000830184613d94565b92915050565b600081519050919050565b600082825260208201905092915050565b60005b83811015613df8578082015181840152602081019050613ddd565b83811115613e07576000848401525b50505050565b6000601f19601f8301169050919050565b6000613e2982613dbe565b613e338185613dc9565b9350613e43818560208601613dda565b613e4c81613e0d565b840191505092915050565b60006020820190508181036000830152613e718184613e1e565b905092915050565b6000819050919050565b613e8c81613e79565b8114613e9757600080fd5b50565b600081359050613ea981613e83565b92915050565b600060208284031215613ec557613ec4613cf9565b5b6000613ed384828501613e9a565b91505092915050565b600073ffffffffffffffffffffffffffffffffffffffff82169050919050565b6000613f0782613edc565b9050919050565b613f1781613efc565b82525050565b6000602082019050613f326000830184613f0e565b92915050565b613f4181613efc565b8114613f4c57600080fd5b50565b600081359050613f5e81613f38565b92915050565b60008060408385031215613f7b57613f7a613cf9565b5b6000613f8985828601613f4f565b9250506020613f9a85828601613e9a565b9150509250929050565b600060208284031215613fba57613fb9613cf9565b5b6000613fc884828501613f4f565b91505092915050565b600080600060608486031215613fea57613fe9613cf9565b5b6000613ff886828701613f4f565b935050602061400986828701613f4f565b925050604061401a86828701613e9a565b9150509250925092565b61402d81613cbb565b811461403857600080fd5b50565b60008135905061404a81614024565b92915050565b60006020828403121561406657614065613cf9565b5b60006140748482850161403b565b91505092915050565b60008060006060848603121561409657614095613cf9565b5b60006140a486828701613e9a565b93505060206140b586828701613e9a565b92505060406140c686828701613e9a565b9150509250925092565b600080604083850312156140e7576140e6613cf9565b5b60006140f58582860161403b565b925050602061410685828601613f4f565b9150509250929050565b61411981613e79565b82525050565b60006020820190506141346000830184614110565b92915050565b6000806040838503121561415157614150613cf9565b5b600061415f85828601613e9a565b925050602061417085828601613e9a565b9150509250929050565b600060e08201905061418f600083018a614110565b61419c6020830189614110565b6141a96040830188614110565b6141b66060830187614110565b6141c36080830186614110565b6141d060a0830185614110565b6141dd60c0830184614110565b98975050505050505050565b6141f281613d88565b81146141fd57600080fd5b50565b60008135905061420f816141e9565b92915050565b6000806040838503121561422c5761422b613cf9565b5b600061423a85828601613f4f565b925050602061424b85828601614200565b9150509250929050565b600080fd5b600080fd5b7f4e487b7100000000000000000000000000000000000000000000000000000000600052604160045260246000fd5b61429782613e0d565b810181811067ffffffffffffffff821117156142b6576142b561425f565b5b80604052505050565b60006142c9613cef565b90506142d5828261428e565b919050565b600067ffffffffffffffff8211156142f5576142f461425f565b5b6142fe82613e0d565b9050602081019050919050565b82818337600083830152505050565b600061432d614328846142da565b6142bf565b9050828152602081018484840111156143495761434861425a565b5b61435484828561430b565b509392505050565b600082601f83011261437157614370614255565b5b813561438184826020860161431a565b91505092915050565b600080600080608085870312156143a4576143a3613cf9565b5b60006143b287828801613f4f565b94505060206143c387828801613f4f565b93505060406143d487828801613e9a565b925050606085013567ffffffffffffffff8111156143f5576143f4613cfe565b5b6144018782880161435c565b91505092959194509250565b6000806040838503121561442457614423613cf9565b5b600061443285828601613f4f565b925050602061444385828601613f4f565b9150509250929050565b7f4e487b7100000000000000000000000000000000000000000000000000000000600052602260045260246000fd5b6000600282049050600182168061449457607f821691505b602082108114156144a8576144a761444d565b5b50919050565b7f4552433732313a20617070726f76656420717565727920666f72206e6f6e657860008201527f697374656e7420746f6b656e0000000000000000000000000000000000000000602082015250565b600061450a602c83613dc9565b9150614515826144ae565b604082019050919050565b60006020820190508181036000830152614539816144fd565b9050919050565b7f4552433732313a20617070726f76616c20746f2063757272656e74206f776e6560008201527f7200000000000000000000000000000000000000000000000000000000000000602082015250565b600061459c602183613dc9565b91506145a782614540565b604082019050919050565b600060208201905081810360008301526145cb8161458f565b9050919050565b7f4552433732313a20617070726f76652063616c6c6572206973206e6f74206f7760008201527f6e6572206e6f7220617070726f76656420666f7220616c6c0000000000000000602082015250565b600061462e603883613dc9565b9150614639826145d2565b604082019050919050565b6000602082019050818103600083015261465d81614621565b9050919050565b7f4e487b7100000000000000000000000000000000000000000000000000000000600052603260045260246000fd5b7f4e487b7100000000000000000000000000000000000000000000000000000000600052601160045260246000fd5b60006146cd82613e79565b91506146d883613e79565b9250817fffffffffffffffffffffffffffffffffffffffffffffffffffffffffffffffff048311821515161561471157614710614693565b5b828202905092915050565b600061472782613e79565b915061473283613e79565b92508282101561474557614744614693565b5b828203905092915050565b600061475b82613e79565b91507fffffffffffffffffffffffffffffffffffffffffffffffffffffffffffffffff82141561478e5761478d614693565b5b600182019050919050565b7f4e487b7100000000000000000000000000000000000000000000000000000000600052601260045260246000fd5b60006147d382613e79565b91506147de83613e79565b9250826147ee576147ed614799565b5b828204905092915050565b600060608201905061480e6000830186613f0e565b61481b6020830185613f0e565b6148286040830184614110565b949350505050565b60008151905061483f816141e9565b92915050565b60006020828403121561485b5761485a613cf9565b5b600061486984828501614830565b91505092915050565b7f4552433732313a207472616e736665722063616c6c6572206973206e6f74206f60008201527f776e6572206e6f7220617070726f766564000000000000000000000000000000602082015250565b60006148ce603183613dc9565b91506148d982614872565b604082019050919050565b600060208201905081810360008301526148fd816148c1565b9050919050565b60008151905061491381613e83565b92915050565b60006020828403121561492f5761492e613cf9565b5b600061493d84828501614904565b91505092915050565b6000819050919050565b6000819050919050565b600061497561497061496b84614946565b614950565b613e79565b9050919050565b6149858161495a565b82525050565b600082825260208201905092915050565b50565b60006149ac60008361498b565b91506149b78261499c565b600082019050919050565b600060a0820190506149d76000830187613f0e565b6149e46020830186613f0e565b6149f1604083018561497c565b6149fe6060830184614110565b8181036080830152614a0f8161499f565b905095945050505050565b6000819050919050565b6000614a3f614a3a614a3584614a1a565b614950565b613e79565b9050919050565b614a4f81614a24565b82525050565b6000604082019050614a6a6000830185614110565b614a776020830184614a46565b9392505050565b7f416363657373436f6e74726f6c3a2063616e206f6e6c792072656e6f756e636560008201527f20726f6c657320666f722073656c660000000000000000000000000000000000602082015250565b6000614ada602f83613dc9565b9150614ae582614a7e565b604082019050919050565b60006020820190508181036000830152614b0981614acd565b9050919050565b6000604082019050614b256000830185614110565b614b32602083018461497c565b9392505050565b7f4552433732313a206f776e657220717565727920666f72206e6f6e657869737460008201527f656e7420746f6b656e0000000000000000000000000000000000000000000000602082015250565b6000614b95602983613dc9565b9150614ba082614b39565b604082019050919050565b60006020820190508181036000830152614bc481614b88565b9050919050565b6000614bd682613e79565b9150614be183613e79565b9250827fffffffffffffffffffffffffffffffffffffffffffffffffffffffffffffffff03821115614c1657614c15614693565b5b828201905092915050565b6000604082019050614c366000830185614110565b614c436020830184614110565b9392505050565b7f4552433732313a2062616c616e636520717565727920666f7220746865207a6560008201527f726f206164647265737300000000000000000000000000000000000000000000602082015250565b6000614ca6602a83613dc9565b9150614cb182614c4a565b604082019050919050565b60006020820190508181036000830152614cd581614c99565b9050919050565b7f496e697469616c697a61626c653a20636f6e747261637420697320616c72656160008201527f647920696e697469616c697a6564000000000000000000000000000000000000602082015250565b6000614d38602e83613dc9565b9150614d4382614cdc565b604082019050919050565b60006020820190508181036000830152614d6781614d2b565b9050919050565b60008160011c9050919050565b6000808291508390505b6001851115614dc557808604811115614da157614da0614693565b5b6001851615614db05780820291505b8081029050614dbe85614d6e565b9450614d85565b94509492505050565b600082614dde5760019050614e9a565b81614dec5760009050614e9a565b8160018114614e025760028114614e0c57614e3b565b6001915050614e9a565b60ff841115614e1e57614e1d614693565b5b8360020a915084821115614e3557614e34614693565b5b50614e9a565b5060208310610133831016604e8410600b8410161715614e705782820a905083811115614e6b57614e6a614693565b5b614e9a565b614e7d8484846001614d7b565b92509050818404811115614e9457614e93614693565b5b81810290505b9392505050565b6000614eac82613e79565b9150614eb783613e79565b9250614ee47fffffffffffffffffffffffffffffffffffffffffffffffffffffffffffffffff8484614dce565b905092915050565b7f4552433732314d657461646174613a2055524920717565727920666f72206e6f60008201527f6e6578697374656e7420746f6b656e0000000000000000000000000000000000602082015250565b6000614f48602f83613dc9565b9150614f5382614eec565b604082019050919050565b60006020820190508181036000830152614f7781614f3b565b9050919050565b600081905092915050565b6000614f9482613dbe565b614f9e8185614f7e565b9350614fae818560208601613dda565b80840191505092915050565b6000614fc68285614f89565b9150614fd28284614f89565b91508190509392505050565b7f416363657373436f6e74726f6c3a206163636f756e7420000000000000000000600082015250565b6000615014601783614f7e565b915061501f82614fde565b601782019050919050565b7f206973206d697373696e6720726f6c6520000000000000000000000000000000600082015250565b6000615060601183614f7e565b915061506b8261502a565b601182019050919050565b600061508182615007565b915061508d8285614f89565b915061509882615053565b91506150a48284614f89565b91508190509392505050565b6000819050919050565b6150cb6150c682613cbb565b6150b0565b82525050565b60006150dd82846150ba565b60208201915081905092915050565b60006150f782613e79565b915061510283613e79565b92508261511257615111614799565b5b828206905092915050565b7f4552433732313a206d696e7420746f20746865207a65726f2061646472657373600082015250565b6000615153602083613dc9565b915061515e8261511d565b602082019050919050565b6000602082019050818103600083015261518281615146565b9050919050565b7f4552433732313a20746f6b656e20616c7265616479206d696e74656400000000600082015250565b60006151bf601c83613dc9565b91506151ca82615189565b602082019050919050565b600060208201905081810360008301526151ee816151b2565b9050919050565b7f4552433732313a206f70657261746f7220717565727920666f72206e6f6e657860008201527f697374656e7420746f6b656e0000000000000000000000000000000000000000602082015250565b6000615251602c83613dc9565b915061525c826151f5565b604082019050919050565b6000602082019050818103600083015261528081615244565b9050919050565b7f4552433732313a207472616e73666572206f6620746f6b656e2074686174206960008201527f73206e6f74206f776e0000000000000000000000000000000000000000000000602082015250565b60006152e3602983613dc9565b91506152ee82615287565b604082019050919050565b60006020820190508181036000830152615312816152d6565b9050919050565b7f4552433732313a207472616e7366657220746f20746865207a65726f2061646460008201527f7265737300000000000000000000000000000000000000000000000000000000602082015250565b6000615375602483613dc9565b915061538082615319565b604082019050919050565b600060208201905081810360008301526153a481615368565b9050919050565b7f496e697469616c697a61626c653a20636f6e7472616374206973206e6f74206960008201527f6e697469616c697a696e67000000000000000000000000000000000000000000602082015250565b6000615407602b83613dc9565b9150615412826153ab565b604082019050919050565b60006020820190508181036000830152615436816153fa565b9050919050565b7f4552433732313a20617070726f766520746f2063616c6c657200000000000000600082015250565b6000615473601983613dc9565b915061547e8261543d565b602082019050919050565b600060208201905081810360008301526154a281615466565b9050919050565b7f4552433732313a207472616e7366657220746f206e6f6e20455243373231526560008201527f63656976657220696d706c656d656e7465720000000000000000000000000000602082015250565b6000615505603283613dc9565b9150615510826154a9565b604082019050919050565b60006020820190508181036000830152615534816154f8565b9050919050565b600061554682613e79565b9150600082141561555a57615559614693565b5b600182039050919050565b7f537472696e67733a20686578206c656e67746820696e73756666696369656e74600082015250565b600061559b602083613dc9565b91506155a682615565565b602082019050919050565b600060208201905081810360008301526155ca8161558e565b9050919050565b600081519050919050565b60006155e7826155d1565b6155f1818561498b565b9350615601818560208601613dda565b61560a81613e0d565b840191505092915050565b600060808201905061562a6000830187613f0e565b6156376020830186613f0e565b6156446040830185614110565b818103606083015261565681846155dc565b905095945050505050565b60008151905061567081613d2f565b92915050565b60006020828403121561568c5761568b613cf9565b5b600061569a84828501615661565b9150509291505056fea26469706673582212202b1b21393d6b07f00b70a6f65cc269a5c6c1bbd5b5c40864429d7cc4f69263eb64736f6c634300080b0033",
  "immutableReferences": {},
  "source": "// SPDX-License-Identifier: UNLICENSED\r\n\r\npragma solidity ^0.8.3;\r\n\r\nimport \"../node_modules/@openzeppelin/contracts-upgradeable/access/AccessControlUpgradeable.sol\";\r\nimport \"../node_modules/@openzeppelin/contracts-upgradeable/token/ERC721/ERC721Upgradeable.sol\";\r\nimport \"../node_modules/@openzeppelin/contracts/token/ERC20/IERC20.sol\";\r\nimport \"../node_modules/@openzeppelin/contracts/token/ERC1155/IERC1155.sol\";\r\n\r\ncontract Tree is ERC721Upgradeable, AccessControlUpgradeable {\r\n\r\n    bytes32 public constant QUEST_ROLE = keccak256(\"QUEST_ROLE\");\r\n\r\n    event NewTree(uint treeId);\r\n    event GainExp(uint treeId, uint amount);\r\n    event GainLevel(uint treeId);\r\n    event BuildingLevelUp (uint treeId, uint buildingId);\r\n\r\n    uint Digits;\r\n    uint Modulus;\r\n\r\n    address DevelopmentAddress;\r\n    address TreasuryAddress;\r\n    address TokenAddress;\r\n    address GameItemsAddress;\r\n\r\n    struct TreeStruct {\r\n        uint treeDNA;\r\n        uint level;\r\n        uint exp;\r\n        uint roots;\r\n        uint branches;\r\n        uint action;\r\n        uint onActionUntil;\r\n    }\r\n\r\n    TreeStruct[] public trees;\r\n\r\n    //Modifiers\r\n\r\n    modifier onlyOwnerOf(uint _treeId) {\r\n        require(ownerOf(_treeId) == msg.sender);\r\n        _;\r\n    }\r\n\r\n    function supportsInterface(bytes4 interfaceId) public view virtual override(ERC721Upgradeable, AccessControlUpgradeable) returns (bool) {\r\n        return super.supportsInterface(interfaceId);\r\n    }\r\n\r\n    function initialize() initializer public {\r\n        Digits = 16;\r\n        Modulus = 10 ** Digits;\r\n\r\n        DevelopmentAddress = 0xf577601a5eF1d5079Da672f01D7aB3b80dD2bd1D;\r\n        TreasuryAddress = 0xfd768E668A158C173e9549d1632902C2A4363178;\r\n        _setupRole(DEFAULT_ADMIN_ROLE, msg.sender);\r\n        __ERC721_init(\"Patagonic Tree\", \"PTREE\");\r\n    }\r\n\r\n    //Util Functions\r\n\r\n    function vrf() public view returns (bytes32 result) {\r\n        uint[1] memory bn;\r\n        bn[0] = block.number;\r\n        assembly {\r\n            let memPtr := mload(0x40)\r\n            if iszero(staticcall(not(0), 0xff, bn, 0x20, memPtr, 0x20)) {\r\n                invalid()\r\n            }\r\n            result := mload(memPtr)\r\n        }\r\n    }\r\n\r\n    //View Functions\r\n\r\n    function treeDNA(uint treeId) public view returns (uint) {\r\n        return trees[treeId].treeDNA;\r\n    }\r\n\r\n    function treeLevel(uint treeId) public view returns (uint) {\r\n        return trees[treeId].level;\r\n    }\r\n\r\n    function treeExp(uint treeId) public view returns (uint) {\r\n        return trees[treeId].exp;\r\n    }\r\n\r\n    function treeRoots(uint treeId) public view returns (uint) {\r\n        return trees[treeId].roots;\r\n    }\r\n\r\n    function treeBranches(uint treeId) public view returns (uint) {\r\n        return trees[treeId].branches;\r\n    }\r\n\r\n    function actionStatus(uint treeId) public view returns (uint) {\r\n        return trees[treeId].onActionUntil;\r\n    }\r\n\r\n    function currentAction(uint treeId) public view returns (uint) {\r\n        return trees[treeId].action;\r\n    }\r\n\r\n    function currentPrice() public view returns (uint) {\r\n        return (trees.length+1)*10**18;\r\n    }\r\n\r\n    function _generateRandomDNA() internal view returns (uint) {\r\n        uint rand = uint(keccak256(abi.encodePacked(vrf())));\r\n        return rand % Modulus;\r\n    }\r\n\r\n    //Payable Functions\r\n\r\n    function upgradeRoots(uint treeId) public payable onlyOwnerOf(treeId) {\r\n        require(trees[treeId].level > trees[treeId].roots);\r\n        require(21 > trees[treeId].roots);\r\n        require(trees[treeId].action == 0);\r\n        uint amount = trees[treeId].roots*10**18;\r\n        require(IERC20(TokenAddress).balanceOf(msg.sender)>= amount);\r\n        \r\n        if (trees[treeId].roots > 10 && trees[treeId].roots < 21) {\r\n            uint BasicRuneAmount = (trees[treeId].roots-10);\r\n            IERC1155(GameItemsAddress).safeTransferFrom(msg.sender, address(0), 0, BasicRuneAmount, \"\");\r\n        }\r\n        trees[treeId].roots++;\r\n        IERC20(TokenAddress).transferFrom(msg.sender, TreasuryAddress, amount*96/100);\r\n        IERC20(TokenAddress).transferFrom(msg.sender, DevelopmentAddress, amount*4/100);\r\n        emit BuildingLevelUp (treeId, 0);\r\n    }\r\n\r\n    function upgradeBranches(uint treeId) public payable onlyOwnerOf(treeId) {\r\n        require(trees[treeId].level > trees[treeId].branches);\r\n        require(21 > trees[treeId].branches);\r\n        require(trees[treeId].action == 0);\r\n        uint amount = trees[treeId].branches*10**18;\r\n        require(IERC20(TokenAddress).balanceOf(msg.sender)>= amount);\r\n\r\n        if (trees[treeId].branches > 10 && trees[treeId].branches < 21) {\r\n            uint BasicRuneAmount = (trees[treeId].branches-10);\r\n            IERC1155(GameItemsAddress).safeTransferFrom(msg.sender, address(0), 0, BasicRuneAmount, \"\");\r\n        }\r\n        trees[treeId].branches++;\r\n        IERC20(TokenAddress).transferFrom(msg.sender, TreasuryAddress, amount*96/100);\r\n        IERC20(TokenAddress).transferFrom(msg.sender, DevelopmentAddress, amount*4/100);\r\n        emit BuildingLevelUp (treeId, 1);\r\n    }\r\n\r\n    function updateAction(uint treeId, uint action, uint time) public payable onlyRole(QUEST_ROLE) {\r\n        trees[treeId].onActionUntil = time;\r\n        trees[treeId].action = action;\r\n    }\r\n\r\n    function gainExp(uint treeId, uint amount) public payable onlyRole(QUEST_ROLE) {\r\n        trees[treeId].exp = trees[treeId].exp + amount;\r\n        emit GainExp(treeId, amount);\r\n    }\r\n\r\n    function gainLevel(uint treeId) public payable onlyOwnerOf(treeId) {\r\n        require(trees[treeId].level < 100 );\r\n        require(trees[treeId].exp >= trees[treeId].level*100);\r\n        require(trees[treeId].action == 0);\r\n        //require enough PUDU Balance\r\n        uint amount = trees[treeId].level*10**18;\r\n        trees[treeId].exp = trees[treeId].exp-trees[treeId].level*100;\r\n        trees[treeId].level++;\r\n        IERC20(TokenAddress).transferFrom(msg.sender, TreasuryAddress, amount*96/100);\r\n        IERC20(TokenAddress).transferFrom(msg.sender, DevelopmentAddress, amount*4/100);\r\n        emit GainLevel(treeId);\r\n    }\r\n\r\n    function createNewTree() public payable {\r\n        require(msg.sender != address(0) && msg.sender != address(this));\r\n        require(msg.value >= currentPrice());\r\n        uint id = trees.length;\r\n        uint DNA = _generateRandomDNA();\r\n        trees.push(TreeStruct(DNA, 1, 0, 1, 1, 0, 0));\r\n        _mint(msg.sender, id);\r\n        emit NewTree(id);\r\n\r\n    }\r\n\r\n    //Transfer Functions\r\n\r\n    function transferDevelopmentAddress(address newDevelopment) public payable onlyRole(DEFAULT_ADMIN_ROLE) {\r\n        DevelopmentAddress = newDevelopment;\r\n    }\r\n\r\n    function transferTreasuryAddress(address newTreasury) public payable onlyRole(DEFAULT_ADMIN_ROLE) {\r\n        TreasuryAddress = newTreasury;\r\n    }\r\n\r\n    function transferTokenAddress(address newToken) public payable onlyRole(DEFAULT_ADMIN_ROLE) {\r\n        TokenAddress = newToken;\r\n    }\r\n\r\n    function transferGameItemsAddress(address newGameItems) public payable onlyRole(DEFAULT_ADMIN_ROLE) {\r\n        GameItemsAddress = newGameItems;\r\n    }\r\n}",
  "sourcePath": "C:\\Users\\jtsch\\OneDrive\\Escritorio\\Python\\SmartContracts-NFT-Agus\\contracts\\Tree.sol",
  "compiler": {
    "name": "solc",
    "version": "0.8.11+commit.d7f03943.Emscripten.clang"
  },
  "schemaVersion": "3.4.3",
  "updatedAt": "2022-02-05T11:25:56.376Z",
  "devdoc": {
    "kind": "dev",
    "methods": {
      "approve(address,uint256)": {
        "details": "See {IERC721-approve}."
      },
      "balanceOf(address)": {
        "details": "See {IERC721-balanceOf}."
      },
      "getApproved(uint256)": {
        "details": "See {IERC721-getApproved}."
      },
      "getRoleAdmin(bytes32)": {
        "details": "Returns the admin role that controls `role`. See {grantRole} and {revokeRole}. To change a role's admin, use {_setRoleAdmin}."
      },
      "grantRole(bytes32,address)": {
        "details": "Grants `role` to `account`. If `account` had not been already granted `role`, emits a {RoleGranted} event. Requirements: - the caller must have ``role``'s admin role."
      },
      "hasRole(bytes32,address)": {
        "details": "Returns `true` if `account` has been granted `role`."
      },
      "isApprovedForAll(address,address)": {
        "details": "See {IERC721-isApprovedForAll}."
      },
      "name()": {
        "details": "See {IERC721Metadata-name}."
      },
      "ownerOf(uint256)": {
        "details": "See {IERC721-ownerOf}."
      },
      "renounceRole(bytes32,address)": {
        "details": "Revokes `role` from the calling account. Roles are often managed via {grantRole} and {revokeRole}: this function's purpose is to provide a mechanism for accounts to lose their privileges if they are compromised (such as when a trusted device is misplaced). If the calling account had been revoked `role`, emits a {RoleRevoked} event. Requirements: - the caller must be `account`."
      },
      "revokeRole(bytes32,address)": {
        "details": "Revokes `role` from `account`. If `account` had been granted `role`, emits a {RoleRevoked} event. Requirements: - the caller must have ``role``'s admin role."
      },
      "safeTransferFrom(address,address,uint256)": {
        "details": "See {IERC721-safeTransferFrom}."
      },
      "safeTransferFrom(address,address,uint256,bytes)": {
        "details": "See {IERC721-safeTransferFrom}."
      },
      "setApprovalForAll(address,bool)": {
        "details": "See {IERC721-setApprovalForAll}."
      },
      "symbol()": {
        "details": "See {IERC721Metadata-symbol}."
      },
      "tokenURI(uint256)": {
        "details": "See {IERC721Metadata-tokenURI}."
      },
      "transferFrom(address,address,uint256)": {
        "details": "See {IERC721-transferFrom}."
      }
    },
    "version": 1
  },
  "userdoc": {
    "kind": "user",
    "methods": {},
    "version": 1
  }
}