{
  "contractName": "TreeQuests",
  "abi": [
    {
      "anonymous": false,
      "inputs": [
        {
          "indexed": false,
          "internalType": "uint256",
          "name": "treeId",
          "type": "uint256"
        },
        {
          "indexed": false,
          "internalType": "uint256",
          "name": "questId",
          "type": "uint256"
        }
      ],
      "name": "CancelQuest",
      "type": "event"
    },
    {
      "anonymous": false,
      "inputs": [
        {
          "indexed": false,
          "internalType": "uint256",
          "name": "treeId",
          "type": "uint256"
        },
        {
          "indexed": false,
          "internalType": "uint256",
          "name": "questId",
          "type": "uint256"
        }
      ],
      "name": "CompleteQuest",
      "type": "event"
    },
    {
      "anonymous": false,
      "inputs": [
        {
          "indexed": true,
          "internalType": "bytes32",
          "name": "role",
          "type": "bytes32"
        },
        {
          "indexed": true,
          "internalType": "bytes32",
          "name": "previousAdminRole",
          "type": "bytes32"
        },
        {
          "indexed": true,
          "internalType": "bytes32",
          "name": "newAdminRole",
          "type": "bytes32"
        }
      ],
      "name": "RoleAdminChanged",
      "type": "event"
    },
    {
      "anonymous": false,
      "inputs": [
        {
          "indexed": true,
          "internalType": "bytes32",
          "name": "role",
          "type": "bytes32"
        },
        {
          "indexed": true,
          "internalType": "address",
          "name": "account",
          "type": "address"
        },
        {
          "indexed": true,
          "internalType": "address",
          "name": "sender",
          "type": "address"
        }
      ],
      "name": "RoleGranted",
      "type": "event"
    },
    {
      "anonymous": false,
      "inputs": [
        {
          "indexed": true,
          "internalType": "bytes32",
          "name": "role",
          "type": "bytes32"
        },
        {
          "indexed": true,
          "internalType": "address",
          "name": "account",
          "type": "address"
        },
        {
          "indexed": true,
          "internalType": "address",
          "name": "sender",
          "type": "address"
        }
      ],
      "name": "RoleRevoked",
      "type": "event"
    },
    {
      "anonymous": false,
      "inputs": [
        {
          "indexed": false,
          "internalType": "uint256",
          "name": "treeId",
          "type": "uint256"
        },
        {
          "indexed": false,
          "internalType": "uint256",
          "name": "questId",
          "type": "uint256"
        }
      ],
      "name": "StartQuest",
      "type": "event"
    },
    {
      "inputs": [],
      "name": "DEFAULT_ADMIN_ROLE",
      "outputs": [
        {
          "internalType": "bytes32",
          "name": "",
          "type": "bytes32"
        }
      ],
      "stateMutability": "view",
      "type": "function",
      "constant": true
    },
    {
      "inputs": [
        {
          "internalType": "bytes32",
          "name": "role",
          "type": "bytes32"
        }
      ],
      "name": "getRoleAdmin",
      "outputs": [
        {
          "internalType": "bytes32",
          "name": "",
          "type": "bytes32"
        }
      ],
      "stateMutability": "view",
      "type": "function",
      "constant": true
    },
    {
      "inputs": [
        {
          "internalType": "bytes32",
          "name": "role",
          "type": "bytes32"
        },
        {
          "internalType": "address",
          "name": "account",
          "type": "address"
        }
      ],
      "name": "grantRole",
      "outputs": [],
      "stateMutability": "nonpayable",
      "type": "function"
    },
    {
      "inputs": [
        {
          "internalType": "bytes32",
          "name": "role",
          "type": "bytes32"
        },
        {
          "internalType": "address",
          "name": "account",
          "type": "address"
        }
      ],
      "name": "hasRole",
      "outputs": [
        {
          "internalType": "bool",
          "name": "",
          "type": "bool"
        }
      ],
      "stateMutability": "view",
      "type": "function",
      "constant": true
    },
    {
      "inputs": [
        {
          "internalType": "bytes32",
          "name": "role",
          "type": "bytes32"
        },
        {
          "internalType": "address",
          "name": "account",
          "type": "address"
        }
      ],
      "name": "renounceRole",
      "outputs": [],
      "stateMutability": "nonpayable",
      "type": "function"
    },
    {
      "inputs": [
        {
          "internalType": "bytes32",
          "name": "role",
          "type": "bytes32"
        },
        {
          "internalType": "address",
          "name": "account",
          "type": "address"
        }
      ],
      "name": "revokeRole",
      "outputs": [],
      "stateMutability": "nonpayable",
      "type": "function"
    },
    {
      "inputs": [
        {
          "internalType": "bytes4",
          "name": "interfaceId",
          "type": "bytes4"
        }
      ],
      "name": "supportsInterface",
      "outputs": [
        {
          "internalType": "bool",
          "name": "",
          "type": "bool"
        }
      ],
      "stateMutability": "view",
      "type": "function",
      "constant": true
    },
    {
      "inputs": [],
      "name": "initialize",
      "outputs": [],
      "stateMutability": "nonpayable",
      "type": "function"
    },
    {
      "inputs": [],
      "name": "vrf",
      "outputs": [
        {
          "internalType": "bytes32",
          "name": "result",
          "type": "bytes32"
        }
      ],
      "stateMutability": "view",
      "type": "function",
      "constant": true
    },
    {
      "inputs": [
        {
          "internalType": "uint256",
          "name": "treeId",
          "type": "uint256"
        },
        {
          "internalType": "uint256",
          "name": "questId",
          "type": "uint256"
        }
      ],
      "name": "startQuest",
      "outputs": [],
      "stateMutability": "payable",
      "type": "function",
      "payable": true
    },
    {
      "inputs": [
        {
          "internalType": "uint256",
          "name": "treeId",
          "type": "uint256"
        },
        {
          "internalType": "uint256",
          "name": "questId",
          "type": "uint256"
        }
      ],
      "name": "completeQuest",
      "outputs": [],
      "stateMutability": "payable",
      "type": "function",
      "payable": true
    },
    {
      "inputs": [
        {
          "internalType": "uint256",
          "name": "treeId",
          "type": "uint256"
        },
        {
          "internalType": "uint256",
          "name": "questId",
          "type": "uint256"
        }
      ],
      "name": "cancelQuest",
      "outputs": [],
      "stateMutability": "payable",
      "type": "function",
      "payable": true
    },
    {
      "inputs": [
        {
          "internalType": "address",
          "name": "newTreasury",
          "type": "address"
        }
      ],
      "name": "transferTreasuryAddress",
      "outputs": [],
      "stateMutability": "payable",
      "type": "function",
      "payable": true
    },
    {
      "inputs": [
        {
          "internalType": "address",
          "name": "newToken",
          "type": "address"
        }
      ],
      "name": "transferTokenAddress",
      "outputs": [],
      "stateMutability": "payable",
      "type": "function",
      "payable": true
    },
    {
      "inputs": [
        {
          "internalType": "address",
          "name": "newGameItems",
          "type": "address"
        }
      ],
      "name": "transferGameItemsAddress",
      "outputs": [],
      "stateMutability": "payable",
      "type": "function",
      "payable": true
    },
    {
      "inputs": [
        {
          "internalType": "address",
          "name": "newTree",
          "type": "address"
        }
      ],
      "name": "transferTreeAddress",
      "outputs": [],
      "stateMutability": "payable",
      "type": "function",
      "payable": true
    }
  ],
  "bytecode": "0x608060405234801561001057600080fd5b50612e91806100206000396000f3fe6080604052600436106100f35760003560e01c80634a6ed8131161008a578063930e9c2d11610059578063930e9c2d146102cf578063a217fddf146102eb578063c3c33b4014610316578063d547741f14610332576100f3565b80634a6ed813146102435780634ed4d42a1461025f5780638129fc1c1461027b57806391d1485414610292576100f3565b806322cc2243116100c657806322cc224314610198578063248a9ca3146101b45780632f2ff15d146101f157806336568abe1461021a576100f3565b806301ffc9a7146100f8578063098d7500146101355780630c9490431461015157806316f6bca91461017c575b600080fd5b34801561010457600080fd5b5061011f600480360381019061011a9190612371565b61035b565b60405161012c91906123b9565b60405180910390f35b61014f600480360381019061014a9190612432565b6103d5565b005b34801561015d57600080fd5b5061016661042f565b6040516101739190612478565b60405180910390f35b61019660048036038101906101919190612432565b610475565b005b6101b260048036038101906101ad91906124c9565b610532565b005b3480156101c057600080fd5b506101db60048036038101906101d69190612535565b6106e1565b6040516101e89190612478565b60405180910390f35b3480156101fd57600080fd5b5061021860048036038101906102139190612562565b610701565b005b34801561022657600080fd5b50610241600480360381019061023c9190612562565b61072a565b005b61025d60048036038101906102589190612432565b6107ad565b005b61027960048036038101906102749190612432565b61086a565b005b34801561028757600080fd5b50610290610927565b005b34801561029e57600080fd5b506102b960048036038101906102b49190612562565b610a7f565b6040516102c691906123b9565b60405180910390f35b6102e960048036038101906102e491906124c9565b610aea565b005b3480156102f757600080fd5b50610300610c99565b60405161030d9190612478565b60405180910390f35b610330600480360381019061032b91906124c9565b610ca0565b005b34801561033e57600080fd5b5061035960048036038101906103549190612562565b610ef8565b005b60007f7965db0b000000000000000000000000000000000000000000000000000000007bffffffffffffffffffffffffffffffffffffffffffffffffffffffff1916827bffffffffffffffffffffffffffffffffffffffffffffffffffffffff191614806103ce57506103cd82610f21565b5b9050919050565b6000801b6103ea816103e5610f8b565b610f93565b81609760006101000a81548173ffffffffffffffffffffffffffffffffffffffff021916908373ffffffffffffffffffffffffffffffffffffffff1602179055505050565b60006104396122f2565b438160006001811061044e5761044d6125a2565b5b60200201818152505060405160208160208460ff600019fa61046c57fe5b80519250505090565b6000801b61048a81610485610f8b565b610f93565b81609a60006101000a81548173ffffffffffffffffffffffffffffffffffffffff021916908373ffffffffffffffffffffffffffffffffffffffff160217905550609a60009054906101000a900473ffffffffffffffffffffffffffffffffffffffff16609d60006101000a81548173ffffffffffffffffffffffffffffffffffffffff021916908373ffffffffffffffffffffffffffffffffffffffff1602179055505050565b813373ffffffffffffffffffffffffffffffffffffffff16609c60009054906101000a900473ffffffffffffffffffffffffffffffffffffffff1673ffffffffffffffffffffffffffffffffffffffff16636352211e836040518263ffffffff1660e01b81526004016105a591906125e0565b602060405180830381865afa1580156105c2573d6000803e3d6000fd5b505050506040513d601f19601f820116820180604052508101906105e69190612610565b73ffffffffffffffffffffffffffffffffffffffff161461060657600080fd5b6000609c60009054906101000a900473ffffffffffffffffffffffffffffffffffffffff1673ffffffffffffffffffffffffffffffffffffffff1663a5caf0f6856040518263ffffffff1660e01b815260040161066391906125e0565b6020604051808303816000875af1158015610682573d6000803e3d6000fd5b505050506040513d601f19601f820116820180604052508101906106a69190612652565b14156106b157600080fd5b60018214156106c8576106c383611030565b6106dc565b60028214156106db576106da836114fa565b5b5b505050565b600060656000838152602001908152602001600020600101549050919050565b61070a826106e1565b61071b81610716610f8b565b610f93565b6107258383611898565b505050565b610732610f8b565b73ffffffffffffffffffffffffffffffffffffffff168173ffffffffffffffffffffffffffffffffffffffff161461079f576040517f08c379a000000000000000000000000000000000000000000000000000000000815260040161079690612702565b60405180910390fd5b6107a98282611979565b5050565b6000801b6107c2816107bd610f8b565b610f93565b81609860006101000a81548173ffffffffffffffffffffffffffffffffffffffff021916908373ffffffffffffffffffffffffffffffffffffffff160217905550609860009054906101000a900473ffffffffffffffffffffffffffffffffffffffff16609c60006101000a81548173ffffffffffffffffffffffffffffffffffffffff021916908373ffffffffffffffffffffffffffffffffffffffff1602179055505050565b6000801b61087f8161087a610f8b565b610f93565b81609960006101000a81548173ffffffffffffffffffffffffffffffffffffffff021916908373ffffffffffffffffffffffffffffffffffffffff160217905550609960009054906101000a900473ffffffffffffffffffffffffffffffffffffffff16609e60006101000a81548173ffffffffffffffffffffffffffffffffffffffff021916908373ffffffffffffffffffffffffffffffffffffffff1602179055505050565b600060019054906101000a900460ff1661094f5760008054906101000a900460ff1615610958565b610957611a5b565b5b610997576040517f08c379a000000000000000000000000000000000000000000000000000000000815260040161098e90612794565b60405180910390fd5b60008060019054906101000a900460ff1615905080156109e7576001600060016101000a81548160ff02191690831515021790555060016000806101000a81548160ff0219169083151502179055505b73fd768e668a158c173e9549d1632902c2a4363178609760006101000a81548173ffffffffffffffffffffffffffffffffffffffff021916908373ffffffffffffffffffffffffffffffffffffffff1602179055506af8277896582678ac000000609b81905550610a5b6000801b33611a6c565b8015610a7c5760008060016101000a81548160ff0219169083151502179055505b50565b60006065600084815260200190815260200160002060000160008373ffffffffffffffffffffffffffffffffffffffff1673ffffffffffffffffffffffffffffffffffffffff16815260200190815260200160002060009054906101000a900460ff16905092915050565b813373ffffffffffffffffffffffffffffffffffffffff16609c60009054906101000a900473ffffffffffffffffffffffffffffffffffffffff1673ffffffffffffffffffffffffffffffffffffffff16636352211e836040518263ffffffff1660e01b8152600401610b5d91906125e0565b602060405180830381865afa158015610b7a573d6000803e3d6000fd5b505050506040513d601f19601f82011682018060405250810190610b9e9190612610565b73ffffffffffffffffffffffffffffffffffffffff1614610bbe57600080fd5b6000609c60009054906101000a900473ffffffffffffffffffffffffffffffffffffffff1673ffffffffffffffffffffffffffffffffffffffff1663a5caf0f6856040518263ffffffff1660e01b8152600401610c1b91906125e0565b6020604051808303816000875af1158015610c3a573d6000803e3d6000fd5b505050506040513d601f19601f82011682018060405250810190610c5e9190612652565b1415610c6957600080fd5b6001821415610c8057610c7b83611a7a565b610c94565b6002821415610c9357610c9283611bf3565b5b5b505050565b6000801b81565b813373ffffffffffffffffffffffffffffffffffffffff16609c60009054906101000a900473ffffffffffffffffffffffffffffffffffffffff1673ffffffffffffffffffffffffffffffffffffffff16636352211e836040518263ffffffff1660e01b8152600401610d1391906125e0565b602060405180830381865afa158015610d30573d6000803e3d6000fd5b505050506040513d601f19601f82011682018060405250810190610d549190612610565b73ffffffffffffffffffffffffffffffffffffffff1614610d7457600080fd5b6000609c60009054906101000a900473ffffffffffffffffffffffffffffffffffffffff1673ffffffffffffffffffffffffffffffffffffffff1663a5caf0f6856040518263ffffffff1660e01b8152600401610dd191906125e0565b6020604051808303816000875af1158015610df0573d6000803e3d6000fd5b505050506040513d601f19601f82011682018060405250810190610e149190612652565b14610e1e57600080fd5b6000609c60009054906101000a900473ffffffffffffffffffffffffffffffffffffffff1673ffffffffffffffffffffffffffffffffffffffff1663b906866a856040518263ffffffff1660e01b8152600401610e7b91906125e0565b6020604051808303816000875af1158015610e9a573d6000803e3d6000fd5b505050506040513d601f19601f82011682018060405250810190610ebe9190612652565b14610ec857600080fd5b6001821415610edf57610eda83611d6c565b610ef3565b6002821415610ef257610ef183611f01565b5b5b505050565b610f01826106e1565b610f1281610f0d610f8b565b610f93565b610f1c8383611979565b505050565b60007f01ffc9a7000000000000000000000000000000000000000000000000000000007bffffffffffffffffffffffffffffffffffffffffffffffffffffffff1916827bffffffffffffffffffffffffffffffffffffffffffffffffffffffff1916149050919050565b600033905090565b610f9d8282610a7f565b61102c57610fc28173ffffffffffffffffffffffffffffffffffffffff1660146120a3565b610fd08360001c60206120a3565b604051602001610fe19291906128c6565b6040516020818303038152906040526040517f08c379a0000000000000000000000000000000000000000000000000000000008152600401611023919061294a565b60405180910390fd5b5050565b6001609c60009054906101000a900473ffffffffffffffffffffffffffffffffffffffff1673ffffffffffffffffffffffffffffffffffffffff1663b906866a836040518263ffffffff1660e01b815260040161108d91906125e0565b6020604051808303816000875af11580156110ac573d6000803e3d6000fd5b505050506040513d601f19601f820116820180604052508101906110d09190612652565b146110da57600080fd5b609c60009054906101000a900473ffffffffffffffffffffffffffffffffffffffff1673ffffffffffffffffffffffffffffffffffffffff1663a5caf0f6826040518263ffffffff1660e01b815260040161113591906125e0565b6020604051808303816000875af1158015611154573d6000803e3d6000fd5b505050506040513d601f19601f820116820180604052508101906111789190612652565b42101561118457600080fd5b60006064905060006064606e609c60009054906101000a900473ffffffffffffffffffffffffffffffffffffffff1673ffffffffffffffffffffffffffffffffffffffff16637b5aa51d866040518263ffffffff1660e01b81526004016111eb91906125e0565b6020604051808303816000875af115801561120a573d6000803e3d6000fd5b505050506040513d601f19601f8201168201806040525081019061122e9190612652565b670de0b6b3a7640000611241919061299b565b61124b919061299b565b6112559190612a24565b905080609e60009054906101000a900473ffffffffffffffffffffffffffffffffffffffff1673ffffffffffffffffffffffffffffffffffffffff166318160ddd6040518163ffffffff1660e01b8152600401602060405180830381865afa1580156112c5573d6000803e3d6000fd5b505050506040513d601f19601f820116820180604052508101906112e99190612652565b6112f39190612a55565b6b033b2e3c9fd0803ce8000000101561130b57600080fd5b609c60009054906101000a900473ffffffffffffffffffffffffffffffffffffffff1673ffffffffffffffffffffffffffffffffffffffff16632b60b986846000806040518463ffffffff1660e01b815260040161136b93929190612af0565b600060405180830381600087803b15801561138557600080fd5b505af1158015611399573d6000803e3d6000fd5b50505050609c60009054906101000a900473ffffffffffffffffffffffffffffffffffffffff1673ffffffffffffffffffffffffffffffffffffffff16636cad693284846040518363ffffffff1660e01b81526004016113fa929190612b27565b600060405180830381600087803b15801561141457600080fd5b505af1158015611428573d6000803e3d6000fd5b50505050609e60009054906101000a900473ffffffffffffffffffffffffffffffffffffffff1673ffffffffffffffffffffffffffffffffffffffff166340c10f1933836040518363ffffffff1660e01b8152600401611489929190612b5f565b600060405180830381600087803b1580156114a357600080fd5b505af11580156114b7573d6000803e3d6000fd5b505050507f30ee9e16196ba30cdcc7b150805a842d6ee2b4e5f912753ec25aae5a8016c0128360016040516114ed929190612bc3565b60405180910390a1505050565b6002609c60009054906101000a900473ffffffffffffffffffffffffffffffffffffffff1673ffffffffffffffffffffffffffffffffffffffff1663b906866a836040518263ffffffff1660e01b815260040161155791906125e0565b6020604051808303816000875af1158015611576573d6000803e3d6000fd5b505050506040513d601f19601f8201168201806040525081019061159a9190612652565b146115a457600080fd5b609c60009054906101000a900473ffffffffffffffffffffffffffffffffffffffff1673ffffffffffffffffffffffffffffffffffffffff1663a5caf0f6826040518263ffffffff1660e01b81526004016115ff91906125e0565b6020604051808303816000875af115801561161e573d6000803e3d6000fd5b505050506040513d601f19601f820116820180604052508101906116429190612652565b42101561164e57600080fd5b600060649050600061165e61042f565b60405160200161166e9190612c0d565b6040516020818303038152906040528051906020012060001c90506000600a826116989190612c28565b9050609c60009054906101000a900473ffffffffffffffffffffffffffffffffffffffff1673ffffffffffffffffffffffffffffffffffffffff16632b60b986856000806040518463ffffffff1660e01b81526004016116fa93929190612af0565b600060405180830381600087803b15801561171457600080fd5b505af1158015611728573d6000803e3d6000fd5b50505050609c60009054906101000a900473ffffffffffffffffffffffffffffffffffffffff1673ffffffffffffffffffffffffffffffffffffffff16636cad693285856040518363ffffffff1660e01b8152600401611789929190612b27565b600060405180830381600087803b1580156117a357600080fd5b505af11580156117b7573d6000803e3d6000fd5b50505050600081141561185857609d60009054906101000a900473ffffffffffffffffffffffffffffffffffffffff1673ffffffffffffffffffffffffffffffffffffffff1663156e29f633600060016040518463ffffffff1660e01b815260040161182593929190612c59565b600060405180830381600087803b15801561183f57600080fd5b505af1158015611853573d6000803e3d6000fd5b505050505b7f30ee9e16196ba30cdcc7b150805a842d6ee2b4e5f912753ec25aae5a8016c01284600260405161188a929190612ccb565b60405180910390a150505050565b6118a28282610a7f565b6119755760016065600084815260200190815260200160002060000160008373ffffffffffffffffffffffffffffffffffffffff1673ffffffffffffffffffffffffffffffffffffffff16815260200190815260200160002060006101000a81548160ff02191690831515021790555061191a610f8b565b73ffffffffffffffffffffffffffffffffffffffff168173ffffffffffffffffffffffffffffffffffffffff16837f2f8788117e7eff1d82e926ec794901d17c78024a50270940304540a733656f0d60405160405180910390a45b5050565b6119838282610a7f565b15611a575760006065600084815260200190815260200160002060000160008373ffffffffffffffffffffffffffffffffffffffff1673ffffffffffffffffffffffffffffffffffffffff16815260200190815260200160002060006101000a81548160ff0219169083151502179055506119fc610f8b565b73ffffffffffffffffffffffffffffffffffffffff168173ffffffffffffffffffffffffffffffffffffffff16837ff6391f5c32d9c69d2a47ea670b442974b53935d1edc7fd64eb21e047a839171b60405160405180910390a45b5050565b6000611a66306122df565b15905090565b611a768282611898565b5050565b6001609c60009054906101000a900473ffffffffffffffffffffffffffffffffffffffff1673ffffffffffffffffffffffffffffffffffffffff1663b906866a836040518263ffffffff1660e01b8152600401611ad791906125e0565b6020604051808303816000875af1158015611af6573d6000803e3d6000fd5b505050506040513d601f19601f82011682018060405250810190611b1a9190612652565b14611b2457600080fd5b609c60009054906101000a900473ffffffffffffffffffffffffffffffffffffffff1673ffffffffffffffffffffffffffffffffffffffff16632b60b986826000806040518463ffffffff1660e01b8152600401611b8493929190612af0565b600060405180830381600087803b158015611b9e57600080fd5b505af1158015611bb2573d6000803e3d6000fd5b505050507fa176029de55f35a0e3bc1dc9eb8a1c24f3e5c63e42d329733e334a63db95a889816001604051611be8929190612bc3565b60405180910390a150565b6002609c60009054906101000a900473ffffffffffffffffffffffffffffffffffffffff1673ffffffffffffffffffffffffffffffffffffffff1663b906866a836040518263ffffffff1660e01b8152600401611c5091906125e0565b6020604051808303816000875af1158015611c6f573d6000803e3d6000fd5b505050506040513d601f19601f82011682018060405250810190611c939190612652565b14611c9d57600080fd5b609c60009054906101000a900473ffffffffffffffffffffffffffffffffffffffff1673ffffffffffffffffffffffffffffffffffffffff16632b60b986826000806040518463ffffffff1660e01b8152600401611cfd93929190612af0565b600060405180830381600087803b158015611d1757600080fd5b505af1158015611d2b573d6000803e3d6000fd5b505050507fa176029de55f35a0e3bc1dc9eb8a1c24f3e5c63e42d329733e334a63db95a889816002604051611d61929190612ccb565b60405180910390a150565b60006001609c60009054906101000a900473ffffffffffffffffffffffffffffffffffffffff1673ffffffffffffffffffffffffffffffffffffffff1663364051a6846040518263ffffffff1660e01b8152600401611dcb91906125e0565b6020604051808303816000875af1158015611dea573d6000803e3d6000fd5b505050506040513d601f19601f82011682018060405250810190611e0e9190612652565b611e18919061299b565b603c611e249190612cf4565b9050609c60009054906101000a900473ffffffffffffffffffffffffffffffffffffffff1673ffffffffffffffffffffffffffffffffffffffff16632b60b9868360018442611e739190612a55565b6040518463ffffffff1660e01b8152600401611e9193929190612d28565b600060405180830381600087803b158015611eab57600080fd5b505af1158015611ebf573d6000803e3d6000fd5b505050507ff4489fbfe0edc46e6905e1f77d624c12bcd689709fdd138371d8a7edf52f5e5d826001604051611ef5929190612bc3565b60405180910390a15050565b6000603c6001609c60009054906101000a900473ffffffffffffffffffffffffffffffffffffffff1673ffffffffffffffffffffffffffffffffffffffff1663364051a6856040518263ffffffff1660e01b8152600401611f6291906125e0565b6020604051808303816000875af1158015611f81573d6000803e3d6000fd5b505050506040513d601f19601f82011682018060405250810190611fa59190612652565b611faf919061299b565b611fb9919061299b565b610258611fc69190612cf4565b9050609c60009054906101000a900473ffffffffffffffffffffffffffffffffffffffff1673ffffffffffffffffffffffffffffffffffffffff16632b60b98683600284426120159190612a55565b6040518463ffffffff1660e01b815260040161203393929190612d5f565b600060405180830381600087803b15801561204d57600080fd5b505af1158015612061573d6000803e3d6000fd5b505050507ff4489fbfe0edc46e6905e1f77d624c12bcd689709fdd138371d8a7edf52f5e5d826002604051612097929190612ccb565b60405180910390a15050565b6060600060028360026120b6919061299b565b6120c09190612a55565b67ffffffffffffffff8111156120d9576120d8612d96565b5b6040519080825280601f01601f19166020018201604052801561210b5781602001600182028036833780820191505090505b5090507f300000000000000000000000000000000000000000000000000000000000000081600081518110612143576121426125a2565b5b60200101907effffffffffffffffffffffffffffffffffffffffffffffffffffffffffffff1916908160001a9053507f7800000000000000000000000000000000000000000000000000000000000000816001815181106121a7576121a66125a2565b5b60200101907effffffffffffffffffffffffffffffffffffffffffffffffffffffffffffff1916908160001a905350600060018460026121e7919061299b565b6121f19190612a55565b90505b6001811115612291577f3031323334353637383961626364656600000000000000000000000000000000600f861660108110612233576122326125a2565b5b1a60f81b82828151811061224a576122496125a2565b5b60200101907effffffffffffffffffffffffffffffffffffffffffffffffffffffffffffff1916908160001a905350600485901c94508061228a90612dc5565b90506121f4565b50600084146122d5576040517f08c379a00000000000000000000000000000000000000000000000000000000081526004016122cc90612e3b565b60405180910390fd5b8091505092915050565b600080823b905060008111915050919050565b6040518060200160405280600190602082028036833780820191505090505090565b600080fd5b60007fffffffff0000000000000000000000000000000000000000000000000000000082169050919050565b61234e81612319565b811461235957600080fd5b50565b60008135905061236b81612345565b92915050565b60006020828403121561238757612386612314565b5b60006123958482850161235c565b91505092915050565b60008115159050919050565b6123b38161239e565b82525050565b60006020820190506123ce60008301846123aa565b92915050565b600073ffffffffffffffffffffffffffffffffffffffff82169050919050565b60006123ff826123d4565b9050919050565b61240f816123f4565b811461241a57600080fd5b50565b60008135905061242c81612406565b92915050565b60006020828403121561244857612447612314565b5b60006124568482850161241d565b91505092915050565b6000819050919050565b6124728161245f565b82525050565b600060208201905061248d6000830184612469565b92915050565b6000819050919050565b6124a681612493565b81146124b157600080fd5b50565b6000813590506124c38161249d565b92915050565b600080604083850312156124e0576124df612314565b5b60006124ee858286016124b4565b92505060206124ff858286016124b4565b9150509250929050565b6125128161245f565b811461251d57600080fd5b50565b60008135905061252f81612509565b92915050565b60006020828403121561254b5761254a612314565b5b600061255984828501612520565b91505092915050565b6000806040838503121561257957612578612314565b5b600061258785828601612520565b92505060206125988582860161241d565b9150509250929050565b7f4e487b7100000000000000000000000000000000000000000000000000000000600052603260045260246000fd5b6125da81612493565b82525050565b60006020820190506125f560008301846125d1565b92915050565b60008151905061260a81612406565b92915050565b60006020828403121561262657612625612314565b5b6000612634848285016125fb565b91505092915050565b60008151905061264c8161249d565b92915050565b60006020828403121561266857612667612314565b5b60006126768482850161263d565b91505092915050565b600082825260208201905092915050565b7f416363657373436f6e74726f6c3a2063616e206f6e6c792072656e6f756e636560008201527f20726f6c657320666f722073656c660000000000000000000000000000000000602082015250565b60006126ec602f8361267f565b91506126f782612690565b604082019050919050565b6000602082019050818103600083015261271b816126df565b9050919050565b7f496e697469616c697a61626c653a20636f6e747261637420697320616c72656160008201527f647920696e697469616c697a6564000000000000000000000000000000000000602082015250565b600061277e602e8361267f565b915061278982612722565b604082019050919050565b600060208201905081810360008301526127ad81612771565b9050919050565b600081905092915050565b7f416363657373436f6e74726f6c3a206163636f756e7420000000000000000000600082015250565b60006127f56017836127b4565b9150612800826127bf565b601782019050919050565b600081519050919050565b60005b83811015612834578082015181840152602081019050612819565b83811115612843576000848401525b50505050565b60006128548261280b565b61285e81856127b4565b935061286e818560208601612816565b80840191505092915050565b7f206973206d697373696e6720726f6c6520000000000000000000000000000000600082015250565b60006128b06011836127b4565b91506128bb8261287a565b601182019050919050565b60006128d1826127e8565b91506128dd8285612849565b91506128e8826128a3565b91506128f48284612849565b91508190509392505050565b6000601f19601f8301169050919050565b600061291c8261280b565b612926818561267f565b9350612936818560208601612816565b61293f81612900565b840191505092915050565b600060208201905081810360008301526129648184612911565b905092915050565b7f4e487b7100000000000000000000000000000000000000000000000000000000600052601160045260246000fd5b60006129a682612493565b91506129b183612493565b9250817fffffffffffffffffffffffffffffffffffffffffffffffffffffffffffffffff04831182151516156129ea576129e961296c565b5b828202905092915050565b7f4e487b7100000000000000000000000000000000000000000000000000000000600052601260045260246000fd5b6000612a2f82612493565b9150612a3a83612493565b925082612a4a57612a496129f5565b5b828204905092915050565b6000612a6082612493565b9150612a6b83612493565b9250827fffffffffffffffffffffffffffffffffffffffffffffffffffffffffffffffff03821115612aa057612a9f61296c565b5b828201905092915050565b6000819050919050565b6000819050919050565b6000612ada612ad5612ad084612aab565b612ab5565b612493565b9050919050565b612aea81612abf565b82525050565b6000606082019050612b0560008301866125d1565b612b126020830185612ae1565b612b1f6040830184612ae1565b949350505050565b6000604082019050612b3c60008301856125d1565b612b4960208301846125d1565b9392505050565b612b59816123f4565b82525050565b6000604082019050612b746000830185612b50565b612b8160208301846125d1565b9392505050565b6000819050919050565b6000612bad612ba8612ba384612b88565b612ab5565b612493565b9050919050565b612bbd81612b92565b82525050565b6000604082019050612bd860008301856125d1565b612be56020830184612bb4565b9392505050565b6000819050919050565b612c07612c028261245f565b612bec565b82525050565b6000612c198284612bf6565b60208201915081905092915050565b6000612c3382612493565b9150612c3e83612493565b925082612c4e57612c4d6129f5565b5b828206905092915050565b6000606082019050612c6e6000830186612b50565b612c7b6020830185612ae1565b612c886040830184612bb4565b949350505050565b6000819050919050565b6000612cb5612cb0612cab84612c90565b612ab5565b612493565b9050919050565b612cc581612c9a565b82525050565b6000604082019050612ce060008301856125d1565b612ced6020830184612cbc565b9392505050565b6000612cff82612493565b9150612d0a83612493565b925082821015612d1d57612d1c61296c565b5b828203905092915050565b6000606082019050612d3d60008301866125d1565b612d4a6020830185612bb4565b612d5760408301846125d1565b949350505050565b6000606082019050612d7460008301866125d1565b612d816020830185612cbc565b612d8e60408301846125d1565b949350505050565b7f4e487b7100000000000000000000000000000000000000000000000000000000600052604160045260246000fd5b6000612dd082612493565b91506000821415612de457612de361296c565b5b600182039050919050565b7f537472696e67733a20686578206c656e67746820696e73756666696369656e74600082015250565b6000612e2560208361267f565b9150612e3082612def565b602082019050919050565b60006020820190508181036000830152612e5481612e18565b905091905056fea2646970667358221220822ab971506db7692b8c78daa56665fc2b916b36d0624cc9956dada271f4925464736f6c634300080b0033",
  "immutableReferences": {},
  "source": "// SPDX-License-Identifier: UNLICENSED\r\n\r\npragma solidity ^0.8.3;\r\nimport \"./AbstractTree.sol\";\r\nimport \"./AbstractGameItems.sol\";\r\nimport \"./AbstractPudu.sol\";\r\nimport \"../node_modules/@openzeppelin/contracts-upgradeable/access/AccessControlUpgradeable.sol\";\r\nimport \"../node_modules/@openzeppelin/contracts/token/ERC20/IERC20.sol\";\r\nimport \"../node_modules/@openzeppelin/contracts-upgradeable/proxy/utils/Initializable.sol\";\r\n\r\ncontract TreeQuests is Initializable, AccessControlUpgradeable {\r\n\r\n    event StartQuest(uint treeId, uint questId);\r\n    event CompleteQuest(uint treeId, uint questId);\r\n    event CancelQuest(uint treeId, uint questId);\r\n\r\n    address TreasuryAddress;\r\n    address TreeAddress;\r\n    address TokenAddress;\r\n    address GameItemsAddress;\r\n\r\n    uint totalTreasuryBalance;\r\n\r\n    AbstractTree tree;\r\n    AbstractGameItems gameItems;\r\n    AbstractPudu pudu;\r\n\r\n    modifier onlyOwnerOf(uint _treeId) {\r\n        require(tree.ownerOf(_treeId) == msg.sender);\r\n        _;\r\n    }\r\n\r\n    function initialize() initializer public {\r\n        TreasuryAddress = 0xfd768E668A158C173e9549d1632902C2A4363178;\r\n\r\n        totalTreasuryBalance = (1000000000*30*(10**18))/100;\r\n        _setupRole(DEFAULT_ADMIN_ROLE, msg.sender);\r\n    }\r\n    \r\n    // Util functions\r\n\r\n    function vrf() public view returns (bytes32 result) {\r\n        uint[1] memory bn;\r\n        bn[0] = block.number;\r\n        assembly {\r\n            let memPtr := mload(0x40)\r\n            if iszero(staticcall(not(0), 0xff, bn, 0x20, memPtr, 0x20)) {\r\n                invalid()\r\n            }\r\n            result := mload(memPtr)\r\n        }\r\n    }\r\n\r\n    //Payable Functions\r\n\r\n    function startQuest(uint treeId, uint questId) public payable onlyOwnerOf(treeId) {\r\n        require(tree.actionStatus(treeId) == 0);\r\n        require(tree.currentAction(treeId) == 0);\r\n        if (questId == 1) {\r\n            startQuest1(treeId);\r\n        } else if (questId == 2) {\r\n            startQuest2(treeId);\r\n        }\r\n    }\r\n\r\n    function completeQuest(uint treeId, uint questId) public payable onlyOwnerOf(treeId) {\r\n        require(tree.actionStatus(treeId) != 0);\r\n        if (questId == 1) {\r\n            completeQuest1(treeId);\r\n        } else if (questId == 2) {\r\n            completeQuest2(treeId);\r\n        }\r\n    }\r\n\r\n    function cancelQuest(uint treeId, uint questId) public payable onlyOwnerOf(treeId) {\r\n        require(tree.actionStatus(treeId) != 0);\r\n        if (questId == 1) {\r\n            cancelQuest1(treeId);\r\n        } else if (questId == 2) {\r\n            cancelQuest2(treeId);\r\n        }\r\n    }\r\n\r\n    function startQuest1(uint treeId) internal {\r\n        uint questDuration = 1*60 - tree.treeBranches(treeId)*1;\r\n        tree.updateAction(treeId, 1, block.timestamp+questDuration);\r\n        emit StartQuest(treeId, 1);\r\n    }\r\n\r\n    function completeQuest1(uint treeId) internal {\r\n        require(tree.currentAction(treeId) == 1);\r\n        require(block.timestamp >= tree.actionStatus(treeId));\r\n\r\n        uint expReward = 100;\r\n        uint tokenReward = (10**18)*tree.treeRoots(treeId)*110/100;\r\n        require(1000000000*10**18 >= pudu.totalSupply()+tokenReward);\r\n\r\n        tree.updateAction(treeId, 0, 0);\r\n        tree.gainExp(treeId, expReward);\r\n        pudu.mint(msg.sender, tokenReward);\r\n\r\n        emit CompleteQuest(treeId, 1);\r\n\r\n    }\r\n\r\n    function cancelQuest1(uint treeId) internal {\r\n        require(tree.currentAction(treeId) == 1);\r\n        tree.updateAction(treeId, 0, 0);\r\n        emit CancelQuest(treeId, 1);\r\n\r\n    }\r\n\r\n    function startQuest2(uint treeId) internal {\r\n        uint questDuration = 10*60 - tree.treeBranches(treeId)*1*60;\r\n        tree.updateAction(treeId, 2, block.timestamp+questDuration);\r\n        emit StartQuest(treeId, 2);\r\n    }\r\n\r\n    function completeQuest2(uint treeId) internal {\r\n        require(tree.currentAction(treeId) == 2);\r\n        require(block.timestamp >= tree.actionStatus(treeId));\r\n\r\n        uint expReward = 100;\r\n        uint rand = uint(keccak256(abi.encodePacked(vrf())));\r\n        uint chance = rand%10;\r\n        tree.updateAction(treeId, 0, 0);\r\n        tree.gainExp(treeId, expReward);\r\n        if (chance == 0) {\r\n            gameItems.mint(msg.sender, 0, 1);\r\n        }\r\n        emit CompleteQuest(treeId, 2);\r\n\r\n    }\r\n\r\n    function cancelQuest2(uint treeId) internal {\r\n        require(tree.currentAction(treeId) == 2);\r\n        tree.updateAction(treeId, 0, 0);\r\n        emit CancelQuest(treeId, 2);\r\n\r\n    }\r\n\r\n    //Transfer functions\r\n\r\n    function transferTreasuryAddress(address newTreasury) public payable onlyRole(DEFAULT_ADMIN_ROLE) {\r\n        TreasuryAddress = newTreasury;\r\n    }\r\n\r\n    function transferTokenAddress(address newToken) public payable onlyRole(DEFAULT_ADMIN_ROLE) {\r\n        TokenAddress = newToken;\r\n        pudu = AbstractPudu(TokenAddress);\r\n    }\r\n\r\n    function transferGameItemsAddress(address newGameItems) public payable onlyRole(DEFAULT_ADMIN_ROLE) {\r\n        GameItemsAddress = newGameItems;\r\n        gameItems = AbstractGameItems(GameItemsAddress);\r\n    }\r\n\r\n    function transferTreeAddress(address newTree) public payable onlyRole(DEFAULT_ADMIN_ROLE) {\r\n        TreeAddress = newTree;\r\n        tree = AbstractTree(TreeAddress);\r\n    }\r\n\r\n}",
  "sourcePath": "C:\\Users\\jtsch\\OneDrive\\Escritorio\\Python\\SmartContracts-NFT-Agus\\contracts\\TreeQuests.sol",
  "compiler": {
    "name": "solc",
    "version": "0.8.11+commit.d7f03943.Emscripten.clang"
  },
  "schemaVersion": "3.4.3",
  "updatedAt": "2022-02-05T11:28:51.664Z",
  "networkType": "ethereum",
  "devdoc": {
    "kind": "dev",
    "methods": {
      "getRoleAdmin(bytes32)": {
        "details": "Returns the admin role that controls `role`. See {grantRole} and {revokeRole}. To change a role's admin, use {_setRoleAdmin}."
      },
      "grantRole(bytes32,address)": {
        "details": "Grants `role` to `account`. If `account` had not been already granted `role`, emits a {RoleGranted} event. Requirements: - the caller must have ``role``'s admin role."
      },
      "hasRole(bytes32,address)": {
        "details": "Returns `true` if `account` has been granted `role`."
      },
      "renounceRole(bytes32,address)": {
        "details": "Revokes `role` from the calling account. Roles are often managed via {grantRole} and {revokeRole}: this function's purpose is to provide a mechanism for accounts to lose their privileges if they are compromised (such as when a trusted device is misplaced). If the calling account had been revoked `role`, emits a {RoleRevoked} event. Requirements: - the caller must be `account`."
      },
      "revokeRole(bytes32,address)": {
        "details": "Revokes `role` from `account`. If `account` had been granted `role`, emits a {RoleRevoked} event. Requirements: - the caller must have ``role``'s admin role."
      },
      "supportsInterface(bytes4)": {
        "details": "See {IERC165-supportsInterface}."
      }
    },
    "version": 1
  },
  "userdoc": {
    "kind": "user",
    "methods": {},
    "version": 1
  }
}