{
  "contractName": "Tree",
  "abi": [
    {
      "anonymous": false,
      "inputs": [
        {
          "indexed": true,
          "internalType": "address",
          "name": "owner",
          "type": "address"
        },
        {
          "indexed": true,
          "internalType": "address",
          "name": "approved",
          "type": "address"
        },
        {
          "indexed": true,
          "internalType": "uint256",
          "name": "tokenId",
          "type": "uint256"
        }
      ],
      "name": "Approval",
      "type": "event"
    },
    {
      "anonymous": false,
      "inputs": [
        {
          "indexed": true,
          "internalType": "address",
          "name": "owner",
          "type": "address"
        },
        {
          "indexed": true,
          "internalType": "address",
          "name": "operator",
          "type": "address"
        },
        {
          "indexed": false,
          "internalType": "bool",
          "name": "approved",
          "type": "bool"
        }
      ],
      "name": "ApprovalForAll",
      "type": "event"
    },
    {
      "anonymous": false,
      "inputs": [
        {
          "indexed": false,
          "internalType": "uint256",
          "name": "treeId",
          "type": "uint256"
        },
        {
          "indexed": false,
          "internalType": "uint256",
          "name": "amount",
          "type": "uint256"
        }
      ],
      "name": "GainExp",
      "type": "event"
    },
    {
      "anonymous": false,
      "inputs": [
        {
          "indexed": false,
          "internalType": "uint256",
          "name": "treeId",
          "type": "uint256"
        }
      ],
      "name": "GainLevel",
      "type": "event"
    },
    {
      "anonymous": false,
      "inputs": [
        {
          "indexed": false,
          "internalType": "uint256",
          "name": "treeId",
          "type": "uint256"
        }
      ],
      "name": "NewTree",
      "type": "event"
    },
    {
      "anonymous": false,
      "inputs": [
        {
          "indexed": true,
          "internalType": "bytes32",
          "name": "role",
          "type": "bytes32"
        },
        {
          "indexed": true,
          "internalType": "bytes32",
          "name": "previousAdminRole",
          "type": "bytes32"
        },
        {
          "indexed": true,
          "internalType": "bytes32",
          "name": "newAdminRole",
          "type": "bytes32"
        }
      ],
      "name": "RoleAdminChanged",
      "type": "event"
    },
    {
      "anonymous": false,
      "inputs": [
        {
          "indexed": true,
          "internalType": "bytes32",
          "name": "role",
          "type": "bytes32"
        },
        {
          "indexed": true,
          "internalType": "address",
          "name": "account",
          "type": "address"
        },
        {
          "indexed": true,
          "internalType": "address",
          "name": "sender",
          "type": "address"
        }
      ],
      "name": "RoleGranted",
      "type": "event"
    },
    {
      "anonymous": false,
      "inputs": [
        {
          "indexed": true,
          "internalType": "bytes32",
          "name": "role",
          "type": "bytes32"
        },
        {
          "indexed": true,
          "internalType": "address",
          "name": "account",
          "type": "address"
        },
        {
          "indexed": true,
          "internalType": "address",
          "name": "sender",
          "type": "address"
        }
      ],
      "name": "RoleRevoked",
      "type": "event"
    },
    {
      "anonymous": false,
      "inputs": [
        {
          "indexed": false,
          "internalType": "uint256",
          "name": "treeId",
          "type": "uint256"
        },
        {
          "indexed": false,
          "internalType": "uint256",
          "name": "statId",
          "type": "uint256"
        }
      ],
      "name": "StatLevelUp",
      "type": "event"
    },
    {
      "anonymous": false,
      "inputs": [
        {
          "indexed": true,
          "internalType": "address",
          "name": "from",
          "type": "address"
        },
        {
          "indexed": true,
          "internalType": "address",
          "name": "to",
          "type": "address"
        },
        {
          "indexed": true,
          "internalType": "uint256",
          "name": "tokenId",
          "type": "uint256"
        }
      ],
      "name": "Transfer",
      "type": "event"
    },
    {
      "inputs": [],
      "name": "DEFAULT_ADMIN_ROLE",
      "outputs": [
        {
          "internalType": "bytes32",
          "name": "",
          "type": "bytes32"
        }
      ],
      "stateMutability": "view",
      "type": "function"
    },
    {
      "inputs": [],
      "name": "QUEST_ROLE",
      "outputs": [
        {
          "internalType": "bytes32",
          "name": "",
          "type": "bytes32"
        }
      ],
      "stateMutability": "view",
      "type": "function"
    },
    {
      "inputs": [],
      "name": "UPG_ROLE",
      "outputs": [
        {
          "internalType": "bytes32",
          "name": "",
          "type": "bytes32"
        }
      ],
      "stateMutability": "view",
      "type": "function"
    },
    {
      "inputs": [
        {
          "internalType": "address",
          "name": "to",
          "type": "address"
        },
        {
          "internalType": "uint256",
          "name": "tokenId",
          "type": "uint256"
        }
      ],
      "name": "approve",
      "outputs": [],
      "stateMutability": "nonpayable",
      "type": "function"
    },
    {
      "inputs": [
        {
          "internalType": "address",
          "name": "owner",
          "type": "address"
        }
      ],
      "name": "balanceOf",
      "outputs": [
        {
          "internalType": "uint256",
          "name": "",
          "type": "uint256"
        }
      ],
      "stateMutability": "view",
      "type": "function"
    },
    {
      "inputs": [
        {
          "internalType": "uint256",
          "name": "tokenId",
          "type": "uint256"
        }
      ],
      "name": "getApproved",
      "outputs": [
        {
          "internalType": "address",
          "name": "",
          "type": "address"
        }
      ],
      "stateMutability": "view",
      "type": "function"
    },
    {
      "inputs": [
        {
          "internalType": "bytes32",
          "name": "role",
          "type": "bytes32"
        }
      ],
      "name": "getRoleAdmin",
      "outputs": [
        {
          "internalType": "bytes32",
          "name": "",
          "type": "bytes32"
        }
      ],
      "stateMutability": "view",
      "type": "function"
    },
    {
      "inputs": [
        {
          "internalType": "bytes32",
          "name": "role",
          "type": "bytes32"
        },
        {
          "internalType": "address",
          "name": "account",
          "type": "address"
        }
      ],
      "name": "grantRole",
      "outputs": [],
      "stateMutability": "nonpayable",
      "type": "function"
    },
    {
      "inputs": [
        {
          "internalType": "bytes32",
          "name": "role",
          "type": "bytes32"
        },
        {
          "internalType": "address",
          "name": "account",
          "type": "address"
        }
      ],
      "name": "hasRole",
      "outputs": [
        {
          "internalType": "bool",
          "name": "",
          "type": "bool"
        }
      ],
      "stateMutability": "view",
      "type": "function"
    },
    {
      "inputs": [
        {
          "internalType": "address",
          "name": "owner",
          "type": "address"
        },
        {
          "internalType": "address",
          "name": "operator",
          "type": "address"
        }
      ],
      "name": "isApprovedForAll",
      "outputs": [
        {
          "internalType": "bool",
          "name": "",
          "type": "bool"
        }
      ],
      "stateMutability": "view",
      "type": "function"
    },
    {
      "inputs": [],
      "name": "name",
      "outputs": [
        {
          "internalType": "string",
          "name": "",
          "type": "string"
        }
      ],
      "stateMutability": "view",
      "type": "function"
    },
    {
      "inputs": [
        {
          "internalType": "uint256",
          "name": "tokenId",
          "type": "uint256"
        }
      ],
      "name": "ownerOf",
      "outputs": [
        {
          "internalType": "address",
          "name": "",
          "type": "address"
        }
      ],
      "stateMutability": "view",
      "type": "function"
    },
    {
      "inputs": [
        {
          "internalType": "bytes32",
          "name": "role",
          "type": "bytes32"
        },
        {
          "internalType": "address",
          "name": "account",
          "type": "address"
        }
      ],
      "name": "renounceRole",
      "outputs": [],
      "stateMutability": "nonpayable",
      "type": "function"
    },
    {
      "inputs": [
        {
          "internalType": "bytes32",
          "name": "role",
          "type": "bytes32"
        },
        {
          "internalType": "address",
          "name": "account",
          "type": "address"
        }
      ],
      "name": "revokeRole",
      "outputs": [],
      "stateMutability": "nonpayable",
      "type": "function"
    },
    {
      "inputs": [
        {
          "internalType": "address",
          "name": "from",
          "type": "address"
        },
        {
          "internalType": "address",
          "name": "to",
          "type": "address"
        },
        {
          "internalType": "uint256",
          "name": "tokenId",
          "type": "uint256"
        }
      ],
      "name": "safeTransferFrom",
      "outputs": [],
      "stateMutability": "nonpayable",
      "type": "function"
    },
    {
      "inputs": [
        {
          "internalType": "address",
          "name": "from",
          "type": "address"
        },
        {
          "internalType": "address",
          "name": "to",
          "type": "address"
        },
        {
          "internalType": "uint256",
          "name": "tokenId",
          "type": "uint256"
        },
        {
          "internalType": "bytes",
          "name": "_data",
          "type": "bytes"
        }
      ],
      "name": "safeTransferFrom",
      "outputs": [],
      "stateMutability": "nonpayable",
      "type": "function"
    },
    {
      "inputs": [
        {
          "internalType": "address",
          "name": "operator",
          "type": "address"
        },
        {
          "internalType": "bool",
          "name": "approved",
          "type": "bool"
        }
      ],
      "name": "setApprovalForAll",
      "outputs": [],
      "stateMutability": "nonpayable",
      "type": "function"
    },
    {
      "inputs": [],
      "name": "symbol",
      "outputs": [
        {
          "internalType": "string",
          "name": "",
          "type": "string"
        }
      ],
      "stateMutability": "view",
      "type": "function"
    },
    {
      "inputs": [
        {
          "internalType": "uint256",
          "name": "tokenId",
          "type": "uint256"
        }
      ],
      "name": "tokenURI",
      "outputs": [
        {
          "internalType": "string",
          "name": "",
          "type": "string"
        }
      ],
      "stateMutability": "view",
      "type": "function"
    },
    {
      "inputs": [
        {
          "internalType": "address",
          "name": "from",
          "type": "address"
        },
        {
          "internalType": "address",
          "name": "to",
          "type": "address"
        },
        {
          "internalType": "uint256",
          "name": "tokenId",
          "type": "uint256"
        }
      ],
      "name": "transferFrom",
      "outputs": [],
      "stateMutability": "nonpayable",
      "type": "function"
    },
    {
      "inputs": [
        {
          "internalType": "bytes4",
          "name": "interfaceId",
          "type": "bytes4"
        }
      ],
      "name": "supportsInterface",
      "outputs": [
        {
          "internalType": "bool",
          "name": "",
          "type": "bool"
        }
      ],
      "stateMutability": "view",
      "type": "function"
    },
    {
      "inputs": [],
      "name": "initialize",
      "outputs": [],
      "stateMutability": "nonpayable",
      "type": "function"
    },
    {
      "inputs": [],
      "name": "vrf",
      "outputs": [
        {
          "internalType": "bytes32",
          "name": "result",
          "type": "bytes32"
        }
      ],
      "stateMutability": "view",
      "type": "function"
    },
    {
      "inputs": [
        {
          "internalType": "uint256",
          "name": "treeId",
          "type": "uint256"
        }
      ],
      "name": "getTree",
      "outputs": [
        {
          "internalType": "uint256",
          "name": "",
          "type": "uint256"
        },
        {
          "internalType": "uint256",
          "name": "",
          "type": "uint256"
        },
        {
          "internalType": "uint256",
          "name": "",
          "type": "uint256"
        },
        {
          "internalType": "uint256",
          "name": "",
          "type": "uint256"
        },
        {
          "internalType": "uint256",
          "name": "",
          "type": "uint256"
        },
        {
          "internalType": "uint256",
          "name": "",
          "type": "uint256"
        },
        {
          "internalType": "uint256",
          "name": "",
          "type": "uint256"
        }
      ],
      "stateMutability": "view",
      "type": "function"
    },
    {
      "inputs": [
        {
          "internalType": "uint256",
          "name": "treeId",
          "type": "uint256"
        }
      ],
      "name": "getBranches",
      "outputs": [
        {
          "internalType": "uint256",
          "name": "",
          "type": "uint256"
        }
      ],
      "stateMutability": "view",
      "type": "function"
    },
    {
      "inputs": [
        {
          "internalType": "uint256",
          "name": "treeId",
          "type": "uint256"
        }
      ],
      "name": "getRoots",
      "outputs": [
        {
          "internalType": "uint256",
          "name": "",
          "type": "uint256"
        }
      ],
      "stateMutability": "view",
      "type": "function"
    },
    {
      "inputs": [
        {
          "internalType": "uint256",
          "name": "treeId",
          "type": "uint256"
        }
      ],
      "name": "getLevel",
      "outputs": [
        {
          "internalType": "uint256",
          "name": "",
          "type": "uint256"
        }
      ],
      "stateMutability": "view",
      "type": "function"
    },
    {
      "inputs": [
        {
          "internalType": "uint256",
          "name": "treeId",
          "type": "uint256"
        }
      ],
      "name": "getExp",
      "outputs": [
        {
          "internalType": "uint256",
          "name": "",
          "type": "uint256"
        }
      ],
      "stateMutability": "view",
      "type": "function"
    },
    {
      "inputs": [
        {
          "internalType": "uint256",
          "name": "treeId",
          "type": "uint256"
        }
      ],
      "name": "getAction",
      "outputs": [
        {
          "internalType": "uint256",
          "name": "",
          "type": "uint256"
        }
      ],
      "stateMutability": "view",
      "type": "function"
    },
    {
      "inputs": [
        {
          "internalType": "uint256",
          "name": "treeId",
          "type": "uint256"
        }
      ],
      "name": "getActionUntil",
      "outputs": [
        {
          "internalType": "uint256",
          "name": "",
          "type": "uint256"
        }
      ],
      "stateMutability": "view",
      "type": "function"
    },
    {
      "inputs": [],
      "name": "currentPrice",
      "outputs": [
        {
          "internalType": "uint256",
          "name": "",
          "type": "uint256"
        }
      ],
      "stateMutability": "view",
      "type": "function"
    },
    {
      "inputs": [],
      "name": "getTreeQuantities",
      "outputs": [
        {
          "internalType": "uint256",
          "name": "",
          "type": "uint256"
        }
      ],
      "stateMutability": "view",
      "type": "function"
    },
    {
      "inputs": [
        {
          "internalType": "uint256",
          "name": "treeId",
          "type": "uint256"
        },
        {
          "internalType": "address",
          "name": "user",
          "type": "address"
        }
      ],
      "name": "gainLevel",
      "outputs": [],
      "stateMutability": "nonpayable",
      "type": "function"
    },
    {
      "inputs": [
        {
          "internalType": "uint256",
          "name": "treeId",
          "type": "uint256"
        },
        {
          "internalType": "uint256",
          "name": "amount",
          "type": "uint256"
        }
      ],
      "name": "gainExp",
      "outputs": [],
      "stateMutability": "nonpayable",
      "type": "function"
    },
    {
      "inputs": [
        {
          "internalType": "uint256",
          "name": "treeId",
          "type": "uint256"
        },
        {
          "internalType": "address",
          "name": "user",
          "type": "address"
        }
      ],
      "name": "levelUpBranches",
      "outputs": [],
      "stateMutability": "nonpayable",
      "type": "function"
    },
    {
      "inputs": [
        {
          "internalType": "uint256",
          "name": "treeId",
          "type": "uint256"
        },
        {
          "internalType": "address",
          "name": "user",
          "type": "address"
        }
      ],
      "name": "levelUpRoots",
      "outputs": [],
      "stateMutability": "nonpayable",
      "type": "function"
    },
    {
      "inputs": [
        {
          "internalType": "uint256",
          "name": "treeId",
          "type": "uint256"
        },
        {
          "internalType": "uint256",
          "name": "action",
          "type": "uint256"
        },
        {
          "internalType": "uint256",
          "name": "time",
          "type": "uint256"
        }
      ],
      "name": "updateAction",
      "outputs": [],
      "stateMutability": "nonpayable",
      "type": "function"
    },
    {
      "inputs": [],
      "name": "createNewTree",
      "outputs": [],
      "stateMutability": "payable",
      "type": "function"
    },
    {
      "inputs": [
        {
          "internalType": "address payable",
          "name": "newDevelopment",
          "type": "address"
        }
      ],
      "name": "transferDevelopmentAddress",
      "outputs": [],
      "stateMutability": "nonpayable",
      "type": "function"
    },
    {
      "inputs": [
        {
          "internalType": "address payable",
          "name": "newTreasury",
          "type": "address"
        }
      ],
      "name": "transferTreasuryAddress",
      "outputs": [],
      "stateMutability": "nonpayable",
      "type": "function"
    },
    {
      "inputs": [
        {
          "internalType": "address",
          "name": "newToken",
          "type": "address"
        }
      ],
      "name": "transferTokenAddress",
      "outputs": [],
      "stateMutability": "nonpayable",
      "type": "function"
    }
  ],
  "bytecode": "0x608060405234801561001057600080fd5b506154ad806100206000396000f3fe6080604052600436106102455760003560e01c80636cad6932116101395780639dcb26e6116100b6578063b88d4fde1161007a578063b88d4fde146108a0578063c87b56dd146108c9578063d547741f14610906578063d56e21011461092f578063e498922f14610972578063e985e9c5146109af57610245565b80639dcb26e6146107bb578063a217fddf146107e4578063a22cb4651461080f578063b3c7663c14610838578063b6e768731461086357610245565b80638ade377f116100fd5780638ade377f146106ae57806391d14854146106eb57806395d89b41146107285780639cba7fa9146107535780639d1b464a1461079057610245565b80636cad6932146105cb57806370a08231146105f45780638129fc1c14610631578063862314c21461064857806386481d401461067157610245565b8063248a9ca3116101c757806336f241271161018b57806336f24127146104d457806342842e0e146105115780634479d6e41461053a5780634ed4d42a146105655780636352211e1461058e57610245565b8063248a9ca3146103f35780632b60b986146104305780632cb98b65146104595780632f2ff15d1461048257806336568abe146104ab57610245565b8063098d75001161020e578063098d7500146103435780630c9490431461036c57806310d1eb2a146103975780631af92ed3146103a157806323b872dd146103ca57610245565b8062e23cfc1461024a57806301ffc9a71461027557806306fdde03146102b2578063081812fc146102dd578063095ea7b31461031a575b600080fd5b34801561025657600080fd5b5061025f6109ec565b60405161026c9190613a26565b60405180910390f35b34801561028157600080fd5b5061029c60048036038101906102979190613aad565b610a10565b6040516102a99190613af5565b60405180910390f35b3480156102be57600080fd5b506102c7610a22565b6040516102d49190613ba9565b60405180910390f35b3480156102e957600080fd5b5061030460048036038101906102ff9190613c01565b610ab4565b6040516103119190613c6f565b60405180910390f35b34801561032657600080fd5b50610341600480360381019061033c9190613cb6565b610b39565b005b34801561034f57600080fd5b5061036a60048036038101906103659190613d34565b610c51565b005b34801561037857600080fd5b50610381610cab565b60405161038e9190613a26565b60405180910390f35b61039f610cf1565b005b3480156103ad57600080fd5b506103c860048036038101906103c39190613d34565b610e7d565b005b3480156103d657600080fd5b506103f160048036038101906103ec9190613d61565b610ed7565b005b3480156103ff57600080fd5b5061041a60048036038101906104159190613de0565b610f37565b6040516104279190613a26565b60405180910390f35b34801561043c57600080fd5b5061045760048036038101906104529190613e0d565b610f57565b005b34801561046557600080fd5b50610480600480360381019061047b9190613e60565b610fc5565b005b34801561048e57600080fd5b506104a960048036038101906104a49190613ea0565b6112f3565b005b3480156104b757600080fd5b506104d260048036038101906104cd9190613ea0565b61131c565b005b3480156104e057600080fd5b506104fb60048036038101906104f69190613c01565b61139f565b6040516105089190613eef565b60405180910390f35b34801561051d57600080fd5b5061053860048036038101906105339190613d61565b6113bf565b005b34801561054657600080fd5b5061054f6113df565b60405161055c9190613eef565b60405180910390f35b34801561057157600080fd5b5061058c60048036038101906105879190613f0a565b6113f0565b005b34801561059a57600080fd5b506105b560048036038101906105b09190613c01565b61144a565b6040516105c29190613c6f565b60405180910390f35b3480156105d757600080fd5b506105f260048036038101906105ed9190613f37565b6114fc565b005b34801561060057600080fd5b5061061b60048036038101906106169190613f0a565b6115a8565b6040516106289190613eef565b60405180910390f35b34801561063d57600080fd5b50610646611660565b005b34801561065457600080fd5b5061066f600480360381019061066a9190613e60565b61188c565b005b34801561067d57600080fd5b5061069860048036038101906106939190613c01565b611bba565b6040516106a59190613eef565b60405180910390f35b3480156106ba57600080fd5b506106d560048036038101906106d09190613c01565b611bda565b6040516106e29190613eef565b60405180910390f35b3480156106f757600080fd5b50610712600480360381019061070d9190613ea0565b611bfa565b60405161071f9190613af5565b60405180910390f35b34801561073457600080fd5b5061073d611c65565b60405161074a9190613ba9565b60405180910390f35b34801561075f57600080fd5b5061077a60048036038101906107759190613c01565b611cf7565b6040516107879190613eef565b60405180910390f35b34801561079c57600080fd5b506107a5611d17565b6040516107b29190613eef565b60405180910390f35b3480156107c757600080fd5b506107e260048036038101906107dd9190613e60565b611d89565b005b3480156107f057600080fd5b506107f9612112565b6040516108069190613a26565b60405180910390f35b34801561081b57600080fd5b5061083660048036038101906108319190613fa3565b612119565b005b34801561084457600080fd5b5061084d61212f565b60405161085a9190613a26565b60405180910390f35b34801561086f57600080fd5b5061088a60048036038101906108859190613c01565b612153565b6040516108979190613eef565b60405180910390f35b3480156108ac57600080fd5b506108c760048036038101906108c29190614118565b612173565b005b3480156108d557600080fd5b506108f060048036038101906108eb9190613c01565b6121d5565b6040516108fd9190613ba9565b60405180910390f35b34801561091257600080fd5b5061092d60048036038101906109289190613ea0565b61227c565b005b34801561093b57600080fd5b5061095660048036038101906109519190613c01565b6122a5565b604051610969979695949392919061419b565b60405180910390f35b34801561097e57600080fd5b5061099960048036038101906109949190613c01565b612354565b6040516109a69190613eef565b60405180910390f35b3480156109bb57600080fd5b506109d660048036038101906109d1919061420a565b612374565b6040516109e39190613af5565b60405180910390f35b7f19ac353dd86d6954025a359137447e1fda8f14ba7ba6373372af73b706fa3b2281565b6000610a1b82612408565b9050919050565b606060658054610a3190614279565b80601f0160208091040260200160405190810160405280929190818152602001828054610a5d90614279565b8015610aaa5780601f10610a7f57610100808354040283529160200191610aaa565b820191906000526020600020905b815481529060010190602001808311610a8d57829003601f168201915b5050505050905090565b6000610abf82612482565b610afe576040517f08c379a0000000000000000000000000000000000000000000000000000000008152600401610af59061431d565b60405180910390fd5b6069600083815260200190815260200160002060009054906101000a900473ffffffffffffffffffffffffffffffffffffffff169050919050565b6000610b448261144a565b90508073ffffffffffffffffffffffffffffffffffffffff168373ffffffffffffffffffffffffffffffffffffffff161415610bb5576040517f08c379a0000000000000000000000000000000000000000000000000000000008152600401610bac906143af565b60405180910390fd5b8073ffffffffffffffffffffffffffffffffffffffff16610bd46124ee565b73ffffffffffffffffffffffffffffffffffffffff161480610c035750610c0281610bfd6124ee565b612374565b5b610c42576040517f08c379a0000000000000000000000000000000000000000000000000000000008152600401610c3990614441565b60405180910390fd5b610c4c83836124f6565b505050565b6000801b610c6681610c616124ee565b6125af565b8160cc60006101000a81548173ffffffffffffffffffffffffffffffffffffffff021916908373ffffffffffffffffffffffffffffffffffffffff1602179055505050565b6000610cb5613948565b4381600060018110610cca57610cc9614461565b5b60200201818152505060405160208160208460ff600019fa610ce857fe5b80519250505090565b600073ffffffffffffffffffffffffffffffffffffffff163373ffffffffffffffffffffffffffffffffffffffff1614158015610d5a57503073ffffffffffffffffffffffffffffffffffffffff163373ffffffffffffffffffffffffffffffffffffffff1614155b610d6357600080fd5b610d6b611d17565b3414610d7657600080fd5b6000610d8061264c565b90506000610d8e60cf612696565b9050610d9a60cf6126a4565b6040518060e001604052808381526020016001815260200160008152602001600181526020016001815260200160008152602001600081525060ce6000838152602001908152602001600020600082015181600001556020820151816001015560408201518160020155606082015181600301556080820151816004015560a0820151816005015560c08201518160060155905050610e3933826126ba565b610e4281612888565b7f5aa7f45898fcb5638757632f4ea98818ccb1f1b865b0721648cfb14cfcd2da9a81604051610e719190613eef565b60405180910390a15050565b6000801b610e9281610e8d6124ee565b6125af565b8160cb60006101000a81548173ffffffffffffffffffffffffffffffffffffffff021916908373ffffffffffffffffffffffffffffffffffffffff1602179055505050565b610ee8610ee26124ee565b82612a33565b610f27576040517f08c379a0000000000000000000000000000000000000000000000000000000008152600401610f1e90614502565b60405180910390fd5b610f32838383612b11565b505050565b600060976000838152602001908152602001600020600101549050919050565b7f19ac353dd86d6954025a359137447e1fda8f14ba7ba6373372af73b706fa3b22610f8981610f846124ee565b6125af565b8160ce6000868152602001908152602001600020600601819055508260ce60008681526020019081526020016000206005018190555050505050565b7f8b83cff217526f65affab658236a6c4f2d8020cd01ccd4c27987c26870279b14610ff781610ff26124ee565b6125af565b6000670de0b6b3a764000060ce6000868152602001908152602001600020600301546110239190614551565b90508060cd60009054906101000a900473ffffffffffffffffffffffffffffffffffffffff1673ffffffffffffffffffffffffffffffffffffffff166370a08231856040518263ffffffff1660e01b81526004016110819190613c6f565b602060405180830381865afa15801561109e573d6000803e3d6000fd5b505050506040513d601f19601f820116820180604052508101906110c291906145c0565b10156110cd57600080fd5b60cd60009054906101000a900473ffffffffffffffffffffffffffffffffffffffff1673ffffffffffffffffffffffffffffffffffffffff166323b872dd8460cc60009054906101000a900473ffffffffffffffffffffffffffffffffffffffff16606460608661113e9190614551565b611148919061461c565b6040518463ffffffff1660e01b8152600401611166939291906146ac565b6020604051808303816000875af1158015611185573d6000803e3d6000fd5b505050506040513d601f19601f820116820180604052508101906111a991906146f8565b5060cd60009054906101000a900473ffffffffffffffffffffffffffffffffffffffff1673ffffffffffffffffffffffffffffffffffffffff166323b872dd8460cb60009054906101000a900473ffffffffffffffffffffffffffffffffffffffff16606460048661121b9190614551565b611225919061461c565b6040518463ffffffff1660e01b8152600401611243939291906146ac565b6020604051808303816000875af1158015611262573d6000803e3d6000fd5b505050506040513d601f19601f8201168201806040525081019061128691906146f8565b5060ce600085815260200190815260200160002060030160008154809291906112ae90614725565b91905055507f20c31955b530563483aba79e1a051106dcb9ee48b987bfa568ef479e011c1a6c8460016040516112e59291906147a9565b60405180910390a150505050565b6112fc82610f37565b61130d816113086124ee565b6125af565b6113178383612d6d565b505050565b6113246124ee565b73ffffffffffffffffffffffffffffffffffffffff168173ffffffffffffffffffffffffffffffffffffffff1614611391576040517f08c379a000000000000000000000000000000000000000000000000000000000815260040161138890614844565b60405180910390fd5b61139b8282612e4e565b5050565b600060ce6000838152602001908152602001600020600301549050919050565b6113da83838360405180602001604052806000815250612173565b505050565b60006113eb60cf612696565b905090565b6000801b611405816114006124ee565b6125af565b8160cd60006101000a81548173ffffffffffffffffffffffffffffffffffffffff021916908373ffffffffffffffffffffffffffffffffffffffff1602179055505050565b6000806067600084815260200190815260200160002060009054906101000a900473ffffffffffffffffffffffffffffffffffffffff169050600073ffffffffffffffffffffffffffffffffffffffff168173ffffffffffffffffffffffffffffffffffffffff1614156114f3576040517f08c379a00000000000000000000000000000000000000000000000000000000081526004016114ea906148d6565b60405180910390fd5b80915050919050565b7f19ac353dd86d6954025a359137447e1fda8f14ba7ba6373372af73b706fa3b2261152e816115296124ee565b6125af565b8160ce60008581526020019081526020016000206002015461155091906148f6565b60ce6000858152602001908152602001600020600201819055507ffa65d54a674245861f726a6e25ffd7e32b5f7e7a6a62bd81b222ad6f53643d28838360405161159b92919061494c565b60405180910390a1505050565b60008073ffffffffffffffffffffffffffffffffffffffff168273ffffffffffffffffffffffffffffffffffffffff161415611619576040517f08c379a0000000000000000000000000000000000000000000000000000000008152600401611610906149e7565b60405180910390fd5b606860008373ffffffffffffffffffffffffffffffffffffffff1673ffffffffffffffffffffffffffffffffffffffff168152602001908152602001600020549050919050565b600060019054906101000a900460ff166116885760008054906101000a900460ff1615611691565b611690612f30565b5b6116d0576040517f08c379a00000000000000000000000000000000000000000000000000000000081526004016116c790614a79565b60405180910390fd5b60008060019054906101000a900460ff161590508015611720576001600060016101000a81548160ff02191690831515021790555060016000806101000a81548160ff0219169083151502179055505b601060c98190555060c954600a6117379190614bcc565b60ca81905550737c50d01c7ba0ede836bda6dac88a952f325756e360cb60006101000a81548173ffffffffffffffffffffffffffffffffffffffff021916908373ffffffffffffffffffffffffffffffffffffffff16021790555073a691623968855b91a066661b0552a7d3764c9a6460cc60006101000a81548173ffffffffffffffffffffffffffffffffffffffff021916908373ffffffffffffffffffffffffffffffffffffffff1602179055506117f46000801b33612f41565b6118686040518060400160405280600e81526020017f50617461676f6e696320547265650000000000000000000000000000000000008152506040518060400160405280600581526020017f5054524545000000000000000000000000000000000000000000000000000000815250612f4f565b80156118895760008060016101000a81548160ff0219169083151502179055505b50565b7f8b83cff217526f65affab658236a6c4f2d8020cd01ccd4c27987c26870279b146118be816118b96124ee565b6125af565b6000670de0b6b3a764000060ce6000868152602001908152602001600020600401546118ea9190614551565b90508060cd60009054906101000a900473ffffffffffffffffffffffffffffffffffffffff1673ffffffffffffffffffffffffffffffffffffffff166370a08231856040518263ffffffff1660e01b81526004016119489190613c6f565b602060405180830381865afa158015611965573d6000803e3d6000fd5b505050506040513d601f19601f8201168201806040525081019061198991906145c0565b101561199457600080fd5b60cd60009054906101000a900473ffffffffffffffffffffffffffffffffffffffff1673ffffffffffffffffffffffffffffffffffffffff166323b872dd8460cc60009054906101000a900473ffffffffffffffffffffffffffffffffffffffff166064606086611a059190614551565b611a0f919061461c565b6040518463ffffffff1660e01b8152600401611a2d939291906146ac565b6020604051808303816000875af1158015611a4c573d6000803e3d6000fd5b505050506040513d601f19601f82011682018060405250810190611a7091906146f8565b5060cd60009054906101000a900473ffffffffffffffffffffffffffffffffffffffff1673ffffffffffffffffffffffffffffffffffffffff166323b872dd8460cb60009054906101000a900473ffffffffffffffffffffffffffffffffffffffff166064600486611ae29190614551565b611aec919061461c565b6040518463ffffffff1660e01b8152600401611b0a939291906146ac565b6020604051808303816000875af1158015611b29573d6000803e3d6000fd5b505050506040513d601f19601f82011682018060405250810190611b4d91906146f8565b5060ce60008581526020019081526020016000206004016000815480929190611b7590614725565b91905055507f20c31955b530563483aba79e1a051106dcb9ee48b987bfa568ef479e011c1a6c846000604051611bac929190614c52565b60405180910390a150505050565b600060ce6000838152602001908152602001600020600101549050919050565b600060ce6000838152602001908152602001600020600401549050919050565b60006097600084815260200190815260200160002060000160008373ffffffffffffffffffffffffffffffffffffffff1673ffffffffffffffffffffffffffffffffffffffff16815260200190815260200160002060009054906101000a900460ff16905092915050565b606060668054611c7490614279565b80601f0160208091040260200160405190810160405280929190818152602001828054611ca090614279565b8015611ced5780601f10611cc257610100808354040283529160200191611ced565b820191906000526020600020905b815481529060010190602001808311611cd057829003601f168201915b5050505050905090565b600060ce6000838152602001908152602001600020600601549050919050565b600080600190506000600190506000600590506000670de0b6b3a76400008383611d4160cf612696565b611d4b919061461c565b611d559190614551565b611d5f9190614551565b670de0b6b3a764000085611d739190614551565b611d7d91906148f6565b90508094505050505090565b7f8b83cff217526f65affab658236a6c4f2d8020cd01ccd4c27987c26870279b14611dbb81611db66124ee565b6125af565b6000670de0b6b3a764000060ce600086815260200190815260200160002060010154611de79190614551565b90508060cd60009054906101000a900473ffffffffffffffffffffffffffffffffffffffff1673ffffffffffffffffffffffffffffffffffffffff166370a08231856040518263ffffffff1660e01b8152600401611e459190613c6f565b602060405180830381865afa158015611e62573d6000803e3d6000fd5b505050506040513d601f19601f82011682018060405250810190611e8691906145c0565b1015611e9157600080fd5b60cd60009054906101000a900473ffffffffffffffffffffffffffffffffffffffff1673ffffffffffffffffffffffffffffffffffffffff166323b872dd8460cc60009054906101000a900473ffffffffffffffffffffffffffffffffffffffff166064606086611f029190614551565b611f0c919061461c565b6040518463ffffffff1660e01b8152600401611f2a939291906146ac565b6020604051808303816000875af1158015611f49573d6000803e3d6000fd5b505050506040513d601f19601f82011682018060405250810190611f6d91906146f8565b5060cd60009054906101000a900473ffffffffffffffffffffffffffffffffffffffff1673ffffffffffffffffffffffffffffffffffffffff166323b872dd8460cb60009054906101000a900473ffffffffffffffffffffffffffffffffffffffff166064600486611fdf9190614551565b611fe9919061461c565b6040518463ffffffff1660e01b8152600401612007939291906146ac565b6020604051808303816000875af1158015612026573d6000803e3d6000fd5b505050506040513d601f19601f8201168201806040525081019061204a91906146f8565b50606460ce60008681526020019081526020016000206001015461206e9190614551565b60ce60008681526020019081526020016000206002015461208f9190614c7b565b60ce60008681526020019081526020016000206002018190555060ce600085815260200190815260200160002060010160008154809291906120d090614725565b91905055507f7ef1df0b6d95a41d9ebcaa695746726b382e110036a9127b009babdb11c656a2846040516121049190613eef565b60405180910390a150505050565b6000801b81565b61212b6121246124ee565b8383612fbc565b5050565b7f8b83cff217526f65affab658236a6c4f2d8020cd01ccd4c27987c26870279b1481565b600060ce6000838152602001908152602001600020600501549050919050565b61218461217e6124ee565b83612a33565b6121c3576040517f08c379a00000000000000000000000000000000000000000000000000000000081526004016121ba90614502565b60405180910390fd5b6121cf84848484613129565b50505050565b60606121e082612482565b61221f576040517f08c379a000000000000000000000000000000000000000000000000000000000815260040161221690614d21565b60405180910390fd5b6000612229613185565b905060008151116122495760405180602001604052806000815250612274565b806122538461319c565b604051602001612264929190614d7d565b6040516020818303038152906040525b915050919050565b61228582610f37565b612296816122916124ee565b6125af565b6122a08383612e4e565b505050565b60008060008060008060008060ce60008a81526020019081526020016000206040518060e00160405290816000820154815260200160018201548152602001600282015481526020016003820154815260200160048201548152602001600582015481526020016006820154815250509050806000015181602001518260400151836060015184608001518560a001518660c00151975097509750975097509750975050919395979092949650565b600060ce6000838152602001908152602001600020600201549050919050565b6000606a60008473ffffffffffffffffffffffffffffffffffffffff1673ffffffffffffffffffffffffffffffffffffffff16815260200190815260200160002060008373ffffffffffffffffffffffffffffffffffffffff1673ffffffffffffffffffffffffffffffffffffffff16815260200190815260200160002060009054906101000a900460ff16905092915050565b60007f7965db0b000000000000000000000000000000000000000000000000000000007bffffffffffffffffffffffffffffffffffffffffffffffffffffffff1916827bffffffffffffffffffffffffffffffffffffffffffffffffffffffff1916148061247b575061247a826132fd565b5b9050919050565b60008073ffffffffffffffffffffffffffffffffffffffff166067600084815260200190815260200160002060009054906101000a900473ffffffffffffffffffffffffffffffffffffffff1673ffffffffffffffffffffffffffffffffffffffff1614159050919050565b600033905090565b816069600083815260200190815260200160002060006101000a81548173ffffffffffffffffffffffffffffffffffffffff021916908373ffffffffffffffffffffffffffffffffffffffff160217905550808273ffffffffffffffffffffffffffffffffffffffff166125698361144a565b73ffffffffffffffffffffffffffffffffffffffff167f8c5be1e5ebec7d5bd14f71427d1e84f3dd0314c0f7b2291e5b200ac8c7c3b92560405160405180910390a45050565b6125b98282611bfa565b612648576125de8173ffffffffffffffffffffffffffffffffffffffff1660146133df565b6125ec8360001c60206133df565b6040516020016125fd929190614e39565b6040516020818303038152906040526040517f08c379a000000000000000000000000000000000000000000000000000000000815260040161263f9190613ba9565b60405180910390fd5b5050565b600080612657610cab565b6040516020016126679190614e94565b6040516020818303038152906040528051906020012060001c905060ca54816126909190614eaf565b91505090565b600081600001549050919050565b6001816000016000828254019250508190555050565b600073ffffffffffffffffffffffffffffffffffffffff168273ffffffffffffffffffffffffffffffffffffffff16141561272a576040517f08c379a000000000000000000000000000000000000000000000000000000000815260040161272190614f2c565b60405180910390fd5b61273381612482565b15612773576040517f08c379a000000000000000000000000000000000000000000000000000000000815260040161276a90614f98565b60405180910390fd5b61277f6000838361361b565b6001606860008473ffffffffffffffffffffffffffffffffffffffff1673ffffffffffffffffffffffffffffffffffffffff16815260200190815260200160002060008282546127cf91906148f6565b92505081905550816067600083815260200190815260200160002060006101000a81548173ffffffffffffffffffffffffffffffffffffffff021916908373ffffffffffffffffffffffffffffffffffffffff160217905550808273ffffffffffffffffffffffffffffffffffffffff16600073ffffffffffffffffffffffffffffffffffffffff167fddf252ad1be2c89b69c2b068fc378daa952ba7f163c4a11628f55a4df523b3ef60405160405180910390a45050565b6107d08110156129af5760cc60009054906101000a900473ffffffffffffffffffffffffffffffffffffffff1673ffffffffffffffffffffffffffffffffffffffff166108fc60023073ffffffffffffffffffffffffffffffffffffffff16316128f2919061461c565b9081150290604051600060405180830381858888f1935050505015801561291d573d6000803e3d6000fd5b5060cb60009054906101000a900473ffffffffffffffffffffffffffffffffffffffff1673ffffffffffffffffffffffffffffffffffffffff166108fc60023073ffffffffffffffffffffffffffffffffffffffff163161297e919061461c565b9081150290604051600060405180830381858888f193505050501580156129a9573d6000803e3d6000fd5b50612a30565b60cc60009054906101000a900473ffffffffffffffffffffffffffffffffffffffff1673ffffffffffffffffffffffffffffffffffffffff166108fc3073ffffffffffffffffffffffffffffffffffffffff16319081150290604051600060405180830381858888f19350505050158015612a2e573d6000803e3d6000fd5b505b50565b6000612a3e82612482565b612a7d576040517f08c379a0000000000000000000000000000000000000000000000000000000008152600401612a749061502a565b60405180910390fd5b6000612a888361144a565b90508073ffffffffffffffffffffffffffffffffffffffff168473ffffffffffffffffffffffffffffffffffffffff161480612af757508373ffffffffffffffffffffffffffffffffffffffff16612adf84610ab4565b73ffffffffffffffffffffffffffffffffffffffff16145b80612b085750612b078185612374565b5b91505092915050565b8273ffffffffffffffffffffffffffffffffffffffff16612b318261144a565b73ffffffffffffffffffffffffffffffffffffffff1614612b87576040517f08c379a0000000000000000000000000000000000000000000000000000000008152600401612b7e906150bc565b60405180910390fd5b600073ffffffffffffffffffffffffffffffffffffffff168273ffffffffffffffffffffffffffffffffffffffff161415612bf7576040517f08c379a0000000000000000000000000000000000000000000000000000000008152600401612bee9061514e565b60405180910390fd5b612c0283838361361b565b612c0d6000826124f6565b6001606860008573ffffffffffffffffffffffffffffffffffffffff1673ffffffffffffffffffffffffffffffffffffffff1681526020019081526020016000206000828254612c5d9190614c7b565b925050819055506001606860008473ffffffffffffffffffffffffffffffffffffffff1673ffffffffffffffffffffffffffffffffffffffff1681526020019081526020016000206000828254612cb491906148f6565b92505081905550816067600083815260200190815260200160002060006101000a81548173ffffffffffffffffffffffffffffffffffffffff021916908373ffffffffffffffffffffffffffffffffffffffff160217905550808273ffffffffffffffffffffffffffffffffffffffff168473ffffffffffffffffffffffffffffffffffffffff167fddf252ad1be2c89b69c2b068fc378daa952ba7f163c4a11628f55a4df523b3ef60405160405180910390a4505050565b612d778282611bfa565b612e4a5760016097600084815260200190815260200160002060000160008373ffffffffffffffffffffffffffffffffffffffff1673ffffffffffffffffffffffffffffffffffffffff16815260200190815260200160002060006101000a81548160ff021916908315150217905550612def6124ee565b73ffffffffffffffffffffffffffffffffffffffff168173ffffffffffffffffffffffffffffffffffffffff16837f2f8788117e7eff1d82e926ec794901d17c78024a50270940304540a733656f0d60405160405180910390a45b5050565b612e588282611bfa565b15612f2c5760006097600084815260200190815260200160002060000160008373ffffffffffffffffffffffffffffffffffffffff1673ffffffffffffffffffffffffffffffffffffffff16815260200190815260200160002060006101000a81548160ff021916908315150217905550612ed16124ee565b73ffffffffffffffffffffffffffffffffffffffff168173ffffffffffffffffffffffffffffffffffffffff16837ff6391f5c32d9c69d2a47ea670b442974b53935d1edc7fd64eb21e047a839171b60405160405180910390a45b5050565b6000612f3b30613620565b15905090565b612f4b8282612d6d565b5050565b600060019054906101000a900460ff16612f9e576040517f08c379a0000000000000000000000000000000000000000000000000000000008152600401612f95906151e0565b60405180910390fd5b612fa6613633565b612fae613684565b612fb882826136d5565b5050565b8173ffffffffffffffffffffffffffffffffffffffff168373ffffffffffffffffffffffffffffffffffffffff16141561302b576040517f08c379a00000000000000000000000000000000000000000000000000000000081526004016130229061524c565b60405180910390fd5b80606a60008573ffffffffffffffffffffffffffffffffffffffff1673ffffffffffffffffffffffffffffffffffffffff16815260200190815260200160002060008473ffffffffffffffffffffffffffffffffffffffff1673ffffffffffffffffffffffffffffffffffffffff16815260200190815260200160002060006101000a81548160ff0219169083151502179055508173ffffffffffffffffffffffffffffffffffffffff168373ffffffffffffffffffffffffffffffffffffffff167f17307eab39ab6107e8899845ad3d59bd9653f200f220920489ca2b5937696c318360405161311c9190613af5565b60405180910390a3505050565b613134848484612b11565b61314084848484613756565b61317f576040517f08c379a0000000000000000000000000000000000000000000000000000000008152600401613176906152de565b60405180910390fd5b50505050565b606060405180602001604052806000815250905090565b606060008214156131e4576040518060400160405280600181526020017f300000000000000000000000000000000000000000000000000000000000000081525090506132f8565b600082905060005b600082146132165780806131ff90614725565b915050600a8261320f919061461c565b91506131ec565b60008167ffffffffffffffff81111561323257613231613fed565b5b6040519080825280601f01601f1916602001820160405280156132645781602001600182028036833780820191505090505b5090505b600085146132f15760018261327d9190614c7b565b9150600a8561328c9190614eaf565b603061329891906148f6565b60f81b8183815181106132ae576132ad614461565b5b60200101907effffffffffffffffffffffffffffffffffffffffffffffffffffffffffffff1916908160001a905350600a856132ea919061461c565b9450613268565b8093505050505b919050565b60007f80ac58cd000000000000000000000000000000000000000000000000000000007bffffffffffffffffffffffffffffffffffffffffffffffffffffffff1916827bffffffffffffffffffffffffffffffffffffffffffffffffffffffff191614806133c857507f5b5e139f000000000000000000000000000000000000000000000000000000007bffffffffffffffffffffffffffffffffffffffffffffffffffffffff1916827bffffffffffffffffffffffffffffffffffffffffffffffffffffffff1916145b806133d857506133d7826138de565b5b9050919050565b6060600060028360026133f29190614551565b6133fc91906148f6565b67ffffffffffffffff81111561341557613414613fed565b5b6040519080825280601f01601f1916602001820160405280156134475781602001600182028036833780820191505090505b5090507f30000000000000000000000000000000000000000000000000000000000000008160008151811061347f5761347e614461565b5b60200101907effffffffffffffffffffffffffffffffffffffffffffffffffffffffffffff1916908160001a9053507f7800000000000000000000000000000000000000000000000000000000000000816001815181106134e3576134e2614461565b5b60200101907effffffffffffffffffffffffffffffffffffffffffffffffffffffffffffff1916908160001a905350600060018460026135239190614551565b61352d91906148f6565b90505b60018111156135cd577f3031323334353637383961626364656600000000000000000000000000000000600f86166010811061356f5761356e614461565b5b1a60f81b82828151811061358657613585614461565b5b60200101907effffffffffffffffffffffffffffffffffffffffffffffffffffffffffffff1916908160001a905350600485901c9450806135c6906152fe565b9050613530565b5060008414613611576040517f08c379a000000000000000000000000000000000000000000000000000000000815260040161360890615374565b60405180910390fd5b8091505092915050565b505050565b600080823b905060008111915050919050565b600060019054906101000a900460ff16613682576040517f08c379a0000000000000000000000000000000000000000000000000000000008152600401613679906151e0565b60405180910390fd5b565b600060019054906101000a900460ff166136d3576040517f08c379a00000000000000000000000000000000000000000000000000000000081526004016136ca906151e0565b60405180910390fd5b565b600060019054906101000a900460ff16613724576040517f08c379a000000000000000000000000000000000000000000000000000000000815260040161371b906151e0565b60405180910390fd5b816065908051906020019061373a92919061396a565b50806066908051906020019061375192919061396a565b505050565b60006137778473ffffffffffffffffffffffffffffffffffffffff16613620565b156138d1578373ffffffffffffffffffffffffffffffffffffffff1663150b7a026137a06124ee565b8786866040518563ffffffff1660e01b81526004016137c294939291906153e9565b6020604051808303816000875af19250505080156137fe57506040513d601f19601f820116820180604052508101906137fb919061544a565b60015b613881573d806000811461382e576040519150601f19603f3d011682016040523d82523d6000602084013e613833565b606091505b50600081511415613879576040517f08c379a0000000000000000000000000000000000000000000000000000000008152600401613870906152de565b60405180910390fd5b805181602001fd5b63150b7a0260e01b7bffffffffffffffffffffffffffffffffffffffffffffffffffffffff1916817bffffffffffffffffffffffffffffffffffffffffffffffffffffffff1916149150506138d6565b600190505b949350505050565b60007f01ffc9a7000000000000000000000000000000000000000000000000000000007bffffffffffffffffffffffffffffffffffffffffffffffffffffffff1916827bffffffffffffffffffffffffffffffffffffffffffffffffffffffff1916149050919050565b6040518060200160405280600190602082028036833780820191505090505090565b82805461397690614279565b90600052602060002090601f01602090048101928261399857600085556139df565b82601f106139b157805160ff19168380011785556139df565b828001600101855582156139df579182015b828111156139de5782518255916020019190600101906139c3565b5b5090506139ec91906139f0565b5090565b5b80821115613a095760008160009055506001016139f1565b5090565b6000819050919050565b613a2081613a0d565b82525050565b6000602082019050613a3b6000830184613a17565b92915050565b6000604051905090565b600080fd5b600080fd5b60007fffffffff0000000000000000000000000000000000000000000000000000000082169050919050565b613a8a81613a55565b8114613a9557600080fd5b50565b600081359050613aa781613a81565b92915050565b600060208284031215613ac357613ac2613a4b565b5b6000613ad184828501613a98565b91505092915050565b60008115159050919050565b613aef81613ada565b82525050565b6000602082019050613b0a6000830184613ae6565b92915050565b600081519050919050565b600082825260208201905092915050565b60005b83811015613b4a578082015181840152602081019050613b2f565b83811115613b59576000848401525b50505050565b6000601f19601f8301169050919050565b6000613b7b82613b10565b613b858185613b1b565b9350613b95818560208601613b2c565b613b9e81613b5f565b840191505092915050565b60006020820190508181036000830152613bc38184613b70565b905092915050565b6000819050919050565b613bde81613bcb565b8114613be957600080fd5b50565b600081359050613bfb81613bd5565b92915050565b600060208284031215613c1757613c16613a4b565b5b6000613c2584828501613bec565b91505092915050565b600073ffffffffffffffffffffffffffffffffffffffff82169050919050565b6000613c5982613c2e565b9050919050565b613c6981613c4e565b82525050565b6000602082019050613c846000830184613c60565b92915050565b613c9381613c4e565b8114613c9e57600080fd5b50565b600081359050613cb081613c8a565b92915050565b60008060408385031215613ccd57613ccc613a4b565b5b6000613cdb85828601613ca1565b9250506020613cec85828601613bec565b9150509250929050565b6000613d0182613c2e565b9050919050565b613d1181613cf6565b8114613d1c57600080fd5b50565b600081359050613d2e81613d08565b92915050565b600060208284031215613d4a57613d49613a4b565b5b6000613d5884828501613d1f565b91505092915050565b600080600060608486031215613d7a57613d79613a4b565b5b6000613d8886828701613ca1565b9350506020613d9986828701613ca1565b9250506040613daa86828701613bec565b9150509250925092565b613dbd81613a0d565b8114613dc857600080fd5b50565b600081359050613dda81613db4565b92915050565b600060208284031215613df657613df5613a4b565b5b6000613e0484828501613dcb565b91505092915050565b600080600060608486031215613e2657613e25613a4b565b5b6000613e3486828701613bec565b9350506020613e4586828701613bec565b9250506040613e5686828701613bec565b9150509250925092565b60008060408385031215613e7757613e76613a4b565b5b6000613e8585828601613bec565b9250506020613e9685828601613ca1565b9150509250929050565b60008060408385031215613eb757613eb6613a4b565b5b6000613ec585828601613dcb565b9250506020613ed685828601613ca1565b9150509250929050565b613ee981613bcb565b82525050565b6000602082019050613f046000830184613ee0565b92915050565b600060208284031215613f2057613f1f613a4b565b5b6000613f2e84828501613ca1565b91505092915050565b60008060408385031215613f4e57613f4d613a4b565b5b6000613f5c85828601613bec565b9250506020613f6d85828601613bec565b9150509250929050565b613f8081613ada565b8114613f8b57600080fd5b50565b600081359050613f9d81613f77565b92915050565b60008060408385031215613fba57613fb9613a4b565b5b6000613fc885828601613ca1565b9250506020613fd985828601613f8e565b9150509250929050565b600080fd5b600080fd5b7f4e487b7100000000000000000000000000000000000000000000000000000000600052604160045260246000fd5b61402582613b5f565b810181811067ffffffffffffffff8211171561404457614043613fed565b5b80604052505050565b6000614057613a41565b9050614063828261401c565b919050565b600067ffffffffffffffff82111561408357614082613fed565b5b61408c82613b5f565b9050602081019050919050565b82818337600083830152505050565b60006140bb6140b684614068565b61404d565b9050828152602081018484840111156140d7576140d6613fe8565b5b6140e2848285614099565b509392505050565b600082601f8301126140ff576140fe613fe3565b5b813561410f8482602086016140a8565b91505092915050565b6000806000806080858703121561413257614131613a4b565b5b600061414087828801613ca1565b945050602061415187828801613ca1565b935050604061416287828801613bec565b925050606085013567ffffffffffffffff81111561418357614182613a50565b5b61418f878288016140ea565b91505092959194509250565b600060e0820190506141b0600083018a613ee0565b6141bd6020830189613ee0565b6141ca6040830188613ee0565b6141d76060830187613ee0565b6141e46080830186613ee0565b6141f160a0830185613ee0565b6141fe60c0830184613ee0565b98975050505050505050565b6000806040838503121561422157614220613a4b565b5b600061422f85828601613ca1565b925050602061424085828601613ca1565b9150509250929050565b7f4e487b7100000000000000000000000000000000000000000000000000000000600052602260045260246000fd5b6000600282049050600182168061429157607f821691505b602082108114156142a5576142a461424a565b5b50919050565b7f4552433732313a20617070726f76656420717565727920666f72206e6f6e657860008201527f697374656e7420746f6b656e0000000000000000000000000000000000000000602082015250565b6000614307602c83613b1b565b9150614312826142ab565b604082019050919050565b60006020820190508181036000830152614336816142fa565b9050919050565b7f4552433732313a20617070726f76616c20746f2063757272656e74206f776e6560008201527f7200000000000000000000000000000000000000000000000000000000000000602082015250565b6000614399602183613b1b565b91506143a48261433d565b604082019050919050565b600060208201905081810360008301526143c88161438c565b9050919050565b7f4552433732313a20617070726f76652063616c6c6572206973206e6f74206f7760008201527f6e6572206e6f7220617070726f76656420666f7220616c6c0000000000000000602082015250565b600061442b603883613b1b565b9150614436826143cf565b604082019050919050565b6000602082019050818103600083015261445a8161441e565b9050919050565b7f4e487b7100000000000000000000000000000000000000000000000000000000600052603260045260246000fd5b7f4552433732313a207472616e736665722063616c6c6572206973206e6f74206f60008201527f776e6572206e6f7220617070726f766564000000000000000000000000000000602082015250565b60006144ec603183613b1b565b91506144f782614490565b604082019050919050565b6000602082019050818103600083015261451b816144df565b9050919050565b7f4e487b7100000000000000000000000000000000000000000000000000000000600052601160045260246000fd5b600061455c82613bcb565b915061456783613bcb565b9250817fffffffffffffffffffffffffffffffffffffffffffffffffffffffffffffffff04831182151516156145a05761459f614522565b5b828202905092915050565b6000815190506145ba81613bd5565b92915050565b6000602082840312156145d6576145d5613a4b565b5b60006145e4848285016145ab565b91505092915050565b7f4e487b7100000000000000000000000000000000000000000000000000000000600052601260045260246000fd5b600061462782613bcb565b915061463283613bcb565b925082614642576146416145ed565b5b828204905092915050565b6000819050919050565b600061467261466d61466884613c2e565b61464d565b613c2e565b9050919050565b600061468482614657565b9050919050565b600061469682614679565b9050919050565b6146a68161468b565b82525050565b60006060820190506146c16000830186613c60565b6146ce602083018561469d565b6146db6040830184613ee0565b949350505050565b6000815190506146f281613f77565b92915050565b60006020828403121561470e5761470d613a4b565b5b600061471c848285016146e3565b91505092915050565b600061473082613bcb565b91507fffffffffffffffffffffffffffffffffffffffffffffffffffffffffffffffff82141561476357614762614522565b5b600182019050919050565b6000819050919050565b600061479361478e6147898461476e565b61464d565b613bcb565b9050919050565b6147a381614778565b82525050565b60006040820190506147be6000830185613ee0565b6147cb602083018461479a565b9392505050565b7f416363657373436f6e74726f6c3a2063616e206f6e6c792072656e6f756e636560008201527f20726f6c657320666f722073656c660000000000000000000000000000000000602082015250565b600061482e602f83613b1b565b9150614839826147d2565b604082019050919050565b6000602082019050818103600083015261485d81614821565b9050919050565b7f4552433732313a206f776e657220717565727920666f72206e6f6e657869737460008201527f656e7420746f6b656e0000000000000000000000000000000000000000000000602082015250565b60006148c0602983613b1b565b91506148cb82614864565b604082019050919050565b600060208201905081810360008301526148ef816148b3565b9050919050565b600061490182613bcb565b915061490c83613bcb565b9250827fffffffffffffffffffffffffffffffffffffffffffffffffffffffffffffffff0382111561494157614940614522565b5b828201905092915050565b60006040820190506149616000830185613ee0565b61496e6020830184613ee0565b9392505050565b7f4552433732313a2062616c616e636520717565727920666f7220746865207a6560008201527f726f206164647265737300000000000000000000000000000000000000000000602082015250565b60006149d1602a83613b1b565b91506149dc82614975565b604082019050919050565b60006020820190508181036000830152614a00816149c4565b9050919050565b7f496e697469616c697a61626c653a20636f6e747261637420697320616c72656160008201527f647920696e697469616c697a6564000000000000000000000000000000000000602082015250565b6000614a63602e83613b1b565b9150614a6e82614a07565b604082019050919050565b60006020820190508181036000830152614a9281614a56565b9050919050565b60008160011c9050919050565b6000808291508390505b6001851115614af057808604811115614acc57614acb614522565b5b6001851615614adb5780820291505b8081029050614ae985614a99565b9450614ab0565b94509492505050565b600082614b095760019050614bc5565b81614b175760009050614bc5565b8160018114614b2d5760028114614b3757614b66565b6001915050614bc5565b60ff841115614b4957614b48614522565b5b8360020a915084821115614b6057614b5f614522565b5b50614bc5565b5060208310610133831016604e8410600b8410161715614b9b5782820a905083811115614b9657614b95614522565b5b614bc5565b614ba88484846001614aa6565b92509050818404811115614bbf57614bbe614522565b5b81810290505b9392505050565b6000614bd782613bcb565b9150614be283613bcb565b9250614c0f7fffffffffffffffffffffffffffffffffffffffffffffffffffffffffffffffff8484614af9565b905092915050565b6000819050919050565b6000614c3c614c37614c3284614c17565b61464d565b613bcb565b9050919050565b614c4c81614c21565b82525050565b6000604082019050614c676000830185613ee0565b614c746020830184614c43565b9392505050565b6000614c8682613bcb565b9150614c9183613bcb565b925082821015614ca457614ca3614522565b5b828203905092915050565b7f4552433732314d657461646174613a2055524920717565727920666f72206e6f60008201527f6e6578697374656e7420746f6b656e0000000000000000000000000000000000602082015250565b6000614d0b602f83613b1b565b9150614d1682614caf565b604082019050919050565b60006020820190508181036000830152614d3a81614cfe565b9050919050565b600081905092915050565b6000614d5782613b10565b614d618185614d41565b9350614d71818560208601613b2c565b80840191505092915050565b6000614d898285614d4c565b9150614d958284614d4c565b91508190509392505050565b7f416363657373436f6e74726f6c3a206163636f756e7420000000000000000000600082015250565b6000614dd7601783614d41565b9150614de282614da1565b601782019050919050565b7f206973206d697373696e6720726f6c6520000000000000000000000000000000600082015250565b6000614e23601183614d41565b9150614e2e82614ded565b601182019050919050565b6000614e4482614dca565b9150614e508285614d4c565b9150614e5b82614e16565b9150614e678284614d4c565b91508190509392505050565b6000819050919050565b614e8e614e8982613a0d565b614e73565b82525050565b6000614ea08284614e7d565b60208201915081905092915050565b6000614eba82613bcb565b9150614ec583613bcb565b925082614ed557614ed46145ed565b5b828206905092915050565b7f4552433732313a206d696e7420746f20746865207a65726f2061646472657373600082015250565b6000614f16602083613b1b565b9150614f2182614ee0565b602082019050919050565b60006020820190508181036000830152614f4581614f09565b9050919050565b7f4552433732313a20746f6b656e20616c7265616479206d696e74656400000000600082015250565b6000614f82601c83613b1b565b9150614f8d82614f4c565b602082019050919050565b60006020820190508181036000830152614fb181614f75565b9050919050565b7f4552433732313a206f70657261746f7220717565727920666f72206e6f6e657860008201527f697374656e7420746f6b656e0000000000000000000000000000000000000000602082015250565b6000615014602c83613b1b565b915061501f82614fb8565b604082019050919050565b6000602082019050818103600083015261504381615007565b9050919050565b7f4552433732313a207472616e73666572206f6620746f6b656e2074686174206960008201527f73206e6f74206f776e0000000000000000000000000000000000000000000000602082015250565b60006150a6602983613b1b565b91506150b18261504a565b604082019050919050565b600060208201905081810360008301526150d581615099565b9050919050565b7f4552433732313a207472616e7366657220746f20746865207a65726f2061646460008201527f7265737300000000000000000000000000000000000000000000000000000000602082015250565b6000615138602483613b1b565b9150615143826150dc565b604082019050919050565b600060208201905081810360008301526151678161512b565b9050919050565b7f496e697469616c697a61626c653a20636f6e7472616374206973206e6f74206960008201527f6e697469616c697a696e67000000000000000000000000000000000000000000602082015250565b60006151ca602b83613b1b565b91506151d58261516e565b604082019050919050565b600060208201905081810360008301526151f9816151bd565b9050919050565b7f4552433732313a20617070726f766520746f2063616c6c657200000000000000600082015250565b6000615236601983613b1b565b915061524182615200565b602082019050919050565b6000602082019050818103600083015261526581615229565b9050919050565b7f4552433732313a207472616e7366657220746f206e6f6e20455243373231526560008201527f63656976657220696d706c656d656e7465720000000000000000000000000000602082015250565b60006152c8603283613b1b565b91506152d38261526c565b604082019050919050565b600060208201905081810360008301526152f7816152bb565b9050919050565b600061530982613bcb565b9150600082141561531d5761531c614522565b5b600182039050919050565b7f537472696e67733a20686578206c656e67746820696e73756666696369656e74600082015250565b600061535e602083613b1b565b915061536982615328565b602082019050919050565b6000602082019050818103600083015261538d81615351565b9050919050565b600081519050919050565b600082825260208201905092915050565b60006153bb82615394565b6153c5818561539f565b93506153d5818560208601613b2c565b6153de81613b5f565b840191505092915050565b60006080820190506153fe6000830187613c60565b61540b6020830186613c60565b6154186040830185613ee0565b818103606083015261542a81846153b0565b905095945050505050565b60008151905061544481613a81565b92915050565b6000602082840312156154605761545f613a4b565b5b600061546e84828501615435565b9150509291505056fea26469706673582212204c339593fac27038024cd150d1e4707c326f73a45961ebe06e4dee363337c15864736f6c634300080c0033",
  "immutableReferences": {},
  "source": "// SPDX-License-Identifier: UNLICENSED\r\n\r\npragma solidity ^0.8.3;\r\n\r\nimport \"@openzeppelin/contracts-upgradeable/utils/CountersUpgradeable.sol\";\r\nimport \"@openzeppelin/contracts-upgradeable/access/AccessControlUpgradeable.sol\";\r\nimport \"@openzeppelin/contracts-upgradeable/token/ERC721/ERC721Upgradeable.sol\";\r\nimport \"@openzeppelin/contracts-upgradeable/token/ERC20/IERC20Upgradeable.sol\";\r\n\r\ncontract Tree is ERC721Upgradeable, AccessControlUpgradeable {\r\n\r\n    bytes32 public constant QUEST_ROLE = keccak256(\"QUEST_ROLE\");\r\n    bytes32 public constant UPG_ROLE = keccak256(\"UPG_ROLE\");\r\n\r\n    event NewTree(uint256 treeId);\r\n    event GainExp(uint256 treeId, uint256 amount);\r\n    event GainLevel(uint256 treeId);\r\n    event StatLevelUp (uint256 treeId, uint256 statId);\r\n\r\n    uint256 Digits;\r\n    uint256 Modulus;\r\n\r\n    address payable DevelopmentAddress;\r\n    address payable TreasuryAddress;\r\n    address TokenAddress;\r\n\r\n    struct TreeStruct {\r\n        uint256 treeDNA;\r\n        uint256 level;\r\n        uint256 exp;\r\n        uint256 roots;\r\n        uint256 branches;\r\n        uint256 action;\r\n        uint256 onActionUntil;\r\n    }\r\n\r\n    mapping(uint256 => TreeStruct) trees;\r\n\r\n    using CountersUpgradeable for CountersUpgradeable.Counter;\r\n    CountersUpgradeable.Counter private offerCounter;\r\n\r\n    function supportsInterface(bytes4 interfaceId) public view virtual override(ERC721Upgradeable, AccessControlUpgradeable) returns (bool) {\r\n        return super.supportsInterface(interfaceId);\r\n    }\r\n\r\n    function initialize() initializer public {\r\n        Digits = 16;\r\n        Modulus = 10 ** Digits;\r\n\r\n        DevelopmentAddress = payable(0x7C50D01C7Ba0EDE836bDA6daC88A952f325756e3);\r\n        TreasuryAddress = payable(0xa691623968855b91A066661b0552a7D3764c9a64);\r\n        _setupRole(DEFAULT_ADMIN_ROLE, msg.sender);\r\n        __ERC721_init(\"Patagonic Tree\", \"PTREE\");\r\n    }\r\n\r\n    //Util Functions\r\n\r\n    function vrf() public view returns (bytes32 result) {\r\n        uint[1] memory bn;\r\n        bn[0] = block.number;\r\n        assembly {\r\n            let memPtr := mload(0x40)\r\n            if iszero(staticcall(not(0), 0xff, bn, 0x20, memPtr, 0x20)) {\r\n                invalid()\r\n            }\r\n            result := mload(memPtr)\r\n        }\r\n    }\r\n\r\n    //View Functions\r\n\r\n    function getTree(uint256 treeId) external view returns (uint256, uint256, uint256, uint256, uint256, uint256, uint256) {\r\n        TreeStruct memory tree = trees[treeId];\r\n        return (tree.treeDNA, tree.level, tree.exp, tree.roots, tree.branches, tree.action, tree.onActionUntil);\r\n    }\r\n\r\n    function getBranches(uint256 treeId) external view returns (uint256) {\r\n        return trees[treeId].branches;\r\n    }\r\n\r\n    function getRoots(uint256 treeId) external view returns (uint256) {\r\n        return trees[treeId].roots;\r\n    }\r\n\r\n\r\n    function getLevel(uint256 treeId) external view returns (uint256) {\r\n        return trees[treeId].level;\r\n    }\r\n\r\n    function getExp(uint256 treeId) external view returns (uint256) {\r\n        return trees[treeId].exp;\r\n    }\r\n\r\n\r\n    function getAction(uint256 treeId) external view returns (uint256) {\r\n        return trees[treeId].action;\r\n    }\r\n\r\n    function getActionUntil(uint256 treeId) external view returns (uint256) {\r\n        return trees[treeId].onActionUntil;\r\n    }\r\n\r\n    function currentPrice() public view returns (uint256) {\r\n        uint256 basePrice = 1;\r\n        uint256 scalingPrice = 1;\r\n        uint256 scalingAmount = 5;\r\n        uint256 price = (basePrice*10**18)+(offerCounter.current()/scalingAmount)*scalingPrice*10**18;\r\n        return price;\r\n    }\r\n\r\n    function _generateRandomDNA() internal view returns (uint256) {\r\n        uint256 rand = uint256(keccak256(abi.encodePacked(vrf())));\r\n        return rand % Modulus;\r\n    }\r\n\r\n    function getTreeQuantities() external view returns (uint256) {\r\n        return offerCounter.current();\r\n    }\r\n\r\n    //External Functions\r\n\r\n    function gainLevel(uint256 treeId, address user) external onlyRole(UPG_ROLE) {\r\n        uint256 amount = trees[treeId].level*10**18;\r\n        require(IERC20Upgradeable(TokenAddress).balanceOf(user)>= amount);\r\n        IERC20Upgradeable(TokenAddress).transferFrom(user, TreasuryAddress, amount*96/100);\r\n        IERC20Upgradeable(TokenAddress).transferFrom(user, DevelopmentAddress, amount*4/100);\r\n        trees[treeId].exp = trees[treeId].exp-trees[treeId].level*100;\r\n        trees[treeId].level++;\r\n        emit GainLevel(treeId);\r\n    }\r\n\r\n    function gainExp(uint256 treeId, uint256 amount) external onlyRole(QUEST_ROLE) {\r\n        trees[treeId].exp = trees[treeId].exp + amount;\r\n        emit GainExp(treeId, amount);\r\n    }\r\n\r\n    function levelUpBranches(uint256 treeId, address user) external onlyRole(UPG_ROLE) {\r\n        uint256 amount = trees[treeId].branches*10**18;\r\n        require(IERC20Upgradeable(TokenAddress).balanceOf(user)>= amount);\r\n        IERC20Upgradeable(TokenAddress).transferFrom(user, TreasuryAddress, amount*96/100);\r\n        IERC20Upgradeable(TokenAddress).transferFrom(user, DevelopmentAddress, amount*4/100);\r\n        trees[treeId].branches++;\r\n        emit StatLevelUp (treeId, 0);\r\n    }\r\n    function levelUpRoots(uint256 treeId, address user) external onlyRole(UPG_ROLE) {\r\n        uint256 amount = trees[treeId].roots*10**18;\r\n        require(IERC20Upgradeable(TokenAddress).balanceOf(user)>= amount);\r\n        IERC20Upgradeable(TokenAddress).transferFrom(user, TreasuryAddress, amount*96/100);\r\n        IERC20Upgradeable(TokenAddress).transferFrom(user, DevelopmentAddress, amount*4/100);\r\n        trees[treeId].roots++;\r\n        emit StatLevelUp (treeId, 1);\r\n    }\r\n\r\n    function updateAction(uint256 treeId, uint256 action, uint256 time) external onlyRole(QUEST_ROLE) {\r\n        trees[treeId].onActionUntil = time;\r\n        trees[treeId].action = action;\r\n    }\r\n\r\n    //Payable Functions\r\n\r\n    function createNewTree() external payable {\r\n        require(msg.sender != address(0) && msg.sender != address(this));\r\n        require(msg.value == currentPrice());\r\n        uint256 DNA = _generateRandomDNA();\r\n        uint256 current = offerCounter.current();\r\n        offerCounter.increment();\r\n        trees[current] = TreeStruct(DNA, 1, 0, 1, 1, 0, 0);\r\n        _mint(msg.sender, current);\r\n        retrieveFunds(current);\r\n        emit NewTree(current);\r\n\r\n    }\r\n\r\n    //Retrive Funds\r\n\r\n    function retrieveFunds(uint256 treeId) internal {\r\n        if (treeId < 2000) {\r\n            TreasuryAddress.transfer(payable(address(this)).balance/2);\r\n            DevelopmentAddress.transfer(payable(address(this)).balance/2);\r\n        } else {\r\n            TreasuryAddress.transfer(payable(address(this)).balance);\r\n        }\r\n    }\r\n\r\n    //Transfer Functions\r\n\r\n    function transferDevelopmentAddress(address payable newDevelopment) external onlyRole(DEFAULT_ADMIN_ROLE) {\r\n        DevelopmentAddress = newDevelopment;\r\n    }\r\n\r\n    function transferTreasuryAddress(address payable newTreasury) external onlyRole(DEFAULT_ADMIN_ROLE) {\r\n        TreasuryAddress = newTreasury;\r\n    }\r\n\r\n    function transferTokenAddress(address newToken) external onlyRole(DEFAULT_ADMIN_ROLE) {\r\n        TokenAddress = newToken;\r\n    }\r\n\r\n}",
  "sourcePath": "C:\\Users\\jtsch\\OneDrive\\Escritorio\\Python\\SmartContracts-NFT-Agus\\contracts\\Tree.sol",
  "compiler": {
    "name": "solc",
    "version": "0.8.12+commit.f00d7308.Emscripten.clang"
  },
  "schemaVersion": "3.4.3",
  "updatedAt": "2022-02-22T17:56:51.297Z",
  "devdoc": {
    "kind": "dev",
    "methods": {
      "approve(address,uint256)": {
        "details": "See {IERC721-approve}."
      },
      "balanceOf(address)": {
        "details": "See {IERC721-balanceOf}."
      },
      "getApproved(uint256)": {
        "details": "See {IERC721-getApproved}."
      },
      "getRoleAdmin(bytes32)": {
        "details": "Returns the admin role that controls `role`. See {grantRole} and {revokeRole}. To change a role's admin, use {_setRoleAdmin}."
      },
      "grantRole(bytes32,address)": {
        "details": "Grants `role` to `account`. If `account` had not been already granted `role`, emits a {RoleGranted} event. Requirements: - the caller must have ``role``'s admin role."
      },
      "hasRole(bytes32,address)": {
        "details": "Returns `true` if `account` has been granted `role`."
      },
      "isApprovedForAll(address,address)": {
        "details": "See {IERC721-isApprovedForAll}."
      },
      "name()": {
        "details": "See {IERC721Metadata-name}."
      },
      "ownerOf(uint256)": {
        "details": "See {IERC721-ownerOf}."
      },
      "renounceRole(bytes32,address)": {
        "details": "Revokes `role` from the calling account. Roles are often managed via {grantRole} and {revokeRole}: this function's purpose is to provide a mechanism for accounts to lose their privileges if they are compromised (such as when a trusted device is misplaced). If the calling account had been revoked `role`, emits a {RoleRevoked} event. Requirements: - the caller must be `account`."
      },
      "revokeRole(bytes32,address)": {
        "details": "Revokes `role` from `account`. If `account` had been granted `role`, emits a {RoleRevoked} event. Requirements: - the caller must have ``role``'s admin role."
      },
      "safeTransferFrom(address,address,uint256)": {
        "details": "See {IERC721-safeTransferFrom}."
      },
      "safeTransferFrom(address,address,uint256,bytes)": {
        "details": "See {IERC721-safeTransferFrom}."
      },
      "setApprovalForAll(address,bool)": {
        "details": "See {IERC721-setApprovalForAll}."
      },
      "symbol()": {
        "details": "See {IERC721Metadata-symbol}."
      },
      "tokenURI(uint256)": {
        "details": "See {IERC721Metadata-tokenURI}."
      },
      "transferFrom(address,address,uint256)": {
        "details": "See {IERC721-transferFrom}."
      }
    },
    "version": 1
  },
  "userdoc": {
    "kind": "user",
    "methods": {},
    "version": 1
  }
}