{
  "contractName": "TreeQuests",
  "abi": [
    {
      "anonymous": false,
      "inputs": [
        {
          "indexed": false,
          "internalType": "uint256",
          "name": "treeId",
          "type": "uint256"
        },
        {
          "indexed": false,
          "internalType": "uint256",
          "name": "questId",
          "type": "uint256"
        }
      ],
      "name": "CancelQuest",
      "type": "event"
    },
    {
      "anonymous": false,
      "inputs": [
        {
          "indexed": false,
          "internalType": "uint256",
          "name": "treeId",
          "type": "uint256"
        },
        {
          "indexed": false,
          "internalType": "uint256",
          "name": "questId",
          "type": "uint256"
        }
      ],
      "name": "CompleteQuest",
      "type": "event"
    },
    {
      "anonymous": false,
      "inputs": [
        {
          "indexed": false,
          "internalType": "uint256",
          "name": "treeId",
          "type": "uint256"
        },
        {
          "indexed": false,
          "internalType": "uint256",
          "name": "questId",
          "type": "uint256"
        }
      ],
      "name": "StartQuest",
      "type": "event"
    },
    {
      "inputs": [],
      "name": "initialize",
      "outputs": [],
      "stateMutability": "nonpayable",
      "type": "function"
    },
    {
      "inputs": [],
      "name": "treasuryMultiplicator",
      "outputs": [
        {
          "internalType": "uint256",
          "name": "",
          "type": "uint256"
        }
      ],
      "stateMutability": "view",
      "type": "function",
      "constant": true
    },
    {
      "inputs": [],
      "name": "vrf",
      "outputs": [
        {
          "internalType": "bytes32",
          "name": "result",
          "type": "bytes32"
        }
      ],
      "stateMutability": "view",
      "type": "function",
      "constant": true
    },
    {
      "inputs": [
        {
          "internalType": "uint256",
          "name": "treeId",
          "type": "uint256"
        }
      ],
      "name": "startQuest0",
      "outputs": [],
      "stateMutability": "payable",
      "type": "function",
      "payable": true
    },
    {
      "inputs": [
        {
          "internalType": "uint256",
          "name": "treeId",
          "type": "uint256"
        }
      ],
      "name": "completeQuest0",
      "outputs": [],
      "stateMutability": "payable",
      "type": "function",
      "payable": true
    },
    {
      "inputs": [
        {
          "internalType": "uint256",
          "name": "treeId",
          "type": "uint256"
        }
      ],
      "name": "cancelQuest0",
      "outputs": [],
      "stateMutability": "payable",
      "type": "function",
      "payable": true
    },
    {
      "inputs": [
        {
          "internalType": "uint256",
          "name": "treeId",
          "type": "uint256"
        }
      ],
      "name": "startQuest1",
      "outputs": [],
      "stateMutability": "payable",
      "type": "function",
      "payable": true
    },
    {
      "inputs": [
        {
          "internalType": "uint256",
          "name": "treeId",
          "type": "uint256"
        }
      ],
      "name": "completeQuest1",
      "outputs": [],
      "stateMutability": "payable",
      "type": "function",
      "payable": true
    },
    {
      "inputs": [
        {
          "internalType": "uint256",
          "name": "treeId",
          "type": "uint256"
        }
      ],
      "name": "cancelQuest1",
      "outputs": [],
      "stateMutability": "payable",
      "type": "function",
      "payable": true
    },
    {
      "inputs": [
        {
          "internalType": "address",
          "name": "newOwner",
          "type": "address"
        }
      ],
      "name": "transferOwnership",
      "outputs": [],
      "stateMutability": "payable",
      "type": "function",
      "payable": true
    },
    {
      "inputs": [
        {
          "internalType": "address",
          "name": "newTreasury",
          "type": "address"
        }
      ],
      "name": "transferTreasury",
      "outputs": [],
      "stateMutability": "payable",
      "type": "function",
      "payable": true
    }
  ],
  "bytecode": "0x608060405234801561001057600080fd5b506122d5806100206000396000f3fe60806040526004361061009c5760003560e01c80638129fc1c116100645780638129fc1c1461014b57806383e70d7a146101625780638a010a7d1461017e578063d8a6021c1461019a578063f2fde38b146101b6578063f8a65c4c146101d25761009c565b80630c949043146100a15780634fc05217146100cc578063679fa4ad146100e85780636d9dcc451461010457806373842b491461012f575b600080fd5b3480156100ad57600080fd5b506100b66101ee565b6040516100c39190611cdd565b60405180910390f35b6100e660048036038101906100e19190611d33565b610234565b005b61010260048036038101906100fd9190611d33565b610481565b005b34801561011057600080fd5b5061011961079f565b6040516101269190611d6f565b60405180910390f35b61014960048036038101906101449190611d33565b61096d565b005b34801561015757600080fd5b50610160610c8b565b005b61017c60048036038101906101779190611d33565b610fe8565b005b61019860048036038101906101939190611d33565b611235565b005b6101b460048036038101906101af9190611de8565b6115c2565b005b6101d060048036038101906101cb9190611de8565b611660565b005b6101ec60048036038101906101e79190611d33565b6116fe565b005b60006101f8611ca2565b438160006001811061020d5761020c611e15565b5b60200201818152505060405160208160208460ff600019fa61022b57fe5b80519250505090565b803373ffffffffffffffffffffffffffffffffffffffff16600660009054906101000a900473ffffffffffffffffffffffffffffffffffffffff1673ffffffffffffffffffffffffffffffffffffffff16636352211e836040518263ffffffff1660e01b81526004016102a79190611d6f565b602060405180830381865afa1580156102c4573d6000803e3d6000fd5b505050506040513d601f19601f820116820180604052508101906102e89190611e59565b73ffffffffffffffffffffffffffffffffffffffff161461030857600080fd5b6000600660009054906101000a900473ffffffffffffffffffffffffffffffffffffffff1673ffffffffffffffffffffffffffffffffffffffff1663850b0f3c846040518263ffffffff1660e01b81526004016103659190611d6f565b6020604051808303816000875af1158015610384573d6000803e3d6000fd5b505050506040513d601f19601f820116820180604052508101906103a89190611e9b565b14156103b357600080fd5b600660009054906101000a900473ffffffffffffffffffffffffffffffffffffffff1673ffffffffffffffffffffffffffffffffffffffff16638536496f8360006040518363ffffffff1660e01b8152600401610411929190611f0d565b600060405180830381600087803b15801561042b57600080fd5b505af115801561043f573d6000803e3d6000fd5b505050507fa176029de55f35a0e3bc1dc9eb8a1c24f3e5c63e42d329733e334a63db95a889826001604051610475929190611f71565b60405180910390a15050565b803373ffffffffffffffffffffffffffffffffffffffff16600660009054906101000a900473ffffffffffffffffffffffffffffffffffffffff1673ffffffffffffffffffffffffffffffffffffffff16636352211e836040518263ffffffff1660e01b81526004016104f49190611d6f565b602060405180830381865afa158015610511573d6000803e3d6000fd5b505050506040513d601f19601f820116820180604052508101906105359190611e59565b73ffffffffffffffffffffffffffffffffffffffff161461055557600080fd5b6000600660009054906101000a900473ffffffffffffffffffffffffffffffffffffffff1673ffffffffffffffffffffffffffffffffffffffff1663850b0f3c846040518263ffffffff1660e01b81526004016105b29190611d6f565b6020604051808303816000875af11580156105d1573d6000803e3d6000fd5b505050506040513d601f19601f820116820180604052508101906105f59190611e9b565b146105ff57600080fd5b6000603c6001600660009054906101000a900473ffffffffffffffffffffffffffffffffffffffff1673ffffffffffffffffffffffffffffffffffffffff16639c06eccd866040518263ffffffff1660e01b81526004016106609190611d6f565b6020604051808303816000875af115801561067f573d6000803e3d6000fd5b505050506040513d601f19601f820116820180604052508101906106a39190611e9b565b6106ad9190611fc9565b6106b79190611fc9565b6102586106c49190612023565b9050600660009054906101000a900473ffffffffffffffffffffffffffffffffffffffff1673ffffffffffffffffffffffffffffffffffffffff16638536496f8483426107119190612057565b6040518363ffffffff1660e01b815260040161072e9291906120ad565b600060405180830381600087803b15801561074857600080fd5b505af115801561075c573d6000803e3d6000fd5b505050507ff4489fbfe0edc46e6905e1f77d624c12bcd689709fdd138371d8a7edf52f5e5d836001604051610792929190611f71565b60405180910390a1505050565b600080600360009054906101000a900473ffffffffffffffffffffffffffffffffffffffff1673ffffffffffffffffffffffffffffffffffffffff166370a08231600160009054906101000a900473ffffffffffffffffffffffffffffffffffffffff166040518263ffffffff1660e01b815260040161081f91906120e5565b602060405180830381865afa15801561083c573d6000803e3d6000fd5b505050506040513d601f19601f820116820180604052508101906108609190611e9b565b90506064600580546108729190611fc9565b61087c919061212f565b811061088c57606491505061096a565b6064600460055461089d9190611fc9565b6108a7919061212f565b81106108b757605091505061096a565b606460036005546108c89190611fc9565b6108d2919061212f565b81106108e257603c91505061096a565b606460026005546108f39190611fc9565b6108fd919061212f565b811061090d57602891505061096a565b6064600160055461091e9190611fc9565b610928919061212f565b811061093857601491505061096a565b6103e8600160055461094a9190611fc9565b610954919061212f565b811061096457600591505061096a565b60009150505b90565b803373ffffffffffffffffffffffffffffffffffffffff16600660009054906101000a900473ffffffffffffffffffffffffffffffffffffffff1673ffffffffffffffffffffffffffffffffffffffff16636352211e836040518263ffffffff1660e01b81526004016109e09190611d6f565b602060405180830381865afa1580156109fd573d6000803e3d6000fd5b505050506040513d601f19601f82011682018060405250810190610a219190611e59565b73ffffffffffffffffffffffffffffffffffffffff1614610a4157600080fd5b6000600660009054906101000a900473ffffffffffffffffffffffffffffffffffffffff1673ffffffffffffffffffffffffffffffffffffffff1663850b0f3c846040518263ffffffff1660e01b8152600401610a9e9190611d6f565b6020604051808303816000875af1158015610abd573d6000803e3d6000fd5b505050506040513d601f19601f82011682018060405250810190610ae19190611e9b565b14610aeb57600080fd5b6000603c6003600660009054906101000a900473ffffffffffffffffffffffffffffffffffffffff1673ffffffffffffffffffffffffffffffffffffffff16639c06eccd866040518263ffffffff1660e01b8152600401610b4c9190611d6f565b6020604051808303816000875af1158015610b6b573d6000803e3d6000fd5b505050506040513d601f19601f82011682018060405250810190610b8f9190611e9b565b610b999190611fc9565b610ba39190611fc9565b610708610bb09190612023565b9050600660009054906101000a900473ffffffffffffffffffffffffffffffffffffffff1673ffffffffffffffffffffffffffffffffffffffff16638536496f848342610bfd9190612057565b6040518363ffffffff1660e01b8152600401610c1a9291906120ad565b600060405180830381600087803b158015610c3457600080fd5b505af1158015610c48573d6000803e3d6000fd5b505050507ff4489fbfe0edc46e6905e1f77d624c12bcd689709fdd138371d8a7edf52f5e5d836000604051610c7e929190611f0d565b60405180910390a1505050565b600060019054906101000a900460ff16610cb35760008054906101000a900460ff1615610cbc565b610cbb611c46565b5b610cfb576040517f08c379a0000000000000000000000000000000000000000000000000000000008152600401610cf2906121e3565b60405180910390fd5b60008060019054906101000a900460ff161590508015610d4b576001600060016101000a81548160ff02191690831515021790555060016000806101000a81548160ff0219169083151502179055505b73f577601a5ef1d5079da672f01d7ab3b80dd2bd1d600060026101000a81548173ffffffffffffffffffffffffffffffffffffffff021916908373ffffffffffffffffffffffffffffffffffffffff16021790555073fd768e668a158c173e9549d1632902c2a4363178600160006101000a81548173ffffffffffffffffffffffffffffffffffffffff021916908373ffffffffffffffffffffffffffffffffffffffff16021790555073066a907192376088248935abad90dacd06e87f64600260006101000a81548173ffffffffffffffffffffffffffffffffffffffff021916908373ffffffffffffffffffffffffffffffffffffffff1602179055507354301761569145d50da03d8cfdfa19913f20ed9b600360006101000a81548173ffffffffffffffffffffffffffffffffffffffff021916908373ffffffffffffffffffffffffffffffffffffffff160217905550736ba1097c0aa545755383600292eaccc095df6610600460006101000a81548173ffffffffffffffffffffffffffffffffffffffff021916908373ffffffffffffffffffffffffffffffffffffffff160217905550623d0900600581905550600260009054906101000a900473ffffffffffffffffffffffffffffffffffffffff16600660006101000a81548173ffffffffffffffffffffffffffffffffffffffff021916908373ffffffffffffffffffffffffffffffffffffffff160217905550600460009054906101000a900473ffffffffffffffffffffffffffffffffffffffff16600760006101000a81548173ffffffffffffffffffffffffffffffffffffffff021916908373ffffffffffffffffffffffffffffffffffffffff1602179055508015610fe55760008060016101000a81548160ff0219169083151502179055505b50565b803373ffffffffffffffffffffffffffffffffffffffff16600660009054906101000a900473ffffffffffffffffffffffffffffffffffffffff1673ffffffffffffffffffffffffffffffffffffffff16636352211e836040518263ffffffff1660e01b815260040161105b9190611d6f565b602060405180830381865afa158015611078573d6000803e3d6000fd5b505050506040513d601f19601f8201168201806040525081019061109c9190611e59565b73ffffffffffffffffffffffffffffffffffffffff16146110bc57600080fd5b6000600660009054906101000a900473ffffffffffffffffffffffffffffffffffffffff1673ffffffffffffffffffffffffffffffffffffffff1663850b0f3c846040518263ffffffff1660e01b81526004016111199190611d6f565b6020604051808303816000875af1158015611138573d6000803e3d6000fd5b505050506040513d601f19601f8201168201806040525081019061115c9190611e9b565b141561116757600080fd5b600660009054906101000a900473ffffffffffffffffffffffffffffffffffffffff1673ffffffffffffffffffffffffffffffffffffffff16638536496f8360006040518363ffffffff1660e01b81526004016111c5929190611f0d565b600060405180830381600087803b1580156111df57600080fd5b505af11580156111f3573d6000803e3d6000fd5b505050507fa176029de55f35a0e3bc1dc9eb8a1c24f3e5c63e42d329733e334a63db95a889826000604051611229929190611f0d565b60405180910390a15050565b803373ffffffffffffffffffffffffffffffffffffffff16600660009054906101000a900473ffffffffffffffffffffffffffffffffffffffff1673ffffffffffffffffffffffffffffffffffffffff16636352211e836040518263ffffffff1660e01b81526004016112a89190611d6f565b602060405180830381865afa1580156112c5573d6000803e3d6000fd5b505050506040513d601f19601f820116820180604052508101906112e99190611e59565b73ffffffffffffffffffffffffffffffffffffffff161461130957600080fd5b6000600660009054906101000a900473ffffffffffffffffffffffffffffffffffffffff1673ffffffffffffffffffffffffffffffffffffffff1663850b0f3c846040518263ffffffff1660e01b81526004016113669190611d6f565b6020604051808303816000875af1158015611385573d6000803e3d6000fd5b505050506040513d601f19601f820116820180604052508101906113a99190611e9b565b14156113b457600080fd5b600660009054906101000a900473ffffffffffffffffffffffffffffffffffffffff1673ffffffffffffffffffffffffffffffffffffffff1663850b0f3c836040518263ffffffff1660e01b815260040161140f9190611d6f565b6020604051808303816000875af115801561142e573d6000803e3d6000fd5b505050506040513d601f19601f820116820180604052508101906114529190611e9b565b42101561145e57600080fd5b600060649050600660009054906101000a900473ffffffffffffffffffffffffffffffffffffffff1673ffffffffffffffffffffffffffffffffffffffff16638536496f8460006040518363ffffffff1660e01b81526004016114c2929190611f0d565b600060405180830381600087803b1580156114dc57600080fd5b505af11580156114f0573d6000803e3d6000fd5b50505050600660009054906101000a900473ffffffffffffffffffffffffffffffffffffffff1673ffffffffffffffffffffffffffffffffffffffff16636cad693284836040518363ffffffff1660e01b81526004016115519291906120ad565b600060405180830381600087803b15801561156b57600080fd5b505af115801561157f573d6000803e3d6000fd5b505050507f30ee9e16196ba30cdcc7b150805a842d6ee2b4e5f912753ec25aae5a8016c0128360016040516115b5929190611f71565b60405180910390a1505050565b3373ffffffffffffffffffffffffffffffffffffffff16600060029054906101000a900473ffffffffffffffffffffffffffffffffffffffff1673ffffffffffffffffffffffffffffffffffffffff161461161c57600080fd5b80600160006101000a81548173ffffffffffffffffffffffffffffffffffffffff021916908373ffffffffffffffffffffffffffffffffffffffff16021790555050565b3373ffffffffffffffffffffffffffffffffffffffff16600060029054906101000a900473ffffffffffffffffffffffffffffffffffffffff1673ffffffffffffffffffffffffffffffffffffffff16146116ba57600080fd5b80600060026101000a81548173ffffffffffffffffffffffffffffffffffffffff021916908373ffffffffffffffffffffffffffffffffffffffff16021790555050565b803373ffffffffffffffffffffffffffffffffffffffff16600660009054906101000a900473ffffffffffffffffffffffffffffffffffffffff1673ffffffffffffffffffffffffffffffffffffffff16636352211e836040518263ffffffff1660e01b81526004016117719190611d6f565b602060405180830381865afa15801561178e573d6000803e3d6000fd5b505050506040513d601f19601f820116820180604052508101906117b29190611e59565b73ffffffffffffffffffffffffffffffffffffffff16146117d257600080fd5b6000600660009054906101000a900473ffffffffffffffffffffffffffffffffffffffff1673ffffffffffffffffffffffffffffffffffffffff1663850b0f3c846040518263ffffffff1660e01b815260040161182f9190611d6f565b6020604051808303816000875af115801561184e573d6000803e3d6000fd5b505050506040513d601f19601f820116820180604052508101906118729190611e9b565b141561187d57600080fd5b600660009054906101000a900473ffffffffffffffffffffffffffffffffffffffff1673ffffffffffffffffffffffffffffffffffffffff1663850b0f3c836040518263ffffffff1660e01b81526004016118d89190611d6f565b6020604051808303816000875af11580156118f7573d6000803e3d6000fd5b505050506040513d601f19601f8201168201806040525081019061191b9190611e9b565b42101561192757600080fd5b6000600a9050600060056119d9600660009054906101000a900473ffffffffffffffffffffffffffffffffffffffff1673ffffffffffffffffffffffffffffffffffffffff16635e31fcc6876040518263ffffffff1660e01b815260040161198f9190611d6f565b6020604051808303816000875af11580156119ae573d6000803e3d6000fd5b505050506040513d601f19601f820116820180604052508101906119d29190611e9b565b6005611c57565b6119e3919061212f565b905060006119ef61079f565b9050600060648383670de0b6b3a7640000611a0a9190611fc9565b611a149190611fc9565b611a1e919061212f565b9050600660009054906101000a900473ffffffffffffffffffffffffffffffffffffffff1673ffffffffffffffffffffffffffffffffffffffff16638536496f8760006040518363ffffffff1660e01b8152600401611a7e929190611f0d565b600060405180830381600087803b158015611a9857600080fd5b505af1158015611aac573d6000803e3d6000fd5b50505050600660009054906101000a900473ffffffffffffffffffffffffffffffffffffffff1673ffffffffffffffffffffffffffffffffffffffff16636cad693287866040518363ffffffff1660e01b8152600401611b0d9291906120ad565b600060405180830381600087803b158015611b2757600080fd5b505af1158015611b3b573d6000803e3d6000fd5b50505050600360009054906101000a900473ffffffffffffffffffffffffffffffffffffffff1673ffffffffffffffffffffffffffffffffffffffff166323b872dd600160009054906101000a900473ffffffffffffffffffffffffffffffffffffffff1633846040518463ffffffff1660e01b8152600401611bc093929190612203565b6020604051808303816000875af1158015611bdf573d6000803e3d6000fd5b505050506040513d601f19601f82011682018060405250810190611c039190612272565b507f30ee9e16196ba30cdcc7b150805a842d6ee2b4e5f912753ec25aae5a8016c012866000604051611c36929190611f0d565b60405180910390a1505050505050565b6000611c5130611c8f565b15905090565b6000818260018486611c699190612057565b611c739190612023565b611c7d919061212f565b611c879190611fc9565b905092915050565b600080823b905060008111915050919050565b6040518060200160405280600190602082028036833780820191505090505090565b6000819050919050565b611cd781611cc4565b82525050565b6000602082019050611cf26000830184611cce565b92915050565b600080fd5b6000819050919050565b611d1081611cfd565b8114611d1b57600080fd5b50565b600081359050611d2d81611d07565b92915050565b600060208284031215611d4957611d48611cf8565b5b6000611d5784828501611d1e565b91505092915050565b611d6981611cfd565b82525050565b6000602082019050611d846000830184611d60565b92915050565b600073ffffffffffffffffffffffffffffffffffffffff82169050919050565b6000611db582611d8a565b9050919050565b611dc581611daa565b8114611dd057600080fd5b50565b600081359050611de281611dbc565b92915050565b600060208284031215611dfe57611dfd611cf8565b5b6000611e0c84828501611dd3565b91505092915050565b7f4e487b7100000000000000000000000000000000000000000000000000000000600052603260045260246000fd5b600081519050611e5381611dbc565b92915050565b600060208284031215611e6f57611e6e611cf8565b5b6000611e7d84828501611e44565b91505092915050565b600081519050611e9581611d07565b92915050565b600060208284031215611eb157611eb0611cf8565b5b6000611ebf84828501611e86565b91505092915050565b6000819050919050565b6000819050919050565b6000611ef7611ef2611eed84611ec8565b611ed2565b611cfd565b9050919050565b611f0781611edc565b82525050565b6000604082019050611f226000830185611d60565b611f2f6020830184611efe565b9392505050565b6000819050919050565b6000611f5b611f56611f5184611f36565b611ed2565b611cfd565b9050919050565b611f6b81611f40565b82525050565b6000604082019050611f866000830185611d60565b611f936020830184611f62565b9392505050565b7f4e487b7100000000000000000000000000000000000000000000000000000000600052601160045260246000fd5b6000611fd482611cfd565b9150611fdf83611cfd565b9250817fffffffffffffffffffffffffffffffffffffffffffffffffffffffffffffffff048311821515161561201857612017611f9a565b5b828202905092915050565b600061202e82611cfd565b915061203983611cfd565b92508282101561204c5761204b611f9a565b5b828203905092915050565b600061206282611cfd565b915061206d83611cfd565b9250827fffffffffffffffffffffffffffffffffffffffffffffffffffffffffffffffff038211156120a2576120a1611f9a565b5b828201905092915050565b60006040820190506120c26000830185611d60565b6120cf6020830184611d60565b9392505050565b6120df81611daa565b82525050565b60006020820190506120fa60008301846120d6565b92915050565b7f4e487b7100000000000000000000000000000000000000000000000000000000600052601260045260246000fd5b600061213a82611cfd565b915061214583611cfd565b92508261215557612154612100565b5b828204905092915050565b600082825260208201905092915050565b7f496e697469616c697a61626c653a20636f6e747261637420697320616c72656160008201527f647920696e697469616c697a6564000000000000000000000000000000000000602082015250565b60006121cd602e83612160565b91506121d882612171565b604082019050919050565b600060208201905081810360008301526121fc816121c0565b9050919050565b600060608201905061221860008301866120d6565b61222560208301856120d6565b6122326040830184611d60565b949350505050565b60008115159050919050565b61224f8161223a565b811461225a57600080fd5b50565b60008151905061226c81612246565b92915050565b60006020828403121561228857612287611cf8565b5b60006122968482850161225d565b9150509291505056fea264697066735822122097b201090819b48a4d336c91b599c5a1e72016f107a62a039a90da15c362a6c664736f6c634300080b0033",
  "immutableReferences": {},
  "source": "// SPDX-License-Identifier: UNLICENSED\r\n\r\npragma solidity ^0.8.3;\r\nimport \"./AbstractTree.sol\";\r\nimport \"./AbstractBasicRune.sol\";\r\nimport \"../node_modules/@openzeppelin/contracts/token/ERC20/IERC20.sol\";\r\nimport \"../node_modules/@openzeppelin/contracts-upgradeable/proxy/utils/Initializable.sol\";\r\n\r\ncontract TreeQuests is Initializable {\r\n\r\n    event StartQuest(uint treeId, uint questId);\r\n    event CompleteQuest(uint treeId, uint questId);\r\n    event CancelQuest(uint treeId, uint questId);\r\n\r\n    address ContractOwner;\r\n    address TreasuryAddress;\r\n    \r\n    //Get TreeAddress after TreeContract Deployment\r\n    address TreeAddress;\r\n    \r\n    //Get TokenAddress after TokenContract Deployment\r\n    address TokenAddress;\r\n    address BasicRuneAddress;\r\n    uint totalTreasuryBalance;\r\n\r\n    AbstractTree tree;\r\n    AbstractBasicRune basicRune;\r\n\r\n    modifier onlyOwnerOf(uint _treeId) {\r\n        require(tree.ownerOf(_treeId) == msg.sender);\r\n        _;\r\n    }\r\n\r\n    modifier onlyOwner() {\r\n        require(ContractOwner == msg.sender);\r\n        _;\r\n    }\r\n\r\n    function initialize() initializer public {\r\n        ContractOwner = 0xf577601a5eF1d5079Da672f01D7aB3b80dD2bd1D;\r\n        TreasuryAddress = 0xfd768E668A158C173e9549d1632902C2A4363178;\r\n        TreeAddress = 0x066a907192376088248935AbaD90DaCD06E87F64;\r\n        TokenAddress = 0x54301761569145d50da03d8CfdfA19913f20Ed9b;\r\n        BasicRuneAddress = 0x6Ba1097C0aA545755383600292eacCC095dF6610;\r\n        totalTreasuryBalance = 4000000;\r\n        tree = AbstractTree(TreeAddress);\r\n        basicRune = AbstractBasicRune(BasicRuneAddress);\r\n    }\r\n    \r\n    // Util functions\r\n\r\n    function ceil(uint _a, uint _m) internal pure returns (uint ) {\r\n        return ((_a + _m - 1) / _m) * _m;\r\n    }\r\n\r\n    function treasuryMultiplicator() public view returns (uint) {\r\n        uint currentTreasuryBalance = IERC20(TokenAddress).balanceOf(TreasuryAddress);\r\n        if (currentTreasuryBalance >= totalTreasuryBalance*5/100) {\r\n            return 100;\r\n        } else if (currentTreasuryBalance >= totalTreasuryBalance*4/100) {\r\n            return 80;\r\n        } else if (currentTreasuryBalance >= totalTreasuryBalance*3/100) {\r\n            return 60;\r\n        } else if (currentTreasuryBalance >= totalTreasuryBalance*2/100) {\r\n            return 40;\r\n        } else if (currentTreasuryBalance >= totalTreasuryBalance*1/100) {\r\n            return 20;\r\n        } else if (currentTreasuryBalance >= totalTreasuryBalance*1/1000) {\r\n            return 5;\r\n        } else {\r\n            return 0;\r\n        }\r\n    }\r\n\r\n    function vrf() public view returns (bytes32 result) {\r\n        uint[1] memory bn;\r\n        bn[0] = block.number;\r\n        assembly {\r\n            let memPtr := mload(0x40)\r\n            if iszero(staticcall(not(0), 0xff, bn, 0x20, memPtr, 0x20)) {\r\n                invalid()\r\n            }\r\n            result := mload(memPtr)\r\n        }\r\n    }\r\n\r\n    //Payable Functions\r\n\r\n    //Quest0 Foraging\r\n\r\n    function startQuest0(uint treeId) public payable onlyOwnerOf(treeId) {\r\n        require(tree.questStatus(treeId) == 0);\r\n        uint questDuration = 30*60 - tree.treeTrainingGrounds(treeId)*3*60;\r\n        tree.updateQuestStatus(treeId, block.timestamp+questDuration);\r\n        emit StartQuest(treeId, 0);\r\n    }\r\n\r\n    function completeQuest0(uint treeId) public payable onlyOwnerOf(treeId) {\r\n        require(tree.questStatus(treeId) != 0);\r\n        require(block.timestamp >= tree.questStatus(treeId));\r\n\r\n        uint expReward = 10;\r\n        uint treeMult = ceil(tree.treeBarracks(treeId),5)/5;\r\n        uint treasuryMult = treasuryMultiplicator();\r\n        uint tokenReward = (1*10**18)*treasuryMult*treeMult/100;\r\n        \r\n        tree.updateQuestStatus(treeId, 0);\r\n        tree.gainExp(treeId, expReward);\r\n        IERC20(TokenAddress).transferFrom(TreasuryAddress, msg.sender, tokenReward);\r\n        emit CompleteQuest(treeId, 0);\r\n\r\n    }\r\n\r\n    function cancelQuest0(uint treeId) public payable onlyOwnerOf(treeId) {\r\n        require(tree.questStatus(treeId) != 0);\r\n        tree.updateQuestStatus(treeId, 0);\r\n        emit CancelQuest(treeId, 0);\r\n\r\n    }\r\n\r\n    //Quest1 Clean Roots\r\n\r\n    function startQuest1(uint treeId) public payable onlyOwnerOf(treeId) {\r\n        require(tree.questStatus(treeId) == 0);\r\n        uint questDuration = 10*60 - tree.treeTrainingGrounds(treeId)*1*60;\r\n        tree.updateQuestStatus(treeId, block.timestamp+questDuration);\r\n        emit StartQuest(treeId, 1);\r\n    }\r\n\r\n    function completeQuest1(uint treeId) public payable onlyOwnerOf(treeId) {\r\n        require(tree.questStatus(treeId) != 0);\r\n        require(block.timestamp >= tree.questStatus(treeId));\r\n\r\n        uint expReward = 100;\r\n        tree.updateQuestStatus(treeId, 0);\r\n        tree.gainExp(treeId, expReward);\r\n        emit CompleteQuest(treeId, 1);\r\n\r\n    }\r\n\r\n    function cancelQuest1(uint treeId) public payable onlyOwnerOf(treeId) {\r\n        require(tree.questStatus(treeId) != 0);\r\n        tree.updateQuestStatus(treeId, 0);\r\n        emit CancelQuest(treeId, 1);\r\n\r\n    }\r\n\r\n    //Transfer functions\r\n\r\n    function transferOwnership(address newOwner) public payable onlyOwner() {\r\n        ContractOwner = newOwner;\r\n    }\r\n\r\n    function transferTreasury(address newTreasury) public payable onlyOwner() {\r\n        TreasuryAddress = newTreasury;\r\n    }\r\n}",
  "sourcePath": "C:\\Users\\jtsch\\OneDrive\\Escritorio\\Python\\SmartContracts-NFT-Agus\\contracts\\TreeQuests.sol",
  "compiler": {
    "name": "solc",
    "version": "0.8.11+commit.d7f03943.Emscripten.clang"
  },
  "schemaVersion": "3.4.3",
  "updatedAt": "2022-01-16T14:36:53.905Z",
  "networkType": "ethereum",
  "devdoc": {
    "kind": "dev",
    "methods": {},
    "version": 1
  },
  "userdoc": {
    "kind": "user",
    "methods": {},
    "version": 1
  }
}