{
  "contractName": "TreeV2",
  "abi": [
    {
      "anonymous": false,
      "inputs": [
        {
          "indexed": true,
          "internalType": "address",
          "name": "owner",
          "type": "address"
        },
        {
          "indexed": true,
          "internalType": "address",
          "name": "approved",
          "type": "address"
        },
        {
          "indexed": true,
          "internalType": "uint256",
          "name": "tokenId",
          "type": "uint256"
        }
      ],
      "name": "Approval",
      "type": "event"
    },
    {
      "anonymous": false,
      "inputs": [
        {
          "indexed": true,
          "internalType": "address",
          "name": "owner",
          "type": "address"
        },
        {
          "indexed": true,
          "internalType": "address",
          "name": "operator",
          "type": "address"
        },
        {
          "indexed": false,
          "internalType": "bool",
          "name": "approved",
          "type": "bool"
        }
      ],
      "name": "ApprovalForAll",
      "type": "event"
    },
    {
      "anonymous": false,
      "inputs": [
        {
          "indexed": false,
          "internalType": "uint256",
          "name": "treeId",
          "type": "uint256"
        },
        {
          "indexed": false,
          "internalType": "uint256",
          "name": "buildingId",
          "type": "uint256"
        }
      ],
      "name": "BuildingLevelUp",
      "type": "event"
    },
    {
      "anonymous": false,
      "inputs": [
        {
          "indexed": false,
          "internalType": "uint256",
          "name": "treeId",
          "type": "uint256"
        },
        {
          "indexed": false,
          "internalType": "uint256",
          "name": "amount",
          "type": "uint256"
        }
      ],
      "name": "GainExp",
      "type": "event"
    },
    {
      "anonymous": false,
      "inputs": [
        {
          "indexed": false,
          "internalType": "uint256",
          "name": "treeId",
          "type": "uint256"
        }
      ],
      "name": "GainLevel",
      "type": "event"
    },
    {
      "anonymous": false,
      "inputs": [
        {
          "indexed": false,
          "internalType": "uint256",
          "name": "treeId",
          "type": "uint256"
        }
      ],
      "name": "NewTree",
      "type": "event"
    },
    {
      "anonymous": false,
      "inputs": [
        {
          "indexed": true,
          "internalType": "address",
          "name": "from",
          "type": "address"
        },
        {
          "indexed": true,
          "internalType": "address",
          "name": "to",
          "type": "address"
        },
        {
          "indexed": true,
          "internalType": "uint256",
          "name": "tokenId",
          "type": "uint256"
        }
      ],
      "name": "Transfer",
      "type": "event"
    },
    {
      "inputs": [
        {
          "internalType": "address",
          "name": "to",
          "type": "address"
        },
        {
          "internalType": "uint256",
          "name": "tokenId",
          "type": "uint256"
        }
      ],
      "name": "approve",
      "outputs": [],
      "stateMutability": "nonpayable",
      "type": "function"
    },
    {
      "inputs": [
        {
          "internalType": "address",
          "name": "owner",
          "type": "address"
        }
      ],
      "name": "balanceOf",
      "outputs": [
        {
          "internalType": "uint256",
          "name": "",
          "type": "uint256"
        }
      ],
      "stateMutability": "view",
      "type": "function"
    },
    {
      "inputs": [
        {
          "internalType": "uint256",
          "name": "tokenId",
          "type": "uint256"
        }
      ],
      "name": "getApproved",
      "outputs": [
        {
          "internalType": "address",
          "name": "",
          "type": "address"
        }
      ],
      "stateMutability": "view",
      "type": "function"
    },
    {
      "inputs": [
        {
          "internalType": "address",
          "name": "owner",
          "type": "address"
        },
        {
          "internalType": "address",
          "name": "operator",
          "type": "address"
        }
      ],
      "name": "isApprovedForAll",
      "outputs": [
        {
          "internalType": "bool",
          "name": "",
          "type": "bool"
        }
      ],
      "stateMutability": "view",
      "type": "function"
    },
    {
      "inputs": [],
      "name": "name",
      "outputs": [
        {
          "internalType": "string",
          "name": "",
          "type": "string"
        }
      ],
      "stateMutability": "view",
      "type": "function"
    },
    {
      "inputs": [
        {
          "internalType": "uint256",
          "name": "tokenId",
          "type": "uint256"
        }
      ],
      "name": "ownerOf",
      "outputs": [
        {
          "internalType": "address",
          "name": "",
          "type": "address"
        }
      ],
      "stateMutability": "view",
      "type": "function"
    },
    {
      "inputs": [
        {
          "internalType": "address",
          "name": "from",
          "type": "address"
        },
        {
          "internalType": "address",
          "name": "to",
          "type": "address"
        },
        {
          "internalType": "uint256",
          "name": "tokenId",
          "type": "uint256"
        }
      ],
      "name": "safeTransferFrom",
      "outputs": [],
      "stateMutability": "nonpayable",
      "type": "function"
    },
    {
      "inputs": [
        {
          "internalType": "address",
          "name": "from",
          "type": "address"
        },
        {
          "internalType": "address",
          "name": "to",
          "type": "address"
        },
        {
          "internalType": "uint256",
          "name": "tokenId",
          "type": "uint256"
        },
        {
          "internalType": "bytes",
          "name": "_data",
          "type": "bytes"
        }
      ],
      "name": "safeTransferFrom",
      "outputs": [],
      "stateMutability": "nonpayable",
      "type": "function"
    },
    {
      "inputs": [
        {
          "internalType": "address",
          "name": "operator",
          "type": "address"
        },
        {
          "internalType": "bool",
          "name": "approved",
          "type": "bool"
        }
      ],
      "name": "setApprovalForAll",
      "outputs": [],
      "stateMutability": "nonpayable",
      "type": "function"
    },
    {
      "inputs": [
        {
          "internalType": "bytes4",
          "name": "interfaceId",
          "type": "bytes4"
        }
      ],
      "name": "supportsInterface",
      "outputs": [
        {
          "internalType": "bool",
          "name": "",
          "type": "bool"
        }
      ],
      "stateMutability": "view",
      "type": "function"
    },
    {
      "inputs": [],
      "name": "symbol",
      "outputs": [
        {
          "internalType": "string",
          "name": "",
          "type": "string"
        }
      ],
      "stateMutability": "view",
      "type": "function"
    },
    {
      "inputs": [
        {
          "internalType": "uint256",
          "name": "tokenId",
          "type": "uint256"
        }
      ],
      "name": "tokenURI",
      "outputs": [
        {
          "internalType": "string",
          "name": "",
          "type": "string"
        }
      ],
      "stateMutability": "view",
      "type": "function"
    },
    {
      "inputs": [
        {
          "internalType": "address",
          "name": "from",
          "type": "address"
        },
        {
          "internalType": "address",
          "name": "to",
          "type": "address"
        },
        {
          "internalType": "uint256",
          "name": "tokenId",
          "type": "uint256"
        }
      ],
      "name": "transferFrom",
      "outputs": [],
      "stateMutability": "nonpayable",
      "type": "function"
    },
    {
      "inputs": [
        {
          "internalType": "uint256",
          "name": "",
          "type": "uint256"
        }
      ],
      "name": "trees",
      "outputs": [
        {
          "internalType": "uint256",
          "name": "treeDNA",
          "type": "uint256"
        },
        {
          "internalType": "uint256",
          "name": "level",
          "type": "uint256"
        },
        {
          "internalType": "uint256",
          "name": "exp",
          "type": "uint256"
        },
        {
          "internalType": "uint256",
          "name": "barracks",
          "type": "uint256"
        },
        {
          "internalType": "uint256",
          "name": "trainingGrounds",
          "type": "uint256"
        },
        {
          "internalType": "uint256",
          "name": "onQuestUntil",
          "type": "uint256"
        }
      ],
      "stateMutability": "view",
      "type": "function"
    },
    {
      "inputs": [],
      "name": "initialize",
      "outputs": [],
      "stateMutability": "nonpayable",
      "type": "function"
    },
    {
      "inputs": [],
      "name": "vrf",
      "outputs": [
        {
          "internalType": "bytes32",
          "name": "result",
          "type": "bytes32"
        }
      ],
      "stateMutability": "view",
      "type": "function"
    },
    {
      "inputs": [
        {
          "internalType": "uint256",
          "name": "treeId",
          "type": "uint256"
        }
      ],
      "name": "treeDNA",
      "outputs": [
        {
          "internalType": "uint256",
          "name": "",
          "type": "uint256"
        }
      ],
      "stateMutability": "view",
      "type": "function"
    },
    {
      "inputs": [
        {
          "internalType": "uint256",
          "name": "treeId",
          "type": "uint256"
        }
      ],
      "name": "treeLevel",
      "outputs": [
        {
          "internalType": "uint256",
          "name": "",
          "type": "uint256"
        }
      ],
      "stateMutability": "view",
      "type": "function"
    },
    {
      "inputs": [
        {
          "internalType": "uint256",
          "name": "treeId",
          "type": "uint256"
        }
      ],
      "name": "treeExp",
      "outputs": [
        {
          "internalType": "uint256",
          "name": "",
          "type": "uint256"
        }
      ],
      "stateMutability": "view",
      "type": "function"
    },
    {
      "inputs": [
        {
          "internalType": "uint256",
          "name": "treeId",
          "type": "uint256"
        }
      ],
      "name": "treeBarracks",
      "outputs": [
        {
          "internalType": "uint256",
          "name": "",
          "type": "uint256"
        }
      ],
      "stateMutability": "view",
      "type": "function"
    },
    {
      "inputs": [
        {
          "internalType": "uint256",
          "name": "treeId",
          "type": "uint256"
        }
      ],
      "name": "treeTrainingGrounds",
      "outputs": [
        {
          "internalType": "uint256",
          "name": "",
          "type": "uint256"
        }
      ],
      "stateMutability": "view",
      "type": "function"
    },
    {
      "inputs": [
        {
          "internalType": "uint256",
          "name": "treeId",
          "type": "uint256"
        }
      ],
      "name": "questStatus",
      "outputs": [
        {
          "internalType": "uint256",
          "name": "",
          "type": "uint256"
        }
      ],
      "stateMutability": "view",
      "type": "function"
    },
    {
      "inputs": [],
      "name": "currentPrice",
      "outputs": [
        {
          "internalType": "uint256",
          "name": "",
          "type": "uint256"
        }
      ],
      "stateMutability": "view",
      "type": "function"
    },
    {
      "inputs": [
        {
          "internalType": "uint256",
          "name": "treeId",
          "type": "uint256"
        }
      ],
      "name": "upgradeBarracks",
      "outputs": [],
      "stateMutability": "payable",
      "type": "function"
    },
    {
      "inputs": [
        {
          "internalType": "uint256",
          "name": "treeId",
          "type": "uint256"
        }
      ],
      "name": "upgradeTrainingGrounds",
      "outputs": [],
      "stateMutability": "payable",
      "type": "function"
    },
    {
      "inputs": [
        {
          "internalType": "uint256",
          "name": "treeId",
          "type": "uint256"
        },
        {
          "internalType": "uint256",
          "name": "newValue",
          "type": "uint256"
        }
      ],
      "name": "updateQuestStatus",
      "outputs": [],
      "stateMutability": "payable",
      "type": "function"
    },
    {
      "inputs": [
        {
          "internalType": "uint256",
          "name": "treeId",
          "type": "uint256"
        },
        {
          "internalType": "uint256",
          "name": "amount",
          "type": "uint256"
        }
      ],
      "name": "gainExp",
      "outputs": [],
      "stateMutability": "payable",
      "type": "function"
    },
    {
      "inputs": [
        {
          "internalType": "uint256",
          "name": "treeId",
          "type": "uint256"
        }
      ],
      "name": "gainLevel",
      "outputs": [],
      "stateMutability": "payable",
      "type": "function"
    },
    {
      "inputs": [],
      "name": "createNewTree",
      "outputs": [],
      "stateMutability": "payable",
      "type": "function"
    },
    {
      "inputs": [
        {
          "internalType": "address",
          "name": "newOwner",
          "type": "address"
        }
      ],
      "name": "transferOwnership",
      "outputs": [],
      "stateMutability": "payable",
      "type": "function"
    },
    {
      "inputs": [
        {
          "internalType": "address",
          "name": "newQuestContract",
          "type": "address"
        }
      ],
      "name": "transferQuestContract",
      "outputs": [],
      "stateMutability": "payable",
      "type": "function"
    }
  ],
  "bytecode": "0x608060405234801561001057600080fd5b50614969806100206000396000f3fe6080604052600436106101d85760003560e01c806370a08231116101025780639c06eccd11610095578063c87b56dd11610064578063c87b56dd14610686578063d94406f2146106c3578063e985e9c514610700578063f2fde38b1461073d576101d8565b80639c06eccd146105cc5780639d1b464a14610609578063a22cb46514610634578063b88d4fde1461065d576101d8565b80638536496f116100d15780638536496f1461052c5780638bbfcac31461054857806395d89b41146105855780639a0f0244146105b0576101d8565b806370a08231146104595780637a508022146104965780638129fc1c146104d8578063850b0f3c146104ef576101d8565b806321cde2021161017a5780635e31fcc6116101495780635e31fcc6146103865780635fa461fc146103c35780636352211e146104005780636cad69321461043d576101d8565b806321cde202146102fc57806323b872dd1461031857806326bc4c5a1461034157806342842e0e1461035d576101d8565b8063095ea7b3116101b6578063095ea7b3146102825780630c949043146102ab578063104e21b2146102d657806310d1eb2a146102f2576101d8565b806301ffc9a7146101dd57806306fdde031461021a578063081812fc14610245575b600080fd5b3480156101e957600080fd5b5061020460048036038101906101ff91906132ed565b610759565b6040516102119190613335565b60405180910390f35b34801561022657600080fd5b5061022f61083b565b60405161023c91906133e9565b60405180910390f35b34801561025157600080fd5b5061026c60048036038101906102679190613441565b6108cd565b60405161027991906134af565b60405180910390f35b34801561028e57600080fd5b506102a960048036038101906102a491906134f6565b610952565b005b3480156102b757600080fd5b506102c0610a6a565b6040516102cd919061354f565b60405180910390f35b6102f060048036038101906102eb919061356a565b610ab0565b005b6102fa610b4e565b005b61031660048036038101906103119190613441565b610cca565b005b34801561032457600080fd5b5061033f600480360381019061033a9190613597565b611099565b005b61035b60048036038101906103569190613441565b6110f9565b005b34801561036957600080fd5b50610384600480360381019061037f9190613597565b61155e565b005b34801561039257600080fd5b506103ad60048036038101906103a89190613441565b61157e565b6040516103ba91906135f9565b60405180910390f35b3480156103cf57600080fd5b506103ea60048036038101906103e59190613441565b6115ad565b6040516103f791906135f9565b60405180910390f35b34801561040c57600080fd5b5061042760048036038101906104229190613441565b6115dc565b60405161043491906134af565b60405180910390f35b61045760048036038101906104529190613614565b61168e565b005b34801561046557600080fd5b50610480600480360381019061047b919061356a565b61177f565b60405161048d91906135f9565b60405180910390f35b3480156104a257600080fd5b506104bd60048036038101906104b89190613441565b611837565b6040516104cf96959493929190613654565b60405180910390f35b3480156104e457600080fd5b506104ed611883565b005b3480156104fb57600080fd5b5061051660048036038101906105119190613441565b611b8e565b60405161052391906135f9565b60405180910390f35b61054660048036038101906105419190613614565b611bbd565b005b34801561055457600080fd5b5061056f600480360381019061056a9190613441565b611c45565b60405161057c91906135f9565b60405180910390f35b34801561059157600080fd5b5061059a611c74565b6040516105a791906133e9565b60405180910390f35b6105ca60048036038101906105c59190613441565b611d06565b005b3480156105d857600080fd5b506105f360048036038101906105ee9190613441565b61216b565b60405161060091906135f9565b60405180910390f35b34801561061557600080fd5b5061061e61219a565b60405161062b91906135f9565b60405180910390f35b34801561064057600080fd5b5061065b600480360381019061065691906136e1565b6121d1565b005b34801561066957600080fd5b50610684600480360381019061067f9190613856565b6121e7565b005b34801561069257600080fd5b506106ad60048036038101906106a89190613441565b612249565b6040516106ba91906133e9565b60405180910390f35b3480156106cf57600080fd5b506106ea60048036038101906106e59190613441565b6122f0565b6040516106f791906135f9565b60405180910390f35b34801561070c57600080fd5b50610727600480360381019061072291906138d9565b61231f565b6040516107349190613335565b60405180910390f35b6107576004803603810190610752919061356a565b6123b3565b005b60007f80ac58cd000000000000000000000000000000000000000000000000000000007bffffffffffffffffffffffffffffffffffffffffffffffffffffffff1916827bffffffffffffffffffffffffffffffffffffffffffffffffffffffff1916148061082457507f5b5e139f000000000000000000000000000000000000000000000000000000007bffffffffffffffffffffffffffffffffffffffffffffffffffffffff1916827bffffffffffffffffffffffffffffffffffffffffffffffffffffffff1916145b80610834575061083382612451565b5b9050919050565b60606065805461084a90613948565b80601f016020809104026020016040519081016040528092919081815260200182805461087690613948565b80156108c35780601f10610898576101008083540402835291602001916108c3565b820191906000526020600020905b8154815290600101906020018083116108a657829003601f168201915b5050505050905090565b60006108d8826124bb565b610917576040517f08c379a000000000000000000000000000000000000000000000000000000000815260040161090e906139ec565b60405180910390fd5b6069600083815260200190815260200160002060009054906101000a900473ffffffffffffffffffffffffffffffffffffffff169050919050565b600061095d826115dc565b90508073ffffffffffffffffffffffffffffffffffffffff168373ffffffffffffffffffffffffffffffffffffffff1614156109ce576040517f08c379a00000000000000000000000000000000000000000000000000000000081526004016109c590613a7e565b60405180910390fd5b8073ffffffffffffffffffffffffffffffffffffffff166109ed612527565b73ffffffffffffffffffffffffffffffffffffffff161480610a1c5750610a1b81610a16612527565b61231f565b5b610a5b576040517f08c379a0000000000000000000000000000000000000000000000000000000008152600401610a5290613b10565b60405180910390fd5b610a65838361252f565b505050565b6000610a746131bc565b4381600060018110610a8957610a88613b30565b5b60200201818152505060405160208160208460ff600019fa610aa757fe5b80519250505090565b3373ffffffffffffffffffffffffffffffffffffffff16609a60009054906101000a900473ffffffffffffffffffffffffffffffffffffffff1673ffffffffffffffffffffffffffffffffffffffff1614610b0a57600080fd5b80609e60006101000a81548173ffffffffffffffffffffffffffffffffffffffff021916908373ffffffffffffffffffffffffffffffffffffffff16021790555050565b600073ffffffffffffffffffffffffffffffffffffffff163373ffffffffffffffffffffffffffffffffffffffff1614158015610bb757503073ffffffffffffffffffffffffffffffffffffffff163373ffffffffffffffffffffffffffffffffffffffff1614155b610bc057600080fd5b610bc861219a565b341015610bd457600080fd5b6000609f8054905090506000610be86125e8565b9050609f6040518060c001604052808381526020016001815260200160008152602001600081526020016000815260200160008152509080600181540180825580915050600190039060005260206000209060060201600090919091909150600082015181600001556020820151816001015560408201518160020155606082015181600301556080820151816004015560a082015181600501555050610c8f3383612632565b7f5aa7f45898fcb5638757632f4ea98818ccb1f1b865b0721648cfb14cfcd2da9a82604051610cbe91906135f9565b60405180910390a15050565b803373ffffffffffffffffffffffffffffffffffffffff16610ceb826115dc565b73ffffffffffffffffffffffffffffffffffffffff1614610d0b57600080fd5b6064609f8381548110610d2157610d20613b30565b5b90600052602060002090600602016001015410610d3d57600080fd5b6064609f8381548110610d5357610d52613b30565b5b906000526020600020906006020160010154610d6f9190613b8e565b609f8381548110610d8357610d82613b30565b5b9060005260206000209060060201600201541015610da057600080fd5b6000670de0b6b3a7640000609f8481548110610dbf57610dbe613b30565b5b906000526020600020906006020160010154610ddb9190613b8e565b90506064609f8481548110610df357610df2613b30565b5b906000526020600020906006020160010154610e0f9190613b8e565b609f8481548110610e2357610e22613b30565b5b906000526020600020906006020160020154610e3f9190613be8565b609f8481548110610e5357610e52613b30565b5b906000526020600020906006020160020181905550609f8381548110610e7c57610e7b613b30565b5b90600052602060002090600602016001016000815480929190610e9e90613c1c565b9190505550609c60009054906101000a900473ffffffffffffffffffffffffffffffffffffffff1673ffffffffffffffffffffffffffffffffffffffff166323b872dd33609b60009054906101000a900473ffffffffffffffffffffffffffffffffffffffff166064604686610f149190613b8e565b610f1e9190613c94565b6040518463ffffffff1660e01b8152600401610f3c93929190613cc5565b6020604051808303816000875af1158015610f5b573d6000803e3d6000fd5b505050506040513d601f19601f82011682018060405250810190610f7f9190613d11565b50609c60009054906101000a900473ffffffffffffffffffffffffffffffffffffffff1673ffffffffffffffffffffffffffffffffffffffff166323b872dd33609a60009054906101000a900473ffffffffffffffffffffffffffffffffffffffff166064601e86610ff19190613b8e565b610ffb9190613c94565b6040518463ffffffff1660e01b815260040161101993929190613cc5565b6020604051808303816000875af1158015611038573d6000803e3d6000fd5b505050506040513d601f19601f8201168201806040525081019061105c9190613d11565b507f7ef1df0b6d95a41d9ebcaa695746726b382e110036a9127b009babdb11c656a28360405161108c91906135f9565b60405180910390a1505050565b6110aa6110a4612527565b82612800565b6110e9576040517f08c379a00000000000000000000000000000000000000000000000000000000081526004016110e090613db0565b60405180910390fd5b6110f48383836128de565b505050565b803373ffffffffffffffffffffffffffffffffffffffff1661111a826115dc565b73ffffffffffffffffffffffffffffffffffffffff161461113a57600080fd5b609f828154811061114e5761114d613b30565b5b906000526020600020906006020160030154609f838154811061117457611173613b30565b5b9060005260206000209060060201600101541161119057600080fd5b609f82815481106111a4576111a3613b30565b5b9060005260206000209060060201600301546015116111c257600080fd5b6000670de0b6b3a7640000609f84815481106111e1576111e0613b30565b5b9060005260206000209060060201600301546111fd9190613b8e565b9050600a609f848154811061121557611214613b30565b5b90600052602060002090600602016003015411801561125957506015609f848154811061124557611244613b30565b5b906000526020600020906006020160030154105b1561132a576000600a609f858154811061127657611275613b30565b5b9060005260206000209060060201600301546112929190613be8565b9050609d60009054906101000a900473ffffffffffffffffffffffffffffffffffffffff1673ffffffffffffffffffffffffffffffffffffffff1663f242432a33600080856040518563ffffffff1660e01b81526004016112f69493929190613e4c565b600060405180830381600087803b15801561131057600080fd5b505af1158015611324573d6000803e3d6000fd5b50505050505b609f838154811061133e5761133d613b30565b5b9060005260206000209060060201600301600081548092919061136090613c1c565b9190505550609c60009054906101000a900473ffffffffffffffffffffffffffffffffffffffff1673ffffffffffffffffffffffffffffffffffffffff166323b872dd33609b60009054906101000a900473ffffffffffffffffffffffffffffffffffffffff1660646046866113d69190613b8e565b6113e09190613c94565b6040518463ffffffff1660e01b81526004016113fe93929190613cc5565b6020604051808303816000875af115801561141d573d6000803e3d6000fd5b505050506040513d601f19601f820116820180604052508101906114419190613d11565b50609c60009054906101000a900473ffffffffffffffffffffffffffffffffffffffff1673ffffffffffffffffffffffffffffffffffffffff166323b872dd33609a60009054906101000a900473ffffffffffffffffffffffffffffffffffffffff166064601e866114b39190613b8e565b6114bd9190613c94565b6040518463ffffffff1660e01b81526004016114db93929190613cc5565b6020604051808303816000875af11580156114fa573d6000803e3d6000fd5b505050506040513d601f19601f8201168201806040525081019061151e9190613d11565b507f81697e2679db8e5249c35ec26a25db2189c65f1b3bc780d2f1b1129b5e57c41d836000604051611551929190613ea4565b60405180910390a1505050565b611579838383604051806020016040528060008152506121e7565b505050565b6000609f828154811061159457611593613b30565b5b9060005260206000209060060201600301549050919050565b6000609f82815481106115c3576115c2613b30565b5b9060005260206000209060060201600201549050919050565b6000806067600084815260200190815260200160002060009054906101000a900473ffffffffffffffffffffffffffffffffffffffff169050600073ffffffffffffffffffffffffffffffffffffffff168173ffffffffffffffffffffffffffffffffffffffff161415611685576040517f08c379a000000000000000000000000000000000000000000000000000000000815260040161167c90613f3f565b60405180910390fd5b80915050919050565b3373ffffffffffffffffffffffffffffffffffffffff16609e60009054906101000a900473ffffffffffffffffffffffffffffffffffffffff1673ffffffffffffffffffffffffffffffffffffffff16146116e857600080fd5b80609f83815481106116fd576116fc613b30565b5b9060005260206000209060060201600201546117199190613f5f565b609f838154811061172d5761172c613b30565b5b9060005260206000209060060201600201819055507ffa65d54a674245861f726a6e25ffd7e32b5f7e7a6a62bd81b222ad6f53643d288282604051611773929190613fb5565b60405180910390a15050565b60008073ffffffffffffffffffffffffffffffffffffffff168273ffffffffffffffffffffffffffffffffffffffff1614156117f0576040517f08c379a00000000000000000000000000000000000000000000000000000000081526004016117e790614050565b60405180910390fd5b606860008373ffffffffffffffffffffffffffffffffffffffff1673ffffffffffffffffffffffffffffffffffffffff168152602001908152602001600020549050919050565b609f818154811061184757600080fd5b90600052602060002090600602016000915090508060000154908060010154908060020154908060030154908060040154908060050154905086565b600060019054906101000a900460ff166118ab5760008054906101000a900460ff16156118b4565b6118b3612b3a565b5b6118f3576040517f08c379a00000000000000000000000000000000000000000000000000000000081526004016118ea906140e2565b60405180910390fd5b60008060019054906101000a900460ff161590508015611943576001600060016101000a81548160ff02191690831515021790555060016000806101000a81548160ff0219169083151502179055505b6010609881905550609854600a61195a9190614235565b60998190555073f577601a5ef1d5079da672f01d7ab3b80dd2bd1d609a60006101000a81548173ffffffffffffffffffffffffffffffffffffffff021916908373ffffffffffffffffffffffffffffffffffffffff16021790555073fd768e668a158c173e9549d1632902c2a4363178609b60006101000a81548173ffffffffffffffffffffffffffffffffffffffff021916908373ffffffffffffffffffffffffffffffffffffffff1602179055507354301761569145d50da03d8cfdfa19913f20ed9b609c60006101000a81548173ffffffffffffffffffffffffffffffffffffffff021916908373ffffffffffffffffffffffffffffffffffffffff1602179055507325ef7fdea435d7aaed551e8256792e46d0293d34609d60006101000a81548173ffffffffffffffffffffffffffffffffffffffff021916908373ffffffffffffffffffffffffffffffffffffffff1602179055506000609e60006101000a81548173ffffffffffffffffffffffffffffffffffffffff021916908373ffffffffffffffffffffffffffffffffffffffff160217905550611b6a6040518060400160405280600e81526020017f50617461676f6e696320547265650000000000000000000000000000000000008152506040518060400160405280600581526020017f5054524545000000000000000000000000000000000000000000000000000000815250612b4b565b8015611b8b5760008060016101000a81548160ff0219169083151502179055505b50565b6000609f8281548110611ba457611ba3613b30565b5b9060005260206000209060060201600501549050919050565b3373ffffffffffffffffffffffffffffffffffffffff16609e60009054906101000a900473ffffffffffffffffffffffffffffffffffffffff1673ffffffffffffffffffffffffffffffffffffffff1614611c1757600080fd5b80609f8381548110611c2c57611c2b613b30565b5b9060005260206000209060060201600501819055505050565b6000609f8281548110611c5b57611c5a613b30565b5b9060005260206000209060060201600101549050919050565b606060668054611c8390613948565b80601f0160208091040260200160405190810160405280929190818152602001828054611caf90613948565b8015611cfc5780601f10611cd157610100808354040283529160200191611cfc565b820191906000526020600020905b815481529060010190602001808311611cdf57829003601f168201915b5050505050905090565b803373ffffffffffffffffffffffffffffffffffffffff16611d27826115dc565b73ffffffffffffffffffffffffffffffffffffffff1614611d4757600080fd5b609f8281548110611d5b57611d5a613b30565b5b906000526020600020906006020160040154609f8381548110611d8157611d80613b30565b5b90600052602060002090600602016001015411611d9d57600080fd5b609f8281548110611db157611db0613b30565b5b906000526020600020906006020160040154601511611dcf57600080fd5b6000670de0b6b3a7640000609f8481548110611dee57611ded613b30565b5b906000526020600020906006020160040154611e0a9190613b8e565b9050600a609f8481548110611e2257611e21613b30565b5b906000526020600020906006020160040154118015611e6657506015609f8481548110611e5257611e51613b30565b5b906000526020600020906006020160040154105b15611f37576000600a609f8581548110611e8357611e82613b30565b5b906000526020600020906006020160040154611e9f9190613be8565b9050609d60009054906101000a900473ffffffffffffffffffffffffffffffffffffffff1673ffffffffffffffffffffffffffffffffffffffff1663f242432a33600080856040518563ffffffff1660e01b8152600401611f039493929190613e4c565b600060405180830381600087803b158015611f1d57600080fd5b505af1158015611f31573d6000803e3d6000fd5b50505050505b609f8381548110611f4b57611f4a613b30565b5b90600052602060002090600602016004016000815480929190611f6d90613c1c565b9190505550609c60009054906101000a900473ffffffffffffffffffffffffffffffffffffffff1673ffffffffffffffffffffffffffffffffffffffff166323b872dd33609b60009054906101000a900473ffffffffffffffffffffffffffffffffffffffff166064604686611fe39190613b8e565b611fed9190613c94565b6040518463ffffffff1660e01b815260040161200b93929190613cc5565b6020604051808303816000875af115801561202a573d6000803e3d6000fd5b505050506040513d601f19601f8201168201806040525081019061204e9190613d11565b50609c60009054906101000a900473ffffffffffffffffffffffffffffffffffffffff1673ffffffffffffffffffffffffffffffffffffffff166323b872dd33609a60009054906101000a900473ffffffffffffffffffffffffffffffffffffffff166064601e866120c09190613b8e565b6120ca9190613c94565b6040518463ffffffff1660e01b81526004016120e893929190613cc5565b6020604051808303816000875af1158015612107573d6000803e3d6000fd5b505050506040513d601f19601f8201168201806040525081019061212b9190613d11565b507f81697e2679db8e5249c35ec26a25db2189c65f1b3bc780d2f1b1129b5e57c41d83600160405161215e9291906142bb565b60405180910390a1505050565b6000609f828154811061218157612180613b30565b5b9060005260206000209060060201600401549050919050565b6000670de0b6b3a7640000600180609f805490506121b89190613f5f565b6121c29190613b8e565b6121cc9190613b8e565b905090565b6121e36121dc612527565b8383612bb8565b5050565b6121f86121f2612527565b83612800565b612237576040517f08c379a000000000000000000000000000000000000000000000000000000000815260040161222e90613db0565b60405180910390fd5b61224384848484612d25565b50505050565b6060612254826124bb565b612293576040517f08c379a000000000000000000000000000000000000000000000000000000000815260040161228a90614356565b60405180910390fd5b600061229d612d81565b905060008151116122bd57604051806020016040528060008152506122e8565b806122c784612d98565b6040516020016122d89291906143b2565b6040516020818303038152906040525b915050919050565b6000609f828154811061230657612305613b30565b5b9060005260206000209060060201600001549050919050565b6000606a60008473ffffffffffffffffffffffffffffffffffffffff1673ffffffffffffffffffffffffffffffffffffffff16815260200190815260200160002060008373ffffffffffffffffffffffffffffffffffffffff1673ffffffffffffffffffffffffffffffffffffffff16815260200190815260200160002060009054906101000a900460ff16905092915050565b3373ffffffffffffffffffffffffffffffffffffffff16609a60009054906101000a900473ffffffffffffffffffffffffffffffffffffffff1673ffffffffffffffffffffffffffffffffffffffff161461240d57600080fd5b80609a60006101000a81548173ffffffffffffffffffffffffffffffffffffffff021916908373ffffffffffffffffffffffffffffffffffffffff16021790555050565b60007f01ffc9a7000000000000000000000000000000000000000000000000000000007bffffffffffffffffffffffffffffffffffffffffffffffffffffffff1916827bffffffffffffffffffffffffffffffffffffffffffffffffffffffff1916149050919050565b60008073ffffffffffffffffffffffffffffffffffffffff166067600084815260200190815260200160002060009054906101000a900473ffffffffffffffffffffffffffffffffffffffff1673ffffffffffffffffffffffffffffffffffffffff1614159050919050565b600033905090565b816069600083815260200190815260200160002060006101000a81548173ffffffffffffffffffffffffffffffffffffffff021916908373ffffffffffffffffffffffffffffffffffffffff160217905550808273ffffffffffffffffffffffffffffffffffffffff166125a2836115dc565b73ffffffffffffffffffffffffffffffffffffffff167f8c5be1e5ebec7d5bd14f71427d1e84f3dd0314c0f7b2291e5b200ac8c7c3b92560405160405180910390a45050565b6000806125f3610a6a565b60405160200161260391906143f7565b6040516020818303038152906040528051906020012060001c90506099548161262c9190614412565b91505090565b600073ffffffffffffffffffffffffffffffffffffffff168273ffffffffffffffffffffffffffffffffffffffff1614156126a2576040517f08c379a00000000000000000000000000000000000000000000000000000000081526004016126999061448f565b60405180910390fd5b6126ab816124bb565b156126eb576040517f08c379a00000000000000000000000000000000000000000000000000000000081526004016126e2906144fb565b60405180910390fd5b6126f760008383612ef9565b6001606860008473ffffffffffffffffffffffffffffffffffffffff1673ffffffffffffffffffffffffffffffffffffffff16815260200190815260200160002060008282546127479190613f5f565b92505081905550816067600083815260200190815260200160002060006101000a81548173ffffffffffffffffffffffffffffffffffffffff021916908373ffffffffffffffffffffffffffffffffffffffff160217905550808273ffffffffffffffffffffffffffffffffffffffff16600073ffffffffffffffffffffffffffffffffffffffff167fddf252ad1be2c89b69c2b068fc378daa952ba7f163c4a11628f55a4df523b3ef60405160405180910390a45050565b600061280b826124bb565b61284a576040517f08c379a00000000000000000000000000000000000000000000000000000000081526004016128419061458d565b60405180910390fd5b6000612855836115dc565b90508073ffffffffffffffffffffffffffffffffffffffff168473ffffffffffffffffffffffffffffffffffffffff1614806128c457508373ffffffffffffffffffffffffffffffffffffffff166128ac846108cd565b73ffffffffffffffffffffffffffffffffffffffff16145b806128d557506128d4818561231f565b5b91505092915050565b8273ffffffffffffffffffffffffffffffffffffffff166128fe826115dc565b73ffffffffffffffffffffffffffffffffffffffff1614612954576040517f08c379a000000000000000000000000000000000000000000000000000000000815260040161294b9061461f565b60405180910390fd5b600073ffffffffffffffffffffffffffffffffffffffff168273ffffffffffffffffffffffffffffffffffffffff1614156129c4576040517f08c379a00000000000000000000000000000000000000000000000000000000081526004016129bb906146b1565b60405180910390fd5b6129cf838383612ef9565b6129da60008261252f565b6001606860008573ffffffffffffffffffffffffffffffffffffffff1673ffffffffffffffffffffffffffffffffffffffff1681526020019081526020016000206000828254612a2a9190613be8565b925050819055506001606860008473ffffffffffffffffffffffffffffffffffffffff1673ffffffffffffffffffffffffffffffffffffffff1681526020019081526020016000206000828254612a819190613f5f565b92505081905550816067600083815260200190815260200160002060006101000a81548173ffffffffffffffffffffffffffffffffffffffff021916908373ffffffffffffffffffffffffffffffffffffffff160217905550808273ffffffffffffffffffffffffffffffffffffffff168473ffffffffffffffffffffffffffffffffffffffff167fddf252ad1be2c89b69c2b068fc378daa952ba7f163c4a11628f55a4df523b3ef60405160405180910390a4505050565b6000612b4530612efe565b15905090565b600060019054906101000a900460ff16612b9a576040517f08c379a0000000000000000000000000000000000000000000000000000000008152600401612b9190614743565b60405180910390fd5b612ba2612f11565b612baa612f62565b612bb48282612fb3565b5050565b8173ffffffffffffffffffffffffffffffffffffffff168373ffffffffffffffffffffffffffffffffffffffff161415612c27576040517f08c379a0000000000000000000000000000000000000000000000000000000008152600401612c1e906147af565b60405180910390fd5b80606a60008573ffffffffffffffffffffffffffffffffffffffff1673ffffffffffffffffffffffffffffffffffffffff16815260200190815260200160002060008473ffffffffffffffffffffffffffffffffffffffff1673ffffffffffffffffffffffffffffffffffffffff16815260200190815260200160002060006101000a81548160ff0219169083151502179055508173ffffffffffffffffffffffffffffffffffffffff168373ffffffffffffffffffffffffffffffffffffffff167f17307eab39ab6107e8899845ad3d59bd9653f200f220920489ca2b5937696c3183604051612d189190613335565b60405180910390a3505050565b612d308484846128de565b612d3c84848484613034565b612d7b576040517f08c379a0000000000000000000000000000000000000000000000000000000008152600401612d7290614841565b60405180910390fd5b50505050565b606060405180602001604052806000815250905090565b60606000821415612de0576040518060400160405280600181526020017f30000000000000000000000000000000000000000000000000000000000000008152509050612ef4565b600082905060005b60008214612e12578080612dfb90613c1c565b915050600a82612e0b9190613c94565b9150612de8565b60008167ffffffffffffffff811115612e2e57612e2d61372b565b5b6040519080825280601f01601f191660200182016040528015612e605781602001600182028036833780820191505090505b5090505b60008514612eed57600182612e799190613be8565b9150600a85612e889190614412565b6030612e949190613f5f565b60f81b818381518110612eaa57612ea9613b30565b5b60200101907effffffffffffffffffffffffffffffffffffffffffffffffffffffffffffff1916908160001a905350600a85612ee69190613c94565b9450612e64565b8093505050505b919050565b505050565b600080823b905060008111915050919050565b600060019054906101000a900460ff16612f60576040517f08c379a0000000000000000000000000000000000000000000000000000000008152600401612f5790614743565b60405180910390fd5b565b600060019054906101000a900460ff16612fb1576040517f08c379a0000000000000000000000000000000000000000000000000000000008152600401612fa890614743565b60405180910390fd5b565b600060019054906101000a900460ff16613002576040517f08c379a0000000000000000000000000000000000000000000000000000000008152600401612ff990614743565b60405180910390fd5b81606590805190602001906130189291906131de565b50806066908051906020019061302f9291906131de565b505050565b60006130558473ffffffffffffffffffffffffffffffffffffffff16612efe565b156131af578373ffffffffffffffffffffffffffffffffffffffff1663150b7a0261307e612527565b8786866040518563ffffffff1660e01b81526004016130a094939291906148a5565b6020604051808303816000875af19250505080156130dc57506040513d601f19601f820116820180604052508101906130d99190614906565b60015b61315f573d806000811461310c576040519150601f19603f3d011682016040523d82523d6000602084013e613111565b606091505b50600081511415613157576040517f08c379a000000000000000000000000000000000000000000000000000000000815260040161314e90614841565b60405180910390fd5b805181602001fd5b63150b7a0260e01b7bffffffffffffffffffffffffffffffffffffffffffffffffffffffff1916817bffffffffffffffffffffffffffffffffffffffffffffffffffffffff1916149150506131b4565b600190505b949350505050565b6040518060200160405280600190602082028036833780820191505090505090565b8280546131ea90613948565b90600052602060002090601f01602090048101928261320c5760008555613253565b82601f1061322557805160ff1916838001178555613253565b82800160010185558215613253579182015b82811115613252578251825591602001919060010190613237565b5b5090506132609190613264565b5090565b5b8082111561327d576000816000905550600101613265565b5090565b6000604051905090565b600080fd5b600080fd5b60007fffffffff0000000000000000000000000000000000000000000000000000000082169050919050565b6132ca81613295565b81146132d557600080fd5b50565b6000813590506132e7816132c1565b92915050565b6000602082840312156133035761330261328b565b5b6000613311848285016132d8565b91505092915050565b60008115159050919050565b61332f8161331a565b82525050565b600060208201905061334a6000830184613326565b92915050565b600081519050919050565b600082825260208201905092915050565b60005b8381101561338a57808201518184015260208101905061336f565b83811115613399576000848401525b50505050565b6000601f19601f8301169050919050565b60006133bb82613350565b6133c5818561335b565b93506133d581856020860161336c565b6133de8161339f565b840191505092915050565b6000602082019050818103600083015261340381846133b0565b905092915050565b6000819050919050565b61341e8161340b565b811461342957600080fd5b50565b60008135905061343b81613415565b92915050565b6000602082840312156134575761345661328b565b5b60006134658482850161342c565b91505092915050565b600073ffffffffffffffffffffffffffffffffffffffff82169050919050565b60006134998261346e565b9050919050565b6134a98161348e565b82525050565b60006020820190506134c460008301846134a0565b92915050565b6134d38161348e565b81146134de57600080fd5b50565b6000813590506134f0816134ca565b92915050565b6000806040838503121561350d5761350c61328b565b5b600061351b858286016134e1565b925050602061352c8582860161342c565b9150509250929050565b6000819050919050565b61354981613536565b82525050565b60006020820190506135646000830184613540565b92915050565b6000602082840312156135805761357f61328b565b5b600061358e848285016134e1565b91505092915050565b6000806000606084860312156135b0576135af61328b565b5b60006135be868287016134e1565b93505060206135cf868287016134e1565b92505060406135e08682870161342c565b9150509250925092565b6135f38161340b565b82525050565b600060208201905061360e60008301846135ea565b92915050565b6000806040838503121561362b5761362a61328b565b5b60006136398582860161342c565b925050602061364a8582860161342c565b9150509250929050565b600060c08201905061366960008301896135ea565b61367660208301886135ea565b61368360408301876135ea565b61369060608301866135ea565b61369d60808301856135ea565b6136aa60a08301846135ea565b979650505050505050565b6136be8161331a565b81146136c957600080fd5b50565b6000813590506136db816136b5565b92915050565b600080604083850312156136f8576136f761328b565b5b6000613706858286016134e1565b9250506020613717858286016136cc565b9150509250929050565b600080fd5b600080fd5b7f4e487b7100000000000000000000000000000000000000000000000000000000600052604160045260246000fd5b6137638261339f565b810181811067ffffffffffffffff821117156137825761378161372b565b5b80604052505050565b6000613795613281565b90506137a1828261375a565b919050565b600067ffffffffffffffff8211156137c1576137c061372b565b5b6137ca8261339f565b9050602081019050919050565b82818337600083830152505050565b60006137f96137f4846137a6565b61378b565b90508281526020810184848401111561381557613814613726565b5b6138208482856137d7565b509392505050565b600082601f83011261383d5761383c613721565b5b813561384d8482602086016137e6565b91505092915050565b600080600080608085870312156138705761386f61328b565b5b600061387e878288016134e1565b945050602061388f878288016134e1565b93505060406138a08782880161342c565b925050606085013567ffffffffffffffff8111156138c1576138c0613290565b5b6138cd87828801613828565b91505092959194509250565b600080604083850312156138f0576138ef61328b565b5b60006138fe858286016134e1565b925050602061390f858286016134e1565b9150509250929050565b7f4e487b7100000000000000000000000000000000000000000000000000000000600052602260045260246000fd5b6000600282049050600182168061396057607f821691505b6020821081141561397457613973613919565b5b50919050565b7f4552433732313a20617070726f76656420717565727920666f72206e6f6e657860008201527f697374656e7420746f6b656e0000000000000000000000000000000000000000602082015250565b60006139d6602c8361335b565b91506139e18261397a565b604082019050919050565b60006020820190508181036000830152613a05816139c9565b9050919050565b7f4552433732313a20617070726f76616c20746f2063757272656e74206f776e6560008201527f7200000000000000000000000000000000000000000000000000000000000000602082015250565b6000613a6860218361335b565b9150613a7382613a0c565b604082019050919050565b60006020820190508181036000830152613a9781613a5b565b9050919050565b7f4552433732313a20617070726f76652063616c6c6572206973206e6f74206f7760008201527f6e6572206e6f7220617070726f76656420666f7220616c6c0000000000000000602082015250565b6000613afa60388361335b565b9150613b0582613a9e565b604082019050919050565b60006020820190508181036000830152613b2981613aed565b9050919050565b7f4e487b7100000000000000000000000000000000000000000000000000000000600052603260045260246000fd5b7f4e487b7100000000000000000000000000000000000000000000000000000000600052601160045260246000fd5b6000613b998261340b565b9150613ba48361340b565b9250817fffffffffffffffffffffffffffffffffffffffffffffffffffffffffffffffff0483118215151615613bdd57613bdc613b5f565b5b828202905092915050565b6000613bf38261340b565b9150613bfe8361340b565b925082821015613c1157613c10613b5f565b5b828203905092915050565b6000613c278261340b565b91507fffffffffffffffffffffffffffffffffffffffffffffffffffffffffffffffff821415613c5a57613c59613b5f565b5b600182019050919050565b7f4e487b7100000000000000000000000000000000000000000000000000000000600052601260045260246000fd5b6000613c9f8261340b565b9150613caa8361340b565b925082613cba57613cb9613c65565b5b828204905092915050565b6000606082019050613cda60008301866134a0565b613ce760208301856134a0565b613cf460408301846135ea565b949350505050565b600081519050613d0b816136b5565b92915050565b600060208284031215613d2757613d2661328b565b5b6000613d3584828501613cfc565b91505092915050565b7f4552433732313a207472616e736665722063616c6c6572206973206e6f74206f60008201527f776e6572206e6f7220617070726f766564000000000000000000000000000000602082015250565b6000613d9a60318361335b565b9150613da582613d3e565b604082019050919050565b60006020820190508181036000830152613dc981613d8d565b9050919050565b6000819050919050565b6000819050919050565b6000613dff613dfa613df584613dd0565b613dda565b61340b565b9050919050565b613e0f81613de4565b82525050565b600082825260208201905092915050565b50565b6000613e36600083613e15565b9150613e4182613e26565b600082019050919050565b600060a082019050613e6160008301876134a0565b613e6e60208301866134a0565b613e7b6040830185613e06565b613e8860608301846135ea565b8181036080830152613e9981613e29565b905095945050505050565b6000604082019050613eb960008301856135ea565b613ec66020830184613e06565b9392505050565b7f4552433732313a206f776e657220717565727920666f72206e6f6e657869737460008201527f656e7420746f6b656e0000000000000000000000000000000000000000000000602082015250565b6000613f2960298361335b565b9150613f3482613ecd565b604082019050919050565b60006020820190508181036000830152613f5881613f1c565b9050919050565b6000613f6a8261340b565b9150613f758361340b565b9250827fffffffffffffffffffffffffffffffffffffffffffffffffffffffffffffffff03821115613faa57613fa9613b5f565b5b828201905092915050565b6000604082019050613fca60008301856135ea565b613fd760208301846135ea565b9392505050565b7f4552433732313a2062616c616e636520717565727920666f7220746865207a6560008201527f726f206164647265737300000000000000000000000000000000000000000000602082015250565b600061403a602a8361335b565b915061404582613fde565b604082019050919050565b600060208201905081810360008301526140698161402d565b9050919050565b7f496e697469616c697a61626c653a20636f6e747261637420697320616c72656160008201527f647920696e697469616c697a6564000000000000000000000000000000000000602082015250565b60006140cc602e8361335b565b91506140d782614070565b604082019050919050565b600060208201905081810360008301526140fb816140bf565b9050919050565b60008160011c9050919050565b6000808291508390505b60018511156141595780860481111561413557614134613b5f565b5b60018516156141445780820291505b808102905061415285614102565b9450614119565b94509492505050565b600082614172576001905061422e565b81614180576000905061422e565b816001811461419657600281146141a0576141cf565b600191505061422e565b60ff8411156141b2576141b1613b5f565b5b8360020a9150848211156141c9576141c8613b5f565b5b5061422e565b5060208310610133831016604e8410600b84101617156142045782820a9050838111156141ff576141fe613b5f565b5b61422e565b614211848484600161410f565b9250905081840481111561422857614227613b5f565b5b81810290505b9392505050565b60006142408261340b565b915061424b8361340b565b92506142787fffffffffffffffffffffffffffffffffffffffffffffffffffffffffffffffff8484614162565b905092915050565b6000819050919050565b60006142a56142a061429b84614280565b613dda565b61340b565b9050919050565b6142b58161428a565b82525050565b60006040820190506142d060008301856135ea565b6142dd60208301846142ac565b9392505050565b7f4552433732314d657461646174613a2055524920717565727920666f72206e6f60008201527f6e6578697374656e7420746f6b656e0000000000000000000000000000000000602082015250565b6000614340602f8361335b565b915061434b826142e4565b604082019050919050565b6000602082019050818103600083015261436f81614333565b9050919050565b600081905092915050565b600061438c82613350565b6143968185614376565b93506143a681856020860161336c565b80840191505092915050565b60006143be8285614381565b91506143ca8284614381565b91508190509392505050565b6000819050919050565b6143f16143ec82613536565b6143d6565b82525050565b600061440382846143e0565b60208201915081905092915050565b600061441d8261340b565b91506144288361340b565b92508261443857614437613c65565b5b828206905092915050565b7f4552433732313a206d696e7420746f20746865207a65726f2061646472657373600082015250565b600061447960208361335b565b915061448482614443565b602082019050919050565b600060208201905081810360008301526144a88161446c565b9050919050565b7f4552433732313a20746f6b656e20616c7265616479206d696e74656400000000600082015250565b60006144e5601c8361335b565b91506144f0826144af565b602082019050919050565b60006020820190508181036000830152614514816144d8565b9050919050565b7f4552433732313a206f70657261746f7220717565727920666f72206e6f6e657860008201527f697374656e7420746f6b656e0000000000000000000000000000000000000000602082015250565b6000614577602c8361335b565b91506145828261451b565b604082019050919050565b600060208201905081810360008301526145a68161456a565b9050919050565b7f4552433732313a207472616e73666572206f6620746f6b656e2074686174206960008201527f73206e6f74206f776e0000000000000000000000000000000000000000000000602082015250565b600061460960298361335b565b9150614614826145ad565b604082019050919050565b60006020820190508181036000830152614638816145fc565b9050919050565b7f4552433732313a207472616e7366657220746f20746865207a65726f2061646460008201527f7265737300000000000000000000000000000000000000000000000000000000602082015250565b600061469b60248361335b565b91506146a68261463f565b604082019050919050565b600060208201905081810360008301526146ca8161468e565b9050919050565b7f496e697469616c697a61626c653a20636f6e7472616374206973206e6f74206960008201527f6e697469616c697a696e67000000000000000000000000000000000000000000602082015250565b600061472d602b8361335b565b9150614738826146d1565b604082019050919050565b6000602082019050818103600083015261475c81614720565b9050919050565b7f4552433732313a20617070726f766520746f2063616c6c657200000000000000600082015250565b600061479960198361335b565b91506147a482614763565b602082019050919050565b600060208201905081810360008301526147c88161478c565b9050919050565b7f4552433732313a207472616e7366657220746f206e6f6e20455243373231526560008201527f63656976657220696d706c656d656e7465720000000000000000000000000000602082015250565b600061482b60328361335b565b9150614836826147cf565b604082019050919050565b6000602082019050818103600083015261485a8161481e565b9050919050565b600081519050919050565b600061487782614861565b6148818185613e15565b935061489181856020860161336c565b61489a8161339f565b840191505092915050565b60006080820190506148ba60008301876134a0565b6148c760208301866134a0565b6148d460408301856135ea565b81810360608301526148e6818461486c565b905095945050505050565b600081519050614900816132c1565b92915050565b60006020828403121561491c5761491b61328b565b5b600061492a848285016148f1565b9150509291505056fea26469706673582212208fa1fffec9407e9e562a84d49df7e9e9de9c35758a494e5669df5f424c3cde9964736f6c634300080b0033",
  "immutableReferences": {},
  "source": "// SPDX-License-Identifier: UNLICENSED\r\n\r\npragma solidity ^0.8.3;\r\n\r\nimport \"../node_modules/@openzeppelin/contracts-upgradeable/token/ERC721/ERC721Upgradeable.sol\";\r\nimport \"../node_modules/@openzeppelin/contracts/token/ERC20/IERC20.sol\";\r\nimport \"../node_modules/@openzeppelin/contracts/token/ERC1155/IERC1155.sol\";\r\n\r\ncontract TreeV2 is ERC721Upgradeable {\r\n    event NewTree(uint treeId);\r\n    event GainExp(uint treeId, uint amount);\r\n    event GainLevel(uint treeId);\r\n    event BuildingLevelUp (uint treeId, uint buildingId);\r\n\r\n    uint Nonce;\r\n    uint Digits;\r\n    uint Modulus;\r\n    address ContractOwner;\r\n    address Treasury;\r\n    \r\n    //Get Token Address after TokenContract deployment\r\n    address Token;\r\n    address GameItemsAddress;\r\n    \r\n    //QuestContract is updated after deployment\r\n    address QuestContract;\r\n\r\n    struct TreeStruct {\r\n        uint treeDNA;\r\n        uint level;\r\n        uint exp;\r\n        uint barracks;\r\n        uint trainingGrounds;\r\n        uint onQuestUntil;\r\n    }\r\n\r\n    TreeStruct[] public trees;\r\n\r\n    //Modifiers\r\n\r\n    modifier onlyOwnerOf(uint _treeId) {\r\n        require(ownerOf(_treeId) == msg.sender);\r\n        _;\r\n    }\r\n\r\n    modifier onlyOwner() {\r\n        require(ContractOwner == msg.sender);\r\n        _;\r\n    }\r\n\r\n    modifier onlyQuestContract() {\r\n        require(QuestContract == msg.sender);\r\n        _;\r\n    }\r\n\r\n    function initialize() initializer public {\r\n        Digits = 16;\r\n        Modulus = 10 ** Digits;\r\n        ContractOwner = 0xf577601a5eF1d5079Da672f01D7aB3b80dD2bd1D;\r\n        Treasury = 0xfd768E668A158C173e9549d1632902C2A4363178;\r\n        Token = 0x54301761569145d50da03d8CfdfA19913f20Ed9b;\r\n        GameItemsAddress = 0x25ef7FdEA435D7Aaed551E8256792E46d0293d34;\r\n        QuestContract = address(0);\r\n        __ERC721_init(\"Patagonic Tree\", \"PTREE\");\r\n    }\r\n\r\n    //Util Functions\r\n\r\n    function vrf() public view returns (bytes32 result) {\r\n        uint[1] memory bn;\r\n        bn[0] = block.number;\r\n        assembly {\r\n            let memPtr := mload(0x40)\r\n            if iszero(staticcall(not(0), 0xff, bn, 0x20, memPtr, 0x20)) {\r\n                invalid()\r\n            }\r\n            result := mload(memPtr)\r\n        }\r\n    }\r\n\r\n    //View Functions\r\n\r\n    function treeDNA(uint treeId) public view returns (uint) {\r\n        return trees[treeId].treeDNA;\r\n    }\r\n\r\n    function treeLevel(uint treeId) public view returns (uint) {\r\n        return trees[treeId].level;\r\n    }\r\n\r\n    function treeExp(uint treeId) public view returns (uint) {\r\n        return trees[treeId].exp;\r\n    }\r\n\r\n    function treeBarracks(uint treeId) public view returns (uint) {\r\n        return trees[treeId].barracks;\r\n    }\r\n\r\n    function treeTrainingGrounds(uint treeId) public view returns (uint) {\r\n        return trees[treeId].trainingGrounds;\r\n    }\r\n\r\n    function questStatus(uint treeId) public view returns (uint) {\r\n        return trees[treeId].onQuestUntil;\r\n    }\r\n\r\n    function currentPrice() public view returns (uint) {\r\n        return ((trees.length+1)*1)*10**18;\r\n    }\r\n\r\n    function _generateRandomDNA() internal view returns (uint) {\r\n        uint rand = uint(keccak256(abi.encodePacked(vrf())));\r\n        return rand % Modulus;\r\n    }\r\n\r\n    //Payable Functions\r\n\r\n    function upgradeBarracks(uint treeId) public payable onlyOwnerOf(treeId) {\r\n        require(trees[treeId].level > trees[treeId].barracks);\r\n        require(21 > trees[treeId].barracks);\r\n        uint amount = trees[treeId].barracks*10**18;\r\n        if (trees[treeId].barracks > 10 && trees[treeId].barracks < 21) {\r\n            uint BasicRuneAmount = (trees[treeId].barracks-10);\r\n            IERC1155(GameItemsAddress).safeTransferFrom(msg.sender, address(0), 0, BasicRuneAmount, \"\");\r\n        }\r\n        trees[treeId].barracks++;\r\n        IERC20(Token).transferFrom(msg.sender, Treasury, amount*70/100);\r\n        IERC20(Token).transferFrom(msg.sender, ContractOwner, amount*30/100);\r\n        emit BuildingLevelUp (treeId, 0);\r\n    }\r\n\r\n    function upgradeTrainingGrounds(uint treeId) public payable onlyOwnerOf(treeId) {\r\n        require(trees[treeId].level > trees[treeId].trainingGrounds);\r\n        require(21 > trees[treeId].trainingGrounds);\r\n        uint amount = trees[treeId].trainingGrounds*10**18;\r\n        if (trees[treeId].trainingGrounds > 10 && trees[treeId].trainingGrounds < 21) {\r\n            uint BasicRuneAmount = (trees[treeId].trainingGrounds-10);\r\n            IERC1155(GameItemsAddress).safeTransferFrom(msg.sender, address(0), 0, BasicRuneAmount, \"\");\r\n        }\r\n        trees[treeId].trainingGrounds++;\r\n        IERC20(Token).transferFrom(msg.sender, Treasury, amount*70/100);\r\n        IERC20(Token).transferFrom(msg.sender, ContractOwner, amount*30/100);\r\n        emit BuildingLevelUp (treeId, 1);\r\n    }\r\n\r\n    function updateQuestStatus(uint treeId, uint newValue) public payable onlyQuestContract() {\r\n        trees[treeId].onQuestUntil = newValue;\r\n    }\r\n\r\n    function gainExp(uint treeId, uint amount) public payable onlyQuestContract() {\r\n        //Cambiar a que solo lo pueda hacer el contrato de quests y no el usuario\r\n        trees[treeId].exp = trees[treeId].exp + amount;\r\n        emit GainExp(treeId, amount);\r\n    }\r\n\r\n    function gainLevel(uint treeId) public payable onlyOwnerOf(treeId) {\r\n        require(trees[treeId].level < 100 );\r\n        require(trees[treeId].exp >= trees[treeId].level*100);\r\n        uint amount = trees[treeId].level*10**18;\r\n        trees[treeId].exp = trees[treeId].exp-trees[treeId].level*100;\r\n        trees[treeId].level++;\r\n        IERC20(Token).transferFrom(msg.sender, Treasury, amount*70/100);\r\n        IERC20(Token).transferFrom(msg.sender, ContractOwner, amount*30/100);\r\n        emit GainLevel(treeId);\r\n    }\r\n\r\n    function createNewTree() public payable {\r\n        require(msg.sender != address(0) && msg.sender != address(this));\r\n        require(msg.value >= currentPrice());\r\n        uint id = trees.length;\r\n        uint DNA = _generateRandomDNA();\r\n        trees.push(TreeStruct(DNA, 1, 0, 0, 0, 0));\r\n        _mint(msg.sender, id);\r\n        emit NewTree(id);\r\n\r\n    }\r\n\r\n    function transferOwnership(address newOwner) public payable onlyOwner() {\r\n        ContractOwner = newOwner;\r\n    }\r\n\r\n    function transferQuestContract(address newQuestContract) public payable onlyOwner() {\r\n        QuestContract = newQuestContract;\r\n    }\r\n\r\n}",
  "sourcePath": "C:\\Users\\jtsch\\OneDrive\\Escritorio\\Python\\SmartContracts-NFT-Agus\\contracts\\TreeV2.sol",
  "compiler": {
    "name": "solc",
    "version": "0.8.11+commit.d7f03943.Emscripten.clang"
  },
  "schemaVersion": "3.4.3",
  "updatedAt": "2022-01-16T15:27:25.868Z",
  "devdoc": {
    "kind": "dev",
    "methods": {
      "approve(address,uint256)": {
        "details": "See {IERC721-approve}."
      },
      "balanceOf(address)": {
        "details": "See {IERC721-balanceOf}."
      },
      "getApproved(uint256)": {
        "details": "See {IERC721-getApproved}."
      },
      "isApprovedForAll(address,address)": {
        "details": "See {IERC721-isApprovedForAll}."
      },
      "name()": {
        "details": "See {IERC721Metadata-name}."
      },
      "ownerOf(uint256)": {
        "details": "See {IERC721-ownerOf}."
      },
      "safeTransferFrom(address,address,uint256)": {
        "details": "See {IERC721-safeTransferFrom}."
      },
      "safeTransferFrom(address,address,uint256,bytes)": {
        "details": "See {IERC721-safeTransferFrom}."
      },
      "setApprovalForAll(address,bool)": {
        "details": "See {IERC721-setApprovalForAll}."
      },
      "supportsInterface(bytes4)": {
        "details": "See {IERC165-supportsInterface}."
      },
      "symbol()": {
        "details": "See {IERC721Metadata-symbol}."
      },
      "tokenURI(uint256)": {
        "details": "See {IERC721Metadata-tokenURI}."
      },
      "transferFrom(address,address,uint256)": {
        "details": "See {IERC721-transferFrom}."
      }
    },
    "version": 1
  },
  "userdoc": {
    "kind": "user",
    "methods": {},
    "version": 1
  }
}