{
  "contractName": "Tree",
  "abi": [
    {
      "anonymous": false,
      "inputs": [
        {
          "indexed": true,
          "internalType": "address",
          "name": "owner",
          "type": "address"
        },
        {
          "indexed": true,
          "internalType": "address",
          "name": "approved",
          "type": "address"
        },
        {
          "indexed": true,
          "internalType": "uint256",
          "name": "tokenId",
          "type": "uint256"
        }
      ],
      "name": "Approval",
      "type": "event"
    },
    {
      "anonymous": false,
      "inputs": [
        {
          "indexed": true,
          "internalType": "address",
          "name": "owner",
          "type": "address"
        },
        {
          "indexed": true,
          "internalType": "address",
          "name": "operator",
          "type": "address"
        },
        {
          "indexed": false,
          "internalType": "bool",
          "name": "approved",
          "type": "bool"
        }
      ],
      "name": "ApprovalForAll",
      "type": "event"
    },
    {
      "anonymous": false,
      "inputs": [
        {
          "indexed": false,
          "internalType": "uint256",
          "name": "treeId",
          "type": "uint256"
        },
        {
          "indexed": false,
          "internalType": "uint256",
          "name": "buildingId",
          "type": "uint256"
        }
      ],
      "name": "BuildingLevelUp",
      "type": "event"
    },
    {
      "anonymous": false,
      "inputs": [
        {
          "indexed": false,
          "internalType": "uint256",
          "name": "treeId",
          "type": "uint256"
        },
        {
          "indexed": false,
          "internalType": "uint256",
          "name": "amount",
          "type": "uint256"
        }
      ],
      "name": "GainExp",
      "type": "event"
    },
    {
      "anonymous": false,
      "inputs": [
        {
          "indexed": false,
          "internalType": "uint256",
          "name": "treeId",
          "type": "uint256"
        }
      ],
      "name": "GainLevel",
      "type": "event"
    },
    {
      "anonymous": false,
      "inputs": [
        {
          "indexed": false,
          "internalType": "uint256",
          "name": "treeId",
          "type": "uint256"
        }
      ],
      "name": "NewTree",
      "type": "event"
    },
    {
      "anonymous": false,
      "inputs": [
        {
          "indexed": true,
          "internalType": "bytes32",
          "name": "role",
          "type": "bytes32"
        },
        {
          "indexed": true,
          "internalType": "bytes32",
          "name": "previousAdminRole",
          "type": "bytes32"
        },
        {
          "indexed": true,
          "internalType": "bytes32",
          "name": "newAdminRole",
          "type": "bytes32"
        }
      ],
      "name": "RoleAdminChanged",
      "type": "event"
    },
    {
      "anonymous": false,
      "inputs": [
        {
          "indexed": true,
          "internalType": "bytes32",
          "name": "role",
          "type": "bytes32"
        },
        {
          "indexed": true,
          "internalType": "address",
          "name": "account",
          "type": "address"
        },
        {
          "indexed": true,
          "internalType": "address",
          "name": "sender",
          "type": "address"
        }
      ],
      "name": "RoleGranted",
      "type": "event"
    },
    {
      "anonymous": false,
      "inputs": [
        {
          "indexed": true,
          "internalType": "bytes32",
          "name": "role",
          "type": "bytes32"
        },
        {
          "indexed": true,
          "internalType": "address",
          "name": "account",
          "type": "address"
        },
        {
          "indexed": true,
          "internalType": "address",
          "name": "sender",
          "type": "address"
        }
      ],
      "name": "RoleRevoked",
      "type": "event"
    },
    {
      "anonymous": false,
      "inputs": [
        {
          "indexed": true,
          "internalType": "address",
          "name": "from",
          "type": "address"
        },
        {
          "indexed": true,
          "internalType": "address",
          "name": "to",
          "type": "address"
        },
        {
          "indexed": true,
          "internalType": "uint256",
          "name": "tokenId",
          "type": "uint256"
        }
      ],
      "name": "Transfer",
      "type": "event"
    },
    {
      "inputs": [],
      "name": "DEFAULT_ADMIN_ROLE",
      "outputs": [
        {
          "internalType": "bytes32",
          "name": "",
          "type": "bytes32"
        }
      ],
      "stateMutability": "view",
      "type": "function"
    },
    {
      "inputs": [],
      "name": "QUEST_ROLE",
      "outputs": [
        {
          "internalType": "bytes32",
          "name": "",
          "type": "bytes32"
        }
      ],
      "stateMutability": "view",
      "type": "function"
    },
    {
      "inputs": [
        {
          "internalType": "address",
          "name": "to",
          "type": "address"
        },
        {
          "internalType": "uint256",
          "name": "tokenId",
          "type": "uint256"
        }
      ],
      "name": "approve",
      "outputs": [],
      "stateMutability": "nonpayable",
      "type": "function"
    },
    {
      "inputs": [
        {
          "internalType": "address",
          "name": "owner",
          "type": "address"
        }
      ],
      "name": "balanceOf",
      "outputs": [
        {
          "internalType": "uint256",
          "name": "",
          "type": "uint256"
        }
      ],
      "stateMutability": "view",
      "type": "function"
    },
    {
      "inputs": [
        {
          "internalType": "uint256",
          "name": "tokenId",
          "type": "uint256"
        }
      ],
      "name": "getApproved",
      "outputs": [
        {
          "internalType": "address",
          "name": "",
          "type": "address"
        }
      ],
      "stateMutability": "view",
      "type": "function"
    },
    {
      "inputs": [
        {
          "internalType": "bytes32",
          "name": "role",
          "type": "bytes32"
        }
      ],
      "name": "getRoleAdmin",
      "outputs": [
        {
          "internalType": "bytes32",
          "name": "",
          "type": "bytes32"
        }
      ],
      "stateMutability": "view",
      "type": "function"
    },
    {
      "inputs": [
        {
          "internalType": "bytes32",
          "name": "role",
          "type": "bytes32"
        },
        {
          "internalType": "address",
          "name": "account",
          "type": "address"
        }
      ],
      "name": "grantRole",
      "outputs": [],
      "stateMutability": "nonpayable",
      "type": "function"
    },
    {
      "inputs": [
        {
          "internalType": "bytes32",
          "name": "role",
          "type": "bytes32"
        },
        {
          "internalType": "address",
          "name": "account",
          "type": "address"
        }
      ],
      "name": "hasRole",
      "outputs": [
        {
          "internalType": "bool",
          "name": "",
          "type": "bool"
        }
      ],
      "stateMutability": "view",
      "type": "function"
    },
    {
      "inputs": [
        {
          "internalType": "address",
          "name": "owner",
          "type": "address"
        },
        {
          "internalType": "address",
          "name": "operator",
          "type": "address"
        }
      ],
      "name": "isApprovedForAll",
      "outputs": [
        {
          "internalType": "bool",
          "name": "",
          "type": "bool"
        }
      ],
      "stateMutability": "view",
      "type": "function"
    },
    {
      "inputs": [],
      "name": "name",
      "outputs": [
        {
          "internalType": "string",
          "name": "",
          "type": "string"
        }
      ],
      "stateMutability": "view",
      "type": "function"
    },
    {
      "inputs": [
        {
          "internalType": "uint256",
          "name": "tokenId",
          "type": "uint256"
        }
      ],
      "name": "ownerOf",
      "outputs": [
        {
          "internalType": "address",
          "name": "",
          "type": "address"
        }
      ],
      "stateMutability": "view",
      "type": "function"
    },
    {
      "inputs": [
        {
          "internalType": "bytes32",
          "name": "role",
          "type": "bytes32"
        },
        {
          "internalType": "address",
          "name": "account",
          "type": "address"
        }
      ],
      "name": "renounceRole",
      "outputs": [],
      "stateMutability": "nonpayable",
      "type": "function"
    },
    {
      "inputs": [
        {
          "internalType": "bytes32",
          "name": "role",
          "type": "bytes32"
        },
        {
          "internalType": "address",
          "name": "account",
          "type": "address"
        }
      ],
      "name": "revokeRole",
      "outputs": [],
      "stateMutability": "nonpayable",
      "type": "function"
    },
    {
      "inputs": [
        {
          "internalType": "address",
          "name": "from",
          "type": "address"
        },
        {
          "internalType": "address",
          "name": "to",
          "type": "address"
        },
        {
          "internalType": "uint256",
          "name": "tokenId",
          "type": "uint256"
        }
      ],
      "name": "safeTransferFrom",
      "outputs": [],
      "stateMutability": "nonpayable",
      "type": "function"
    },
    {
      "inputs": [
        {
          "internalType": "address",
          "name": "from",
          "type": "address"
        },
        {
          "internalType": "address",
          "name": "to",
          "type": "address"
        },
        {
          "internalType": "uint256",
          "name": "tokenId",
          "type": "uint256"
        },
        {
          "internalType": "bytes",
          "name": "_data",
          "type": "bytes"
        }
      ],
      "name": "safeTransferFrom",
      "outputs": [],
      "stateMutability": "nonpayable",
      "type": "function"
    },
    {
      "inputs": [
        {
          "internalType": "address",
          "name": "operator",
          "type": "address"
        },
        {
          "internalType": "bool",
          "name": "approved",
          "type": "bool"
        }
      ],
      "name": "setApprovalForAll",
      "outputs": [],
      "stateMutability": "nonpayable",
      "type": "function"
    },
    {
      "inputs": [],
      "name": "symbol",
      "outputs": [
        {
          "internalType": "string",
          "name": "",
          "type": "string"
        }
      ],
      "stateMutability": "view",
      "type": "function"
    },
    {
      "inputs": [
        {
          "internalType": "uint256",
          "name": "tokenId",
          "type": "uint256"
        }
      ],
      "name": "tokenURI",
      "outputs": [
        {
          "internalType": "string",
          "name": "",
          "type": "string"
        }
      ],
      "stateMutability": "view",
      "type": "function"
    },
    {
      "inputs": [
        {
          "internalType": "address",
          "name": "from",
          "type": "address"
        },
        {
          "internalType": "address",
          "name": "to",
          "type": "address"
        },
        {
          "internalType": "uint256",
          "name": "tokenId",
          "type": "uint256"
        }
      ],
      "name": "transferFrom",
      "outputs": [],
      "stateMutability": "nonpayable",
      "type": "function"
    },
    {
      "inputs": [
        {
          "internalType": "uint256",
          "name": "",
          "type": "uint256"
        }
      ],
      "name": "trees",
      "outputs": [
        {
          "internalType": "uint256",
          "name": "treeDNA",
          "type": "uint256"
        },
        {
          "internalType": "uint256",
          "name": "level",
          "type": "uint256"
        },
        {
          "internalType": "uint256",
          "name": "exp",
          "type": "uint256"
        },
        {
          "internalType": "uint256",
          "name": "barracks",
          "type": "uint256"
        },
        {
          "internalType": "uint256",
          "name": "trainingGrounds",
          "type": "uint256"
        },
        {
          "internalType": "uint256",
          "name": "action",
          "type": "uint256"
        },
        {
          "internalType": "uint256",
          "name": "onActionUntil",
          "type": "uint256"
        }
      ],
      "stateMutability": "view",
      "type": "function"
    },
    {
      "inputs": [
        {
          "internalType": "bytes4",
          "name": "interfaceId",
          "type": "bytes4"
        }
      ],
      "name": "supportsInterface",
      "outputs": [
        {
          "internalType": "bool",
          "name": "",
          "type": "bool"
        }
      ],
      "stateMutability": "view",
      "type": "function"
    },
    {
      "inputs": [],
      "name": "initialize",
      "outputs": [],
      "stateMutability": "nonpayable",
      "type": "function"
    },
    {
      "inputs": [],
      "name": "vrf",
      "outputs": [
        {
          "internalType": "bytes32",
          "name": "result",
          "type": "bytes32"
        }
      ],
      "stateMutability": "view",
      "type": "function"
    },
    {
      "inputs": [
        {
          "internalType": "uint256",
          "name": "treeId",
          "type": "uint256"
        }
      ],
      "name": "treeDNA",
      "outputs": [
        {
          "internalType": "uint256",
          "name": "",
          "type": "uint256"
        }
      ],
      "stateMutability": "view",
      "type": "function"
    },
    {
      "inputs": [
        {
          "internalType": "uint256",
          "name": "treeId",
          "type": "uint256"
        }
      ],
      "name": "treeLevel",
      "outputs": [
        {
          "internalType": "uint256",
          "name": "",
          "type": "uint256"
        }
      ],
      "stateMutability": "view",
      "type": "function"
    },
    {
      "inputs": [
        {
          "internalType": "uint256",
          "name": "treeId",
          "type": "uint256"
        }
      ],
      "name": "treeExp",
      "outputs": [
        {
          "internalType": "uint256",
          "name": "",
          "type": "uint256"
        }
      ],
      "stateMutability": "view",
      "type": "function"
    },
    {
      "inputs": [
        {
          "internalType": "uint256",
          "name": "treeId",
          "type": "uint256"
        }
      ],
      "name": "treeBarracks",
      "outputs": [
        {
          "internalType": "uint256",
          "name": "",
          "type": "uint256"
        }
      ],
      "stateMutability": "view",
      "type": "function"
    },
    {
      "inputs": [
        {
          "internalType": "uint256",
          "name": "treeId",
          "type": "uint256"
        }
      ],
      "name": "treeTrainingGrounds",
      "outputs": [
        {
          "internalType": "uint256",
          "name": "",
          "type": "uint256"
        }
      ],
      "stateMutability": "view",
      "type": "function"
    },
    {
      "inputs": [
        {
          "internalType": "uint256",
          "name": "treeId",
          "type": "uint256"
        }
      ],
      "name": "actionStatus",
      "outputs": [
        {
          "internalType": "uint256",
          "name": "",
          "type": "uint256"
        }
      ],
      "stateMutability": "view",
      "type": "function"
    },
    {
      "inputs": [
        {
          "internalType": "uint256",
          "name": "treeId",
          "type": "uint256"
        }
      ],
      "name": "currentAction",
      "outputs": [
        {
          "internalType": "uint256",
          "name": "",
          "type": "uint256"
        }
      ],
      "stateMutability": "view",
      "type": "function"
    },
    {
      "inputs": [],
      "name": "currentPrice",
      "outputs": [
        {
          "internalType": "uint256",
          "name": "",
          "type": "uint256"
        }
      ],
      "stateMutability": "view",
      "type": "function"
    },
    {
      "inputs": [
        {
          "internalType": "uint256",
          "name": "treeId",
          "type": "uint256"
        }
      ],
      "name": "upgradeBarracks",
      "outputs": [],
      "stateMutability": "payable",
      "type": "function"
    },
    {
      "inputs": [
        {
          "internalType": "uint256",
          "name": "treeId",
          "type": "uint256"
        }
      ],
      "name": "upgradeTrainingGrounds",
      "outputs": [],
      "stateMutability": "payable",
      "type": "function"
    },
    {
      "inputs": [
        {
          "internalType": "uint256",
          "name": "treeId",
          "type": "uint256"
        },
        {
          "internalType": "uint256",
          "name": "action",
          "type": "uint256"
        },
        {
          "internalType": "uint256",
          "name": "time",
          "type": "uint256"
        }
      ],
      "name": "updateAction",
      "outputs": [],
      "stateMutability": "payable",
      "type": "function"
    },
    {
      "inputs": [
        {
          "internalType": "uint256",
          "name": "treeId",
          "type": "uint256"
        },
        {
          "internalType": "uint256",
          "name": "amount",
          "type": "uint256"
        }
      ],
      "name": "gainExp",
      "outputs": [],
      "stateMutability": "payable",
      "type": "function"
    },
    {
      "inputs": [
        {
          "internalType": "uint256",
          "name": "treeId",
          "type": "uint256"
        }
      ],
      "name": "gainLevel",
      "outputs": [],
      "stateMutability": "payable",
      "type": "function"
    },
    {
      "inputs": [],
      "name": "createNewTree",
      "outputs": [],
      "stateMutability": "payable",
      "type": "function"
    },
    {
      "inputs": [
        {
          "internalType": "address",
          "name": "newDevelopment",
          "type": "address"
        }
      ],
      "name": "transferDevelopmentAddress",
      "outputs": [],
      "stateMutability": "payable",
      "type": "function"
    },
    {
      "inputs": [
        {
          "internalType": "address",
          "name": "newTreasury",
          "type": "address"
        }
      ],
      "name": "transferTreasuryAddress",
      "outputs": [],
      "stateMutability": "payable",
      "type": "function"
    },
    {
      "inputs": [
        {
          "internalType": "address",
          "name": "newToken",
          "type": "address"
        }
      ],
      "name": "transferTokenAddress",
      "outputs": [],
      "stateMutability": "payable",
      "type": "function"
    },
    {
      "inputs": [
        {
          "internalType": "address",
          "name": "newGameItems",
          "type": "address"
        }
      ],
      "name": "transferGameItemsAddress",
      "outputs": [],
      "stateMutability": "payable",
      "type": "function"
    }
  ],
  "bytecode": "0x608060405234801561001057600080fd5b50615552806100206000396000f3fe6080604052600436106102455760003560e01c80635fa461fc116101395780639c06eccd116100b6578063b88d4fde1161007a578063b88d4fde14610841578063b906866a1461086a578063c87b56dd146108a7578063d547741f146108e4578063d94406f21461090d578063e985e9c51461094a57610245565b80639c06eccd146107485780639d1b464a14610785578063a217fddf146107b0578063a22cb465146107db578063a5caf0f61461080457610245565b80638129fc1c116100fd5780638129fc1c146106705780638bbfcac31461068757806391d14854146106c457806395d89b41146107015780639a0f02441461072c57610245565b80635fa461fc1461055a5780636352211e146105975780636cad6932146105d457806370a08231146105f05780637a5080221461062d57610245565b806321cde202116101c75780632f2ff15d1161018b5780632f2ff15d1461048657806336568abe146104af57806342842e0e146104d85780634ed4d42a146105015780635e31fcc61461051d57610245565b806321cde202146103cc57806323b872dd146103e8578063248a9ca31461041157806326bc4c5a1461044e5780632b60b9861461046a57610245565b8063098d75001161020e578063098d7500146103435780630c9490431461035f57806310d1eb2a1461038a57806316f6bca9146103945780631af92ed3146103b057610245565b8062e23cfc1461024a57806301ffc9a71461027557806306fdde03146102b2578063081812fc146102dd578063095ea7b31461031a575b600080fd5b34801561025657600080fd5b5061025f610987565b60405161026c9190613b8f565b60405180910390f35b34801561028157600080fd5b5061029c60048036038101906102979190613c16565b6109ab565b6040516102a99190613c5e565b60405180910390f35b3480156102be57600080fd5b506102c76109bd565b6040516102d49190613d12565b60405180910390f35b3480156102e957600080fd5b5061030460048036038101906102ff9190613d6a565b610a4f565b6040516103119190613dd8565b60405180910390f35b34801561032657600080fd5b50610341600480360381019061033c9190613e1f565b610ad4565b005b61035d60048036038101906103589190613e5f565b610bec565b005b34801561036b57600080fd5b50610374610c46565b6040516103819190613b8f565b60405180910390f35b610392610c8c565b005b6103ae60048036038101906103a99190613e5f565b610e19565b005b6103ca60048036038101906103c59190613e5f565b610e73565b005b6103e660048036038101906103e19190613d6a565b610ecd565b005b3480156103f457600080fd5b5061040f600480360381019061040a9190613e8c565b6112ce565b005b34801561041d57600080fd5b5061043860048036038101906104339190613f0b565b61132e565b6040516104459190613b8f565b60405180910390f35b61046860048036038101906104639190613d6a565b61134e565b005b610484600480360381019061047f9190613f38565b6117e5565b005b34801561049257600080fd5b506104ad60048036038101906104a89190613f8b565b611871565b005b3480156104bb57600080fd5b506104d660048036038101906104d19190613f8b565b61189a565b005b3480156104e457600080fd5b506104ff60048036038101906104fa9190613e8c565b61191d565b005b61051b60048036038101906105169190613e5f565b61193d565b005b34801561052957600080fd5b50610544600480360381019061053f9190613d6a565b611997565b6040516105519190613fda565b60405180910390f35b34801561056657600080fd5b50610581600480360381019061057c9190613d6a565b6119c6565b60405161058e9190613fda565b60405180910390f35b3480156105a357600080fd5b506105be60048036038101906105b99190613d6a565b6119f5565b6040516105cb9190613dd8565b60405180910390f35b6105ee60048036038101906105e99190613ff5565b611aa7565b005b3480156105fc57600080fd5b5061061760048036038101906106129190613e5f565b611b71565b6040516106249190613fda565b60405180910390f35b34801561063957600080fd5b50610654600480360381019061064f9190613d6a565b611c29565b6040516106679796959493929190614035565b60405180910390f35b34801561067c57600080fd5b50610685611c7b565b005b34801561069357600080fd5b506106ae60048036038101906106a99190613d6a565b611ea7565b6040516106bb9190613fda565b60405180910390f35b3480156106d057600080fd5b506106eb60048036038101906106e69190613f8b565b611ed6565b6040516106f89190613c5e565b60405180910390f35b34801561070d57600080fd5b50610716611f41565b6040516107239190613d12565b60405180910390f35b61074660048036038101906107419190613d6a565b611fd3565b005b34801561075457600080fd5b5061076f600480360381019061076a9190613d6a565b61246a565b60405161077c9190613fda565b60405180910390f35b34801561079157600080fd5b5061079a612499565b6040516107a79190613fda565b60405180910390f35b3480156107bc57600080fd5b506107c56124d0565b6040516107d29190613b8f565b60405180910390f35b3480156107e757600080fd5b5061080260048036038101906107fd91906140d0565b6124d7565b005b34801561081057600080fd5b5061082b60048036038101906108269190613d6a565b6124ed565b6040516108389190613fda565b60405180910390f35b34801561084d57600080fd5b5061086860048036038101906108639190614245565b61251c565b005b34801561087657600080fd5b50610891600480360381019061088c9190613d6a565b61257e565b60405161089e9190613fda565b60405180910390f35b3480156108b357600080fd5b506108ce60048036038101906108c99190613d6a565b6125ad565b6040516108db9190613d12565b60405180910390f35b3480156108f057600080fd5b5061090b60048036038101906109069190613f8b565b612654565b005b34801561091957600080fd5b50610934600480360381019061092f9190613d6a565b61267d565b6040516109419190613fda565b60405180910390f35b34801561095657600080fd5b50610971600480360381019061096c91906142c8565b6126ac565b60405161097e9190613c5e565b60405180910390f35b7f19ac353dd86d6954025a359137447e1fda8f14ba7ba6373372af73b706fa3b2281565b60006109b682612740565b9050919050565b6060606580546109cc90614337565b80601f01602080910402602001604051908101604052809291908181526020018280546109f890614337565b8015610a455780601f10610a1a57610100808354040283529160200191610a45565b820191906000526020600020905b815481529060010190602001808311610a2857829003601f168201915b5050505050905090565b6000610a5a826127ba565b610a99576040517f08c379a0000000000000000000000000000000000000000000000000000000008152600401610a90906143db565b60405180910390fd5b6069600083815260200190815260200160002060009054906101000a900473ffffffffffffffffffffffffffffffffffffffff169050919050565b6000610adf826119f5565b90508073ffffffffffffffffffffffffffffffffffffffff168373ffffffffffffffffffffffffffffffffffffffff161415610b50576040517f08c379a0000000000000000000000000000000000000000000000000000000008152600401610b479061446d565b60405180910390fd5b8073ffffffffffffffffffffffffffffffffffffffff16610b6f612826565b73ffffffffffffffffffffffffffffffffffffffff161480610b9e5750610b9d81610b98612826565b6126ac565b5b610bdd576040517f08c379a0000000000000000000000000000000000000000000000000000000008152600401610bd4906144ff565b60405180910390fd5b610be7838361282e565b505050565b6000801b610c0181610bfc612826565b6128e7565b8160cc60006101000a81548173ffffffffffffffffffffffffffffffffffffffff021916908373ffffffffffffffffffffffffffffffffffffffff1602179055505050565b6000610c50613ab1565b4381600060018110610c6557610c6461451f565b5b60200201818152505060405160208160208460ff600019fa610c8357fe5b80519250505090565b600073ffffffffffffffffffffffffffffffffffffffff163373ffffffffffffffffffffffffffffffffffffffff1614158015610cf557503073ffffffffffffffffffffffffffffffffffffffff163373ffffffffffffffffffffffffffffffffffffffff1614155b610cfe57600080fd5b610d06612499565b341015610d1257600080fd5b600060cf8054905090506000610d26612984565b905060cf6040518060e00160405280838152602001600181526020016000815260200160008152602001600081526020016000815260200160008152509080600181540180825580915050600190039060005260206000209060070201600090919091909150600082015181600001556020820151816001015560408201518160020155606082015181600301556080820151816004015560a0820151816005015560c082015181600601555050610dde33836129ce565b7f5aa7f45898fcb5638757632f4ea98818ccb1f1b865b0721648cfb14cfcd2da9a82604051610e0d9190613fda565b60405180910390a15050565b6000801b610e2e81610e29612826565b6128e7565b8160ce60006101000a81548173ffffffffffffffffffffffffffffffffffffffff021916908373ffffffffffffffffffffffffffffffffffffffff1602179055505050565b6000801b610e8881610e83612826565b6128e7565b8160cb60006101000a81548173ffffffffffffffffffffffffffffffffffffffff021916908373ffffffffffffffffffffffffffffffffffffffff1602179055505050565b803373ffffffffffffffffffffffffffffffffffffffff16610eee826119f5565b73ffffffffffffffffffffffffffffffffffffffff1614610f0e57600080fd5b606460cf8381548110610f2457610f2361451f565b5b90600052602060002090600702016001015410610f4057600080fd5b606460cf8381548110610f5657610f5561451f565b5b906000526020600020906007020160010154610f72919061457d565b60cf8381548110610f8657610f8561451f565b5b9060005260206000209060070201600201541015610fa357600080fd5b600060cf8381548110610fb957610fb861451f565b5b90600052602060002090600702016005015414610fd557600080fd5b6000670de0b6b3a764000060cf8481548110610ff457610ff361451f565b5b906000526020600020906007020160010154611010919061457d565b9050606460cf84815481106110285761102761451f565b5b906000526020600020906007020160010154611044919061457d565b60cf84815481106110585761105761451f565b5b90600052602060002090600702016002015461107491906145d7565b60cf84815481106110885761108761451f565b5b90600052602060002090600702016002018190555060cf83815481106110b1576110b061451f565b5b906000526020600020906007020160010160008154809291906110d39061460b565b919050555060cd60009054906101000a900473ffffffffffffffffffffffffffffffffffffffff1673ffffffffffffffffffffffffffffffffffffffff166323b872dd3360cc60009054906101000a900473ffffffffffffffffffffffffffffffffffffffff166064606086611149919061457d565b6111539190614683565b6040518463ffffffff1660e01b8152600401611171939291906146b4565b6020604051808303816000875af1158015611190573d6000803e3d6000fd5b505050506040513d601f19601f820116820180604052508101906111b49190614700565b5060cd60009054906101000a900473ffffffffffffffffffffffffffffffffffffffff1673ffffffffffffffffffffffffffffffffffffffff166323b872dd3360cb60009054906101000a900473ffffffffffffffffffffffffffffffffffffffff166064600486611226919061457d565b6112309190614683565b6040518463ffffffff1660e01b815260040161124e939291906146b4565b6020604051808303816000875af115801561126d573d6000803e3d6000fd5b505050506040513d601f19601f820116820180604052508101906112919190614700565b507f7ef1df0b6d95a41d9ebcaa695746726b382e110036a9127b009babdb11c656a2836040516112c19190613fda565b60405180910390a1505050565b6112df6112d9612826565b82612b9c565b61131e576040517f08c379a00000000000000000000000000000000000000000000000000000000081526004016113159061479f565b60405180910390fd5b611329838383612c7a565b505050565b600060976000838152602001908152602001600020600101549050919050565b803373ffffffffffffffffffffffffffffffffffffffff1661136f826119f5565b73ffffffffffffffffffffffffffffffffffffffff161461138f57600080fd5b60cf82815481106113a3576113a261451f565b5b90600052602060002090600702016003015460cf83815481106113c9576113c861451f565b5b906000526020600020906007020160010154116113e557600080fd5b60cf82815481106113f9576113f861451f565b5b90600052602060002090600702016003015460151161141757600080fd5b600060cf838154811061142d5761142c61451f565b5b9060005260206000209060070201600501541461144957600080fd5b6000670de0b6b3a764000060cf84815481106114685761146761451f565b5b906000526020600020906007020160030154611484919061457d565b9050600a60cf848154811061149c5761149b61451f565b5b9060005260206000209060070201600301541180156114e05750601560cf84815481106114cc576114cb61451f565b5b906000526020600020906007020160030154105b156115b1576000600a60cf85815481106114fd576114fc61451f565b5b90600052602060002090600702016003015461151991906145d7565b905060ce60009054906101000a900473ffffffffffffffffffffffffffffffffffffffff1673ffffffffffffffffffffffffffffffffffffffff1663f242432a33600080856040518563ffffffff1660e01b815260040161157d949392919061483b565b600060405180830381600087803b15801561159757600080fd5b505af11580156115ab573d6000803e3d6000fd5b50505050505b60cf83815481106115c5576115c461451f565b5b906000526020600020906007020160030160008154809291906115e79061460b565b919050555060cd60009054906101000a900473ffffffffffffffffffffffffffffffffffffffff1673ffffffffffffffffffffffffffffffffffffffff166323b872dd3360cc60009054906101000a900473ffffffffffffffffffffffffffffffffffffffff16606460608661165d919061457d565b6116679190614683565b6040518463ffffffff1660e01b8152600401611685939291906146b4565b6020604051808303816000875af11580156116a4573d6000803e3d6000fd5b505050506040513d601f19601f820116820180604052508101906116c89190614700565b5060cd60009054906101000a900473ffffffffffffffffffffffffffffffffffffffff1673ffffffffffffffffffffffffffffffffffffffff166323b872dd3360cb60009054906101000a900473ffffffffffffffffffffffffffffffffffffffff16606460048661173a919061457d565b6117449190614683565b6040518463ffffffff1660e01b8152600401611762939291906146b4565b6020604051808303816000875af1158015611781573d6000803e3d6000fd5b505050506040513d601f19601f820116820180604052508101906117a59190614700565b507f81697e2679db8e5249c35ec26a25db2189c65f1b3bc780d2f1b1129b5e57c41d8360006040516117d8929190614893565b60405180910390a1505050565b7f19ac353dd86d6954025a359137447e1fda8f14ba7ba6373372af73b706fa3b2261181781611812612826565b6128e7565b8160cf858154811061182c5761182b61451f565b5b9060005260206000209060070201600601819055508260cf85815481106118565761185561451f565b5b90600052602060002090600702016005018190555050505050565b61187a8261132e565b61188b81611886612826565b6128e7565b6118958383612ed6565b505050565b6118a2612826565b73ffffffffffffffffffffffffffffffffffffffff168173ffffffffffffffffffffffffffffffffffffffff161461190f576040517f08c379a00000000000000000000000000000000000000000000000000000000081526004016119069061492e565b60405180910390fd5b6119198282612fb7565b5050565b6119388383836040518060200160405280600081525061251c565b505050565b6000801b6119528161194d612826565b6128e7565b8160cd60006101000a81548173ffffffffffffffffffffffffffffffffffffffff021916908373ffffffffffffffffffffffffffffffffffffffff1602179055505050565b600060cf82815481106119ad576119ac61451f565b5b9060005260206000209060070201600301549050919050565b600060cf82815481106119dc576119db61451f565b5b9060005260206000209060070201600201549050919050565b6000806067600084815260200190815260200160002060009054906101000a900473ffffffffffffffffffffffffffffffffffffffff169050600073ffffffffffffffffffffffffffffffffffffffff168173ffffffffffffffffffffffffffffffffffffffff161415611a9e576040517f08c379a0000000000000000000000000000000000000000000000000000000008152600401611a95906149c0565b60405180910390fd5b80915050919050565b7f19ac353dd86d6954025a359137447e1fda8f14ba7ba6373372af73b706fa3b22611ad981611ad4612826565b6128e7565b8160cf8481548110611aee57611aed61451f565b5b906000526020600020906007020160020154611b0a91906149e0565b60cf8481548110611b1e57611b1d61451f565b5b9060005260206000209060070201600201819055507ffa65d54a674245861f726a6e25ffd7e32b5f7e7a6a62bd81b222ad6f53643d288383604051611b64929190614a36565b60405180910390a1505050565b60008073ffffffffffffffffffffffffffffffffffffffff168273ffffffffffffffffffffffffffffffffffffffff161415611be2576040517f08c379a0000000000000000000000000000000000000000000000000000000008152600401611bd990614ad1565b60405180910390fd5b606860008373ffffffffffffffffffffffffffffffffffffffff1673ffffffffffffffffffffffffffffffffffffffff168152602001908152602001600020549050919050565b60cf8181548110611c3957600080fd5b90600052602060002090600702016000915090508060000154908060010154908060020154908060030154908060040154908060050154908060060154905087565b600060019054906101000a900460ff16611ca35760008054906101000a900460ff1615611cac565b611cab613099565b5b611ceb576040517f08c379a0000000000000000000000000000000000000000000000000000000008152600401611ce290614b63565b60405180910390fd5b60008060019054906101000a900460ff161590508015611d3b576001600060016101000a81548160ff02191690831515021790555060016000806101000a81548160ff0219169083151502179055505b601060c98190555060c954600a611d529190614cb6565b60ca8190555073f577601a5ef1d5079da672f01d7ab3b80dd2bd1d60cb60006101000a81548173ffffffffffffffffffffffffffffffffffffffff021916908373ffffffffffffffffffffffffffffffffffffffff16021790555073fd768e668a158c173e9549d1632902c2a436317860cc60006101000a81548173ffffffffffffffffffffffffffffffffffffffff021916908373ffffffffffffffffffffffffffffffffffffffff160217905550611e0f6000801b336130aa565b611e836040518060400160405280600e81526020017f50617461676f6e696320547265650000000000000000000000000000000000008152506040518060400160405280600581526020017f50545245450000000000000000000000000000000000000000000000000000008152506130b8565b8015611ea45760008060016101000a81548160ff0219169083151502179055505b50565b600060cf8281548110611ebd57611ebc61451f565b5b9060005260206000209060070201600101549050919050565b60006097600084815260200190815260200160002060000160008373ffffffffffffffffffffffffffffffffffffffff1673ffffffffffffffffffffffffffffffffffffffff16815260200190815260200160002060009054906101000a900460ff16905092915050565b606060668054611f5090614337565b80601f0160208091040260200160405190810160405280929190818152602001828054611f7c90614337565b8015611fc95780601f10611f9e57610100808354040283529160200191611fc9565b820191906000526020600020905b815481529060010190602001808311611fac57829003601f168201915b5050505050905090565b803373ffffffffffffffffffffffffffffffffffffffff16611ff4826119f5565b73ffffffffffffffffffffffffffffffffffffffff161461201457600080fd5b60cf82815481106120285761202761451f565b5b90600052602060002090600702016004015460cf838154811061204e5761204d61451f565b5b9060005260206000209060070201600101541161206a57600080fd5b60cf828154811061207e5761207d61451f565b5b90600052602060002090600702016004015460151161209c57600080fd5b600060cf83815481106120b2576120b161451f565b5b906000526020600020906007020160050154146120ce57600080fd5b6000670de0b6b3a764000060cf84815481106120ed576120ec61451f565b5b906000526020600020906007020160040154612109919061457d565b9050600a60cf84815481106121215761212061451f565b5b9060005260206000209060070201600401541180156121655750601560cf84815481106121515761215061451f565b5b906000526020600020906007020160040154105b15612236576000600a60cf85815481106121825761218161451f565b5b90600052602060002090600702016004015461219e91906145d7565b905060ce60009054906101000a900473ffffffffffffffffffffffffffffffffffffffff1673ffffffffffffffffffffffffffffffffffffffff1663f242432a33600080856040518563ffffffff1660e01b8152600401612202949392919061483b565b600060405180830381600087803b15801561221c57600080fd5b505af1158015612230573d6000803e3d6000fd5b50505050505b60cf838154811061224a5761224961451f565b5b9060005260206000209060070201600401600081548092919061226c9061460b565b919050555060cd60009054906101000a900473ffffffffffffffffffffffffffffffffffffffff1673ffffffffffffffffffffffffffffffffffffffff166323b872dd3360cc60009054906101000a900473ffffffffffffffffffffffffffffffffffffffff1660646060866122e2919061457d565b6122ec9190614683565b6040518463ffffffff1660e01b815260040161230a939291906146b4565b6020604051808303816000875af1158015612329573d6000803e3d6000fd5b505050506040513d601f19601f8201168201806040525081019061234d9190614700565b5060cd60009054906101000a900473ffffffffffffffffffffffffffffffffffffffff1673ffffffffffffffffffffffffffffffffffffffff166323b872dd3360cb60009054906101000a900473ffffffffffffffffffffffffffffffffffffffff1660646004866123bf919061457d565b6123c99190614683565b6040518463ffffffff1660e01b81526004016123e7939291906146b4565b6020604051808303816000875af1158015612406573d6000803e3d6000fd5b505050506040513d601f19601f8201168201806040525081019061242a9190614700565b507f81697e2679db8e5249c35ec26a25db2189c65f1b3bc780d2f1b1129b5e57c41d83600160405161245d929190614d3c565b60405180910390a1505050565b600060cf82815481106124805761247f61451f565b5b9060005260206000209060070201600401549050919050565b6000670de0b6b3a764000060018060cf805490506124b791906149e0565b6124c1919061457d565b6124cb919061457d565b905090565b6000801b81565b6124e96124e2612826565b8383613125565b5050565b600060cf82815481106125035761250261451f565b5b9060005260206000209060070201600601549050919050565b61252d612527612826565b83612b9c565b61256c576040517f08c379a00000000000000000000000000000000000000000000000000000000081526004016125639061479f565b60405180910390fd5b61257884848484613292565b50505050565b600060cf82815481106125945761259361451f565b5b9060005260206000209060070201600501549050919050565b60606125b8826127ba565b6125f7576040517f08c379a00000000000000000000000000000000000000000000000000000000081526004016125ee90614dd7565b60405180910390fd5b60006126016132ee565b90506000815111612621576040518060200160405280600081525061264c565b8061262b84613305565b60405160200161263c929190614e33565b6040516020818303038152906040525b915050919050565b61265d8261132e565b61266e81612669612826565b6128e7565b6126788383612fb7565b505050565b600060cf82815481106126935761269261451f565b5b9060005260206000209060070201600001549050919050565b6000606a60008473ffffffffffffffffffffffffffffffffffffffff1673ffffffffffffffffffffffffffffffffffffffff16815260200190815260200160002060008373ffffffffffffffffffffffffffffffffffffffff1673ffffffffffffffffffffffffffffffffffffffff16815260200190815260200160002060009054906101000a900460ff16905092915050565b60007f7965db0b000000000000000000000000000000000000000000000000000000007bffffffffffffffffffffffffffffffffffffffffffffffffffffffff1916827bffffffffffffffffffffffffffffffffffffffffffffffffffffffff191614806127b357506127b282613466565b5b9050919050565b60008073ffffffffffffffffffffffffffffffffffffffff166067600084815260200190815260200160002060009054906101000a900473ffffffffffffffffffffffffffffffffffffffff1673ffffffffffffffffffffffffffffffffffffffff1614159050919050565b600033905090565b816069600083815260200190815260200160002060006101000a81548173ffffffffffffffffffffffffffffffffffffffff021916908373ffffffffffffffffffffffffffffffffffffffff160217905550808273ffffffffffffffffffffffffffffffffffffffff166128a1836119f5565b73ffffffffffffffffffffffffffffffffffffffff167f8c5be1e5ebec7d5bd14f71427d1e84f3dd0314c0f7b2291e5b200ac8c7c3b92560405160405180910390a45050565b6128f18282611ed6565b612980576129168173ffffffffffffffffffffffffffffffffffffffff166014613548565b6129248360001c6020613548565b604051602001612935929190614eef565b6040516020818303038152906040526040517f08c379a00000000000000000000000000000000000000000000000000000000081526004016129779190613d12565b60405180910390fd5b5050565b60008061298f610c46565b60405160200161299f9190614f4a565b6040516020818303038152906040528051906020012060001c905060ca54816129c89190614f65565b91505090565b600073ffffffffffffffffffffffffffffffffffffffff168273ffffffffffffffffffffffffffffffffffffffff161415612a3e576040517f08c379a0000000000000000000000000000000000000000000000000000000008152600401612a3590614fe2565b60405180910390fd5b612a47816127ba565b15612a87576040517f08c379a0000000000000000000000000000000000000000000000000000000008152600401612a7e9061504e565b60405180910390fd5b612a9360008383613784565b6001606860008473ffffffffffffffffffffffffffffffffffffffff1673ffffffffffffffffffffffffffffffffffffffff1681526020019081526020016000206000828254612ae391906149e0565b92505081905550816067600083815260200190815260200160002060006101000a81548173ffffffffffffffffffffffffffffffffffffffff021916908373ffffffffffffffffffffffffffffffffffffffff160217905550808273ffffffffffffffffffffffffffffffffffffffff16600073ffffffffffffffffffffffffffffffffffffffff167fddf252ad1be2c89b69c2b068fc378daa952ba7f163c4a11628f55a4df523b3ef60405160405180910390a45050565b6000612ba7826127ba565b612be6576040517f08c379a0000000000000000000000000000000000000000000000000000000008152600401612bdd906150e0565b60405180910390fd5b6000612bf1836119f5565b90508073ffffffffffffffffffffffffffffffffffffffff168473ffffffffffffffffffffffffffffffffffffffff161480612c6057508373ffffffffffffffffffffffffffffffffffffffff16612c4884610a4f565b73ffffffffffffffffffffffffffffffffffffffff16145b80612c715750612c7081856126ac565b5b91505092915050565b8273ffffffffffffffffffffffffffffffffffffffff16612c9a826119f5565b73ffffffffffffffffffffffffffffffffffffffff1614612cf0576040517f08c379a0000000000000000000000000000000000000000000000000000000008152600401612ce790615172565b60405180910390fd5b600073ffffffffffffffffffffffffffffffffffffffff168273ffffffffffffffffffffffffffffffffffffffff161415612d60576040517f08c379a0000000000000000000000000000000000000000000000000000000008152600401612d5790615204565b60405180910390fd5b612d6b838383613784565b612d7660008261282e565b6001606860008573ffffffffffffffffffffffffffffffffffffffff1673ffffffffffffffffffffffffffffffffffffffff1681526020019081526020016000206000828254612dc691906145d7565b925050819055506001606860008473ffffffffffffffffffffffffffffffffffffffff1673ffffffffffffffffffffffffffffffffffffffff1681526020019081526020016000206000828254612e1d91906149e0565b92505081905550816067600083815260200190815260200160002060006101000a81548173ffffffffffffffffffffffffffffffffffffffff021916908373ffffffffffffffffffffffffffffffffffffffff160217905550808273ffffffffffffffffffffffffffffffffffffffff168473ffffffffffffffffffffffffffffffffffffffff167fddf252ad1be2c89b69c2b068fc378daa952ba7f163c4a11628f55a4df523b3ef60405160405180910390a4505050565b612ee08282611ed6565b612fb35760016097600084815260200190815260200160002060000160008373ffffffffffffffffffffffffffffffffffffffff1673ffffffffffffffffffffffffffffffffffffffff16815260200190815260200160002060006101000a81548160ff021916908315150217905550612f58612826565b73ffffffffffffffffffffffffffffffffffffffff168173ffffffffffffffffffffffffffffffffffffffff16837f2f8788117e7eff1d82e926ec794901d17c78024a50270940304540a733656f0d60405160405180910390a45b5050565b612fc18282611ed6565b156130955760006097600084815260200190815260200160002060000160008373ffffffffffffffffffffffffffffffffffffffff1673ffffffffffffffffffffffffffffffffffffffff16815260200190815260200160002060006101000a81548160ff02191690831515021790555061303a612826565b73ffffffffffffffffffffffffffffffffffffffff168173ffffffffffffffffffffffffffffffffffffffff16837ff6391f5c32d9c69d2a47ea670b442974b53935d1edc7fd64eb21e047a839171b60405160405180910390a45b5050565b60006130a430613789565b15905090565b6130b48282612ed6565b5050565b600060019054906101000a900460ff16613107576040517f08c379a00000000000000000000000000000000000000000000000000000000081526004016130fe90615296565b60405180910390fd5b61310f61379c565b6131176137ed565b613121828261383e565b5050565b8173ffffffffffffffffffffffffffffffffffffffff168373ffffffffffffffffffffffffffffffffffffffff161415613194576040517f08c379a000000000000000000000000000000000000000000000000000000000815260040161318b90615302565b60405180910390fd5b80606a60008573ffffffffffffffffffffffffffffffffffffffff1673ffffffffffffffffffffffffffffffffffffffff16815260200190815260200160002060008473ffffffffffffffffffffffffffffffffffffffff1673ffffffffffffffffffffffffffffffffffffffff16815260200190815260200160002060006101000a81548160ff0219169083151502179055508173ffffffffffffffffffffffffffffffffffffffff168373ffffffffffffffffffffffffffffffffffffffff167f17307eab39ab6107e8899845ad3d59bd9653f200f220920489ca2b5937696c31836040516132859190613c5e565b60405180910390a3505050565b61329d848484612c7a565b6132a9848484846138bf565b6132e8576040517f08c379a00000000000000000000000000000000000000000000000000000000081526004016132df90615394565b60405180910390fd5b50505050565b606060405180602001604052806000815250905090565b6060600082141561334d576040518060400160405280600181526020017f30000000000000000000000000000000000000000000000000000000000000008152509050613461565b600082905060005b6000821461337f5780806133689061460b565b915050600a826133789190614683565b9150613355565b60008167ffffffffffffffff81111561339b5761339a61411a565b5b6040519080825280601f01601f1916602001820160405280156133cd5781602001600182028036833780820191505090505b5090505b6000851461345a576001826133e691906145d7565b9150600a856133f59190614f65565b603061340191906149e0565b60f81b8183815181106134175761341661451f565b5b60200101907effffffffffffffffffffffffffffffffffffffffffffffffffffffffffffff1916908160001a905350600a856134539190614683565b94506133d1565b8093505050505b919050565b60007f80ac58cd000000000000000000000000000000000000000000000000000000007bffffffffffffffffffffffffffffffffffffffffffffffffffffffff1916827bffffffffffffffffffffffffffffffffffffffffffffffffffffffff1916148061353157507f5b5e139f000000000000000000000000000000000000000000000000000000007bffffffffffffffffffffffffffffffffffffffffffffffffffffffff1916827bffffffffffffffffffffffffffffffffffffffffffffffffffffffff1916145b80613541575061354082613a47565b5b9050919050565b60606000600283600261355b919061457d565b61356591906149e0565b67ffffffffffffffff81111561357e5761357d61411a565b5b6040519080825280601f01601f1916602001820160405280156135b05781602001600182028036833780820191505090505b5090507f3000000000000000000000000000000000000000000000000000000000000000816000815181106135e8576135e761451f565b5b60200101907effffffffffffffffffffffffffffffffffffffffffffffffffffffffffffff1916908160001a9053507f78000000000000000000000000000000000000000000000000000000000000008160018151811061364c5761364b61451f565b5b60200101907effffffffffffffffffffffffffffffffffffffffffffffffffffffffffffff1916908160001a9053506000600184600261368c919061457d565b61369691906149e0565b90505b6001811115613736577f3031323334353637383961626364656600000000000000000000000000000000600f8616601081106136d8576136d761451f565b5b1a60f81b8282815181106136ef576136ee61451f565b5b60200101907effffffffffffffffffffffffffffffffffffffffffffffffffffffffffffff1916908160001a905350600485901c94508061372f906153b4565b9050613699565b506000841461377a576040517f08c379a00000000000000000000000000000000000000000000000000000000081526004016137719061542a565b60405180910390fd5b8091505092915050565b505050565b600080823b905060008111915050919050565b600060019054906101000a900460ff166137eb576040517f08c379a00000000000000000000000000000000000000000000000000000000081526004016137e290615296565b60405180910390fd5b565b600060019054906101000a900460ff1661383c576040517f08c379a000000000000000000000000000000000000000000000000000000000815260040161383390615296565b60405180910390fd5b565b600060019054906101000a900460ff1661388d576040517f08c379a000000000000000000000000000000000000000000000000000000000815260040161388490615296565b60405180910390fd5b81606590805190602001906138a3929190613ad3565b5080606690805190602001906138ba929190613ad3565b505050565b60006138e08473ffffffffffffffffffffffffffffffffffffffff16613789565b15613a3a578373ffffffffffffffffffffffffffffffffffffffff1663150b7a02613909612826565b8786866040518563ffffffff1660e01b815260040161392b949392919061548e565b6020604051808303816000875af192505050801561396757506040513d601f19601f8201168201806040525081019061396491906154ef565b60015b6139ea573d8060008114613997576040519150601f19603f3d011682016040523d82523d6000602084013e61399c565b606091505b506000815114156139e2576040517f08c379a00000000000000000000000000000000000000000000000000000000081526004016139d990615394565b60405180910390fd5b805181602001fd5b63150b7a0260e01b7bffffffffffffffffffffffffffffffffffffffffffffffffffffffff1916817bffffffffffffffffffffffffffffffffffffffffffffffffffffffff191614915050613a3f565b600190505b949350505050565b60007f01ffc9a7000000000000000000000000000000000000000000000000000000007bffffffffffffffffffffffffffffffffffffffffffffffffffffffff1916827bffffffffffffffffffffffffffffffffffffffffffffffffffffffff1916149050919050565b6040518060200160405280600190602082028036833780820191505090505090565b828054613adf90614337565b90600052602060002090601f016020900481019282613b015760008555613b48565b82601f10613b1a57805160ff1916838001178555613b48565b82800160010185558215613b48579182015b82811115613b47578251825591602001919060010190613b2c565b5b509050613b559190613b59565b5090565b5b80821115613b72576000816000905550600101613b5a565b5090565b6000819050919050565b613b8981613b76565b82525050565b6000602082019050613ba46000830184613b80565b92915050565b6000604051905090565b600080fd5b600080fd5b60007fffffffff0000000000000000000000000000000000000000000000000000000082169050919050565b613bf381613bbe565b8114613bfe57600080fd5b50565b600081359050613c1081613bea565b92915050565b600060208284031215613c2c57613c2b613bb4565b5b6000613c3a84828501613c01565b91505092915050565b60008115159050919050565b613c5881613c43565b82525050565b6000602082019050613c736000830184613c4f565b92915050565b600081519050919050565b600082825260208201905092915050565b60005b83811015613cb3578082015181840152602081019050613c98565b83811115613cc2576000848401525b50505050565b6000601f19601f8301169050919050565b6000613ce482613c79565b613cee8185613c84565b9350613cfe818560208601613c95565b613d0781613cc8565b840191505092915050565b60006020820190508181036000830152613d2c8184613cd9565b905092915050565b6000819050919050565b613d4781613d34565b8114613d5257600080fd5b50565b600081359050613d6481613d3e565b92915050565b600060208284031215613d8057613d7f613bb4565b5b6000613d8e84828501613d55565b91505092915050565b600073ffffffffffffffffffffffffffffffffffffffff82169050919050565b6000613dc282613d97565b9050919050565b613dd281613db7565b82525050565b6000602082019050613ded6000830184613dc9565b92915050565b613dfc81613db7565b8114613e0757600080fd5b50565b600081359050613e1981613df3565b92915050565b60008060408385031215613e3657613e35613bb4565b5b6000613e4485828601613e0a565b9250506020613e5585828601613d55565b9150509250929050565b600060208284031215613e7557613e74613bb4565b5b6000613e8384828501613e0a565b91505092915050565b600080600060608486031215613ea557613ea4613bb4565b5b6000613eb386828701613e0a565b9350506020613ec486828701613e0a565b9250506040613ed586828701613d55565b9150509250925092565b613ee881613b76565b8114613ef357600080fd5b50565b600081359050613f0581613edf565b92915050565b600060208284031215613f2157613f20613bb4565b5b6000613f2f84828501613ef6565b91505092915050565b600080600060608486031215613f5157613f50613bb4565b5b6000613f5f86828701613d55565b9350506020613f7086828701613d55565b9250506040613f8186828701613d55565b9150509250925092565b60008060408385031215613fa257613fa1613bb4565b5b6000613fb085828601613ef6565b9250506020613fc185828601613e0a565b9150509250929050565b613fd481613d34565b82525050565b6000602082019050613fef6000830184613fcb565b92915050565b6000806040838503121561400c5761400b613bb4565b5b600061401a85828601613d55565b925050602061402b85828601613d55565b9150509250929050565b600060e08201905061404a600083018a613fcb565b6140576020830189613fcb565b6140646040830188613fcb565b6140716060830187613fcb565b61407e6080830186613fcb565b61408b60a0830185613fcb565b61409860c0830184613fcb565b98975050505050505050565b6140ad81613c43565b81146140b857600080fd5b50565b6000813590506140ca816140a4565b92915050565b600080604083850312156140e7576140e6613bb4565b5b60006140f585828601613e0a565b9250506020614106858286016140bb565b9150509250929050565b600080fd5b600080fd5b7f4e487b7100000000000000000000000000000000000000000000000000000000600052604160045260246000fd5b61415282613cc8565b810181811067ffffffffffffffff821117156141715761417061411a565b5b80604052505050565b6000614184613baa565b90506141908282614149565b919050565b600067ffffffffffffffff8211156141b0576141af61411a565b5b6141b982613cc8565b9050602081019050919050565b82818337600083830152505050565b60006141e86141e384614195565b61417a565b90508281526020810184848401111561420457614203614115565b5b61420f8482856141c6565b509392505050565b600082601f83011261422c5761422b614110565b5b813561423c8482602086016141d5565b91505092915050565b6000806000806080858703121561425f5761425e613bb4565b5b600061426d87828801613e0a565b945050602061427e87828801613e0a565b935050604061428f87828801613d55565b925050606085013567ffffffffffffffff8111156142b0576142af613bb9565b5b6142bc87828801614217565b91505092959194509250565b600080604083850312156142df576142de613bb4565b5b60006142ed85828601613e0a565b92505060206142fe85828601613e0a565b9150509250929050565b7f4e487b7100000000000000000000000000000000000000000000000000000000600052602260045260246000fd5b6000600282049050600182168061434f57607f821691505b6020821081141561436357614362614308565b5b50919050565b7f4552433732313a20617070726f76656420717565727920666f72206e6f6e657860008201527f697374656e7420746f6b656e0000000000000000000000000000000000000000602082015250565b60006143c5602c83613c84565b91506143d082614369565b604082019050919050565b600060208201905081810360008301526143f4816143b8565b9050919050565b7f4552433732313a20617070726f76616c20746f2063757272656e74206f776e6560008201527f7200000000000000000000000000000000000000000000000000000000000000602082015250565b6000614457602183613c84565b9150614462826143fb565b604082019050919050565b600060208201905081810360008301526144868161444a565b9050919050565b7f4552433732313a20617070726f76652063616c6c6572206973206e6f74206f7760008201527f6e6572206e6f7220617070726f76656420666f7220616c6c0000000000000000602082015250565b60006144e9603883613c84565b91506144f48261448d565b604082019050919050565b60006020820190508181036000830152614518816144dc565b9050919050565b7f4e487b7100000000000000000000000000000000000000000000000000000000600052603260045260246000fd5b7f4e487b7100000000000000000000000000000000000000000000000000000000600052601160045260246000fd5b600061458882613d34565b915061459383613d34565b9250817fffffffffffffffffffffffffffffffffffffffffffffffffffffffffffffffff04831182151516156145cc576145cb61454e565b5b828202905092915050565b60006145e282613d34565b91506145ed83613d34565b925082821015614600576145ff61454e565b5b828203905092915050565b600061461682613d34565b91507fffffffffffffffffffffffffffffffffffffffffffffffffffffffffffffffff8214156146495761464861454e565b5b600182019050919050565b7f4e487b7100000000000000000000000000000000000000000000000000000000600052601260045260246000fd5b600061468e82613d34565b915061469983613d34565b9250826146a9576146a8614654565b5b828204905092915050565b60006060820190506146c96000830186613dc9565b6146d66020830185613dc9565b6146e36040830184613fcb565b949350505050565b6000815190506146fa816140a4565b92915050565b60006020828403121561471657614715613bb4565b5b6000614724848285016146eb565b91505092915050565b7f4552433732313a207472616e736665722063616c6c6572206973206e6f74206f60008201527f776e6572206e6f7220617070726f766564000000000000000000000000000000602082015250565b6000614789603183613c84565b91506147948261472d565b604082019050919050565b600060208201905081810360008301526147b88161477c565b9050919050565b6000819050919050565b6000819050919050565b60006147ee6147e96147e4846147bf565b6147c9565b613d34565b9050919050565b6147fe816147d3565b82525050565b600082825260208201905092915050565b50565b6000614825600083614804565b915061483082614815565b600082019050919050565b600060a0820190506148506000830187613dc9565b61485d6020830186613dc9565b61486a60408301856147f5565b6148776060830184613fcb565b818103608083015261488881614818565b905095945050505050565b60006040820190506148a86000830185613fcb565b6148b560208301846147f5565b9392505050565b7f416363657373436f6e74726f6c3a2063616e206f6e6c792072656e6f756e636560008201527f20726f6c657320666f722073656c660000000000000000000000000000000000602082015250565b6000614918602f83613c84565b9150614923826148bc565b604082019050919050565b600060208201905081810360008301526149478161490b565b9050919050565b7f4552433732313a206f776e657220717565727920666f72206e6f6e657869737460008201527f656e7420746f6b656e0000000000000000000000000000000000000000000000602082015250565b60006149aa602983613c84565b91506149b58261494e565b604082019050919050565b600060208201905081810360008301526149d98161499d565b9050919050565b60006149eb82613d34565b91506149f683613d34565b9250827fffffffffffffffffffffffffffffffffffffffffffffffffffffffffffffffff03821115614a2b57614a2a61454e565b5b828201905092915050565b6000604082019050614a4b6000830185613fcb565b614a586020830184613fcb565b9392505050565b7f4552433732313a2062616c616e636520717565727920666f7220746865207a6560008201527f726f206164647265737300000000000000000000000000000000000000000000602082015250565b6000614abb602a83613c84565b9150614ac682614a5f565b604082019050919050565b60006020820190508181036000830152614aea81614aae565b9050919050565b7f496e697469616c697a61626c653a20636f6e747261637420697320616c72656160008201527f647920696e697469616c697a6564000000000000000000000000000000000000602082015250565b6000614b4d602e83613c84565b9150614b5882614af1565b604082019050919050565b60006020820190508181036000830152614b7c81614b40565b9050919050565b60008160011c9050919050565b6000808291508390505b6001851115614bda57808604811115614bb657614bb561454e565b5b6001851615614bc55780820291505b8081029050614bd385614b83565b9450614b9a565b94509492505050565b600082614bf35760019050614caf565b81614c015760009050614caf565b8160018114614c175760028114614c2157614c50565b6001915050614caf565b60ff841115614c3357614c3261454e565b5b8360020a915084821115614c4a57614c4961454e565b5b50614caf565b5060208310610133831016604e8410600b8410161715614c855782820a905083811115614c8057614c7f61454e565b5b614caf565b614c928484846001614b90565b92509050818404811115614ca957614ca861454e565b5b81810290505b9392505050565b6000614cc182613d34565b9150614ccc83613d34565b9250614cf97fffffffffffffffffffffffffffffffffffffffffffffffffffffffffffffffff8484614be3565b905092915050565b6000819050919050565b6000614d26614d21614d1c84614d01565b6147c9565b613d34565b9050919050565b614d3681614d0b565b82525050565b6000604082019050614d516000830185613fcb565b614d5e6020830184614d2d565b9392505050565b7f4552433732314d657461646174613a2055524920717565727920666f72206e6f60008201527f6e6578697374656e7420746f6b656e0000000000000000000000000000000000602082015250565b6000614dc1602f83613c84565b9150614dcc82614d65565b604082019050919050565b60006020820190508181036000830152614df081614db4565b9050919050565b600081905092915050565b6000614e0d82613c79565b614e178185614df7565b9350614e27818560208601613c95565b80840191505092915050565b6000614e3f8285614e02565b9150614e4b8284614e02565b91508190509392505050565b7f416363657373436f6e74726f6c3a206163636f756e7420000000000000000000600082015250565b6000614e8d601783614df7565b9150614e9882614e57565b601782019050919050565b7f206973206d697373696e6720726f6c6520000000000000000000000000000000600082015250565b6000614ed9601183614df7565b9150614ee482614ea3565b601182019050919050565b6000614efa82614e80565b9150614f068285614e02565b9150614f1182614ecc565b9150614f1d8284614e02565b91508190509392505050565b6000819050919050565b614f44614f3f82613b76565b614f29565b82525050565b6000614f568284614f33565b60208201915081905092915050565b6000614f7082613d34565b9150614f7b83613d34565b925082614f8b57614f8a614654565b5b828206905092915050565b7f4552433732313a206d696e7420746f20746865207a65726f2061646472657373600082015250565b6000614fcc602083613c84565b9150614fd782614f96565b602082019050919050565b60006020820190508181036000830152614ffb81614fbf565b9050919050565b7f4552433732313a20746f6b656e20616c7265616479206d696e74656400000000600082015250565b6000615038601c83613c84565b915061504382615002565b602082019050919050565b600060208201905081810360008301526150678161502b565b9050919050565b7f4552433732313a206f70657261746f7220717565727920666f72206e6f6e657860008201527f697374656e7420746f6b656e0000000000000000000000000000000000000000602082015250565b60006150ca602c83613c84565b91506150d58261506e565b604082019050919050565b600060208201905081810360008301526150f9816150bd565b9050919050565b7f4552433732313a207472616e73666572206f6620746f6b656e2074686174206960008201527f73206e6f74206f776e0000000000000000000000000000000000000000000000602082015250565b600061515c602983613c84565b915061516782615100565b604082019050919050565b6000602082019050818103600083015261518b8161514f565b9050919050565b7f4552433732313a207472616e7366657220746f20746865207a65726f2061646460008201527f7265737300000000000000000000000000000000000000000000000000000000602082015250565b60006151ee602483613c84565b91506151f982615192565b604082019050919050565b6000602082019050818103600083015261521d816151e1565b9050919050565b7f496e697469616c697a61626c653a20636f6e7472616374206973206e6f74206960008201527f6e697469616c697a696e67000000000000000000000000000000000000000000602082015250565b6000615280602b83613c84565b915061528b82615224565b604082019050919050565b600060208201905081810360008301526152af81615273565b9050919050565b7f4552433732313a20617070726f766520746f2063616c6c657200000000000000600082015250565b60006152ec601983613c84565b91506152f7826152b6565b602082019050919050565b6000602082019050818103600083015261531b816152df565b9050919050565b7f4552433732313a207472616e7366657220746f206e6f6e20455243373231526560008201527f63656976657220696d706c656d656e7465720000000000000000000000000000602082015250565b600061537e603283613c84565b915061538982615322565b604082019050919050565b600060208201905081810360008301526153ad81615371565b9050919050565b60006153bf82613d34565b915060008214156153d3576153d261454e565b5b600182039050919050565b7f537472696e67733a20686578206c656e67746820696e73756666696369656e74600082015250565b6000615414602083613c84565b915061541f826153de565b602082019050919050565b6000602082019050818103600083015261544381615407565b9050919050565b600081519050919050565b60006154608261544a565b61546a8185614804565b935061547a818560208601613c95565b61548381613cc8565b840191505092915050565b60006080820190506154a36000830187613dc9565b6154b06020830186613dc9565b6154bd6040830185613fcb565b81810360608301526154cf8184615455565b905095945050505050565b6000815190506154e981613bea565b92915050565b60006020828403121561550557615504613bb4565b5b6000615513848285016154da565b9150509291505056fea264697066735822122021a73a46d25c2d194bb594748eb570e1cb6ab8341a7839c0d63e7cffd295a39c64736f6c634300080b0033",
  "immutableReferences": {},
  "source": "// SPDX-License-Identifier: UNLICENSED\r\n\r\npragma solidity ^0.8.3;\r\n\r\nimport \"../node_modules/@openzeppelin/contracts-upgradeable/access/AccessControlUpgradeable.sol\";\r\nimport \"../node_modules/@openzeppelin/contracts-upgradeable/token/ERC721/ERC721Upgradeable.sol\";\r\nimport \"../node_modules/@openzeppelin/contracts/token/ERC20/IERC20.sol\";\r\nimport \"../node_modules/@openzeppelin/contracts/token/ERC1155/IERC1155.sol\";\r\n\r\ncontract Tree is ERC721Upgradeable, AccessControlUpgradeable {\r\n\r\n    bytes32 public constant QUEST_ROLE = keccak256(\"QUEST_ROLE\");\r\n\r\n    event NewTree(uint treeId);\r\n    event GainExp(uint treeId, uint amount);\r\n    event GainLevel(uint treeId);\r\n    event BuildingLevelUp (uint treeId, uint buildingId);\r\n\r\n    uint Digits;\r\n    uint Modulus;\r\n\r\n    address DevelopmentAddress;\r\n    address TreasuryAddress;\r\n    address TokenAddress;\r\n    address GameItemsAddress;\r\n\r\n    struct TreeStruct {\r\n        uint treeDNA;\r\n        uint level;\r\n        uint exp;\r\n        uint barracks;\r\n        uint trainingGrounds;\r\n        uint action;\r\n        uint onActionUntil;\r\n    }\r\n\r\n    TreeStruct[] public trees;\r\n\r\n    //Modifiers\r\n\r\n    modifier onlyOwnerOf(uint _treeId) {\r\n        require(ownerOf(_treeId) == msg.sender);\r\n        _;\r\n    }\r\n\r\n    function supportsInterface(bytes4 interfaceId) public view virtual override(ERC721Upgradeable, AccessControlUpgradeable) returns (bool) {\r\n        return super.supportsInterface(interfaceId);\r\n    }\r\n\r\n    function initialize() initializer public {\r\n        Digits = 16;\r\n        Modulus = 10 ** Digits;\r\n\r\n        DevelopmentAddress = 0xf577601a5eF1d5079Da672f01D7aB3b80dD2bd1D;\r\n        TreasuryAddress = 0xfd768E668A158C173e9549d1632902C2A4363178;\r\n        _setupRole(DEFAULT_ADMIN_ROLE, msg.sender);\r\n        __ERC721_init(\"Patagonic Tree\", \"PTREE\");\r\n    }\r\n\r\n    //Util Functions\r\n\r\n    function vrf() public view returns (bytes32 result) {\r\n        uint[1] memory bn;\r\n        bn[0] = block.number;\r\n        assembly {\r\n            let memPtr := mload(0x40)\r\n            if iszero(staticcall(not(0), 0xff, bn, 0x20, memPtr, 0x20)) {\r\n                invalid()\r\n            }\r\n            result := mload(memPtr)\r\n        }\r\n    }\r\n\r\n    //View Functions\r\n\r\n    function treeDNA(uint treeId) public view returns (uint) {\r\n        return trees[treeId].treeDNA;\r\n    }\r\n\r\n    function treeLevel(uint treeId) public view returns (uint) {\r\n        return trees[treeId].level;\r\n    }\r\n\r\n    function treeExp(uint treeId) public view returns (uint) {\r\n        return trees[treeId].exp;\r\n    }\r\n\r\n    function treeBarracks(uint treeId) public view returns (uint) {\r\n        return trees[treeId].barracks;\r\n    }\r\n\r\n    function treeTrainingGrounds(uint treeId) public view returns (uint) {\r\n        return trees[treeId].trainingGrounds;\r\n    }\r\n\r\n    function actionStatus(uint treeId) public view returns (uint) {\r\n        return trees[treeId].onActionUntil;\r\n    }\r\n\r\n    function currentAction(uint treeId) public view returns (uint) {\r\n        return trees[treeId].action;\r\n    }\r\n\r\n    function currentPrice() public view returns (uint) {\r\n        return ((trees.length+1)*1)*10**18;\r\n    }\r\n\r\n    function _generateRandomDNA() internal view returns (uint) {\r\n        uint rand = uint(keccak256(abi.encodePacked(vrf())));\r\n        return rand % Modulus;\r\n    }\r\n\r\n    //Payable Functions\r\n\r\n    function upgradeBarracks(uint treeId) public payable onlyOwnerOf(treeId) {\r\n        require(trees[treeId].level > trees[treeId].barracks);\r\n        require(21 > trees[treeId].barracks);\r\n        require(trees[treeId].action == 0);\r\n        //require enough PUDU Balance\r\n        uint amount = trees[treeId].barracks*10**18;\r\n        if (trees[treeId].barracks > 10 && trees[treeId].barracks < 21) {\r\n            uint BasicRuneAmount = (trees[treeId].barracks-10);\r\n            IERC1155(GameItemsAddress).safeTransferFrom(msg.sender, address(0), 0, BasicRuneAmount, \"\");\r\n        }\r\n        trees[treeId].barracks++;\r\n        IERC20(TokenAddress).transferFrom(msg.sender, TreasuryAddress, amount*96/100);\r\n        IERC20(TokenAddress).transferFrom(msg.sender, DevelopmentAddress, amount*4/100);\r\n        emit BuildingLevelUp (treeId, 0);\r\n    }\r\n\r\n    function upgradeTrainingGrounds(uint treeId) public payable onlyOwnerOf(treeId) {\r\n        require(trees[treeId].level > trees[treeId].trainingGrounds);\r\n        require(21 > trees[treeId].trainingGrounds);\r\n        require(trees[treeId].action == 0);\r\n        //require enough PUDU Balance\r\n        uint amount = trees[treeId].trainingGrounds*10**18;\r\n        if (trees[treeId].trainingGrounds > 10 && trees[treeId].trainingGrounds < 21) {\r\n            uint BasicRuneAmount = (trees[treeId].trainingGrounds-10);\r\n            IERC1155(GameItemsAddress).safeTransferFrom(msg.sender, address(0), 0, BasicRuneAmount, \"\");\r\n        }\r\n        trees[treeId].trainingGrounds++;\r\n        IERC20(TokenAddress).transferFrom(msg.sender, TreasuryAddress, amount*96/100);\r\n        IERC20(TokenAddress).transferFrom(msg.sender, DevelopmentAddress, amount*4/100);\r\n        emit BuildingLevelUp (treeId, 1);\r\n    }\r\n\r\n    function updateAction(uint treeId, uint action, uint time) public payable onlyRole(QUEST_ROLE) {\r\n        trees[treeId].onActionUntil = time;\r\n        trees[treeId].action = action;\r\n    }\r\n\r\n    function gainExp(uint treeId, uint amount) public payable onlyRole(QUEST_ROLE) {\r\n        //Cambiar a que solo lo pueda hacer el contrato de quests y no el usuario\r\n        trees[treeId].exp = trees[treeId].exp + amount;\r\n        emit GainExp(treeId, amount);\r\n    }\r\n\r\n    function gainLevel(uint treeId) public payable onlyOwnerOf(treeId) {\r\n        require(trees[treeId].level < 100 );\r\n        require(trees[treeId].exp >= trees[treeId].level*100);\r\n        require(trees[treeId].action == 0);\r\n        //require enough PUDU Balance\r\n        uint amount = trees[treeId].level*10**18;\r\n        trees[treeId].exp = trees[treeId].exp-trees[treeId].level*100;\r\n        trees[treeId].level++;\r\n        IERC20(TokenAddress).transferFrom(msg.sender, TreasuryAddress, amount*96/100);\r\n        IERC20(TokenAddress).transferFrom(msg.sender, DevelopmentAddress, amount*4/100);\r\n        emit GainLevel(treeId);\r\n    }\r\n\r\n    function createNewTree() public payable {\r\n        require(msg.sender != address(0) && msg.sender != address(this));\r\n        require(msg.value >= currentPrice());\r\n        uint id = trees.length;\r\n        uint DNA = _generateRandomDNA();\r\n        trees.push(TreeStruct(DNA, 1, 0, 0, 0, 0, 0));\r\n        _mint(msg.sender, id);\r\n        emit NewTree(id);\r\n\r\n    }\r\n\r\n    //Transfer Functions\r\n\r\n    function transferDevelopmentAddress(address newDevelopment) public payable onlyRole(DEFAULT_ADMIN_ROLE) {\r\n        DevelopmentAddress = newDevelopment;\r\n    }\r\n\r\n    function transferTreasuryAddress(address newTreasury) public payable onlyRole(DEFAULT_ADMIN_ROLE) {\r\n        TreasuryAddress = newTreasury;\r\n    }\r\n\r\n    function transferTokenAddress(address newToken) public payable onlyRole(DEFAULT_ADMIN_ROLE) {\r\n        TokenAddress = newToken;\r\n    }\r\n\r\n    function transferGameItemsAddress(address newGameItems) public payable onlyRole(DEFAULT_ADMIN_ROLE) {\r\n        GameItemsAddress = newGameItems;\r\n    }\r\n}",
  "sourcePath": "C:\\Users\\jtsch\\OneDrive\\Escritorio\\Python\\SmartContracts-NFT-Agus\\contracts\\Tree.sol",
  "compiler": {
    "name": "solc",
    "version": "0.8.11+commit.d7f03943.Emscripten.clang"
  },
  "schemaVersion": "3.4.3",
  "updatedAt": "2022-01-24T23:23:27.730Z",
  "devdoc": {
    "kind": "dev",
    "methods": {
      "approve(address,uint256)": {
        "details": "See {IERC721-approve}."
      },
      "balanceOf(address)": {
        "details": "See {IERC721-balanceOf}."
      },
      "getApproved(uint256)": {
        "details": "See {IERC721-getApproved}."
      },
      "getRoleAdmin(bytes32)": {
        "details": "Returns the admin role that controls `role`. See {grantRole} and {revokeRole}. To change a role's admin, use {_setRoleAdmin}."
      },
      "grantRole(bytes32,address)": {
        "details": "Grants `role` to `account`. If `account` had not been already granted `role`, emits a {RoleGranted} event. Requirements: - the caller must have ``role``'s admin role."
      },
      "hasRole(bytes32,address)": {
        "details": "Returns `true` if `account` has been granted `role`."
      },
      "isApprovedForAll(address,address)": {
        "details": "See {IERC721-isApprovedForAll}."
      },
      "name()": {
        "details": "See {IERC721Metadata-name}."
      },
      "ownerOf(uint256)": {
        "details": "See {IERC721-ownerOf}."
      },
      "renounceRole(bytes32,address)": {
        "details": "Revokes `role` from the calling account. Roles are often managed via {grantRole} and {revokeRole}: this function's purpose is to provide a mechanism for accounts to lose their privileges if they are compromised (such as when a trusted device is misplaced). If the calling account had been revoked `role`, emits a {RoleRevoked} event. Requirements: - the caller must be `account`."
      },
      "revokeRole(bytes32,address)": {
        "details": "Revokes `role` from `account`. If `account` had been granted `role`, emits a {RoleRevoked} event. Requirements: - the caller must have ``role``'s admin role."
      },
      "safeTransferFrom(address,address,uint256)": {
        "details": "See {IERC721-safeTransferFrom}."
      },
      "safeTransferFrom(address,address,uint256,bytes)": {
        "details": "See {IERC721-safeTransferFrom}."
      },
      "setApprovalForAll(address,bool)": {
        "details": "See {IERC721-setApprovalForAll}."
      },
      "symbol()": {
        "details": "See {IERC721Metadata-symbol}."
      },
      "tokenURI(uint256)": {
        "details": "See {IERC721Metadata-tokenURI}."
      },
      "transferFrom(address,address,uint256)": {
        "details": "See {IERC721-transferFrom}."
      }
    },
    "version": 1
  },
  "userdoc": {
    "kind": "user",
    "methods": {},
    "version": 1
  }
}