{
  "contractName": "Tree",
  "abi": [
    {
      "anonymous": false,
      "inputs": [
        {
          "indexed": true,
          "internalType": "address",
          "name": "owner",
          "type": "address"
        },
        {
          "indexed": true,
          "internalType": "address",
          "name": "approved",
          "type": "address"
        },
        {
          "indexed": true,
          "internalType": "uint256",
          "name": "tokenId",
          "type": "uint256"
        }
      ],
      "name": "Approval",
      "type": "event"
    },
    {
      "anonymous": false,
      "inputs": [
        {
          "indexed": true,
          "internalType": "address",
          "name": "owner",
          "type": "address"
        },
        {
          "indexed": true,
          "internalType": "address",
          "name": "operator",
          "type": "address"
        },
        {
          "indexed": false,
          "internalType": "bool",
          "name": "approved",
          "type": "bool"
        }
      ],
      "name": "ApprovalForAll",
      "type": "event"
    },
    {
      "anonymous": false,
      "inputs": [
        {
          "indexed": false,
          "internalType": "uint256",
          "name": "treeId",
          "type": "uint256"
        },
        {
          "indexed": false,
          "internalType": "uint256",
          "name": "amount",
          "type": "uint256"
        }
      ],
      "name": "GainExp",
      "type": "event"
    },
    {
      "anonymous": false,
      "inputs": [
        {
          "indexed": false,
          "internalType": "uint256",
          "name": "treeId",
          "type": "uint256"
        }
      ],
      "name": "GainLevel",
      "type": "event"
    },
    {
      "anonymous": false,
      "inputs": [
        {
          "indexed": false,
          "internalType": "uint256",
          "name": "treeId",
          "type": "uint256"
        }
      ],
      "name": "NewTree",
      "type": "event"
    },
    {
      "anonymous": false,
      "inputs": [
        {
          "indexed": true,
          "internalType": "bytes32",
          "name": "role",
          "type": "bytes32"
        },
        {
          "indexed": true,
          "internalType": "bytes32",
          "name": "previousAdminRole",
          "type": "bytes32"
        },
        {
          "indexed": true,
          "internalType": "bytes32",
          "name": "newAdminRole",
          "type": "bytes32"
        }
      ],
      "name": "RoleAdminChanged",
      "type": "event"
    },
    {
      "anonymous": false,
      "inputs": [
        {
          "indexed": true,
          "internalType": "bytes32",
          "name": "role",
          "type": "bytes32"
        },
        {
          "indexed": true,
          "internalType": "address",
          "name": "account",
          "type": "address"
        },
        {
          "indexed": true,
          "internalType": "address",
          "name": "sender",
          "type": "address"
        }
      ],
      "name": "RoleGranted",
      "type": "event"
    },
    {
      "anonymous": false,
      "inputs": [
        {
          "indexed": true,
          "internalType": "bytes32",
          "name": "role",
          "type": "bytes32"
        },
        {
          "indexed": true,
          "internalType": "address",
          "name": "account",
          "type": "address"
        },
        {
          "indexed": true,
          "internalType": "address",
          "name": "sender",
          "type": "address"
        }
      ],
      "name": "RoleRevoked",
      "type": "event"
    },
    {
      "anonymous": false,
      "inputs": [
        {
          "indexed": false,
          "internalType": "uint256",
          "name": "treeId",
          "type": "uint256"
        },
        {
          "indexed": false,
          "internalType": "uint256",
          "name": "statId",
          "type": "uint256"
        }
      ],
      "name": "StatLevelUp",
      "type": "event"
    },
    {
      "anonymous": false,
      "inputs": [
        {
          "indexed": true,
          "internalType": "address",
          "name": "from",
          "type": "address"
        },
        {
          "indexed": true,
          "internalType": "address",
          "name": "to",
          "type": "address"
        },
        {
          "indexed": true,
          "internalType": "uint256",
          "name": "tokenId",
          "type": "uint256"
        }
      ],
      "name": "Transfer",
      "type": "event"
    },
    {
      "inputs": [],
      "name": "DEFAULT_ADMIN_ROLE",
      "outputs": [
        {
          "internalType": "bytes32",
          "name": "",
          "type": "bytes32"
        }
      ],
      "stateMutability": "view",
      "type": "function",
      "constant": true
    },
    {
      "inputs": [],
      "name": "QUEST_ROLE",
      "outputs": [
        {
          "internalType": "bytes32",
          "name": "",
          "type": "bytes32"
        }
      ],
      "stateMutability": "view",
      "type": "function",
      "constant": true
    },
    {
      "inputs": [],
      "name": "UPG_ROLE",
      "outputs": [
        {
          "internalType": "bytes32",
          "name": "",
          "type": "bytes32"
        }
      ],
      "stateMutability": "view",
      "type": "function",
      "constant": true
    },
    {
      "inputs": [
        {
          "internalType": "address",
          "name": "to",
          "type": "address"
        },
        {
          "internalType": "uint256",
          "name": "tokenId",
          "type": "uint256"
        }
      ],
      "name": "approve",
      "outputs": [],
      "stateMutability": "nonpayable",
      "type": "function"
    },
    {
      "inputs": [
        {
          "internalType": "address",
          "name": "owner",
          "type": "address"
        }
      ],
      "name": "balanceOf",
      "outputs": [
        {
          "internalType": "uint256",
          "name": "",
          "type": "uint256"
        }
      ],
      "stateMutability": "view",
      "type": "function",
      "constant": true
    },
    {
      "inputs": [
        {
          "internalType": "uint256",
          "name": "tokenId",
          "type": "uint256"
        }
      ],
      "name": "getApproved",
      "outputs": [
        {
          "internalType": "address",
          "name": "",
          "type": "address"
        }
      ],
      "stateMutability": "view",
      "type": "function",
      "constant": true
    },
    {
      "inputs": [
        {
          "internalType": "bytes32",
          "name": "role",
          "type": "bytes32"
        }
      ],
      "name": "getRoleAdmin",
      "outputs": [
        {
          "internalType": "bytes32",
          "name": "",
          "type": "bytes32"
        }
      ],
      "stateMutability": "view",
      "type": "function",
      "constant": true
    },
    {
      "inputs": [
        {
          "internalType": "bytes32",
          "name": "role",
          "type": "bytes32"
        },
        {
          "internalType": "address",
          "name": "account",
          "type": "address"
        }
      ],
      "name": "grantRole",
      "outputs": [],
      "stateMutability": "nonpayable",
      "type": "function"
    },
    {
      "inputs": [
        {
          "internalType": "bytes32",
          "name": "role",
          "type": "bytes32"
        },
        {
          "internalType": "address",
          "name": "account",
          "type": "address"
        }
      ],
      "name": "hasRole",
      "outputs": [
        {
          "internalType": "bool",
          "name": "",
          "type": "bool"
        }
      ],
      "stateMutability": "view",
      "type": "function",
      "constant": true
    },
    {
      "inputs": [
        {
          "internalType": "address",
          "name": "owner",
          "type": "address"
        },
        {
          "internalType": "address",
          "name": "operator",
          "type": "address"
        }
      ],
      "name": "isApprovedForAll",
      "outputs": [
        {
          "internalType": "bool",
          "name": "",
          "type": "bool"
        }
      ],
      "stateMutability": "view",
      "type": "function",
      "constant": true
    },
    {
      "inputs": [],
      "name": "name",
      "outputs": [
        {
          "internalType": "string",
          "name": "",
          "type": "string"
        }
      ],
      "stateMutability": "view",
      "type": "function",
      "constant": true
    },
    {
      "inputs": [
        {
          "internalType": "uint256",
          "name": "tokenId",
          "type": "uint256"
        }
      ],
      "name": "ownerOf",
      "outputs": [
        {
          "internalType": "address",
          "name": "",
          "type": "address"
        }
      ],
      "stateMutability": "view",
      "type": "function",
      "constant": true
    },
    {
      "inputs": [
        {
          "internalType": "bytes32",
          "name": "role",
          "type": "bytes32"
        },
        {
          "internalType": "address",
          "name": "account",
          "type": "address"
        }
      ],
      "name": "renounceRole",
      "outputs": [],
      "stateMutability": "nonpayable",
      "type": "function"
    },
    {
      "inputs": [
        {
          "internalType": "bytes32",
          "name": "role",
          "type": "bytes32"
        },
        {
          "internalType": "address",
          "name": "account",
          "type": "address"
        }
      ],
      "name": "revokeRole",
      "outputs": [],
      "stateMutability": "nonpayable",
      "type": "function"
    },
    {
      "inputs": [
        {
          "internalType": "address",
          "name": "from",
          "type": "address"
        },
        {
          "internalType": "address",
          "name": "to",
          "type": "address"
        },
        {
          "internalType": "uint256",
          "name": "tokenId",
          "type": "uint256"
        }
      ],
      "name": "safeTransferFrom",
      "outputs": [],
      "stateMutability": "nonpayable",
      "type": "function"
    },
    {
      "inputs": [
        {
          "internalType": "address",
          "name": "from",
          "type": "address"
        },
        {
          "internalType": "address",
          "name": "to",
          "type": "address"
        },
        {
          "internalType": "uint256",
          "name": "tokenId",
          "type": "uint256"
        },
        {
          "internalType": "bytes",
          "name": "_data",
          "type": "bytes"
        }
      ],
      "name": "safeTransferFrom",
      "outputs": [],
      "stateMutability": "nonpayable",
      "type": "function"
    },
    {
      "inputs": [
        {
          "internalType": "address",
          "name": "operator",
          "type": "address"
        },
        {
          "internalType": "bool",
          "name": "approved",
          "type": "bool"
        }
      ],
      "name": "setApprovalForAll",
      "outputs": [],
      "stateMutability": "nonpayable",
      "type": "function"
    },
    {
      "inputs": [],
      "name": "symbol",
      "outputs": [
        {
          "internalType": "string",
          "name": "",
          "type": "string"
        }
      ],
      "stateMutability": "view",
      "type": "function",
      "constant": true
    },
    {
      "inputs": [
        {
          "internalType": "uint256",
          "name": "tokenId",
          "type": "uint256"
        }
      ],
      "name": "tokenURI",
      "outputs": [
        {
          "internalType": "string",
          "name": "",
          "type": "string"
        }
      ],
      "stateMutability": "view",
      "type": "function",
      "constant": true
    },
    {
      "inputs": [
        {
          "internalType": "address",
          "name": "from",
          "type": "address"
        },
        {
          "internalType": "address",
          "name": "to",
          "type": "address"
        },
        {
          "internalType": "uint256",
          "name": "tokenId",
          "type": "uint256"
        }
      ],
      "name": "transferFrom",
      "outputs": [],
      "stateMutability": "nonpayable",
      "type": "function"
    },
    {
      "inputs": [
        {
          "internalType": "uint256",
          "name": "",
          "type": "uint256"
        }
      ],
      "name": "trees",
      "outputs": [
        {
          "internalType": "uint256",
          "name": "treeDNA",
          "type": "uint256"
        },
        {
          "internalType": "uint256",
          "name": "level",
          "type": "uint256"
        },
        {
          "internalType": "uint256",
          "name": "exp",
          "type": "uint256"
        },
        {
          "internalType": "uint256",
          "name": "roots",
          "type": "uint256"
        },
        {
          "internalType": "uint256",
          "name": "branches",
          "type": "uint256"
        },
        {
          "internalType": "uint256",
          "name": "action",
          "type": "uint256"
        },
        {
          "internalType": "uint256",
          "name": "onActionUntil",
          "type": "uint256"
        }
      ],
      "stateMutability": "view",
      "type": "function",
      "constant": true
    },
    {
      "inputs": [
        {
          "internalType": "bytes4",
          "name": "interfaceId",
          "type": "bytes4"
        }
      ],
      "name": "supportsInterface",
      "outputs": [
        {
          "internalType": "bool",
          "name": "",
          "type": "bool"
        }
      ],
      "stateMutability": "view",
      "type": "function",
      "constant": true
    },
    {
      "inputs": [],
      "name": "initialize",
      "outputs": [],
      "stateMutability": "nonpayable",
      "type": "function"
    },
    {
      "inputs": [],
      "name": "vrf",
      "outputs": [
        {
          "internalType": "bytes32",
          "name": "result",
          "type": "bytes32"
        }
      ],
      "stateMutability": "view",
      "type": "function",
      "constant": true
    },
    {
      "inputs": [
        {
          "internalType": "uint256",
          "name": "treeId",
          "type": "uint256"
        }
      ],
      "name": "treeDNA",
      "outputs": [
        {
          "internalType": "uint256",
          "name": "",
          "type": "uint256"
        }
      ],
      "stateMutability": "view",
      "type": "function",
      "constant": true
    },
    {
      "inputs": [
        {
          "internalType": "uint256",
          "name": "treeId",
          "type": "uint256"
        }
      ],
      "name": "treeLevel",
      "outputs": [
        {
          "internalType": "uint256",
          "name": "",
          "type": "uint256"
        }
      ],
      "stateMutability": "view",
      "type": "function",
      "constant": true
    },
    {
      "inputs": [
        {
          "internalType": "uint256",
          "name": "treeId",
          "type": "uint256"
        }
      ],
      "name": "treeExp",
      "outputs": [
        {
          "internalType": "uint256",
          "name": "",
          "type": "uint256"
        }
      ],
      "stateMutability": "view",
      "type": "function",
      "constant": true
    },
    {
      "inputs": [
        {
          "internalType": "uint256",
          "name": "treeId",
          "type": "uint256"
        }
      ],
      "name": "treeRoots",
      "outputs": [
        {
          "internalType": "uint256",
          "name": "",
          "type": "uint256"
        }
      ],
      "stateMutability": "view",
      "type": "function",
      "constant": true
    },
    {
      "inputs": [
        {
          "internalType": "uint256",
          "name": "treeId",
          "type": "uint256"
        }
      ],
      "name": "treeBranches",
      "outputs": [
        {
          "internalType": "uint256",
          "name": "",
          "type": "uint256"
        }
      ],
      "stateMutability": "view",
      "type": "function",
      "constant": true
    },
    {
      "inputs": [
        {
          "internalType": "uint256",
          "name": "treeId",
          "type": "uint256"
        }
      ],
      "name": "actionStatus",
      "outputs": [
        {
          "internalType": "uint256",
          "name": "",
          "type": "uint256"
        }
      ],
      "stateMutability": "view",
      "type": "function",
      "constant": true
    },
    {
      "inputs": [
        {
          "internalType": "uint256",
          "name": "treeId",
          "type": "uint256"
        }
      ],
      "name": "currentAction",
      "outputs": [
        {
          "internalType": "uint256",
          "name": "",
          "type": "uint256"
        }
      ],
      "stateMutability": "view",
      "type": "function",
      "constant": true
    },
    {
      "inputs": [],
      "name": "currentPrice",
      "outputs": [
        {
          "internalType": "uint256",
          "name": "",
          "type": "uint256"
        }
      ],
      "stateMutability": "view",
      "type": "function",
      "constant": true
    },
    {
      "inputs": [],
      "name": "treesQuantity",
      "outputs": [
        {
          "internalType": "uint256",
          "name": "",
          "type": "uint256"
        }
      ],
      "stateMutability": "view",
      "type": "function",
      "constant": true
    },
    {
      "inputs": [
        {
          "internalType": "uint256",
          "name": "treeId",
          "type": "uint256"
        },
        {
          "internalType": "address",
          "name": "user",
          "type": "address"
        }
      ],
      "name": "gainLevel",
      "outputs": [],
      "stateMutability": "nonpayable",
      "type": "function"
    },
    {
      "inputs": [
        {
          "internalType": "uint256",
          "name": "treeId",
          "type": "uint256"
        },
        {
          "internalType": "uint256",
          "name": "amount",
          "type": "uint256"
        }
      ],
      "name": "gainExp",
      "outputs": [],
      "stateMutability": "nonpayable",
      "type": "function"
    },
    {
      "inputs": [
        {
          "internalType": "uint256",
          "name": "treeId",
          "type": "uint256"
        },
        {
          "internalType": "address",
          "name": "user",
          "type": "address"
        }
      ],
      "name": "levelUpBranches",
      "outputs": [],
      "stateMutability": "nonpayable",
      "type": "function"
    },
    {
      "inputs": [
        {
          "internalType": "uint256",
          "name": "treeId",
          "type": "uint256"
        },
        {
          "internalType": "address",
          "name": "user",
          "type": "address"
        }
      ],
      "name": "levelUpRoots",
      "outputs": [],
      "stateMutability": "nonpayable",
      "type": "function"
    },
    {
      "inputs": [
        {
          "internalType": "uint256",
          "name": "treeId",
          "type": "uint256"
        },
        {
          "internalType": "uint256",
          "name": "action",
          "type": "uint256"
        },
        {
          "internalType": "uint256",
          "name": "time",
          "type": "uint256"
        }
      ],
      "name": "updateAction",
      "outputs": [],
      "stateMutability": "nonpayable",
      "type": "function"
    },
    {
      "inputs": [],
      "name": "createNewTree",
      "outputs": [],
      "stateMutability": "payable",
      "type": "function",
      "payable": true
    },
    {
      "inputs": [
        {
          "internalType": "address",
          "name": "newDevelopment",
          "type": "address"
        }
      ],
      "name": "transferDevelopmentAddress",
      "outputs": [],
      "stateMutability": "nonpayable",
      "type": "function"
    },
    {
      "inputs": [
        {
          "internalType": "address",
          "name": "newTreasury",
          "type": "address"
        }
      ],
      "name": "transferTreasuryAddress",
      "outputs": [],
      "stateMutability": "nonpayable",
      "type": "function"
    },
    {
      "inputs": [
        {
          "internalType": "address",
          "name": "newToken",
          "type": "address"
        }
      ],
      "name": "transferTokenAddress",
      "outputs": [],
      "stateMutability": "nonpayable",
      "type": "function"
    }
  ],
  "bytecode": "0x608060405234801561001057600080fd5b50615311806100206000396000f3fe6080604052600436106102505760003560e01c806370a0823111610139578063a217fddf116100b6578063b88d4fde1161007a578063b88d4fde146108ee578063b906866a14610917578063c87b56dd14610954578063d547741f14610991578063d94406f2146109ba578063e985e9c5146109f757610250565b8063a217fddf14610807578063a22cb46514610832578063a5caf0f61461085b578063af2fa83114610898578063b3c7663c146108c357610250565b80638bbfcac3116100fd5780638bbfcac31461070e57806391d148541461074b57806395d89b41146107885780639d1b464a146107b35780639dcb26e6146107de57610250565b806370a08231146106115780637a5080221461064e5780637b5aa51d146106915780638129fc1c146106ce578063862314c2146106e557610250565b8063248a9ca3116101d257806336568abe1161019657806336568abe146104f357806342842e0e1461051c5780634ed4d42a146105455780635fa461fc1461056e5780636352211e146105ab5780636cad6932146105e857610250565b8063248a9ca3146103fe5780632b60b9861461043b5780632cb98b65146104645780632f2ff15d1461048d578063364051a6146104b657610250565b8063098d750011610219578063098d75001461034e5780630c9490431461037757806310d1eb2a146103a25780631af92ed3146103ac57806323b872dd146103d557610250565b8062e23cfc1461025557806301ffc9a71461028057806306fdde03146102bd578063081812fc146102e8578063095ea7b314610325575b600080fd5b34801561026157600080fd5b5061026a610a34565b604051610277919061394a565b60405180910390f35b34801561028c57600080fd5b506102a760048036038101906102a291906139d1565b610a58565b6040516102b49190613a19565b60405180910390f35b3480156102c957600080fd5b506102d2610a6a565b6040516102df9190613acd565b60405180910390f35b3480156102f457600080fd5b5061030f600480360381019061030a9190613b25565b610afc565b60405161031c9190613b93565b60405180910390f35b34801561033157600080fd5b5061034c60048036038101906103479190613bda565b610b81565b005b34801561035a57600080fd5b5061037560048036038101906103709190613c1a565b610c99565b005b34801561038357600080fd5b5061038c610cf3565b604051610399919061394a565b60405180910390f35b6103aa610d39565b005b3480156103b857600080fd5b506103d360048036038101906103ce9190613c1a565b610ec6565b005b3480156103e157600080fd5b506103fc60048036038101906103f79190613c47565b610f20565b005b34801561040a57600080fd5b5061042560048036038101906104209190613cc6565b610f80565b604051610432919061394a565b60405180910390f35b34801561044757600080fd5b50610462600480360381019061045d9190613cf3565b610fa0565b005b34801561047057600080fd5b5061048b60048036038101906104869190613d46565b61102c565b005b34801561049957600080fd5b506104b460048036038101906104af9190613d86565b611378565b005b3480156104c257600080fd5b506104dd60048036038101906104d89190613b25565b6113a1565b6040516104ea9190613dd5565b60405180910390f35b3480156104ff57600080fd5b5061051a60048036038101906105159190613d86565b6113d0565b005b34801561052857600080fd5b50610543600480360381019061053e9190613c47565b611453565b005b34801561055157600080fd5b5061056c60048036038101906105679190613c1a565b611473565b005b34801561057a57600080fd5b5061059560048036038101906105909190613b25565b6114cd565b6040516105a29190613dd5565b60405180910390f35b3480156105b757600080fd5b506105d260048036038101906105cd9190613b25565b6114fc565b6040516105df9190613b93565b60405180910390f35b3480156105f457600080fd5b5061060f600480360381019061060a9190613df0565b6115ae565b005b34801561061d57600080fd5b5061063860048036038101906106339190613c1a565b611678565b6040516106459190613dd5565b60405180910390f35b34801561065a57600080fd5b5061067560048036038101906106709190613b25565b611730565b6040516106889796959493929190613e30565b60405180910390f35b34801561069d57600080fd5b506106b860048036038101906106b39190613b25565b611782565b6040516106c59190613dd5565b60405180910390f35b3480156106da57600080fd5b506106e36117b1565b005b3480156106f157600080fd5b5061070c60048036038101906107079190613d46565b6119dd565b005b34801561071a57600080fd5b5061073560048036038101906107309190613b25565b611d29565b6040516107429190613dd5565b60405180910390f35b34801561075757600080fd5b50610772600480360381019061076d9190613d86565b611d58565b60405161077f9190613a19565b60405180910390f35b34801561079457600080fd5b5061079d611dc3565b6040516107aa9190613acd565b60405180910390f35b3480156107bf57600080fd5b506107c8611e55565b6040516107d59190613dd5565b60405180910390f35b3480156107ea57600080fd5b5061080560048036038101906108009190613d46565b611e81565b005b34801561081357600080fd5b5061081c612255565b604051610829919061394a565b60405180910390f35b34801561083e57600080fd5b5061085960048036038101906108549190613ecb565b61225c565b005b34801561086757600080fd5b50610882600480360381019061087d9190613b25565b612272565b60405161088f9190613dd5565b60405180910390f35b3480156108a457600080fd5b506108ad6122a1565b6040516108ba9190613dd5565b60405180910390f35b3480156108cf57600080fd5b506108d86122b3565b6040516108e5919061394a565b60405180910390f35b3480156108fa57600080fd5b5061091560048036038101906109109190614040565b6122d7565b005b34801561092357600080fd5b5061093e60048036038101906109399190613b25565b612339565b60405161094b9190613dd5565b60405180910390f35b34801561096057600080fd5b5061097b60048036038101906109769190613b25565b612368565b6040516109889190613acd565b60405180910390f35b34801561099d57600080fd5b506109b860048036038101906109b39190613d86565b61240f565b005b3480156109c657600080fd5b506109e160048036038101906109dc9190613b25565b612438565b6040516109ee9190613dd5565b60405180910390f35b348015610a0357600080fd5b50610a1e6004803603810190610a1991906140c3565b612467565b604051610a2b9190613a19565b60405180910390f35b7f19ac353dd86d6954025a359137447e1fda8f14ba7ba6373372af73b706fa3b2281565b6000610a63826124fb565b9050919050565b606060658054610a7990614132565b80601f0160208091040260200160405190810160405280929190818152602001828054610aa590614132565b8015610af25780601f10610ac757610100808354040283529160200191610af2565b820191906000526020600020905b815481529060010190602001808311610ad557829003601f168201915b5050505050905090565b6000610b0782612575565b610b46576040517f08c379a0000000000000000000000000000000000000000000000000000000008152600401610b3d906141d6565b60405180910390fd5b6069600083815260200190815260200160002060009054906101000a900473ffffffffffffffffffffffffffffffffffffffff169050919050565b6000610b8c826114fc565b90508073ffffffffffffffffffffffffffffffffffffffff168373ffffffffffffffffffffffffffffffffffffffff161415610bfd576040517f08c379a0000000000000000000000000000000000000000000000000000000008152600401610bf490614268565b60405180910390fd5b8073ffffffffffffffffffffffffffffffffffffffff16610c1c6125e1565b73ffffffffffffffffffffffffffffffffffffffff161480610c4b5750610c4a81610c456125e1565b612467565b5b610c8a576040517f08c379a0000000000000000000000000000000000000000000000000000000008152600401610c81906142fa565b60405180910390fd5b610c9483836125e9565b505050565b6000801b610cae81610ca96125e1565b6126a2565b8160cc60006101000a81548173ffffffffffffffffffffffffffffffffffffffff021916908373ffffffffffffffffffffffffffffffffffffffff1602179055505050565b6000610cfd61386c565b4381600060018110610d1257610d1161431a565b5b60200201818152505060405160208160208460ff600019fa610d3057fe5b80519250505090565b600073ffffffffffffffffffffffffffffffffffffffff163373ffffffffffffffffffffffffffffffffffffffff1614158015610da257503073ffffffffffffffffffffffffffffffffffffffff163373ffffffffffffffffffffffffffffffffffffffff1614155b610dab57600080fd5b610db3611e55565b341015610dbf57600080fd5b600060ce8054905090506000610dd361273f565b905060ce6040518060e00160405280838152602001600181526020016000815260200160018152602001600181526020016000815260200160008152509080600181540180825580915050600190039060005260206000209060070201600090919091909150600082015181600001556020820151816001015560408201518160020155606082015181600301556080820151816004015560a0820151816005015560c082015181600601555050610e8b3383612789565b7f5aa7f45898fcb5638757632f4ea98818ccb1f1b865b0721648cfb14cfcd2da9a82604051610eba9190613dd5565b60405180910390a15050565b6000801b610edb81610ed66125e1565b6126a2565b8160cb60006101000a81548173ffffffffffffffffffffffffffffffffffffffff021916908373ffffffffffffffffffffffffffffffffffffffff1602179055505050565b610f31610f2b6125e1565b82612957565b610f70576040517f08c379a0000000000000000000000000000000000000000000000000000000008152600401610f67906143bb565b60405180910390fd5b610f7b838383612a35565b505050565b600060976000838152602001908152602001600020600101549050919050565b7f19ac353dd86d6954025a359137447e1fda8f14ba7ba6373372af73b706fa3b22610fd281610fcd6125e1565b6126a2565b8160ce8581548110610fe757610fe661431a565b5b9060005260206000209060070201600601819055508260ce85815481106110115761101061431a565b5b90600052602060002090600702016005018190555050505050565b7f8b83cff217526f65affab658236a6c4f2d8020cd01ccd4c27987c26870279b1461105e816110596125e1565b6126a2565b6000670de0b6b3a764000060ce858154811061107d5761107c61431a565b5b906000526020600020906007020160030154611099919061440a565b90508060cd60009054906101000a900473ffffffffffffffffffffffffffffffffffffffff1673ffffffffffffffffffffffffffffffffffffffff166370a08231856040518263ffffffff1660e01b81526004016110f79190613b93565b602060405180830381865afa158015611114573d6000803e3d6000fd5b505050506040513d601f19601f820116820180604052508101906111389190614479565b101561114357600080fd5b60cd60009054906101000a900473ffffffffffffffffffffffffffffffffffffffff1673ffffffffffffffffffffffffffffffffffffffff166323b872dd8460cc60009054906101000a900473ffffffffffffffffffffffffffffffffffffffff1660646060866111b4919061440a565b6111be91906144d5565b6040518463ffffffff1660e01b81526004016111dc93929190614506565b6020604051808303816000875af11580156111fb573d6000803e3d6000fd5b505050506040513d601f19601f8201168201806040525081019061121f9190614552565b5060cd60009054906101000a900473ffffffffffffffffffffffffffffffffffffffff1673ffffffffffffffffffffffffffffffffffffffff166323b872dd8460cb60009054906101000a900473ffffffffffffffffffffffffffffffffffffffff166064600486611291919061440a565b61129b91906144d5565b6040518463ffffffff1660e01b81526004016112b993929190614506565b6020604051808303816000875af11580156112d8573d6000803e3d6000fd5b505050506040513d601f19601f820116820180604052508101906112fc9190614552565b5060ce84815481106113115761131061431a565b5b906000526020600020906007020160030160008154809291906113339061457f565b91905055507f20c31955b530563483aba79e1a051106dcb9ee48b987bfa568ef479e011c1a6c84600160405161136a92919061460d565b60405180910390a150505050565b61138182610f80565b6113928161138d6125e1565b6126a2565b61139c8383612c91565b505050565b600060ce82815481106113b7576113b661431a565b5b9060005260206000209060070201600401549050919050565b6113d86125e1565b73ffffffffffffffffffffffffffffffffffffffff168173ffffffffffffffffffffffffffffffffffffffff1614611445576040517f08c379a000000000000000000000000000000000000000000000000000000000815260040161143c906146a8565b60405180910390fd5b61144f8282612d72565b5050565b61146e838383604051806020016040528060008152506122d7565b505050565b6000801b611488816114836125e1565b6126a2565b8160cd60006101000a81548173ffffffffffffffffffffffffffffffffffffffff021916908373ffffffffffffffffffffffffffffffffffffffff1602179055505050565b600060ce82815481106114e3576114e261431a565b5b9060005260206000209060070201600201549050919050565b6000806067600084815260200190815260200160002060009054906101000a900473ffffffffffffffffffffffffffffffffffffffff169050600073ffffffffffffffffffffffffffffffffffffffff168173ffffffffffffffffffffffffffffffffffffffff1614156115a5576040517f08c379a000000000000000000000000000000000000000000000000000000000815260040161159c9061473a565b60405180910390fd5b80915050919050565b7f19ac353dd86d6954025a359137447e1fda8f14ba7ba6373372af73b706fa3b226115e0816115db6125e1565b6126a2565b8160ce84815481106115f5576115f461431a565b5b906000526020600020906007020160020154611611919061475a565b60ce84815481106116255761162461431a565b5b9060005260206000209060070201600201819055507ffa65d54a674245861f726a6e25ffd7e32b5f7e7a6a62bd81b222ad6f53643d28838360405161166b9291906147b0565b60405180910390a1505050565b60008073ffffffffffffffffffffffffffffffffffffffff168273ffffffffffffffffffffffffffffffffffffffff1614156116e9576040517f08c379a00000000000000000000000000000000000000000000000000000000081526004016116e09061484b565b60405180910390fd5b606860008373ffffffffffffffffffffffffffffffffffffffff1673ffffffffffffffffffffffffffffffffffffffff168152602001908152602001600020549050919050565b60ce818154811061174057600080fd5b90600052602060002090600702016000915090508060000154908060010154908060020154908060030154908060040154908060050154908060060154905087565b600060ce82815481106117985761179761431a565b5b9060005260206000209060070201600301549050919050565b600060019054906101000a900460ff166117d95760008054906101000a900460ff16156117e2565b6117e1612e54565b5b611821576040517f08c379a0000000000000000000000000000000000000000000000000000000008152600401611818906148dd565b60405180910390fd5b60008060019054906101000a900460ff161590508015611871576001600060016101000a81548160ff02191690831515021790555060016000806101000a81548160ff0219169083151502179055505b601060c98190555060c954600a6118889190614a30565b60ca8190555073fd768e668a158c173e9549d1632902c2a436317860cb60006101000a81548173ffffffffffffffffffffffffffffffffffffffff021916908373ffffffffffffffffffffffffffffffffffffffff16021790555073fd768e668a158c173e9549d1632902c2a436317860cc60006101000a81548173ffffffffffffffffffffffffffffffffffffffff021916908373ffffffffffffffffffffffffffffffffffffffff1602179055506119456000801b33612e65565b6119b96040518060400160405280600e81526020017f50617461676f6e696320547265650000000000000000000000000000000000008152506040518060400160405280600581526020017f5054524545000000000000000000000000000000000000000000000000000000815250612e73565b80156119da5760008060016101000a81548160ff0219169083151502179055505b50565b7f8b83cff217526f65affab658236a6c4f2d8020cd01ccd4c27987c26870279b14611a0f81611a0a6125e1565b6126a2565b6000670de0b6b3a764000060ce8581548110611a2e57611a2d61431a565b5b906000526020600020906007020160040154611a4a919061440a565b90508060cd60009054906101000a900473ffffffffffffffffffffffffffffffffffffffff1673ffffffffffffffffffffffffffffffffffffffff166370a08231856040518263ffffffff1660e01b8152600401611aa89190613b93565b602060405180830381865afa158015611ac5573d6000803e3d6000fd5b505050506040513d601f19601f82011682018060405250810190611ae99190614479565b1015611af457600080fd5b60cd60009054906101000a900473ffffffffffffffffffffffffffffffffffffffff1673ffffffffffffffffffffffffffffffffffffffff166323b872dd8460cc60009054906101000a900473ffffffffffffffffffffffffffffffffffffffff166064606086611b65919061440a565b611b6f91906144d5565b6040518463ffffffff1660e01b8152600401611b8d93929190614506565b6020604051808303816000875af1158015611bac573d6000803e3d6000fd5b505050506040513d601f19601f82011682018060405250810190611bd09190614552565b5060cd60009054906101000a900473ffffffffffffffffffffffffffffffffffffffff1673ffffffffffffffffffffffffffffffffffffffff166323b872dd8460cb60009054906101000a900473ffffffffffffffffffffffffffffffffffffffff166064600486611c42919061440a565b611c4c91906144d5565b6040518463ffffffff1660e01b8152600401611c6a93929190614506565b6020604051808303816000875af1158015611c89573d6000803e3d6000fd5b505050506040513d601f19601f82011682018060405250810190611cad9190614552565b5060ce8481548110611cc257611cc161431a565b5b90600052602060002090600702016004016000815480929190611ce49061457f565b91905055507f20c31955b530563483aba79e1a051106dcb9ee48b987bfa568ef479e011c1a6c846000604051611d1b929190614ab6565b60405180910390a150505050565b600060ce8281548110611d3f57611d3e61431a565b5b9060005260206000209060070201600101549050919050565b60006097600084815260200190815260200160002060000160008373ffffffffffffffffffffffffffffffffffffffff1673ffffffffffffffffffffffffffffffffffffffff16815260200190815260200160002060009054906101000a900460ff16905092915050565b606060668054611dd290614132565b80601f0160208091040260200160405190810160405280929190818152602001828054611dfe90614132565b8015611e4b5780601f10611e2057610100808354040283529160200191611e4b565b820191906000526020600020905b815481529060010190602001808311611e2e57829003601f168201915b5050505050905090565b6000670de0b6b3a7640000600160ce80549050611e72919061475a565b611e7c919061440a565b905090565b7f8b83cff217526f65affab658236a6c4f2d8020cd01ccd4c27987c26870279b14611eb381611eae6125e1565b6126a2565b6000670de0b6b3a764000060ce8581548110611ed257611ed161431a565b5b906000526020600020906007020160010154611eee919061440a565b90508060cd60009054906101000a900473ffffffffffffffffffffffffffffffffffffffff1673ffffffffffffffffffffffffffffffffffffffff166370a08231856040518263ffffffff1660e01b8152600401611f4c9190613b93565b602060405180830381865afa158015611f69573d6000803e3d6000fd5b505050506040513d601f19601f82011682018060405250810190611f8d9190614479565b1015611f9857600080fd5b60cd60009054906101000a900473ffffffffffffffffffffffffffffffffffffffff1673ffffffffffffffffffffffffffffffffffffffff166323b872dd8460cc60009054906101000a900473ffffffffffffffffffffffffffffffffffffffff166064606086612009919061440a565b61201391906144d5565b6040518463ffffffff1660e01b815260040161203193929190614506565b6020604051808303816000875af1158015612050573d6000803e3d6000fd5b505050506040513d601f19601f820116820180604052508101906120749190614552565b5060cd60009054906101000a900473ffffffffffffffffffffffffffffffffffffffff1673ffffffffffffffffffffffffffffffffffffffff166323b872dd8460cb60009054906101000a900473ffffffffffffffffffffffffffffffffffffffff1660646004866120e6919061440a565b6120f091906144d5565b6040518463ffffffff1660e01b815260040161210e93929190614506565b6020604051808303816000875af115801561212d573d6000803e3d6000fd5b505050506040513d601f19601f820116820180604052508101906121519190614552565b50606460ce85815481106121685761216761431a565b5b906000526020600020906007020160010154612184919061440a565b60ce85815481106121985761219761431a565b5b9060005260206000209060070201600201546121b49190614adf565b60ce85815481106121c8576121c761431a565b5b90600052602060002090600702016002018190555060ce84815481106121f1576121f061431a565b5b906000526020600020906007020160010160008154809291906122139061457f565b91905055507f7ef1df0b6d95a41d9ebcaa695746726b382e110036a9127b009babdb11c656a2846040516122479190613dd5565b60405180910390a150505050565b6000801b81565b61226e6122676125e1565b8383612ee0565b5050565b600060ce82815481106122885761228761431a565b5b9060005260206000209060070201600601549050919050565b60008060ce8054905090508091505090565b7f8b83cff217526f65affab658236a6c4f2d8020cd01ccd4c27987c26870279b1481565b6122e86122e26125e1565b83612957565b612327576040517f08c379a000000000000000000000000000000000000000000000000000000000815260040161231e906143bb565b60405180910390fd5b6123338484848461304d565b50505050565b600060ce828154811061234f5761234e61431a565b5b9060005260206000209060070201600501549050919050565b606061237382612575565b6123b2576040517f08c379a00000000000000000000000000000000000000000000000000000000081526004016123a990614b85565b60405180910390fd5b60006123bc6130a9565b905060008151116123dc5760405180602001604052806000815250612407565b806123e6846130c0565b6040516020016123f7929190614be1565b6040516020818303038152906040525b915050919050565b61241882610f80565b612429816124246125e1565b6126a2565b6124338383612d72565b505050565b600060ce828154811061244e5761244d61431a565b5b9060005260206000209060070201600001549050919050565b6000606a60008473ffffffffffffffffffffffffffffffffffffffff1673ffffffffffffffffffffffffffffffffffffffff16815260200190815260200160002060008373ffffffffffffffffffffffffffffffffffffffff1673ffffffffffffffffffffffffffffffffffffffff16815260200190815260200160002060009054906101000a900460ff16905092915050565b60007f7965db0b000000000000000000000000000000000000000000000000000000007bffffffffffffffffffffffffffffffffffffffffffffffffffffffff1916827bffffffffffffffffffffffffffffffffffffffffffffffffffffffff1916148061256e575061256d82613221565b5b9050919050565b60008073ffffffffffffffffffffffffffffffffffffffff166067600084815260200190815260200160002060009054906101000a900473ffffffffffffffffffffffffffffffffffffffff1673ffffffffffffffffffffffffffffffffffffffff1614159050919050565b600033905090565b816069600083815260200190815260200160002060006101000a81548173ffffffffffffffffffffffffffffffffffffffff021916908373ffffffffffffffffffffffffffffffffffffffff160217905550808273ffffffffffffffffffffffffffffffffffffffff1661265c836114fc565b73ffffffffffffffffffffffffffffffffffffffff167f8c5be1e5ebec7d5bd14f71427d1e84f3dd0314c0f7b2291e5b200ac8c7c3b92560405160405180910390a45050565b6126ac8282611d58565b61273b576126d18173ffffffffffffffffffffffffffffffffffffffff166014613303565b6126df8360001c6020613303565b6040516020016126f0929190614c9d565b6040516020818303038152906040526040517f08c379a00000000000000000000000000000000000000000000000000000000081526004016127329190613acd565b60405180910390fd5b5050565b60008061274a610cf3565b60405160200161275a9190614cf8565b6040516020818303038152906040528051906020012060001c905060ca54816127839190614d13565b91505090565b600073ffffffffffffffffffffffffffffffffffffffff168273ffffffffffffffffffffffffffffffffffffffff1614156127f9576040517f08c379a00000000000000000000000000000000000000000000000000000000081526004016127f090614d90565b60405180910390fd5b61280281612575565b15612842576040517f08c379a000000000000000000000000000000000000000000000000000000000815260040161283990614dfc565b60405180910390fd5b61284e6000838361353f565b6001606860008473ffffffffffffffffffffffffffffffffffffffff1673ffffffffffffffffffffffffffffffffffffffff168152602001908152602001600020600082825461289e919061475a565b92505081905550816067600083815260200190815260200160002060006101000a81548173ffffffffffffffffffffffffffffffffffffffff021916908373ffffffffffffffffffffffffffffffffffffffff160217905550808273ffffffffffffffffffffffffffffffffffffffff16600073ffffffffffffffffffffffffffffffffffffffff167fddf252ad1be2c89b69c2b068fc378daa952ba7f163c4a11628f55a4df523b3ef60405160405180910390a45050565b600061296282612575565b6129a1576040517f08c379a000000000000000000000000000000000000000000000000000000000815260040161299890614e8e565b60405180910390fd5b60006129ac836114fc565b90508073ffffffffffffffffffffffffffffffffffffffff168473ffffffffffffffffffffffffffffffffffffffff161480612a1b57508373ffffffffffffffffffffffffffffffffffffffff16612a0384610afc565b73ffffffffffffffffffffffffffffffffffffffff16145b80612a2c5750612a2b8185612467565b5b91505092915050565b8273ffffffffffffffffffffffffffffffffffffffff16612a55826114fc565b73ffffffffffffffffffffffffffffffffffffffff1614612aab576040517f08c379a0000000000000000000000000000000000000000000000000000000008152600401612aa290614f20565b60405180910390fd5b600073ffffffffffffffffffffffffffffffffffffffff168273ffffffffffffffffffffffffffffffffffffffff161415612b1b576040517f08c379a0000000000000000000000000000000000000000000000000000000008152600401612b1290614fb2565b60405180910390fd5b612b2683838361353f565b612b316000826125e9565b6001606860008573ffffffffffffffffffffffffffffffffffffffff1673ffffffffffffffffffffffffffffffffffffffff1681526020019081526020016000206000828254612b819190614adf565b925050819055506001606860008473ffffffffffffffffffffffffffffffffffffffff1673ffffffffffffffffffffffffffffffffffffffff1681526020019081526020016000206000828254612bd8919061475a565b92505081905550816067600083815260200190815260200160002060006101000a81548173ffffffffffffffffffffffffffffffffffffffff021916908373ffffffffffffffffffffffffffffffffffffffff160217905550808273ffffffffffffffffffffffffffffffffffffffff168473ffffffffffffffffffffffffffffffffffffffff167fddf252ad1be2c89b69c2b068fc378daa952ba7f163c4a11628f55a4df523b3ef60405160405180910390a4505050565b612c9b8282611d58565b612d6e5760016097600084815260200190815260200160002060000160008373ffffffffffffffffffffffffffffffffffffffff1673ffffffffffffffffffffffffffffffffffffffff16815260200190815260200160002060006101000a81548160ff021916908315150217905550612d136125e1565b73ffffffffffffffffffffffffffffffffffffffff168173ffffffffffffffffffffffffffffffffffffffff16837f2f8788117e7eff1d82e926ec794901d17c78024a50270940304540a733656f0d60405160405180910390a45b5050565b612d7c8282611d58565b15612e505760006097600084815260200190815260200160002060000160008373ffffffffffffffffffffffffffffffffffffffff1673ffffffffffffffffffffffffffffffffffffffff16815260200190815260200160002060006101000a81548160ff021916908315150217905550612df56125e1565b73ffffffffffffffffffffffffffffffffffffffff168173ffffffffffffffffffffffffffffffffffffffff16837ff6391f5c32d9c69d2a47ea670b442974b53935d1edc7fd64eb21e047a839171b60405160405180910390a45b5050565b6000612e5f30613544565b15905090565b612e6f8282612c91565b5050565b600060019054906101000a900460ff16612ec2576040517f08c379a0000000000000000000000000000000000000000000000000000000008152600401612eb990615044565b60405180910390fd5b612eca613557565b612ed26135a8565b612edc82826135f9565b5050565b8173ffffffffffffffffffffffffffffffffffffffff168373ffffffffffffffffffffffffffffffffffffffff161415612f4f576040517f08c379a0000000000000000000000000000000000000000000000000000000008152600401612f46906150b0565b60405180910390fd5b80606a60008573ffffffffffffffffffffffffffffffffffffffff1673ffffffffffffffffffffffffffffffffffffffff16815260200190815260200160002060008473ffffffffffffffffffffffffffffffffffffffff1673ffffffffffffffffffffffffffffffffffffffff16815260200190815260200160002060006101000a81548160ff0219169083151502179055508173ffffffffffffffffffffffffffffffffffffffff168373ffffffffffffffffffffffffffffffffffffffff167f17307eab39ab6107e8899845ad3d59bd9653f200f220920489ca2b5937696c31836040516130409190613a19565b60405180910390a3505050565b613058848484612a35565b6130648484848461367a565b6130a3576040517f08c379a000000000000000000000000000000000000000000000000000000000815260040161309a90615142565b60405180910390fd5b50505050565b606060405180602001604052806000815250905090565b60606000821415613108576040518060400160405280600181526020017f3000000000000000000000000000000000000000000000000000000000000000815250905061321c565b600082905060005b6000821461313a5780806131239061457f565b915050600a8261313391906144d5565b9150613110565b60008167ffffffffffffffff81111561315657613155613f15565b5b6040519080825280601f01601f1916602001820160405280156131885781602001600182028036833780820191505090505b5090505b60008514613215576001826131a19190614adf565b9150600a856131b09190614d13565b60306131bc919061475a565b60f81b8183815181106131d2576131d161431a565b5b60200101907effffffffffffffffffffffffffffffffffffffffffffffffffffffffffffff1916908160001a905350600a8561320e91906144d5565b945061318c565b8093505050505b919050565b60007f80ac58cd000000000000000000000000000000000000000000000000000000007bffffffffffffffffffffffffffffffffffffffffffffffffffffffff1916827bffffffffffffffffffffffffffffffffffffffffffffffffffffffff191614806132ec57507f5b5e139f000000000000000000000000000000000000000000000000000000007bffffffffffffffffffffffffffffffffffffffffffffffffffffffff1916827bffffffffffffffffffffffffffffffffffffffffffffffffffffffff1916145b806132fc57506132fb82613802565b5b9050919050565b606060006002836002613316919061440a565b613320919061475a565b67ffffffffffffffff81111561333957613338613f15565b5b6040519080825280601f01601f19166020018201604052801561336b5781602001600182028036833780820191505090505b5090507f3000000000000000000000000000000000000000000000000000000000000000816000815181106133a3576133a261431a565b5b60200101907effffffffffffffffffffffffffffffffffffffffffffffffffffffffffffff1916908160001a9053507f7800000000000000000000000000000000000000000000000000000000000000816001815181106134075761340661431a565b5b60200101907effffffffffffffffffffffffffffffffffffffffffffffffffffffffffffff1916908160001a90535060006001846002613447919061440a565b613451919061475a565b90505b60018111156134f1577f3031323334353637383961626364656600000000000000000000000000000000600f8616601081106134935761349261431a565b5b1a60f81b8282815181106134aa576134a961431a565b5b60200101907effffffffffffffffffffffffffffffffffffffffffffffffffffffffffffff1916908160001a905350600485901c9450806134ea90615162565b9050613454565b5060008414613535576040517f08c379a000000000000000000000000000000000000000000000000000000000815260040161352c906151d8565b60405180910390fd5b8091505092915050565b505050565b600080823b905060008111915050919050565b600060019054906101000a900460ff166135a6576040517f08c379a000000000000000000000000000000000000000000000000000000000815260040161359d90615044565b60405180910390fd5b565b600060019054906101000a900460ff166135f7576040517f08c379a00000000000000000000000000000000000000000000000000000000081526004016135ee90615044565b60405180910390fd5b565b600060019054906101000a900460ff16613648576040517f08c379a000000000000000000000000000000000000000000000000000000000815260040161363f90615044565b60405180910390fd5b816065908051906020019061365e92919061388e565b50806066908051906020019061367592919061388e565b505050565b600061369b8473ffffffffffffffffffffffffffffffffffffffff16613544565b156137f5578373ffffffffffffffffffffffffffffffffffffffff1663150b7a026136c46125e1565b8786866040518563ffffffff1660e01b81526004016136e6949392919061524d565b6020604051808303816000875af192505050801561372257506040513d601f19601f8201168201806040525081019061371f91906152ae565b60015b6137a5573d8060008114613752576040519150601f19603f3d011682016040523d82523d6000602084013e613757565b606091505b5060008151141561379d576040517f08c379a000000000000000000000000000000000000000000000000000000000815260040161379490615142565b60405180910390fd5b805181602001fd5b63150b7a0260e01b7bffffffffffffffffffffffffffffffffffffffffffffffffffffffff1916817bffffffffffffffffffffffffffffffffffffffffffffffffffffffff1916149150506137fa565b600190505b949350505050565b60007f01ffc9a7000000000000000000000000000000000000000000000000000000007bffffffffffffffffffffffffffffffffffffffffffffffffffffffff1916827bffffffffffffffffffffffffffffffffffffffffffffffffffffffff1916149050919050565b6040518060200160405280600190602082028036833780820191505090505090565b82805461389a90614132565b90600052602060002090601f0160209004810192826138bc5760008555613903565b82601f106138d557805160ff1916838001178555613903565b82800160010185558215613903579182015b828111156139025782518255916020019190600101906138e7565b5b5090506139109190613914565b5090565b5b8082111561392d576000816000905550600101613915565b5090565b6000819050919050565b61394481613931565b82525050565b600060208201905061395f600083018461393b565b92915050565b6000604051905090565b600080fd5b600080fd5b60007fffffffff0000000000000000000000000000000000000000000000000000000082169050919050565b6139ae81613979565b81146139b957600080fd5b50565b6000813590506139cb816139a5565b92915050565b6000602082840312156139e7576139e661396f565b5b60006139f5848285016139bc565b91505092915050565b60008115159050919050565b613a13816139fe565b82525050565b6000602082019050613a2e6000830184613a0a565b92915050565b600081519050919050565b600082825260208201905092915050565b60005b83811015613a6e578082015181840152602081019050613a53565b83811115613a7d576000848401525b50505050565b6000601f19601f8301169050919050565b6000613a9f82613a34565b613aa98185613a3f565b9350613ab9818560208601613a50565b613ac281613a83565b840191505092915050565b60006020820190508181036000830152613ae78184613a94565b905092915050565b6000819050919050565b613b0281613aef565b8114613b0d57600080fd5b50565b600081359050613b1f81613af9565b92915050565b600060208284031215613b3b57613b3a61396f565b5b6000613b4984828501613b10565b91505092915050565b600073ffffffffffffffffffffffffffffffffffffffff82169050919050565b6000613b7d82613b52565b9050919050565b613b8d81613b72565b82525050565b6000602082019050613ba86000830184613b84565b92915050565b613bb781613b72565b8114613bc257600080fd5b50565b600081359050613bd481613bae565b92915050565b60008060408385031215613bf157613bf061396f565b5b6000613bff85828601613bc5565b9250506020613c1085828601613b10565b9150509250929050565b600060208284031215613c3057613c2f61396f565b5b6000613c3e84828501613bc5565b91505092915050565b600080600060608486031215613c6057613c5f61396f565b5b6000613c6e86828701613bc5565b9350506020613c7f86828701613bc5565b9250506040613c9086828701613b10565b9150509250925092565b613ca381613931565b8114613cae57600080fd5b50565b600081359050613cc081613c9a565b92915050565b600060208284031215613cdc57613cdb61396f565b5b6000613cea84828501613cb1565b91505092915050565b600080600060608486031215613d0c57613d0b61396f565b5b6000613d1a86828701613b10565b9350506020613d2b86828701613b10565b9250506040613d3c86828701613b10565b9150509250925092565b60008060408385031215613d5d57613d5c61396f565b5b6000613d6b85828601613b10565b9250506020613d7c85828601613bc5565b9150509250929050565b60008060408385031215613d9d57613d9c61396f565b5b6000613dab85828601613cb1565b9250506020613dbc85828601613bc5565b9150509250929050565b613dcf81613aef565b82525050565b6000602082019050613dea6000830184613dc6565b92915050565b60008060408385031215613e0757613e0661396f565b5b6000613e1585828601613b10565b9250506020613e2685828601613b10565b9150509250929050565b600060e082019050613e45600083018a613dc6565b613e526020830189613dc6565b613e5f6040830188613dc6565b613e6c6060830187613dc6565b613e796080830186613dc6565b613e8660a0830185613dc6565b613e9360c0830184613dc6565b98975050505050505050565b613ea8816139fe565b8114613eb357600080fd5b50565b600081359050613ec581613e9f565b92915050565b60008060408385031215613ee257613ee161396f565b5b6000613ef085828601613bc5565b9250506020613f0185828601613eb6565b9150509250929050565b600080fd5b600080fd5b7f4e487b7100000000000000000000000000000000000000000000000000000000600052604160045260246000fd5b613f4d82613a83565b810181811067ffffffffffffffff82111715613f6c57613f6b613f15565b5b80604052505050565b6000613f7f613965565b9050613f8b8282613f44565b919050565b600067ffffffffffffffff821115613fab57613faa613f15565b5b613fb482613a83565b9050602081019050919050565b82818337600083830152505050565b6000613fe3613fde84613f90565b613f75565b905082815260208101848484011115613fff57613ffe613f10565b5b61400a848285613fc1565b509392505050565b600082601f83011261402757614026613f0b565b5b8135614037848260208601613fd0565b91505092915050565b6000806000806080858703121561405a5761405961396f565b5b600061406887828801613bc5565b945050602061407987828801613bc5565b935050604061408a87828801613b10565b925050606085013567ffffffffffffffff8111156140ab576140aa613974565b5b6140b787828801614012565b91505092959194509250565b600080604083850312156140da576140d961396f565b5b60006140e885828601613bc5565b92505060206140f985828601613bc5565b9150509250929050565b7f4e487b7100000000000000000000000000000000000000000000000000000000600052602260045260246000fd5b6000600282049050600182168061414a57607f821691505b6020821081141561415e5761415d614103565b5b50919050565b7f4552433732313a20617070726f76656420717565727920666f72206e6f6e657860008201527f697374656e7420746f6b656e0000000000000000000000000000000000000000602082015250565b60006141c0602c83613a3f565b91506141cb82614164565b604082019050919050565b600060208201905081810360008301526141ef816141b3565b9050919050565b7f4552433732313a20617070726f76616c20746f2063757272656e74206f776e6560008201527f7200000000000000000000000000000000000000000000000000000000000000602082015250565b6000614252602183613a3f565b915061425d826141f6565b604082019050919050565b6000602082019050818103600083015261428181614245565b9050919050565b7f4552433732313a20617070726f76652063616c6c6572206973206e6f74206f7760008201527f6e6572206e6f7220617070726f76656420666f7220616c6c0000000000000000602082015250565b60006142e4603883613a3f565b91506142ef82614288565b604082019050919050565b60006020820190508181036000830152614313816142d7565b9050919050565b7f4e487b7100000000000000000000000000000000000000000000000000000000600052603260045260246000fd5b7f4552433732313a207472616e736665722063616c6c6572206973206e6f74206f60008201527f776e6572206e6f7220617070726f766564000000000000000000000000000000602082015250565b60006143a5603183613a3f565b91506143b082614349565b604082019050919050565b600060208201905081810360008301526143d481614398565b9050919050565b7f4e487b7100000000000000000000000000000000000000000000000000000000600052601160045260246000fd5b600061441582613aef565b915061442083613aef565b9250817fffffffffffffffffffffffffffffffffffffffffffffffffffffffffffffffff0483118215151615614459576144586143db565b5b828202905092915050565b60008151905061447381613af9565b92915050565b60006020828403121561448f5761448e61396f565b5b600061449d84828501614464565b91505092915050565b7f4e487b7100000000000000000000000000000000000000000000000000000000600052601260045260246000fd5b60006144e082613aef565b91506144eb83613aef565b9250826144fb576144fa6144a6565b5b828204905092915050565b600060608201905061451b6000830186613b84565b6145286020830185613b84565b6145356040830184613dc6565b949350505050565b60008151905061454c81613e9f565b92915050565b6000602082840312156145685761456761396f565b5b60006145768482850161453d565b91505092915050565b600061458a82613aef565b91507fffffffffffffffffffffffffffffffffffffffffffffffffffffffffffffffff8214156145bd576145bc6143db565b5b600182019050919050565b6000819050919050565b6000819050919050565b60006145f76145f26145ed846145c8565b6145d2565b613aef565b9050919050565b614607816145dc565b82525050565b60006040820190506146226000830185613dc6565b61462f60208301846145fe565b9392505050565b7f416363657373436f6e74726f6c3a2063616e206f6e6c792072656e6f756e636560008201527f20726f6c657320666f722073656c660000000000000000000000000000000000602082015250565b6000614692602f83613a3f565b915061469d82614636565b604082019050919050565b600060208201905081810360008301526146c181614685565b9050919050565b7f4552433732313a206f776e657220717565727920666f72206e6f6e657869737460008201527f656e7420746f6b656e0000000000000000000000000000000000000000000000602082015250565b6000614724602983613a3f565b915061472f826146c8565b604082019050919050565b6000602082019050818103600083015261475381614717565b9050919050565b600061476582613aef565b915061477083613aef565b9250827fffffffffffffffffffffffffffffffffffffffffffffffffffffffffffffffff038211156147a5576147a46143db565b5b828201905092915050565b60006040820190506147c56000830185613dc6565b6147d26020830184613dc6565b9392505050565b7f4552433732313a2062616c616e636520717565727920666f7220746865207a6560008201527f726f206164647265737300000000000000000000000000000000000000000000602082015250565b6000614835602a83613a3f565b9150614840826147d9565b604082019050919050565b6000602082019050818103600083015261486481614828565b9050919050565b7f496e697469616c697a61626c653a20636f6e747261637420697320616c72656160008201527f647920696e697469616c697a6564000000000000000000000000000000000000602082015250565b60006148c7602e83613a3f565b91506148d28261486b565b604082019050919050565b600060208201905081810360008301526148f6816148ba565b9050919050565b60008160011c9050919050565b6000808291508390505b6001851115614954578086048111156149305761492f6143db565b5b600185161561493f5780820291505b808102905061494d856148fd565b9450614914565b94509492505050565b60008261496d5760019050614a29565b8161497b5760009050614a29565b8160018114614991576002811461499b576149ca565b6001915050614a29565b60ff8411156149ad576149ac6143db565b5b8360020a9150848211156149c4576149c36143db565b5b50614a29565b5060208310610133831016604e8410600b84101617156149ff5782820a9050838111156149fa576149f96143db565b5b614a29565b614a0c848484600161490a565b92509050818404811115614a2357614a226143db565b5b81810290505b9392505050565b6000614a3b82613aef565b9150614a4683613aef565b9250614a737fffffffffffffffffffffffffffffffffffffffffffffffffffffffffffffffff848461495d565b905092915050565b6000819050919050565b6000614aa0614a9b614a9684614a7b565b6145d2565b613aef565b9050919050565b614ab081614a85565b82525050565b6000604082019050614acb6000830185613dc6565b614ad86020830184614aa7565b9392505050565b6000614aea82613aef565b9150614af583613aef565b925082821015614b0857614b076143db565b5b828203905092915050565b7f4552433732314d657461646174613a2055524920717565727920666f72206e6f60008201527f6e6578697374656e7420746f6b656e0000000000000000000000000000000000602082015250565b6000614b6f602f83613a3f565b9150614b7a82614b13565b604082019050919050565b60006020820190508181036000830152614b9e81614b62565b9050919050565b600081905092915050565b6000614bbb82613a34565b614bc58185614ba5565b9350614bd5818560208601613a50565b80840191505092915050565b6000614bed8285614bb0565b9150614bf98284614bb0565b91508190509392505050565b7f416363657373436f6e74726f6c3a206163636f756e7420000000000000000000600082015250565b6000614c3b601783614ba5565b9150614c4682614c05565b601782019050919050565b7f206973206d697373696e6720726f6c6520000000000000000000000000000000600082015250565b6000614c87601183614ba5565b9150614c9282614c51565b601182019050919050565b6000614ca882614c2e565b9150614cb48285614bb0565b9150614cbf82614c7a565b9150614ccb8284614bb0565b91508190509392505050565b6000819050919050565b614cf2614ced82613931565b614cd7565b82525050565b6000614d048284614ce1565b60208201915081905092915050565b6000614d1e82613aef565b9150614d2983613aef565b925082614d3957614d386144a6565b5b828206905092915050565b7f4552433732313a206d696e7420746f20746865207a65726f2061646472657373600082015250565b6000614d7a602083613a3f565b9150614d8582614d44565b602082019050919050565b60006020820190508181036000830152614da981614d6d565b9050919050565b7f4552433732313a20746f6b656e20616c7265616479206d696e74656400000000600082015250565b6000614de6601c83613a3f565b9150614df182614db0565b602082019050919050565b60006020820190508181036000830152614e1581614dd9565b9050919050565b7f4552433732313a206f70657261746f7220717565727920666f72206e6f6e657860008201527f697374656e7420746f6b656e0000000000000000000000000000000000000000602082015250565b6000614e78602c83613a3f565b9150614e8382614e1c565b604082019050919050565b60006020820190508181036000830152614ea781614e6b565b9050919050565b7f4552433732313a207472616e73666572206f6620746f6b656e2074686174206960008201527f73206e6f74206f776e0000000000000000000000000000000000000000000000602082015250565b6000614f0a602983613a3f565b9150614f1582614eae565b604082019050919050565b60006020820190508181036000830152614f3981614efd565b9050919050565b7f4552433732313a207472616e7366657220746f20746865207a65726f2061646460008201527f7265737300000000000000000000000000000000000000000000000000000000602082015250565b6000614f9c602483613a3f565b9150614fa782614f40565b604082019050919050565b60006020820190508181036000830152614fcb81614f8f565b9050919050565b7f496e697469616c697a61626c653a20636f6e7472616374206973206e6f74206960008201527f6e697469616c697a696e67000000000000000000000000000000000000000000602082015250565b600061502e602b83613a3f565b915061503982614fd2565b604082019050919050565b6000602082019050818103600083015261505d81615021565b9050919050565b7f4552433732313a20617070726f766520746f2063616c6c657200000000000000600082015250565b600061509a601983613a3f565b91506150a582615064565b602082019050919050565b600060208201905081810360008301526150c98161508d565b9050919050565b7f4552433732313a207472616e7366657220746f206e6f6e20455243373231526560008201527f63656976657220696d706c656d656e7465720000000000000000000000000000602082015250565b600061512c603283613a3f565b9150615137826150d0565b604082019050919050565b6000602082019050818103600083015261515b8161511f565b9050919050565b600061516d82613aef565b91506000821415615181576151806143db565b5b600182039050919050565b7f537472696e67733a20686578206c656e67746820696e73756666696369656e74600082015250565b60006151c2602083613a3f565b91506151cd8261518c565b602082019050919050565b600060208201905081810360008301526151f1816151b5565b9050919050565b600081519050919050565b600082825260208201905092915050565b600061521f826151f8565b6152298185615203565b9350615239818560208601613a50565b61524281613a83565b840191505092915050565b60006080820190506152626000830187613b84565b61526f6020830186613b84565b61527c6040830185613dc6565b818103606083015261528e8184615214565b905095945050505050565b6000815190506152a8816139a5565b92915050565b6000602082840312156152c4576152c361396f565b5b60006152d284828501615299565b9150509291505056fea264697066735822122065d04ca10ad49d7d716af6e3481342997bae19e8c2c05ba402af814ab676bd7664736f6c634300080b0033",
  "immutableReferences": {},
  "source": "// SPDX-License-Identifier: UNLICENSED\r\n\r\npragma solidity ^0.8.3;\r\n\r\nimport \"./AbstractGameItems.sol\";\r\nimport \"../node_modules/@openzeppelin/contracts-upgradeable/access/AccessControlUpgradeable.sol\";\r\nimport \"../node_modules/@openzeppelin/contracts-upgradeable/token/ERC721/ERC721Upgradeable.sol\";\r\nimport \"../node_modules/@openzeppelin/contracts/token/ERC20/IERC20.sol\";\r\nimport \"../node_modules/@openzeppelin/contracts/token/ERC1155/IERC1155.sol\";\r\n\r\ncontract Tree is ERC721Upgradeable, AccessControlUpgradeable {\r\n\r\n    bytes32 public constant QUEST_ROLE = keccak256(\"QUEST_ROLE\");\r\n    bytes32 public constant UPG_ROLE = keccak256(\"UPG_ROLE\");\r\n\r\n    event NewTree(uint treeId);\r\n    event GainExp(uint treeId, uint amount);\r\n    event GainLevel(uint treeId);\r\n    event StatLevelUp (uint treeId, uint statId);\r\n\r\n    uint Digits;\r\n    uint Modulus;\r\n\r\n    address DevelopmentAddress;\r\n    address TreasuryAddress;\r\n    address TokenAddress;\r\n\r\n    struct TreeStruct {\r\n        uint treeDNA;\r\n        uint level;\r\n        uint exp;\r\n        uint roots;\r\n        uint branches;\r\n        uint action;\r\n        uint onActionUntil;\r\n    }\r\n\r\n    TreeStruct[] public trees;\r\n\r\n    //Modifiers\r\n\r\n    function supportsInterface(bytes4 interfaceId) public view virtual override(ERC721Upgradeable, AccessControlUpgradeable) returns (bool) {\r\n        return super.supportsInterface(interfaceId);\r\n    }\r\n\r\n    function initialize() initializer public {\r\n        Digits = 16;\r\n        Modulus = 10 ** Digits;\r\n\r\n        DevelopmentAddress = 0xfd768E668A158C173e9549d1632902C2A4363178;\r\n        TreasuryAddress = 0xfd768E668A158C173e9549d1632902C2A4363178;\r\n        _setupRole(DEFAULT_ADMIN_ROLE, msg.sender);\r\n        __ERC721_init(\"Patagonic Tree\", \"PTREE\");\r\n    }\r\n\r\n    //Util Functions\r\n\r\n    function vrf() public view returns (bytes32 result) {\r\n        uint[1] memory bn;\r\n        bn[0] = block.number;\r\n        assembly {\r\n            let memPtr := mload(0x40)\r\n            if iszero(staticcall(not(0), 0xff, bn, 0x20, memPtr, 0x20)) {\r\n                invalid()\r\n            }\r\n            result := mload(memPtr)\r\n        }\r\n    }\r\n\r\n    //View Functions\r\n\r\n    function treeDNA(uint treeId) public view returns (uint) {\r\n        return trees[treeId].treeDNA;\r\n    }\r\n\r\n    function treeLevel(uint treeId) public view returns (uint) {\r\n        return trees[treeId].level;\r\n    }\r\n\r\n    function treeExp(uint treeId) public view returns (uint) {\r\n        return trees[treeId].exp;\r\n    }\r\n\r\n    function treeRoots(uint treeId) public view returns (uint) {\r\n        return trees[treeId].roots;\r\n    }\r\n\r\n    function treeBranches(uint treeId) public view returns (uint) {\r\n        return trees[treeId].branches;\r\n    }\r\n\r\n    function actionStatus(uint treeId) public view returns (uint) {\r\n        return trees[treeId].onActionUntil;\r\n    }\r\n\r\n    function currentAction(uint treeId) public view returns (uint) {\r\n        return trees[treeId].action;\r\n    }\r\n\r\n    function currentPrice() public view returns (uint) {\r\n        return (trees.length+1)*10**18;\r\n    }\r\n\r\n    function _generateRandomDNA() internal view returns (uint) {\r\n        uint rand = uint(keccak256(abi.encodePacked(vrf())));\r\n        return rand % Modulus;\r\n    }\r\n\r\n    function treesQuantity() public view returns (uint) {\r\n        uint quantity = trees.length;\r\n        return quantity;\r\n    }\r\n\r\n    //Public Functions\r\n\r\n    function gainLevel(uint treeId, address user) public onlyRole(UPG_ROLE) {\r\n        uint amount = trees[treeId].level*10**18;\r\n        require(IERC20(TokenAddress).balanceOf(user)>= amount);\r\n        IERC20(TokenAddress).transferFrom(user, TreasuryAddress, amount*96/100);\r\n        IERC20(TokenAddress).transferFrom(user, DevelopmentAddress, amount*4/100);\r\n        trees[treeId].exp = trees[treeId].exp-trees[treeId].level*100;\r\n        trees[treeId].level++;\r\n        emit GainLevel(treeId);\r\n    }\r\n\r\n    function gainExp(uint treeId, uint amount) public onlyRole(QUEST_ROLE) {\r\n        trees[treeId].exp = trees[treeId].exp + amount;\r\n        emit GainExp(treeId, amount);\r\n    }\r\n\r\n    function levelUpBranches(uint treeId, address user) public onlyRole(UPG_ROLE) {\r\n        uint amount = trees[treeId].branches*10**18;\r\n        require(IERC20(TokenAddress).balanceOf(user)>= amount);\r\n        IERC20(TokenAddress).transferFrom(user, TreasuryAddress, amount*96/100);\r\n        IERC20(TokenAddress).transferFrom(user, DevelopmentAddress, amount*4/100);\r\n        trees[treeId].branches++;\r\n        emit StatLevelUp (treeId, 0);\r\n    }\r\n    function levelUpRoots(uint treeId, address user) public onlyRole(UPG_ROLE) {\r\n        uint amount = trees[treeId].roots*10**18;\r\n        require(IERC20(TokenAddress).balanceOf(user)>= amount);\r\n        IERC20(TokenAddress).transferFrom(user, TreasuryAddress, amount*96/100);\r\n        IERC20(TokenAddress).transferFrom(user, DevelopmentAddress, amount*4/100);\r\n        trees[treeId].roots++;\r\n        emit StatLevelUp (treeId, 1);\r\n    }\r\n\r\n    function updateAction(uint treeId, uint action, uint time) public onlyRole(QUEST_ROLE) {\r\n        trees[treeId].onActionUntil = time;\r\n        trees[treeId].action = action;\r\n    }\r\n\r\n    //Payable Functions\r\n\r\n    function createNewTree() public payable {\r\n        require(msg.sender != address(0) && msg.sender != address(this));\r\n        require(msg.value >= currentPrice());\r\n        uint id = trees.length;\r\n        uint DNA = _generateRandomDNA();\r\n        trees.push(TreeStruct(DNA, 1, 0, 1, 1, 0, 0));\r\n        _mint(msg.sender, id);\r\n        emit NewTree(id);\r\n\r\n    }\r\n\r\n    //Transfer Functions\r\n\r\n    function transferDevelopmentAddress(address newDevelopment) public onlyRole(DEFAULT_ADMIN_ROLE) {\r\n        DevelopmentAddress = newDevelopment;\r\n    }\r\n\r\n    function transferTreasuryAddress(address newTreasury) public onlyRole(DEFAULT_ADMIN_ROLE) {\r\n        TreasuryAddress = newTreasury;\r\n    }\r\n\r\n    function transferTokenAddress(address newToken) public onlyRole(DEFAULT_ADMIN_ROLE) {\r\n        TokenAddress = newToken;\r\n    }\r\n\r\n}",
  "sourcePath": "C:\\Users\\jtsch\\OneDrive\\Escritorio\\Python\\SmartContracts-NFT-Agus\\contracts\\Tree.sol",
  "compiler": {
    "name": "solc",
    "version": "0.8.11+commit.d7f03943.Emscripten.clang"
  },
  "schemaVersion": "3.4.3",
  "updatedAt": "2022-02-10T16:55:03.725Z",
  "networkType": "ethereum",
  "devdoc": {
    "kind": "dev",
    "methods": {
      "approve(address,uint256)": {
        "details": "See {IERC721-approve}."
      },
      "balanceOf(address)": {
        "details": "See {IERC721-balanceOf}."
      },
      "getApproved(uint256)": {
        "details": "See {IERC721-getApproved}."
      },
      "getRoleAdmin(bytes32)": {
        "details": "Returns the admin role that controls `role`. See {grantRole} and {revokeRole}. To change a role's admin, use {_setRoleAdmin}."
      },
      "grantRole(bytes32,address)": {
        "details": "Grants `role` to `account`. If `account` had not been already granted `role`, emits a {RoleGranted} event. Requirements: - the caller must have ``role``'s admin role."
      },
      "hasRole(bytes32,address)": {
        "details": "Returns `true` if `account` has been granted `role`."
      },
      "isApprovedForAll(address,address)": {
        "details": "See {IERC721-isApprovedForAll}."
      },
      "name()": {
        "details": "See {IERC721Metadata-name}."
      },
      "ownerOf(uint256)": {
        "details": "See {IERC721-ownerOf}."
      },
      "renounceRole(bytes32,address)": {
        "details": "Revokes `role` from the calling account. Roles are often managed via {grantRole} and {revokeRole}: this function's purpose is to provide a mechanism for accounts to lose their privileges if they are compromised (such as when a trusted device is misplaced). If the calling account had been revoked `role`, emits a {RoleRevoked} event. Requirements: - the caller must be `account`."
      },
      "revokeRole(bytes32,address)": {
        "details": "Revokes `role` from `account`. If `account` had been granted `role`, emits a {RoleRevoked} event. Requirements: - the caller must have ``role``'s admin role."
      },
      "safeTransferFrom(address,address,uint256)": {
        "details": "See {IERC721-safeTransferFrom}."
      },
      "safeTransferFrom(address,address,uint256,bytes)": {
        "details": "See {IERC721-safeTransferFrom}."
      },
      "setApprovalForAll(address,bool)": {
        "details": "See {IERC721-setApprovalForAll}."
      },
      "symbol()": {
        "details": "See {IERC721Metadata-symbol}."
      },
      "tokenURI(uint256)": {
        "details": "See {IERC721Metadata-tokenURI}."
      },
      "transferFrom(address,address,uint256)": {
        "details": "See {IERC721-transferFrom}."
      }
    },
    "version": 1
  },
  "userdoc": {
    "kind": "user",
    "methods": {},
    "version": 1
  }
}