{
  "contractName": "Tree",
  "abi": [
    {
      "inputs": [],
      "stateMutability": "nonpayable",
      "type": "constructor"
    },
    {
      "anonymous": false,
      "inputs": [
        {
          "indexed": true,
          "internalType": "address",
          "name": "owner",
          "type": "address"
        },
        {
          "indexed": true,
          "internalType": "address",
          "name": "approved",
          "type": "address"
        },
        {
          "indexed": true,
          "internalType": "uint256",
          "name": "tokenId",
          "type": "uint256"
        }
      ],
      "name": "Approval",
      "type": "event"
    },
    {
      "anonymous": false,
      "inputs": [
        {
          "indexed": true,
          "internalType": "address",
          "name": "owner",
          "type": "address"
        },
        {
          "indexed": true,
          "internalType": "address",
          "name": "operator",
          "type": "address"
        },
        {
          "indexed": false,
          "internalType": "bool",
          "name": "approved",
          "type": "bool"
        }
      ],
      "name": "ApprovalForAll",
      "type": "event"
    },
    {
      "anonymous": false,
      "inputs": [
        {
          "indexed": false,
          "internalType": "uint256",
          "name": "treeId",
          "type": "uint256"
        },
        {
          "indexed": false,
          "internalType": "uint256",
          "name": "amount",
          "type": "uint256"
        }
      ],
      "name": "GainExp",
      "type": "event"
    },
    {
      "anonymous": false,
      "inputs": [
        {
          "indexed": false,
          "internalType": "uint256",
          "name": "treeId",
          "type": "uint256"
        }
      ],
      "name": "GainLevel",
      "type": "event"
    },
    {
      "anonymous": false,
      "inputs": [
        {
          "indexed": false,
          "internalType": "uint256",
          "name": "treeId",
          "type": "uint256"
        }
      ],
      "name": "NewTree",
      "type": "event"
    },
    {
      "anonymous": false,
      "inputs": [
        {
          "indexed": true,
          "internalType": "address",
          "name": "from",
          "type": "address"
        },
        {
          "indexed": true,
          "internalType": "address",
          "name": "to",
          "type": "address"
        },
        {
          "indexed": true,
          "internalType": "uint256",
          "name": "tokenId",
          "type": "uint256"
        }
      ],
      "name": "Transfer",
      "type": "event"
    },
    {
      "inputs": [
        {
          "internalType": "address",
          "name": "to",
          "type": "address"
        },
        {
          "internalType": "uint256",
          "name": "tokenId",
          "type": "uint256"
        }
      ],
      "name": "approve",
      "outputs": [],
      "stateMutability": "nonpayable",
      "type": "function"
    },
    {
      "inputs": [
        {
          "internalType": "address",
          "name": "owner",
          "type": "address"
        }
      ],
      "name": "balanceOf",
      "outputs": [
        {
          "internalType": "uint256",
          "name": "",
          "type": "uint256"
        }
      ],
      "stateMutability": "view",
      "type": "function",
      "constant": true
    },
    {
      "inputs": [
        {
          "internalType": "uint256",
          "name": "tokenId",
          "type": "uint256"
        }
      ],
      "name": "getApproved",
      "outputs": [
        {
          "internalType": "address",
          "name": "",
          "type": "address"
        }
      ],
      "stateMutability": "view",
      "type": "function",
      "constant": true
    },
    {
      "inputs": [
        {
          "internalType": "address",
          "name": "owner",
          "type": "address"
        },
        {
          "internalType": "address",
          "name": "operator",
          "type": "address"
        }
      ],
      "name": "isApprovedForAll",
      "outputs": [
        {
          "internalType": "bool",
          "name": "",
          "type": "bool"
        }
      ],
      "stateMutability": "view",
      "type": "function",
      "constant": true
    },
    {
      "inputs": [],
      "name": "name",
      "outputs": [
        {
          "internalType": "string",
          "name": "",
          "type": "string"
        }
      ],
      "stateMutability": "view",
      "type": "function",
      "constant": true
    },
    {
      "inputs": [
        {
          "internalType": "uint256",
          "name": "tokenId",
          "type": "uint256"
        }
      ],
      "name": "ownerOf",
      "outputs": [
        {
          "internalType": "address",
          "name": "",
          "type": "address"
        }
      ],
      "stateMutability": "view",
      "type": "function",
      "constant": true
    },
    {
      "inputs": [
        {
          "internalType": "address",
          "name": "from",
          "type": "address"
        },
        {
          "internalType": "address",
          "name": "to",
          "type": "address"
        },
        {
          "internalType": "uint256",
          "name": "tokenId",
          "type": "uint256"
        }
      ],
      "name": "safeTransferFrom",
      "outputs": [],
      "stateMutability": "nonpayable",
      "type": "function"
    },
    {
      "inputs": [
        {
          "internalType": "address",
          "name": "from",
          "type": "address"
        },
        {
          "internalType": "address",
          "name": "to",
          "type": "address"
        },
        {
          "internalType": "uint256",
          "name": "tokenId",
          "type": "uint256"
        },
        {
          "internalType": "bytes",
          "name": "_data",
          "type": "bytes"
        }
      ],
      "name": "safeTransferFrom",
      "outputs": [],
      "stateMutability": "nonpayable",
      "type": "function"
    },
    {
      "inputs": [
        {
          "internalType": "address",
          "name": "operator",
          "type": "address"
        },
        {
          "internalType": "bool",
          "name": "approved",
          "type": "bool"
        }
      ],
      "name": "setApprovalForAll",
      "outputs": [],
      "stateMutability": "nonpayable",
      "type": "function"
    },
    {
      "inputs": [
        {
          "internalType": "bytes4",
          "name": "interfaceId",
          "type": "bytes4"
        }
      ],
      "name": "supportsInterface",
      "outputs": [
        {
          "internalType": "bool",
          "name": "",
          "type": "bool"
        }
      ],
      "stateMutability": "view",
      "type": "function",
      "constant": true
    },
    {
      "inputs": [],
      "name": "symbol",
      "outputs": [
        {
          "internalType": "string",
          "name": "",
          "type": "string"
        }
      ],
      "stateMutability": "view",
      "type": "function",
      "constant": true
    },
    {
      "inputs": [
        {
          "internalType": "uint256",
          "name": "tokenId",
          "type": "uint256"
        }
      ],
      "name": "tokenURI",
      "outputs": [
        {
          "internalType": "string",
          "name": "",
          "type": "string"
        }
      ],
      "stateMutability": "view",
      "type": "function",
      "constant": true
    },
    {
      "inputs": [
        {
          "internalType": "address",
          "name": "from",
          "type": "address"
        },
        {
          "internalType": "address",
          "name": "to",
          "type": "address"
        },
        {
          "internalType": "uint256",
          "name": "tokenId",
          "type": "uint256"
        }
      ],
      "name": "transferFrom",
      "outputs": [],
      "stateMutability": "nonpayable",
      "type": "function"
    },
    {
      "inputs": [
        {
          "internalType": "uint256",
          "name": "",
          "type": "uint256"
        }
      ],
      "name": "trees",
      "outputs": [
        {
          "internalType": "uint256",
          "name": "treeDNA",
          "type": "uint256"
        },
        {
          "internalType": "uint256",
          "name": "level",
          "type": "uint256"
        },
        {
          "internalType": "uint256",
          "name": "exp",
          "type": "uint256"
        },
        {
          "internalType": "bool",
          "name": "inMission",
          "type": "bool"
        }
      ],
      "stateMutability": "view",
      "type": "function",
      "constant": true
    },
    {
      "inputs": [
        {
          "internalType": "uint256",
          "name": "treeId",
          "type": "uint256"
        },
        {
          "internalType": "uint256",
          "name": "amount",
          "type": "uint256"
        }
      ],
      "name": "gainExp",
      "outputs": [],
      "stateMutability": "payable",
      "type": "function",
      "payable": true
    },
    {
      "inputs": [
        {
          "internalType": "uint256",
          "name": "treeId",
          "type": "uint256"
        }
      ],
      "name": "neededExp",
      "outputs": [
        {
          "internalType": "uint256",
          "name": "",
          "type": "uint256"
        }
      ],
      "stateMutability": "view",
      "type": "function",
      "constant": true
    },
    {
      "inputs": [
        {
          "internalType": "uint256",
          "name": "treeId",
          "type": "uint256"
        }
      ],
      "name": "neededAmount",
      "outputs": [
        {
          "internalType": "uint256",
          "name": "",
          "type": "uint256"
        }
      ],
      "stateMutability": "view",
      "type": "function",
      "constant": true
    },
    {
      "inputs": [
        {
          "internalType": "uint256",
          "name": "treeId",
          "type": "uint256"
        }
      ],
      "name": "gainLevel",
      "outputs": [],
      "stateMutability": "payable",
      "type": "function",
      "payable": true
    },
    {
      "inputs": [],
      "name": "currentPrice",
      "outputs": [
        {
          "internalType": "uint256",
          "name": "",
          "type": "uint256"
        }
      ],
      "stateMutability": "view",
      "type": "function",
      "constant": true
    },
    {
      "inputs": [],
      "name": "createNewTree",
      "outputs": [],
      "stateMutability": "payable",
      "type": "function",
      "payable": true
    },
    {
      "inputs": [
        {
          "internalType": "address",
          "name": "newOwner",
          "type": "address"
        }
      ],
      "name": "transferOwnership",
      "outputs": [],
      "stateMutability": "payable",
      "type": "function",
      "payable": true
    }
  ],
  "bytecode": "0x608060405260016006556010600755600754600a6200001f9190620003a9565b60085533600960006101000a81548173ffffffffffffffffffffffffffffffffffffffff021916908373ffffffffffffffffffffffffffffffffffffffff1602179055507370b3f9216a1600268146efc35944efb376f4c4fc600a60006101000a81548173ffffffffffffffffffffffffffffffffffffffff021916908373ffffffffffffffffffffffffffffffffffffffff160217905550348015620000c557600080fd5b506040518060400160405280600481526020017f54524545000000000000000000000000000000000000000000000000000000008152506040518060400160405280600481526020017f547265650000000000000000000000000000000000000000000000000000000081525081600090805190602001906200014a9291906200016c565b508060019080519060200190620001639291906200016c565b5050506200045f565b8280546200017a9062000429565b90600052602060002090601f0160209004810192826200019e5760008555620001ea565b82601f10620001b957805160ff1916838001178555620001ea565b82800160010185558215620001ea579182015b82811115620001e9578251825591602001919060010190620001cc565b5b509050620001f99190620001fd565b5090565b5b8082111562000218576000816000905550600101620001fe565b5090565b7f4e487b7100000000000000000000000000000000000000000000000000000000600052601160045260246000fd5b60008160011c9050919050565b6000808291508390505b6001851115620002aa578086048111156200028257620002816200021c565b5b6001851615620002925780820291505b8081029050620002a2856200024b565b945062000262565b94509492505050565b600082620002c5576001905062000398565b81620002d5576000905062000398565b8160018114620002ee5760028114620002f9576200032f565b600191505062000398565b60ff8411156200030e576200030d6200021c565b5b8360020a9150848211156200032857620003276200021c565b5b5062000398565b5060208310610133831016604e8410600b8410161715620003695782820a9050838111156200036357620003626200021c565b5b62000398565b62000378848484600162000258565b925090508184048111156200039257620003916200021c565b5b81810290505b9392505050565b6000819050919050565b6000620003b6826200039f565b9150620003c3836200039f565b9250620003f27fffffffffffffffffffffffffffffffffffffffffffffffffffffffffffffffff8484620002b3565b905092915050565b7f4e487b7100000000000000000000000000000000000000000000000000000000600052602260045260246000fd5b600060028204905060018216806200044257607f821691505b60208210811415620004595762000458620003fa565b5b50919050565b6130cc806200046f6000396000f3fe60806040526004361061012a5760003560e01c80636352211e116100ab5780639d1b464a1161006f5780639d1b464a146103f0578063a22cb4651461041b578063b88d4fde14610444578063c87b56dd1461046d578063e985e9c5146104aa578063f2fde38b146104e75761012a565b80636352211e146102ef5780636cad69321461032c57806370a08231146103485780637a5080221461038557806395d89b41146103c55761012a565b806310d1eb2a116100f257806310d1eb2a1461023a5780631f7c60251461024457806321cde2021461028157806323b872dd1461029d57806342842e0e146102c65761012a565b806301ffc9a71461012f578063050775841461016c57806306fdde03146101a9578063081812fc146101d4578063095ea7b314610211575b600080fd5b34801561013b57600080fd5b5061015660048036038101906101519190611e92565b610503565b6040516101639190611eda565b60405180910390f35b34801561017857600080fd5b50610193600480360381019061018e9190611f2b565b6105e5565b6040516101a09190611f67565b60405180910390f35b3480156101b557600080fd5b506101be610620565b6040516101cb919061201b565b60405180910390f35b3480156101e057600080fd5b506101fb60048036038101906101f69190611f2b565b6106b2565b604051610208919061207e565b60405180910390f35b34801561021d57600080fd5b50610238600480360381019061023391906120c5565b610737565b005b61024261084f565b005b34801561025057600080fd5b5061026b60048036038101906102669190611f2b565b6109c2565b6040516102789190611f67565b60405180910390f35b61029b60048036038101906102969190611f2b565b610a10565b005b3480156102a957600080fd5b506102c460048036038101906102bf9190612105565b610c12565b005b3480156102d257600080fd5b506102ed60048036038101906102e89190612105565b610c72565b005b3480156102fb57600080fd5b5061031660048036038101906103119190611f2b565b610c92565b604051610323919061207e565b60405180910390f35b61034660048036038101906103419190612158565b610d44565b005b34801561035457600080fd5b5061036f600480360381019061036a9190612198565b610e1d565b60405161037c9190611f67565b60405180910390f35b34801561039157600080fd5b506103ac60048036038101906103a79190611f2b565b610ed5565b6040516103bc94939291906121c5565b60405180910390f35b3480156103d157600080fd5b506103da610f22565b6040516103e7919061201b565b60405180910390f35b3480156103fc57600080fd5b50610405610fb4565b6040516104129190611f67565b60405180910390f35b34801561042757600080fd5b50610442600480360381019061043d9190612236565b610feb565b005b34801561045057600080fd5b5061046b600480360381019061046691906123ab565b611001565b005b34801561047957600080fd5b50610494600480360381019061048f9190611f2b565b611063565b6040516104a1919061201b565b60405180910390f35b3480156104b657600080fd5b506104d160048036038101906104cc919061242e565b61110a565b6040516104de9190611eda565b60405180910390f35b61050160048036038101906104fc9190612198565b61119e565b005b60007f80ac58cd000000000000000000000000000000000000000000000000000000007bffffffffffffffffffffffffffffffffffffffffffffffffffffffff1916827bffffffffffffffffffffffffffffffffffffffffffffffffffffffff191614806105ce57507f5b5e139f000000000000000000000000000000000000000000000000000000007bffffffffffffffffffffffffffffffffffffffffffffffffffffffff1916827bffffffffffffffffffffffffffffffffffffffffffffffffffffffff1916145b806105de57506105dd8261123c565b5b9050919050565b60006064600b83815481106105fd576105fc61246e565b5b90600052602060002090600402016001015461061991906124cc565b9050919050565b60606000805461062f90612555565b80601f016020809104026020016040519081016040528092919081815260200182805461065b90612555565b80156106a85780601f1061067d576101008083540402835291602001916106a8565b820191906000526020600020905b81548152906001019060200180831161068b57829003601f168201915b5050505050905090565b60006106bd826112a6565b6106fc576040517f08c379a00000000000000000000000000000000000000000000000000000000081526004016106f3906125f9565b60405180910390fd5b6004600083815260200190815260200160002060009054906101000a900473ffffffffffffffffffffffffffffffffffffffff169050919050565b600061074282610c92565b90508073ffffffffffffffffffffffffffffffffffffffff168373ffffffffffffffffffffffffffffffffffffffff1614156107b3576040517f08c379a00000000000000000000000000000000000000000000000000000000081526004016107aa9061268b565b60405180910390fd5b8073ffffffffffffffffffffffffffffffffffffffff166107d2611312565b73ffffffffffffffffffffffffffffffffffffffff1614806108015750610800816107fb611312565b61110a565b5b610840576040517f08c379a00000000000000000000000000000000000000000000000000000000081526004016108379061271d565b60405180910390fd5b61084a838361131a565b505050565b600073ffffffffffffffffffffffffffffffffffffffff163373ffffffffffffffffffffffffffffffffffffffff16141580156108b857503073ffffffffffffffffffffffffffffffffffffffff163373ffffffffffffffffffffffffffffffffffffffff1614155b6108c157600080fd5b6108c9610fb4565b3410156108d557600080fd5b6000600b80549050905060006108ea826113d3565b9050600b6040518060800160405280838152602001600181526020016000815260200160001515815250908060018154018082558091505060019003906000526020600020906004020160009091909190915060008201518160000155602082015181600101556040820151816002015560608201518160030160006101000a81548160ff0219169083151502179055505050610987338361143d565b7f5aa7f45898fcb5638757632f4ea98818ccb1f1b865b0721648cfb14cfcd2da9a826040516109b69190611f67565b60405180910390a15050565b6000670de0b6b3a76400006001600b84815481106109e3576109e261246e565b5b9060005260206000209060040201600101546109ff91906124cc565b610a0991906124cc565b9050919050565b803373ffffffffffffffffffffffffffffffffffffffff16610a3182610c92565b73ffffffffffffffffffffffffffffffffffffffff1614610a5157600080fd5b6000610a5c836105e5565b90506000610a69846109c2565b905081600b8581548110610a8057610a7f61246e565b5b9060005260206000209060040201600201541015610a9d57600080fd5b600a60009054906101000a900473ffffffffffffffffffffffffffffffffffffffff1673ffffffffffffffffffffffffffffffffffffffff166323b872dd3330846040518463ffffffff1660e01b8152600401610afc9392919061273d565b6020604051808303816000875af1158015610b1b573d6000803e3d6000fd5b505050506040513d601f19601f82011682018060405250810190610b3f9190612789565b5081600b8581548110610b5557610b5461246e565b5b906000526020600020906004020160020154610b7191906127b6565b600b8581548110610b8557610b8461246e565b5b906000526020600020906004020160020181905550600b8481548110610bae57610bad61246e565b5b90600052602060002090600402016001016000815480929190610bd0906127ea565b91905055507f7ef1df0b6d95a41d9ebcaa695746726b382e110036a9127b009babdb11c656a284604051610c049190611f67565b60405180910390a150505050565b610c23610c1d611312565b8261160b565b610c62576040517f08c379a0000000000000000000000000000000000000000000000000000000008152600401610c59906128a5565b60405180910390fd5b610c6d8383836116e9565b505050565b610c8d83838360405180602001604052806000815250611001565b505050565b6000806002600084815260200190815260200160002060009054906101000a900473ffffffffffffffffffffffffffffffffffffffff169050600073ffffffffffffffffffffffffffffffffffffffff168173ffffffffffffffffffffffffffffffffffffffff161415610d3b576040517f08c379a0000000000000000000000000000000000000000000000000000000008152600401610d3290612937565b60405180910390fd5b80915050919050565b813373ffffffffffffffffffffffffffffffffffffffff16610d6582610c92565b73ffffffffffffffffffffffffffffffffffffffff1614610d8557600080fd5b81600b8481548110610d9a57610d9961246e565b5b906000526020600020906004020160020154610db69190612957565b600b8481548110610dca57610dc961246e565b5b9060005260206000209060040201600201819055507ffa65d54a674245861f726a6e25ffd7e32b5f7e7a6a62bd81b222ad6f53643d288383604051610e109291906129ad565b60405180910390a1505050565b60008073ffffffffffffffffffffffffffffffffffffffff168273ffffffffffffffffffffffffffffffffffffffff161415610e8e576040517f08c379a0000000000000000000000000000000000000000000000000000000008152600401610e8590612a48565b60405180910390fd5b600360008373ffffffffffffffffffffffffffffffffffffffff1673ffffffffffffffffffffffffffffffffffffffff168152602001908152602001600020549050919050565b600b8181548110610ee557600080fd5b90600052602060002090600402016000915090508060000154908060010154908060020154908060030160009054906101000a900460ff16905084565b606060018054610f3190612555565b80601f0160208091040260200160405190810160405280929190818152602001828054610f5d90612555565b8015610faa5780601f10610f7f57610100808354040283529160200191610faa565b820191906000526020600020905b815481529060010190602001808311610f8d57829003601f168201915b5050505050905090565b6000670de0b6b3a7640000600180600b80549050610fd29190612957565b610fdc91906124cc565b610fe691906124cc565b905090565b610ffd610ff6611312565b8383611945565b5050565b61101261100c611312565b8361160b565b611051576040517f08c379a0000000000000000000000000000000000000000000000000000000008152600401611048906128a5565b60405180910390fd5b61105d84848484611ab2565b50505050565b606061106e826112a6565b6110ad576040517f08c379a00000000000000000000000000000000000000000000000000000000081526004016110a490612ada565b60405180910390fd5b60006110b7611b0e565b905060008151116110d75760405180602001604052806000815250611102565b806110e184611b25565b6040516020016110f2929190612b36565b6040516020818303038152906040525b915050919050565b6000600560008473ffffffffffffffffffffffffffffffffffffffff1673ffffffffffffffffffffffffffffffffffffffff16815260200190815260200160002060008373ffffffffffffffffffffffffffffffffffffffff1673ffffffffffffffffffffffffffffffffffffffff16815260200190815260200160002060009054906101000a900460ff16905092915050565b3373ffffffffffffffffffffffffffffffffffffffff16600960009054906101000a900473ffffffffffffffffffffffffffffffffffffffff1673ffffffffffffffffffffffffffffffffffffffff16146111f857600080fd5b80600960006101000a81548173ffffffffffffffffffffffffffffffffffffffff021916908373ffffffffffffffffffffffffffffffffffffffff16021790555050565b60007f01ffc9a7000000000000000000000000000000000000000000000000000000007bffffffffffffffffffffffffffffffffffffffffffffffffffffffff1916827bffffffffffffffffffffffffffffffffffffffffffffffffffffffff1916149050919050565b60008073ffffffffffffffffffffffffffffffffffffffff166002600084815260200190815260200160002060009054906101000a900473ffffffffffffffffffffffffffffffffffffffff1673ffffffffffffffffffffffffffffffffffffffff1614159050919050565b600033905090565b816004600083815260200190815260200160002060006101000a81548173ffffffffffffffffffffffffffffffffffffffff021916908373ffffffffffffffffffffffffffffffffffffffff160217905550808273ffffffffffffffffffffffffffffffffffffffff1661138d83610c92565b73ffffffffffffffffffffffffffffffffffffffff167f8c5be1e5ebec7d5bd14f71427d1e84f3dd0314c0f7b2291e5b200ac8c7c3b92560405160405180910390a45050565b600080600654836113e49190612957565b6040516020016113f49190612b7b565b6040516020818303038152906040528051906020012060001c905060066000815480929190611422906127ea565b9190505550600854816114359190612bc5565b915050919050565b600073ffffffffffffffffffffffffffffffffffffffff168273ffffffffffffffffffffffffffffffffffffffff1614156114ad576040517f08c379a00000000000000000000000000000000000000000000000000000000081526004016114a490612c42565b60405180910390fd5b6114b6816112a6565b156114f6576040517f08c379a00000000000000000000000000000000000000000000000000000000081526004016114ed90612cae565b60405180910390fd5b61150260008383611c86565b6001600360008473ffffffffffffffffffffffffffffffffffffffff1673ffffffffffffffffffffffffffffffffffffffff16815260200190815260200160002060008282546115529190612957565b92505081905550816002600083815260200190815260200160002060006101000a81548173ffffffffffffffffffffffffffffffffffffffff021916908373ffffffffffffffffffffffffffffffffffffffff160217905550808273ffffffffffffffffffffffffffffffffffffffff16600073ffffffffffffffffffffffffffffffffffffffff167fddf252ad1be2c89b69c2b068fc378daa952ba7f163c4a11628f55a4df523b3ef60405160405180910390a45050565b6000611616826112a6565b611655576040517f08c379a000000000000000000000000000000000000000000000000000000000815260040161164c90612d40565b60405180910390fd5b600061166083610c92565b90508073ffffffffffffffffffffffffffffffffffffffff168473ffffffffffffffffffffffffffffffffffffffff1614806116cf57508373ffffffffffffffffffffffffffffffffffffffff166116b7846106b2565b73ffffffffffffffffffffffffffffffffffffffff16145b806116e057506116df818561110a565b5b91505092915050565b8273ffffffffffffffffffffffffffffffffffffffff1661170982610c92565b73ffffffffffffffffffffffffffffffffffffffff161461175f576040517f08c379a000000000000000000000000000000000000000000000000000000000815260040161175690612dd2565b60405180910390fd5b600073ffffffffffffffffffffffffffffffffffffffff168273ffffffffffffffffffffffffffffffffffffffff1614156117cf576040517f08c379a00000000000000000000000000000000000000000000000000000000081526004016117c690612e64565b60405180910390fd5b6117da838383611c86565b6117e560008261131a565b6001600360008573ffffffffffffffffffffffffffffffffffffffff1673ffffffffffffffffffffffffffffffffffffffff168152602001908152602001600020600082825461183591906127b6565b925050819055506001600360008473ffffffffffffffffffffffffffffffffffffffff1673ffffffffffffffffffffffffffffffffffffffff168152602001908152602001600020600082825461188c9190612957565b92505081905550816002600083815260200190815260200160002060006101000a81548173ffffffffffffffffffffffffffffffffffffffff021916908373ffffffffffffffffffffffffffffffffffffffff160217905550808273ffffffffffffffffffffffffffffffffffffffff168473ffffffffffffffffffffffffffffffffffffffff167fddf252ad1be2c89b69c2b068fc378daa952ba7f163c4a11628f55a4df523b3ef60405160405180910390a4505050565b8173ffffffffffffffffffffffffffffffffffffffff168373ffffffffffffffffffffffffffffffffffffffff1614156119b4576040517f08c379a00000000000000000000000000000000000000000000000000000000081526004016119ab90612ed0565b60405180910390fd5b80600560008573ffffffffffffffffffffffffffffffffffffffff1673ffffffffffffffffffffffffffffffffffffffff16815260200190815260200160002060008473ffffffffffffffffffffffffffffffffffffffff1673ffffffffffffffffffffffffffffffffffffffff16815260200190815260200160002060006101000a81548160ff0219169083151502179055508173ffffffffffffffffffffffffffffffffffffffff168373ffffffffffffffffffffffffffffffffffffffff167f17307eab39ab6107e8899845ad3d59bd9653f200f220920489ca2b5937696c3183604051611aa59190611eda565b60405180910390a3505050565b611abd8484846116e9565b611ac984848484611c8b565b611b08576040517f08c379a0000000000000000000000000000000000000000000000000000000008152600401611aff90612f62565b60405180910390fd5b50505050565b606060405180602001604052806000815250905090565b60606000821415611b6d576040518060400160405280600181526020017f30000000000000000000000000000000000000000000000000000000000000008152509050611c81565b600082905060005b60008214611b9f578080611b88906127ea565b915050600a82611b989190612f82565b9150611b75565b60008167ffffffffffffffff811115611bbb57611bba612280565b5b6040519080825280601f01601f191660200182016040528015611bed5781602001600182028036833780820191505090505b5090505b60008514611c7a57600182611c0691906127b6565b9150600a85611c159190612bc5565b6030611c219190612957565b60f81b818381518110611c3757611c3661246e565b5b60200101907effffffffffffffffffffffffffffffffffffffffffffffffffffffffffffff1916908160001a905350600a85611c739190612f82565b9450611bf1565b8093505050505b919050565b505050565b6000611cac8473ffffffffffffffffffffffffffffffffffffffff16611e13565b15611e06578373ffffffffffffffffffffffffffffffffffffffff1663150b7a02611cd5611312565b8786866040518563ffffffff1660e01b8152600401611cf79493929190613008565b6020604051808303816000875af1925050508015611d3357506040513d601f19601f82011682018060405250810190611d309190613069565b60015b611db6573d8060008114611d63576040519150601f19603f3d011682016040523d82523d6000602084013e611d68565b606091505b50600081511415611dae576040517f08c379a0000000000000000000000000000000000000000000000000000000008152600401611da590612f62565b60405180910390fd5b805181602001fd5b63150b7a0260e01b7bffffffffffffffffffffffffffffffffffffffffffffffffffffffff1916817bffffffffffffffffffffffffffffffffffffffffffffffffffffffff191614915050611e0b565b600190505b949350505050565b600080823b905060008111915050919050565b6000604051905090565b600080fd5b600080fd5b60007fffffffff0000000000000000000000000000000000000000000000000000000082169050919050565b611e6f81611e3a565b8114611e7a57600080fd5b50565b600081359050611e8c81611e66565b92915050565b600060208284031215611ea857611ea7611e30565b5b6000611eb684828501611e7d565b91505092915050565b60008115159050919050565b611ed481611ebf565b82525050565b6000602082019050611eef6000830184611ecb565b92915050565b6000819050919050565b611f0881611ef5565b8114611f1357600080fd5b50565b600081359050611f2581611eff565b92915050565b600060208284031215611f4157611f40611e30565b5b6000611f4f84828501611f16565b91505092915050565b611f6181611ef5565b82525050565b6000602082019050611f7c6000830184611f58565b92915050565b600081519050919050565b600082825260208201905092915050565b60005b83811015611fbc578082015181840152602081019050611fa1565b83811115611fcb576000848401525b50505050565b6000601f19601f8301169050919050565b6000611fed82611f82565b611ff78185611f8d565b9350612007818560208601611f9e565b61201081611fd1565b840191505092915050565b600060208201905081810360008301526120358184611fe2565b905092915050565b600073ffffffffffffffffffffffffffffffffffffffff82169050919050565b60006120688261203d565b9050919050565b6120788161205d565b82525050565b6000602082019050612093600083018461206f565b92915050565b6120a28161205d565b81146120ad57600080fd5b50565b6000813590506120bf81612099565b92915050565b600080604083850312156120dc576120db611e30565b5b60006120ea858286016120b0565b92505060206120fb85828601611f16565b9150509250929050565b60008060006060848603121561211e5761211d611e30565b5b600061212c868287016120b0565b935050602061213d868287016120b0565b925050604061214e86828701611f16565b9150509250925092565b6000806040838503121561216f5761216e611e30565b5b600061217d85828601611f16565b925050602061218e85828601611f16565b9150509250929050565b6000602082840312156121ae576121ad611e30565b5b60006121bc848285016120b0565b91505092915050565b60006080820190506121da6000830187611f58565b6121e76020830186611f58565b6121f46040830185611f58565b6122016060830184611ecb565b95945050505050565b61221381611ebf565b811461221e57600080fd5b50565b6000813590506122308161220a565b92915050565b6000806040838503121561224d5761224c611e30565b5b600061225b858286016120b0565b925050602061226c85828601612221565b9150509250929050565b600080fd5b600080fd5b7f4e487b7100000000000000000000000000000000000000000000000000000000600052604160045260246000fd5b6122b882611fd1565b810181811067ffffffffffffffff821117156122d7576122d6612280565b5b80604052505050565b60006122ea611e26565b90506122f682826122af565b919050565b600067ffffffffffffffff82111561231657612315612280565b5b61231f82611fd1565b9050602081019050919050565b82818337600083830152505050565b600061234e612349846122fb565b6122e0565b90508281526020810184848401111561236a5761236961227b565b5b61237584828561232c565b509392505050565b600082601f83011261239257612391612276565b5b81356123a284826020860161233b565b91505092915050565b600080600080608085870312156123c5576123c4611e30565b5b60006123d3878288016120b0565b94505060206123e4878288016120b0565b93505060406123f587828801611f16565b925050606085013567ffffffffffffffff81111561241657612415611e35565b5b6124228782880161237d565b91505092959194509250565b6000806040838503121561244557612444611e30565b5b6000612453858286016120b0565b9250506020612464858286016120b0565b9150509250929050565b7f4e487b7100000000000000000000000000000000000000000000000000000000600052603260045260246000fd5b7f4e487b7100000000000000000000000000000000000000000000000000000000600052601160045260246000fd5b60006124d782611ef5565b91506124e283611ef5565b9250817fffffffffffffffffffffffffffffffffffffffffffffffffffffffffffffffff048311821515161561251b5761251a61249d565b5b828202905092915050565b7f4e487b7100000000000000000000000000000000000000000000000000000000600052602260045260246000fd5b6000600282049050600182168061256d57607f821691505b6020821081141561258157612580612526565b5b50919050565b7f4552433732313a20617070726f76656420717565727920666f72206e6f6e657860008201527f697374656e7420746f6b656e0000000000000000000000000000000000000000602082015250565b60006125e3602c83611f8d565b91506125ee82612587565b604082019050919050565b60006020820190508181036000830152612612816125d6565b9050919050565b7f4552433732313a20617070726f76616c20746f2063757272656e74206f776e6560008201527f7200000000000000000000000000000000000000000000000000000000000000602082015250565b6000612675602183611f8d565b915061268082612619565b604082019050919050565b600060208201905081810360008301526126a481612668565b9050919050565b7f4552433732313a20617070726f76652063616c6c6572206973206e6f74206f7760008201527f6e6572206e6f7220617070726f76656420666f7220616c6c0000000000000000602082015250565b6000612707603883611f8d565b9150612712826126ab565b604082019050919050565b60006020820190508181036000830152612736816126fa565b9050919050565b6000606082019050612752600083018661206f565b61275f602083018561206f565b61276c6040830184611f58565b949350505050565b6000815190506127838161220a565b92915050565b60006020828403121561279f5761279e611e30565b5b60006127ad84828501612774565b91505092915050565b60006127c182611ef5565b91506127cc83611ef5565b9250828210156127df576127de61249d565b5b828203905092915050565b60006127f582611ef5565b91507fffffffffffffffffffffffffffffffffffffffffffffffffffffffffffffffff8214156128285761282761249d565b5b600182019050919050565b7f4552433732313a207472616e736665722063616c6c6572206973206e6f74206f60008201527f776e6572206e6f7220617070726f766564000000000000000000000000000000602082015250565b600061288f603183611f8d565b915061289a82612833565b604082019050919050565b600060208201905081810360008301526128be81612882565b9050919050565b7f4552433732313a206f776e657220717565727920666f72206e6f6e657869737460008201527f656e7420746f6b656e0000000000000000000000000000000000000000000000602082015250565b6000612921602983611f8d565b915061292c826128c5565b604082019050919050565b6000602082019050818103600083015261295081612914565b9050919050565b600061296282611ef5565b915061296d83611ef5565b9250827fffffffffffffffffffffffffffffffffffffffffffffffffffffffffffffffff038211156129a2576129a161249d565b5b828201905092915050565b60006040820190506129c26000830185611f58565b6129cf6020830184611f58565b9392505050565b7f4552433732313a2062616c616e636520717565727920666f7220746865207a6560008201527f726f206164647265737300000000000000000000000000000000000000000000602082015250565b6000612a32602a83611f8d565b9150612a3d826129d6565b604082019050919050565b60006020820190508181036000830152612a6181612a25565b9050919050565b7f4552433732314d657461646174613a2055524920717565727920666f72206e6f60008201527f6e6578697374656e7420746f6b656e0000000000000000000000000000000000602082015250565b6000612ac4602f83611f8d565b9150612acf82612a68565b604082019050919050565b60006020820190508181036000830152612af381612ab7565b9050919050565b600081905092915050565b6000612b1082611f82565b612b1a8185612afa565b9350612b2a818560208601611f9e565b80840191505092915050565b6000612b428285612b05565b9150612b4e8284612b05565b91508190509392505050565b6000819050919050565b612b75612b7082611ef5565b612b5a565b82525050565b6000612b878284612b64565b60208201915081905092915050565b7f4e487b7100000000000000000000000000000000000000000000000000000000600052601260045260246000fd5b6000612bd082611ef5565b9150612bdb83611ef5565b925082612beb57612bea612b96565b5b828206905092915050565b7f4552433732313a206d696e7420746f20746865207a65726f2061646472657373600082015250565b6000612c2c602083611f8d565b9150612c3782612bf6565b602082019050919050565b60006020820190508181036000830152612c5b81612c1f565b9050919050565b7f4552433732313a20746f6b656e20616c7265616479206d696e74656400000000600082015250565b6000612c98601c83611f8d565b9150612ca382612c62565b602082019050919050565b60006020820190508181036000830152612cc781612c8b565b9050919050565b7f4552433732313a206f70657261746f7220717565727920666f72206e6f6e657860008201527f697374656e7420746f6b656e0000000000000000000000000000000000000000602082015250565b6000612d2a602c83611f8d565b9150612d3582612cce565b604082019050919050565b60006020820190508181036000830152612d5981612d1d565b9050919050565b7f4552433732313a207472616e73666572206f6620746f6b656e2074686174206960008201527f73206e6f74206f776e0000000000000000000000000000000000000000000000602082015250565b6000612dbc602983611f8d565b9150612dc782612d60565b604082019050919050565b60006020820190508181036000830152612deb81612daf565b9050919050565b7f4552433732313a207472616e7366657220746f20746865207a65726f2061646460008201527f7265737300000000000000000000000000000000000000000000000000000000602082015250565b6000612e4e602483611f8d565b9150612e5982612df2565b604082019050919050565b60006020820190508181036000830152612e7d81612e41565b9050919050565b7f4552433732313a20617070726f766520746f2063616c6c657200000000000000600082015250565b6000612eba601983611f8d565b9150612ec582612e84565b602082019050919050565b60006020820190508181036000830152612ee981612ead565b9050919050565b7f4552433732313a207472616e7366657220746f206e6f6e20455243373231526560008201527f63656976657220696d706c656d656e7465720000000000000000000000000000602082015250565b6000612f4c603283611f8d565b9150612f5782612ef0565b604082019050919050565b60006020820190508181036000830152612f7b81612f3f565b9050919050565b6000612f8d82611ef5565b9150612f9883611ef5565b925082612fa857612fa7612b96565b5b828204905092915050565b600081519050919050565b600082825260208201905092915050565b6000612fda82612fb3565b612fe48185612fbe565b9350612ff4818560208601611f9e565b612ffd81611fd1565b840191505092915050565b600060808201905061301d600083018761206f565b61302a602083018661206f565b6130376040830185611f58565b81810360608301526130498184612fcf565b905095945050505050565b60008151905061306381611e66565b92915050565b60006020828403121561307f5761307e611e30565b5b600061308d84828501613054565b9150509291505056fea2646970667358221220c8b13ae040128ab5c649c016f87022b87a25343c2b3108f9fb678627ceb83dc164736f6c634300080b0033",
  "immutableReferences": {},
  "source": "// SPDX-License-Identifier: UNLICENSED\r\n\r\npragma solidity ^0.8.0;\r\n\r\nimport \"../node_modules/@openzeppelin/contracts/token/ERC721/ERC721.sol\";\r\nimport \"../node_modules/@openzeppelin/contracts/token/ERC20/IERC20.sol\";\r\n\r\ncontract Tree is ERC721 {\r\n    event NewTree(uint treeId);\r\n    event GainExp(uint treeId, uint amount);\r\n    event GainLevel(uint treeId);\r\n\r\n    uint Nonce = 1;\r\n    uint Digits = 16;\r\n    uint Modulus = 10 ** Digits;\r\n    address ContractOwner = msg.sender;\r\n    address Token = 0x70b3F9216A1600268146efC35944Efb376F4c4fc;\r\n\r\n    struct TreeStruct {\r\n        uint treeDNA;\r\n        uint level;\r\n        uint exp;\r\n        bool inMission;\r\n    }\r\n\r\n    TreeStruct[] public trees;\r\n\r\n    constructor() ERC721(\"TREE\", \"Tree\") { \r\n    }\r\n\r\n    modifier onlyOwnerOf(uint _treeId) {\r\n        require(ownerOf(_treeId) == msg.sender);\r\n        _;\r\n    }\r\n\r\n    modifier onlyOwner() {\r\n        require(ContractOwner == msg.sender);\r\n        _;\r\n    }\r\n\r\n    function gainExp(uint treeId, uint amount) public payable onlyOwnerOf(treeId) {\r\n        //Cambiar a que solo lo pueda hacer el contrato de quests y no el usuario\r\n        trees[treeId].exp = trees[treeId].exp + amount;\r\n        emit GainExp(treeId, amount);\r\n    }\r\n\r\n    function neededExp(uint treeId) public view returns (uint) {\r\n        return trees[treeId].level*100;\r\n    }\r\n\r\n    function neededAmount(uint treeId) public view returns (uint) {\r\n        return (trees[treeId].level*1)*10**18;\r\n    }\r\n\r\n    function gainLevel(uint treeId) public payable onlyOwnerOf(treeId) {\r\n        uint Exp = neededExp(treeId);\r\n        uint amount = neededAmount(treeId);\r\n        require(trees[treeId].exp >= Exp);\r\n        IERC20(Token).transferFrom(msg.sender, address(this), amount);\r\n        trees[treeId].exp = trees[treeId].exp-Exp;\r\n        trees[treeId].level++;\r\n        emit GainLevel(treeId);\r\n    }\r\n\r\n    function currentPrice() public view returns (uint) {\r\n        return ((trees.length+1)*1)*10**18;\r\n    }\r\n\r\n    function _generateRandomDNA(uint _treeId) internal returns (uint) {\r\n        uint rand = uint(keccak256(abi.encodePacked(_treeId + Nonce)));\r\n        Nonce++;\r\n        return rand % Modulus;\r\n    }\r\n\r\n    function createNewTree() public payable {\r\n        require(msg.sender != address(0) && msg.sender != address(this));\r\n        require(msg.value >= currentPrice());\r\n        uint id = trees.length;\r\n        uint DNA = _generateRandomDNA(id);\r\n        trees.push(TreeStruct(DNA, 1, 0, false));\r\n        _mint(msg.sender, id);\r\n        emit NewTree(id);\r\n\r\n    }\r\n\r\n    function transferOwnership(address newOwner) public payable onlyOwner() {\r\n        ContractOwner = newOwner;\r\n    }\r\n\r\n}",
  "sourcePath": "C:\\Users\\jtsch\\OneDrive\\Escritorio\\Python\\SmartContracts-NFT-Agus\\contracts\\Tree.sol",
  "compiler": {
    "name": "solc",
    "version": "0.8.11+commit.d7f03943.Emscripten.clang"
  },
  "schemaVersion": "3.4.3",
  "updatedAt": "2022-01-09T16:30:13.965Z",
  "networkType": "ethereum",
  "devdoc": {
    "kind": "dev",
    "methods": {
      "approve(address,uint256)": {
        "details": "See {IERC721-approve}."
      },
      "balanceOf(address)": {
        "details": "See {IERC721-balanceOf}."
      },
      "getApproved(uint256)": {
        "details": "See {IERC721-getApproved}."
      },
      "isApprovedForAll(address,address)": {
        "details": "See {IERC721-isApprovedForAll}."
      },
      "name()": {
        "details": "See {IERC721Metadata-name}."
      },
      "ownerOf(uint256)": {
        "details": "See {IERC721-ownerOf}."
      },
      "safeTransferFrom(address,address,uint256)": {
        "details": "See {IERC721-safeTransferFrom}."
      },
      "safeTransferFrom(address,address,uint256,bytes)": {
        "details": "See {IERC721-safeTransferFrom}."
      },
      "setApprovalForAll(address,bool)": {
        "details": "See {IERC721-setApprovalForAll}."
      },
      "supportsInterface(bytes4)": {
        "details": "See {IERC165-supportsInterface}."
      },
      "symbol()": {
        "details": "See {IERC721Metadata-symbol}."
      },
      "tokenURI(uint256)": {
        "details": "See {IERC721Metadata-tokenURI}."
      },
      "transferFrom(address,address,uint256)": {
        "details": "See {IERC721-transferFrom}."
      }
    },
    "version": 1
  },
  "userdoc": {
    "kind": "user",
    "methods": {},
    "version": 1
  }
}