{
  "contractName": "Tree",
  "abi": [
    {
      "inputs": [],
      "stateMutability": "nonpayable",
      "type": "constructor"
    },
    {
      "anonymous": false,
      "inputs": [
        {
          "indexed": true,
          "internalType": "address",
          "name": "owner",
          "type": "address"
        },
        {
          "indexed": true,
          "internalType": "address",
          "name": "approved",
          "type": "address"
        },
        {
          "indexed": true,
          "internalType": "uint256",
          "name": "tokenId",
          "type": "uint256"
        }
      ],
      "name": "Approval",
      "type": "event"
    },
    {
      "anonymous": false,
      "inputs": [
        {
          "indexed": true,
          "internalType": "address",
          "name": "owner",
          "type": "address"
        },
        {
          "indexed": true,
          "internalType": "address",
          "name": "operator",
          "type": "address"
        },
        {
          "indexed": false,
          "internalType": "bool",
          "name": "approved",
          "type": "bool"
        }
      ],
      "name": "ApprovalForAll",
      "type": "event"
    },
    {
      "anonymous": false,
      "inputs": [
        {
          "indexed": false,
          "internalType": "uint256",
          "name": "treeId",
          "type": "uint256"
        },
        {
          "indexed": false,
          "internalType": "uint256",
          "name": "amount",
          "type": "uint256"
        }
      ],
      "name": "GainExp",
      "type": "event"
    },
    {
      "anonymous": false,
      "inputs": [
        {
          "indexed": false,
          "internalType": "uint256",
          "name": "treeId",
          "type": "uint256"
        }
      ],
      "name": "GainLevel",
      "type": "event"
    },
    {
      "anonymous": false,
      "inputs": [
        {
          "indexed": false,
          "internalType": "uint256",
          "name": "treeId",
          "type": "uint256"
        }
      ],
      "name": "NewTree",
      "type": "event"
    },
    {
      "anonymous": false,
      "inputs": [
        {
          "indexed": true,
          "internalType": "address",
          "name": "from",
          "type": "address"
        },
        {
          "indexed": true,
          "internalType": "address",
          "name": "to",
          "type": "address"
        },
        {
          "indexed": true,
          "internalType": "uint256",
          "name": "tokenId",
          "type": "uint256"
        }
      ],
      "name": "Transfer",
      "type": "event"
    },
    {
      "inputs": [
        {
          "internalType": "address",
          "name": "to",
          "type": "address"
        },
        {
          "internalType": "uint256",
          "name": "tokenId",
          "type": "uint256"
        }
      ],
      "name": "approve",
      "outputs": [],
      "stateMutability": "nonpayable",
      "type": "function"
    },
    {
      "inputs": [
        {
          "internalType": "address",
          "name": "owner",
          "type": "address"
        }
      ],
      "name": "balanceOf",
      "outputs": [
        {
          "internalType": "uint256",
          "name": "",
          "type": "uint256"
        }
      ],
      "stateMutability": "view",
      "type": "function"
    },
    {
      "inputs": [
        {
          "internalType": "uint256",
          "name": "tokenId",
          "type": "uint256"
        }
      ],
      "name": "getApproved",
      "outputs": [
        {
          "internalType": "address",
          "name": "",
          "type": "address"
        }
      ],
      "stateMutability": "view",
      "type": "function"
    },
    {
      "inputs": [
        {
          "internalType": "address",
          "name": "owner",
          "type": "address"
        },
        {
          "internalType": "address",
          "name": "operator",
          "type": "address"
        }
      ],
      "name": "isApprovedForAll",
      "outputs": [
        {
          "internalType": "bool",
          "name": "",
          "type": "bool"
        }
      ],
      "stateMutability": "view",
      "type": "function"
    },
    {
      "inputs": [],
      "name": "name",
      "outputs": [
        {
          "internalType": "string",
          "name": "",
          "type": "string"
        }
      ],
      "stateMutability": "view",
      "type": "function"
    },
    {
      "inputs": [
        {
          "internalType": "uint256",
          "name": "tokenId",
          "type": "uint256"
        }
      ],
      "name": "ownerOf",
      "outputs": [
        {
          "internalType": "address",
          "name": "",
          "type": "address"
        }
      ],
      "stateMutability": "view",
      "type": "function"
    },
    {
      "inputs": [
        {
          "internalType": "address",
          "name": "from",
          "type": "address"
        },
        {
          "internalType": "address",
          "name": "to",
          "type": "address"
        },
        {
          "internalType": "uint256",
          "name": "tokenId",
          "type": "uint256"
        }
      ],
      "name": "safeTransferFrom",
      "outputs": [],
      "stateMutability": "nonpayable",
      "type": "function"
    },
    {
      "inputs": [
        {
          "internalType": "address",
          "name": "from",
          "type": "address"
        },
        {
          "internalType": "address",
          "name": "to",
          "type": "address"
        },
        {
          "internalType": "uint256",
          "name": "tokenId",
          "type": "uint256"
        },
        {
          "internalType": "bytes",
          "name": "_data",
          "type": "bytes"
        }
      ],
      "name": "safeTransferFrom",
      "outputs": [],
      "stateMutability": "nonpayable",
      "type": "function"
    },
    {
      "inputs": [
        {
          "internalType": "address",
          "name": "operator",
          "type": "address"
        },
        {
          "internalType": "bool",
          "name": "approved",
          "type": "bool"
        }
      ],
      "name": "setApprovalForAll",
      "outputs": [],
      "stateMutability": "nonpayable",
      "type": "function"
    },
    {
      "inputs": [
        {
          "internalType": "bytes4",
          "name": "interfaceId",
          "type": "bytes4"
        }
      ],
      "name": "supportsInterface",
      "outputs": [
        {
          "internalType": "bool",
          "name": "",
          "type": "bool"
        }
      ],
      "stateMutability": "view",
      "type": "function"
    },
    {
      "inputs": [],
      "name": "symbol",
      "outputs": [
        {
          "internalType": "string",
          "name": "",
          "type": "string"
        }
      ],
      "stateMutability": "view",
      "type": "function"
    },
    {
      "inputs": [
        {
          "internalType": "uint256",
          "name": "tokenId",
          "type": "uint256"
        }
      ],
      "name": "tokenURI",
      "outputs": [
        {
          "internalType": "string",
          "name": "",
          "type": "string"
        }
      ],
      "stateMutability": "view",
      "type": "function"
    },
    {
      "inputs": [
        {
          "internalType": "address",
          "name": "from",
          "type": "address"
        },
        {
          "internalType": "address",
          "name": "to",
          "type": "address"
        },
        {
          "internalType": "uint256",
          "name": "tokenId",
          "type": "uint256"
        }
      ],
      "name": "transferFrom",
      "outputs": [],
      "stateMutability": "nonpayable",
      "type": "function"
    },
    {
      "inputs": [
        {
          "internalType": "uint256",
          "name": "",
          "type": "uint256"
        }
      ],
      "name": "trees",
      "outputs": [
        {
          "internalType": "uint256",
          "name": "treeDNA",
          "type": "uint256"
        },
        {
          "internalType": "uint256",
          "name": "level",
          "type": "uint256"
        },
        {
          "internalType": "uint256",
          "name": "exp",
          "type": "uint256"
        },
        {
          "internalType": "uint256",
          "name": "onQuestUntil",
          "type": "uint256"
        }
      ],
      "stateMutability": "view",
      "type": "function"
    },
    {
      "inputs": [
        {
          "internalType": "uint256",
          "name": "treeId",
          "type": "uint256"
        }
      ],
      "name": "treeDNA",
      "outputs": [
        {
          "internalType": "uint256",
          "name": "",
          "type": "uint256"
        }
      ],
      "stateMutability": "view",
      "type": "function"
    },
    {
      "inputs": [
        {
          "internalType": "uint256",
          "name": "treeId",
          "type": "uint256"
        }
      ],
      "name": "treeLevel",
      "outputs": [
        {
          "internalType": "uint256",
          "name": "",
          "type": "uint256"
        }
      ],
      "stateMutability": "view",
      "type": "function"
    },
    {
      "inputs": [
        {
          "internalType": "uint256",
          "name": "treeId",
          "type": "uint256"
        }
      ],
      "name": "treeExp",
      "outputs": [
        {
          "internalType": "uint256",
          "name": "",
          "type": "uint256"
        }
      ],
      "stateMutability": "view",
      "type": "function"
    },
    {
      "inputs": [],
      "name": "currentPrice",
      "outputs": [
        {
          "internalType": "uint256",
          "name": "",
          "type": "uint256"
        }
      ],
      "stateMutability": "view",
      "type": "function"
    },
    {
      "inputs": [
        {
          "internalType": "uint256",
          "name": "treeId",
          "type": "uint256"
        }
      ],
      "name": "questStatus",
      "outputs": [
        {
          "internalType": "uint256",
          "name": "",
          "type": "uint256"
        }
      ],
      "stateMutability": "view",
      "type": "function"
    },
    {
      "inputs": [
        {
          "internalType": "uint256",
          "name": "treeId",
          "type": "uint256"
        },
        {
          "internalType": "uint256",
          "name": "newValue",
          "type": "uint256"
        }
      ],
      "name": "updateQuestStatus",
      "outputs": [],
      "stateMutability": "payable",
      "type": "function"
    },
    {
      "inputs": [
        {
          "internalType": "uint256",
          "name": "treeId",
          "type": "uint256"
        },
        {
          "internalType": "uint256",
          "name": "amount",
          "type": "uint256"
        }
      ],
      "name": "gainExp",
      "outputs": [],
      "stateMutability": "payable",
      "type": "function"
    },
    {
      "inputs": [
        {
          "internalType": "uint256",
          "name": "treeId",
          "type": "uint256"
        }
      ],
      "name": "gainLevel",
      "outputs": [],
      "stateMutability": "payable",
      "type": "function"
    },
    {
      "inputs": [],
      "name": "createNewTree",
      "outputs": [],
      "stateMutability": "payable",
      "type": "function"
    },
    {
      "inputs": [
        {
          "internalType": "address",
          "name": "newOwner",
          "type": "address"
        }
      ],
      "name": "transferOwnership",
      "outputs": [],
      "stateMutability": "payable",
      "type": "function"
    },
    {
      "inputs": [
        {
          "internalType": "address",
          "name": "newQuestContract",
          "type": "address"
        }
      ],
      "name": "transferQuestContract",
      "outputs": [],
      "stateMutability": "payable",
      "type": "function"
    }
  ],
  "bytecode": "0x608060405260016006556010600755600754600a6200001f9190620003ff565b60085573f577601a5ef1d5079da672f01d7ab3b80dd2bd1d600960006101000a81548173ffffffffffffffffffffffffffffffffffffffff021916908373ffffffffffffffffffffffffffffffffffffffff16021790555073cd571ed43b347a4ab01bae2d23f9535bbafe955d600a60006101000a81548173ffffffffffffffffffffffffffffffffffffffff021916908373ffffffffffffffffffffffffffffffffffffffff1602179055506000600b60006101000a81548173ffffffffffffffffffffffffffffffffffffffff021916908373ffffffffffffffffffffffffffffffffffffffff1602179055503480156200011b57600080fd5b506040518060400160405280600481526020017f54524545000000000000000000000000000000000000000000000000000000008152506040518060400160405280600481526020017f54726565000000000000000000000000000000000000000000000000000000008152508160009080519060200190620001a0929190620001c2565b508060019080519060200190620001b9929190620001c2565b505050620004b5565b828054620001d0906200047f565b90600052602060002090601f016020900481019282620001f4576000855562000240565b82601f106200020f57805160ff191683800117855562000240565b8280016001018555821562000240579182015b828111156200023f57825182559160200191906001019062000222565b5b5090506200024f919062000253565b5090565b5b808211156200026e57600081600090555060010162000254565b5090565b7f4e487b7100000000000000000000000000000000000000000000000000000000600052601160045260246000fd5b60008160011c9050919050565b6000808291508390505b60018511156200030057808604811115620002d857620002d762000272565b5b6001851615620002e85780820291505b8081029050620002f885620002a1565b9450620002b8565b94509492505050565b6000826200031b5760019050620003ee565b816200032b5760009050620003ee565b81600181146200034457600281146200034f5762000385565b6001915050620003ee565b60ff84111562000364576200036362000272565b5b8360020a9150848211156200037e576200037d62000272565b5b50620003ee565b5060208310610133831016604e8410600b8410161715620003bf5782820a905083811115620003b957620003b862000272565b5b620003ee565b620003ce8484846001620002ae565b92509050818404811115620003e857620003e762000272565b5b81810290505b9392505050565b6000819050919050565b60006200040c82620003f5565b91506200041983620003f5565b9250620004487fffffffffffffffffffffffffffffffffffffffffffffffffffffffffffffffff848462000309565b905092915050565b7f4e487b7100000000000000000000000000000000000000000000000000000000600052602260045260246000fd5b600060028204905060018216806200049857607f821691505b60208210811415620004af57620004ae62000450565b5b50919050565b61332580620004c56000396000f3fe6080604052600436106101665760003560e01c806370a08231116100d15780639d1b464a1161008a578063c87b56dd11610064578063c87b56dd1461051e578063d94406f21461055b578063e985e9c514610598578063f2fde38b146105d557610166565b80639d1b464a146104a1578063a22cb465146104cc578063b88d4fde146104f557610166565b806370a08231146103635780637a508022146103a0578063850b0f3c146103e05780638536496f1461041d5780638bbfcac31461043957806395d89b411461047657610166565b806321cde2021161012357806321cde2021461025f57806323b872dd1461027b57806342842e0e146102a45780635fa461fc146102cd5780636352211e1461030a5780636cad69321461034757610166565b806301ffc9a71461016b57806306fdde03146101a8578063081812fc146101d3578063095ea7b314610210578063104e21b21461023957806310d1eb2a14610255575b600080fd5b34801561017757600080fd5b50610192600480360381019061018d91906120eb565b6105f1565b60405161019f9190612133565b60405180910390f35b3480156101b457600080fd5b506101bd6106d3565b6040516101ca91906121e7565b60405180910390f35b3480156101df57600080fd5b506101fa60048036038101906101f5919061223f565b610765565b60405161020791906122ad565b60405180910390f35b34801561021c57600080fd5b50610237600480360381019061023291906122f4565b6107ea565b005b610253600480360381019061024e9190612334565b610902565b005b61025d6109a0565b005b6102796004803603810190610274919061223f565b610afb565b005b34801561028757600080fd5b506102a2600480360381019061029d9190612361565b610d1c565b005b3480156102b057600080fd5b506102cb60048036038101906102c69190612361565b610d7c565b005b3480156102d957600080fd5b506102f460048036038101906102ef919061223f565b610d9c565b60405161030191906123c3565b60405180910390f35b34801561031657600080fd5b50610331600480360381019061032c919061223f565b610dcb565b60405161033e91906122ad565b60405180910390f35b610361600480360381019061035c91906123de565b610e7d565b005b34801561036f57600080fd5b5061038a60048036038101906103859190612334565b610f6e565b60405161039791906123c3565b60405180910390f35b3480156103ac57600080fd5b506103c760048036038101906103c2919061223f565b611026565b6040516103d7949392919061241e565b60405180910390f35b3480156103ec57600080fd5b506104076004803603810190610402919061223f565b611066565b60405161041491906123c3565b60405180910390f35b610437600480360381019061043291906123de565b611095565b005b34801561044557600080fd5b50610460600480360381019061045b919061223f565b61111d565b60405161046d91906123c3565b60405180910390f35b34801561048257600080fd5b5061048b61114c565b60405161049891906121e7565b60405180910390f35b3480156104ad57600080fd5b506104b66111de565b6040516104c391906123c3565b60405180910390f35b3480156104d857600080fd5b506104f360048036038101906104ee919061248f565b611215565b005b34801561050157600080fd5b5061051c60048036038101906105179190612604565b61122b565b005b34801561052a57600080fd5b506105456004803603810190610540919061223f565b61128d565b60405161055291906121e7565b60405180910390f35b34801561056757600080fd5b50610582600480360381019061057d919061223f565b611334565b60405161058f91906123c3565b60405180910390f35b3480156105a457600080fd5b506105bf60048036038101906105ba9190612687565b611363565b6040516105cc9190612133565b60405180910390f35b6105ef60048036038101906105ea9190612334565b6113f7565b005b60007f80ac58cd000000000000000000000000000000000000000000000000000000007bffffffffffffffffffffffffffffffffffffffffffffffffffffffff1916827bffffffffffffffffffffffffffffffffffffffffffffffffffffffff191614806106bc57507f5b5e139f000000000000000000000000000000000000000000000000000000007bffffffffffffffffffffffffffffffffffffffffffffffffffffffff1916827bffffffffffffffffffffffffffffffffffffffffffffffffffffffff1916145b806106cc57506106cb82611495565b5b9050919050565b6060600080546106e2906126f6565b80601f016020809104026020016040519081016040528092919081815260200182805461070e906126f6565b801561075b5780601f106107305761010080835404028352916020019161075b565b820191906000526020600020905b81548152906001019060200180831161073e57829003601f168201915b5050505050905090565b6000610770826114ff565b6107af576040517f08c379a00000000000000000000000000000000000000000000000000000000081526004016107a69061279a565b60405180910390fd5b6004600083815260200190815260200160002060009054906101000a900473ffffffffffffffffffffffffffffffffffffffff169050919050565b60006107f582610dcb565b90508073ffffffffffffffffffffffffffffffffffffffff168373ffffffffffffffffffffffffffffffffffffffff161415610866576040517f08c379a000000000000000000000000000000000000000000000000000000000815260040161085d9061282c565b60405180910390fd5b8073ffffffffffffffffffffffffffffffffffffffff1661088561156b565b73ffffffffffffffffffffffffffffffffffffffff1614806108b457506108b3816108ae61156b565b611363565b5b6108f3576040517f08c379a00000000000000000000000000000000000000000000000000000000081526004016108ea906128be565b60405180910390fd5b6108fd8383611573565b505050565b3373ffffffffffffffffffffffffffffffffffffffff16600960009054906101000a900473ffffffffffffffffffffffffffffffffffffffff1673ffffffffffffffffffffffffffffffffffffffff161461095c57600080fd5b80600b60006101000a81548173ffffffffffffffffffffffffffffffffffffffff021916908373ffffffffffffffffffffffffffffffffffffffff16021790555050565b600073ffffffffffffffffffffffffffffffffffffffff163373ffffffffffffffffffffffffffffffffffffffff1614158015610a0957503073ffffffffffffffffffffffffffffffffffffffff163373ffffffffffffffffffffffffffffffffffffffff1614155b610a1257600080fd5b610a1a6111de565b341015610a2657600080fd5b6000600c8054905090506000610a3b8261162c565b9050600c6040518060800160405280838152602001600181526020016000815260200160008152509080600181540180825580915050600190039060005260206000209060040201600090919091909150600082015181600001556020820151816001015560408201518160020155606082015181600301555050610ac03383611696565b7f5aa7f45898fcb5638757632f4ea98818ccb1f1b865b0721648cfb14cfcd2da9a82604051610aef91906123c3565b60405180910390a15050565b803373ffffffffffffffffffffffffffffffffffffffff16610b1c82610dcb565b73ffffffffffffffffffffffffffffffffffffffff1614610b3c57600080fd5b60006064610b498461111d565b610b53919061290d565b90506000670de0b6b3a7640000610b698561111d565b610b73919061290d565b905081600c8581548110610b8a57610b89612967565b5b9060005260206000209060040201600201541015610ba757600080fd5b600a60009054906101000a900473ffffffffffffffffffffffffffffffffffffffff1673ffffffffffffffffffffffffffffffffffffffff166323b872dd3330846040518463ffffffff1660e01b8152600401610c0693929190612996565b6020604051808303816000875af1158015610c25573d6000803e3d6000fd5b505050506040513d601f19601f82011682018060405250810190610c4991906129e2565b5081600c8581548110610c5f57610c5e612967565b5b906000526020600020906004020160020154610c7b9190612a0f565b600c8581548110610c8f57610c8e612967565b5b906000526020600020906004020160020181905550600c8481548110610cb857610cb7612967565b5b90600052602060002090600402016001016000815480929190610cda90612a43565b91905055507f7ef1df0b6d95a41d9ebcaa695746726b382e110036a9127b009babdb11c656a284604051610d0e91906123c3565b60405180910390a150505050565b610d2d610d2761156b565b82611864565b610d6c576040517f08c379a0000000000000000000000000000000000000000000000000000000008152600401610d6390612afe565b60405180910390fd5b610d77838383611942565b505050565b610d978383836040518060200160405280600081525061122b565b505050565b6000600c8281548110610db257610db1612967565b5b9060005260206000209060040201600201549050919050565b6000806002600084815260200190815260200160002060009054906101000a900473ffffffffffffffffffffffffffffffffffffffff169050600073ffffffffffffffffffffffffffffffffffffffff168173ffffffffffffffffffffffffffffffffffffffff161415610e74576040517f08c379a0000000000000000000000000000000000000000000000000000000008152600401610e6b90612b90565b60405180910390fd5b80915050919050565b3373ffffffffffffffffffffffffffffffffffffffff16600b60009054906101000a900473ffffffffffffffffffffffffffffffffffffffff1673ffffffffffffffffffffffffffffffffffffffff1614610ed757600080fd5b80600c8381548110610eec57610eeb612967565b5b906000526020600020906004020160020154610f089190612bb0565b600c8381548110610f1c57610f1b612967565b5b9060005260206000209060040201600201819055507ffa65d54a674245861f726a6e25ffd7e32b5f7e7a6a62bd81b222ad6f53643d288282604051610f62929190612c06565b60405180910390a15050565b60008073ffffffffffffffffffffffffffffffffffffffff168273ffffffffffffffffffffffffffffffffffffffff161415610fdf576040517f08c379a0000000000000000000000000000000000000000000000000000000008152600401610fd690612ca1565b60405180910390fd5b600360008373ffffffffffffffffffffffffffffffffffffffff1673ffffffffffffffffffffffffffffffffffffffff168152602001908152602001600020549050919050565b600c818154811061103657600080fd5b90600052602060002090600402016000915090508060000154908060010154908060020154908060030154905084565b6000600c828154811061107c5761107b612967565b5b9060005260206000209060040201600301549050919050565b3373ffffffffffffffffffffffffffffffffffffffff16600b60009054906101000a900473ffffffffffffffffffffffffffffffffffffffff1673ffffffffffffffffffffffffffffffffffffffff16146110ef57600080fd5b80600c838154811061110457611103612967565b5b9060005260206000209060040201600301819055505050565b6000600c828154811061113357611132612967565b5b9060005260206000209060040201600101549050919050565b60606001805461115b906126f6565b80601f0160208091040260200160405190810160405280929190818152602001828054611187906126f6565b80156111d45780601f106111a9576101008083540402835291602001916111d4565b820191906000526020600020905b8154815290600101906020018083116111b757829003601f168201915b5050505050905090565b6000670de0b6b3a7640000600180600c805490506111fc9190612bb0565b611206919061290d565b611210919061290d565b905090565b61122761122061156b565b8383611b9e565b5050565b61123c61123661156b565b83611864565b61127b576040517f08c379a000000000000000000000000000000000000000000000000000000000815260040161127290612afe565b60405180910390fd5b61128784848484611d0b565b50505050565b6060611298826114ff565b6112d7576040517f08c379a00000000000000000000000000000000000000000000000000000000081526004016112ce90612d33565b60405180910390fd5b60006112e1611d67565b90506000815111611301576040518060200160405280600081525061132c565b8061130b84611d7e565b60405160200161131c929190612d8f565b6040516020818303038152906040525b915050919050565b6000600c828154811061134a57611349612967565b5b9060005260206000209060040201600001549050919050565b6000600560008473ffffffffffffffffffffffffffffffffffffffff1673ffffffffffffffffffffffffffffffffffffffff16815260200190815260200160002060008373ffffffffffffffffffffffffffffffffffffffff1673ffffffffffffffffffffffffffffffffffffffff16815260200190815260200160002060009054906101000a900460ff16905092915050565b3373ffffffffffffffffffffffffffffffffffffffff16600960009054906101000a900473ffffffffffffffffffffffffffffffffffffffff1673ffffffffffffffffffffffffffffffffffffffff161461145157600080fd5b80600960006101000a81548173ffffffffffffffffffffffffffffffffffffffff021916908373ffffffffffffffffffffffffffffffffffffffff16021790555050565b60007f01ffc9a7000000000000000000000000000000000000000000000000000000007bffffffffffffffffffffffffffffffffffffffffffffffffffffffff1916827bffffffffffffffffffffffffffffffffffffffffffffffffffffffff1916149050919050565b60008073ffffffffffffffffffffffffffffffffffffffff166002600084815260200190815260200160002060009054906101000a900473ffffffffffffffffffffffffffffffffffffffff1673ffffffffffffffffffffffffffffffffffffffff1614159050919050565b600033905090565b816004600083815260200190815260200160002060006101000a81548173ffffffffffffffffffffffffffffffffffffffff021916908373ffffffffffffffffffffffffffffffffffffffff160217905550808273ffffffffffffffffffffffffffffffffffffffff166115e683610dcb565b73ffffffffffffffffffffffffffffffffffffffff167f8c5be1e5ebec7d5bd14f71427d1e84f3dd0314c0f7b2291e5b200ac8c7c3b92560405160405180910390a45050565b6000806006548361163d9190612bb0565b60405160200161164d9190612dd4565b6040516020818303038152906040528051906020012060001c90506006600081548092919061167b90612a43565b91905055506008548161168e9190612e1e565b915050919050565b600073ffffffffffffffffffffffffffffffffffffffff168273ffffffffffffffffffffffffffffffffffffffff161415611706576040517f08c379a00000000000000000000000000000000000000000000000000000000081526004016116fd90612e9b565b60405180910390fd5b61170f816114ff565b1561174f576040517f08c379a000000000000000000000000000000000000000000000000000000000815260040161174690612f07565b60405180910390fd5b61175b60008383611edf565b6001600360008473ffffffffffffffffffffffffffffffffffffffff1673ffffffffffffffffffffffffffffffffffffffff16815260200190815260200160002060008282546117ab9190612bb0565b92505081905550816002600083815260200190815260200160002060006101000a81548173ffffffffffffffffffffffffffffffffffffffff021916908373ffffffffffffffffffffffffffffffffffffffff160217905550808273ffffffffffffffffffffffffffffffffffffffff16600073ffffffffffffffffffffffffffffffffffffffff167fddf252ad1be2c89b69c2b068fc378daa952ba7f163c4a11628f55a4df523b3ef60405160405180910390a45050565b600061186f826114ff565b6118ae576040517f08c379a00000000000000000000000000000000000000000000000000000000081526004016118a590612f99565b60405180910390fd5b60006118b983610dcb565b90508073ffffffffffffffffffffffffffffffffffffffff168473ffffffffffffffffffffffffffffffffffffffff16148061192857508373ffffffffffffffffffffffffffffffffffffffff1661191084610765565b73ffffffffffffffffffffffffffffffffffffffff16145b8061193957506119388185611363565b5b91505092915050565b8273ffffffffffffffffffffffffffffffffffffffff1661196282610dcb565b73ffffffffffffffffffffffffffffffffffffffff16146119b8576040517f08c379a00000000000000000000000000000000000000000000000000000000081526004016119af9061302b565b60405180910390fd5b600073ffffffffffffffffffffffffffffffffffffffff168273ffffffffffffffffffffffffffffffffffffffff161415611a28576040517f08c379a0000000000000000000000000000000000000000000000000000000008152600401611a1f906130bd565b60405180910390fd5b611a33838383611edf565b611a3e600082611573565b6001600360008573ffffffffffffffffffffffffffffffffffffffff1673ffffffffffffffffffffffffffffffffffffffff1681526020019081526020016000206000828254611a8e9190612a0f565b925050819055506001600360008473ffffffffffffffffffffffffffffffffffffffff1673ffffffffffffffffffffffffffffffffffffffff1681526020019081526020016000206000828254611ae59190612bb0565b92505081905550816002600083815260200190815260200160002060006101000a81548173ffffffffffffffffffffffffffffffffffffffff021916908373ffffffffffffffffffffffffffffffffffffffff160217905550808273ffffffffffffffffffffffffffffffffffffffff168473ffffffffffffffffffffffffffffffffffffffff167fddf252ad1be2c89b69c2b068fc378daa952ba7f163c4a11628f55a4df523b3ef60405160405180910390a4505050565b8173ffffffffffffffffffffffffffffffffffffffff168373ffffffffffffffffffffffffffffffffffffffff161415611c0d576040517f08c379a0000000000000000000000000000000000000000000000000000000008152600401611c0490613129565b60405180910390fd5b80600560008573ffffffffffffffffffffffffffffffffffffffff1673ffffffffffffffffffffffffffffffffffffffff16815260200190815260200160002060008473ffffffffffffffffffffffffffffffffffffffff1673ffffffffffffffffffffffffffffffffffffffff16815260200190815260200160002060006101000a81548160ff0219169083151502179055508173ffffffffffffffffffffffffffffffffffffffff168373ffffffffffffffffffffffffffffffffffffffff167f17307eab39ab6107e8899845ad3d59bd9653f200f220920489ca2b5937696c3183604051611cfe9190612133565b60405180910390a3505050565b611d16848484611942565b611d2284848484611ee4565b611d61576040517f08c379a0000000000000000000000000000000000000000000000000000000008152600401611d58906131bb565b60405180910390fd5b50505050565b606060405180602001604052806000815250905090565b60606000821415611dc6576040518060400160405280600181526020017f30000000000000000000000000000000000000000000000000000000000000008152509050611eda565b600082905060005b60008214611df8578080611de190612a43565b915050600a82611df191906131db565b9150611dce565b60008167ffffffffffffffff811115611e1457611e136124d9565b5b6040519080825280601f01601f191660200182016040528015611e465781602001600182028036833780820191505090505b5090505b60008514611ed357600182611e5f9190612a0f565b9150600a85611e6e9190612e1e565b6030611e7a9190612bb0565b60f81b818381518110611e9057611e8f612967565b5b60200101907effffffffffffffffffffffffffffffffffffffffffffffffffffffffffffff1916908160001a905350600a85611ecc91906131db565b9450611e4a565b8093505050505b919050565b505050565b6000611f058473ffffffffffffffffffffffffffffffffffffffff1661206c565b1561205f578373ffffffffffffffffffffffffffffffffffffffff1663150b7a02611f2e61156b565b8786866040518563ffffffff1660e01b8152600401611f509493929190613261565b6020604051808303816000875af1925050508015611f8c57506040513d601f19601f82011682018060405250810190611f8991906132c2565b60015b61200f573d8060008114611fbc576040519150601f19603f3d011682016040523d82523d6000602084013e611fc1565b606091505b50600081511415612007576040517f08c379a0000000000000000000000000000000000000000000000000000000008152600401611ffe906131bb565b60405180910390fd5b805181602001fd5b63150b7a0260e01b7bffffffffffffffffffffffffffffffffffffffffffffffffffffffff1916817bffffffffffffffffffffffffffffffffffffffffffffffffffffffff191614915050612064565b600190505b949350505050565b600080823b905060008111915050919050565b6000604051905090565b600080fd5b600080fd5b60007fffffffff0000000000000000000000000000000000000000000000000000000082169050919050565b6120c881612093565b81146120d357600080fd5b50565b6000813590506120e5816120bf565b92915050565b60006020828403121561210157612100612089565b5b600061210f848285016120d6565b91505092915050565b60008115159050919050565b61212d81612118565b82525050565b60006020820190506121486000830184612124565b92915050565b600081519050919050565b600082825260208201905092915050565b60005b8381101561218857808201518184015260208101905061216d565b83811115612197576000848401525b50505050565b6000601f19601f8301169050919050565b60006121b98261214e565b6121c38185612159565b93506121d381856020860161216a565b6121dc8161219d565b840191505092915050565b6000602082019050818103600083015261220181846121ae565b905092915050565b6000819050919050565b61221c81612209565b811461222757600080fd5b50565b60008135905061223981612213565b92915050565b60006020828403121561225557612254612089565b5b60006122638482850161222a565b91505092915050565b600073ffffffffffffffffffffffffffffffffffffffff82169050919050565b60006122978261226c565b9050919050565b6122a78161228c565b82525050565b60006020820190506122c2600083018461229e565b92915050565b6122d18161228c565b81146122dc57600080fd5b50565b6000813590506122ee816122c8565b92915050565b6000806040838503121561230b5761230a612089565b5b6000612319858286016122df565b925050602061232a8582860161222a565b9150509250929050565b60006020828403121561234a57612349612089565b5b6000612358848285016122df565b91505092915050565b60008060006060848603121561237a57612379612089565b5b6000612388868287016122df565b9350506020612399868287016122df565b92505060406123aa8682870161222a565b9150509250925092565b6123bd81612209565b82525050565b60006020820190506123d860008301846123b4565b92915050565b600080604083850312156123f5576123f4612089565b5b60006124038582860161222a565b92505060206124148582860161222a565b9150509250929050565b600060808201905061243360008301876123b4565b61244060208301866123b4565b61244d60408301856123b4565b61245a60608301846123b4565b95945050505050565b61246c81612118565b811461247757600080fd5b50565b60008135905061248981612463565b92915050565b600080604083850312156124a6576124a5612089565b5b60006124b4858286016122df565b92505060206124c58582860161247a565b9150509250929050565b600080fd5b600080fd5b7f4e487b7100000000000000000000000000000000000000000000000000000000600052604160045260246000fd5b6125118261219d565b810181811067ffffffffffffffff821117156125305761252f6124d9565b5b80604052505050565b600061254361207f565b905061254f8282612508565b919050565b600067ffffffffffffffff82111561256f5761256e6124d9565b5b6125788261219d565b9050602081019050919050565b82818337600083830152505050565b60006125a76125a284612554565b612539565b9050828152602081018484840111156125c3576125c26124d4565b5b6125ce848285612585565b509392505050565b600082601f8301126125eb576125ea6124cf565b5b81356125fb848260208601612594565b91505092915050565b6000806000806080858703121561261e5761261d612089565b5b600061262c878288016122df565b945050602061263d878288016122df565b935050604061264e8782880161222a565b925050606085013567ffffffffffffffff81111561266f5761266e61208e565b5b61267b878288016125d6565b91505092959194509250565b6000806040838503121561269e5761269d612089565b5b60006126ac858286016122df565b92505060206126bd858286016122df565b9150509250929050565b7f4e487b7100000000000000000000000000000000000000000000000000000000600052602260045260246000fd5b6000600282049050600182168061270e57607f821691505b60208210811415612722576127216126c7565b5b50919050565b7f4552433732313a20617070726f76656420717565727920666f72206e6f6e657860008201527f697374656e7420746f6b656e0000000000000000000000000000000000000000602082015250565b6000612784602c83612159565b915061278f82612728565b604082019050919050565b600060208201905081810360008301526127b381612777565b9050919050565b7f4552433732313a20617070726f76616c20746f2063757272656e74206f776e6560008201527f7200000000000000000000000000000000000000000000000000000000000000602082015250565b6000612816602183612159565b9150612821826127ba565b604082019050919050565b6000602082019050818103600083015261284581612809565b9050919050565b7f4552433732313a20617070726f76652063616c6c6572206973206e6f74206f7760008201527f6e6572206e6f7220617070726f76656420666f7220616c6c0000000000000000602082015250565b60006128a8603883612159565b91506128b38261284c565b604082019050919050565b600060208201905081810360008301526128d78161289b565b9050919050565b7f4e487b7100000000000000000000000000000000000000000000000000000000600052601160045260246000fd5b600061291882612209565b915061292383612209565b9250817fffffffffffffffffffffffffffffffffffffffffffffffffffffffffffffffff048311821515161561295c5761295b6128de565b5b828202905092915050565b7f4e487b7100000000000000000000000000000000000000000000000000000000600052603260045260246000fd5b60006060820190506129ab600083018661229e565b6129b8602083018561229e565b6129c560408301846123b4565b949350505050565b6000815190506129dc81612463565b92915050565b6000602082840312156129f8576129f7612089565b5b6000612a06848285016129cd565b91505092915050565b6000612a1a82612209565b9150612a2583612209565b925082821015612a3857612a376128de565b5b828203905092915050565b6000612a4e82612209565b91507fffffffffffffffffffffffffffffffffffffffffffffffffffffffffffffffff821415612a8157612a806128de565b5b600182019050919050565b7f4552433732313a207472616e736665722063616c6c6572206973206e6f74206f60008201527f776e6572206e6f7220617070726f766564000000000000000000000000000000602082015250565b6000612ae8603183612159565b9150612af382612a8c565b604082019050919050565b60006020820190508181036000830152612b1781612adb565b9050919050565b7f4552433732313a206f776e657220717565727920666f72206e6f6e657869737460008201527f656e7420746f6b656e0000000000000000000000000000000000000000000000602082015250565b6000612b7a602983612159565b9150612b8582612b1e565b604082019050919050565b60006020820190508181036000830152612ba981612b6d565b9050919050565b6000612bbb82612209565b9150612bc683612209565b9250827fffffffffffffffffffffffffffffffffffffffffffffffffffffffffffffffff03821115612bfb57612bfa6128de565b5b828201905092915050565b6000604082019050612c1b60008301856123b4565b612c2860208301846123b4565b9392505050565b7f4552433732313a2062616c616e636520717565727920666f7220746865207a6560008201527f726f206164647265737300000000000000000000000000000000000000000000602082015250565b6000612c8b602a83612159565b9150612c9682612c2f565b604082019050919050565b60006020820190508181036000830152612cba81612c7e565b9050919050565b7f4552433732314d657461646174613a2055524920717565727920666f72206e6f60008201527f6e6578697374656e7420746f6b656e0000000000000000000000000000000000602082015250565b6000612d1d602f83612159565b9150612d2882612cc1565b604082019050919050565b60006020820190508181036000830152612d4c81612d10565b9050919050565b600081905092915050565b6000612d698261214e565b612d738185612d53565b9350612d8381856020860161216a565b80840191505092915050565b6000612d9b8285612d5e565b9150612da78284612d5e565b91508190509392505050565b6000819050919050565b612dce612dc982612209565b612db3565b82525050565b6000612de08284612dbd565b60208201915081905092915050565b7f4e487b7100000000000000000000000000000000000000000000000000000000600052601260045260246000fd5b6000612e2982612209565b9150612e3483612209565b925082612e4457612e43612def565b5b828206905092915050565b7f4552433732313a206d696e7420746f20746865207a65726f2061646472657373600082015250565b6000612e85602083612159565b9150612e9082612e4f565b602082019050919050565b60006020820190508181036000830152612eb481612e78565b9050919050565b7f4552433732313a20746f6b656e20616c7265616479206d696e74656400000000600082015250565b6000612ef1601c83612159565b9150612efc82612ebb565b602082019050919050565b60006020820190508181036000830152612f2081612ee4565b9050919050565b7f4552433732313a206f70657261746f7220717565727920666f72206e6f6e657860008201527f697374656e7420746f6b656e0000000000000000000000000000000000000000602082015250565b6000612f83602c83612159565b9150612f8e82612f27565b604082019050919050565b60006020820190508181036000830152612fb281612f76565b9050919050565b7f4552433732313a207472616e73666572206f6620746f6b656e2074686174206960008201527f73206e6f74206f776e0000000000000000000000000000000000000000000000602082015250565b6000613015602983612159565b915061302082612fb9565b604082019050919050565b6000602082019050818103600083015261304481613008565b9050919050565b7f4552433732313a207472616e7366657220746f20746865207a65726f2061646460008201527f7265737300000000000000000000000000000000000000000000000000000000602082015250565b60006130a7602483612159565b91506130b28261304b565b604082019050919050565b600060208201905081810360008301526130d68161309a565b9050919050565b7f4552433732313a20617070726f766520746f2063616c6c657200000000000000600082015250565b6000613113601983612159565b915061311e826130dd565b602082019050919050565b6000602082019050818103600083015261314281613106565b9050919050565b7f4552433732313a207472616e7366657220746f206e6f6e20455243373231526560008201527f63656976657220696d706c656d656e7465720000000000000000000000000000602082015250565b60006131a5603283612159565b91506131b082613149565b604082019050919050565b600060208201905081810360008301526131d481613198565b9050919050565b60006131e682612209565b91506131f183612209565b92508261320157613200612def565b5b828204905092915050565b600081519050919050565b600082825260208201905092915050565b60006132338261320c565b61323d8185613217565b935061324d81856020860161216a565b6132568161219d565b840191505092915050565b6000608082019050613276600083018761229e565b613283602083018661229e565b61329060408301856123b4565b81810360608301526132a28184613228565b905095945050505050565b6000815190506132bc816120bf565b92915050565b6000602082840312156132d8576132d7612089565b5b60006132e6848285016132ad565b9150509291505056fea26469706673582212204a666dccef8a433eea831fefa91189991ac2b800d2766902531ec8290bb985be64736f6c634300080b0033",
  "immutableReferences": {},
  "source": "// SPDX-License-Identifier: UNLICENSED\r\n\r\npragma solidity ^0.8.0;\r\n\r\nimport \"../node_modules/@openzeppelin/contracts/token/ERC721/ERC721.sol\";\r\nimport \"../node_modules/@openzeppelin/contracts/token/ERC20/IERC20.sol\";\r\n\r\ncontract Tree is ERC721 {\r\n    event NewTree(uint treeId);\r\n    event GainExp(uint treeId, uint amount);\r\n    event GainLevel(uint treeId);\r\n\r\n    uint Nonce = 1;\r\n    uint Digits = 16;\r\n    uint Modulus = 10 ** Digits;\r\n    address ContractOwner = 0xf577601a5eF1d5079Da672f01D7aB3b80dD2bd1D;\r\n    \r\n    //Get Token Address after TokenContract deployment\r\n    address Token = 0xCd571eD43B347a4Ab01BAe2d23F9535BBAFe955d;\r\n    \r\n    //QuestContract is updated after deployment\r\n    address QuestContract = address(0);\r\n\r\n    struct TreeStruct {\r\n        uint treeDNA;\r\n        uint level;\r\n        uint exp;\r\n        uint onQuestUntil;\r\n    }\r\n\r\n    TreeStruct[] public trees;\r\n\r\n    constructor() ERC721(\"TREE\", \"Tree\") {\r\n    }\r\n\r\n\r\n    //Modifiers\r\n\r\n    modifier onlyOwnerOf(uint _treeId) {\r\n        require(ownerOf(_treeId) == msg.sender);\r\n        _;\r\n    }\r\n\r\n    modifier onlyOwner() {\r\n        require(ContractOwner == msg.sender);\r\n        _;\r\n    }\r\n\r\n    modifier onlyQuestContract() {\r\n        require(QuestContract == msg.sender);\r\n        _;\r\n    }\r\n\r\n    //View Functions\r\n\r\n    function treeDNA(uint treeId) public view returns (uint) {\r\n        return trees[treeId].treeDNA;\r\n    }\r\n\r\n    function treeLevel(uint treeId) public view returns (uint) {\r\n        return trees[treeId].level;\r\n    }\r\n\r\n    function treeExp(uint treeId) public view returns (uint) {\r\n        return trees[treeId].exp;\r\n    }\r\n\r\n    function currentPrice() public view returns (uint) {\r\n        return ((trees.length+1)*1)*10**18;\r\n    }\r\n\r\n    function questStatus(uint treeId) public view returns (uint) {\r\n        return trees[treeId].onQuestUntil;\r\n    }\r\n\r\n\r\n    //Payable Functions\r\n\r\n    function updateQuestStatus(uint treeId, uint newValue) public payable onlyQuestContract() {\r\n        trees[treeId].onQuestUntil = newValue;\r\n    }\r\n\r\n    function gainExp(uint treeId, uint amount) public payable onlyQuestContract() {\r\n        //Cambiar a que solo lo pueda hacer el contrato de quests y no el usuario\r\n        trees[treeId].exp = trees[treeId].exp + amount;\r\n        emit GainExp(treeId, amount);\r\n    }\r\n\r\n    function gainLevel(uint treeId) public payable onlyOwnerOf(treeId) {\r\n        uint Exp = treeLevel(treeId)*100;\r\n        uint amount = treeLevel(treeId)*10**18;\r\n        require(trees[treeId].exp >= Exp);\r\n        IERC20(Token).transferFrom(msg.sender, address(this), amount);\r\n        trees[treeId].exp = trees[treeId].exp-Exp;\r\n        trees[treeId].level++;\r\n        emit GainLevel(treeId);\r\n    }\r\n\r\n    function _generateRandomDNA(uint _treeId) internal returns (uint) {\r\n        uint rand = uint(keccak256(abi.encodePacked(_treeId + Nonce)));\r\n        Nonce++;\r\n        return rand % Modulus;\r\n    }\r\n\r\n    function createNewTree() public payable {\r\n        require(msg.sender != address(0) && msg.sender != address(this));\r\n        require(msg.value >= currentPrice());\r\n        uint id = trees.length;\r\n        uint DNA = _generateRandomDNA(id);\r\n        trees.push(TreeStruct(DNA, 1, 0, 0));\r\n        _mint(msg.sender, id);\r\n        emit NewTree(id);\r\n\r\n    }\r\n\r\n    function transferOwnership(address newOwner) public payable onlyOwner() {\r\n        ContractOwner = newOwner;\r\n    }\r\n\r\n    function transferQuestContract(address newQuestContract) public payable onlyOwner() {\r\n        QuestContract = newQuestContract;\r\n    }\r\n\r\n}",
  "sourcePath": "C:\\Users\\jtsch\\OneDrive\\Escritorio\\Python\\SmartContracts-NFT-Agus\\contracts\\Tree.sol",
  "compiler": {
    "name": "solc",
    "version": "0.8.11+commit.d7f03943.Emscripten.clang"
  },
  "schemaVersion": "3.4.3",
  "updatedAt": "2022-01-11T16:16:50.987Z",
  "devdoc": {
    "kind": "dev",
    "methods": {
      "approve(address,uint256)": {
        "details": "See {IERC721-approve}."
      },
      "balanceOf(address)": {
        "details": "See {IERC721-balanceOf}."
      },
      "getApproved(uint256)": {
        "details": "See {IERC721-getApproved}."
      },
      "isApprovedForAll(address,address)": {
        "details": "See {IERC721-isApprovedForAll}."
      },
      "name()": {
        "details": "See {IERC721Metadata-name}."
      },
      "ownerOf(uint256)": {
        "details": "See {IERC721-ownerOf}."
      },
      "safeTransferFrom(address,address,uint256)": {
        "details": "See {IERC721-safeTransferFrom}."
      },
      "safeTransferFrom(address,address,uint256,bytes)": {
        "details": "See {IERC721-safeTransferFrom}."
      },
      "setApprovalForAll(address,bool)": {
        "details": "See {IERC721-setApprovalForAll}."
      },
      "supportsInterface(bytes4)": {
        "details": "See {IERC165-supportsInterface}."
      },
      "symbol()": {
        "details": "See {IERC721Metadata-symbol}."
      },
      "tokenURI(uint256)": {
        "details": "See {IERC721Metadata-tokenURI}."
      },
      "transferFrom(address,address,uint256)": {
        "details": "See {IERC721-transferFrom}."
      }
    },
    "version": 1
  },
  "userdoc": {
    "kind": "user",
    "methods": {},
    "version": 1
  }
}