{
  "contractName": "Tree",
  "abi": [
    {
      "anonymous": false,
      "inputs": [
        {
          "indexed": true,
          "internalType": "address",
          "name": "owner",
          "type": "address"
        },
        {
          "indexed": true,
          "internalType": "address",
          "name": "approved",
          "type": "address"
        },
        {
          "indexed": true,
          "internalType": "uint256",
          "name": "tokenId",
          "type": "uint256"
        }
      ],
      "name": "Approval",
      "type": "event"
    },
    {
      "anonymous": false,
      "inputs": [
        {
          "indexed": true,
          "internalType": "address",
          "name": "owner",
          "type": "address"
        },
        {
          "indexed": true,
          "internalType": "address",
          "name": "operator",
          "type": "address"
        },
        {
          "indexed": false,
          "internalType": "bool",
          "name": "approved",
          "type": "bool"
        }
      ],
      "name": "ApprovalForAll",
      "type": "event"
    },
    {
      "anonymous": false,
      "inputs": [
        {
          "indexed": false,
          "internalType": "uint256",
          "name": "treeId",
          "type": "uint256"
        },
        {
          "indexed": false,
          "internalType": "uint256",
          "name": "buildingId",
          "type": "uint256"
        }
      ],
      "name": "BuildingLevelUp",
      "type": "event"
    },
    {
      "anonymous": false,
      "inputs": [
        {
          "indexed": false,
          "internalType": "uint256",
          "name": "treeId",
          "type": "uint256"
        },
        {
          "indexed": false,
          "internalType": "uint256",
          "name": "amount",
          "type": "uint256"
        }
      ],
      "name": "GainExp",
      "type": "event"
    },
    {
      "anonymous": false,
      "inputs": [
        {
          "indexed": false,
          "internalType": "uint256",
          "name": "treeId",
          "type": "uint256"
        }
      ],
      "name": "GainLevel",
      "type": "event"
    },
    {
      "anonymous": false,
      "inputs": [
        {
          "indexed": false,
          "internalType": "uint256",
          "name": "treeId",
          "type": "uint256"
        }
      ],
      "name": "NewTree",
      "type": "event"
    },
    {
      "anonymous": false,
      "inputs": [
        {
          "indexed": true,
          "internalType": "address",
          "name": "from",
          "type": "address"
        },
        {
          "indexed": true,
          "internalType": "address",
          "name": "to",
          "type": "address"
        },
        {
          "indexed": true,
          "internalType": "uint256",
          "name": "tokenId",
          "type": "uint256"
        }
      ],
      "name": "Transfer",
      "type": "event"
    },
    {
      "inputs": [
        {
          "internalType": "address",
          "name": "to",
          "type": "address"
        },
        {
          "internalType": "uint256",
          "name": "tokenId",
          "type": "uint256"
        }
      ],
      "name": "approve",
      "outputs": [],
      "stateMutability": "nonpayable",
      "type": "function"
    },
    {
      "inputs": [
        {
          "internalType": "address",
          "name": "owner",
          "type": "address"
        }
      ],
      "name": "balanceOf",
      "outputs": [
        {
          "internalType": "uint256",
          "name": "",
          "type": "uint256"
        }
      ],
      "stateMutability": "view",
      "type": "function"
    },
    {
      "inputs": [
        {
          "internalType": "uint256",
          "name": "tokenId",
          "type": "uint256"
        }
      ],
      "name": "getApproved",
      "outputs": [
        {
          "internalType": "address",
          "name": "",
          "type": "address"
        }
      ],
      "stateMutability": "view",
      "type": "function"
    },
    {
      "inputs": [
        {
          "internalType": "address",
          "name": "owner",
          "type": "address"
        },
        {
          "internalType": "address",
          "name": "operator",
          "type": "address"
        }
      ],
      "name": "isApprovedForAll",
      "outputs": [
        {
          "internalType": "bool",
          "name": "",
          "type": "bool"
        }
      ],
      "stateMutability": "view",
      "type": "function"
    },
    {
      "inputs": [],
      "name": "name",
      "outputs": [
        {
          "internalType": "string",
          "name": "",
          "type": "string"
        }
      ],
      "stateMutability": "view",
      "type": "function"
    },
    {
      "inputs": [
        {
          "internalType": "uint256",
          "name": "tokenId",
          "type": "uint256"
        }
      ],
      "name": "ownerOf",
      "outputs": [
        {
          "internalType": "address",
          "name": "",
          "type": "address"
        }
      ],
      "stateMutability": "view",
      "type": "function"
    },
    {
      "inputs": [
        {
          "internalType": "address",
          "name": "from",
          "type": "address"
        },
        {
          "internalType": "address",
          "name": "to",
          "type": "address"
        },
        {
          "internalType": "uint256",
          "name": "tokenId",
          "type": "uint256"
        }
      ],
      "name": "safeTransferFrom",
      "outputs": [],
      "stateMutability": "nonpayable",
      "type": "function"
    },
    {
      "inputs": [
        {
          "internalType": "address",
          "name": "from",
          "type": "address"
        },
        {
          "internalType": "address",
          "name": "to",
          "type": "address"
        },
        {
          "internalType": "uint256",
          "name": "tokenId",
          "type": "uint256"
        },
        {
          "internalType": "bytes",
          "name": "_data",
          "type": "bytes"
        }
      ],
      "name": "safeTransferFrom",
      "outputs": [],
      "stateMutability": "nonpayable",
      "type": "function"
    },
    {
      "inputs": [
        {
          "internalType": "address",
          "name": "operator",
          "type": "address"
        },
        {
          "internalType": "bool",
          "name": "approved",
          "type": "bool"
        }
      ],
      "name": "setApprovalForAll",
      "outputs": [],
      "stateMutability": "nonpayable",
      "type": "function"
    },
    {
      "inputs": [
        {
          "internalType": "bytes4",
          "name": "interfaceId",
          "type": "bytes4"
        }
      ],
      "name": "supportsInterface",
      "outputs": [
        {
          "internalType": "bool",
          "name": "",
          "type": "bool"
        }
      ],
      "stateMutability": "view",
      "type": "function"
    },
    {
      "inputs": [],
      "name": "symbol",
      "outputs": [
        {
          "internalType": "string",
          "name": "",
          "type": "string"
        }
      ],
      "stateMutability": "view",
      "type": "function"
    },
    {
      "inputs": [
        {
          "internalType": "uint256",
          "name": "tokenId",
          "type": "uint256"
        }
      ],
      "name": "tokenURI",
      "outputs": [
        {
          "internalType": "string",
          "name": "",
          "type": "string"
        }
      ],
      "stateMutability": "view",
      "type": "function"
    },
    {
      "inputs": [
        {
          "internalType": "address",
          "name": "from",
          "type": "address"
        },
        {
          "internalType": "address",
          "name": "to",
          "type": "address"
        },
        {
          "internalType": "uint256",
          "name": "tokenId",
          "type": "uint256"
        }
      ],
      "name": "transferFrom",
      "outputs": [],
      "stateMutability": "nonpayable",
      "type": "function"
    },
    {
      "inputs": [
        {
          "internalType": "uint256",
          "name": "",
          "type": "uint256"
        }
      ],
      "name": "trees",
      "outputs": [
        {
          "internalType": "uint256",
          "name": "treeDNA",
          "type": "uint256"
        },
        {
          "internalType": "uint256",
          "name": "level",
          "type": "uint256"
        },
        {
          "internalType": "uint256",
          "name": "exp",
          "type": "uint256"
        },
        {
          "internalType": "uint256",
          "name": "barracks",
          "type": "uint256"
        },
        {
          "internalType": "uint256",
          "name": "trainingGrounds",
          "type": "uint256"
        },
        {
          "internalType": "uint256",
          "name": "onQuestUntil",
          "type": "uint256"
        }
      ],
      "stateMutability": "view",
      "type": "function"
    },
    {
      "inputs": [],
      "name": "initialize",
      "outputs": [],
      "stateMutability": "nonpayable",
      "type": "function"
    },
    {
      "inputs": [],
      "name": "vrf",
      "outputs": [
        {
          "internalType": "bytes32",
          "name": "result",
          "type": "bytes32"
        }
      ],
      "stateMutability": "view",
      "type": "function"
    },
    {
      "inputs": [
        {
          "internalType": "uint256",
          "name": "treeId",
          "type": "uint256"
        }
      ],
      "name": "treeDNA",
      "outputs": [
        {
          "internalType": "uint256",
          "name": "",
          "type": "uint256"
        }
      ],
      "stateMutability": "view",
      "type": "function"
    },
    {
      "inputs": [
        {
          "internalType": "uint256",
          "name": "treeId",
          "type": "uint256"
        }
      ],
      "name": "treeLevel",
      "outputs": [
        {
          "internalType": "uint256",
          "name": "",
          "type": "uint256"
        }
      ],
      "stateMutability": "view",
      "type": "function"
    },
    {
      "inputs": [
        {
          "internalType": "uint256",
          "name": "treeId",
          "type": "uint256"
        }
      ],
      "name": "treeExp",
      "outputs": [
        {
          "internalType": "uint256",
          "name": "",
          "type": "uint256"
        }
      ],
      "stateMutability": "view",
      "type": "function"
    },
    {
      "inputs": [
        {
          "internalType": "uint256",
          "name": "treeId",
          "type": "uint256"
        }
      ],
      "name": "treeBarracks",
      "outputs": [
        {
          "internalType": "uint256",
          "name": "",
          "type": "uint256"
        }
      ],
      "stateMutability": "view",
      "type": "function"
    },
    {
      "inputs": [
        {
          "internalType": "uint256",
          "name": "treeId",
          "type": "uint256"
        }
      ],
      "name": "treeTrainingGrounds",
      "outputs": [
        {
          "internalType": "uint256",
          "name": "",
          "type": "uint256"
        }
      ],
      "stateMutability": "view",
      "type": "function"
    },
    {
      "inputs": [
        {
          "internalType": "uint256",
          "name": "treeId",
          "type": "uint256"
        }
      ],
      "name": "questStatus",
      "outputs": [
        {
          "internalType": "uint256",
          "name": "",
          "type": "uint256"
        }
      ],
      "stateMutability": "view",
      "type": "function"
    },
    {
      "inputs": [],
      "name": "currentPrice",
      "outputs": [
        {
          "internalType": "uint256",
          "name": "",
          "type": "uint256"
        }
      ],
      "stateMutability": "view",
      "type": "function"
    },
    {
      "inputs": [
        {
          "internalType": "uint256",
          "name": "treeId",
          "type": "uint256"
        }
      ],
      "name": "upgradeBarracks",
      "outputs": [],
      "stateMutability": "payable",
      "type": "function"
    },
    {
      "inputs": [
        {
          "internalType": "uint256",
          "name": "treeId",
          "type": "uint256"
        }
      ],
      "name": "upgradeTrainingGrounds",
      "outputs": [],
      "stateMutability": "payable",
      "type": "function"
    },
    {
      "inputs": [
        {
          "internalType": "uint256",
          "name": "treeId",
          "type": "uint256"
        },
        {
          "internalType": "uint256",
          "name": "newValue",
          "type": "uint256"
        }
      ],
      "name": "updateQuestStatus",
      "outputs": [],
      "stateMutability": "payable",
      "type": "function"
    },
    {
      "inputs": [
        {
          "internalType": "uint256",
          "name": "treeId",
          "type": "uint256"
        },
        {
          "internalType": "uint256",
          "name": "amount",
          "type": "uint256"
        }
      ],
      "name": "gainExp",
      "outputs": [],
      "stateMutability": "payable",
      "type": "function"
    },
    {
      "inputs": [
        {
          "internalType": "uint256",
          "name": "treeId",
          "type": "uint256"
        }
      ],
      "name": "gainLevel",
      "outputs": [],
      "stateMutability": "payable",
      "type": "function"
    },
    {
      "inputs": [],
      "name": "createNewTree",
      "outputs": [],
      "stateMutability": "payable",
      "type": "function"
    },
    {
      "inputs": [
        {
          "internalType": "address",
          "name": "newOwner",
          "type": "address"
        }
      ],
      "name": "transferOwnership",
      "outputs": [],
      "stateMutability": "payable",
      "type": "function"
    },
    {
      "inputs": [
        {
          "internalType": "address",
          "name": "newQuestContract",
          "type": "address"
        }
      ],
      "name": "transferQuestContract",
      "outputs": [],
      "stateMutability": "payable",
      "type": "function"
    }
  ],
  "bytecode": "0x608060405234801561001057600080fd5b506148e7806100206000396000f3fe6080604052600436106101d85760003560e01c806370a08231116101025780639c06eccd11610095578063c87b56dd11610064578063c87b56dd14610686578063d94406f2146106c3578063e985e9c514610700578063f2fde38b1461073d576101d8565b80639c06eccd146105cc5780639d1b464a14610609578063a22cb46514610634578063b88d4fde1461065d576101d8565b80638536496f116100d15780638536496f1461052c5780638bbfcac31461054857806395d89b41146105855780639a0f0244146105b0576101d8565b806370a08231146104595780637a508022146104965780638129fc1c146104d8578063850b0f3c146104ef576101d8565b806321cde2021161017a5780635e31fcc6116101495780635e31fcc6146103865780635fa461fc146103c35780636352211e146104005780636cad69321461043d576101d8565b806321cde202146102fc57806323b872dd1461031857806326bc4c5a1461034157806342842e0e1461035d576101d8565b8063095ea7b3116101b6578063095ea7b3146102825780630c949043146102ab578063104e21b2146102d657806310d1eb2a146102f2576101d8565b806301ffc9a7146101dd57806306fdde031461021a578063081812fc14610245575b600080fd5b3480156101e957600080fd5b5061020460048036038101906101ff91906132e9565b610759565b6040516102119190613331565b60405180910390f35b34801561022657600080fd5b5061022f61083b565b60405161023c91906133e5565b60405180910390f35b34801561025157600080fd5b5061026c6004803603810190610267919061343d565b6108cd565b60405161027991906134ab565b60405180910390f35b34801561028e57600080fd5b506102a960048036038101906102a491906134f2565b610952565b005b3480156102b757600080fd5b506102c0610a6a565b6040516102cd919061354b565b60405180910390f35b6102f060048036038101906102eb9190613566565b610ab0565b005b6102fa610b4e565b005b6103166004803603810190610311919061343d565b610cca565b005b34801561032457600080fd5b5061033f600480360381019061033a9190613593565b611099565b005b61035b6004803603810190610356919061343d565b6110f9565b005b34801561036957600080fd5b50610384600480360381019061037f9190613593565b61155c565b005b34801561039257600080fd5b506103ad60048036038101906103a8919061343d565b61157c565b6040516103ba91906135f5565b60405180910390f35b3480156103cf57600080fd5b506103ea60048036038101906103e5919061343d565b6115ab565b6040516103f791906135f5565b60405180910390f35b34801561040c57600080fd5b506104276004803603810190610422919061343d565b6115da565b60405161043491906134ab565b60405180910390f35b61045760048036038101906104529190613610565b61168c565b005b34801561046557600080fd5b50610480600480360381019061047b9190613566565b61177d565b60405161048d91906135f5565b60405180910390f35b3480156104a257600080fd5b506104bd60048036038101906104b8919061343d565b611835565b6040516104cf96959493929190613650565b60405180910390f35b3480156104e457600080fd5b506104ed611881565b005b3480156104fb57600080fd5b506105166004803603810190610511919061343d565b611b8c565b60405161052391906135f5565b60405180910390f35b61054660048036038101906105419190613610565b611bbb565b005b34801561055457600080fd5b5061056f600480360381019061056a919061343d565b611c43565b60405161057c91906135f5565b60405180910390f35b34801561059157600080fd5b5061059a611c72565b6040516105a791906133e5565b60405180910390f35b6105ca60048036038101906105c5919061343d565b611d04565b005b3480156105d857600080fd5b506105f360048036038101906105ee919061343d565b612167565b60405161060091906135f5565b60405180910390f35b34801561061557600080fd5b5061061e612196565b60405161062b91906135f5565b60405180910390f35b34801561064057600080fd5b5061065b600480360381019061065691906136dd565b6121cd565b005b34801561066957600080fd5b50610684600480360381019061067f9190613852565b6121e3565b005b34801561069257600080fd5b506106ad60048036038101906106a8919061343d565b612245565b6040516106ba91906133e5565b60405180910390f35b3480156106cf57600080fd5b506106ea60048036038101906106e5919061343d565b6122ec565b6040516106f791906135f5565b60405180910390f35b34801561070c57600080fd5b50610727600480360381019061072291906138d5565b61231b565b6040516107349190613331565b60405180910390f35b61075760048036038101906107529190613566565b6123af565b005b60007f80ac58cd000000000000000000000000000000000000000000000000000000007bffffffffffffffffffffffffffffffffffffffffffffffffffffffff1916827bffffffffffffffffffffffffffffffffffffffffffffffffffffffff1916148061082457507f5b5e139f000000000000000000000000000000000000000000000000000000007bffffffffffffffffffffffffffffffffffffffffffffffffffffffff1916827bffffffffffffffffffffffffffffffffffffffffffffffffffffffff1916145b8061083457506108338261244d565b5b9050919050565b60606065805461084a90613944565b80601f016020809104026020016040519081016040528092919081815260200182805461087690613944565b80156108c35780601f10610898576101008083540402835291602001916108c3565b820191906000526020600020905b8154815290600101906020018083116108a657829003601f168201915b5050505050905090565b60006108d8826124b7565b610917576040517f08c379a000000000000000000000000000000000000000000000000000000000815260040161090e906139e8565b60405180910390fd5b6069600083815260200190815260200160002060009054906101000a900473ffffffffffffffffffffffffffffffffffffffff169050919050565b600061095d826115da565b90508073ffffffffffffffffffffffffffffffffffffffff168373ffffffffffffffffffffffffffffffffffffffff1614156109ce576040517f08c379a00000000000000000000000000000000000000000000000000000000081526004016109c590613a7a565b60405180910390fd5b8073ffffffffffffffffffffffffffffffffffffffff166109ed612523565b73ffffffffffffffffffffffffffffffffffffffff161480610a1c5750610a1b81610a16612523565b61231b565b5b610a5b576040517f08c379a0000000000000000000000000000000000000000000000000000000008152600401610a5290613b0c565b60405180910390fd5b610a65838361252b565b505050565b6000610a746131b8565b4381600060018110610a8957610a88613b2c565b5b60200201818152505060405160208160208460ff600019fa610aa757fe5b80519250505090565b3373ffffffffffffffffffffffffffffffffffffffff16609a60009054906101000a900473ffffffffffffffffffffffffffffffffffffffff1673ffffffffffffffffffffffffffffffffffffffff1614610b0a57600080fd5b80609e60006101000a81548173ffffffffffffffffffffffffffffffffffffffff021916908373ffffffffffffffffffffffffffffffffffffffff16021790555050565b600073ffffffffffffffffffffffffffffffffffffffff163373ffffffffffffffffffffffffffffffffffffffff1614158015610bb757503073ffffffffffffffffffffffffffffffffffffffff163373ffffffffffffffffffffffffffffffffffffffff1614155b610bc057600080fd5b610bc8612196565b341015610bd457600080fd5b6000609f8054905090506000610be86125e4565b9050609f6040518060c001604052808381526020016001815260200160008152602001600081526020016000815260200160008152509080600181540180825580915050600190039060005260206000209060060201600090919091909150600082015181600001556020820151816001015560408201518160020155606082015181600301556080820151816004015560a082015181600501555050610c8f338361262e565b7f5aa7f45898fcb5638757632f4ea98818ccb1f1b865b0721648cfb14cfcd2da9a82604051610cbe91906135f5565b60405180910390a15050565b803373ffffffffffffffffffffffffffffffffffffffff16610ceb826115da565b73ffffffffffffffffffffffffffffffffffffffff1614610d0b57600080fd5b6064609f8381548110610d2157610d20613b2c565b5b90600052602060002090600602016001015410610d3d57600080fd5b6064609f8381548110610d5357610d52613b2c565b5b906000526020600020906006020160010154610d6f9190613b8a565b609f8381548110610d8357610d82613b2c565b5b9060005260206000209060060201600201541015610da057600080fd5b6000670de0b6b3a7640000609f8481548110610dbf57610dbe613b2c565b5b906000526020600020906006020160010154610ddb9190613b8a565b90506064609f8481548110610df357610df2613b2c565b5b906000526020600020906006020160010154610e0f9190613b8a565b609f8481548110610e2357610e22613b2c565b5b906000526020600020906006020160020154610e3f9190613be4565b609f8481548110610e5357610e52613b2c565b5b906000526020600020906006020160020181905550609f8381548110610e7c57610e7b613b2c565b5b90600052602060002090600602016001016000815480929190610e9e90613c18565b9190505550609c60009054906101000a900473ffffffffffffffffffffffffffffffffffffffff1673ffffffffffffffffffffffffffffffffffffffff166323b872dd33609b60009054906101000a900473ffffffffffffffffffffffffffffffffffffffff166064604686610f149190613b8a565b610f1e9190613c90565b6040518463ffffffff1660e01b8152600401610f3c93929190613cc1565b6020604051808303816000875af1158015610f5b573d6000803e3d6000fd5b505050506040513d601f19601f82011682018060405250810190610f7f9190613d0d565b50609c60009054906101000a900473ffffffffffffffffffffffffffffffffffffffff1673ffffffffffffffffffffffffffffffffffffffff166323b872dd33609a60009054906101000a900473ffffffffffffffffffffffffffffffffffffffff166064601e86610ff19190613b8a565b610ffb9190613c90565b6040518463ffffffff1660e01b815260040161101993929190613cc1565b6020604051808303816000875af1158015611038573d6000803e3d6000fd5b505050506040513d601f19601f8201168201806040525081019061105c9190613d0d565b507f7ef1df0b6d95a41d9ebcaa695746726b382e110036a9127b009babdb11c656a28360405161108c91906135f5565b60405180910390a1505050565b6110aa6110a4612523565b826127fc565b6110e9576040517f08c379a00000000000000000000000000000000000000000000000000000000081526004016110e090613dac565b60405180910390fd5b6110f48383836128da565b505050565b803373ffffffffffffffffffffffffffffffffffffffff1661111a826115da565b73ffffffffffffffffffffffffffffffffffffffff161461113a57600080fd5b609f828154811061114e5761114d613b2c565b5b906000526020600020906006020160030154609f838154811061117457611173613b2c565b5b9060005260206000209060060201600101541161119057600080fd5b609f82815481106111a4576111a3613b2c565b5b9060005260206000209060060201600301546015116111c257600080fd5b6000670de0b6b3a7640000609f84815481106111e1576111e0613b2c565b5b9060005260206000209060060201600301546111fd9190613b8a565b9050600a609f848154811061121557611214613b2c565b5b90600052602060002090600602016003015411801561125957506015609f848154811061124557611244613b2c565b5b906000526020600020906006020160030154105b15611328576000600a609f858154811061127657611275613b2c565b5b9060005260206000209060060201600301546112929190613be4565b9050609d60009054906101000a900473ffffffffffffffffffffffffffffffffffffffff1673ffffffffffffffffffffffffffffffffffffffff166342842e0e336000846040518463ffffffff1660e01b81526004016112f493929190613cc1565b600060405180830381600087803b15801561130e57600080fd5b505af1158015611322573d6000803e3d6000fd5b50505050505b609f838154811061133c5761133b613b2c565b5b9060005260206000209060060201600301600081548092919061135e90613c18565b9190505550609c60009054906101000a900473ffffffffffffffffffffffffffffffffffffffff1673ffffffffffffffffffffffffffffffffffffffff166323b872dd33609b60009054906101000a900473ffffffffffffffffffffffffffffffffffffffff1660646046866113d49190613b8a565b6113de9190613c90565b6040518463ffffffff1660e01b81526004016113fc93929190613cc1565b6020604051808303816000875af115801561141b573d6000803e3d6000fd5b505050506040513d601f19601f8201168201806040525081019061143f9190613d0d565b50609c60009054906101000a900473ffffffffffffffffffffffffffffffffffffffff1673ffffffffffffffffffffffffffffffffffffffff166323b872dd33609a60009054906101000a900473ffffffffffffffffffffffffffffffffffffffff166064601e866114b19190613b8a565b6114bb9190613c90565b6040518463ffffffff1660e01b81526004016114d993929190613cc1565b6020604051808303816000875af11580156114f8573d6000803e3d6000fd5b505050506040513d601f19601f8201168201806040525081019061151c9190613d0d565b507f81697e2679db8e5249c35ec26a25db2189c65f1b3bc780d2f1b1129b5e57c41d83600060405161154f929190613e11565b60405180910390a1505050565b611577838383604051806020016040528060008152506121e3565b505050565b6000609f828154811061159257611591613b2c565b5b9060005260206000209060060201600301549050919050565b6000609f82815481106115c1576115c0613b2c565b5b9060005260206000209060060201600201549050919050565b6000806067600084815260200190815260200160002060009054906101000a900473ffffffffffffffffffffffffffffffffffffffff169050600073ffffffffffffffffffffffffffffffffffffffff168173ffffffffffffffffffffffffffffffffffffffff161415611683576040517f08c379a000000000000000000000000000000000000000000000000000000000815260040161167a90613eac565b60405180910390fd5b80915050919050565b3373ffffffffffffffffffffffffffffffffffffffff16609e60009054906101000a900473ffffffffffffffffffffffffffffffffffffffff1673ffffffffffffffffffffffffffffffffffffffff16146116e657600080fd5b80609f83815481106116fb576116fa613b2c565b5b9060005260206000209060060201600201546117179190613ecc565b609f838154811061172b5761172a613b2c565b5b9060005260206000209060060201600201819055507ffa65d54a674245861f726a6e25ffd7e32b5f7e7a6a62bd81b222ad6f53643d288282604051611771929190613f22565b60405180910390a15050565b60008073ffffffffffffffffffffffffffffffffffffffff168273ffffffffffffffffffffffffffffffffffffffff1614156117ee576040517f08c379a00000000000000000000000000000000000000000000000000000000081526004016117e590613fbd565b60405180910390fd5b606860008373ffffffffffffffffffffffffffffffffffffffff1673ffffffffffffffffffffffffffffffffffffffff168152602001908152602001600020549050919050565b609f818154811061184557600080fd5b90600052602060002090600602016000915090508060000154908060010154908060020154908060030154908060040154908060050154905086565b600060019054906101000a900460ff166118a95760008054906101000a900460ff16156118b2565b6118b1612b36565b5b6118f1576040517f08c379a00000000000000000000000000000000000000000000000000000000081526004016118e89061404f565b60405180910390fd5b60008060019054906101000a900460ff161590508015611941576001600060016101000a81548160ff02191690831515021790555060016000806101000a81548160ff0219169083151502179055505b6010609881905550609854600a61195891906141a2565b60998190555073f577601a5ef1d5079da672f01d7ab3b80dd2bd1d609a60006101000a81548173ffffffffffffffffffffffffffffffffffffffff021916908373ffffffffffffffffffffffffffffffffffffffff16021790555073fd768e668a158c173e9549d1632902c2a4363178609b60006101000a81548173ffffffffffffffffffffffffffffffffffffffff021916908373ffffffffffffffffffffffffffffffffffffffff1602179055507354301761569145d50da03d8cfdfa19913f20ed9b609c60006101000a81548173ffffffffffffffffffffffffffffffffffffffff021916908373ffffffffffffffffffffffffffffffffffffffff160217905550736ba1097c0aa545755383600292eaccc095df6610609d60006101000a81548173ffffffffffffffffffffffffffffffffffffffff021916908373ffffffffffffffffffffffffffffffffffffffff1602179055506000609e60006101000a81548173ffffffffffffffffffffffffffffffffffffffff021916908373ffffffffffffffffffffffffffffffffffffffff160217905550611b686040518060400160405280600e81526020017f50617461676f6e696320547265650000000000000000000000000000000000008152506040518060400160405280600581526020017f5054524545000000000000000000000000000000000000000000000000000000815250612b47565b8015611b895760008060016101000a81548160ff0219169083151502179055505b50565b6000609f8281548110611ba257611ba1613b2c565b5b9060005260206000209060060201600501549050919050565b3373ffffffffffffffffffffffffffffffffffffffff16609e60009054906101000a900473ffffffffffffffffffffffffffffffffffffffff1673ffffffffffffffffffffffffffffffffffffffff1614611c1557600080fd5b80609f8381548110611c2a57611c29613b2c565b5b9060005260206000209060060201600501819055505050565b6000609f8281548110611c5957611c58613b2c565b5b9060005260206000209060060201600101549050919050565b606060668054611c8190613944565b80601f0160208091040260200160405190810160405280929190818152602001828054611cad90613944565b8015611cfa5780601f10611ccf57610100808354040283529160200191611cfa565b820191906000526020600020905b815481529060010190602001808311611cdd57829003601f168201915b5050505050905090565b803373ffffffffffffffffffffffffffffffffffffffff16611d25826115da565b73ffffffffffffffffffffffffffffffffffffffff1614611d4557600080fd5b609f8281548110611d5957611d58613b2c565b5b906000526020600020906006020160040154609f8381548110611d7f57611d7e613b2c565b5b90600052602060002090600602016001015411611d9b57600080fd5b609f8281548110611daf57611dae613b2c565b5b906000526020600020906006020160040154601511611dcd57600080fd5b6000670de0b6b3a7640000609f8481548110611dec57611deb613b2c565b5b906000526020600020906006020160040154611e089190613b8a565b9050600a609f8481548110611e2057611e1f613b2c565b5b906000526020600020906006020160040154118015611e6457506015609f8481548110611e5057611e4f613b2c565b5b906000526020600020906006020160040154105b15611f33576000600a609f8581548110611e8157611e80613b2c565b5b906000526020600020906006020160040154611e9d9190613be4565b9050609d60009054906101000a900473ffffffffffffffffffffffffffffffffffffffff1673ffffffffffffffffffffffffffffffffffffffff166342842e0e336000846040518463ffffffff1660e01b8152600401611eff93929190613cc1565b600060405180830381600087803b158015611f1957600080fd5b505af1158015611f2d573d6000803e3d6000fd5b50505050505b609f8381548110611f4757611f46613b2c565b5b90600052602060002090600602016004016000815480929190611f6990613c18565b9190505550609c60009054906101000a900473ffffffffffffffffffffffffffffffffffffffff1673ffffffffffffffffffffffffffffffffffffffff166323b872dd33609b60009054906101000a900473ffffffffffffffffffffffffffffffffffffffff166064604686611fdf9190613b8a565b611fe99190613c90565b6040518463ffffffff1660e01b815260040161200793929190613cc1565b6020604051808303816000875af1158015612026573d6000803e3d6000fd5b505050506040513d601f19601f8201168201806040525081019061204a9190613d0d565b50609c60009054906101000a900473ffffffffffffffffffffffffffffffffffffffff1673ffffffffffffffffffffffffffffffffffffffff166323b872dd33609a60009054906101000a900473ffffffffffffffffffffffffffffffffffffffff166064601e866120bc9190613b8a565b6120c69190613c90565b6040518463ffffffff1660e01b81526004016120e493929190613cc1565b6020604051808303816000875af1158015612103573d6000803e3d6000fd5b505050506040513d601f19601f820116820180604052508101906121279190613d0d565b507f81697e2679db8e5249c35ec26a25db2189c65f1b3bc780d2f1b1129b5e57c41d83600160405161215a929190614228565b60405180910390a1505050565b6000609f828154811061217d5761217c613b2c565b5b9060005260206000209060060201600401549050919050565b6000670de0b6b3a7640000600180609f805490506121b49190613ecc565b6121be9190613b8a565b6121c89190613b8a565b905090565b6121df6121d8612523565b8383612bb4565b5050565b6121f46121ee612523565b836127fc565b612233576040517f08c379a000000000000000000000000000000000000000000000000000000000815260040161222a90613dac565b60405180910390fd5b61223f84848484612d21565b50505050565b6060612250826124b7565b61228f576040517f08c379a0000000000000000000000000000000000000000000000000000000008152600401612286906142c3565b60405180910390fd5b6000612299612d7d565b905060008151116122b957604051806020016040528060008152506122e4565b806122c384612d94565b6040516020016122d492919061431f565b6040516020818303038152906040525b915050919050565b6000609f828154811061230257612301613b2c565b5b9060005260206000209060060201600001549050919050565b6000606a60008473ffffffffffffffffffffffffffffffffffffffff1673ffffffffffffffffffffffffffffffffffffffff16815260200190815260200160002060008373ffffffffffffffffffffffffffffffffffffffff1673ffffffffffffffffffffffffffffffffffffffff16815260200190815260200160002060009054906101000a900460ff16905092915050565b3373ffffffffffffffffffffffffffffffffffffffff16609a60009054906101000a900473ffffffffffffffffffffffffffffffffffffffff1673ffffffffffffffffffffffffffffffffffffffff161461240957600080fd5b80609a60006101000a81548173ffffffffffffffffffffffffffffffffffffffff021916908373ffffffffffffffffffffffffffffffffffffffff16021790555050565b60007f01ffc9a7000000000000000000000000000000000000000000000000000000007bffffffffffffffffffffffffffffffffffffffffffffffffffffffff1916827bffffffffffffffffffffffffffffffffffffffffffffffffffffffff1916149050919050565b60008073ffffffffffffffffffffffffffffffffffffffff166067600084815260200190815260200160002060009054906101000a900473ffffffffffffffffffffffffffffffffffffffff1673ffffffffffffffffffffffffffffffffffffffff1614159050919050565b600033905090565b816069600083815260200190815260200160002060006101000a81548173ffffffffffffffffffffffffffffffffffffffff021916908373ffffffffffffffffffffffffffffffffffffffff160217905550808273ffffffffffffffffffffffffffffffffffffffff1661259e836115da565b73ffffffffffffffffffffffffffffffffffffffff167f8c5be1e5ebec7d5bd14f71427d1e84f3dd0314c0f7b2291e5b200ac8c7c3b92560405160405180910390a45050565b6000806125ef610a6a565b6040516020016125ff9190614364565b6040516020818303038152906040528051906020012060001c905060995481612628919061437f565b91505090565b600073ffffffffffffffffffffffffffffffffffffffff168273ffffffffffffffffffffffffffffffffffffffff16141561269e576040517f08c379a0000000000000000000000000000000000000000000000000000000008152600401612695906143fc565b60405180910390fd5b6126a7816124b7565b156126e7576040517f08c379a00000000000000000000000000000000000000000000000000000000081526004016126de90614468565b60405180910390fd5b6126f360008383612ef5565b6001606860008473ffffffffffffffffffffffffffffffffffffffff1673ffffffffffffffffffffffffffffffffffffffff16815260200190815260200160002060008282546127439190613ecc565b92505081905550816067600083815260200190815260200160002060006101000a81548173ffffffffffffffffffffffffffffffffffffffff021916908373ffffffffffffffffffffffffffffffffffffffff160217905550808273ffffffffffffffffffffffffffffffffffffffff16600073ffffffffffffffffffffffffffffffffffffffff167fddf252ad1be2c89b69c2b068fc378daa952ba7f163c4a11628f55a4df523b3ef60405160405180910390a45050565b6000612807826124b7565b612846576040517f08c379a000000000000000000000000000000000000000000000000000000000815260040161283d906144fa565b60405180910390fd5b6000612851836115da565b90508073ffffffffffffffffffffffffffffffffffffffff168473ffffffffffffffffffffffffffffffffffffffff1614806128c057508373ffffffffffffffffffffffffffffffffffffffff166128a8846108cd565b73ffffffffffffffffffffffffffffffffffffffff16145b806128d157506128d0818561231b565b5b91505092915050565b8273ffffffffffffffffffffffffffffffffffffffff166128fa826115da565b73ffffffffffffffffffffffffffffffffffffffff1614612950576040517f08c379a00000000000000000000000000000000000000000000000000000000081526004016129479061458c565b60405180910390fd5b600073ffffffffffffffffffffffffffffffffffffffff168273ffffffffffffffffffffffffffffffffffffffff1614156129c0576040517f08c379a00000000000000000000000000000000000000000000000000000000081526004016129b79061461e565b60405180910390fd5b6129cb838383612ef5565b6129d660008261252b565b6001606860008573ffffffffffffffffffffffffffffffffffffffff1673ffffffffffffffffffffffffffffffffffffffff1681526020019081526020016000206000828254612a269190613be4565b925050819055506001606860008473ffffffffffffffffffffffffffffffffffffffff1673ffffffffffffffffffffffffffffffffffffffff1681526020019081526020016000206000828254612a7d9190613ecc565b92505081905550816067600083815260200190815260200160002060006101000a81548173ffffffffffffffffffffffffffffffffffffffff021916908373ffffffffffffffffffffffffffffffffffffffff160217905550808273ffffffffffffffffffffffffffffffffffffffff168473ffffffffffffffffffffffffffffffffffffffff167fddf252ad1be2c89b69c2b068fc378daa952ba7f163c4a11628f55a4df523b3ef60405160405180910390a4505050565b6000612b4130612efa565b15905090565b600060019054906101000a900460ff16612b96576040517f08c379a0000000000000000000000000000000000000000000000000000000008152600401612b8d906146b0565b60405180910390fd5b612b9e612f0d565b612ba6612f5e565b612bb08282612faf565b5050565b8173ffffffffffffffffffffffffffffffffffffffff168373ffffffffffffffffffffffffffffffffffffffff161415612c23576040517f08c379a0000000000000000000000000000000000000000000000000000000008152600401612c1a9061471c565b60405180910390fd5b80606a60008573ffffffffffffffffffffffffffffffffffffffff1673ffffffffffffffffffffffffffffffffffffffff16815260200190815260200160002060008473ffffffffffffffffffffffffffffffffffffffff1673ffffffffffffffffffffffffffffffffffffffff16815260200190815260200160002060006101000a81548160ff0219169083151502179055508173ffffffffffffffffffffffffffffffffffffffff168373ffffffffffffffffffffffffffffffffffffffff167f17307eab39ab6107e8899845ad3d59bd9653f200f220920489ca2b5937696c3183604051612d149190613331565b60405180910390a3505050565b612d2c8484846128da565b612d3884848484613030565b612d77576040517f08c379a0000000000000000000000000000000000000000000000000000000008152600401612d6e906147ae565b60405180910390fd5b50505050565b606060405180602001604052806000815250905090565b60606000821415612ddc576040518060400160405280600181526020017f30000000000000000000000000000000000000000000000000000000000000008152509050612ef0565b600082905060005b60008214612e0e578080612df790613c18565b915050600a82612e079190613c90565b9150612de4565b60008167ffffffffffffffff811115612e2a57612e29613727565b5b6040519080825280601f01601f191660200182016040528015612e5c5781602001600182028036833780820191505090505b5090505b60008514612ee957600182612e759190613be4565b9150600a85612e84919061437f565b6030612e909190613ecc565b60f81b818381518110612ea657612ea5613b2c565b5b60200101907effffffffffffffffffffffffffffffffffffffffffffffffffffffffffffff1916908160001a905350600a85612ee29190613c90565b9450612e60565b8093505050505b919050565b505050565b600080823b905060008111915050919050565b600060019054906101000a900460ff16612f5c576040517f08c379a0000000000000000000000000000000000000000000000000000000008152600401612f53906146b0565b60405180910390fd5b565b600060019054906101000a900460ff16612fad576040517f08c379a0000000000000000000000000000000000000000000000000000000008152600401612fa4906146b0565b60405180910390fd5b565b600060019054906101000a900460ff16612ffe576040517f08c379a0000000000000000000000000000000000000000000000000000000008152600401612ff5906146b0565b60405180910390fd5b81606590805190602001906130149291906131da565b50806066908051906020019061302b9291906131da565b505050565b60006130518473ffffffffffffffffffffffffffffffffffffffff16612efa565b156131ab578373ffffffffffffffffffffffffffffffffffffffff1663150b7a0261307a612523565b8786866040518563ffffffff1660e01b815260040161309c9493929190614823565b6020604051808303816000875af19250505080156130d857506040513d601f19601f820116820180604052508101906130d59190614884565b60015b61315b573d8060008114613108576040519150601f19603f3d011682016040523d82523d6000602084013e61310d565b606091505b50600081511415613153576040517f08c379a000000000000000000000000000000000000000000000000000000000815260040161314a906147ae565b60405180910390fd5b805181602001fd5b63150b7a0260e01b7bffffffffffffffffffffffffffffffffffffffffffffffffffffffff1916817bffffffffffffffffffffffffffffffffffffffffffffffffffffffff1916149150506131b0565b600190505b949350505050565b6040518060200160405280600190602082028036833780820191505090505090565b8280546131e690613944565b90600052602060002090601f016020900481019282613208576000855561324f565b82601f1061322157805160ff191683800117855561324f565b8280016001018555821561324f579182015b8281111561324e578251825591602001919060010190613233565b5b50905061325c9190613260565b5090565b5b80821115613279576000816000905550600101613261565b5090565b6000604051905090565b600080fd5b600080fd5b60007fffffffff0000000000000000000000000000000000000000000000000000000082169050919050565b6132c681613291565b81146132d157600080fd5b50565b6000813590506132e3816132bd565b92915050565b6000602082840312156132ff576132fe613287565b5b600061330d848285016132d4565b91505092915050565b60008115159050919050565b61332b81613316565b82525050565b60006020820190506133466000830184613322565b92915050565b600081519050919050565b600082825260208201905092915050565b60005b8381101561338657808201518184015260208101905061336b565b83811115613395576000848401525b50505050565b6000601f19601f8301169050919050565b60006133b78261334c565b6133c18185613357565b93506133d1818560208601613368565b6133da8161339b565b840191505092915050565b600060208201905081810360008301526133ff81846133ac565b905092915050565b6000819050919050565b61341a81613407565b811461342557600080fd5b50565b60008135905061343781613411565b92915050565b60006020828403121561345357613452613287565b5b600061346184828501613428565b91505092915050565b600073ffffffffffffffffffffffffffffffffffffffff82169050919050565b60006134958261346a565b9050919050565b6134a58161348a565b82525050565b60006020820190506134c0600083018461349c565b92915050565b6134cf8161348a565b81146134da57600080fd5b50565b6000813590506134ec816134c6565b92915050565b6000806040838503121561350957613508613287565b5b6000613517858286016134dd565b925050602061352885828601613428565b9150509250929050565b6000819050919050565b61354581613532565b82525050565b6000602082019050613560600083018461353c565b92915050565b60006020828403121561357c5761357b613287565b5b600061358a848285016134dd565b91505092915050565b6000806000606084860312156135ac576135ab613287565b5b60006135ba868287016134dd565b93505060206135cb868287016134dd565b92505060406135dc86828701613428565b9150509250925092565b6135ef81613407565b82525050565b600060208201905061360a60008301846135e6565b92915050565b6000806040838503121561362757613626613287565b5b600061363585828601613428565b925050602061364685828601613428565b9150509250929050565b600060c08201905061366560008301896135e6565b61367260208301886135e6565b61367f60408301876135e6565b61368c60608301866135e6565b61369960808301856135e6565b6136a660a08301846135e6565b979650505050505050565b6136ba81613316565b81146136c557600080fd5b50565b6000813590506136d7816136b1565b92915050565b600080604083850312156136f4576136f3613287565b5b6000613702858286016134dd565b9250506020613713858286016136c8565b9150509250929050565b600080fd5b600080fd5b7f4e487b7100000000000000000000000000000000000000000000000000000000600052604160045260246000fd5b61375f8261339b565b810181811067ffffffffffffffff8211171561377e5761377d613727565b5b80604052505050565b600061379161327d565b905061379d8282613756565b919050565b600067ffffffffffffffff8211156137bd576137bc613727565b5b6137c68261339b565b9050602081019050919050565b82818337600083830152505050565b60006137f56137f0846137a2565b613787565b90508281526020810184848401111561381157613810613722565b5b61381c8482856137d3565b509392505050565b600082601f8301126138395761383861371d565b5b81356138498482602086016137e2565b91505092915050565b6000806000806080858703121561386c5761386b613287565b5b600061387a878288016134dd565b945050602061388b878288016134dd565b935050604061389c87828801613428565b925050606085013567ffffffffffffffff8111156138bd576138bc61328c565b5b6138c987828801613824565b91505092959194509250565b600080604083850312156138ec576138eb613287565b5b60006138fa858286016134dd565b925050602061390b858286016134dd565b9150509250929050565b7f4e487b7100000000000000000000000000000000000000000000000000000000600052602260045260246000fd5b6000600282049050600182168061395c57607f821691505b602082108114156139705761396f613915565b5b50919050565b7f4552433732313a20617070726f76656420717565727920666f72206e6f6e657860008201527f697374656e7420746f6b656e0000000000000000000000000000000000000000602082015250565b60006139d2602c83613357565b91506139dd82613976565b604082019050919050565b60006020820190508181036000830152613a01816139c5565b9050919050565b7f4552433732313a20617070726f76616c20746f2063757272656e74206f776e6560008201527f7200000000000000000000000000000000000000000000000000000000000000602082015250565b6000613a64602183613357565b9150613a6f82613a08565b604082019050919050565b60006020820190508181036000830152613a9381613a57565b9050919050565b7f4552433732313a20617070726f76652063616c6c6572206973206e6f74206f7760008201527f6e6572206e6f7220617070726f76656420666f7220616c6c0000000000000000602082015250565b6000613af6603883613357565b9150613b0182613a9a565b604082019050919050565b60006020820190508181036000830152613b2581613ae9565b9050919050565b7f4e487b7100000000000000000000000000000000000000000000000000000000600052603260045260246000fd5b7f4e487b7100000000000000000000000000000000000000000000000000000000600052601160045260246000fd5b6000613b9582613407565b9150613ba083613407565b9250817fffffffffffffffffffffffffffffffffffffffffffffffffffffffffffffffff0483118215151615613bd957613bd8613b5b565b5b828202905092915050565b6000613bef82613407565b9150613bfa83613407565b925082821015613c0d57613c0c613b5b565b5b828203905092915050565b6000613c2382613407565b91507fffffffffffffffffffffffffffffffffffffffffffffffffffffffffffffffff821415613c5657613c55613b5b565b5b600182019050919050565b7f4e487b7100000000000000000000000000000000000000000000000000000000600052601260045260246000fd5b6000613c9b82613407565b9150613ca683613407565b925082613cb657613cb5613c61565b5b828204905092915050565b6000606082019050613cd6600083018661349c565b613ce3602083018561349c565b613cf060408301846135e6565b949350505050565b600081519050613d07816136b1565b92915050565b600060208284031215613d2357613d22613287565b5b6000613d3184828501613cf8565b91505092915050565b7f4552433732313a207472616e736665722063616c6c6572206973206e6f74206f60008201527f776e6572206e6f7220617070726f766564000000000000000000000000000000602082015250565b6000613d96603183613357565b9150613da182613d3a565b604082019050919050565b60006020820190508181036000830152613dc581613d89565b9050919050565b6000819050919050565b6000819050919050565b6000613dfb613df6613df184613dcc565b613dd6565b613407565b9050919050565b613e0b81613de0565b82525050565b6000604082019050613e2660008301856135e6565b613e336020830184613e02565b9392505050565b7f4552433732313a206f776e657220717565727920666f72206e6f6e657869737460008201527f656e7420746f6b656e0000000000000000000000000000000000000000000000602082015250565b6000613e96602983613357565b9150613ea182613e3a565b604082019050919050565b60006020820190508181036000830152613ec581613e89565b9050919050565b6000613ed782613407565b9150613ee283613407565b9250827fffffffffffffffffffffffffffffffffffffffffffffffffffffffffffffffff03821115613f1757613f16613b5b565b5b828201905092915050565b6000604082019050613f3760008301856135e6565b613f4460208301846135e6565b9392505050565b7f4552433732313a2062616c616e636520717565727920666f7220746865207a6560008201527f726f206164647265737300000000000000000000000000000000000000000000602082015250565b6000613fa7602a83613357565b9150613fb282613f4b565b604082019050919050565b60006020820190508181036000830152613fd681613f9a565b9050919050565b7f496e697469616c697a61626c653a20636f6e747261637420697320616c72656160008201527f647920696e697469616c697a6564000000000000000000000000000000000000602082015250565b6000614039602e83613357565b915061404482613fdd565b604082019050919050565b600060208201905081810360008301526140688161402c565b9050919050565b60008160011c9050919050565b6000808291508390505b60018511156140c6578086048111156140a2576140a1613b5b565b5b60018516156140b15780820291505b80810290506140bf8561406f565b9450614086565b94509492505050565b6000826140df576001905061419b565b816140ed576000905061419b565b8160018114614103576002811461410d5761413c565b600191505061419b565b60ff84111561411f5761411e613b5b565b5b8360020a91508482111561413657614135613b5b565b5b5061419b565b5060208310610133831016604e8410600b84101617156141715782820a90508381111561416c5761416b613b5b565b5b61419b565b61417e848484600161407c565b9250905081840481111561419557614194613b5b565b5b81810290505b9392505050565b60006141ad82613407565b91506141b883613407565b92506141e57fffffffffffffffffffffffffffffffffffffffffffffffffffffffffffffffff84846140cf565b905092915050565b6000819050919050565b600061421261420d614208846141ed565b613dd6565b613407565b9050919050565b614222816141f7565b82525050565b600060408201905061423d60008301856135e6565b61424a6020830184614219565b9392505050565b7f4552433732314d657461646174613a2055524920717565727920666f72206e6f60008201527f6e6578697374656e7420746f6b656e0000000000000000000000000000000000602082015250565b60006142ad602f83613357565b91506142b882614251565b604082019050919050565b600060208201905081810360008301526142dc816142a0565b9050919050565b600081905092915050565b60006142f98261334c565b61430381856142e3565b9350614313818560208601613368565b80840191505092915050565b600061432b82856142ee565b915061433782846142ee565b91508190509392505050565b6000819050919050565b61435e61435982613532565b614343565b82525050565b6000614370828461434d565b60208201915081905092915050565b600061438a82613407565b915061439583613407565b9250826143a5576143a4613c61565b5b828206905092915050565b7f4552433732313a206d696e7420746f20746865207a65726f2061646472657373600082015250565b60006143e6602083613357565b91506143f1826143b0565b602082019050919050565b60006020820190508181036000830152614415816143d9565b9050919050565b7f4552433732313a20746f6b656e20616c7265616479206d696e74656400000000600082015250565b6000614452601c83613357565b915061445d8261441c565b602082019050919050565b6000602082019050818103600083015261448181614445565b9050919050565b7f4552433732313a206f70657261746f7220717565727920666f72206e6f6e657860008201527f697374656e7420746f6b656e0000000000000000000000000000000000000000602082015250565b60006144e4602c83613357565b91506144ef82614488565b604082019050919050565b60006020820190508181036000830152614513816144d7565b9050919050565b7f4552433732313a207472616e73666572206f6620746f6b656e2074686174206960008201527f73206e6f74206f776e0000000000000000000000000000000000000000000000602082015250565b6000614576602983613357565b91506145818261451a565b604082019050919050565b600060208201905081810360008301526145a581614569565b9050919050565b7f4552433732313a207472616e7366657220746f20746865207a65726f2061646460008201527f7265737300000000000000000000000000000000000000000000000000000000602082015250565b6000614608602483613357565b9150614613826145ac565b604082019050919050565b60006020820190508181036000830152614637816145fb565b9050919050565b7f496e697469616c697a61626c653a20636f6e7472616374206973206e6f74206960008201527f6e697469616c697a696e67000000000000000000000000000000000000000000602082015250565b600061469a602b83613357565b91506146a58261463e565b604082019050919050565b600060208201905081810360008301526146c98161468d565b9050919050565b7f4552433732313a20617070726f766520746f2063616c6c657200000000000000600082015250565b6000614706601983613357565b9150614711826146d0565b602082019050919050565b60006020820190508181036000830152614735816146f9565b9050919050565b7f4552433732313a207472616e7366657220746f206e6f6e20455243373231526560008201527f63656976657220696d706c656d656e7465720000000000000000000000000000602082015250565b6000614798603283613357565b91506147a38261473c565b604082019050919050565b600060208201905081810360008301526147c78161478b565b9050919050565b600081519050919050565b600082825260208201905092915050565b60006147f5826147ce565b6147ff81856147d9565b935061480f818560208601613368565b6148188161339b565b840191505092915050565b6000608082019050614838600083018761349c565b614845602083018661349c565b61485260408301856135e6565b818103606083015261486481846147ea565b905095945050505050565b60008151905061487e816132bd565b92915050565b60006020828403121561489a57614899613287565b5b60006148a88482850161486f565b9150509291505056fea26469706673582212200505c7130409010f9f5de0d9c71b3f75421730b07bc4c170f9f23d8815fa75ff64736f6c634300080b0033",
  "immutableReferences": {},
  "source": "// SPDX-License-Identifier: UNLICENSED\r\n\r\npragma solidity ^0.8.3;\r\n\r\nimport \"../node_modules/@openzeppelin/contracts-upgradeable/token/ERC721/ERC721Upgradeable.sol\";\r\nimport \"../node_modules/@openzeppelin/contracts/token/ERC20/IERC20.sol\";\r\nimport \"../node_modules/@openzeppelin/contracts/token/ERC721/IERC721.sol\";\r\n\r\ncontract Tree is ERC721Upgradeable {\r\n    event NewTree(uint treeId);\r\n    event GainExp(uint treeId, uint amount);\r\n    event GainLevel(uint treeId);\r\n    event BuildingLevelUp (uint treeId, uint buildingId);\r\n\r\n    uint Nonce;\r\n    uint Digits;\r\n    uint Modulus;\r\n    address ContractOwner;\r\n    address Treasury;\r\n    \r\n    //Get Token Address after TokenContract deployment\r\n    address Token;\r\n    address BasicRune;\r\n    \r\n    //QuestContract is updated after deployment\r\n    address QuestContract;\r\n\r\n    struct TreeStruct {\r\n        uint treeDNA;\r\n        uint level;\r\n        uint exp;\r\n        uint barracks;\r\n        uint trainingGrounds;\r\n        uint onQuestUntil;\r\n    }\r\n\r\n    TreeStruct[] public trees;\r\n\r\n    //Modifiers\r\n\r\n    modifier onlyOwnerOf(uint _treeId) {\r\n        require(ownerOf(_treeId) == msg.sender);\r\n        _;\r\n    }\r\n\r\n    modifier onlyOwner() {\r\n        require(ContractOwner == msg.sender);\r\n        _;\r\n    }\r\n\r\n    modifier onlyQuestContract() {\r\n        require(QuestContract == msg.sender);\r\n        _;\r\n    }\r\n\r\n    function initialize() initializer public {\r\n        Digits = 16;\r\n        Modulus = 10 ** Digits;\r\n        ContractOwner = 0xf577601a5eF1d5079Da672f01D7aB3b80dD2bd1D;\r\n        Treasury = 0xfd768E668A158C173e9549d1632902C2A4363178;\r\n        Token = 0x54301761569145d50da03d8CfdfA19913f20Ed9b;\r\n        BasicRune = 0x6Ba1097C0aA545755383600292eacCC095dF6610;\r\n        QuestContract = address(0);\r\n        __ERC721_init(\"Patagonic Tree\", \"PTREE\");\r\n    }\r\n\r\n    //Util Functions\r\n\r\n    function vrf() public view returns (bytes32 result) {\r\n        uint[1] memory bn;\r\n        bn[0] = block.number;\r\n        assembly {\r\n            let memPtr := mload(0x40)\r\n            if iszero(staticcall(not(0), 0xff, bn, 0x20, memPtr, 0x20)) {\r\n                invalid()\r\n            }\r\n            result := mload(memPtr)\r\n        }\r\n    }\r\n\r\n    //View Functions\r\n\r\n    function treeDNA(uint treeId) public view returns (uint) {\r\n        return trees[treeId].treeDNA;\r\n    }\r\n\r\n    function treeLevel(uint treeId) public view returns (uint) {\r\n        return trees[treeId].level;\r\n    }\r\n\r\n    function treeExp(uint treeId) public view returns (uint) {\r\n        return trees[treeId].exp;\r\n    }\r\n\r\n    function treeBarracks(uint treeId) public view returns (uint) {\r\n        return trees[treeId].barracks;\r\n    }\r\n\r\n    function treeTrainingGrounds(uint treeId) public view returns (uint) {\r\n        return trees[treeId].trainingGrounds;\r\n    }\r\n\r\n    function questStatus(uint treeId) public view returns (uint) {\r\n        return trees[treeId].onQuestUntil;\r\n    }\r\n\r\n    function currentPrice() public view returns (uint) {\r\n        return ((trees.length+1)*1)*10**18;\r\n    }\r\n\r\n    function _generateRandomDNA() internal view returns (uint) {\r\n        uint rand = uint(keccak256(abi.encodePacked(vrf())));\r\n        return rand % Modulus;\r\n    }\r\n\r\n    //Payable Functions\r\n\r\n    function upgradeBarracks(uint treeId) public payable onlyOwnerOf(treeId) {\r\n        require(trees[treeId].level > trees[treeId].barracks);\r\n        require(21 > trees[treeId].barracks);\r\n        uint amount = trees[treeId].barracks*10**18;\r\n        if (trees[treeId].barracks > 10 && trees[treeId].barracks < 21) {\r\n            uint BasicRuneAmount = (trees[treeId].barracks-10);\r\n            IERC721(BasicRune).safeTransferFrom(msg.sender, address(0), BasicRuneAmount);\r\n        }\r\n        trees[treeId].barracks++;\r\n        IERC20(Token).transferFrom(msg.sender, Treasury, amount*70/100);\r\n        IERC20(Token).transferFrom(msg.sender, ContractOwner, amount*30/100);\r\n        emit BuildingLevelUp (treeId, 0);\r\n    }\r\n\r\n    function upgradeTrainingGrounds(uint treeId) public payable onlyOwnerOf(treeId) {\r\n        require(trees[treeId].level > trees[treeId].trainingGrounds);\r\n        require(21 > trees[treeId].trainingGrounds);\r\n        uint amount = trees[treeId].trainingGrounds*10**18;\r\n        if (trees[treeId].trainingGrounds > 10 && trees[treeId].trainingGrounds < 21) {\r\n            uint BasicRuneAmount = (trees[treeId].trainingGrounds-10);\r\n            IERC721(BasicRune).safeTransferFrom(msg.sender, address(0), BasicRuneAmount);\r\n        }\r\n        trees[treeId].trainingGrounds++;\r\n        IERC20(Token).transferFrom(msg.sender, Treasury, amount*70/100);\r\n        IERC20(Token).transferFrom(msg.sender, ContractOwner, amount*30/100);\r\n        emit BuildingLevelUp (treeId, 1);\r\n    }\r\n\r\n    function updateQuestStatus(uint treeId, uint newValue) public payable onlyQuestContract() {\r\n        trees[treeId].onQuestUntil = newValue;\r\n    }\r\n\r\n    function gainExp(uint treeId, uint amount) public payable onlyQuestContract() {\r\n        //Cambiar a que solo lo pueda hacer el contrato de quests y no el usuario\r\n        trees[treeId].exp = trees[treeId].exp + amount;\r\n        emit GainExp(treeId, amount);\r\n    }\r\n\r\n    function gainLevel(uint treeId) public payable onlyOwnerOf(treeId) {\r\n        require(trees[treeId].level < 100 );\r\n        require(trees[treeId].exp >= trees[treeId].level*100);\r\n        uint amount = trees[treeId].level*10**18;\r\n        trees[treeId].exp = trees[treeId].exp-trees[treeId].level*100;\r\n        trees[treeId].level++;\r\n        IERC20(Token).transferFrom(msg.sender, Treasury, amount*70/100);\r\n        IERC20(Token).transferFrom(msg.sender, ContractOwner, amount*30/100);\r\n        emit GainLevel(treeId);\r\n    }\r\n\r\n    function createNewTree() public payable {\r\n        require(msg.sender != address(0) && msg.sender != address(this));\r\n        require(msg.value >= currentPrice());\r\n        uint id = trees.length;\r\n        uint DNA = _generateRandomDNA();\r\n        trees.push(TreeStruct(DNA, 1, 0, 0, 0, 0));\r\n        _mint(msg.sender, id);\r\n        emit NewTree(id);\r\n\r\n    }\r\n\r\n    function transferOwnership(address newOwner) public payable onlyOwner() {\r\n        ContractOwner = newOwner;\r\n    }\r\n\r\n    function transferQuestContract(address newQuestContract) public payable onlyOwner() {\r\n        QuestContract = newQuestContract;\r\n    }\r\n\r\n}",
  "sourcePath": "C:\\Users\\jtsch\\OneDrive\\Escritorio\\Python\\SmartContracts-NFT-Agus\\contracts\\Tree.sol",
  "compiler": {
    "name": "solc",
    "version": "0.8.11+commit.d7f03943.Emscripten.clang"
  },
  "schemaVersion": "3.4.3",
  "updatedAt": "2022-01-16T14:35:13.299Z",
  "devdoc": {
    "kind": "dev",
    "methods": {
      "approve(address,uint256)": {
        "details": "See {IERC721-approve}."
      },
      "balanceOf(address)": {
        "details": "See {IERC721-balanceOf}."
      },
      "getApproved(uint256)": {
        "details": "See {IERC721-getApproved}."
      },
      "isApprovedForAll(address,address)": {
        "details": "See {IERC721-isApprovedForAll}."
      },
      "name()": {
        "details": "See {IERC721Metadata-name}."
      },
      "ownerOf(uint256)": {
        "details": "See {IERC721-ownerOf}."
      },
      "safeTransferFrom(address,address,uint256)": {
        "details": "See {IERC721-safeTransferFrom}."
      },
      "safeTransferFrom(address,address,uint256,bytes)": {
        "details": "See {IERC721-safeTransferFrom}."
      },
      "setApprovalForAll(address,bool)": {
        "details": "See {IERC721-setApprovalForAll}."
      },
      "supportsInterface(bytes4)": {
        "details": "See {IERC165-supportsInterface}."
      },
      "symbol()": {
        "details": "See {IERC721Metadata-symbol}."
      },
      "tokenURI(uint256)": {
        "details": "See {IERC721Metadata-tokenURI}."
      },
      "transferFrom(address,address,uint256)": {
        "details": "See {IERC721-transferFrom}."
      }
    },
    "version": 1
  },
  "userdoc": {
    "kind": "user",
    "methods": {},
    "version": 1
  }
}