{
  "contractName": "Tree",
  "abi": [
    {
      "anonymous": false,
      "inputs": [
        {
          "indexed": true,
          "internalType": "address",
          "name": "owner",
          "type": "address"
        },
        {
          "indexed": true,
          "internalType": "address",
          "name": "approved",
          "type": "address"
        },
        {
          "indexed": true,
          "internalType": "uint256",
          "name": "tokenId",
          "type": "uint256"
        }
      ],
      "name": "Approval",
      "type": "event"
    },
    {
      "anonymous": false,
      "inputs": [
        {
          "indexed": true,
          "internalType": "address",
          "name": "owner",
          "type": "address"
        },
        {
          "indexed": true,
          "internalType": "address",
          "name": "operator",
          "type": "address"
        },
        {
          "indexed": false,
          "internalType": "bool",
          "name": "approved",
          "type": "bool"
        }
      ],
      "name": "ApprovalForAll",
      "type": "event"
    },
    {
      "anonymous": false,
      "inputs": [
        {
          "indexed": false,
          "internalType": "uint256",
          "name": "treeId",
          "type": "uint256"
        },
        {
          "indexed": false,
          "internalType": "uint256",
          "name": "amount",
          "type": "uint256"
        }
      ],
      "name": "GainExp",
      "type": "event"
    },
    {
      "anonymous": false,
      "inputs": [
        {
          "indexed": false,
          "internalType": "uint256",
          "name": "treeId",
          "type": "uint256"
        }
      ],
      "name": "GainLevel",
      "type": "event"
    },
    {
      "anonymous": false,
      "inputs": [
        {
          "indexed": false,
          "internalType": "uint256",
          "name": "treeId",
          "type": "uint256"
        }
      ],
      "name": "NewTree",
      "type": "event"
    },
    {
      "anonymous": false,
      "inputs": [
        {
          "indexed": true,
          "internalType": "bytes32",
          "name": "role",
          "type": "bytes32"
        },
        {
          "indexed": true,
          "internalType": "bytes32",
          "name": "previousAdminRole",
          "type": "bytes32"
        },
        {
          "indexed": true,
          "internalType": "bytes32",
          "name": "newAdminRole",
          "type": "bytes32"
        }
      ],
      "name": "RoleAdminChanged",
      "type": "event"
    },
    {
      "anonymous": false,
      "inputs": [
        {
          "indexed": true,
          "internalType": "bytes32",
          "name": "role",
          "type": "bytes32"
        },
        {
          "indexed": true,
          "internalType": "address",
          "name": "account",
          "type": "address"
        },
        {
          "indexed": true,
          "internalType": "address",
          "name": "sender",
          "type": "address"
        }
      ],
      "name": "RoleGranted",
      "type": "event"
    },
    {
      "anonymous": false,
      "inputs": [
        {
          "indexed": true,
          "internalType": "bytes32",
          "name": "role",
          "type": "bytes32"
        },
        {
          "indexed": true,
          "internalType": "address",
          "name": "account",
          "type": "address"
        },
        {
          "indexed": true,
          "internalType": "address",
          "name": "sender",
          "type": "address"
        }
      ],
      "name": "RoleRevoked",
      "type": "event"
    },
    {
      "anonymous": false,
      "inputs": [
        {
          "indexed": false,
          "internalType": "uint256",
          "name": "treeId",
          "type": "uint256"
        },
        {
          "indexed": false,
          "internalType": "uint256",
          "name": "statId",
          "type": "uint256"
        }
      ],
      "name": "StatLevelUp",
      "type": "event"
    },
    {
      "anonymous": false,
      "inputs": [
        {
          "indexed": true,
          "internalType": "address",
          "name": "from",
          "type": "address"
        },
        {
          "indexed": true,
          "internalType": "address",
          "name": "to",
          "type": "address"
        },
        {
          "indexed": true,
          "internalType": "uint256",
          "name": "tokenId",
          "type": "uint256"
        }
      ],
      "name": "Transfer",
      "type": "event"
    },
    {
      "inputs": [],
      "name": "DEFAULT_ADMIN_ROLE",
      "outputs": [
        {
          "internalType": "bytes32",
          "name": "",
          "type": "bytes32"
        }
      ],
      "stateMutability": "view",
      "type": "function",
      "constant": true
    },
    {
      "inputs": [],
      "name": "QUEST_ROLE",
      "outputs": [
        {
          "internalType": "bytes32",
          "name": "",
          "type": "bytes32"
        }
      ],
      "stateMutability": "view",
      "type": "function",
      "constant": true
    },
    {
      "inputs": [],
      "name": "UPG_ROLE",
      "outputs": [
        {
          "internalType": "bytes32",
          "name": "",
          "type": "bytes32"
        }
      ],
      "stateMutability": "view",
      "type": "function",
      "constant": true
    },
    {
      "inputs": [
        {
          "internalType": "address",
          "name": "to",
          "type": "address"
        },
        {
          "internalType": "uint256",
          "name": "tokenId",
          "type": "uint256"
        }
      ],
      "name": "approve",
      "outputs": [],
      "stateMutability": "nonpayable",
      "type": "function"
    },
    {
      "inputs": [
        {
          "internalType": "address",
          "name": "owner",
          "type": "address"
        }
      ],
      "name": "balanceOf",
      "outputs": [
        {
          "internalType": "uint256",
          "name": "",
          "type": "uint256"
        }
      ],
      "stateMutability": "view",
      "type": "function",
      "constant": true
    },
    {
      "inputs": [
        {
          "internalType": "uint256",
          "name": "tokenId",
          "type": "uint256"
        }
      ],
      "name": "getApproved",
      "outputs": [
        {
          "internalType": "address",
          "name": "",
          "type": "address"
        }
      ],
      "stateMutability": "view",
      "type": "function",
      "constant": true
    },
    {
      "inputs": [
        {
          "internalType": "bytes32",
          "name": "role",
          "type": "bytes32"
        }
      ],
      "name": "getRoleAdmin",
      "outputs": [
        {
          "internalType": "bytes32",
          "name": "",
          "type": "bytes32"
        }
      ],
      "stateMutability": "view",
      "type": "function",
      "constant": true
    },
    {
      "inputs": [
        {
          "internalType": "bytes32",
          "name": "role",
          "type": "bytes32"
        },
        {
          "internalType": "address",
          "name": "account",
          "type": "address"
        }
      ],
      "name": "grantRole",
      "outputs": [],
      "stateMutability": "nonpayable",
      "type": "function"
    },
    {
      "inputs": [
        {
          "internalType": "bytes32",
          "name": "role",
          "type": "bytes32"
        },
        {
          "internalType": "address",
          "name": "account",
          "type": "address"
        }
      ],
      "name": "hasRole",
      "outputs": [
        {
          "internalType": "bool",
          "name": "",
          "type": "bool"
        }
      ],
      "stateMutability": "view",
      "type": "function",
      "constant": true
    },
    {
      "inputs": [
        {
          "internalType": "address",
          "name": "owner",
          "type": "address"
        },
        {
          "internalType": "address",
          "name": "operator",
          "type": "address"
        }
      ],
      "name": "isApprovedForAll",
      "outputs": [
        {
          "internalType": "bool",
          "name": "",
          "type": "bool"
        }
      ],
      "stateMutability": "view",
      "type": "function",
      "constant": true
    },
    {
      "inputs": [],
      "name": "name",
      "outputs": [
        {
          "internalType": "string",
          "name": "",
          "type": "string"
        }
      ],
      "stateMutability": "view",
      "type": "function",
      "constant": true
    },
    {
      "inputs": [
        {
          "internalType": "uint256",
          "name": "tokenId",
          "type": "uint256"
        }
      ],
      "name": "ownerOf",
      "outputs": [
        {
          "internalType": "address",
          "name": "",
          "type": "address"
        }
      ],
      "stateMutability": "view",
      "type": "function",
      "constant": true
    },
    {
      "inputs": [
        {
          "internalType": "bytes32",
          "name": "role",
          "type": "bytes32"
        },
        {
          "internalType": "address",
          "name": "account",
          "type": "address"
        }
      ],
      "name": "renounceRole",
      "outputs": [],
      "stateMutability": "nonpayable",
      "type": "function"
    },
    {
      "inputs": [
        {
          "internalType": "bytes32",
          "name": "role",
          "type": "bytes32"
        },
        {
          "internalType": "address",
          "name": "account",
          "type": "address"
        }
      ],
      "name": "revokeRole",
      "outputs": [],
      "stateMutability": "nonpayable",
      "type": "function"
    },
    {
      "inputs": [
        {
          "internalType": "address",
          "name": "from",
          "type": "address"
        },
        {
          "internalType": "address",
          "name": "to",
          "type": "address"
        },
        {
          "internalType": "uint256",
          "name": "tokenId",
          "type": "uint256"
        }
      ],
      "name": "safeTransferFrom",
      "outputs": [],
      "stateMutability": "nonpayable",
      "type": "function"
    },
    {
      "inputs": [
        {
          "internalType": "address",
          "name": "from",
          "type": "address"
        },
        {
          "internalType": "address",
          "name": "to",
          "type": "address"
        },
        {
          "internalType": "uint256",
          "name": "tokenId",
          "type": "uint256"
        },
        {
          "internalType": "bytes",
          "name": "_data",
          "type": "bytes"
        }
      ],
      "name": "safeTransferFrom",
      "outputs": [],
      "stateMutability": "nonpayable",
      "type": "function"
    },
    {
      "inputs": [
        {
          "internalType": "address",
          "name": "operator",
          "type": "address"
        },
        {
          "internalType": "bool",
          "name": "approved",
          "type": "bool"
        }
      ],
      "name": "setApprovalForAll",
      "outputs": [],
      "stateMutability": "nonpayable",
      "type": "function"
    },
    {
      "inputs": [],
      "name": "symbol",
      "outputs": [
        {
          "internalType": "string",
          "name": "",
          "type": "string"
        }
      ],
      "stateMutability": "view",
      "type": "function",
      "constant": true
    },
    {
      "inputs": [
        {
          "internalType": "uint256",
          "name": "tokenId",
          "type": "uint256"
        }
      ],
      "name": "tokenURI",
      "outputs": [
        {
          "internalType": "string",
          "name": "",
          "type": "string"
        }
      ],
      "stateMutability": "view",
      "type": "function",
      "constant": true
    },
    {
      "inputs": [
        {
          "internalType": "address",
          "name": "from",
          "type": "address"
        },
        {
          "internalType": "address",
          "name": "to",
          "type": "address"
        },
        {
          "internalType": "uint256",
          "name": "tokenId",
          "type": "uint256"
        }
      ],
      "name": "transferFrom",
      "outputs": [],
      "stateMutability": "nonpayable",
      "type": "function"
    },
    {
      "inputs": [
        {
          "internalType": "uint256",
          "name": "",
          "type": "uint256"
        }
      ],
      "name": "trees",
      "outputs": [
        {
          "internalType": "uint256",
          "name": "treeDNA",
          "type": "uint256"
        },
        {
          "internalType": "uint256",
          "name": "level",
          "type": "uint256"
        },
        {
          "internalType": "uint256",
          "name": "exp",
          "type": "uint256"
        },
        {
          "internalType": "uint256",
          "name": "roots",
          "type": "uint256"
        },
        {
          "internalType": "uint256",
          "name": "branches",
          "type": "uint256"
        },
        {
          "internalType": "uint256",
          "name": "action",
          "type": "uint256"
        },
        {
          "internalType": "uint256",
          "name": "onActionUntil",
          "type": "uint256"
        }
      ],
      "stateMutability": "view",
      "type": "function",
      "constant": true
    },
    {
      "inputs": [
        {
          "internalType": "bytes4",
          "name": "interfaceId",
          "type": "bytes4"
        }
      ],
      "name": "supportsInterface",
      "outputs": [
        {
          "internalType": "bool",
          "name": "",
          "type": "bool"
        }
      ],
      "stateMutability": "view",
      "type": "function",
      "constant": true
    },
    {
      "inputs": [],
      "name": "initialize",
      "outputs": [],
      "stateMutability": "nonpayable",
      "type": "function"
    },
    {
      "inputs": [],
      "name": "vrf",
      "outputs": [
        {
          "internalType": "bytes32",
          "name": "result",
          "type": "bytes32"
        }
      ],
      "stateMutability": "view",
      "type": "function",
      "constant": true
    },
    {
      "inputs": [
        {
          "internalType": "uint256",
          "name": "treeId",
          "type": "uint256"
        }
      ],
      "name": "treeDNA",
      "outputs": [
        {
          "internalType": "uint256",
          "name": "",
          "type": "uint256"
        }
      ],
      "stateMutability": "view",
      "type": "function",
      "constant": true
    },
    {
      "inputs": [
        {
          "internalType": "uint256",
          "name": "treeId",
          "type": "uint256"
        }
      ],
      "name": "treeLevel",
      "outputs": [
        {
          "internalType": "uint256",
          "name": "",
          "type": "uint256"
        }
      ],
      "stateMutability": "view",
      "type": "function",
      "constant": true
    },
    {
      "inputs": [
        {
          "internalType": "uint256",
          "name": "treeId",
          "type": "uint256"
        }
      ],
      "name": "treeExp",
      "outputs": [
        {
          "internalType": "uint256",
          "name": "",
          "type": "uint256"
        }
      ],
      "stateMutability": "view",
      "type": "function",
      "constant": true
    },
    {
      "inputs": [
        {
          "internalType": "uint256",
          "name": "treeId",
          "type": "uint256"
        }
      ],
      "name": "treeRoots",
      "outputs": [
        {
          "internalType": "uint256",
          "name": "",
          "type": "uint256"
        }
      ],
      "stateMutability": "view",
      "type": "function",
      "constant": true
    },
    {
      "inputs": [
        {
          "internalType": "uint256",
          "name": "treeId",
          "type": "uint256"
        }
      ],
      "name": "treeBranches",
      "outputs": [
        {
          "internalType": "uint256",
          "name": "",
          "type": "uint256"
        }
      ],
      "stateMutability": "view",
      "type": "function",
      "constant": true
    },
    {
      "inputs": [
        {
          "internalType": "uint256",
          "name": "treeId",
          "type": "uint256"
        }
      ],
      "name": "actionStatus",
      "outputs": [
        {
          "internalType": "uint256",
          "name": "",
          "type": "uint256"
        }
      ],
      "stateMutability": "view",
      "type": "function",
      "constant": true
    },
    {
      "inputs": [
        {
          "internalType": "uint256",
          "name": "treeId",
          "type": "uint256"
        }
      ],
      "name": "currentAction",
      "outputs": [
        {
          "internalType": "uint256",
          "name": "",
          "type": "uint256"
        }
      ],
      "stateMutability": "view",
      "type": "function",
      "constant": true
    },
    {
      "inputs": [],
      "name": "currentPrice",
      "outputs": [
        {
          "internalType": "uint256",
          "name": "",
          "type": "uint256"
        }
      ],
      "stateMutability": "view",
      "type": "function",
      "constant": true
    },
    {
      "inputs": [],
      "name": "treesQuantity",
      "outputs": [
        {
          "internalType": "uint256",
          "name": "",
          "type": "uint256"
        }
      ],
      "stateMutability": "view",
      "type": "function",
      "constant": true
    },
    {
      "inputs": [
        {
          "internalType": "uint256",
          "name": "treeId",
          "type": "uint256"
        }
      ],
      "name": "gainLevel",
      "outputs": [],
      "stateMutability": "nonpayable",
      "type": "function"
    },
    {
      "inputs": [
        {
          "internalType": "uint256",
          "name": "treeId",
          "type": "uint256"
        },
        {
          "internalType": "uint256",
          "name": "amount",
          "type": "uint256"
        }
      ],
      "name": "gainExp",
      "outputs": [],
      "stateMutability": "nonpayable",
      "type": "function"
    },
    {
      "inputs": [
        {
          "internalType": "uint256",
          "name": "treeId",
          "type": "uint256"
        }
      ],
      "name": "levelUpBranches",
      "outputs": [],
      "stateMutability": "nonpayable",
      "type": "function"
    },
    {
      "inputs": [
        {
          "internalType": "uint256",
          "name": "treeId",
          "type": "uint256"
        }
      ],
      "name": "levelUpRoots",
      "outputs": [],
      "stateMutability": "nonpayable",
      "type": "function"
    },
    {
      "inputs": [
        {
          "internalType": "uint256",
          "name": "treeId",
          "type": "uint256"
        },
        {
          "internalType": "uint256",
          "name": "action",
          "type": "uint256"
        },
        {
          "internalType": "uint256",
          "name": "time",
          "type": "uint256"
        }
      ],
      "name": "updateAction",
      "outputs": [],
      "stateMutability": "nonpayable",
      "type": "function"
    },
    {
      "inputs": [],
      "name": "createNewTree",
      "outputs": [],
      "stateMutability": "payable",
      "type": "function",
      "payable": true
    },
    {
      "inputs": [
        {
          "internalType": "address",
          "name": "newDevelopment",
          "type": "address"
        }
      ],
      "name": "transferDevelopmentAddress",
      "outputs": [],
      "stateMutability": "nonpayable",
      "type": "function"
    },
    {
      "inputs": [
        {
          "internalType": "address",
          "name": "newTreasury",
          "type": "address"
        }
      ],
      "name": "transferTreasuryAddress",
      "outputs": [],
      "stateMutability": "nonpayable",
      "type": "function"
    },
    {
      "inputs": [
        {
          "internalType": "address",
          "name": "newToken",
          "type": "address"
        }
      ],
      "name": "transferTokenAddress",
      "outputs": [],
      "stateMutability": "nonpayable",
      "type": "function"
    }
  ],
  "bytecode": "0x608060405234801561001057600080fd5b506152ce806100206000396000f3fe6080604052600436106102505760003560e01c806370a0823111610139578063a5caf0f6116100b6578063c87b56dd1161007a578063c87b56dd14610902578063ccd60c821461093f578063d05e465614610968578063d547741f14610991578063d94406f2146109ba578063e985e9c5146109f757610250565b8063a5caf0f614610809578063af2fa83114610846578063b3c7663c14610871578063b88d4fde1461089c578063b906866a146108c557610250565b806391d14854116100fd57806391d148541461072257806395d89b411461075f5780639d1b464a1461078a578063a217fddf146107b5578063a22cb465146107e057610250565b806370a08231146106115780637a5080221461064e5780637b5aa51d146106915780638129fc1c146106ce5780638bbfcac3146106e557610250565b806323b872dd116101d257806336568abe1161019657806336568abe146104f357806342842e0e1461051c5780634ed4d42a146105455780635fa461fc1461056e5780636352211e146105ab5780636cad6932146105e857610250565b806323b872dd146103fe578063248a9ca3146104275780632b60b986146104645780632f2ff15d1461048d578063364051a6146104b657610250565b8063098d750011610219578063098d75001461034e5780630c9490431461037757806310d1eb2a146103a25780631af92ed3146103ac57806321cde202146103d557610250565b8062e23cfc1461025557806301ffc9a71461028057806306fdde03146102bd578063081812fc146102e8578063095ea7b314610325575b600080fd5b34801561026157600080fd5b5061026a610a34565b6040516102779190613947565b60405180910390f35b34801561028c57600080fd5b506102a760048036038101906102a291906139ce565b610a58565b6040516102b49190613a16565b60405180910390f35b3480156102c957600080fd5b506102d2610a6a565b6040516102df9190613aca565b60405180910390f35b3480156102f457600080fd5b5061030f600480360381019061030a9190613b22565b610afc565b60405161031c9190613b90565b60405180910390f35b34801561033157600080fd5b5061034c60048036038101906103479190613bd7565b610b81565b005b34801561035a57600080fd5b5061037560048036038101906103709190613c17565b610c99565b005b34801561038357600080fd5b5061038c610cf3565b6040516103999190613947565b60405180910390f35b6103aa610d39565b005b3480156103b857600080fd5b506103d360048036038101906103ce9190613c17565b610ec6565b005b3480156103e157600080fd5b506103fc60048036038101906103f79190613b22565b610f20565b005b34801561040a57600080fd5b5061042560048036038101906104209190613c44565b6112f3565b005b34801561043357600080fd5b5061044e60048036038101906104499190613cc3565b611353565b60405161045b9190613947565b60405180910390f35b34801561047057600080fd5b5061048b60048036038101906104869190613cf0565b611373565b005b34801561049957600080fd5b506104b460048036038101906104af9190613d43565b6113ff565b005b3480156104c257600080fd5b506104dd60048036038101906104d89190613b22565b611428565b6040516104ea9190613d92565b60405180910390f35b3480156104ff57600080fd5b5061051a60048036038101906105159190613d43565b611457565b005b34801561052857600080fd5b50610543600480360381019061053e9190613c44565b6114da565b005b34801561055157600080fd5b5061056c60048036038101906105679190613c17565b6114fa565b005b34801561057a57600080fd5b5061059560048036038101906105909190613b22565b611554565b6040516105a29190613d92565b60405180910390f35b3480156105b757600080fd5b506105d260048036038101906105cd9190613b22565b611583565b6040516105df9190613b90565b60405180910390f35b3480156105f457600080fd5b5061060f600480360381019061060a9190613dad565b611635565b005b34801561061d57600080fd5b5061063860048036038101906106339190613c17565b6116ff565b6040516106459190613d92565b60405180910390f35b34801561065a57600080fd5b5061067560048036038101906106709190613b22565b6117b7565b6040516106889796959493929190613ded565b60405180910390f35b34801561069d57600080fd5b506106b860048036038101906106b39190613b22565b611809565b6040516106c59190613d92565b60405180910390f35b3480156106da57600080fd5b506106e3611838565b005b3480156106f157600080fd5b5061070c60048036038101906107079190613b22565b611a64565b6040516107199190613d92565b60405180910390f35b34801561072e57600080fd5b5061074960048036038101906107449190613d43565b611a93565b6040516107569190613a16565b60405180910390f35b34801561076b57600080fd5b50610774611afe565b6040516107819190613aca565b60405180910390f35b34801561079657600080fd5b5061079f611b90565b6040516107ac9190613d92565b60405180910390f35b3480156107c157600080fd5b506107ca611bbc565b6040516107d79190613947565b60405180910390f35b3480156107ec57600080fd5b5061080760048036038101906108029190613e88565b611bc3565b005b34801561081557600080fd5b50610830600480360381019061082b9190613b22565b611bd9565b60405161083d9190613d92565b60405180910390f35b34801561085257600080fd5b5061085b611c08565b6040516108689190613d92565b60405180910390f35b34801561087d57600080fd5b50610886611c1a565b6040516108939190613947565b60405180910390f35b3480156108a857600080fd5b506108c360048036038101906108be9190613ffd565b611c3e565b005b3480156108d157600080fd5b506108ec60048036038101906108e79190613b22565b611ca0565b6040516108f99190613d92565b60405180910390f35b34801561090e57600080fd5b5061092960048036038101906109249190613b22565b611ccf565b6040516109369190613aca565b60405180910390f35b34801561094b57600080fd5b5061096660048036038101906109619190613b22565b611d76565b005b34801561097457600080fd5b5061098f600480360381019061098a9190613b22565b6120c1565b005b34801561099d57600080fd5b506109b860048036038101906109b39190613d43565b61240c565b005b3480156109c657600080fd5b506109e160048036038101906109dc9190613b22565b612435565b6040516109ee9190613d92565b60405180910390f35b348015610a0357600080fd5b50610a1e6004803603810190610a199190614080565b612464565b604051610a2b9190613a16565b60405180910390f35b7f19ac353dd86d6954025a359137447e1fda8f14ba7ba6373372af73b706fa3b2281565b6000610a63826124f8565b9050919050565b606060658054610a79906140ef565b80601f0160208091040260200160405190810160405280929190818152602001828054610aa5906140ef565b8015610af25780601f10610ac757610100808354040283529160200191610af2565b820191906000526020600020905b815481529060010190602001808311610ad557829003601f168201915b5050505050905090565b6000610b0782612572565b610b46576040517f08c379a0000000000000000000000000000000000000000000000000000000008152600401610b3d90614193565b60405180910390fd5b6069600083815260200190815260200160002060009054906101000a900473ffffffffffffffffffffffffffffffffffffffff169050919050565b6000610b8c82611583565b90508073ffffffffffffffffffffffffffffffffffffffff168373ffffffffffffffffffffffffffffffffffffffff161415610bfd576040517f08c379a0000000000000000000000000000000000000000000000000000000008152600401610bf490614225565b60405180910390fd5b8073ffffffffffffffffffffffffffffffffffffffff16610c1c6125de565b73ffffffffffffffffffffffffffffffffffffffff161480610c4b5750610c4a81610c456125de565b612464565b5b610c8a576040517f08c379a0000000000000000000000000000000000000000000000000000000008152600401610c81906142b7565b60405180910390fd5b610c9483836125e6565b505050565b6000801b610cae81610ca96125de565b61269f565b8160cc60006101000a81548173ffffffffffffffffffffffffffffffffffffffff021916908373ffffffffffffffffffffffffffffffffffffffff1602179055505050565b6000610cfd613869565b4381600060018110610d1257610d116142d7565b5b60200201818152505060405160208160208460ff600019fa610d3057fe5b80519250505090565b600073ffffffffffffffffffffffffffffffffffffffff163373ffffffffffffffffffffffffffffffffffffffff1614158015610da257503073ffffffffffffffffffffffffffffffffffffffff163373ffffffffffffffffffffffffffffffffffffffff1614155b610dab57600080fd5b610db3611b90565b341015610dbf57600080fd5b600060ce8054905090506000610dd361273c565b905060ce6040518060e00160405280838152602001600181526020016000815260200160018152602001600181526020016000815260200160008152509080600181540180825580915050600190039060005260206000209060070201600090919091909150600082015181600001556020820151816001015560408201518160020155606082015181600301556080820151816004015560a0820151816005015560c082015181600601555050610e8b3383612786565b7f5aa7f45898fcb5638757632f4ea98818ccb1f1b865b0721648cfb14cfcd2da9a82604051610eba9190613d92565b60405180910390a15050565b6000801b610edb81610ed66125de565b61269f565b8160cb60006101000a81548173ffffffffffffffffffffffffffffffffffffffff021916908373ffffffffffffffffffffffffffffffffffffffff1602179055505050565b7f8b83cff217526f65affab658236a6c4f2d8020cd01ccd4c27987c26870279b14610f5281610f4d6125de565b61269f565b6000670de0b6b3a764000060ce8481548110610f7157610f706142d7565b5b906000526020600020906007020160010154610f8d9190614335565b90508060cd60009054906101000a900473ffffffffffffffffffffffffffffffffffffffff1673ffffffffffffffffffffffffffffffffffffffff166370a08231336040518263ffffffff1660e01b8152600401610feb9190613b90565b602060405180830381865afa158015611008573d6000803e3d6000fd5b505050506040513d601f19601f8201168201806040525081019061102c91906143a4565b101561103757600080fd5b60cd60009054906101000a900473ffffffffffffffffffffffffffffffffffffffff1673ffffffffffffffffffffffffffffffffffffffff166323b872dd3360cc60009054906101000a900473ffffffffffffffffffffffffffffffffffffffff1660646060866110a89190614335565b6110b29190614400565b6040518463ffffffff1660e01b81526004016110d093929190614431565b6020604051808303816000875af11580156110ef573d6000803e3d6000fd5b505050506040513d601f19601f82011682018060405250810190611113919061447d565b5060cd60009054906101000a900473ffffffffffffffffffffffffffffffffffffffff1673ffffffffffffffffffffffffffffffffffffffff166323b872dd3360cb60009054906101000a900473ffffffffffffffffffffffffffffffffffffffff1660646004866111859190614335565b61118f9190614400565b6040518463ffffffff1660e01b81526004016111ad93929190614431565b6020604051808303816000875af11580156111cc573d6000803e3d6000fd5b505050506040513d601f19601f820116820180604052508101906111f0919061447d565b50606460ce8481548110611207576112066142d7565b5b9060005260206000209060070201600101546112239190614335565b60ce8481548110611237576112366142d7565b5b90600052602060002090600702016002015461125391906144aa565b60ce8481548110611267576112666142d7565b5b90600052602060002090600702016002018190555060ce83815481106112905761128f6142d7565b5b906000526020600020906007020160010160008154809291906112b2906144de565b91905055507f7ef1df0b6d95a41d9ebcaa695746726b382e110036a9127b009babdb11c656a2836040516112e69190613d92565b60405180910390a1505050565b6113046112fe6125de565b82612954565b611343576040517f08c379a000000000000000000000000000000000000000000000000000000000815260040161133a90614599565b60405180910390fd5b61134e838383612a32565b505050565b600060976000838152602001908152602001600020600101549050919050565b7f19ac353dd86d6954025a359137447e1fda8f14ba7ba6373372af73b706fa3b226113a5816113a06125de565b61269f565b8160ce85815481106113ba576113b96142d7565b5b9060005260206000209060070201600601819055508260ce85815481106113e4576113e36142d7565b5b90600052602060002090600702016005018190555050505050565b61140882611353565b611419816114146125de565b61269f565b6114238383612c8e565b505050565b600060ce828154811061143e5761143d6142d7565b5b9060005260206000209060070201600401549050919050565b61145f6125de565b73ffffffffffffffffffffffffffffffffffffffff168173ffffffffffffffffffffffffffffffffffffffff16146114cc576040517f08c379a00000000000000000000000000000000000000000000000000000000081526004016114c39061462b565b60405180910390fd5b6114d68282612d6f565b5050565b6114f583838360405180602001604052806000815250611c3e565b505050565b6000801b61150f8161150a6125de565b61269f565b8160cd60006101000a81548173ffffffffffffffffffffffffffffffffffffffff021916908373ffffffffffffffffffffffffffffffffffffffff1602179055505050565b600060ce828154811061156a576115696142d7565b5b9060005260206000209060070201600201549050919050565b6000806067600084815260200190815260200160002060009054906101000a900473ffffffffffffffffffffffffffffffffffffffff169050600073ffffffffffffffffffffffffffffffffffffffff168173ffffffffffffffffffffffffffffffffffffffff16141561162c576040517f08c379a0000000000000000000000000000000000000000000000000000000008152600401611623906146bd565b60405180910390fd5b80915050919050565b7f19ac353dd86d6954025a359137447e1fda8f14ba7ba6373372af73b706fa3b22611667816116626125de565b61269f565b8160ce848154811061167c5761167b6142d7565b5b90600052602060002090600702016002015461169891906146dd565b60ce84815481106116ac576116ab6142d7565b5b9060005260206000209060070201600201819055507ffa65d54a674245861f726a6e25ffd7e32b5f7e7a6a62bd81b222ad6f53643d2883836040516116f2929190614733565b60405180910390a1505050565b60008073ffffffffffffffffffffffffffffffffffffffff168273ffffffffffffffffffffffffffffffffffffffff161415611770576040517f08c379a0000000000000000000000000000000000000000000000000000000008152600401611767906147ce565b60405180910390fd5b606860008373ffffffffffffffffffffffffffffffffffffffff1673ffffffffffffffffffffffffffffffffffffffff168152602001908152602001600020549050919050565b60ce81815481106117c757600080fd5b90600052602060002090600702016000915090508060000154908060010154908060020154908060030154908060040154908060050154908060060154905087565b600060ce828154811061181f5761181e6142d7565b5b9060005260206000209060070201600301549050919050565b600060019054906101000a900460ff166118605760008054906101000a900460ff1615611869565b611868612e51565b5b6118a8576040517f08c379a000000000000000000000000000000000000000000000000000000000815260040161189f90614860565b60405180910390fd5b60008060019054906101000a900460ff1615905080156118f8576001600060016101000a81548160ff02191690831515021790555060016000806101000a81548160ff0219169083151502179055505b601060c98190555060c954600a61190f91906149b3565b60ca8190555073fd768e668a158c173e9549d1632902c2a436317860cb60006101000a81548173ffffffffffffffffffffffffffffffffffffffff021916908373ffffffffffffffffffffffffffffffffffffffff16021790555073fd768e668a158c173e9549d1632902c2a436317860cc60006101000a81548173ffffffffffffffffffffffffffffffffffffffff021916908373ffffffffffffffffffffffffffffffffffffffff1602179055506119cc6000801b33612e62565b611a406040518060400160405280600e81526020017f50617461676f6e696320547265650000000000000000000000000000000000008152506040518060400160405280600581526020017f5054524545000000000000000000000000000000000000000000000000000000815250612e70565b8015611a615760008060016101000a81548160ff0219169083151502179055505b50565b600060ce8281548110611a7a57611a796142d7565b5b9060005260206000209060070201600101549050919050565b60006097600084815260200190815260200160002060000160008373ffffffffffffffffffffffffffffffffffffffff1673ffffffffffffffffffffffffffffffffffffffff16815260200190815260200160002060009054906101000a900460ff16905092915050565b606060668054611b0d906140ef565b80601f0160208091040260200160405190810160405280929190818152602001828054611b39906140ef565b8015611b865780601f10611b5b57610100808354040283529160200191611b86565b820191906000526020600020905b815481529060010190602001808311611b6957829003601f168201915b5050505050905090565b6000670de0b6b3a7640000600160ce80549050611bad91906146dd565b611bb79190614335565b905090565b6000801b81565b611bd5611bce6125de565b8383612edd565b5050565b600060ce8281548110611bef57611bee6142d7565b5b9060005260206000209060070201600601549050919050565b60008060ce8054905090508091505090565b7f8b83cff217526f65affab658236a6c4f2d8020cd01ccd4c27987c26870279b1481565b611c4f611c496125de565b83612954565b611c8e576040517f08c379a0000000000000000000000000000000000000000000000000000000008152600401611c8590614599565b60405180910390fd5b611c9a8484848461304a565b50505050565b600060ce8281548110611cb657611cb56142d7565b5b9060005260206000209060070201600501549050919050565b6060611cda82612572565b611d19576040517f08c379a0000000000000000000000000000000000000000000000000000000008152600401611d1090614a70565b60405180910390fd5b6000611d236130a6565b90506000815111611d435760405180602001604052806000815250611d6e565b80611d4d846130bd565b604051602001611d5e929190614acc565b6040516020818303038152906040525b915050919050565b7f8b83cff217526f65affab658236a6c4f2d8020cd01ccd4c27987c26870279b14611da881611da36125de565b61269f565b6000670de0b6b3a764000060ce8481548110611dc757611dc66142d7565b5b906000526020600020906007020160030154611de39190614335565b90508060cd60009054906101000a900473ffffffffffffffffffffffffffffffffffffffff1673ffffffffffffffffffffffffffffffffffffffff166370a08231336040518263ffffffff1660e01b8152600401611e419190613b90565b602060405180830381865afa158015611e5e573d6000803e3d6000fd5b505050506040513d601f19601f82011682018060405250810190611e8291906143a4565b1015611e8d57600080fd5b60cd60009054906101000a900473ffffffffffffffffffffffffffffffffffffffff1673ffffffffffffffffffffffffffffffffffffffff166323b872dd3360cc60009054906101000a900473ffffffffffffffffffffffffffffffffffffffff166064606086611efe9190614335565b611f089190614400565b6040518463ffffffff1660e01b8152600401611f2693929190614431565b6020604051808303816000875af1158015611f45573d6000803e3d6000fd5b505050506040513d601f19601f82011682018060405250810190611f69919061447d565b5060cd60009054906101000a900473ffffffffffffffffffffffffffffffffffffffff1673ffffffffffffffffffffffffffffffffffffffff166323b872dd3360cb60009054906101000a900473ffffffffffffffffffffffffffffffffffffffff166064600486611fdb9190614335565b611fe59190614400565b6040518463ffffffff1660e01b815260040161200393929190614431565b6020604051808303816000875af1158015612022573d6000803e3d6000fd5b505050506040513d601f19601f82011682018060405250810190612046919061447d565b5060ce838154811061205b5761205a6142d7565b5b9060005260206000209060070201600301600081548092919061207d906144de565b91905055507f20c31955b530563483aba79e1a051106dcb9ee48b987bfa568ef479e011c1a6c8360016040516120b4929190614b35565b60405180910390a1505050565b7f8b83cff217526f65affab658236a6c4f2d8020cd01ccd4c27987c26870279b146120f3816120ee6125de565b61269f565b6000670de0b6b3a764000060ce8481548110612112576121116142d7565b5b90600052602060002090600702016004015461212e9190614335565b90508060cd60009054906101000a900473ffffffffffffffffffffffffffffffffffffffff1673ffffffffffffffffffffffffffffffffffffffff166370a08231336040518263ffffffff1660e01b815260040161218c9190613b90565b602060405180830381865afa1580156121a9573d6000803e3d6000fd5b505050506040513d601f19601f820116820180604052508101906121cd91906143a4565b10156121d857600080fd5b60cd60009054906101000a900473ffffffffffffffffffffffffffffffffffffffff1673ffffffffffffffffffffffffffffffffffffffff166323b872dd3360cc60009054906101000a900473ffffffffffffffffffffffffffffffffffffffff1660646060866122499190614335565b6122539190614400565b6040518463ffffffff1660e01b815260040161227193929190614431565b6020604051808303816000875af1158015612290573d6000803e3d6000fd5b505050506040513d601f19601f820116820180604052508101906122b4919061447d565b5060cd60009054906101000a900473ffffffffffffffffffffffffffffffffffffffff1673ffffffffffffffffffffffffffffffffffffffff166323b872dd3360cb60009054906101000a900473ffffffffffffffffffffffffffffffffffffffff1660646004866123269190614335565b6123309190614400565b6040518463ffffffff1660e01b815260040161234e93929190614431565b6020604051808303816000875af115801561236d573d6000803e3d6000fd5b505050506040513d601f19601f82011682018060405250810190612391919061447d565b5060ce83815481106123a6576123a56142d7565b5b906000526020600020906007020160040160008154809291906123c8906144de565b91905055507f20c31955b530563483aba79e1a051106dcb9ee48b987bfa568ef479e011c1a6c8360006040516123ff929190614b99565b60405180910390a1505050565b61241582611353565b612426816124216125de565b61269f565b6124308383612d6f565b505050565b600060ce828154811061244b5761244a6142d7565b5b9060005260206000209060070201600001549050919050565b6000606a60008473ffffffffffffffffffffffffffffffffffffffff1673ffffffffffffffffffffffffffffffffffffffff16815260200190815260200160002060008373ffffffffffffffffffffffffffffffffffffffff1673ffffffffffffffffffffffffffffffffffffffff16815260200190815260200160002060009054906101000a900460ff16905092915050565b60007f7965db0b000000000000000000000000000000000000000000000000000000007bffffffffffffffffffffffffffffffffffffffffffffffffffffffff1916827bffffffffffffffffffffffffffffffffffffffffffffffffffffffff1916148061256b575061256a8261321e565b5b9050919050565b60008073ffffffffffffffffffffffffffffffffffffffff166067600084815260200190815260200160002060009054906101000a900473ffffffffffffffffffffffffffffffffffffffff1673ffffffffffffffffffffffffffffffffffffffff1614159050919050565b600033905090565b816069600083815260200190815260200160002060006101000a81548173ffffffffffffffffffffffffffffffffffffffff021916908373ffffffffffffffffffffffffffffffffffffffff160217905550808273ffffffffffffffffffffffffffffffffffffffff1661265983611583565b73ffffffffffffffffffffffffffffffffffffffff167f8c5be1e5ebec7d5bd14f71427d1e84f3dd0314c0f7b2291e5b200ac8c7c3b92560405160405180910390a45050565b6126a98282611a93565b612738576126ce8173ffffffffffffffffffffffffffffffffffffffff166014613300565b6126dc8360001c6020613300565b6040516020016126ed929190614c5a565b6040516020818303038152906040526040517f08c379a000000000000000000000000000000000000000000000000000000000815260040161272f9190613aca565b60405180910390fd5b5050565b600080612747610cf3565b6040516020016127579190614cb5565b6040516020818303038152906040528051906020012060001c905060ca54816127809190614cd0565b91505090565b600073ffffffffffffffffffffffffffffffffffffffff168273ffffffffffffffffffffffffffffffffffffffff1614156127f6576040517f08c379a00000000000000000000000000000000000000000000000000000000081526004016127ed90614d4d565b60405180910390fd5b6127ff81612572565b1561283f576040517f08c379a000000000000000000000000000000000000000000000000000000000815260040161283690614db9565b60405180910390fd5b61284b6000838361353c565b6001606860008473ffffffffffffffffffffffffffffffffffffffff1673ffffffffffffffffffffffffffffffffffffffff168152602001908152602001600020600082825461289b91906146dd565b92505081905550816067600083815260200190815260200160002060006101000a81548173ffffffffffffffffffffffffffffffffffffffff021916908373ffffffffffffffffffffffffffffffffffffffff160217905550808273ffffffffffffffffffffffffffffffffffffffff16600073ffffffffffffffffffffffffffffffffffffffff167fddf252ad1be2c89b69c2b068fc378daa952ba7f163c4a11628f55a4df523b3ef60405160405180910390a45050565b600061295f82612572565b61299e576040517f08c379a000000000000000000000000000000000000000000000000000000000815260040161299590614e4b565b60405180910390fd5b60006129a983611583565b90508073ffffffffffffffffffffffffffffffffffffffff168473ffffffffffffffffffffffffffffffffffffffff161480612a1857508373ffffffffffffffffffffffffffffffffffffffff16612a0084610afc565b73ffffffffffffffffffffffffffffffffffffffff16145b80612a295750612a288185612464565b5b91505092915050565b8273ffffffffffffffffffffffffffffffffffffffff16612a5282611583565b73ffffffffffffffffffffffffffffffffffffffff1614612aa8576040517f08c379a0000000000000000000000000000000000000000000000000000000008152600401612a9f90614edd565b60405180910390fd5b600073ffffffffffffffffffffffffffffffffffffffff168273ffffffffffffffffffffffffffffffffffffffff161415612b18576040517f08c379a0000000000000000000000000000000000000000000000000000000008152600401612b0f90614f6f565b60405180910390fd5b612b2383838361353c565b612b2e6000826125e6565b6001606860008573ffffffffffffffffffffffffffffffffffffffff1673ffffffffffffffffffffffffffffffffffffffff1681526020019081526020016000206000828254612b7e91906144aa565b925050819055506001606860008473ffffffffffffffffffffffffffffffffffffffff1673ffffffffffffffffffffffffffffffffffffffff1681526020019081526020016000206000828254612bd591906146dd565b92505081905550816067600083815260200190815260200160002060006101000a81548173ffffffffffffffffffffffffffffffffffffffff021916908373ffffffffffffffffffffffffffffffffffffffff160217905550808273ffffffffffffffffffffffffffffffffffffffff168473ffffffffffffffffffffffffffffffffffffffff167fddf252ad1be2c89b69c2b068fc378daa952ba7f163c4a11628f55a4df523b3ef60405160405180910390a4505050565b612c988282611a93565b612d6b5760016097600084815260200190815260200160002060000160008373ffffffffffffffffffffffffffffffffffffffff1673ffffffffffffffffffffffffffffffffffffffff16815260200190815260200160002060006101000a81548160ff021916908315150217905550612d106125de565b73ffffffffffffffffffffffffffffffffffffffff168173ffffffffffffffffffffffffffffffffffffffff16837f2f8788117e7eff1d82e926ec794901d17c78024a50270940304540a733656f0d60405160405180910390a45b5050565b612d798282611a93565b15612e4d5760006097600084815260200190815260200160002060000160008373ffffffffffffffffffffffffffffffffffffffff1673ffffffffffffffffffffffffffffffffffffffff16815260200190815260200160002060006101000a81548160ff021916908315150217905550612df26125de565b73ffffffffffffffffffffffffffffffffffffffff168173ffffffffffffffffffffffffffffffffffffffff16837ff6391f5c32d9c69d2a47ea670b442974b53935d1edc7fd64eb21e047a839171b60405160405180910390a45b5050565b6000612e5c30613541565b15905090565b612e6c8282612c8e565b5050565b600060019054906101000a900460ff16612ebf576040517f08c379a0000000000000000000000000000000000000000000000000000000008152600401612eb690615001565b60405180910390fd5b612ec7613554565b612ecf6135a5565b612ed982826135f6565b5050565b8173ffffffffffffffffffffffffffffffffffffffff168373ffffffffffffffffffffffffffffffffffffffff161415612f4c576040517f08c379a0000000000000000000000000000000000000000000000000000000008152600401612f439061506d565b60405180910390fd5b80606a60008573ffffffffffffffffffffffffffffffffffffffff1673ffffffffffffffffffffffffffffffffffffffff16815260200190815260200160002060008473ffffffffffffffffffffffffffffffffffffffff1673ffffffffffffffffffffffffffffffffffffffff16815260200190815260200160002060006101000a81548160ff0219169083151502179055508173ffffffffffffffffffffffffffffffffffffffff168373ffffffffffffffffffffffffffffffffffffffff167f17307eab39ab6107e8899845ad3d59bd9653f200f220920489ca2b5937696c318360405161303d9190613a16565b60405180910390a3505050565b613055848484612a32565b61306184848484613677565b6130a0576040517f08c379a0000000000000000000000000000000000000000000000000000000008152600401613097906150ff565b60405180910390fd5b50505050565b606060405180602001604052806000815250905090565b60606000821415613105576040518060400160405280600181526020017f30000000000000000000000000000000000000000000000000000000000000008152509050613219565b600082905060005b60008214613137578080613120906144de565b915050600a826131309190614400565b915061310d565b60008167ffffffffffffffff81111561315357613152613ed2565b5b6040519080825280601f01601f1916602001820160405280156131855781602001600182028036833780820191505090505b5090505b600085146132125760018261319e91906144aa565b9150600a856131ad9190614cd0565b60306131b991906146dd565b60f81b8183815181106131cf576131ce6142d7565b5b60200101907effffffffffffffffffffffffffffffffffffffffffffffffffffffffffffff1916908160001a905350600a8561320b9190614400565b9450613189565b8093505050505b919050565b60007f80ac58cd000000000000000000000000000000000000000000000000000000007bffffffffffffffffffffffffffffffffffffffffffffffffffffffff1916827bffffffffffffffffffffffffffffffffffffffffffffffffffffffff191614806132e957507f5b5e139f000000000000000000000000000000000000000000000000000000007bffffffffffffffffffffffffffffffffffffffffffffffffffffffff1916827bffffffffffffffffffffffffffffffffffffffffffffffffffffffff1916145b806132f957506132f8826137ff565b5b9050919050565b6060600060028360026133139190614335565b61331d91906146dd565b67ffffffffffffffff81111561333657613335613ed2565b5b6040519080825280601f01601f1916602001820160405280156133685781602001600182028036833780820191505090505b5090507f3000000000000000000000000000000000000000000000000000000000000000816000815181106133a05761339f6142d7565b5b60200101907effffffffffffffffffffffffffffffffffffffffffffffffffffffffffffff1916908160001a9053507f780000000000000000000000000000000000000000000000000000000000000081600181518110613404576134036142d7565b5b60200101907effffffffffffffffffffffffffffffffffffffffffffffffffffffffffffff1916908160001a905350600060018460026134449190614335565b61344e91906146dd565b90505b60018111156134ee577f3031323334353637383961626364656600000000000000000000000000000000600f8616601081106134905761348f6142d7565b5b1a60f81b8282815181106134a7576134a66142d7565b5b60200101907effffffffffffffffffffffffffffffffffffffffffffffffffffffffffffff1916908160001a905350600485901c9450806134e79061511f565b9050613451565b5060008414613532576040517f08c379a000000000000000000000000000000000000000000000000000000000815260040161352990615195565b60405180910390fd5b8091505092915050565b505050565b600080823b905060008111915050919050565b600060019054906101000a900460ff166135a3576040517f08c379a000000000000000000000000000000000000000000000000000000000815260040161359a90615001565b60405180910390fd5b565b600060019054906101000a900460ff166135f4576040517f08c379a00000000000000000000000000000000000000000000000000000000081526004016135eb90615001565b60405180910390fd5b565b600060019054906101000a900460ff16613645576040517f08c379a000000000000000000000000000000000000000000000000000000000815260040161363c90615001565b60405180910390fd5b816065908051906020019061365b92919061388b565b50806066908051906020019061367292919061388b565b505050565b60006136988473ffffffffffffffffffffffffffffffffffffffff16613541565b156137f2578373ffffffffffffffffffffffffffffffffffffffff1663150b7a026136c16125de565b8786866040518563ffffffff1660e01b81526004016136e3949392919061520a565b6020604051808303816000875af192505050801561371f57506040513d601f19601f8201168201806040525081019061371c919061526b565b60015b6137a2573d806000811461374f576040519150601f19603f3d011682016040523d82523d6000602084013e613754565b606091505b5060008151141561379a576040517f08c379a0000000000000000000000000000000000000000000000000000000008152600401613791906150ff565b60405180910390fd5b805181602001fd5b63150b7a0260e01b7bffffffffffffffffffffffffffffffffffffffffffffffffffffffff1916817bffffffffffffffffffffffffffffffffffffffffffffffffffffffff1916149150506137f7565b600190505b949350505050565b60007f01ffc9a7000000000000000000000000000000000000000000000000000000007bffffffffffffffffffffffffffffffffffffffffffffffffffffffff1916827bffffffffffffffffffffffffffffffffffffffffffffffffffffffff1916149050919050565b6040518060200160405280600190602082028036833780820191505090505090565b828054613897906140ef565b90600052602060002090601f0160209004810192826138b95760008555613900565b82601f106138d257805160ff1916838001178555613900565b82800160010185558215613900579182015b828111156138ff5782518255916020019190600101906138e4565b5b50905061390d9190613911565b5090565b5b8082111561392a576000816000905550600101613912565b5090565b6000819050919050565b6139418161392e565b82525050565b600060208201905061395c6000830184613938565b92915050565b6000604051905090565b600080fd5b600080fd5b60007fffffffff0000000000000000000000000000000000000000000000000000000082169050919050565b6139ab81613976565b81146139b657600080fd5b50565b6000813590506139c8816139a2565b92915050565b6000602082840312156139e4576139e361396c565b5b60006139f2848285016139b9565b91505092915050565b60008115159050919050565b613a10816139fb565b82525050565b6000602082019050613a2b6000830184613a07565b92915050565b600081519050919050565b600082825260208201905092915050565b60005b83811015613a6b578082015181840152602081019050613a50565b83811115613a7a576000848401525b50505050565b6000601f19601f8301169050919050565b6000613a9c82613a31565b613aa68185613a3c565b9350613ab6818560208601613a4d565b613abf81613a80565b840191505092915050565b60006020820190508181036000830152613ae48184613a91565b905092915050565b6000819050919050565b613aff81613aec565b8114613b0a57600080fd5b50565b600081359050613b1c81613af6565b92915050565b600060208284031215613b3857613b3761396c565b5b6000613b4684828501613b0d565b91505092915050565b600073ffffffffffffffffffffffffffffffffffffffff82169050919050565b6000613b7a82613b4f565b9050919050565b613b8a81613b6f565b82525050565b6000602082019050613ba56000830184613b81565b92915050565b613bb481613b6f565b8114613bbf57600080fd5b50565b600081359050613bd181613bab565b92915050565b60008060408385031215613bee57613bed61396c565b5b6000613bfc85828601613bc2565b9250506020613c0d85828601613b0d565b9150509250929050565b600060208284031215613c2d57613c2c61396c565b5b6000613c3b84828501613bc2565b91505092915050565b600080600060608486031215613c5d57613c5c61396c565b5b6000613c6b86828701613bc2565b9350506020613c7c86828701613bc2565b9250506040613c8d86828701613b0d565b9150509250925092565b613ca08161392e565b8114613cab57600080fd5b50565b600081359050613cbd81613c97565b92915050565b600060208284031215613cd957613cd861396c565b5b6000613ce784828501613cae565b91505092915050565b600080600060608486031215613d0957613d0861396c565b5b6000613d1786828701613b0d565b9350506020613d2886828701613b0d565b9250506040613d3986828701613b0d565b9150509250925092565b60008060408385031215613d5a57613d5961396c565b5b6000613d6885828601613cae565b9250506020613d7985828601613bc2565b9150509250929050565b613d8c81613aec565b82525050565b6000602082019050613da76000830184613d83565b92915050565b60008060408385031215613dc457613dc361396c565b5b6000613dd285828601613b0d565b9250506020613de385828601613b0d565b9150509250929050565b600060e082019050613e02600083018a613d83565b613e0f6020830189613d83565b613e1c6040830188613d83565b613e296060830187613d83565b613e366080830186613d83565b613e4360a0830185613d83565b613e5060c0830184613d83565b98975050505050505050565b613e65816139fb565b8114613e7057600080fd5b50565b600081359050613e8281613e5c565b92915050565b60008060408385031215613e9f57613e9e61396c565b5b6000613ead85828601613bc2565b9250506020613ebe85828601613e73565b9150509250929050565b600080fd5b600080fd5b7f4e487b7100000000000000000000000000000000000000000000000000000000600052604160045260246000fd5b613f0a82613a80565b810181811067ffffffffffffffff82111715613f2957613f28613ed2565b5b80604052505050565b6000613f3c613962565b9050613f488282613f01565b919050565b600067ffffffffffffffff821115613f6857613f67613ed2565b5b613f7182613a80565b9050602081019050919050565b82818337600083830152505050565b6000613fa0613f9b84613f4d565b613f32565b905082815260208101848484011115613fbc57613fbb613ecd565b5b613fc7848285613f7e565b509392505050565b600082601f830112613fe457613fe3613ec8565b5b8135613ff4848260208601613f8d565b91505092915050565b600080600080608085870312156140175761401661396c565b5b600061402587828801613bc2565b945050602061403687828801613bc2565b935050604061404787828801613b0d565b925050606085013567ffffffffffffffff81111561406857614067613971565b5b61407487828801613fcf565b91505092959194509250565b600080604083850312156140975761409661396c565b5b60006140a585828601613bc2565b92505060206140b685828601613bc2565b9150509250929050565b7f4e487b7100000000000000000000000000000000000000000000000000000000600052602260045260246000fd5b6000600282049050600182168061410757607f821691505b6020821081141561411b5761411a6140c0565b5b50919050565b7f4552433732313a20617070726f76656420717565727920666f72206e6f6e657860008201527f697374656e7420746f6b656e0000000000000000000000000000000000000000602082015250565b600061417d602c83613a3c565b915061418882614121565b604082019050919050565b600060208201905081810360008301526141ac81614170565b9050919050565b7f4552433732313a20617070726f76616c20746f2063757272656e74206f776e6560008201527f7200000000000000000000000000000000000000000000000000000000000000602082015250565b600061420f602183613a3c565b915061421a826141b3565b604082019050919050565b6000602082019050818103600083015261423e81614202565b9050919050565b7f4552433732313a20617070726f76652063616c6c6572206973206e6f74206f7760008201527f6e6572206e6f7220617070726f76656420666f7220616c6c0000000000000000602082015250565b60006142a1603883613a3c565b91506142ac82614245565b604082019050919050565b600060208201905081810360008301526142d081614294565b9050919050565b7f4e487b7100000000000000000000000000000000000000000000000000000000600052603260045260246000fd5b7f4e487b7100000000000000000000000000000000000000000000000000000000600052601160045260246000fd5b600061434082613aec565b915061434b83613aec565b9250817fffffffffffffffffffffffffffffffffffffffffffffffffffffffffffffffff048311821515161561438457614383614306565b5b828202905092915050565b60008151905061439e81613af6565b92915050565b6000602082840312156143ba576143b961396c565b5b60006143c88482850161438f565b91505092915050565b7f4e487b7100000000000000000000000000000000000000000000000000000000600052601260045260246000fd5b600061440b82613aec565b915061441683613aec565b925082614426576144256143d1565b5b828204905092915050565b60006060820190506144466000830186613b81565b6144536020830185613b81565b6144606040830184613d83565b949350505050565b60008151905061447781613e5c565b92915050565b6000602082840312156144935761449261396c565b5b60006144a184828501614468565b91505092915050565b60006144b582613aec565b91506144c083613aec565b9250828210156144d3576144d2614306565b5b828203905092915050565b60006144e982613aec565b91507fffffffffffffffffffffffffffffffffffffffffffffffffffffffffffffffff82141561451c5761451b614306565b5b600182019050919050565b7f4552433732313a207472616e736665722063616c6c6572206973206e6f74206f60008201527f776e6572206e6f7220617070726f766564000000000000000000000000000000602082015250565b6000614583603183613a3c565b915061458e82614527565b604082019050919050565b600060208201905081810360008301526145b281614576565b9050919050565b7f416363657373436f6e74726f6c3a2063616e206f6e6c792072656e6f756e636560008201527f20726f6c657320666f722073656c660000000000000000000000000000000000602082015250565b6000614615602f83613a3c565b9150614620826145b9565b604082019050919050565b6000602082019050818103600083015261464481614608565b9050919050565b7f4552433732313a206f776e657220717565727920666f72206e6f6e657869737460008201527f656e7420746f6b656e0000000000000000000000000000000000000000000000602082015250565b60006146a7602983613a3c565b91506146b28261464b565b604082019050919050565b600060208201905081810360008301526146d68161469a565b9050919050565b60006146e882613aec565b91506146f383613aec565b9250827fffffffffffffffffffffffffffffffffffffffffffffffffffffffffffffffff0382111561472857614727614306565b5b828201905092915050565b60006040820190506147486000830185613d83565b6147556020830184613d83565b9392505050565b7f4552433732313a2062616c616e636520717565727920666f7220746865207a6560008201527f726f206164647265737300000000000000000000000000000000000000000000602082015250565b60006147b8602a83613a3c565b91506147c38261475c565b604082019050919050565b600060208201905081810360008301526147e7816147ab565b9050919050565b7f496e697469616c697a61626c653a20636f6e747261637420697320616c72656160008201527f647920696e697469616c697a6564000000000000000000000000000000000000602082015250565b600061484a602e83613a3c565b9150614855826147ee565b604082019050919050565b600060208201905081810360008301526148798161483d565b9050919050565b60008160011c9050919050565b6000808291508390505b60018511156148d7578086048111156148b3576148b2614306565b5b60018516156148c25780820291505b80810290506148d085614880565b9450614897565b94509492505050565b6000826148f057600190506149ac565b816148fe57600090506149ac565b8160018114614914576002811461491e5761494d565b60019150506149ac565b60ff8411156149305761492f614306565b5b8360020a91508482111561494757614946614306565b5b506149ac565b5060208310610133831016604e8410600b84101617156149825782820a90508381111561497d5761497c614306565b5b6149ac565b61498f848484600161488d565b925090508184048111156149a6576149a5614306565b5b81810290505b9392505050565b60006149be82613aec565b91506149c983613aec565b92506149f67fffffffffffffffffffffffffffffffffffffffffffffffffffffffffffffffff84846148e0565b905092915050565b7f4552433732314d657461646174613a2055524920717565727920666f72206e6f60008201527f6e6578697374656e7420746f6b656e0000000000000000000000000000000000602082015250565b6000614a5a602f83613a3c565b9150614a65826149fe565b604082019050919050565b60006020820190508181036000830152614a8981614a4d565b9050919050565b600081905092915050565b6000614aa682613a31565b614ab08185614a90565b9350614ac0818560208601613a4d565b80840191505092915050565b6000614ad88285614a9b565b9150614ae48284614a9b565b91508190509392505050565b6000819050919050565b6000819050919050565b6000614b1f614b1a614b1584614af0565b614afa565b613aec565b9050919050565b614b2f81614b04565b82525050565b6000604082019050614b4a6000830185613d83565b614b576020830184614b26565b9392505050565b6000819050919050565b6000614b83614b7e614b7984614b5e565b614afa565b613aec565b9050919050565b614b9381614b68565b82525050565b6000604082019050614bae6000830185613d83565b614bbb6020830184614b8a565b9392505050565b7f416363657373436f6e74726f6c3a206163636f756e7420000000000000000000600082015250565b6000614bf8601783614a90565b9150614c0382614bc2565b601782019050919050565b7f206973206d697373696e6720726f6c6520000000000000000000000000000000600082015250565b6000614c44601183614a90565b9150614c4f82614c0e565b601182019050919050565b6000614c6582614beb565b9150614c718285614a9b565b9150614c7c82614c37565b9150614c888284614a9b565b91508190509392505050565b6000819050919050565b614caf614caa8261392e565b614c94565b82525050565b6000614cc18284614c9e565b60208201915081905092915050565b6000614cdb82613aec565b9150614ce683613aec565b925082614cf657614cf56143d1565b5b828206905092915050565b7f4552433732313a206d696e7420746f20746865207a65726f2061646472657373600082015250565b6000614d37602083613a3c565b9150614d4282614d01565b602082019050919050565b60006020820190508181036000830152614d6681614d2a565b9050919050565b7f4552433732313a20746f6b656e20616c7265616479206d696e74656400000000600082015250565b6000614da3601c83613a3c565b9150614dae82614d6d565b602082019050919050565b60006020820190508181036000830152614dd281614d96565b9050919050565b7f4552433732313a206f70657261746f7220717565727920666f72206e6f6e657860008201527f697374656e7420746f6b656e0000000000000000000000000000000000000000602082015250565b6000614e35602c83613a3c565b9150614e4082614dd9565b604082019050919050565b60006020820190508181036000830152614e6481614e28565b9050919050565b7f4552433732313a207472616e73666572206f6620746f6b656e2074686174206960008201527f73206e6f74206f776e0000000000000000000000000000000000000000000000602082015250565b6000614ec7602983613a3c565b9150614ed282614e6b565b604082019050919050565b60006020820190508181036000830152614ef681614eba565b9050919050565b7f4552433732313a207472616e7366657220746f20746865207a65726f2061646460008201527f7265737300000000000000000000000000000000000000000000000000000000602082015250565b6000614f59602483613a3c565b9150614f6482614efd565b604082019050919050565b60006020820190508181036000830152614f8881614f4c565b9050919050565b7f496e697469616c697a61626c653a20636f6e7472616374206973206e6f74206960008201527f6e697469616c697a696e67000000000000000000000000000000000000000000602082015250565b6000614feb602b83613a3c565b9150614ff682614f8f565b604082019050919050565b6000602082019050818103600083015261501a81614fde565b9050919050565b7f4552433732313a20617070726f766520746f2063616c6c657200000000000000600082015250565b6000615057601983613a3c565b915061506282615021565b602082019050919050565b600060208201905081810360008301526150868161504a565b9050919050565b7f4552433732313a207472616e7366657220746f206e6f6e20455243373231526560008201527f63656976657220696d706c656d656e7465720000000000000000000000000000602082015250565b60006150e9603283613a3c565b91506150f48261508d565b604082019050919050565b60006020820190508181036000830152615118816150dc565b9050919050565b600061512a82613aec565b9150600082141561513e5761513d614306565b5b600182039050919050565b7f537472696e67733a20686578206c656e67746820696e73756666696369656e74600082015250565b600061517f602083613a3c565b915061518a82615149565b602082019050919050565b600060208201905081810360008301526151ae81615172565b9050919050565b600081519050919050565b600082825260208201905092915050565b60006151dc826151b5565b6151e681856151c0565b93506151f6818560208601613a4d565b6151ff81613a80565b840191505092915050565b600060808201905061521f6000830187613b81565b61522c6020830186613b81565b6152396040830185613d83565b818103606083015261524b81846151d1565b905095945050505050565b600081519050615265816139a2565b92915050565b6000602082840312156152815761528061396c565b5b600061528f84828501615256565b9150509291505056fea2646970667358221220b62f0b2ce163a6d9009277bac07e825fd0cc81ad8a895256d96b486697c6edd564736f6c634300080b0033",
  "immutableReferences": {},
  "source": "// SPDX-License-Identifier: UNLICENSED\r\n\r\npragma solidity ^0.8.3;\r\n\r\nimport \"./AbstractGameItems.sol\";\r\nimport \"../node_modules/@openzeppelin/contracts-upgradeable/access/AccessControlUpgradeable.sol\";\r\nimport \"../node_modules/@openzeppelin/contracts-upgradeable/token/ERC721/ERC721Upgradeable.sol\";\r\nimport \"../node_modules/@openzeppelin/contracts/token/ERC20/IERC20.sol\";\r\nimport \"../node_modules/@openzeppelin/contracts/token/ERC1155/IERC1155.sol\";\r\n\r\ncontract Tree is ERC721Upgradeable, AccessControlUpgradeable {\r\n\r\n    bytes32 public constant QUEST_ROLE = keccak256(\"QUEST_ROLE\");\r\n    bytes32 public constant UPG_ROLE = keccak256(\"UPG_ROLE\");\r\n\r\n    event NewTree(uint treeId);\r\n    event GainExp(uint treeId, uint amount);\r\n    event GainLevel(uint treeId);\r\n    event StatLevelUp (uint treeId, uint statId);\r\n\r\n    uint Digits;\r\n    uint Modulus;\r\n\r\n    address DevelopmentAddress;\r\n    address TreasuryAddress;\r\n    address TokenAddress;\r\n\r\n    struct TreeStruct {\r\n        uint treeDNA;\r\n        uint level;\r\n        uint exp;\r\n        uint roots;\r\n        uint branches;\r\n        uint action;\r\n        uint onActionUntil;\r\n    }\r\n\r\n    TreeStruct[] public trees;\r\n\r\n    //Modifiers\r\n\r\n    function supportsInterface(bytes4 interfaceId) public view virtual override(ERC721Upgradeable, AccessControlUpgradeable) returns (bool) {\r\n        return super.supportsInterface(interfaceId);\r\n    }\r\n\r\n    function initialize() initializer public {\r\n        Digits = 16;\r\n        Modulus = 10 ** Digits;\r\n\r\n        DevelopmentAddress = 0xfd768E668A158C173e9549d1632902C2A4363178;\r\n        TreasuryAddress = 0xfd768E668A158C173e9549d1632902C2A4363178;\r\n        _setupRole(DEFAULT_ADMIN_ROLE, msg.sender);\r\n        __ERC721_init(\"Patagonic Tree\", \"PTREE\");\r\n    }\r\n\r\n    //Util Functions\r\n\r\n    function vrf() public view returns (bytes32 result) {\r\n        uint[1] memory bn;\r\n        bn[0] = block.number;\r\n        assembly {\r\n            let memPtr := mload(0x40)\r\n            if iszero(staticcall(not(0), 0xff, bn, 0x20, memPtr, 0x20)) {\r\n                invalid()\r\n            }\r\n            result := mload(memPtr)\r\n        }\r\n    }\r\n\r\n    //View Functions\r\n\r\n    function treeDNA(uint treeId) public view returns (uint) {\r\n        return trees[treeId].treeDNA;\r\n    }\r\n\r\n    function treeLevel(uint treeId) public view returns (uint) {\r\n        return trees[treeId].level;\r\n    }\r\n\r\n    function treeExp(uint treeId) public view returns (uint) {\r\n        return trees[treeId].exp;\r\n    }\r\n\r\n    function treeRoots(uint treeId) public view returns (uint) {\r\n        return trees[treeId].roots;\r\n    }\r\n\r\n    function treeBranches(uint treeId) public view returns (uint) {\r\n        return trees[treeId].branches;\r\n    }\r\n\r\n    function actionStatus(uint treeId) public view returns (uint) {\r\n        return trees[treeId].onActionUntil;\r\n    }\r\n\r\n    function currentAction(uint treeId) public view returns (uint) {\r\n        return trees[treeId].action;\r\n    }\r\n\r\n    function currentPrice() public view returns (uint) {\r\n        return (trees.length+1)*10**18;\r\n    }\r\n\r\n    function _generateRandomDNA() internal view returns (uint) {\r\n        uint rand = uint(keccak256(abi.encodePacked(vrf())));\r\n        return rand % Modulus;\r\n    }\r\n\r\n    function treesQuantity() public view returns (uint) {\r\n        uint quantity = trees.length;\r\n        return quantity;\r\n    }\r\n\r\n    //Public Functions\r\n\r\n    function gainLevel(uint treeId) public onlyRole(UPG_ROLE) {\r\n        uint amount = trees[treeId].level*10**18;\r\n        require(IERC20(TokenAddress).balanceOf(msg.sender)>= amount);\r\n        IERC20(TokenAddress).transferFrom(msg.sender, TreasuryAddress, amount*96/100);\r\n        IERC20(TokenAddress).transferFrom(msg.sender, DevelopmentAddress, amount*4/100);\r\n        trees[treeId].exp = trees[treeId].exp-trees[treeId].level*100;\r\n        trees[treeId].level++;\r\n        emit GainLevel(treeId);\r\n    }\r\n\r\n    function gainExp(uint treeId, uint amount) public onlyRole(QUEST_ROLE) {\r\n        trees[treeId].exp = trees[treeId].exp + amount;\r\n        emit GainExp(treeId, amount);\r\n    }\r\n\r\n    function levelUpBranches(uint treeId) public onlyRole(UPG_ROLE) {\r\n        uint amount = trees[treeId].branches*10**18;\r\n        require(IERC20(TokenAddress).balanceOf(msg.sender)>= amount);\r\n        IERC20(TokenAddress).transferFrom(msg.sender, TreasuryAddress, amount*96/100);\r\n        IERC20(TokenAddress).transferFrom(msg.sender, DevelopmentAddress, amount*4/100);\r\n        trees[treeId].branches++;\r\n        emit StatLevelUp (treeId, 0);\r\n    }\r\n    function levelUpRoots(uint treeId) public onlyRole(UPG_ROLE) {\r\n        uint amount = trees[treeId].roots*10**18;\r\n        require(IERC20(TokenAddress).balanceOf(msg.sender)>= amount);\r\n        IERC20(TokenAddress).transferFrom(msg.sender, TreasuryAddress, amount*96/100);\r\n        IERC20(TokenAddress).transferFrom(msg.sender, DevelopmentAddress, amount*4/100);\r\n        trees[treeId].roots++;\r\n        emit StatLevelUp (treeId, 1);\r\n    }\r\n\r\n    function updateAction(uint treeId, uint action, uint time) public onlyRole(QUEST_ROLE) {\r\n        trees[treeId].onActionUntil = time;\r\n        trees[treeId].action = action;\r\n    }\r\n\r\n    //Payable Functions\r\n\r\n    function createNewTree() public payable {\r\n        require(msg.sender != address(0) && msg.sender != address(this));\r\n        require(msg.value >= currentPrice());\r\n        uint id = trees.length;\r\n        uint DNA = _generateRandomDNA();\r\n        trees.push(TreeStruct(DNA, 1, 0, 1, 1, 0, 0));\r\n        _mint(msg.sender, id);\r\n        emit NewTree(id);\r\n\r\n    }\r\n\r\n    //Transfer Functions\r\n\r\n    function transferDevelopmentAddress(address newDevelopment) public onlyRole(DEFAULT_ADMIN_ROLE) {\r\n        DevelopmentAddress = newDevelopment;\r\n    }\r\n\r\n    function transferTreasuryAddress(address newTreasury) public onlyRole(DEFAULT_ADMIN_ROLE) {\r\n        TreasuryAddress = newTreasury;\r\n    }\r\n\r\n    function transferTokenAddress(address newToken) public onlyRole(DEFAULT_ADMIN_ROLE) {\r\n        TokenAddress = newToken;\r\n    }\r\n\r\n}",
  "sourcePath": "C:\\Users\\jtsch\\OneDrive\\Escritorio\\Python\\SmartContracts-NFT-Agus\\contracts\\Tree.sol",
  "compiler": {
    "name": "solc",
    "version": "0.8.11+commit.d7f03943.Emscripten.clang"
  },
  "schemaVersion": "3.4.3",
  "updatedAt": "2022-02-10T15:20:18.163Z",
  "networkType": "ethereum",
  "devdoc": {
    "kind": "dev",
    "methods": {
      "approve(address,uint256)": {
        "details": "See {IERC721-approve}."
      },
      "balanceOf(address)": {
        "details": "See {IERC721-balanceOf}."
      },
      "getApproved(uint256)": {
        "details": "See {IERC721-getApproved}."
      },
      "getRoleAdmin(bytes32)": {
        "details": "Returns the admin role that controls `role`. See {grantRole} and {revokeRole}. To change a role's admin, use {_setRoleAdmin}."
      },
      "grantRole(bytes32,address)": {
        "details": "Grants `role` to `account`. If `account` had not been already granted `role`, emits a {RoleGranted} event. Requirements: - the caller must have ``role``'s admin role."
      },
      "hasRole(bytes32,address)": {
        "details": "Returns `true` if `account` has been granted `role`."
      },
      "isApprovedForAll(address,address)": {
        "details": "See {IERC721-isApprovedForAll}."
      },
      "name()": {
        "details": "See {IERC721Metadata-name}."
      },
      "ownerOf(uint256)": {
        "details": "See {IERC721-ownerOf}."
      },
      "renounceRole(bytes32,address)": {
        "details": "Revokes `role` from the calling account. Roles are often managed via {grantRole} and {revokeRole}: this function's purpose is to provide a mechanism for accounts to lose their privileges if they are compromised (such as when a trusted device is misplaced). If the calling account had been revoked `role`, emits a {RoleRevoked} event. Requirements: - the caller must be `account`."
      },
      "revokeRole(bytes32,address)": {
        "details": "Revokes `role` from `account`. If `account` had been granted `role`, emits a {RoleRevoked} event. Requirements: - the caller must have ``role``'s admin role."
      },
      "safeTransferFrom(address,address,uint256)": {
        "details": "See {IERC721-safeTransferFrom}."
      },
      "safeTransferFrom(address,address,uint256,bytes)": {
        "details": "See {IERC721-safeTransferFrom}."
      },
      "setApprovalForAll(address,bool)": {
        "details": "See {IERC721-setApprovalForAll}."
      },
      "symbol()": {
        "details": "See {IERC721Metadata-symbol}."
      },
      "tokenURI(uint256)": {
        "details": "See {IERC721Metadata-tokenURI}."
      },
      "transferFrom(address,address,uint256)": {
        "details": "See {IERC721-transferFrom}."
      }
    },
    "version": 1
  },
  "userdoc": {
    "kind": "user",
    "methods": {},
    "version": 1
  }
}