{
  "contractName": "Tree",
  "abi": [
    {
      "anonymous": false,
      "inputs": [
        {
          "indexed": true,
          "internalType": "address",
          "name": "owner",
          "type": "address"
        },
        {
          "indexed": true,
          "internalType": "address",
          "name": "approved",
          "type": "address"
        },
        {
          "indexed": true,
          "internalType": "uint256",
          "name": "tokenId",
          "type": "uint256"
        }
      ],
      "name": "Approval",
      "type": "event"
    },
    {
      "anonymous": false,
      "inputs": [
        {
          "indexed": true,
          "internalType": "address",
          "name": "owner",
          "type": "address"
        },
        {
          "indexed": true,
          "internalType": "address",
          "name": "operator",
          "type": "address"
        },
        {
          "indexed": false,
          "internalType": "bool",
          "name": "approved",
          "type": "bool"
        }
      ],
      "name": "ApprovalForAll",
      "type": "event"
    },
    {
      "anonymous": false,
      "inputs": [
        {
          "indexed": false,
          "internalType": "uint256",
          "name": "treeId",
          "type": "uint256"
        },
        {
          "indexed": false,
          "internalType": "uint256",
          "name": "buildingId",
          "type": "uint256"
        }
      ],
      "name": "BuildingLevelUp",
      "type": "event"
    },
    {
      "anonymous": false,
      "inputs": [
        {
          "indexed": false,
          "internalType": "uint256",
          "name": "treeId",
          "type": "uint256"
        },
        {
          "indexed": false,
          "internalType": "uint256",
          "name": "amount",
          "type": "uint256"
        }
      ],
      "name": "GainExp",
      "type": "event"
    },
    {
      "anonymous": false,
      "inputs": [
        {
          "indexed": false,
          "internalType": "uint256",
          "name": "treeId",
          "type": "uint256"
        }
      ],
      "name": "GainLevel",
      "type": "event"
    },
    {
      "anonymous": false,
      "inputs": [
        {
          "indexed": false,
          "internalType": "uint256",
          "name": "treeId",
          "type": "uint256"
        }
      ],
      "name": "NewTree",
      "type": "event"
    },
    {
      "anonymous": false,
      "inputs": [
        {
          "indexed": true,
          "internalType": "address",
          "name": "from",
          "type": "address"
        },
        {
          "indexed": true,
          "internalType": "address",
          "name": "to",
          "type": "address"
        },
        {
          "indexed": true,
          "internalType": "uint256",
          "name": "tokenId",
          "type": "uint256"
        }
      ],
      "name": "Transfer",
      "type": "event"
    },
    {
      "inputs": [
        {
          "internalType": "address",
          "name": "to",
          "type": "address"
        },
        {
          "internalType": "uint256",
          "name": "tokenId",
          "type": "uint256"
        }
      ],
      "name": "approve",
      "outputs": [],
      "stateMutability": "nonpayable",
      "type": "function"
    },
    {
      "inputs": [
        {
          "internalType": "address",
          "name": "owner",
          "type": "address"
        }
      ],
      "name": "balanceOf",
      "outputs": [
        {
          "internalType": "uint256",
          "name": "",
          "type": "uint256"
        }
      ],
      "stateMutability": "view",
      "type": "function",
      "constant": true
    },
    {
      "inputs": [
        {
          "internalType": "uint256",
          "name": "tokenId",
          "type": "uint256"
        }
      ],
      "name": "getApproved",
      "outputs": [
        {
          "internalType": "address",
          "name": "",
          "type": "address"
        }
      ],
      "stateMutability": "view",
      "type": "function",
      "constant": true
    },
    {
      "inputs": [
        {
          "internalType": "address",
          "name": "owner",
          "type": "address"
        },
        {
          "internalType": "address",
          "name": "operator",
          "type": "address"
        }
      ],
      "name": "isApprovedForAll",
      "outputs": [
        {
          "internalType": "bool",
          "name": "",
          "type": "bool"
        }
      ],
      "stateMutability": "view",
      "type": "function",
      "constant": true
    },
    {
      "inputs": [],
      "name": "name",
      "outputs": [
        {
          "internalType": "string",
          "name": "",
          "type": "string"
        }
      ],
      "stateMutability": "view",
      "type": "function",
      "constant": true
    },
    {
      "inputs": [
        {
          "internalType": "uint256",
          "name": "tokenId",
          "type": "uint256"
        }
      ],
      "name": "ownerOf",
      "outputs": [
        {
          "internalType": "address",
          "name": "",
          "type": "address"
        }
      ],
      "stateMutability": "view",
      "type": "function",
      "constant": true
    },
    {
      "inputs": [
        {
          "internalType": "address",
          "name": "from",
          "type": "address"
        },
        {
          "internalType": "address",
          "name": "to",
          "type": "address"
        },
        {
          "internalType": "uint256",
          "name": "tokenId",
          "type": "uint256"
        }
      ],
      "name": "safeTransferFrom",
      "outputs": [],
      "stateMutability": "nonpayable",
      "type": "function"
    },
    {
      "inputs": [
        {
          "internalType": "address",
          "name": "from",
          "type": "address"
        },
        {
          "internalType": "address",
          "name": "to",
          "type": "address"
        },
        {
          "internalType": "uint256",
          "name": "tokenId",
          "type": "uint256"
        },
        {
          "internalType": "bytes",
          "name": "_data",
          "type": "bytes"
        }
      ],
      "name": "safeTransferFrom",
      "outputs": [],
      "stateMutability": "nonpayable",
      "type": "function"
    },
    {
      "inputs": [
        {
          "internalType": "address",
          "name": "operator",
          "type": "address"
        },
        {
          "internalType": "bool",
          "name": "approved",
          "type": "bool"
        }
      ],
      "name": "setApprovalForAll",
      "outputs": [],
      "stateMutability": "nonpayable",
      "type": "function"
    },
    {
      "inputs": [
        {
          "internalType": "bytes4",
          "name": "interfaceId",
          "type": "bytes4"
        }
      ],
      "name": "supportsInterface",
      "outputs": [
        {
          "internalType": "bool",
          "name": "",
          "type": "bool"
        }
      ],
      "stateMutability": "view",
      "type": "function",
      "constant": true
    },
    {
      "inputs": [],
      "name": "symbol",
      "outputs": [
        {
          "internalType": "string",
          "name": "",
          "type": "string"
        }
      ],
      "stateMutability": "view",
      "type": "function",
      "constant": true
    },
    {
      "inputs": [
        {
          "internalType": "uint256",
          "name": "tokenId",
          "type": "uint256"
        }
      ],
      "name": "tokenURI",
      "outputs": [
        {
          "internalType": "string",
          "name": "",
          "type": "string"
        }
      ],
      "stateMutability": "view",
      "type": "function",
      "constant": true
    },
    {
      "inputs": [
        {
          "internalType": "address",
          "name": "from",
          "type": "address"
        },
        {
          "internalType": "address",
          "name": "to",
          "type": "address"
        },
        {
          "internalType": "uint256",
          "name": "tokenId",
          "type": "uint256"
        }
      ],
      "name": "transferFrom",
      "outputs": [],
      "stateMutability": "nonpayable",
      "type": "function"
    },
    {
      "inputs": [
        {
          "internalType": "uint256",
          "name": "",
          "type": "uint256"
        }
      ],
      "name": "trees",
      "outputs": [
        {
          "internalType": "uint256",
          "name": "treeDNA",
          "type": "uint256"
        },
        {
          "internalType": "uint256",
          "name": "level",
          "type": "uint256"
        },
        {
          "internalType": "uint256",
          "name": "exp",
          "type": "uint256"
        },
        {
          "internalType": "uint256",
          "name": "barracks",
          "type": "uint256"
        },
        {
          "internalType": "uint256",
          "name": "trainingGrounds",
          "type": "uint256"
        },
        {
          "internalType": "uint256",
          "name": "onQuestUntil",
          "type": "uint256"
        }
      ],
      "stateMutability": "view",
      "type": "function",
      "constant": true
    },
    {
      "inputs": [],
      "name": "initialize",
      "outputs": [],
      "stateMutability": "nonpayable",
      "type": "function"
    },
    {
      "inputs": [],
      "name": "vrf",
      "outputs": [
        {
          "internalType": "bytes32",
          "name": "result",
          "type": "bytes32"
        }
      ],
      "stateMutability": "view",
      "type": "function",
      "constant": true
    },
    {
      "inputs": [
        {
          "internalType": "uint256",
          "name": "treeId",
          "type": "uint256"
        }
      ],
      "name": "treeDNA",
      "outputs": [
        {
          "internalType": "uint256",
          "name": "",
          "type": "uint256"
        }
      ],
      "stateMutability": "view",
      "type": "function",
      "constant": true
    },
    {
      "inputs": [
        {
          "internalType": "uint256",
          "name": "treeId",
          "type": "uint256"
        }
      ],
      "name": "treeLevel",
      "outputs": [
        {
          "internalType": "uint256",
          "name": "",
          "type": "uint256"
        }
      ],
      "stateMutability": "view",
      "type": "function",
      "constant": true
    },
    {
      "inputs": [
        {
          "internalType": "uint256",
          "name": "treeId",
          "type": "uint256"
        }
      ],
      "name": "treeExp",
      "outputs": [
        {
          "internalType": "uint256",
          "name": "",
          "type": "uint256"
        }
      ],
      "stateMutability": "view",
      "type": "function",
      "constant": true
    },
    {
      "inputs": [
        {
          "internalType": "uint256",
          "name": "treeId",
          "type": "uint256"
        }
      ],
      "name": "treeBarracks",
      "outputs": [
        {
          "internalType": "uint256",
          "name": "",
          "type": "uint256"
        }
      ],
      "stateMutability": "view",
      "type": "function",
      "constant": true
    },
    {
      "inputs": [
        {
          "internalType": "uint256",
          "name": "treeId",
          "type": "uint256"
        }
      ],
      "name": "treeTrainingGrounds",
      "outputs": [
        {
          "internalType": "uint256",
          "name": "",
          "type": "uint256"
        }
      ],
      "stateMutability": "view",
      "type": "function",
      "constant": true
    },
    {
      "inputs": [
        {
          "internalType": "uint256",
          "name": "treeId",
          "type": "uint256"
        }
      ],
      "name": "questStatus",
      "outputs": [
        {
          "internalType": "uint256",
          "name": "",
          "type": "uint256"
        }
      ],
      "stateMutability": "view",
      "type": "function",
      "constant": true
    },
    {
      "inputs": [],
      "name": "currentPrice",
      "outputs": [
        {
          "internalType": "uint256",
          "name": "",
          "type": "uint256"
        }
      ],
      "stateMutability": "view",
      "type": "function",
      "constant": true
    },
    {
      "inputs": [
        {
          "internalType": "uint256",
          "name": "treeId",
          "type": "uint256"
        }
      ],
      "name": "upgradeBarracks",
      "outputs": [],
      "stateMutability": "payable",
      "type": "function",
      "payable": true
    },
    {
      "inputs": [
        {
          "internalType": "uint256",
          "name": "treeId",
          "type": "uint256"
        }
      ],
      "name": "upgradeTrainingGrounds",
      "outputs": [],
      "stateMutability": "payable",
      "type": "function",
      "payable": true
    },
    {
      "inputs": [
        {
          "internalType": "uint256",
          "name": "treeId",
          "type": "uint256"
        },
        {
          "internalType": "uint256",
          "name": "newValue",
          "type": "uint256"
        }
      ],
      "name": "updateQuestStatus",
      "outputs": [],
      "stateMutability": "payable",
      "type": "function",
      "payable": true
    },
    {
      "inputs": [
        {
          "internalType": "uint256",
          "name": "treeId",
          "type": "uint256"
        },
        {
          "internalType": "uint256",
          "name": "amount",
          "type": "uint256"
        }
      ],
      "name": "gainExp",
      "outputs": [],
      "stateMutability": "payable",
      "type": "function",
      "payable": true
    },
    {
      "inputs": [
        {
          "internalType": "uint256",
          "name": "treeId",
          "type": "uint256"
        }
      ],
      "name": "gainLevel",
      "outputs": [],
      "stateMutability": "payable",
      "type": "function",
      "payable": true
    },
    {
      "inputs": [],
      "name": "createNewTree",
      "outputs": [],
      "stateMutability": "payable",
      "type": "function",
      "payable": true
    },
    {
      "inputs": [
        {
          "internalType": "address",
          "name": "newOwner",
          "type": "address"
        }
      ],
      "name": "transferOwnership",
      "outputs": [],
      "stateMutability": "payable",
      "type": "function",
      "payable": true
    },
    {
      "inputs": [
        {
          "internalType": "address",
          "name": "newTreasury",
          "type": "address"
        }
      ],
      "name": "transferTreasuryAddress",
      "outputs": [],
      "stateMutability": "payable",
      "type": "function",
      "payable": true
    },
    {
      "inputs": [
        {
          "internalType": "address",
          "name": "newToken",
          "type": "address"
        }
      ],
      "name": "transferTokenAddress",
      "outputs": [],
      "stateMutability": "payable",
      "type": "function",
      "payable": true
    },
    {
      "inputs": [
        {
          "internalType": "address",
          "name": "newGameItems",
          "type": "address"
        }
      ],
      "name": "transferGameItemsAddress",
      "outputs": [],
      "stateMutability": "payable",
      "type": "function",
      "payable": true
    },
    {
      "inputs": [
        {
          "internalType": "address",
          "name": "newQuest",
          "type": "address"
        }
      ],
      "name": "transferQuestAddress",
      "outputs": [],
      "stateMutability": "payable",
      "type": "function",
      "payable": true
    }
  ],
  "bytecode": "0x608060405234801561001057600080fd5b50614acc806100206000396000f3fe6080604052600436106101f95760003560e01c806370a082311161010d5780639c06eccd116100a0578063c87b56dd1161006f578063c87b56dd146106df578063d46a669d1461071c578063d94406f214610738578063e985e9c514610775578063f2fde38b146107b2576101f9565b80639c06eccd146106255780639d1b464a14610662578063a22cb4651461068d578063b88d4fde146106b6576101f9565b80638536496f116100dc5780638536496f146105855780638bbfcac3146105a157806395d89b41146105de5780639a0f024414610609576101f9565b806370a08231146104b25780637a508022146104ef5780638129fc1c14610531578063850b0f3c14610548576101f9565b806321cde202116101905780634ed4d42a1161015f5780634ed4d42a146103c35780635e31fcc6146103df5780635fa461fc1461041c5780636352211e146104595780636cad693214610496576101f9565b806321cde2021461033957806323b872dd1461035557806326bc4c5a1461037e57806342842e0e1461039a576101f9565b8063098d7500116101cc578063098d7500146102cc5780630c949043146102e857806310d1eb2a1461031357806316f6bca91461031d576101f9565b806301ffc9a7146101fe57806306fdde031461023b578063081812fc14610266578063095ea7b3146102a3575b600080fd5b34801561020a57600080fd5b5061022560048036038101906102209190613450565b6107ce565b6040516102329190613498565b60405180910390f35b34801561024757600080fd5b506102506108b0565b60405161025d919061354c565b60405180910390f35b34801561027257600080fd5b5061028d600480360381019061028891906135a4565b610942565b60405161029a9190613612565b60405180910390f35b3480156102af57600080fd5b506102ca60048036038101906102c59190613659565b6109c7565b005b6102e660048036038101906102e19190613699565b610adf565b005b3480156102f457600080fd5b506102fd610b7d565b60405161030a91906136df565b60405180910390f35b61031b610bc3565b005b61033760048036038101906103329190613699565b610d3f565b005b610353600480360381019061034e91906135a4565b610ddd565b005b34801561036157600080fd5b5061037c600480360381019061037791906136fa565b6111ac565b005b610398600480360381019061039391906135a4565b61120c565b005b3480156103a657600080fd5b506103c160048036038101906103bc91906136fa565b611671565b005b6103dd60048036038101906103d89190613699565b611691565b005b3480156103eb57600080fd5b50610406600480360381019061040191906135a4565b61172f565b604051610413919061375c565b60405180910390f35b34801561042857600080fd5b50610443600480360381019061043e91906135a4565b61175e565b604051610450919061375c565b60405180910390f35b34801561046557600080fd5b50610480600480360381019061047b91906135a4565b61178d565b60405161048d9190613612565b60405180910390f35b6104b060048036038101906104ab9190613777565b61183f565b005b3480156104be57600080fd5b506104d960048036038101906104d49190613699565b611930565b6040516104e6919061375c565b60405180910390f35b3480156104fb57600080fd5b50610516600480360381019061051191906135a4565b6119e8565b604051610528969594939291906137b7565b60405180910390f35b34801561053d57600080fd5b50610546611a34565b005b34801561055457600080fd5b5061056f600480360381019061056a91906135a4565b611c53565b60405161057c919061375c565b60405180910390f35b61059f600480360381019061059a9190613777565b611c82565b005b3480156105ad57600080fd5b506105c860048036038101906105c391906135a4565b611d0a565b6040516105d5919061375c565b60405180910390f35b3480156105ea57600080fd5b506105f3611d39565b604051610600919061354c565b60405180910390f35b610623600480360381019061061e91906135a4565b611dcb565b005b34801561063157600080fd5b5061064c600480360381019061064791906135a4565b612230565b604051610659919061375c565b60405180910390f35b34801561066e57600080fd5b5061067761225f565b604051610684919061375c565b60405180910390f35b34801561069957600080fd5b506106b460048036038101906106af9190613844565b612296565b005b3480156106c257600080fd5b506106dd60048036038101906106d891906139b9565b6122ac565b005b3480156106eb57600080fd5b50610706600480360381019061070191906135a4565b61230e565b604051610713919061354c565b60405180910390f35b61073660048036038101906107319190613699565b6123b5565b005b34801561074457600080fd5b5061075f600480360381019061075a91906135a4565b612453565b60405161076c919061375c565b60405180910390f35b34801561078157600080fd5b5061079c60048036038101906107979190613a3c565b612482565b6040516107a99190613498565b60405180910390f35b6107cc60048036038101906107c79190613699565b612516565b005b60007f80ac58cd000000000000000000000000000000000000000000000000000000007bffffffffffffffffffffffffffffffffffffffffffffffffffffffff1916827bffffffffffffffffffffffffffffffffffffffffffffffffffffffff1916148061089957507f5b5e139f000000000000000000000000000000000000000000000000000000007bffffffffffffffffffffffffffffffffffffffffffffffffffffffff1916827bffffffffffffffffffffffffffffffffffffffffffffffffffffffff1916145b806108a957506108a8826125b4565b5b9050919050565b6060606580546108bf90613aab565b80601f01602080910402602001604051908101604052809291908181526020018280546108eb90613aab565b80156109385780601f1061090d57610100808354040283529160200191610938565b820191906000526020600020905b81548152906001019060200180831161091b57829003601f168201915b5050505050905090565b600061094d8261261e565b61098c576040517f08c379a000000000000000000000000000000000000000000000000000000000815260040161098390613b4f565b60405180910390fd5b6069600083815260200190815260200160002060009054906101000a900473ffffffffffffffffffffffffffffffffffffffff169050919050565b60006109d28261178d565b90508073ffffffffffffffffffffffffffffffffffffffff168373ffffffffffffffffffffffffffffffffffffffff161415610a43576040517f08c379a0000000000000000000000000000000000000000000000000000000008152600401610a3a90613be1565b60405180910390fd5b8073ffffffffffffffffffffffffffffffffffffffff16610a6261268a565b73ffffffffffffffffffffffffffffffffffffffff161480610a915750610a9081610a8b61268a565b612482565b5b610ad0576040517f08c379a0000000000000000000000000000000000000000000000000000000008152600401610ac790613c73565b60405180910390fd5b610ada8383612692565b505050565b3373ffffffffffffffffffffffffffffffffffffffff16609960009054906101000a900473ffffffffffffffffffffffffffffffffffffffff1673ffffffffffffffffffffffffffffffffffffffff1614610b3957600080fd5b80609a60006101000a81548173ffffffffffffffffffffffffffffffffffffffff021916908373ffffffffffffffffffffffffffffffffffffffff16021790555050565b6000610b8761331f565b4381600060018110610b9c57610b9b613c93565b5b60200201818152505060405160208160208460ff600019fa610bba57fe5b80519250505090565b600073ffffffffffffffffffffffffffffffffffffffff163373ffffffffffffffffffffffffffffffffffffffff1614158015610c2c57503073ffffffffffffffffffffffffffffffffffffffff163373ffffffffffffffffffffffffffffffffffffffff1614155b610c3557600080fd5b610c3d61225f565b341015610c4957600080fd5b6000609e8054905090506000610c5d61274b565b9050609e6040518060c001604052808381526020016001815260200160008152602001600081526020016000815260200160008152509080600181540180825580915050600190039060005260206000209060060201600090919091909150600082015181600001556020820151816001015560408201518160020155606082015181600301556080820151816004015560a082015181600501555050610d043383612795565b7f5aa7f45898fcb5638757632f4ea98818ccb1f1b865b0721648cfb14cfcd2da9a82604051610d33919061375c565b60405180910390a15050565b3373ffffffffffffffffffffffffffffffffffffffff16609960009054906101000a900473ffffffffffffffffffffffffffffffffffffffff1673ffffffffffffffffffffffffffffffffffffffff1614610d9957600080fd5b80609c60006101000a81548173ffffffffffffffffffffffffffffffffffffffff021916908373ffffffffffffffffffffffffffffffffffffffff16021790555050565b803373ffffffffffffffffffffffffffffffffffffffff16610dfe8261178d565b73ffffffffffffffffffffffffffffffffffffffff1614610e1e57600080fd5b6064609e8381548110610e3457610e33613c93565b5b90600052602060002090600602016001015410610e5057600080fd5b6064609e8381548110610e6657610e65613c93565b5b906000526020600020906006020160010154610e829190613cf1565b609e8381548110610e9657610e95613c93565b5b9060005260206000209060060201600201541015610eb357600080fd5b6000670de0b6b3a7640000609e8481548110610ed257610ed1613c93565b5b906000526020600020906006020160010154610eee9190613cf1565b90506064609e8481548110610f0657610f05613c93565b5b906000526020600020906006020160010154610f229190613cf1565b609e8481548110610f3657610f35613c93565b5b906000526020600020906006020160020154610f529190613d4b565b609e8481548110610f6657610f65613c93565b5b906000526020600020906006020160020181905550609e8381548110610f8f57610f8e613c93565b5b90600052602060002090600602016001016000815480929190610fb190613d7f565b9190505550609b60009054906101000a900473ffffffffffffffffffffffffffffffffffffffff1673ffffffffffffffffffffffffffffffffffffffff166323b872dd33609a60009054906101000a900473ffffffffffffffffffffffffffffffffffffffff1660646046866110279190613cf1565b6110319190613df7565b6040518463ffffffff1660e01b815260040161104f93929190613e28565b6020604051808303816000875af115801561106e573d6000803e3d6000fd5b505050506040513d601f19601f820116820180604052508101906110929190613e74565b50609b60009054906101000a900473ffffffffffffffffffffffffffffffffffffffff1673ffffffffffffffffffffffffffffffffffffffff166323b872dd33609960009054906101000a900473ffffffffffffffffffffffffffffffffffffffff166064601e866111049190613cf1565b61110e9190613df7565b6040518463ffffffff1660e01b815260040161112c93929190613e28565b6020604051808303816000875af115801561114b573d6000803e3d6000fd5b505050506040513d601f19601f8201168201806040525081019061116f9190613e74565b507f7ef1df0b6d95a41d9ebcaa695746726b382e110036a9127b009babdb11c656a28360405161119f919061375c565b60405180910390a1505050565b6111bd6111b761268a565b82612963565b6111fc576040517f08c379a00000000000000000000000000000000000000000000000000000000081526004016111f390613f13565b60405180910390fd5b611207838383612a41565b505050565b803373ffffffffffffffffffffffffffffffffffffffff1661122d8261178d565b73ffffffffffffffffffffffffffffffffffffffff161461124d57600080fd5b609e828154811061126157611260613c93565b5b906000526020600020906006020160030154609e838154811061128757611286613c93565b5b906000526020600020906006020160010154116112a357600080fd5b609e82815481106112b7576112b6613c93565b5b9060005260206000209060060201600301546015116112d557600080fd5b6000670de0b6b3a7640000609e84815481106112f4576112f3613c93565b5b9060005260206000209060060201600301546113109190613cf1565b9050600a609e848154811061132857611327613c93565b5b90600052602060002090600602016003015411801561136c57506015609e848154811061135857611357613c93565b5b906000526020600020906006020160030154105b1561143d576000600a609e858154811061138957611388613c93565b5b9060005260206000209060060201600301546113a59190613d4b565b9050609c60009054906101000a900473ffffffffffffffffffffffffffffffffffffffff1673ffffffffffffffffffffffffffffffffffffffff1663f242432a33600080856040518563ffffffff1660e01b81526004016114099493929190613faf565b600060405180830381600087803b15801561142357600080fd5b505af1158015611437573d6000803e3d6000fd5b50505050505b609e838154811061145157611450613c93565b5b9060005260206000209060060201600301600081548092919061147390613d7f565b9190505550609b60009054906101000a900473ffffffffffffffffffffffffffffffffffffffff1673ffffffffffffffffffffffffffffffffffffffff166323b872dd33609a60009054906101000a900473ffffffffffffffffffffffffffffffffffffffff1660646046866114e99190613cf1565b6114f39190613df7565b6040518463ffffffff1660e01b815260040161151193929190613e28565b6020604051808303816000875af1158015611530573d6000803e3d6000fd5b505050506040513d601f19601f820116820180604052508101906115549190613e74565b50609b60009054906101000a900473ffffffffffffffffffffffffffffffffffffffff1673ffffffffffffffffffffffffffffffffffffffff166323b872dd33609960009054906101000a900473ffffffffffffffffffffffffffffffffffffffff166064601e866115c69190613cf1565b6115d09190613df7565b6040518463ffffffff1660e01b81526004016115ee93929190613e28565b6020604051808303816000875af115801561160d573d6000803e3d6000fd5b505050506040513d601f19601f820116820180604052508101906116319190613e74565b507f81697e2679db8e5249c35ec26a25db2189c65f1b3bc780d2f1b1129b5e57c41d836000604051611664929190614007565b60405180910390a1505050565b61168c838383604051806020016040528060008152506122ac565b505050565b3373ffffffffffffffffffffffffffffffffffffffff16609960009054906101000a900473ffffffffffffffffffffffffffffffffffffffff1673ffffffffffffffffffffffffffffffffffffffff16146116eb57600080fd5b80609b60006101000a81548173ffffffffffffffffffffffffffffffffffffffff021916908373ffffffffffffffffffffffffffffffffffffffff16021790555050565b6000609e828154811061174557611744613c93565b5b9060005260206000209060060201600301549050919050565b6000609e828154811061177457611773613c93565b5b9060005260206000209060060201600201549050919050565b6000806067600084815260200190815260200160002060009054906101000a900473ffffffffffffffffffffffffffffffffffffffff169050600073ffffffffffffffffffffffffffffffffffffffff168173ffffffffffffffffffffffffffffffffffffffff161415611836576040517f08c379a000000000000000000000000000000000000000000000000000000000815260040161182d906140a2565b60405180910390fd5b80915050919050565b3373ffffffffffffffffffffffffffffffffffffffff16609d60009054906101000a900473ffffffffffffffffffffffffffffffffffffffff1673ffffffffffffffffffffffffffffffffffffffff161461189957600080fd5b80609e83815481106118ae576118ad613c93565b5b9060005260206000209060060201600201546118ca91906140c2565b609e83815481106118de576118dd613c93565b5b9060005260206000209060060201600201819055507ffa65d54a674245861f726a6e25ffd7e32b5f7e7a6a62bd81b222ad6f53643d288282604051611924929190614118565b60405180910390a15050565b60008073ffffffffffffffffffffffffffffffffffffffff168273ffffffffffffffffffffffffffffffffffffffff1614156119a1576040517f08c379a0000000000000000000000000000000000000000000000000000000008152600401611998906141b3565b60405180910390fd5b606860008373ffffffffffffffffffffffffffffffffffffffff1673ffffffffffffffffffffffffffffffffffffffff168152602001908152602001600020549050919050565b609e81815481106119f857600080fd5b90600052602060002090600602016000915090508060000154908060010154908060020154908060030154908060040154908060050154905086565b600060019054906101000a900460ff16611a5c5760008054906101000a900460ff1615611a65565b611a64612c9d565b5b611aa4576040517f08c379a0000000000000000000000000000000000000000000000000000000008152600401611a9b90614245565b60405180910390fd5b60008060019054906101000a900460ff161590508015611af4576001600060016101000a81548160ff02191690831515021790555060016000806101000a81548160ff0219169083151502179055505b6010609781905550609754600a611b0b9190614398565b60988190555073f577601a5ef1d5079da672f01d7ab3b80dd2bd1d609960006101000a81548173ffffffffffffffffffffffffffffffffffffffff021916908373ffffffffffffffffffffffffffffffffffffffff16021790555073fd768e668a158c173e9549d1632902c2a4363178609a60006101000a81548173ffffffffffffffffffffffffffffffffffffffff021916908373ffffffffffffffffffffffffffffffffffffffff160217905550611c2f6040518060400160405280600e81526020017f50617461676f6e696320547265650000000000000000000000000000000000008152506040518060400160405280600581526020017f5054524545000000000000000000000000000000000000000000000000000000815250612cae565b8015611c505760008060016101000a81548160ff0219169083151502179055505b50565b6000609e8281548110611c6957611c68613c93565b5b9060005260206000209060060201600501549050919050565b3373ffffffffffffffffffffffffffffffffffffffff16609d60009054906101000a900473ffffffffffffffffffffffffffffffffffffffff1673ffffffffffffffffffffffffffffffffffffffff1614611cdc57600080fd5b80609e8381548110611cf157611cf0613c93565b5b9060005260206000209060060201600501819055505050565b6000609e8281548110611d2057611d1f613c93565b5b9060005260206000209060060201600101549050919050565b606060668054611d4890613aab565b80601f0160208091040260200160405190810160405280929190818152602001828054611d7490613aab565b8015611dc15780601f10611d9657610100808354040283529160200191611dc1565b820191906000526020600020905b815481529060010190602001808311611da457829003601f168201915b5050505050905090565b803373ffffffffffffffffffffffffffffffffffffffff16611dec8261178d565b73ffffffffffffffffffffffffffffffffffffffff1614611e0c57600080fd5b609e8281548110611e2057611e1f613c93565b5b906000526020600020906006020160040154609e8381548110611e4657611e45613c93565b5b90600052602060002090600602016001015411611e6257600080fd5b609e8281548110611e7657611e75613c93565b5b906000526020600020906006020160040154601511611e9457600080fd5b6000670de0b6b3a7640000609e8481548110611eb357611eb2613c93565b5b906000526020600020906006020160040154611ecf9190613cf1565b9050600a609e8481548110611ee757611ee6613c93565b5b906000526020600020906006020160040154118015611f2b57506015609e8481548110611f1757611f16613c93565b5b906000526020600020906006020160040154105b15611ffc576000600a609e8581548110611f4857611f47613c93565b5b906000526020600020906006020160040154611f649190613d4b565b9050609c60009054906101000a900473ffffffffffffffffffffffffffffffffffffffff1673ffffffffffffffffffffffffffffffffffffffff1663f242432a33600080856040518563ffffffff1660e01b8152600401611fc89493929190613faf565b600060405180830381600087803b158015611fe257600080fd5b505af1158015611ff6573d6000803e3d6000fd5b50505050505b609e83815481106120105761200f613c93565b5b9060005260206000209060060201600401600081548092919061203290613d7f565b9190505550609b60009054906101000a900473ffffffffffffffffffffffffffffffffffffffff1673ffffffffffffffffffffffffffffffffffffffff166323b872dd33609a60009054906101000a900473ffffffffffffffffffffffffffffffffffffffff1660646046866120a89190613cf1565b6120b29190613df7565b6040518463ffffffff1660e01b81526004016120d093929190613e28565b6020604051808303816000875af11580156120ef573d6000803e3d6000fd5b505050506040513d601f19601f820116820180604052508101906121139190613e74565b50609b60009054906101000a900473ffffffffffffffffffffffffffffffffffffffff1673ffffffffffffffffffffffffffffffffffffffff166323b872dd33609960009054906101000a900473ffffffffffffffffffffffffffffffffffffffff166064601e866121859190613cf1565b61218f9190613df7565b6040518463ffffffff1660e01b81526004016121ad93929190613e28565b6020604051808303816000875af11580156121cc573d6000803e3d6000fd5b505050506040513d601f19601f820116820180604052508101906121f09190613e74565b507f81697e2679db8e5249c35ec26a25db2189c65f1b3bc780d2f1b1129b5e57c41d83600160405161222392919061441e565b60405180910390a1505050565b6000609e828154811061224657612245613c93565b5b9060005260206000209060060201600401549050919050565b6000670de0b6b3a7640000600180609e8054905061227d91906140c2565b6122879190613cf1565b6122919190613cf1565b905090565b6122a86122a161268a565b8383612d1b565b5050565b6122bd6122b761268a565b83612963565b6122fc576040517f08c379a00000000000000000000000000000000000000000000000000000000081526004016122f390613f13565b60405180910390fd5b61230884848484612e88565b50505050565b60606123198261261e565b612358576040517f08c379a000000000000000000000000000000000000000000000000000000000815260040161234f906144b9565b60405180910390fd5b6000612362612ee4565b9050600081511161238257604051806020016040528060008152506123ad565b8061238c84612efb565b60405160200161239d929190614515565b6040516020818303038152906040525b915050919050565b3373ffffffffffffffffffffffffffffffffffffffff16609960009054906101000a900473ffffffffffffffffffffffffffffffffffffffff1673ffffffffffffffffffffffffffffffffffffffff161461240f57600080fd5b80609d60006101000a81548173ffffffffffffffffffffffffffffffffffffffff021916908373ffffffffffffffffffffffffffffffffffffffff16021790555050565b6000609e828154811061246957612468613c93565b5b9060005260206000209060060201600001549050919050565b6000606a60008473ffffffffffffffffffffffffffffffffffffffff1673ffffffffffffffffffffffffffffffffffffffff16815260200190815260200160002060008373ffffffffffffffffffffffffffffffffffffffff1673ffffffffffffffffffffffffffffffffffffffff16815260200190815260200160002060009054906101000a900460ff16905092915050565b3373ffffffffffffffffffffffffffffffffffffffff16609960009054906101000a900473ffffffffffffffffffffffffffffffffffffffff1673ffffffffffffffffffffffffffffffffffffffff161461257057600080fd5b80609960006101000a81548173ffffffffffffffffffffffffffffffffffffffff021916908373ffffffffffffffffffffffffffffffffffffffff16021790555050565b60007f01ffc9a7000000000000000000000000000000000000000000000000000000007bffffffffffffffffffffffffffffffffffffffffffffffffffffffff1916827bffffffffffffffffffffffffffffffffffffffffffffffffffffffff1916149050919050565b60008073ffffffffffffffffffffffffffffffffffffffff166067600084815260200190815260200160002060009054906101000a900473ffffffffffffffffffffffffffffffffffffffff1673ffffffffffffffffffffffffffffffffffffffff1614159050919050565b600033905090565b816069600083815260200190815260200160002060006101000a81548173ffffffffffffffffffffffffffffffffffffffff021916908373ffffffffffffffffffffffffffffffffffffffff160217905550808273ffffffffffffffffffffffffffffffffffffffff166127058361178d565b73ffffffffffffffffffffffffffffffffffffffff167f8c5be1e5ebec7d5bd14f71427d1e84f3dd0314c0f7b2291e5b200ac8c7c3b92560405160405180910390a45050565b600080612756610b7d565b604051602001612766919061455a565b6040516020818303038152906040528051906020012060001c90506098548161278f9190614575565b91505090565b600073ffffffffffffffffffffffffffffffffffffffff168273ffffffffffffffffffffffffffffffffffffffff161415612805576040517f08c379a00000000000000000000000000000000000000000000000000000000081526004016127fc906145f2565b60405180910390fd5b61280e8161261e565b1561284e576040517f08c379a00000000000000000000000000000000000000000000000000000000081526004016128459061465e565b60405180910390fd5b61285a6000838361305c565b6001606860008473ffffffffffffffffffffffffffffffffffffffff1673ffffffffffffffffffffffffffffffffffffffff16815260200190815260200160002060008282546128aa91906140c2565b92505081905550816067600083815260200190815260200160002060006101000a81548173ffffffffffffffffffffffffffffffffffffffff021916908373ffffffffffffffffffffffffffffffffffffffff160217905550808273ffffffffffffffffffffffffffffffffffffffff16600073ffffffffffffffffffffffffffffffffffffffff167fddf252ad1be2c89b69c2b068fc378daa952ba7f163c4a11628f55a4df523b3ef60405160405180910390a45050565b600061296e8261261e565b6129ad576040517f08c379a00000000000000000000000000000000000000000000000000000000081526004016129a4906146f0565b60405180910390fd5b60006129b88361178d565b90508073ffffffffffffffffffffffffffffffffffffffff168473ffffffffffffffffffffffffffffffffffffffff161480612a2757508373ffffffffffffffffffffffffffffffffffffffff16612a0f84610942565b73ffffffffffffffffffffffffffffffffffffffff16145b80612a385750612a378185612482565b5b91505092915050565b8273ffffffffffffffffffffffffffffffffffffffff16612a618261178d565b73ffffffffffffffffffffffffffffffffffffffff1614612ab7576040517f08c379a0000000000000000000000000000000000000000000000000000000008152600401612aae90614782565b60405180910390fd5b600073ffffffffffffffffffffffffffffffffffffffff168273ffffffffffffffffffffffffffffffffffffffff161415612b27576040517f08c379a0000000000000000000000000000000000000000000000000000000008152600401612b1e90614814565b60405180910390fd5b612b3283838361305c565b612b3d600082612692565b6001606860008573ffffffffffffffffffffffffffffffffffffffff1673ffffffffffffffffffffffffffffffffffffffff1681526020019081526020016000206000828254612b8d9190613d4b565b925050819055506001606860008473ffffffffffffffffffffffffffffffffffffffff1673ffffffffffffffffffffffffffffffffffffffff1681526020019081526020016000206000828254612be491906140c2565b92505081905550816067600083815260200190815260200160002060006101000a81548173ffffffffffffffffffffffffffffffffffffffff021916908373ffffffffffffffffffffffffffffffffffffffff160217905550808273ffffffffffffffffffffffffffffffffffffffff168473ffffffffffffffffffffffffffffffffffffffff167fddf252ad1be2c89b69c2b068fc378daa952ba7f163c4a11628f55a4df523b3ef60405160405180910390a4505050565b6000612ca830613061565b15905090565b600060019054906101000a900460ff16612cfd576040517f08c379a0000000000000000000000000000000000000000000000000000000008152600401612cf4906148a6565b60405180910390fd5b612d05613074565b612d0d6130c5565b612d178282613116565b5050565b8173ffffffffffffffffffffffffffffffffffffffff168373ffffffffffffffffffffffffffffffffffffffff161415612d8a576040517f08c379a0000000000000000000000000000000000000000000000000000000008152600401612d8190614912565b60405180910390fd5b80606a60008573ffffffffffffffffffffffffffffffffffffffff1673ffffffffffffffffffffffffffffffffffffffff16815260200190815260200160002060008473ffffffffffffffffffffffffffffffffffffffff1673ffffffffffffffffffffffffffffffffffffffff16815260200190815260200160002060006101000a81548160ff0219169083151502179055508173ffffffffffffffffffffffffffffffffffffffff168373ffffffffffffffffffffffffffffffffffffffff167f17307eab39ab6107e8899845ad3d59bd9653f200f220920489ca2b5937696c3183604051612e7b9190613498565b60405180910390a3505050565b612e93848484612a41565b612e9f84848484613197565b612ede576040517f08c379a0000000000000000000000000000000000000000000000000000000008152600401612ed5906149a4565b60405180910390fd5b50505050565b606060405180602001604052806000815250905090565b60606000821415612f43576040518060400160405280600181526020017f30000000000000000000000000000000000000000000000000000000000000008152509050613057565b600082905060005b60008214612f75578080612f5e90613d7f565b915050600a82612f6e9190613df7565b9150612f4b565b60008167ffffffffffffffff811115612f9157612f9061388e565b5b6040519080825280601f01601f191660200182016040528015612fc35781602001600182028036833780820191505090505b5090505b6000851461305057600182612fdc9190613d4b565b9150600a85612feb9190614575565b6030612ff791906140c2565b60f81b81838151811061300d5761300c613c93565b5b60200101907effffffffffffffffffffffffffffffffffffffffffffffffffffffffffffff1916908160001a905350600a856130499190613df7565b9450612fc7565b8093505050505b919050565b505050565b600080823b905060008111915050919050565b600060019054906101000a900460ff166130c3576040517f08c379a00000000000000000000000000000000000000000000000000000000081526004016130ba906148a6565b60405180910390fd5b565b600060019054906101000a900460ff16613114576040517f08c379a000000000000000000000000000000000000000000000000000000000815260040161310b906148a6565b60405180910390fd5b565b600060019054906101000a900460ff16613165576040517f08c379a000000000000000000000000000000000000000000000000000000000815260040161315c906148a6565b60405180910390fd5b816065908051906020019061317b929190613341565b508060669080519060200190613192929190613341565b505050565b60006131b88473ffffffffffffffffffffffffffffffffffffffff16613061565b15613312578373ffffffffffffffffffffffffffffffffffffffff1663150b7a026131e161268a565b8786866040518563ffffffff1660e01b81526004016132039493929190614a08565b6020604051808303816000875af192505050801561323f57506040513d601f19601f8201168201806040525081019061323c9190614a69565b60015b6132c2573d806000811461326f576040519150601f19603f3d011682016040523d82523d6000602084013e613274565b606091505b506000815114156132ba576040517f08c379a00000000000000000000000000000000000000000000000000000000081526004016132b1906149a4565b60405180910390fd5b805181602001fd5b63150b7a0260e01b7bffffffffffffffffffffffffffffffffffffffffffffffffffffffff1916817bffffffffffffffffffffffffffffffffffffffffffffffffffffffff191614915050613317565b600190505b949350505050565b6040518060200160405280600190602082028036833780820191505090505090565b82805461334d90613aab565b90600052602060002090601f01602090048101928261336f57600085556133b6565b82601f1061338857805160ff19168380011785556133b6565b828001600101855582156133b6579182015b828111156133b557825182559160200191906001019061339a565b5b5090506133c391906133c7565b5090565b5b808211156133e05760008160009055506001016133c8565b5090565b6000604051905090565b600080fd5b600080fd5b60007fffffffff0000000000000000000000000000000000000000000000000000000082169050919050565b61342d816133f8565b811461343857600080fd5b50565b60008135905061344a81613424565b92915050565b600060208284031215613466576134656133ee565b5b60006134748482850161343b565b91505092915050565b60008115159050919050565b6134928161347d565b82525050565b60006020820190506134ad6000830184613489565b92915050565b600081519050919050565b600082825260208201905092915050565b60005b838110156134ed5780820151818401526020810190506134d2565b838111156134fc576000848401525b50505050565b6000601f19601f8301169050919050565b600061351e826134b3565b61352881856134be565b93506135388185602086016134cf565b61354181613502565b840191505092915050565b600060208201905081810360008301526135668184613513565b905092915050565b6000819050919050565b6135818161356e565b811461358c57600080fd5b50565b60008135905061359e81613578565b92915050565b6000602082840312156135ba576135b96133ee565b5b60006135c88482850161358f565b91505092915050565b600073ffffffffffffffffffffffffffffffffffffffff82169050919050565b60006135fc826135d1565b9050919050565b61360c816135f1565b82525050565b60006020820190506136276000830184613603565b92915050565b613636816135f1565b811461364157600080fd5b50565b6000813590506136538161362d565b92915050565b600080604083850312156136705761366f6133ee565b5b600061367e85828601613644565b925050602061368f8582860161358f565b9150509250929050565b6000602082840312156136af576136ae6133ee565b5b60006136bd84828501613644565b91505092915050565b6000819050919050565b6136d9816136c6565b82525050565b60006020820190506136f460008301846136d0565b92915050565b600080600060608486031215613713576137126133ee565b5b600061372186828701613644565b935050602061373286828701613644565b92505060406137438682870161358f565b9150509250925092565b6137568161356e565b82525050565b6000602082019050613771600083018461374d565b92915050565b6000806040838503121561378e5761378d6133ee565b5b600061379c8582860161358f565b92505060206137ad8582860161358f565b9150509250929050565b600060c0820190506137cc600083018961374d565b6137d9602083018861374d565b6137e6604083018761374d565b6137f3606083018661374d565b613800608083018561374d565b61380d60a083018461374d565b979650505050505050565b6138218161347d565b811461382c57600080fd5b50565b60008135905061383e81613818565b92915050565b6000806040838503121561385b5761385a6133ee565b5b600061386985828601613644565b925050602061387a8582860161382f565b9150509250929050565b600080fd5b600080fd5b7f4e487b7100000000000000000000000000000000000000000000000000000000600052604160045260246000fd5b6138c682613502565b810181811067ffffffffffffffff821117156138e5576138e461388e565b5b80604052505050565b60006138f86133e4565b905061390482826138bd565b919050565b600067ffffffffffffffff8211156139245761392361388e565b5b61392d82613502565b9050602081019050919050565b82818337600083830152505050565b600061395c61395784613909565b6138ee565b90508281526020810184848401111561397857613977613889565b5b61398384828561393a565b509392505050565b600082601f8301126139a05761399f613884565b5b81356139b0848260208601613949565b91505092915050565b600080600080608085870312156139d3576139d26133ee565b5b60006139e187828801613644565b94505060206139f287828801613644565b9350506040613a038782880161358f565b925050606085013567ffffffffffffffff811115613a2457613a236133f3565b5b613a308782880161398b565b91505092959194509250565b60008060408385031215613a5357613a526133ee565b5b6000613a6185828601613644565b9250506020613a7285828601613644565b9150509250929050565b7f4e487b7100000000000000000000000000000000000000000000000000000000600052602260045260246000fd5b60006002820490506001821680613ac357607f821691505b60208210811415613ad757613ad6613a7c565b5b50919050565b7f4552433732313a20617070726f76656420717565727920666f72206e6f6e657860008201527f697374656e7420746f6b656e0000000000000000000000000000000000000000602082015250565b6000613b39602c836134be565b9150613b4482613add565b604082019050919050565b60006020820190508181036000830152613b6881613b2c565b9050919050565b7f4552433732313a20617070726f76616c20746f2063757272656e74206f776e6560008201527f7200000000000000000000000000000000000000000000000000000000000000602082015250565b6000613bcb6021836134be565b9150613bd682613b6f565b604082019050919050565b60006020820190508181036000830152613bfa81613bbe565b9050919050565b7f4552433732313a20617070726f76652063616c6c6572206973206e6f74206f7760008201527f6e6572206e6f7220617070726f76656420666f7220616c6c0000000000000000602082015250565b6000613c5d6038836134be565b9150613c6882613c01565b604082019050919050565b60006020820190508181036000830152613c8c81613c50565b9050919050565b7f4e487b7100000000000000000000000000000000000000000000000000000000600052603260045260246000fd5b7f4e487b7100000000000000000000000000000000000000000000000000000000600052601160045260246000fd5b6000613cfc8261356e565b9150613d078361356e565b9250817fffffffffffffffffffffffffffffffffffffffffffffffffffffffffffffffff0483118215151615613d4057613d3f613cc2565b5b828202905092915050565b6000613d568261356e565b9150613d618361356e565b925082821015613d7457613d73613cc2565b5b828203905092915050565b6000613d8a8261356e565b91507fffffffffffffffffffffffffffffffffffffffffffffffffffffffffffffffff821415613dbd57613dbc613cc2565b5b600182019050919050565b7f4e487b7100000000000000000000000000000000000000000000000000000000600052601260045260246000fd5b6000613e028261356e565b9150613e0d8361356e565b925082613e1d57613e1c613dc8565b5b828204905092915050565b6000606082019050613e3d6000830186613603565b613e4a6020830185613603565b613e57604083018461374d565b949350505050565b600081519050613e6e81613818565b92915050565b600060208284031215613e8a57613e896133ee565b5b6000613e9884828501613e5f565b91505092915050565b7f4552433732313a207472616e736665722063616c6c6572206973206e6f74206f60008201527f776e6572206e6f7220617070726f766564000000000000000000000000000000602082015250565b6000613efd6031836134be565b9150613f0882613ea1565b604082019050919050565b60006020820190508181036000830152613f2c81613ef0565b9050919050565b6000819050919050565b6000819050919050565b6000613f62613f5d613f5884613f33565b613f3d565b61356e565b9050919050565b613f7281613f47565b82525050565b600082825260208201905092915050565b50565b6000613f99600083613f78565b9150613fa482613f89565b600082019050919050565b600060a082019050613fc46000830187613603565b613fd16020830186613603565b613fde6040830185613f69565b613feb606083018461374d565b8181036080830152613ffc81613f8c565b905095945050505050565b600060408201905061401c600083018561374d565b6140296020830184613f69565b9392505050565b7f4552433732313a206f776e657220717565727920666f72206e6f6e657869737460008201527f656e7420746f6b656e0000000000000000000000000000000000000000000000602082015250565b600061408c6029836134be565b915061409782614030565b604082019050919050565b600060208201905081810360008301526140bb8161407f565b9050919050565b60006140cd8261356e565b91506140d88361356e565b9250827fffffffffffffffffffffffffffffffffffffffffffffffffffffffffffffffff0382111561410d5761410c613cc2565b5b828201905092915050565b600060408201905061412d600083018561374d565b61413a602083018461374d565b9392505050565b7f4552433732313a2062616c616e636520717565727920666f7220746865207a6560008201527f726f206164647265737300000000000000000000000000000000000000000000602082015250565b600061419d602a836134be565b91506141a882614141565b604082019050919050565b600060208201905081810360008301526141cc81614190565b9050919050565b7f496e697469616c697a61626c653a20636f6e747261637420697320616c72656160008201527f647920696e697469616c697a6564000000000000000000000000000000000000602082015250565b600061422f602e836134be565b915061423a826141d3565b604082019050919050565b6000602082019050818103600083015261425e81614222565b9050919050565b60008160011c9050919050565b6000808291508390505b60018511156142bc5780860481111561429857614297613cc2565b5b60018516156142a75780820291505b80810290506142b585614265565b945061427c565b94509492505050565b6000826142d55760019050614391565b816142e35760009050614391565b81600181146142f9576002811461430357614332565b6001915050614391565b60ff84111561431557614314613cc2565b5b8360020a91508482111561432c5761432b613cc2565b5b50614391565b5060208310610133831016604e8410600b84101617156143675782820a90508381111561436257614361613cc2565b5b614391565b6143748484846001614272565b9250905081840481111561438b5761438a613cc2565b5b81810290505b9392505050565b60006143a38261356e565b91506143ae8361356e565b92506143db7fffffffffffffffffffffffffffffffffffffffffffffffffffffffffffffffff84846142c5565b905092915050565b6000819050919050565b60006144086144036143fe846143e3565b613f3d565b61356e565b9050919050565b614418816143ed565b82525050565b6000604082019050614433600083018561374d565b614440602083018461440f565b9392505050565b7f4552433732314d657461646174613a2055524920717565727920666f72206e6f60008201527f6e6578697374656e7420746f6b656e0000000000000000000000000000000000602082015250565b60006144a3602f836134be565b91506144ae82614447565b604082019050919050565b600060208201905081810360008301526144d281614496565b9050919050565b600081905092915050565b60006144ef826134b3565b6144f981856144d9565b93506145098185602086016134cf565b80840191505092915050565b600061452182856144e4565b915061452d82846144e4565b91508190509392505050565b6000819050919050565b61455461454f826136c6565b614539565b82525050565b60006145668284614543565b60208201915081905092915050565b60006145808261356e565b915061458b8361356e565b92508261459b5761459a613dc8565b5b828206905092915050565b7f4552433732313a206d696e7420746f20746865207a65726f2061646472657373600082015250565b60006145dc6020836134be565b91506145e7826145a6565b602082019050919050565b6000602082019050818103600083015261460b816145cf565b9050919050565b7f4552433732313a20746f6b656e20616c7265616479206d696e74656400000000600082015250565b6000614648601c836134be565b915061465382614612565b602082019050919050565b600060208201905081810360008301526146778161463b565b9050919050565b7f4552433732313a206f70657261746f7220717565727920666f72206e6f6e657860008201527f697374656e7420746f6b656e0000000000000000000000000000000000000000602082015250565b60006146da602c836134be565b91506146e58261467e565b604082019050919050565b60006020820190508181036000830152614709816146cd565b9050919050565b7f4552433732313a207472616e73666572206f6620746f6b656e2074686174206960008201527f73206e6f74206f776e0000000000000000000000000000000000000000000000602082015250565b600061476c6029836134be565b915061477782614710565b604082019050919050565b6000602082019050818103600083015261479b8161475f565b9050919050565b7f4552433732313a207472616e7366657220746f20746865207a65726f2061646460008201527f7265737300000000000000000000000000000000000000000000000000000000602082015250565b60006147fe6024836134be565b9150614809826147a2565b604082019050919050565b6000602082019050818103600083015261482d816147f1565b9050919050565b7f496e697469616c697a61626c653a20636f6e7472616374206973206e6f74206960008201527f6e697469616c697a696e67000000000000000000000000000000000000000000602082015250565b6000614890602b836134be565b915061489b82614834565b604082019050919050565b600060208201905081810360008301526148bf81614883565b9050919050565b7f4552433732313a20617070726f766520746f2063616c6c657200000000000000600082015250565b60006148fc6019836134be565b9150614907826148c6565b602082019050919050565b6000602082019050818103600083015261492b816148ef565b9050919050565b7f4552433732313a207472616e7366657220746f206e6f6e20455243373231526560008201527f63656976657220696d706c656d656e7465720000000000000000000000000000602082015250565b600061498e6032836134be565b915061499982614932565b604082019050919050565b600060208201905081810360008301526149bd81614981565b9050919050565b600081519050919050565b60006149da826149c4565b6149e48185613f78565b93506149f48185602086016134cf565b6149fd81613502565b840191505092915050565b6000608082019050614a1d6000830187613603565b614a2a6020830186613603565b614a37604083018561374d565b8181036060830152614a4981846149cf565b905095945050505050565b600081519050614a6381613424565b92915050565b600060208284031215614a7f57614a7e6133ee565b5b6000614a8d84828501614a54565b9150509291505056fea264697066735822122091be2e06a29d5abed7ce9ee0344668666b27825dc5ef0c2ab4de9e4a248f856e64736f6c634300080b0033",
  "immutableReferences": {},
  "source": "// SPDX-License-Identifier: UNLICENSED\r\n\r\npragma solidity ^0.8.3;\r\n\r\nimport \"../node_modules/@openzeppelin/contracts-upgradeable/token/ERC721/ERC721Upgradeable.sol\";\r\nimport \"../node_modules/@openzeppelin/contracts/token/ERC20/IERC20.sol\";\r\nimport \"../node_modules/@openzeppelin/contracts/token/ERC1155/IERC1155.sol\";\r\n\r\ncontract Tree is ERC721Upgradeable {\r\n    event NewTree(uint treeId);\r\n    event GainExp(uint treeId, uint amount);\r\n    event GainLevel(uint treeId);\r\n    event BuildingLevelUp (uint treeId, uint buildingId);\r\n\r\n    uint Digits;\r\n    uint Modulus;\r\n\r\n    address ContractOwner;\r\n    address TreasuryAddress;\r\n    address TokenAddress;\r\n    address GameItemsAddress;\r\n    address QuestAddress;\r\n\r\n    struct TreeStruct {\r\n        uint treeDNA;\r\n        uint level;\r\n        uint exp;\r\n        uint barracks;\r\n        uint trainingGrounds;\r\n        uint onQuestUntil;\r\n    }\r\n\r\n    TreeStruct[] public trees;\r\n\r\n    //Modifiers\r\n\r\n    modifier onlyOwnerOf(uint _treeId) {\r\n        require(ownerOf(_treeId) == msg.sender);\r\n        _;\r\n    }\r\n\r\n    modifier onlyOwner() {\r\n        require(ContractOwner == msg.sender);\r\n        _;\r\n    }\r\n\r\n    modifier onlyQuestContract() {\r\n        require(QuestAddress == msg.sender);\r\n        _;\r\n    }\r\n\r\n    function initialize() initializer public {\r\n        Digits = 16;\r\n        Modulus = 10 ** Digits;\r\n\r\n        ContractOwner = 0xf577601a5eF1d5079Da672f01D7aB3b80dD2bd1D;\r\n        TreasuryAddress = 0xfd768E668A158C173e9549d1632902C2A4363178;\r\n\r\n        __ERC721_init(\"Patagonic Tree\", \"PTREE\");\r\n    }\r\n\r\n    //Util Functions\r\n\r\n    function vrf() public view returns (bytes32 result) {\r\n        uint[1] memory bn;\r\n        bn[0] = block.number;\r\n        assembly {\r\n            let memPtr := mload(0x40)\r\n            if iszero(staticcall(not(0), 0xff, bn, 0x20, memPtr, 0x20)) {\r\n                invalid()\r\n            }\r\n            result := mload(memPtr)\r\n        }\r\n    }\r\n\r\n    //View Functions\r\n\r\n    function treeDNA(uint treeId) public view returns (uint) {\r\n        return trees[treeId].treeDNA;\r\n    }\r\n\r\n    function treeLevel(uint treeId) public view returns (uint) {\r\n        return trees[treeId].level;\r\n    }\r\n\r\n    function treeExp(uint treeId) public view returns (uint) {\r\n        return trees[treeId].exp;\r\n    }\r\n\r\n    function treeBarracks(uint treeId) public view returns (uint) {\r\n        return trees[treeId].barracks;\r\n    }\r\n\r\n    function treeTrainingGrounds(uint treeId) public view returns (uint) {\r\n        return trees[treeId].trainingGrounds;\r\n    }\r\n\r\n    function questStatus(uint treeId) public view returns (uint) {\r\n        return trees[treeId].onQuestUntil;\r\n    }\r\n\r\n    function currentPrice() public view returns (uint) {\r\n        return ((trees.length+1)*1)*10**18;\r\n    }\r\n\r\n    function _generateRandomDNA() internal view returns (uint) {\r\n        uint rand = uint(keccak256(abi.encodePacked(vrf())));\r\n        return rand % Modulus;\r\n    }\r\n\r\n    //Payable Functions\r\n\r\n    function upgradeBarracks(uint treeId) public payable onlyOwnerOf(treeId) {\r\n        require(trees[treeId].level > trees[treeId].barracks);\r\n        require(21 > trees[treeId].barracks);\r\n        uint amount = trees[treeId].barracks*10**18;\r\n        if (trees[treeId].barracks > 10 && trees[treeId].barracks < 21) {\r\n            uint BasicRuneAmount = (trees[treeId].barracks-10);\r\n            IERC1155(GameItemsAddress).safeTransferFrom(msg.sender, address(0), 0, BasicRuneAmount, \"\");\r\n        }\r\n        trees[treeId].barracks++;\r\n        IERC20(TokenAddress).transferFrom(msg.sender, TreasuryAddress, amount*70/100);\r\n        IERC20(TokenAddress).transferFrom(msg.sender, ContractOwner, amount*30/100);\r\n        emit BuildingLevelUp (treeId, 0);\r\n    }\r\n\r\n    function upgradeTrainingGrounds(uint treeId) public payable onlyOwnerOf(treeId) {\r\n        require(trees[treeId].level > trees[treeId].trainingGrounds);\r\n        require(21 > trees[treeId].trainingGrounds);\r\n        uint amount = trees[treeId].trainingGrounds*10**18;\r\n        if (trees[treeId].trainingGrounds > 10 && trees[treeId].trainingGrounds < 21) {\r\n            uint BasicRuneAmount = (trees[treeId].trainingGrounds-10);\r\n            IERC1155(GameItemsAddress).safeTransferFrom(msg.sender, address(0), 0, BasicRuneAmount, \"\");\r\n        }\r\n        trees[treeId].trainingGrounds++;\r\n        IERC20(TokenAddress).transferFrom(msg.sender, TreasuryAddress, amount*70/100);\r\n        IERC20(TokenAddress).transferFrom(msg.sender, ContractOwner, amount*30/100);\r\n        emit BuildingLevelUp (treeId, 1);\r\n    }\r\n\r\n    function updateQuestStatus(uint treeId, uint newValue) public payable onlyQuestContract() {\r\n        trees[treeId].onQuestUntil = newValue;\r\n    }\r\n\r\n    function gainExp(uint treeId, uint amount) public payable onlyQuestContract() {\r\n        //Cambiar a que solo lo pueda hacer el contrato de quests y no el usuario\r\n        trees[treeId].exp = trees[treeId].exp + amount;\r\n        emit GainExp(treeId, amount);\r\n    }\r\n\r\n    function gainLevel(uint treeId) public payable onlyOwnerOf(treeId) {\r\n        require(trees[treeId].level < 100 );\r\n        require(trees[treeId].exp >= trees[treeId].level*100);\r\n        uint amount = trees[treeId].level*10**18;\r\n        trees[treeId].exp = trees[treeId].exp-trees[treeId].level*100;\r\n        trees[treeId].level++;\r\n        IERC20(TokenAddress).transferFrom(msg.sender, TreasuryAddress, amount*70/100);\r\n        IERC20(TokenAddress).transferFrom(msg.sender, ContractOwner, amount*30/100);\r\n        emit GainLevel(treeId);\r\n    }\r\n\r\n    function createNewTree() public payable {\r\n        require(msg.sender != address(0) && msg.sender != address(this));\r\n        require(msg.value >= currentPrice());\r\n        uint id = trees.length;\r\n        uint DNA = _generateRandomDNA();\r\n        trees.push(TreeStruct(DNA, 1, 0, 0, 0, 0));\r\n        _mint(msg.sender, id);\r\n        emit NewTree(id);\r\n\r\n    }\r\n\r\n    //Transfer Functions\r\n\r\n    function transferOwnership(address newOwner) public payable onlyOwner() {\r\n        ContractOwner = newOwner;\r\n    }\r\n\r\n    function transferTreasuryAddress(address newTreasury) public payable onlyOwner() {\r\n        TreasuryAddress = newTreasury;\r\n    }\r\n\r\n    function transferTokenAddress(address newToken) public payable onlyOwner() {\r\n        TokenAddress = newToken;\r\n    }\r\n\r\n    function transferGameItemsAddress(address newGameItems) public payable onlyOwner() {\r\n        GameItemsAddress = newGameItems;\r\n    }\r\n\r\n    function transferQuestAddress(address newQuest) public payable onlyOwner() {\r\n        QuestAddress = newQuest;\r\n    }\r\n}",
  "sourcePath": "C:\\Users\\jtsch\\OneDrive\\Escritorio\\Python\\SmartContracts-NFT-Agus\\contracts\\Tree.sol",
  "compiler": {
    "name": "solc",
    "version": "0.8.11+commit.d7f03943.Emscripten.clang"
  },
  "schemaVersion": "3.4.3",
  "updatedAt": "2022-01-16T16:06:55.688Z",
  "networkType": "ethereum",
  "devdoc": {
    "kind": "dev",
    "methods": {
      "approve(address,uint256)": {
        "details": "See {IERC721-approve}."
      },
      "balanceOf(address)": {
        "details": "See {IERC721-balanceOf}."
      },
      "getApproved(uint256)": {
        "details": "See {IERC721-getApproved}."
      },
      "isApprovedForAll(address,address)": {
        "details": "See {IERC721-isApprovedForAll}."
      },
      "name()": {
        "details": "See {IERC721Metadata-name}."
      },
      "ownerOf(uint256)": {
        "details": "See {IERC721-ownerOf}."
      },
      "safeTransferFrom(address,address,uint256)": {
        "details": "See {IERC721-safeTransferFrom}."
      },
      "safeTransferFrom(address,address,uint256,bytes)": {
        "details": "See {IERC721-safeTransferFrom}."
      },
      "setApprovalForAll(address,bool)": {
        "details": "See {IERC721-setApprovalForAll}."
      },
      "supportsInterface(bytes4)": {
        "details": "See {IERC165-supportsInterface}."
      },
      "symbol()": {
        "details": "See {IERC721Metadata-symbol}."
      },
      "tokenURI(uint256)": {
        "details": "See {IERC721Metadata-tokenURI}."
      },
      "transferFrom(address,address,uint256)": {
        "details": "See {IERC721-transferFrom}."
      }
    },
    "version": 1
  },
  "userdoc": {
    "kind": "user",
    "methods": {},
    "version": 1
  }
}