{
  "contractName": "Tree",
  "abi": [
    {
      "inputs": [],
      "stateMutability": "nonpayable",
      "type": "constructor"
    },
    {
      "anonymous": false,
      "inputs": [
        {
          "indexed": true,
          "internalType": "address",
          "name": "owner",
          "type": "address"
        },
        {
          "indexed": true,
          "internalType": "address",
          "name": "approved",
          "type": "address"
        },
        {
          "indexed": true,
          "internalType": "uint256",
          "name": "tokenId",
          "type": "uint256"
        }
      ],
      "name": "Approval",
      "type": "event"
    },
    {
      "anonymous": false,
      "inputs": [
        {
          "indexed": true,
          "internalType": "address",
          "name": "owner",
          "type": "address"
        },
        {
          "indexed": true,
          "internalType": "address",
          "name": "operator",
          "type": "address"
        },
        {
          "indexed": false,
          "internalType": "bool",
          "name": "approved",
          "type": "bool"
        }
      ],
      "name": "ApprovalForAll",
      "type": "event"
    },
    {
      "anonymous": false,
      "inputs": [
        {
          "indexed": false,
          "internalType": "uint256",
          "name": "treeId",
          "type": "uint256"
        },
        {
          "indexed": false,
          "internalType": "uint256",
          "name": "amount",
          "type": "uint256"
        }
      ],
      "name": "GainExp",
      "type": "event"
    },
    {
      "anonymous": false,
      "inputs": [
        {
          "indexed": false,
          "internalType": "uint256",
          "name": "treeId",
          "type": "uint256"
        }
      ],
      "name": "GainLevel",
      "type": "event"
    },
    {
      "anonymous": false,
      "inputs": [
        {
          "indexed": false,
          "internalType": "uint256",
          "name": "treeId",
          "type": "uint256"
        }
      ],
      "name": "NewTree",
      "type": "event"
    },
    {
      "anonymous": false,
      "inputs": [
        {
          "indexed": true,
          "internalType": "address",
          "name": "from",
          "type": "address"
        },
        {
          "indexed": true,
          "internalType": "address",
          "name": "to",
          "type": "address"
        },
        {
          "indexed": true,
          "internalType": "uint256",
          "name": "tokenId",
          "type": "uint256"
        }
      ],
      "name": "Transfer",
      "type": "event"
    },
    {
      "inputs": [
        {
          "internalType": "address",
          "name": "to",
          "type": "address"
        },
        {
          "internalType": "uint256",
          "name": "tokenId",
          "type": "uint256"
        }
      ],
      "name": "approve",
      "outputs": [],
      "stateMutability": "nonpayable",
      "type": "function"
    },
    {
      "inputs": [
        {
          "internalType": "address",
          "name": "owner",
          "type": "address"
        }
      ],
      "name": "balanceOf",
      "outputs": [
        {
          "internalType": "uint256",
          "name": "",
          "type": "uint256"
        }
      ],
      "stateMutability": "view",
      "type": "function"
    },
    {
      "inputs": [
        {
          "internalType": "uint256",
          "name": "tokenId",
          "type": "uint256"
        }
      ],
      "name": "getApproved",
      "outputs": [
        {
          "internalType": "address",
          "name": "",
          "type": "address"
        }
      ],
      "stateMutability": "view",
      "type": "function"
    },
    {
      "inputs": [
        {
          "internalType": "address",
          "name": "owner",
          "type": "address"
        },
        {
          "internalType": "address",
          "name": "operator",
          "type": "address"
        }
      ],
      "name": "isApprovedForAll",
      "outputs": [
        {
          "internalType": "bool",
          "name": "",
          "type": "bool"
        }
      ],
      "stateMutability": "view",
      "type": "function"
    },
    {
      "inputs": [],
      "name": "name",
      "outputs": [
        {
          "internalType": "string",
          "name": "",
          "type": "string"
        }
      ],
      "stateMutability": "view",
      "type": "function"
    },
    {
      "inputs": [
        {
          "internalType": "uint256",
          "name": "tokenId",
          "type": "uint256"
        }
      ],
      "name": "ownerOf",
      "outputs": [
        {
          "internalType": "address",
          "name": "",
          "type": "address"
        }
      ],
      "stateMutability": "view",
      "type": "function"
    },
    {
      "inputs": [
        {
          "internalType": "address",
          "name": "from",
          "type": "address"
        },
        {
          "internalType": "address",
          "name": "to",
          "type": "address"
        },
        {
          "internalType": "uint256",
          "name": "tokenId",
          "type": "uint256"
        }
      ],
      "name": "safeTransferFrom",
      "outputs": [],
      "stateMutability": "nonpayable",
      "type": "function"
    },
    {
      "inputs": [
        {
          "internalType": "address",
          "name": "from",
          "type": "address"
        },
        {
          "internalType": "address",
          "name": "to",
          "type": "address"
        },
        {
          "internalType": "uint256",
          "name": "tokenId",
          "type": "uint256"
        },
        {
          "internalType": "bytes",
          "name": "_data",
          "type": "bytes"
        }
      ],
      "name": "safeTransferFrom",
      "outputs": [],
      "stateMutability": "nonpayable",
      "type": "function"
    },
    {
      "inputs": [
        {
          "internalType": "address",
          "name": "operator",
          "type": "address"
        },
        {
          "internalType": "bool",
          "name": "approved",
          "type": "bool"
        }
      ],
      "name": "setApprovalForAll",
      "outputs": [],
      "stateMutability": "nonpayable",
      "type": "function"
    },
    {
      "inputs": [
        {
          "internalType": "bytes4",
          "name": "interfaceId",
          "type": "bytes4"
        }
      ],
      "name": "supportsInterface",
      "outputs": [
        {
          "internalType": "bool",
          "name": "",
          "type": "bool"
        }
      ],
      "stateMutability": "view",
      "type": "function"
    },
    {
      "inputs": [],
      "name": "symbol",
      "outputs": [
        {
          "internalType": "string",
          "name": "",
          "type": "string"
        }
      ],
      "stateMutability": "view",
      "type": "function"
    },
    {
      "inputs": [
        {
          "internalType": "uint256",
          "name": "tokenId",
          "type": "uint256"
        }
      ],
      "name": "tokenURI",
      "outputs": [
        {
          "internalType": "string",
          "name": "",
          "type": "string"
        }
      ],
      "stateMutability": "view",
      "type": "function"
    },
    {
      "inputs": [
        {
          "internalType": "address",
          "name": "from",
          "type": "address"
        },
        {
          "internalType": "address",
          "name": "to",
          "type": "address"
        },
        {
          "internalType": "uint256",
          "name": "tokenId",
          "type": "uint256"
        }
      ],
      "name": "transferFrom",
      "outputs": [],
      "stateMutability": "nonpayable",
      "type": "function"
    },
    {
      "inputs": [
        {
          "internalType": "uint256",
          "name": "",
          "type": "uint256"
        }
      ],
      "name": "trees",
      "outputs": [
        {
          "internalType": "uint256",
          "name": "treeDNA",
          "type": "uint256"
        },
        {
          "internalType": "uint256",
          "name": "level",
          "type": "uint256"
        },
        {
          "internalType": "uint256",
          "name": "exp",
          "type": "uint256"
        },
        {
          "internalType": "uint256",
          "name": "onQuestUntil",
          "type": "uint256"
        }
      ],
      "stateMutability": "view",
      "type": "function"
    },
    {
      "inputs": [
        {
          "internalType": "uint256",
          "name": "treeId",
          "type": "uint256"
        }
      ],
      "name": "neededExp",
      "outputs": [
        {
          "internalType": "uint256",
          "name": "",
          "type": "uint256"
        }
      ],
      "stateMutability": "view",
      "type": "function"
    },
    {
      "inputs": [
        {
          "internalType": "uint256",
          "name": "treeId",
          "type": "uint256"
        }
      ],
      "name": "neededAmount",
      "outputs": [
        {
          "internalType": "uint256",
          "name": "",
          "type": "uint256"
        }
      ],
      "stateMutability": "view",
      "type": "function"
    },
    {
      "inputs": [],
      "name": "currentPrice",
      "outputs": [
        {
          "internalType": "uint256",
          "name": "",
          "type": "uint256"
        }
      ],
      "stateMutability": "view",
      "type": "function"
    },
    {
      "inputs": [
        {
          "internalType": "uint256",
          "name": "treeId",
          "type": "uint256"
        }
      ],
      "name": "questStatus",
      "outputs": [
        {
          "internalType": "uint256",
          "name": "",
          "type": "uint256"
        }
      ],
      "stateMutability": "view",
      "type": "function"
    },
    {
      "inputs": [
        {
          "internalType": "uint256",
          "name": "treeId",
          "type": "uint256"
        },
        {
          "internalType": "uint256",
          "name": "newValue",
          "type": "uint256"
        }
      ],
      "name": "updateQuestStatus",
      "outputs": [],
      "stateMutability": "payable",
      "type": "function"
    },
    {
      "inputs": [
        {
          "internalType": "uint256",
          "name": "treeId",
          "type": "uint256"
        },
        {
          "internalType": "uint256",
          "name": "amount",
          "type": "uint256"
        }
      ],
      "name": "gainExp",
      "outputs": [],
      "stateMutability": "payable",
      "type": "function"
    },
    {
      "inputs": [
        {
          "internalType": "uint256",
          "name": "treeId",
          "type": "uint256"
        }
      ],
      "name": "gainLevel",
      "outputs": [],
      "stateMutability": "payable",
      "type": "function"
    },
    {
      "inputs": [],
      "name": "createNewTree",
      "outputs": [],
      "stateMutability": "payable",
      "type": "function"
    },
    {
      "inputs": [
        {
          "internalType": "address",
          "name": "newOwner",
          "type": "address"
        }
      ],
      "name": "transferOwnership",
      "outputs": [],
      "stateMutability": "payable",
      "type": "function"
    },
    {
      "inputs": [
        {
          "internalType": "address",
          "name": "newQuestContract",
          "type": "address"
        }
      ],
      "name": "transferQuestContract",
      "outputs": [],
      "stateMutability": "payable",
      "type": "function"
    }
  ],
  "bytecode": "0x608060405260016006556010600755600754600a6200001f9190620003ff565b60085573f577601a5ef1d5079da672f01d7ab3b80dd2bd1d600960006101000a81548173ffffffffffffffffffffffffffffffffffffffff021916908373ffffffffffffffffffffffffffffffffffffffff16021790555073cd571ed43b347a4ab01bae2d23f9535bbafe955d600a60006101000a81548173ffffffffffffffffffffffffffffffffffffffff021916908373ffffffffffffffffffffffffffffffffffffffff1602179055506000600b60006101000a81548173ffffffffffffffffffffffffffffffffffffffff021916908373ffffffffffffffffffffffffffffffffffffffff1602179055503480156200011b57600080fd5b506040518060400160405280600481526020017f54524545000000000000000000000000000000000000000000000000000000008152506040518060400160405280600481526020017f54726565000000000000000000000000000000000000000000000000000000008152508160009080519060200190620001a0929190620001c2565b508060019080519060200190620001b9929190620001c2565b505050620004b5565b828054620001d0906200047f565b90600052602060002090601f016020900481019282620001f4576000855562000240565b82601f106200020f57805160ff191683800117855562000240565b8280016001018555821562000240579182015b828111156200023f57825182559160200191906001019062000222565b5b5090506200024f919062000253565b5090565b5b808211156200026e57600081600090555060010162000254565b5090565b7f4e487b7100000000000000000000000000000000000000000000000000000000600052601160045260246000fd5b60008160011c9050919050565b6000808291508390505b60018511156200030057808604811115620002d857620002d762000272565b5b6001851615620002e85780820291505b8081029050620002f885620002a1565b9450620002b8565b94509492505050565b6000826200031b5760019050620003ee565b816200032b5760009050620003ee565b81600181146200034457600281146200034f5762000385565b6001915050620003ee565b60ff84111562000364576200036362000272565b5b8360020a9150848211156200037e576200037d62000272565b5b50620003ee565b5060208310610133831016604e8410600b8410161715620003bf5782820a905083811115620003b957620003b862000272565b5b620003ee565b620003ce8484846001620002ae565b92509050818404811115620003e857620003e762000272565b5b81810290505b9392505050565b6000819050919050565b60006200040c82620003f5565b91506200041983620003f5565b9250620004487fffffffffffffffffffffffffffffffffffffffffffffffffffffffffffffffff848462000309565b905092915050565b7f4e487b7100000000000000000000000000000000000000000000000000000000600052602260045260246000fd5b600060028204905060018216806200049857607f821691505b60208210811415620004af57620004ae62000450565b5b50919050565b6132aa80620004c56000396000f3fe60806040526004361061014b5760003560e01c80636cad6932116100b65780639d1b464a1161006f5780639d1b464a14610486578063a22cb465146104b1578063b88d4fde146104da578063c87b56dd14610503578063e985e9c514610540578063f2fde38b1461057d5761014b565b80636cad69321461036957806370a08231146103855780637a508022146103c2578063850b0f3c146104025780638536496f1461043f57806395d89b411461045b5761014b565b806310d1eb2a1161010857806310d1eb2a146102775780631f7c60251461028157806321cde202146102be57806323b872dd146102da57806342842e0e146103035780636352211e1461032c5761014b565b806301ffc9a714610150578063050775841461018d57806306fdde03146101ca578063081812fc146101f5578063095ea7b314610232578063104e21b21461025b575b600080fd5b34801561015c57600080fd5b5061017760048036038101906101729190612070565b610599565b60405161018491906120b8565b60405180910390f35b34801561019957600080fd5b506101b460048036038101906101af9190612109565b61067b565b6040516101c19190612145565b60405180910390f35b3480156101d657600080fd5b506101df6106b6565b6040516101ec91906121f9565b60405180910390f35b34801561020157600080fd5b5061021c60048036038101906102179190612109565b610748565b604051610229919061225c565b60405180910390f35b34801561023e57600080fd5b50610259600480360381019061025491906122a3565b6107cd565b005b610275600480360381019061027091906122e3565b6108e5565b005b61027f610983565b005b34801561028d57600080fd5b506102a860048036038101906102a39190612109565b610ade565b6040516102b59190612145565b60405180910390f35b6102d860048036038101906102d39190612109565b610b2c565b005b3480156102e657600080fd5b5061030160048036038101906102fc9190612310565b610d2e565b005b34801561030f57600080fd5b5061032a60048036038101906103259190612310565b610d8e565b005b34801561033857600080fd5b50610353600480360381019061034e9190612109565b610dae565b604051610360919061225c565b60405180910390f35b610383600480360381019061037e9190612363565b610e60565b005b34801561039157600080fd5b506103ac60048036038101906103a791906122e3565b610f51565b6040516103b99190612145565b60405180910390f35b3480156103ce57600080fd5b506103e960048036038101906103e49190612109565b611009565b6040516103f994939291906123a3565b60405180910390f35b34801561040e57600080fd5b5061042960048036038101906104249190612109565b611049565b6040516104369190612145565b60405180910390f35b61045960048036038101906104549190612363565b611078565b005b34801561046757600080fd5b50610470611100565b60405161047d91906121f9565b60405180910390f35b34801561049257600080fd5b5061049b611192565b6040516104a89190612145565b60405180910390f35b3480156104bd57600080fd5b506104d860048036038101906104d39190612414565b6111c9565b005b3480156104e657600080fd5b5061050160048036038101906104fc9190612589565b6111df565b005b34801561050f57600080fd5b5061052a60048036038101906105259190612109565b611241565b60405161053791906121f9565b60405180910390f35b34801561054c57600080fd5b506105676004803603810190610562919061260c565b6112e8565b60405161057491906120b8565b60405180910390f35b610597600480360381019061059291906122e3565b61137c565b005b60007f80ac58cd000000000000000000000000000000000000000000000000000000007bffffffffffffffffffffffffffffffffffffffffffffffffffffffff1916827bffffffffffffffffffffffffffffffffffffffffffffffffffffffff1916148061066457507f5b5e139f000000000000000000000000000000000000000000000000000000007bffffffffffffffffffffffffffffffffffffffffffffffffffffffff1916827bffffffffffffffffffffffffffffffffffffffffffffffffffffffff1916145b8061067457506106738261141a565b5b9050919050565b60006064600c83815481106106935761069261264c565b5b9060005260206000209060040201600101546106af91906126aa565b9050919050565b6060600080546106c590612733565b80601f01602080910402602001604051908101604052809291908181526020018280546106f190612733565b801561073e5780601f106107135761010080835404028352916020019161073e565b820191906000526020600020905b81548152906001019060200180831161072157829003601f168201915b5050505050905090565b600061075382611484565b610792576040517f08c379a0000000000000000000000000000000000000000000000000000000008152600401610789906127d7565b60405180910390fd5b6004600083815260200190815260200160002060009054906101000a900473ffffffffffffffffffffffffffffffffffffffff169050919050565b60006107d882610dae565b90508073ffffffffffffffffffffffffffffffffffffffff168373ffffffffffffffffffffffffffffffffffffffff161415610849576040517f08c379a000000000000000000000000000000000000000000000000000000000815260040161084090612869565b60405180910390fd5b8073ffffffffffffffffffffffffffffffffffffffff166108686114f0565b73ffffffffffffffffffffffffffffffffffffffff1614806108975750610896816108916114f0565b6112e8565b5b6108d6576040517f08c379a00000000000000000000000000000000000000000000000000000000081526004016108cd906128fb565b60405180910390fd5b6108e083836114f8565b505050565b3373ffffffffffffffffffffffffffffffffffffffff16600960009054906101000a900473ffffffffffffffffffffffffffffffffffffffff1673ffffffffffffffffffffffffffffffffffffffff161461093f57600080fd5b80600b60006101000a81548173ffffffffffffffffffffffffffffffffffffffff021916908373ffffffffffffffffffffffffffffffffffffffff16021790555050565b600073ffffffffffffffffffffffffffffffffffffffff163373ffffffffffffffffffffffffffffffffffffffff16141580156109ec57503073ffffffffffffffffffffffffffffffffffffffff163373ffffffffffffffffffffffffffffffffffffffff1614155b6109f557600080fd5b6109fd611192565b341015610a0957600080fd5b6000600c8054905090506000610a1e826115b1565b9050600c6040518060800160405280838152602001600181526020016000815260200160008152509080600181540180825580915050600190039060005260206000209060040201600090919091909150600082015181600001556020820151816001015560408201518160020155606082015181600301555050610aa3338361161b565b7f5aa7f45898fcb5638757632f4ea98818ccb1f1b865b0721648cfb14cfcd2da9a82604051610ad29190612145565b60405180910390a15050565b6000670de0b6b3a76400006001600c8481548110610aff57610afe61264c565b5b906000526020600020906004020160010154610b1b91906126aa565b610b2591906126aa565b9050919050565b803373ffffffffffffffffffffffffffffffffffffffff16610b4d82610dae565b73ffffffffffffffffffffffffffffffffffffffff1614610b6d57600080fd5b6000610b788361067b565b90506000610b8584610ade565b905081600c8581548110610b9c57610b9b61264c565b5b9060005260206000209060040201600201541015610bb957600080fd5b600a60009054906101000a900473ffffffffffffffffffffffffffffffffffffffff1673ffffffffffffffffffffffffffffffffffffffff166323b872dd3330846040518463ffffffff1660e01b8152600401610c189392919061291b565b6020604051808303816000875af1158015610c37573d6000803e3d6000fd5b505050506040513d601f19601f82011682018060405250810190610c5b9190612967565b5081600c8581548110610c7157610c7061264c565b5b906000526020600020906004020160020154610c8d9190612994565b600c8581548110610ca157610ca061264c565b5b906000526020600020906004020160020181905550600c8481548110610cca57610cc961264c565b5b90600052602060002090600402016001016000815480929190610cec906129c8565b91905055507f7ef1df0b6d95a41d9ebcaa695746726b382e110036a9127b009babdb11c656a284604051610d209190612145565b60405180910390a150505050565b610d3f610d396114f0565b826117e9565b610d7e576040517f08c379a0000000000000000000000000000000000000000000000000000000008152600401610d7590612a83565b60405180910390fd5b610d898383836118c7565b505050565b610da9838383604051806020016040528060008152506111df565b505050565b6000806002600084815260200190815260200160002060009054906101000a900473ffffffffffffffffffffffffffffffffffffffff169050600073ffffffffffffffffffffffffffffffffffffffff168173ffffffffffffffffffffffffffffffffffffffff161415610e57576040517f08c379a0000000000000000000000000000000000000000000000000000000008152600401610e4e90612b15565b60405180910390fd5b80915050919050565b3373ffffffffffffffffffffffffffffffffffffffff16600b60009054906101000a900473ffffffffffffffffffffffffffffffffffffffff1673ffffffffffffffffffffffffffffffffffffffff1614610eba57600080fd5b80600c8381548110610ecf57610ece61264c565b5b906000526020600020906004020160020154610eeb9190612b35565b600c8381548110610eff57610efe61264c565b5b9060005260206000209060040201600201819055507ffa65d54a674245861f726a6e25ffd7e32b5f7e7a6a62bd81b222ad6f53643d288282604051610f45929190612b8b565b60405180910390a15050565b60008073ffffffffffffffffffffffffffffffffffffffff168273ffffffffffffffffffffffffffffffffffffffff161415610fc2576040517f08c379a0000000000000000000000000000000000000000000000000000000008152600401610fb990612c26565b60405180910390fd5b600360008373ffffffffffffffffffffffffffffffffffffffff1673ffffffffffffffffffffffffffffffffffffffff168152602001908152602001600020549050919050565b600c818154811061101957600080fd5b90600052602060002090600402016000915090508060000154908060010154908060020154908060030154905084565b6000600c828154811061105f5761105e61264c565b5b9060005260206000209060040201600301549050919050565b3373ffffffffffffffffffffffffffffffffffffffff16600b60009054906101000a900473ffffffffffffffffffffffffffffffffffffffff1673ffffffffffffffffffffffffffffffffffffffff16146110d257600080fd5b80600c83815481106110e7576110e661264c565b5b9060005260206000209060040201600301819055505050565b60606001805461110f90612733565b80601f016020809104026020016040519081016040528092919081815260200182805461113b90612733565b80156111885780601f1061115d57610100808354040283529160200191611188565b820191906000526020600020905b81548152906001019060200180831161116b57829003601f168201915b5050505050905090565b6000670de0b6b3a7640000600180600c805490506111b09190612b35565b6111ba91906126aa565b6111c491906126aa565b905090565b6111db6111d46114f0565b8383611b23565b5050565b6111f06111ea6114f0565b836117e9565b61122f576040517f08c379a000000000000000000000000000000000000000000000000000000000815260040161122690612a83565b60405180910390fd5b61123b84848484611c90565b50505050565b606061124c82611484565b61128b576040517f08c379a000000000000000000000000000000000000000000000000000000000815260040161128290612cb8565b60405180910390fd5b6000611295611cec565b905060008151116112b557604051806020016040528060008152506112e0565b806112bf84611d03565b6040516020016112d0929190612d14565b6040516020818303038152906040525b915050919050565b6000600560008473ffffffffffffffffffffffffffffffffffffffff1673ffffffffffffffffffffffffffffffffffffffff16815260200190815260200160002060008373ffffffffffffffffffffffffffffffffffffffff1673ffffffffffffffffffffffffffffffffffffffff16815260200190815260200160002060009054906101000a900460ff16905092915050565b3373ffffffffffffffffffffffffffffffffffffffff16600960009054906101000a900473ffffffffffffffffffffffffffffffffffffffff1673ffffffffffffffffffffffffffffffffffffffff16146113d657600080fd5b80600960006101000a81548173ffffffffffffffffffffffffffffffffffffffff021916908373ffffffffffffffffffffffffffffffffffffffff16021790555050565b60007f01ffc9a7000000000000000000000000000000000000000000000000000000007bffffffffffffffffffffffffffffffffffffffffffffffffffffffff1916827bffffffffffffffffffffffffffffffffffffffffffffffffffffffff1916149050919050565b60008073ffffffffffffffffffffffffffffffffffffffff166002600084815260200190815260200160002060009054906101000a900473ffffffffffffffffffffffffffffffffffffffff1673ffffffffffffffffffffffffffffffffffffffff1614159050919050565b600033905090565b816004600083815260200190815260200160002060006101000a81548173ffffffffffffffffffffffffffffffffffffffff021916908373ffffffffffffffffffffffffffffffffffffffff160217905550808273ffffffffffffffffffffffffffffffffffffffff1661156b83610dae565b73ffffffffffffffffffffffffffffffffffffffff167f8c5be1e5ebec7d5bd14f71427d1e84f3dd0314c0f7b2291e5b200ac8c7c3b92560405160405180910390a45050565b600080600654836115c29190612b35565b6040516020016115d29190612d59565b6040516020818303038152906040528051906020012060001c905060066000815480929190611600906129c8565b9190505550600854816116139190612da3565b915050919050565b600073ffffffffffffffffffffffffffffffffffffffff168273ffffffffffffffffffffffffffffffffffffffff16141561168b576040517f08c379a000000000000000000000000000000000000000000000000000000000815260040161168290612e20565b60405180910390fd5b61169481611484565b156116d4576040517f08c379a00000000000000000000000000000000000000000000000000000000081526004016116cb90612e8c565b60405180910390fd5b6116e060008383611e64565b6001600360008473ffffffffffffffffffffffffffffffffffffffff1673ffffffffffffffffffffffffffffffffffffffff16815260200190815260200160002060008282546117309190612b35565b92505081905550816002600083815260200190815260200160002060006101000a81548173ffffffffffffffffffffffffffffffffffffffff021916908373ffffffffffffffffffffffffffffffffffffffff160217905550808273ffffffffffffffffffffffffffffffffffffffff16600073ffffffffffffffffffffffffffffffffffffffff167fddf252ad1be2c89b69c2b068fc378daa952ba7f163c4a11628f55a4df523b3ef60405160405180910390a45050565b60006117f482611484565b611833576040517f08c379a000000000000000000000000000000000000000000000000000000000815260040161182a90612f1e565b60405180910390fd5b600061183e83610dae565b90508073ffffffffffffffffffffffffffffffffffffffff168473ffffffffffffffffffffffffffffffffffffffff1614806118ad57508373ffffffffffffffffffffffffffffffffffffffff1661189584610748565b73ffffffffffffffffffffffffffffffffffffffff16145b806118be57506118bd81856112e8565b5b91505092915050565b8273ffffffffffffffffffffffffffffffffffffffff166118e782610dae565b73ffffffffffffffffffffffffffffffffffffffff161461193d576040517f08c379a000000000000000000000000000000000000000000000000000000000815260040161193490612fb0565b60405180910390fd5b600073ffffffffffffffffffffffffffffffffffffffff168273ffffffffffffffffffffffffffffffffffffffff1614156119ad576040517f08c379a00000000000000000000000000000000000000000000000000000000081526004016119a490613042565b60405180910390fd5b6119b8838383611e64565b6119c36000826114f8565b6001600360008573ffffffffffffffffffffffffffffffffffffffff1673ffffffffffffffffffffffffffffffffffffffff1681526020019081526020016000206000828254611a139190612994565b925050819055506001600360008473ffffffffffffffffffffffffffffffffffffffff1673ffffffffffffffffffffffffffffffffffffffff1681526020019081526020016000206000828254611a6a9190612b35565b92505081905550816002600083815260200190815260200160002060006101000a81548173ffffffffffffffffffffffffffffffffffffffff021916908373ffffffffffffffffffffffffffffffffffffffff160217905550808273ffffffffffffffffffffffffffffffffffffffff168473ffffffffffffffffffffffffffffffffffffffff167fddf252ad1be2c89b69c2b068fc378daa952ba7f163c4a11628f55a4df523b3ef60405160405180910390a4505050565b8173ffffffffffffffffffffffffffffffffffffffff168373ffffffffffffffffffffffffffffffffffffffff161415611b92576040517f08c379a0000000000000000000000000000000000000000000000000000000008152600401611b89906130ae565b60405180910390fd5b80600560008573ffffffffffffffffffffffffffffffffffffffff1673ffffffffffffffffffffffffffffffffffffffff16815260200190815260200160002060008473ffffffffffffffffffffffffffffffffffffffff1673ffffffffffffffffffffffffffffffffffffffff16815260200190815260200160002060006101000a81548160ff0219169083151502179055508173ffffffffffffffffffffffffffffffffffffffff168373ffffffffffffffffffffffffffffffffffffffff167f17307eab39ab6107e8899845ad3d59bd9653f200f220920489ca2b5937696c3183604051611c8391906120b8565b60405180910390a3505050565b611c9b8484846118c7565b611ca784848484611e69565b611ce6576040517f08c379a0000000000000000000000000000000000000000000000000000000008152600401611cdd90613140565b60405180910390fd5b50505050565b606060405180602001604052806000815250905090565b60606000821415611d4b576040518060400160405280600181526020017f30000000000000000000000000000000000000000000000000000000000000008152509050611e5f565b600082905060005b60008214611d7d578080611d66906129c8565b915050600a82611d769190613160565b9150611d53565b60008167ffffffffffffffff811115611d9957611d9861245e565b5b6040519080825280601f01601f191660200182016040528015611dcb5781602001600182028036833780820191505090505b5090505b60008514611e5857600182611de49190612994565b9150600a85611df39190612da3565b6030611dff9190612b35565b60f81b818381518110611e1557611e1461264c565b5b60200101907effffffffffffffffffffffffffffffffffffffffffffffffffffffffffffff1916908160001a905350600a85611e519190613160565b9450611dcf565b8093505050505b919050565b505050565b6000611e8a8473ffffffffffffffffffffffffffffffffffffffff16611ff1565b15611fe4578373ffffffffffffffffffffffffffffffffffffffff1663150b7a02611eb36114f0565b8786866040518563ffffffff1660e01b8152600401611ed594939291906131e6565b6020604051808303816000875af1925050508015611f1157506040513d601f19601f82011682018060405250810190611f0e9190613247565b60015b611f94573d8060008114611f41576040519150601f19603f3d011682016040523d82523d6000602084013e611f46565b606091505b50600081511415611f8c576040517f08c379a0000000000000000000000000000000000000000000000000000000008152600401611f8390613140565b60405180910390fd5b805181602001fd5b63150b7a0260e01b7bffffffffffffffffffffffffffffffffffffffffffffffffffffffff1916817bffffffffffffffffffffffffffffffffffffffffffffffffffffffff191614915050611fe9565b600190505b949350505050565b600080823b905060008111915050919050565b6000604051905090565b600080fd5b600080fd5b60007fffffffff0000000000000000000000000000000000000000000000000000000082169050919050565b61204d81612018565b811461205857600080fd5b50565b60008135905061206a81612044565b92915050565b6000602082840312156120865761208561200e565b5b60006120948482850161205b565b91505092915050565b60008115159050919050565b6120b28161209d565b82525050565b60006020820190506120cd60008301846120a9565b92915050565b6000819050919050565b6120e6816120d3565b81146120f157600080fd5b50565b600081359050612103816120dd565b92915050565b60006020828403121561211f5761211e61200e565b5b600061212d848285016120f4565b91505092915050565b61213f816120d3565b82525050565b600060208201905061215a6000830184612136565b92915050565b600081519050919050565b600082825260208201905092915050565b60005b8381101561219a57808201518184015260208101905061217f565b838111156121a9576000848401525b50505050565b6000601f19601f8301169050919050565b60006121cb82612160565b6121d5818561216b565b93506121e581856020860161217c565b6121ee816121af565b840191505092915050565b6000602082019050818103600083015261221381846121c0565b905092915050565b600073ffffffffffffffffffffffffffffffffffffffff82169050919050565b60006122468261221b565b9050919050565b6122568161223b565b82525050565b6000602082019050612271600083018461224d565b92915050565b6122808161223b565b811461228b57600080fd5b50565b60008135905061229d81612277565b92915050565b600080604083850312156122ba576122b961200e565b5b60006122c88582860161228e565b92505060206122d9858286016120f4565b9150509250929050565b6000602082840312156122f9576122f861200e565b5b60006123078482850161228e565b91505092915050565b6000806000606084860312156123295761232861200e565b5b60006123378682870161228e565b93505060206123488682870161228e565b9250506040612359868287016120f4565b9150509250925092565b6000806040838503121561237a5761237961200e565b5b6000612388858286016120f4565b9250506020612399858286016120f4565b9150509250929050565b60006080820190506123b86000830187612136565b6123c56020830186612136565b6123d26040830185612136565b6123df6060830184612136565b95945050505050565b6123f18161209d565b81146123fc57600080fd5b50565b60008135905061240e816123e8565b92915050565b6000806040838503121561242b5761242a61200e565b5b60006124398582860161228e565b925050602061244a858286016123ff565b9150509250929050565b600080fd5b600080fd5b7f4e487b7100000000000000000000000000000000000000000000000000000000600052604160045260246000fd5b612496826121af565b810181811067ffffffffffffffff821117156124b5576124b461245e565b5b80604052505050565b60006124c8612004565b90506124d4828261248d565b919050565b600067ffffffffffffffff8211156124f4576124f361245e565b5b6124fd826121af565b9050602081019050919050565b82818337600083830152505050565b600061252c612527846124d9565b6124be565b90508281526020810184848401111561254857612547612459565b5b61255384828561250a565b509392505050565b600082601f8301126125705761256f612454565b5b8135612580848260208601612519565b91505092915050565b600080600080608085870312156125a3576125a261200e565b5b60006125b18782880161228e565b94505060206125c28782880161228e565b93505060406125d3878288016120f4565b925050606085013567ffffffffffffffff8111156125f4576125f3612013565b5b6126008782880161255b565b91505092959194509250565b600080604083850312156126235761262261200e565b5b60006126318582860161228e565b92505060206126428582860161228e565b9150509250929050565b7f4e487b7100000000000000000000000000000000000000000000000000000000600052603260045260246000fd5b7f4e487b7100000000000000000000000000000000000000000000000000000000600052601160045260246000fd5b60006126b5826120d3565b91506126c0836120d3565b9250817fffffffffffffffffffffffffffffffffffffffffffffffffffffffffffffffff04831182151516156126f9576126f861267b565b5b828202905092915050565b7f4e487b7100000000000000000000000000000000000000000000000000000000600052602260045260246000fd5b6000600282049050600182168061274b57607f821691505b6020821081141561275f5761275e612704565b5b50919050565b7f4552433732313a20617070726f76656420717565727920666f72206e6f6e657860008201527f697374656e7420746f6b656e0000000000000000000000000000000000000000602082015250565b60006127c1602c8361216b565b91506127cc82612765565b604082019050919050565b600060208201905081810360008301526127f0816127b4565b9050919050565b7f4552433732313a20617070726f76616c20746f2063757272656e74206f776e6560008201527f7200000000000000000000000000000000000000000000000000000000000000602082015250565b600061285360218361216b565b915061285e826127f7565b604082019050919050565b6000602082019050818103600083015261288281612846565b9050919050565b7f4552433732313a20617070726f76652063616c6c6572206973206e6f74206f7760008201527f6e6572206e6f7220617070726f76656420666f7220616c6c0000000000000000602082015250565b60006128e560388361216b565b91506128f082612889565b604082019050919050565b60006020820190508181036000830152612914816128d8565b9050919050565b6000606082019050612930600083018661224d565b61293d602083018561224d565b61294a6040830184612136565b949350505050565b600081519050612961816123e8565b92915050565b60006020828403121561297d5761297c61200e565b5b600061298b84828501612952565b91505092915050565b600061299f826120d3565b91506129aa836120d3565b9250828210156129bd576129bc61267b565b5b828203905092915050565b60006129d3826120d3565b91507fffffffffffffffffffffffffffffffffffffffffffffffffffffffffffffffff821415612a0657612a0561267b565b5b600182019050919050565b7f4552433732313a207472616e736665722063616c6c6572206973206e6f74206f60008201527f776e6572206e6f7220617070726f766564000000000000000000000000000000602082015250565b6000612a6d60318361216b565b9150612a7882612a11565b604082019050919050565b60006020820190508181036000830152612a9c81612a60565b9050919050565b7f4552433732313a206f776e657220717565727920666f72206e6f6e657869737460008201527f656e7420746f6b656e0000000000000000000000000000000000000000000000602082015250565b6000612aff60298361216b565b9150612b0a82612aa3565b604082019050919050565b60006020820190508181036000830152612b2e81612af2565b9050919050565b6000612b40826120d3565b9150612b4b836120d3565b9250827fffffffffffffffffffffffffffffffffffffffffffffffffffffffffffffffff03821115612b8057612b7f61267b565b5b828201905092915050565b6000604082019050612ba06000830185612136565b612bad6020830184612136565b9392505050565b7f4552433732313a2062616c616e636520717565727920666f7220746865207a6560008201527f726f206164647265737300000000000000000000000000000000000000000000602082015250565b6000612c10602a8361216b565b9150612c1b82612bb4565b604082019050919050565b60006020820190508181036000830152612c3f81612c03565b9050919050565b7f4552433732314d657461646174613a2055524920717565727920666f72206e6f60008201527f6e6578697374656e7420746f6b656e0000000000000000000000000000000000602082015250565b6000612ca2602f8361216b565b9150612cad82612c46565b604082019050919050565b60006020820190508181036000830152612cd181612c95565b9050919050565b600081905092915050565b6000612cee82612160565b612cf88185612cd8565b9350612d0881856020860161217c565b80840191505092915050565b6000612d208285612ce3565b9150612d2c8284612ce3565b91508190509392505050565b6000819050919050565b612d53612d4e826120d3565b612d38565b82525050565b6000612d658284612d42565b60208201915081905092915050565b7f4e487b7100000000000000000000000000000000000000000000000000000000600052601260045260246000fd5b6000612dae826120d3565b9150612db9836120d3565b925082612dc957612dc8612d74565b5b828206905092915050565b7f4552433732313a206d696e7420746f20746865207a65726f2061646472657373600082015250565b6000612e0a60208361216b565b9150612e1582612dd4565b602082019050919050565b60006020820190508181036000830152612e3981612dfd565b9050919050565b7f4552433732313a20746f6b656e20616c7265616479206d696e74656400000000600082015250565b6000612e76601c8361216b565b9150612e8182612e40565b602082019050919050565b60006020820190508181036000830152612ea581612e69565b9050919050565b7f4552433732313a206f70657261746f7220717565727920666f72206e6f6e657860008201527f697374656e7420746f6b656e0000000000000000000000000000000000000000602082015250565b6000612f08602c8361216b565b9150612f1382612eac565b604082019050919050565b60006020820190508181036000830152612f3781612efb565b9050919050565b7f4552433732313a207472616e73666572206f6620746f6b656e2074686174206960008201527f73206e6f74206f776e0000000000000000000000000000000000000000000000602082015250565b6000612f9a60298361216b565b9150612fa582612f3e565b604082019050919050565b60006020820190508181036000830152612fc981612f8d565b9050919050565b7f4552433732313a207472616e7366657220746f20746865207a65726f2061646460008201527f7265737300000000000000000000000000000000000000000000000000000000602082015250565b600061302c60248361216b565b915061303782612fd0565b604082019050919050565b6000602082019050818103600083015261305b8161301f565b9050919050565b7f4552433732313a20617070726f766520746f2063616c6c657200000000000000600082015250565b600061309860198361216b565b91506130a382613062565b602082019050919050565b600060208201905081810360008301526130c78161308b565b9050919050565b7f4552433732313a207472616e7366657220746f206e6f6e20455243373231526560008201527f63656976657220696d706c656d656e7465720000000000000000000000000000602082015250565b600061312a60328361216b565b9150613135826130ce565b604082019050919050565b600060208201905081810360008301526131598161311d565b9050919050565b600061316b826120d3565b9150613176836120d3565b92508261318657613185612d74565b5b828204905092915050565b600081519050919050565b600082825260208201905092915050565b60006131b882613191565b6131c2818561319c565b93506131d281856020860161217c565b6131db816121af565b840191505092915050565b60006080820190506131fb600083018761224d565b613208602083018661224d565b6132156040830185612136565b818103606083015261322781846131ad565b905095945050505050565b60008151905061324181612044565b92915050565b60006020828403121561325d5761325c61200e565b5b600061326b84828501613232565b9150509291505056fea2646970667358221220ae77db192de17f1e5b72630f8f8066ba11d41bfe38ce47cf48fc521bb73db6de64736f6c634300080b0033",
  "immutableReferences": {},
  "source": "// SPDX-License-Identifier: UNLICENSED\r\n\r\npragma solidity ^0.8.0;\r\n\r\nimport \"../node_modules/@openzeppelin/contracts/token/ERC721/ERC721.sol\";\r\nimport \"../node_modules/@openzeppelin/contracts/token/ERC20/IERC20.sol\";\r\n\r\ncontract Tree is ERC721 {\r\n    event NewTree(uint treeId);\r\n    event GainExp(uint treeId, uint amount);\r\n    event GainLevel(uint treeId);\r\n\r\n    uint Nonce = 1;\r\n    uint Digits = 16;\r\n    uint Modulus = 10 ** Digits;\r\n    address ContractOwner = 0xf577601a5eF1d5079Da672f01D7aB3b80dD2bd1D;\r\n    \r\n    //Get Token Address after TokenContract deployment\r\n    address Token = 0xCd571eD43B347a4Ab01BAe2d23F9535BBAFe955d;\r\n    \r\n    //QuestContract is updated after deployment\r\n    address QuestContract = address(0);\r\n\r\n    struct TreeStruct {\r\n        uint treeDNA;\r\n        uint level;\r\n        uint exp;\r\n        uint onQuestUntil;\r\n    }\r\n\r\n    TreeStruct[] public trees;\r\n\r\n    constructor() ERC721(\"TREE\", \"Tree\") {\r\n    }\r\n\r\n\r\n    //Modifiers\r\n\r\n    modifier onlyOwnerOf(uint _treeId) {\r\n        require(ownerOf(_treeId) == msg.sender);\r\n        _;\r\n    }\r\n\r\n    modifier onlyOwner() {\r\n        require(ContractOwner == msg.sender);\r\n        _;\r\n    }\r\n\r\n    modifier onlyQuestContract() {\r\n        require(QuestContract == msg.sender);\r\n        _;\r\n    }\r\n\r\n    //View Functions\r\n\r\n    function neededExp(uint treeId) public view returns (uint) {\r\n        return trees[treeId].level*100;\r\n    }\r\n\r\n    function neededAmount(uint treeId) public view returns (uint) {\r\n        return (trees[treeId].level*1)*10**18;\r\n    }\r\n\r\n    function currentPrice() public view returns (uint) {\r\n        return ((trees.length+1)*1)*10**18;\r\n    }\r\n\r\n    function questStatus(uint treeId) public view returns (uint) {\r\n        return trees[treeId].onQuestUntil;\r\n    }\r\n\r\n\r\n    //Payable Functions\r\n\r\n    function updateQuestStatus(uint treeId, uint newValue) public payable onlyQuestContract() {\r\n        trees[treeId].onQuestUntil = newValue;\r\n    }\r\n\r\n    function gainExp(uint treeId, uint amount) public payable onlyQuestContract() {\r\n        //Cambiar a que solo lo pueda hacer el contrato de quests y no el usuario\r\n        trees[treeId].exp = trees[treeId].exp + amount;\r\n        emit GainExp(treeId, amount);\r\n    }\r\n\r\n    function gainLevel(uint treeId) public payable onlyOwnerOf(treeId) {\r\n        uint Exp = neededExp(treeId);\r\n        uint amount = neededAmount(treeId);\r\n        require(trees[treeId].exp >= Exp);\r\n        IERC20(Token).transferFrom(msg.sender, address(this), amount);\r\n        trees[treeId].exp = trees[treeId].exp-Exp;\r\n        trees[treeId].level++;\r\n        emit GainLevel(treeId);\r\n    }\r\n\r\n    function _generateRandomDNA(uint _treeId) internal returns (uint) {\r\n        uint rand = uint(keccak256(abi.encodePacked(_treeId + Nonce)));\r\n        Nonce++;\r\n        return rand % Modulus;\r\n    }\r\n\r\n    function createNewTree() public payable {\r\n        require(msg.sender != address(0) && msg.sender != address(this));\r\n        require(msg.value >= currentPrice());\r\n        uint id = trees.length;\r\n        uint DNA = _generateRandomDNA(id);\r\n        trees.push(TreeStruct(DNA, 1, 0, 0));\r\n        _mint(msg.sender, id);\r\n        emit NewTree(id);\r\n\r\n    }\r\n\r\n    function transferOwnership(address newOwner) public payable onlyOwner() {\r\n        ContractOwner = newOwner;\r\n    }\r\n\r\n    function transferQuestContract(address newQuestContract) public payable onlyOwner() {\r\n        QuestContract = newQuestContract;\r\n    }\r\n\r\n}",
  "sourcePath": "C:\\Users\\jtsch\\OneDrive\\Escritorio\\Python\\SmartContracts-NFT-Agus\\contracts\\Tree.sol",
  "compiler": {
    "name": "solc",
    "version": "0.8.11+commit.d7f03943.Emscripten.clang"
  },
  "schemaVersion": "3.4.3",
  "updatedAt": "2022-01-09T19:35:22.348Z",
  "devdoc": {
    "kind": "dev",
    "methods": {
      "approve(address,uint256)": {
        "details": "See {IERC721-approve}."
      },
      "balanceOf(address)": {
        "details": "See {IERC721-balanceOf}."
      },
      "getApproved(uint256)": {
        "details": "See {IERC721-getApproved}."
      },
      "isApprovedForAll(address,address)": {
        "details": "See {IERC721-isApprovedForAll}."
      },
      "name()": {
        "details": "See {IERC721Metadata-name}."
      },
      "ownerOf(uint256)": {
        "details": "See {IERC721-ownerOf}."
      },
      "safeTransferFrom(address,address,uint256)": {
        "details": "See {IERC721-safeTransferFrom}."
      },
      "safeTransferFrom(address,address,uint256,bytes)": {
        "details": "See {IERC721-safeTransferFrom}."
      },
      "setApprovalForAll(address,bool)": {
        "details": "See {IERC721-setApprovalForAll}."
      },
      "supportsInterface(bytes4)": {
        "details": "See {IERC165-supportsInterface}."
      },
      "symbol()": {
        "details": "See {IERC721Metadata-symbol}."
      },
      "tokenURI(uint256)": {
        "details": "See {IERC721Metadata-tokenURI}."
      },
      "transferFrom(address,address,uint256)": {
        "details": "See {IERC721-transferFrom}."
      }
    },
    "version": 1
  },
  "userdoc": {
    "kind": "user",
    "methods": {},
    "version": 1
  }
}