{
  "contractName": "TreeUpg",
  "abi": [
    {
      "anonymous": false,
      "inputs": [
        {
          "indexed": true,
          "internalType": "bytes32",
          "name": "role",
          "type": "bytes32"
        },
        {
          "indexed": true,
          "internalType": "bytes32",
          "name": "previousAdminRole",
          "type": "bytes32"
        },
        {
          "indexed": true,
          "internalType": "bytes32",
          "name": "newAdminRole",
          "type": "bytes32"
        }
      ],
      "name": "RoleAdminChanged",
      "type": "event"
    },
    {
      "anonymous": false,
      "inputs": [
        {
          "indexed": true,
          "internalType": "bytes32",
          "name": "role",
          "type": "bytes32"
        },
        {
          "indexed": true,
          "internalType": "address",
          "name": "account",
          "type": "address"
        },
        {
          "indexed": true,
          "internalType": "address",
          "name": "sender",
          "type": "address"
        }
      ],
      "name": "RoleGranted",
      "type": "event"
    },
    {
      "anonymous": false,
      "inputs": [
        {
          "indexed": true,
          "internalType": "bytes32",
          "name": "role",
          "type": "bytes32"
        },
        {
          "indexed": true,
          "internalType": "address",
          "name": "account",
          "type": "address"
        },
        {
          "indexed": true,
          "internalType": "address",
          "name": "sender",
          "type": "address"
        }
      ],
      "name": "RoleRevoked",
      "type": "event"
    },
    {
      "inputs": [],
      "name": "DEFAULT_ADMIN_ROLE",
      "outputs": [
        {
          "internalType": "bytes32",
          "name": "",
          "type": "bytes32"
        }
      ],
      "stateMutability": "view",
      "type": "function"
    },
    {
      "inputs": [
        {
          "internalType": "bytes32",
          "name": "role",
          "type": "bytes32"
        }
      ],
      "name": "getRoleAdmin",
      "outputs": [
        {
          "internalType": "bytes32",
          "name": "",
          "type": "bytes32"
        }
      ],
      "stateMutability": "view",
      "type": "function"
    },
    {
      "inputs": [
        {
          "internalType": "bytes32",
          "name": "role",
          "type": "bytes32"
        },
        {
          "internalType": "address",
          "name": "account",
          "type": "address"
        }
      ],
      "name": "grantRole",
      "outputs": [],
      "stateMutability": "nonpayable",
      "type": "function"
    },
    {
      "inputs": [
        {
          "internalType": "bytes32",
          "name": "role",
          "type": "bytes32"
        },
        {
          "internalType": "address",
          "name": "account",
          "type": "address"
        }
      ],
      "name": "hasRole",
      "outputs": [
        {
          "internalType": "bool",
          "name": "",
          "type": "bool"
        }
      ],
      "stateMutability": "view",
      "type": "function"
    },
    {
      "inputs": [
        {
          "internalType": "bytes32",
          "name": "role",
          "type": "bytes32"
        },
        {
          "internalType": "address",
          "name": "account",
          "type": "address"
        }
      ],
      "name": "renounceRole",
      "outputs": [],
      "stateMutability": "nonpayable",
      "type": "function"
    },
    {
      "inputs": [
        {
          "internalType": "bytes32",
          "name": "role",
          "type": "bytes32"
        },
        {
          "internalType": "address",
          "name": "account",
          "type": "address"
        }
      ],
      "name": "revokeRole",
      "outputs": [],
      "stateMutability": "nonpayable",
      "type": "function"
    },
    {
      "inputs": [
        {
          "internalType": "bytes4",
          "name": "interfaceId",
          "type": "bytes4"
        }
      ],
      "name": "supportsInterface",
      "outputs": [
        {
          "internalType": "bool",
          "name": "",
          "type": "bool"
        }
      ],
      "stateMutability": "view",
      "type": "function"
    },
    {
      "inputs": [],
      "name": "initialize",
      "outputs": [],
      "stateMutability": "nonpayable",
      "type": "function"
    },
    {
      "inputs": [
        {
          "internalType": "uint256",
          "name": "treeId",
          "type": "uint256"
        }
      ],
      "name": "upgradeLevel",
      "outputs": [],
      "stateMutability": "payable",
      "type": "function"
    },
    {
      "inputs": [
        {
          "internalType": "uint256",
          "name": "treeId",
          "type": "uint256"
        },
        {
          "internalType": "uint256",
          "name": "statId",
          "type": "uint256"
        }
      ],
      "name": "upgradeStat",
      "outputs": [],
      "stateMutability": "payable",
      "type": "function"
    },
    {
      "inputs": [
        {
          "internalType": "address",
          "name": "newGameItems",
          "type": "address"
        }
      ],
      "name": "transferGameItemsAddress",
      "outputs": [],
      "stateMutability": "nonpayable",
      "type": "function"
    },
    {
      "inputs": [
        {
          "internalType": "address",
          "name": "newTree",
          "type": "address"
        }
      ],
      "name": "transferTreeAddress",
      "outputs": [],
      "stateMutability": "nonpayable",
      "type": "function"
    }
  ],
  "bytecode": "0x608060405234801561001057600080fd5b506123f2806100206000396000f3fe6080604052600436106100a75760003560e01c80634a6ed813116100645780634a6ed813146101bd5780638129fc1c146101e657806391d14854146101fd578063a217fddf1461023a578063d547741f14610265578063e39f82eb1461028e576100a7565b806301ffc9a7146100ac57806316f6bca9146100e9578063248a9ca3146101125780632a0ca35f1461014f5780632f2ff15d1461016b57806336568abe14610194575b600080fd5b3480156100b857600080fd5b506100d360048036038101906100ce91906119a9565b6102aa565b6040516100e091906119f1565b60405180910390f35b3480156100f557600080fd5b50610110600480360381019061010b9190611a6a565b610324565b005b34801561011e57600080fd5b5061013960048036038101906101349190611acd565b6103e1565b6040516101469190611b09565b60405180910390f35b61016960048036038101906101649190611b5a565b610401565b005b34801561017757600080fd5b50610192600480360381019061018d9190611b9a565b610bd6565b005b3480156101a057600080fd5b506101bb60048036038101906101b69190611b9a565b610bff565b005b3480156101c957600080fd5b506101e460048036038101906101df9190611a6a565b610c82565b005b3480156101f257600080fd5b506101fb610d3f565b005b34801561020957600080fd5b50610224600480360381019061021f9190611b9a565b610e30565b60405161023191906119f1565b60405180910390f35b34801561024657600080fd5b5061024f610e9b565b60405161025c9190611b09565b60405180910390f35b34801561027157600080fd5b5061028c60048036038101906102879190611b9a565b610ea2565b005b6102a860048036038101906102a39190611bda565b610ecb565b005b60007f7965db0b000000000000000000000000000000000000000000000000000000007bffffffffffffffffffffffffffffffffffffffffffffffffffffffff1916827bffffffffffffffffffffffffffffffffffffffffffffffffffffffff1916148061031d575061031c826112d1565b5b9050919050565b6000801b6103398161033461133b565b611343565b81609860006101000a81548173ffffffffffffffffffffffffffffffffffffffff021916908373ffffffffffffffffffffffffffffffffffffffff160217905550609860009054906101000a900473ffffffffffffffffffffffffffffffffffffffff16609a60006101000a81548173ffffffffffffffffffffffffffffffffffffffff021916908373ffffffffffffffffffffffffffffffffffffffff1602179055505050565b600060656000838152602001908152602001600020600101549050919050565b813373ffffffffffffffffffffffffffffffffffffffff16609960009054906101000a900473ffffffffffffffffffffffffffffffffffffffff1673ffffffffffffffffffffffffffffffffffffffff16636352211e836040518263ffffffff1660e01b81526004016104749190611c16565b602060405180830381865afa158015610491573d6000803e3d6000fd5b505050506040513d601f19601f820116820180604052508101906104b59190611c46565b73ffffffffffffffffffffffffffffffffffffffff16146104d557600080fd5b60008083141561058257609960009054906101000a900473ffffffffffffffffffffffffffffffffffffffff1673ffffffffffffffffffffffffffffffffffffffff16637b5aa51d856040518263ffffffff1660e01b815260040161053a9190611c16565b602060405180830381865afa158015610557573d6000803e3d6000fd5b505050506040513d601f19601f8201168201806040525081019061057b9190611c88565b905061062b565b600183141561062a57609960009054906101000a900473ffffffffffffffffffffffffffffffffffffffff1673ffffffffffffffffffffffffffffffffffffffff1663364051a6856040518263ffffffff1660e01b81526004016105e69190611c16565b602060405180830381865afa158015610603573d6000803e3d6000fd5b505050506040513d601f19601f820116820180604052508101906106279190611c88565b90505b5b80609960009054906101000a900473ffffffffffffffffffffffffffffffffffffffff1673ffffffffffffffffffffffffffffffffffffffff16638bbfcac3866040518263ffffffff1660e01b81526004016106879190611c16565b602060405180830381865afa1580156106a4573d6000803e3d6000fd5b505050506040513d601f19601f820116820180604052508101906106c89190611c88565b116106d257600080fd5b806015116106df57600080fd5b6000609960009054906101000a900473ffffffffffffffffffffffffffffffffffffffff1673ffffffffffffffffffffffffffffffffffffffff1663b906866a866040518263ffffffff1660e01b815260040161073c9190611c16565b602060405180830381865afa158015610759573d6000803e3d6000fd5b505050506040513d601f19601f8201168201806040525081019061077d9190611c88565b1461078757600080fd5b600681101561079f5761079a84846113e0565b610bd0565b600b8110156109055760006005826107b79190611ce4565b905080609a60009054906101000a900473ffffffffffffffffffffffffffffffffffffffff1673ffffffffffffffffffffffffffffffffffffffff1662fdd58e3360006040518363ffffffff1660e01b8152600401610817929190611d6c565b602060405180830381865afa158015610834573d6000803e3d6000fd5b505050506040513d601f19601f820116820180604052508101906108589190611c88565b101561086357600080fd5b609a60009054906101000a900473ffffffffffffffffffffffffffffffffffffffff1673ffffffffffffffffffffffffffffffffffffffff1663f5298aca336000846040518463ffffffff1660e01b81526004016108c393929190611d95565b600060405180830381600087803b1580156108dd57600080fd5b505af11580156108f1573d6000803e3d6000fd5b505050506108ff85856113e0565b50610bcf565b6010811015610a6b576000600a8261091d9190611ce4565b905080609a60009054906101000a900473ffffffffffffffffffffffffffffffffffffffff1673ffffffffffffffffffffffffffffffffffffffff1662fdd58e3360016040518363ffffffff1660e01b815260040161097d929190611e07565b602060405180830381865afa15801561099a573d6000803e3d6000fd5b505050506040513d601f19601f820116820180604052508101906109be9190611c88565b10156109c957600080fd5b609a60009054906101000a900473ffffffffffffffffffffffffffffffffffffffff1673ffffffffffffffffffffffffffffffffffffffff1663f5298aca336001846040518463ffffffff1660e01b8152600401610a2993929190611e30565b600060405180830381600087803b158015610a4357600080fd5b505af1158015610a57573d6000803e3d6000fd5b50505050610a6585856113e0565b50610bce565b6015811015610bcd576000600f82610a839190611ce4565b905080609a60009054906101000a900473ffffffffffffffffffffffffffffffffffffffff1673ffffffffffffffffffffffffffffffffffffffff1662fdd58e3360026040518363ffffffff1660e01b8152600401610ae3929190611ea2565b602060405180830381865afa158015610b00573d6000803e3d6000fd5b505050506040513d601f19601f82011682018060405250810190610b249190611c88565b1015610b2f57600080fd5b609a60009054906101000a900473ffffffffffffffffffffffffffffffffffffffff1673ffffffffffffffffffffffffffffffffffffffff1663f5298aca336002846040518463ffffffff1660e01b8152600401610b8f93929190611ecb565b600060405180830381600087803b158015610ba957600080fd5b505af1158015610bbd573d6000803e3d6000fd5b50505050610bcb85856113e0565b505b5b5b5b50505050565b610bdf826103e1565b610bf081610beb61133b565b611343565b610bfa838361151b565b505050565b610c0761133b565b73ffffffffffffffffffffffffffffffffffffffff168173ffffffffffffffffffffffffffffffffffffffff1614610c74576040517f08c379a0000000000000000000000000000000000000000000000000000000008152600401610c6b90611f85565b60405180910390fd5b610c7e82826115fc565b5050565b6000801b610c9781610c9261133b565b611343565b81609760006101000a81548173ffffffffffffffffffffffffffffffffffffffff021916908373ffffffffffffffffffffffffffffffffffffffff160217905550609760009054906101000a900473ffffffffffffffffffffffffffffffffffffffff16609960006101000a81548173ffffffffffffffffffffffffffffffffffffffff021916908373ffffffffffffffffffffffffffffffffffffffff1602179055505050565b600060019054906101000a900460ff16610d675760008054906101000a900460ff1615610d70565b610d6f6116de565b5b610daf576040517f08c379a0000000000000000000000000000000000000000000000000000000008152600401610da690612017565b60405180910390fd5b60008060019054906101000a900460ff161590508015610dff576001600060016101000a81548160ff02191690831515021790555060016000806101000a81548160ff0219169083151502179055505b610e0c6000801b336116ef565b8015610e2d5760008060016101000a81548160ff0219169083151502179055505b50565b60006065600084815260200190815260200160002060000160008373ffffffffffffffffffffffffffffffffffffffff1673ffffffffffffffffffffffffffffffffffffffff16815260200190815260200160002060009054906101000a900460ff16905092915050565b6000801b81565b610eab826103e1565b610ebc81610eb761133b565b611343565b610ec683836115fc565b505050565b803373ffffffffffffffffffffffffffffffffffffffff16609960009054906101000a900473ffffffffffffffffffffffffffffffffffffffff1673ffffffffffffffffffffffffffffffffffffffff16636352211e836040518263ffffffff1660e01b8152600401610f3e9190611c16565b602060405180830381865afa158015610f5b573d6000803e3d6000fd5b505050506040513d601f19601f82011682018060405250810190610f7f9190611c46565b73ffffffffffffffffffffffffffffffffffffffff1614610f9f57600080fd5b6064609960009054906101000a900473ffffffffffffffffffffffffffffffffffffffff1673ffffffffffffffffffffffffffffffffffffffff16638bbfcac3846040518263ffffffff1660e01b8152600401610ffc9190611c16565b602060405180830381865afa158015611019573d6000803e3d6000fd5b505050506040513d601f19601f8201168201806040525081019061103d9190611c88565b1061104757600080fd5b6064609960009054906101000a900473ffffffffffffffffffffffffffffffffffffffff1673ffffffffffffffffffffffffffffffffffffffff16638bbfcac3846040518263ffffffff1660e01b81526004016110a49190611c16565b602060405180830381865afa1580156110c1573d6000803e3d6000fd5b505050506040513d601f19601f820116820180604052508101906110e59190611c88565b6110ef9190612037565b609960009054906101000a900473ffffffffffffffffffffffffffffffffffffffff1673ffffffffffffffffffffffffffffffffffffffff16635fa461fc846040518263ffffffff1660e01b815260040161114a9190611c16565b602060405180830381865afa158015611167573d6000803e3d6000fd5b505050506040513d601f19601f8201168201806040525081019061118b9190611c88565b101561119657600080fd5b6000609960009054906101000a900473ffffffffffffffffffffffffffffffffffffffff1673ffffffffffffffffffffffffffffffffffffffff1663b906866a846040518263ffffffff1660e01b81526004016111f39190611c16565b602060405180830381865afa158015611210573d6000803e3d6000fd5b505050506040513d601f19601f820116820180604052508101906112349190611c88565b1461123e57600080fd5b609960009054906101000a900473ffffffffffffffffffffffffffffffffffffffff1673ffffffffffffffffffffffffffffffffffffffff16639dcb26e683336040518363ffffffff1660e01b815260040161129b929190612091565b600060405180830381600087803b1580156112b557600080fd5b505af11580156112c9573d6000803e3d6000fd5b505050505050565b60007f01ffc9a7000000000000000000000000000000000000000000000000000000007bffffffffffffffffffffffffffffffffffffffffffffffffffffffff1916827bffffffffffffffffffffffffffffffffffffffffffffffffffffffff1916149050919050565b600033905090565b61134d8282610e30565b6113dc576113728173ffffffffffffffffffffffffffffffffffffffff1660146116fd565b6113808360001c60206116fd565b6040516020016113919291906121cc565b6040516020818303038152906040526040517f08c379a00000000000000000000000000000000000000000000000000000000081526004016113d39190612250565b60405180910390fd5b5050565b600081141561147d57609960009054906101000a900473ffffffffffffffffffffffffffffffffffffffff1673ffffffffffffffffffffffffffffffffffffffff16632cb98b6583336040518363ffffffff1660e01b8152600401611446929190612091565b600060405180830381600087803b15801561146057600080fd5b505af1158015611474573d6000803e3d6000fd5b50505050611517565b600181141561151657609960009054906101000a900473ffffffffffffffffffffffffffffffffffffffff1673ffffffffffffffffffffffffffffffffffffffff1663862314c283336040518363ffffffff1660e01b81526004016114e3929190612091565b600060405180830381600087803b1580156114fd57600080fd5b505af1158015611511573d6000803e3d6000fd5b505050505b5b5050565b6115258282610e30565b6115f85760016065600084815260200190815260200160002060000160008373ffffffffffffffffffffffffffffffffffffffff1673ffffffffffffffffffffffffffffffffffffffff16815260200190815260200160002060006101000a81548160ff02191690831515021790555061159d61133b565b73ffffffffffffffffffffffffffffffffffffffff168173ffffffffffffffffffffffffffffffffffffffff16837f2f8788117e7eff1d82e926ec794901d17c78024a50270940304540a733656f0d60405160405180910390a45b5050565b6116068282610e30565b156116da5760006065600084815260200190815260200160002060000160008373ffffffffffffffffffffffffffffffffffffffff1673ffffffffffffffffffffffffffffffffffffffff16815260200190815260200160002060006101000a81548160ff02191690831515021790555061167f61133b565b73ffffffffffffffffffffffffffffffffffffffff168173ffffffffffffffffffffffffffffffffffffffff16837ff6391f5c32d9c69d2a47ea670b442974b53935d1edc7fd64eb21e047a839171b60405160405180910390a45b5050565b60006116e930611939565b15905090565b6116f9828261151b565b5050565b6060600060028360026117109190612037565b61171a9190612272565b67ffffffffffffffff811115611733576117326122c8565b5b6040519080825280601f01601f1916602001820160405280156117655781602001600182028036833780820191505090505b5090507f30000000000000000000000000000000000000000000000000000000000000008160008151811061179d5761179c6122f7565b5b60200101907effffffffffffffffffffffffffffffffffffffffffffffffffffffffffffff1916908160001a9053507f780000000000000000000000000000000000000000000000000000000000000081600181518110611801576118006122f7565b5b60200101907effffffffffffffffffffffffffffffffffffffffffffffffffffffffffffff1916908160001a905350600060018460026118419190612037565b61184b9190612272565b90505b60018111156118eb577f3031323334353637383961626364656600000000000000000000000000000000600f86166010811061188d5761188c6122f7565b5b1a60f81b8282815181106118a4576118a36122f7565b5b60200101907effffffffffffffffffffffffffffffffffffffffffffffffffffffffffffff1916908160001a905350600485901c9450806118e490612326565b905061184e565b506000841461192f576040517f08c379a00000000000000000000000000000000000000000000000000000000081526004016119269061239c565b60405180910390fd5b8091505092915050565b600080823b905060008111915050919050565b600080fd5b60007fffffffff0000000000000000000000000000000000000000000000000000000082169050919050565b61198681611951565b811461199157600080fd5b50565b6000813590506119a38161197d565b92915050565b6000602082840312156119bf576119be61194c565b5b60006119cd84828501611994565b91505092915050565b60008115159050919050565b6119eb816119d6565b82525050565b6000602082019050611a0660008301846119e2565b92915050565b600073ffffffffffffffffffffffffffffffffffffffff82169050919050565b6000611a3782611a0c565b9050919050565b611a4781611a2c565b8114611a5257600080fd5b50565b600081359050611a6481611a3e565b92915050565b600060208284031215611a8057611a7f61194c565b5b6000611a8e84828501611a55565b91505092915050565b6000819050919050565b611aaa81611a97565b8114611ab557600080fd5b50565b600081359050611ac781611aa1565b92915050565b600060208284031215611ae357611ae261194c565b5b6000611af184828501611ab8565b91505092915050565b611b0381611a97565b82525050565b6000602082019050611b1e6000830184611afa565b92915050565b6000819050919050565b611b3781611b24565b8114611b4257600080fd5b50565b600081359050611b5481611b2e565b92915050565b60008060408385031215611b7157611b7061194c565b5b6000611b7f85828601611b45565b9250506020611b9085828601611b45565b9150509250929050565b60008060408385031215611bb157611bb061194c565b5b6000611bbf85828601611ab8565b9250506020611bd085828601611a55565b9150509250929050565b600060208284031215611bf057611bef61194c565b5b6000611bfe84828501611b45565b91505092915050565b611c1081611b24565b82525050565b6000602082019050611c2b6000830184611c07565b92915050565b600081519050611c4081611a3e565b92915050565b600060208284031215611c5c57611c5b61194c565b5b6000611c6a84828501611c31565b91505092915050565b600081519050611c8281611b2e565b92915050565b600060208284031215611c9e57611c9d61194c565b5b6000611cac84828501611c73565b91505092915050565b7f4e487b7100000000000000000000000000000000000000000000000000000000600052601160045260246000fd5b6000611cef82611b24565b9150611cfa83611b24565b925082821015611d0d57611d0c611cb5565b5b828203905092915050565b611d2181611a2c565b82525050565b6000819050919050565b6000819050919050565b6000611d56611d51611d4c84611d27565b611d31565b611b24565b9050919050565b611d6681611d3b565b82525050565b6000604082019050611d816000830185611d18565b611d8e6020830184611d5d565b9392505050565b6000606082019050611daa6000830186611d18565b611db76020830185611d5d565b611dc46040830184611c07565b949350505050565b6000819050919050565b6000611df1611dec611de784611dcc565b611d31565b611b24565b9050919050565b611e0181611dd6565b82525050565b6000604082019050611e1c6000830185611d18565b611e296020830184611df8565b9392505050565b6000606082019050611e456000830186611d18565b611e526020830185611df8565b611e5f6040830184611c07565b949350505050565b6000819050919050565b6000611e8c611e87611e8284611e67565b611d31565b611b24565b9050919050565b611e9c81611e71565b82525050565b6000604082019050611eb76000830185611d18565b611ec46020830184611e93565b9392505050565b6000606082019050611ee06000830186611d18565b611eed6020830185611e93565b611efa6040830184611c07565b949350505050565b600082825260208201905092915050565b7f416363657373436f6e74726f6c3a2063616e206f6e6c792072656e6f756e636560008201527f20726f6c657320666f722073656c660000000000000000000000000000000000602082015250565b6000611f6f602f83611f02565b9150611f7a82611f13565b604082019050919050565b60006020820190508181036000830152611f9e81611f62565b9050919050565b7f496e697469616c697a61626c653a20636f6e747261637420697320616c72656160008201527f647920696e697469616c697a6564000000000000000000000000000000000000602082015250565b6000612001602e83611f02565b915061200c82611fa5565b604082019050919050565b6000602082019050818103600083015261203081611ff4565b9050919050565b600061204282611b24565b915061204d83611b24565b9250817fffffffffffffffffffffffffffffffffffffffffffffffffffffffffffffffff048311821515161561208657612085611cb5565b5b828202905092915050565b60006040820190506120a66000830185611c07565b6120b36020830184611d18565b9392505050565b600081905092915050565b7f416363657373436f6e74726f6c3a206163636f756e7420000000000000000000600082015250565b60006120fb6017836120ba565b9150612106826120c5565b601782019050919050565b600081519050919050565b60005b8381101561213a57808201518184015260208101905061211f565b83811115612149576000848401525b50505050565b600061215a82612111565b61216481856120ba565b935061217481856020860161211c565b80840191505092915050565b7f206973206d697373696e6720726f6c6520000000000000000000000000000000600082015250565b60006121b66011836120ba565b91506121c182612180565b601182019050919050565b60006121d7826120ee565b91506121e3828561214f565b91506121ee826121a9565b91506121fa828461214f565b91508190509392505050565b6000601f19601f8301169050919050565b600061222282612111565b61222c8185611f02565b935061223c81856020860161211c565b61224581612206565b840191505092915050565b6000602082019050818103600083015261226a8184612217565b905092915050565b600061227d82611b24565b915061228883611b24565b9250827fffffffffffffffffffffffffffffffffffffffffffffffffffffffffffffffff038211156122bd576122bc611cb5565b5b828201905092915050565b7f4e487b7100000000000000000000000000000000000000000000000000000000600052604160045260246000fd5b7f4e487b7100000000000000000000000000000000000000000000000000000000600052603260045260246000fd5b600061233182611b24565b9150600082141561234557612344611cb5565b5b600182039050919050565b7f537472696e67733a20686578206c656e67746820696e73756666696369656e74600082015250565b6000612386602083611f02565b915061239182612350565b602082019050919050565b600060208201905081810360008301526123b581612379565b905091905056fea2646970667358221220ad69c2a10c8c3b5df455ccc64e51103f27b2a3d8d60dea80d46472f6e10cd90664736f6c634300080c0033",
  "immutableReferences": {},
  "source": "// SPDX-License-Identifier: UNLICENSED\r\n\r\npragma solidity ^0.8.3;\r\n\r\nimport \"./AbstractTree.sol\";\r\nimport \"./AbstractGameItems.sol\";\r\nimport \"../node_modules/@openzeppelin/contracts-upgradeable/access/AccessControlUpgradeable.sol\";\r\nimport \"../node_modules/@openzeppelin/contracts-upgradeable/proxy/utils/Initializable.sol\";\r\n\r\ncontract TreeUpg is Initializable, AccessControlUpgradeable {\r\n\r\n    address TreeAddress;\r\n    address GameItemsAddress;\r\n\r\n    AbstractTree tree;\r\n    AbstractGameItems gameItems;\r\n\r\n    modifier onlyOwnerOf(uint _treeId) {\r\n        require(tree.ownerOf(_treeId) == msg.sender);\r\n        _;\r\n    }\r\n\r\n    function initialize() initializer public {\r\n        _setupRole(DEFAULT_ADMIN_ROLE, msg.sender);\r\n    }\r\n\r\n    function upgradeLevel(uint treeId) public payable onlyOwnerOf(treeId) {\r\n        require(tree.treeLevel(treeId) < 100 );\r\n        require(tree.treeExp(treeId) >= tree.treeLevel(treeId)*100);\r\n        require(tree.currentAction(treeId) == 0);\r\n        tree.gainLevel(treeId, msg.sender);\r\n    }\r\n\r\n    function lvlUpStat(uint treeId, uint statId) internal {\r\n        if (statId == 0) {\r\n            tree.levelUpRoots(treeId, msg.sender);\r\n        } else if (statId == 1) {\r\n            tree.levelUpBranches(treeId, msg.sender);\r\n        }\r\n    }\r\n\r\n    function upgradeStat(uint treeId, uint statId) public payable onlyOwnerOf(treeId) {\r\n        uint stat;\r\n        if (statId == 0) {\r\n            stat = tree.treeRoots(treeId);\r\n        } else if (statId == 1) {\r\n            stat = tree.treeBranches(treeId);\r\n        }\r\n\r\n        require(tree.treeLevel(treeId) > stat);\r\n        require(21 > stat);\r\n        require(tree.currentAction(treeId) == 0);\r\n        \r\n        if (stat < 6) {\r\n            lvlUpStat(treeId, statId);\r\n        } else if (stat < 11) {\r\n            uint BasicRuneAmount = stat-5;\r\n            require(gameItems.balanceOf(msg.sender, 0) >= BasicRuneAmount);\r\n            gameItems.burn(msg.sender, 0, BasicRuneAmount);\r\n            lvlUpStat(treeId, statId);\r\n        } else if (stat < 16) {\r\n            uint IntricateRuneAmount = stat-10;\r\n            require(gameItems.balanceOf(msg.sender, 1) >= IntricateRuneAmount);\r\n            gameItems.burn(msg.sender, 1, IntricateRuneAmount);\r\n            lvlUpStat(treeId, statId);\r\n        } else if (stat < 21) {\r\n            uint PowerfullRuneAmount = stat-15;\r\n            require(gameItems.balanceOf(msg.sender, 2) >= PowerfullRuneAmount);\r\n            gameItems.burn(msg.sender, 2, PowerfullRuneAmount);\r\n            lvlUpStat(treeId, statId);\r\n        }\r\n    }\r\n\r\n    function transferGameItemsAddress(address newGameItems) public onlyRole(DEFAULT_ADMIN_ROLE) {\r\n        GameItemsAddress = newGameItems;\r\n        gameItems = AbstractGameItems(GameItemsAddress);\r\n    }\r\n\r\n    function transferTreeAddress(address newTree) public onlyRole(DEFAULT_ADMIN_ROLE) {\r\n        TreeAddress = newTree;\r\n        tree = AbstractTree(TreeAddress);\r\n    }\r\n}",
  "sourcePath": "C:\\Users\\jtsch\\OneDrive\\Escritorio\\Python\\SmartContracts-NFT-Agus\\contracts\\TreeUpg.sol",
  "compiler": {
    "name": "solc",
    "version": "0.8.12+commit.f00d7308.Emscripten.clang"
  },
  "schemaVersion": "3.4.3",
  "updatedAt": "2022-02-22T16:33:11.429Z",
  "devdoc": {
    "kind": "dev",
    "methods": {
      "getRoleAdmin(bytes32)": {
        "details": "Returns the admin role that controls `role`. See {grantRole} and {revokeRole}. To change a role's admin, use {_setRoleAdmin}."
      },
      "grantRole(bytes32,address)": {
        "details": "Grants `role` to `account`. If `account` had not been already granted `role`, emits a {RoleGranted} event. Requirements: - the caller must have ``role``'s admin role."
      },
      "hasRole(bytes32,address)": {
        "details": "Returns `true` if `account` has been granted `role`."
      },
      "renounceRole(bytes32,address)": {
        "details": "Revokes `role` from the calling account. Roles are often managed via {grantRole} and {revokeRole}: this function's purpose is to provide a mechanism for accounts to lose their privileges if they are compromised (such as when a trusted device is misplaced). If the calling account had been revoked `role`, emits a {RoleRevoked} event. Requirements: - the caller must be `account`."
      },
      "revokeRole(bytes32,address)": {
        "details": "Revokes `role` from `account`. If `account` had been granted `role`, emits a {RoleRevoked} event. Requirements: - the caller must have ``role``'s admin role."
      },
      "supportsInterface(bytes4)": {
        "details": "See {IERC165-supportsInterface}."
      }
    },
    "version": 1
  },
  "userdoc": {
    "kind": "user",
    "methods": {},
    "version": 1
  }
}