{
  "contractName": "Tree",
  "abi": [
    {
      "anonymous": false,
      "inputs": [
        {
          "indexed": true,
          "internalType": "address",
          "name": "owner",
          "type": "address"
        },
        {
          "indexed": true,
          "internalType": "address",
          "name": "approved",
          "type": "address"
        },
        {
          "indexed": true,
          "internalType": "uint256",
          "name": "tokenId",
          "type": "uint256"
        }
      ],
      "name": "Approval",
      "type": "event"
    },
    {
      "anonymous": false,
      "inputs": [
        {
          "indexed": true,
          "internalType": "address",
          "name": "owner",
          "type": "address"
        },
        {
          "indexed": true,
          "internalType": "address",
          "name": "operator",
          "type": "address"
        },
        {
          "indexed": false,
          "internalType": "bool",
          "name": "approved",
          "type": "bool"
        }
      ],
      "name": "ApprovalForAll",
      "type": "event"
    },
    {
      "anonymous": false,
      "inputs": [
        {
          "indexed": false,
          "internalType": "uint256",
          "name": "treeId",
          "type": "uint256"
        },
        {
          "indexed": false,
          "internalType": "uint256",
          "name": "amount",
          "type": "uint256"
        }
      ],
      "name": "GainExp",
      "type": "event"
    },
    {
      "anonymous": false,
      "inputs": [
        {
          "indexed": false,
          "internalType": "uint256",
          "name": "treeId",
          "type": "uint256"
        }
      ],
      "name": "GainLevel",
      "type": "event"
    },
    {
      "anonymous": false,
      "inputs": [
        {
          "indexed": false,
          "internalType": "uint256",
          "name": "treeId",
          "type": "uint256"
        }
      ],
      "name": "NewTree",
      "type": "event"
    },
    {
      "anonymous": false,
      "inputs": [
        {
          "indexed": true,
          "internalType": "bytes32",
          "name": "role",
          "type": "bytes32"
        },
        {
          "indexed": true,
          "internalType": "bytes32",
          "name": "previousAdminRole",
          "type": "bytes32"
        },
        {
          "indexed": true,
          "internalType": "bytes32",
          "name": "newAdminRole",
          "type": "bytes32"
        }
      ],
      "name": "RoleAdminChanged",
      "type": "event"
    },
    {
      "anonymous": false,
      "inputs": [
        {
          "indexed": true,
          "internalType": "bytes32",
          "name": "role",
          "type": "bytes32"
        },
        {
          "indexed": true,
          "internalType": "address",
          "name": "account",
          "type": "address"
        },
        {
          "indexed": true,
          "internalType": "address",
          "name": "sender",
          "type": "address"
        }
      ],
      "name": "RoleGranted",
      "type": "event"
    },
    {
      "anonymous": false,
      "inputs": [
        {
          "indexed": true,
          "internalType": "bytes32",
          "name": "role",
          "type": "bytes32"
        },
        {
          "indexed": true,
          "internalType": "address",
          "name": "account",
          "type": "address"
        },
        {
          "indexed": true,
          "internalType": "address",
          "name": "sender",
          "type": "address"
        }
      ],
      "name": "RoleRevoked",
      "type": "event"
    },
    {
      "anonymous": false,
      "inputs": [
        {
          "indexed": false,
          "internalType": "uint256",
          "name": "treeId",
          "type": "uint256"
        },
        {
          "indexed": false,
          "internalType": "uint256",
          "name": "statId",
          "type": "uint256"
        }
      ],
      "name": "StatLevelUp",
      "type": "event"
    },
    {
      "anonymous": false,
      "inputs": [
        {
          "indexed": true,
          "internalType": "address",
          "name": "from",
          "type": "address"
        },
        {
          "indexed": true,
          "internalType": "address",
          "name": "to",
          "type": "address"
        },
        {
          "indexed": true,
          "internalType": "uint256",
          "name": "tokenId",
          "type": "uint256"
        }
      ],
      "name": "Transfer",
      "type": "event"
    },
    {
      "inputs": [],
      "name": "DEFAULT_ADMIN_ROLE",
      "outputs": [
        {
          "internalType": "bytes32",
          "name": "",
          "type": "bytes32"
        }
      ],
      "stateMutability": "view",
      "type": "function"
    },
    {
      "inputs": [],
      "name": "QUEST_ROLE",
      "outputs": [
        {
          "internalType": "bytes32",
          "name": "",
          "type": "bytes32"
        }
      ],
      "stateMutability": "view",
      "type": "function"
    },
    {
      "inputs": [],
      "name": "UPG_ROLE",
      "outputs": [
        {
          "internalType": "bytes32",
          "name": "",
          "type": "bytes32"
        }
      ],
      "stateMutability": "view",
      "type": "function"
    },
    {
      "inputs": [
        {
          "internalType": "address",
          "name": "to",
          "type": "address"
        },
        {
          "internalType": "uint256",
          "name": "tokenId",
          "type": "uint256"
        }
      ],
      "name": "approve",
      "outputs": [],
      "stateMutability": "nonpayable",
      "type": "function"
    },
    {
      "inputs": [
        {
          "internalType": "address",
          "name": "owner",
          "type": "address"
        }
      ],
      "name": "balanceOf",
      "outputs": [
        {
          "internalType": "uint256",
          "name": "",
          "type": "uint256"
        }
      ],
      "stateMutability": "view",
      "type": "function"
    },
    {
      "inputs": [
        {
          "internalType": "uint256",
          "name": "tokenId",
          "type": "uint256"
        }
      ],
      "name": "getApproved",
      "outputs": [
        {
          "internalType": "address",
          "name": "",
          "type": "address"
        }
      ],
      "stateMutability": "view",
      "type": "function"
    },
    {
      "inputs": [
        {
          "internalType": "bytes32",
          "name": "role",
          "type": "bytes32"
        }
      ],
      "name": "getRoleAdmin",
      "outputs": [
        {
          "internalType": "bytes32",
          "name": "",
          "type": "bytes32"
        }
      ],
      "stateMutability": "view",
      "type": "function"
    },
    {
      "inputs": [
        {
          "internalType": "bytes32",
          "name": "role",
          "type": "bytes32"
        },
        {
          "internalType": "address",
          "name": "account",
          "type": "address"
        }
      ],
      "name": "grantRole",
      "outputs": [],
      "stateMutability": "nonpayable",
      "type": "function"
    },
    {
      "inputs": [
        {
          "internalType": "bytes32",
          "name": "role",
          "type": "bytes32"
        },
        {
          "internalType": "address",
          "name": "account",
          "type": "address"
        }
      ],
      "name": "hasRole",
      "outputs": [
        {
          "internalType": "bool",
          "name": "",
          "type": "bool"
        }
      ],
      "stateMutability": "view",
      "type": "function"
    },
    {
      "inputs": [
        {
          "internalType": "address",
          "name": "owner",
          "type": "address"
        },
        {
          "internalType": "address",
          "name": "operator",
          "type": "address"
        }
      ],
      "name": "isApprovedForAll",
      "outputs": [
        {
          "internalType": "bool",
          "name": "",
          "type": "bool"
        }
      ],
      "stateMutability": "view",
      "type": "function"
    },
    {
      "inputs": [],
      "name": "name",
      "outputs": [
        {
          "internalType": "string",
          "name": "",
          "type": "string"
        }
      ],
      "stateMutability": "view",
      "type": "function"
    },
    {
      "inputs": [
        {
          "internalType": "uint256",
          "name": "tokenId",
          "type": "uint256"
        }
      ],
      "name": "ownerOf",
      "outputs": [
        {
          "internalType": "address",
          "name": "",
          "type": "address"
        }
      ],
      "stateMutability": "view",
      "type": "function"
    },
    {
      "inputs": [
        {
          "internalType": "bytes32",
          "name": "role",
          "type": "bytes32"
        },
        {
          "internalType": "address",
          "name": "account",
          "type": "address"
        }
      ],
      "name": "renounceRole",
      "outputs": [],
      "stateMutability": "nonpayable",
      "type": "function"
    },
    {
      "inputs": [
        {
          "internalType": "bytes32",
          "name": "role",
          "type": "bytes32"
        },
        {
          "internalType": "address",
          "name": "account",
          "type": "address"
        }
      ],
      "name": "revokeRole",
      "outputs": [],
      "stateMutability": "nonpayable",
      "type": "function"
    },
    {
      "inputs": [
        {
          "internalType": "address",
          "name": "from",
          "type": "address"
        },
        {
          "internalType": "address",
          "name": "to",
          "type": "address"
        },
        {
          "internalType": "uint256",
          "name": "tokenId",
          "type": "uint256"
        }
      ],
      "name": "safeTransferFrom",
      "outputs": [],
      "stateMutability": "nonpayable",
      "type": "function"
    },
    {
      "inputs": [
        {
          "internalType": "address",
          "name": "from",
          "type": "address"
        },
        {
          "internalType": "address",
          "name": "to",
          "type": "address"
        },
        {
          "internalType": "uint256",
          "name": "tokenId",
          "type": "uint256"
        },
        {
          "internalType": "bytes",
          "name": "_data",
          "type": "bytes"
        }
      ],
      "name": "safeTransferFrom",
      "outputs": [],
      "stateMutability": "nonpayable",
      "type": "function"
    },
    {
      "inputs": [
        {
          "internalType": "address",
          "name": "operator",
          "type": "address"
        },
        {
          "internalType": "bool",
          "name": "approved",
          "type": "bool"
        }
      ],
      "name": "setApprovalForAll",
      "outputs": [],
      "stateMutability": "nonpayable",
      "type": "function"
    },
    {
      "inputs": [],
      "name": "symbol",
      "outputs": [
        {
          "internalType": "string",
          "name": "",
          "type": "string"
        }
      ],
      "stateMutability": "view",
      "type": "function"
    },
    {
      "inputs": [
        {
          "internalType": "uint256",
          "name": "tokenId",
          "type": "uint256"
        }
      ],
      "name": "tokenURI",
      "outputs": [
        {
          "internalType": "string",
          "name": "",
          "type": "string"
        }
      ],
      "stateMutability": "view",
      "type": "function"
    },
    {
      "inputs": [
        {
          "internalType": "address",
          "name": "from",
          "type": "address"
        },
        {
          "internalType": "address",
          "name": "to",
          "type": "address"
        },
        {
          "internalType": "uint256",
          "name": "tokenId",
          "type": "uint256"
        }
      ],
      "name": "transferFrom",
      "outputs": [],
      "stateMutability": "nonpayable",
      "type": "function"
    },
    {
      "inputs": [
        {
          "internalType": "bytes4",
          "name": "interfaceId",
          "type": "bytes4"
        }
      ],
      "name": "supportsInterface",
      "outputs": [
        {
          "internalType": "bool",
          "name": "",
          "type": "bool"
        }
      ],
      "stateMutability": "view",
      "type": "function"
    },
    {
      "inputs": [],
      "name": "initialize",
      "outputs": [],
      "stateMutability": "nonpayable",
      "type": "function"
    },
    {
      "inputs": [],
      "name": "vrf",
      "outputs": [
        {
          "internalType": "bytes32",
          "name": "result",
          "type": "bytes32"
        }
      ],
      "stateMutability": "view",
      "type": "function"
    },
    {
      "inputs": [
        {
          "internalType": "uint256",
          "name": "treeId",
          "type": "uint256"
        }
      ],
      "name": "getTree",
      "outputs": [
        {
          "internalType": "uint256",
          "name": "",
          "type": "uint256"
        },
        {
          "internalType": "uint256",
          "name": "",
          "type": "uint256"
        },
        {
          "internalType": "uint256",
          "name": "",
          "type": "uint256"
        },
        {
          "internalType": "uint256",
          "name": "",
          "type": "uint256"
        },
        {
          "internalType": "uint256",
          "name": "",
          "type": "uint256"
        },
        {
          "internalType": "uint256",
          "name": "",
          "type": "uint256"
        },
        {
          "internalType": "uint256",
          "name": "",
          "type": "uint256"
        }
      ],
      "stateMutability": "view",
      "type": "function"
    },
    {
      "inputs": [],
      "name": "currentPrice",
      "outputs": [
        {
          "internalType": "uint256",
          "name": "",
          "type": "uint256"
        }
      ],
      "stateMutability": "view",
      "type": "function"
    },
    {
      "inputs": [],
      "name": "getTreeQuantities",
      "outputs": [
        {
          "internalType": "uint256",
          "name": "",
          "type": "uint256"
        }
      ],
      "stateMutability": "view",
      "type": "function"
    },
    {
      "inputs": [
        {
          "internalType": "uint256",
          "name": "treeId",
          "type": "uint256"
        },
        {
          "internalType": "address",
          "name": "user",
          "type": "address"
        }
      ],
      "name": "gainLevel",
      "outputs": [],
      "stateMutability": "nonpayable",
      "type": "function"
    },
    {
      "inputs": [
        {
          "internalType": "uint256",
          "name": "treeId",
          "type": "uint256"
        },
        {
          "internalType": "uint256",
          "name": "amount",
          "type": "uint256"
        }
      ],
      "name": "gainExp",
      "outputs": [],
      "stateMutability": "nonpayable",
      "type": "function"
    },
    {
      "inputs": [
        {
          "internalType": "uint256",
          "name": "treeId",
          "type": "uint256"
        },
        {
          "internalType": "address",
          "name": "user",
          "type": "address"
        }
      ],
      "name": "levelUpBranches",
      "outputs": [],
      "stateMutability": "nonpayable",
      "type": "function"
    },
    {
      "inputs": [
        {
          "internalType": "uint256",
          "name": "treeId",
          "type": "uint256"
        },
        {
          "internalType": "address",
          "name": "user",
          "type": "address"
        }
      ],
      "name": "levelUpRoots",
      "outputs": [],
      "stateMutability": "nonpayable",
      "type": "function"
    },
    {
      "inputs": [
        {
          "internalType": "uint256",
          "name": "treeId",
          "type": "uint256"
        },
        {
          "internalType": "uint256",
          "name": "action",
          "type": "uint256"
        },
        {
          "internalType": "uint256",
          "name": "time",
          "type": "uint256"
        }
      ],
      "name": "updateAction",
      "outputs": [],
      "stateMutability": "nonpayable",
      "type": "function"
    },
    {
      "inputs": [],
      "name": "createNewTree",
      "outputs": [],
      "stateMutability": "payable",
      "type": "function"
    },
    {
      "inputs": [
        {
          "internalType": "address payable",
          "name": "newDevelopment",
          "type": "address"
        }
      ],
      "name": "transferDevelopmentAddress",
      "outputs": [],
      "stateMutability": "nonpayable",
      "type": "function"
    },
    {
      "inputs": [
        {
          "internalType": "address payable",
          "name": "newTreasury",
          "type": "address"
        }
      ],
      "name": "transferTreasuryAddress",
      "outputs": [],
      "stateMutability": "nonpayable",
      "type": "function"
    },
    {
      "inputs": [
        {
          "internalType": "address",
          "name": "newToken",
          "type": "address"
        }
      ],
      "name": "transferTokenAddress",
      "outputs": [],
      "stateMutability": "nonpayable",
      "type": "function"
    }
  ],
  "bytecode": "0x608060405234801561001057600080fd5b5061523d806100206000396000f3fe6080604052600436106102035760003560e01c80634ed4d42a116101185780639dcb26e6116100a0578063b88d4fde1161006f578063b88d4fde1461072d578063c87b56dd14610756578063d547741f14610793578063d56e2101146107bc578063e985e9c5146107ff57610203565b80639dcb26e614610685578063a217fddf146106ae578063a22cb465146106d9578063b3c7663c1461070257610203565b80638129fc1c116100e75780638129fc1c146105b2578063862314c2146105c957806391d14854146105f257806395d89b411461062f5780639d1b464a1461065a57610203565b80634ed4d42a146104e65780636352211e1461050f5780636cad69321461054c57806370a082311461057557610203565b80631af92ed31161019b5780632cb98b651161016a5780632cb98b65146104175780632f2ff15d1461044057806336568abe1461046957806342842e0e146104925780634479d6e4146104bb57610203565b80631af92ed31461035f57806323b872dd14610388578063248a9ca3146103b15780632b60b986146103ee57610203565b8063095ea7b3116101d7578063095ea7b3146102d8578063098d7500146103015780630c9490431461032a57806310d1eb2a1461035557610203565b8062e23cfc1461020857806301ffc9a71461023357806306fdde0314610270578063081812fc1461029b575b600080fd5b34801561021457600080fd5b5061021d61083c565b60405161022a91906137b6565b60405180910390f35b34801561023f57600080fd5b5061025a6004803603810190610255919061383d565b610860565b6040516102679190613885565b60405180910390f35b34801561027c57600080fd5b50610285610872565b6040516102929190613939565b60405180910390f35b3480156102a757600080fd5b506102c260048036038101906102bd9190613991565b610904565b6040516102cf91906139ff565b60405180910390f35b3480156102e457600080fd5b506102ff60048036038101906102fa9190613a46565b610989565b005b34801561030d57600080fd5b5061032860048036038101906103239190613ac4565b610aa1565b005b34801561033657600080fd5b5061033f610afb565b60405161034c91906137b6565b60405180910390f35b61035d610b41565b005b34801561036b57600080fd5b5061038660048036038101906103819190613ac4565b610ccd565b005b34801561039457600080fd5b506103af60048036038101906103aa9190613af1565b610d27565b005b3480156103bd57600080fd5b506103d860048036038101906103d39190613b70565b610d87565b6040516103e591906137b6565b60405180910390f35b3480156103fa57600080fd5b5061041560048036038101906104109190613b9d565b610da7565b005b34801561042357600080fd5b5061043e60048036038101906104399190613bf0565b610e15565b005b34801561044c57600080fd5b5061046760048036038101906104629190613c30565b611143565b005b34801561047557600080fd5b50610490600480360381019061048b9190613c30565b61116c565b005b34801561049e57600080fd5b506104b960048036038101906104b49190613af1565b6111ef565b005b3480156104c757600080fd5b506104d061120f565b6040516104dd9190613c7f565b60405180910390f35b3480156104f257600080fd5b5061050d60048036038101906105089190613c9a565b611220565b005b34801561051b57600080fd5b5061053660048036038101906105319190613991565b61127a565b60405161054391906139ff565b60405180910390f35b34801561055857600080fd5b50610573600480360381019061056e9190613cc7565b61132c565b005b34801561058157600080fd5b5061059c60048036038101906105979190613c9a565b6113d8565b6040516105a99190613c7f565b60405180910390f35b3480156105be57600080fd5b506105c7611490565b005b3480156105d557600080fd5b506105f060048036038101906105eb9190613bf0565b6116bc565b005b3480156105fe57600080fd5b5061061960048036038101906106149190613c30565b6119ea565b6040516106269190613885565b60405180910390f35b34801561063b57600080fd5b50610644611a55565b6040516106519190613939565b60405180910390f35b34801561066657600080fd5b5061066f611ae7565b60405161067c9190613c7f565b60405180910390f35b34801561069157600080fd5b506106ac60048036038101906106a79190613bf0565b611b59565b005b3480156106ba57600080fd5b506106c3611ee2565b6040516106d091906137b6565b60405180910390f35b3480156106e557600080fd5b5061070060048036038101906106fb9190613d33565b611ee9565b005b34801561070e57600080fd5b50610717611eff565b60405161072491906137b6565b60405180910390f35b34801561073957600080fd5b50610754600480360381019061074f9190613ea8565b611f23565b005b34801561076257600080fd5b5061077d60048036038101906107789190613991565b611f85565b60405161078a9190613939565b60405180910390f35b34801561079f57600080fd5b506107ba60048036038101906107b59190613c30565b61202c565b005b3480156107c857600080fd5b506107e360048036038101906107de9190613991565b612055565b6040516107f69796959493929190613f2b565b60405180910390f35b34801561080b57600080fd5b5061082660048036038101906108219190613f9a565b612104565b6040516108339190613885565b60405180910390f35b7f19ac353dd86d6954025a359137447e1fda8f14ba7ba6373372af73b706fa3b2281565b600061086b82612198565b9050919050565b60606065805461088190614009565b80601f01602080910402602001604051908101604052809291908181526020018280546108ad90614009565b80156108fa5780601f106108cf576101008083540402835291602001916108fa565b820191906000526020600020905b8154815290600101906020018083116108dd57829003601f168201915b5050505050905090565b600061090f82612212565b61094e576040517f08c379a0000000000000000000000000000000000000000000000000000000008152600401610945906140ad565b60405180910390fd5b6069600083815260200190815260200160002060009054906101000a900473ffffffffffffffffffffffffffffffffffffffff169050919050565b60006109948261127a565b90508073ffffffffffffffffffffffffffffffffffffffff168373ffffffffffffffffffffffffffffffffffffffff161415610a05576040517f08c379a00000000000000000000000000000000000000000000000000000000081526004016109fc9061413f565b60405180910390fd5b8073ffffffffffffffffffffffffffffffffffffffff16610a2461227e565b73ffffffffffffffffffffffffffffffffffffffff161480610a535750610a5281610a4d61227e565b612104565b5b610a92576040517f08c379a0000000000000000000000000000000000000000000000000000000008152600401610a89906141d1565b60405180910390fd5b610a9c8383612286565b505050565b6000801b610ab681610ab161227e565b61233f565b8160cc60006101000a81548173ffffffffffffffffffffffffffffffffffffffff021916908373ffffffffffffffffffffffffffffffffffffffff1602179055505050565b6000610b056136d8565b4381600060018110610b1a57610b196141f1565b5b60200201818152505060405160208160208460ff600019fa610b3857fe5b80519250505090565b600073ffffffffffffffffffffffffffffffffffffffff163373ffffffffffffffffffffffffffffffffffffffff1614158015610baa57503073ffffffffffffffffffffffffffffffffffffffff163373ffffffffffffffffffffffffffffffffffffffff1614155b610bb357600080fd5b610bbb611ae7565b3414610bc657600080fd5b6000610bd06123dc565b90506000610bde60cf612426565b9050610bea60cf612434565b6040518060e001604052808381526020016001815260200160008152602001600181526020016001815260200160008152602001600081525060ce6000838152602001908152602001600020600082015181600001556020820151816001015560408201518160020155606082015181600301556080820151816004015560a0820151816005015560c08201518160060155905050610c89338261244a565b610c9281612618565b7f5aa7f45898fcb5638757632f4ea98818ccb1f1b865b0721648cfb14cfcd2da9a81604051610cc19190613c7f565b60405180910390a15050565b6000801b610ce281610cdd61227e565b61233f565b8160cb60006101000a81548173ffffffffffffffffffffffffffffffffffffffff021916908373ffffffffffffffffffffffffffffffffffffffff1602179055505050565b610d38610d3261227e565b826127c3565b610d77576040517f08c379a0000000000000000000000000000000000000000000000000000000008152600401610d6e90614292565b60405180910390fd5b610d828383836128a1565b505050565b600060976000838152602001908152602001600020600101549050919050565b7f19ac353dd86d6954025a359137447e1fda8f14ba7ba6373372af73b706fa3b22610dd981610dd461227e565b61233f565b8160ce6000868152602001908152602001600020600601819055508260ce60008681526020019081526020016000206005018190555050505050565b7f8b83cff217526f65affab658236a6c4f2d8020cd01ccd4c27987c26870279b14610e4781610e4261227e565b61233f565b6000670de0b6b3a764000060ce600086815260200190815260200160002060030154610e7391906142e1565b90508060cd60009054906101000a900473ffffffffffffffffffffffffffffffffffffffff1673ffffffffffffffffffffffffffffffffffffffff166370a08231856040518263ffffffff1660e01b8152600401610ed191906139ff565b602060405180830381865afa158015610eee573d6000803e3d6000fd5b505050506040513d601f19601f82011682018060405250810190610f129190614350565b1015610f1d57600080fd5b60cd60009054906101000a900473ffffffffffffffffffffffffffffffffffffffff1673ffffffffffffffffffffffffffffffffffffffff166323b872dd8460cc60009054906101000a900473ffffffffffffffffffffffffffffffffffffffff166064606086610f8e91906142e1565b610f9891906143ac565b6040518463ffffffff1660e01b8152600401610fb69392919061443c565b6020604051808303816000875af1158015610fd5573d6000803e3d6000fd5b505050506040513d601f19601f82011682018060405250810190610ff99190614488565b5060cd60009054906101000a900473ffffffffffffffffffffffffffffffffffffffff1673ffffffffffffffffffffffffffffffffffffffff166323b872dd8460cb60009054906101000a900473ffffffffffffffffffffffffffffffffffffffff16606460048661106b91906142e1565b61107591906143ac565b6040518463ffffffff1660e01b81526004016110939392919061443c565b6020604051808303816000875af11580156110b2573d6000803e3d6000fd5b505050506040513d601f19601f820116820180604052508101906110d69190614488565b5060ce600085815260200190815260200160002060030160008154809291906110fe906144b5565b91905055507f20c31955b530563483aba79e1a051106dcb9ee48b987bfa568ef479e011c1a6c846001604051611135929190614539565b60405180910390a150505050565b61114c82610d87565b61115d8161115861227e565b61233f565b6111678383612afd565b505050565b61117461227e565b73ffffffffffffffffffffffffffffffffffffffff168173ffffffffffffffffffffffffffffffffffffffff16146111e1576040517f08c379a00000000000000000000000000000000000000000000000000000000081526004016111d8906145d4565b60405180910390fd5b6111eb8282612bde565b5050565b61120a83838360405180602001604052806000815250611f23565b505050565b600061121b60cf612426565b905090565b6000801b6112358161123061227e565b61233f565b8160cd60006101000a81548173ffffffffffffffffffffffffffffffffffffffff021916908373ffffffffffffffffffffffffffffffffffffffff1602179055505050565b6000806067600084815260200190815260200160002060009054906101000a900473ffffffffffffffffffffffffffffffffffffffff169050600073ffffffffffffffffffffffffffffffffffffffff168173ffffffffffffffffffffffffffffffffffffffff161415611323576040517f08c379a000000000000000000000000000000000000000000000000000000000815260040161131a90614666565b60405180910390fd5b80915050919050565b7f19ac353dd86d6954025a359137447e1fda8f14ba7ba6373372af73b706fa3b2261135e8161135961227e565b61233f565b8160ce6000858152602001908152602001600020600201546113809190614686565b60ce6000858152602001908152602001600020600201819055507ffa65d54a674245861f726a6e25ffd7e32b5f7e7a6a62bd81b222ad6f53643d2883836040516113cb9291906146dc565b60405180910390a1505050565b60008073ffffffffffffffffffffffffffffffffffffffff168273ffffffffffffffffffffffffffffffffffffffff161415611449576040517f08c379a000000000000000000000000000000000000000000000000000000000815260040161144090614777565b60405180910390fd5b606860008373ffffffffffffffffffffffffffffffffffffffff1673ffffffffffffffffffffffffffffffffffffffff168152602001908152602001600020549050919050565b600060019054906101000a900460ff166114b85760008054906101000a900460ff16156114c1565b6114c0612cc0565b5b611500576040517f08c379a00000000000000000000000000000000000000000000000000000000081526004016114f790614809565b60405180910390fd5b60008060019054906101000a900460ff161590508015611550576001600060016101000a81548160ff02191690831515021790555060016000806101000a81548160ff0219169083151502179055505b601060c98190555060c954600a611567919061495c565b60ca81905550737c50d01c7ba0ede836bda6dac88a952f325756e360cb60006101000a81548173ffffffffffffffffffffffffffffffffffffffff021916908373ffffffffffffffffffffffffffffffffffffffff16021790555073a691623968855b91a066661b0552a7d3764c9a6460cc60006101000a81548173ffffffffffffffffffffffffffffffffffffffff021916908373ffffffffffffffffffffffffffffffffffffffff1602179055506116246000801b33612cd1565b6116986040518060400160405280600e81526020017f50617461676f6e696320547265650000000000000000000000000000000000008152506040518060400160405280600581526020017f5054524545000000000000000000000000000000000000000000000000000000815250612cdf565b80156116b95760008060016101000a81548160ff0219169083151502179055505b50565b7f8b83cff217526f65affab658236a6c4f2d8020cd01ccd4c27987c26870279b146116ee816116e961227e565b61233f565b6000670de0b6b3a764000060ce60008681526020019081526020016000206004015461171a91906142e1565b90508060cd60009054906101000a900473ffffffffffffffffffffffffffffffffffffffff1673ffffffffffffffffffffffffffffffffffffffff166370a08231856040518263ffffffff1660e01b815260040161177891906139ff565b602060405180830381865afa158015611795573d6000803e3d6000fd5b505050506040513d601f19601f820116820180604052508101906117b99190614350565b10156117c457600080fd5b60cd60009054906101000a900473ffffffffffffffffffffffffffffffffffffffff1673ffffffffffffffffffffffffffffffffffffffff166323b872dd8460cc60009054906101000a900473ffffffffffffffffffffffffffffffffffffffff16606460608661183591906142e1565b61183f91906143ac565b6040518463ffffffff1660e01b815260040161185d9392919061443c565b6020604051808303816000875af115801561187c573d6000803e3d6000fd5b505050506040513d601f19601f820116820180604052508101906118a09190614488565b5060cd60009054906101000a900473ffffffffffffffffffffffffffffffffffffffff1673ffffffffffffffffffffffffffffffffffffffff166323b872dd8460cb60009054906101000a900473ffffffffffffffffffffffffffffffffffffffff16606460048661191291906142e1565b61191c91906143ac565b6040518463ffffffff1660e01b815260040161193a9392919061443c565b6020604051808303816000875af1158015611959573d6000803e3d6000fd5b505050506040513d601f19601f8201168201806040525081019061197d9190614488565b5060ce600085815260200190815260200160002060040160008154809291906119a5906144b5565b91905055507f20c31955b530563483aba79e1a051106dcb9ee48b987bfa568ef479e011c1a6c8460006040516119dc9291906149e2565b60405180910390a150505050565b60006097600084815260200190815260200160002060000160008373ffffffffffffffffffffffffffffffffffffffff1673ffffffffffffffffffffffffffffffffffffffff16815260200190815260200160002060009054906101000a900460ff16905092915050565b606060668054611a6490614009565b80601f0160208091040260200160405190810160405280929190818152602001828054611a9090614009565b8015611add5780601f10611ab257610100808354040283529160200191611add565b820191906000526020600020905b815481529060010190602001808311611ac057829003601f168201915b5050505050905090565b600080600190506000600190506000600590506000670de0b6b3a76400008383611b1160cf612426565b611b1b91906143ac565b611b2591906142e1565b611b2f91906142e1565b670de0b6b3a764000085611b4391906142e1565b611b4d9190614686565b90508094505050505090565b7f8b83cff217526f65affab658236a6c4f2d8020cd01ccd4c27987c26870279b14611b8b81611b8661227e565b61233f565b6000670de0b6b3a764000060ce600086815260200190815260200160002060010154611bb791906142e1565b90508060cd60009054906101000a900473ffffffffffffffffffffffffffffffffffffffff1673ffffffffffffffffffffffffffffffffffffffff166370a08231856040518263ffffffff1660e01b8152600401611c1591906139ff565b602060405180830381865afa158015611c32573d6000803e3d6000fd5b505050506040513d601f19601f82011682018060405250810190611c569190614350565b1015611c6157600080fd5b60cd60009054906101000a900473ffffffffffffffffffffffffffffffffffffffff1673ffffffffffffffffffffffffffffffffffffffff166323b872dd8460cc60009054906101000a900473ffffffffffffffffffffffffffffffffffffffff166064606086611cd291906142e1565b611cdc91906143ac565b6040518463ffffffff1660e01b8152600401611cfa9392919061443c565b6020604051808303816000875af1158015611d19573d6000803e3d6000fd5b505050506040513d601f19601f82011682018060405250810190611d3d9190614488565b5060cd60009054906101000a900473ffffffffffffffffffffffffffffffffffffffff1673ffffffffffffffffffffffffffffffffffffffff166323b872dd8460cb60009054906101000a900473ffffffffffffffffffffffffffffffffffffffff166064600486611daf91906142e1565b611db991906143ac565b6040518463ffffffff1660e01b8152600401611dd79392919061443c565b6020604051808303816000875af1158015611df6573d6000803e3d6000fd5b505050506040513d601f19601f82011682018060405250810190611e1a9190614488565b50606460ce600086815260200190815260200160002060010154611e3e91906142e1565b60ce600086815260200190815260200160002060020154611e5f9190614a0b565b60ce60008681526020019081526020016000206002018190555060ce60008581526020019081526020016000206001016000815480929190611ea0906144b5565b91905055507f7ef1df0b6d95a41d9ebcaa695746726b382e110036a9127b009babdb11c656a284604051611ed49190613c7f565b60405180910390a150505050565b6000801b81565b611efb611ef461227e565b8383612d4c565b5050565b7f8b83cff217526f65affab658236a6c4f2d8020cd01ccd4c27987c26870279b1481565b611f34611f2e61227e565b836127c3565b611f73576040517f08c379a0000000000000000000000000000000000000000000000000000000008152600401611f6a90614292565b60405180910390fd5b611f7f84848484612eb9565b50505050565b6060611f9082612212565b611fcf576040517f08c379a0000000000000000000000000000000000000000000000000000000008152600401611fc690614ab1565b60405180910390fd5b6000611fd9612f15565b90506000815111611ff95760405180602001604052806000815250612024565b8061200384612f2c565b604051602001612014929190614b0d565b6040516020818303038152906040525b915050919050565b61203582610d87565b6120468161204161227e565b61233f565b6120508383612bde565b505050565b60008060008060008060008060ce60008a81526020019081526020016000206040518060e00160405290816000820154815260200160018201548152602001600282015481526020016003820154815260200160048201548152602001600582015481526020016006820154815250509050806000015181602001518260400151836060015184608001518560a001518660c00151975097509750975097509750975050919395979092949650565b6000606a60008473ffffffffffffffffffffffffffffffffffffffff1673ffffffffffffffffffffffffffffffffffffffff16815260200190815260200160002060008373ffffffffffffffffffffffffffffffffffffffff1673ffffffffffffffffffffffffffffffffffffffff16815260200190815260200160002060009054906101000a900460ff16905092915050565b60007f7965db0b000000000000000000000000000000000000000000000000000000007bffffffffffffffffffffffffffffffffffffffffffffffffffffffff1916827bffffffffffffffffffffffffffffffffffffffffffffffffffffffff1916148061220b575061220a8261308d565b5b9050919050565b60008073ffffffffffffffffffffffffffffffffffffffff166067600084815260200190815260200160002060009054906101000a900473ffffffffffffffffffffffffffffffffffffffff1673ffffffffffffffffffffffffffffffffffffffff1614159050919050565b600033905090565b816069600083815260200190815260200160002060006101000a81548173ffffffffffffffffffffffffffffffffffffffff021916908373ffffffffffffffffffffffffffffffffffffffff160217905550808273ffffffffffffffffffffffffffffffffffffffff166122f98361127a565b73ffffffffffffffffffffffffffffffffffffffff167f8c5be1e5ebec7d5bd14f71427d1e84f3dd0314c0f7b2291e5b200ac8c7c3b92560405160405180910390a45050565b61234982826119ea565b6123d85761236e8173ffffffffffffffffffffffffffffffffffffffff16601461316f565b61237c8360001c602061316f565b60405160200161238d929190614bc9565b6040516020818303038152906040526040517f08c379a00000000000000000000000000000000000000000000000000000000081526004016123cf9190613939565b60405180910390fd5b5050565b6000806123e7610afb565b6040516020016123f79190614c24565b6040516020818303038152906040528051906020012060001c905060ca54816124209190614c3f565b91505090565b600081600001549050919050565b6001816000016000828254019250508190555050565b600073ffffffffffffffffffffffffffffffffffffffff168273ffffffffffffffffffffffffffffffffffffffff1614156124ba576040517f08c379a00000000000000000000000000000000000000000000000000000000081526004016124b190614cbc565b60405180910390fd5b6124c381612212565b15612503576040517f08c379a00000000000000000000000000000000000000000000000000000000081526004016124fa90614d28565b60405180910390fd5b61250f600083836133ab565b6001606860008473ffffffffffffffffffffffffffffffffffffffff1673ffffffffffffffffffffffffffffffffffffffff168152602001908152602001600020600082825461255f9190614686565b92505081905550816067600083815260200190815260200160002060006101000a81548173ffffffffffffffffffffffffffffffffffffffff021916908373ffffffffffffffffffffffffffffffffffffffff160217905550808273ffffffffffffffffffffffffffffffffffffffff16600073ffffffffffffffffffffffffffffffffffffffff167fddf252ad1be2c89b69c2b068fc378daa952ba7f163c4a11628f55a4df523b3ef60405160405180910390a45050565b6107d081101561273f5760cc60009054906101000a900473ffffffffffffffffffffffffffffffffffffffff1673ffffffffffffffffffffffffffffffffffffffff166108fc60023073ffffffffffffffffffffffffffffffffffffffff163161268291906143ac565b9081150290604051600060405180830381858888f193505050501580156126ad573d6000803e3d6000fd5b5060cb60009054906101000a900473ffffffffffffffffffffffffffffffffffffffff1673ffffffffffffffffffffffffffffffffffffffff166108fc60023073ffffffffffffffffffffffffffffffffffffffff163161270e91906143ac565b9081150290604051600060405180830381858888f19350505050158015612739573d6000803e3d6000fd5b506127c0565b60cc60009054906101000a900473ffffffffffffffffffffffffffffffffffffffff1673ffffffffffffffffffffffffffffffffffffffff166108fc3073ffffffffffffffffffffffffffffffffffffffff16319081150290604051600060405180830381858888f193505050501580156127be573d6000803e3d6000fd5b505b50565b60006127ce82612212565b61280d576040517f08c379a000000000000000000000000000000000000000000000000000000000815260040161280490614dba565b60405180910390fd5b60006128188361127a565b90508073ffffffffffffffffffffffffffffffffffffffff168473ffffffffffffffffffffffffffffffffffffffff16148061288757508373ffffffffffffffffffffffffffffffffffffffff1661286f84610904565b73ffffffffffffffffffffffffffffffffffffffff16145b8061289857506128978185612104565b5b91505092915050565b8273ffffffffffffffffffffffffffffffffffffffff166128c18261127a565b73ffffffffffffffffffffffffffffffffffffffff1614612917576040517f08c379a000000000000000000000000000000000000000000000000000000000815260040161290e90614e4c565b60405180910390fd5b600073ffffffffffffffffffffffffffffffffffffffff168273ffffffffffffffffffffffffffffffffffffffff161415612987576040517f08c379a000000000000000000000000000000000000000000000000000000000815260040161297e90614ede565b60405180910390fd5b6129928383836133ab565b61299d600082612286565b6001606860008573ffffffffffffffffffffffffffffffffffffffff1673ffffffffffffffffffffffffffffffffffffffff16815260200190815260200160002060008282546129ed9190614a0b565b925050819055506001606860008473ffffffffffffffffffffffffffffffffffffffff1673ffffffffffffffffffffffffffffffffffffffff1681526020019081526020016000206000828254612a449190614686565b92505081905550816067600083815260200190815260200160002060006101000a81548173ffffffffffffffffffffffffffffffffffffffff021916908373ffffffffffffffffffffffffffffffffffffffff160217905550808273ffffffffffffffffffffffffffffffffffffffff168473ffffffffffffffffffffffffffffffffffffffff167fddf252ad1be2c89b69c2b068fc378daa952ba7f163c4a11628f55a4df523b3ef60405160405180910390a4505050565b612b0782826119ea565b612bda5760016097600084815260200190815260200160002060000160008373ffffffffffffffffffffffffffffffffffffffff1673ffffffffffffffffffffffffffffffffffffffff16815260200190815260200160002060006101000a81548160ff021916908315150217905550612b7f61227e565b73ffffffffffffffffffffffffffffffffffffffff168173ffffffffffffffffffffffffffffffffffffffff16837f2f8788117e7eff1d82e926ec794901d17c78024a50270940304540a733656f0d60405160405180910390a45b5050565b612be882826119ea565b15612cbc5760006097600084815260200190815260200160002060000160008373ffffffffffffffffffffffffffffffffffffffff1673ffffffffffffffffffffffffffffffffffffffff16815260200190815260200160002060006101000a81548160ff021916908315150217905550612c6161227e565b73ffffffffffffffffffffffffffffffffffffffff168173ffffffffffffffffffffffffffffffffffffffff16837ff6391f5c32d9c69d2a47ea670b442974b53935d1edc7fd64eb21e047a839171b60405160405180910390a45b5050565b6000612ccb306133b0565b15905090565b612cdb8282612afd565b5050565b600060019054906101000a900460ff16612d2e576040517f08c379a0000000000000000000000000000000000000000000000000000000008152600401612d2590614f70565b60405180910390fd5b612d366133c3565b612d3e613414565b612d488282613465565b5050565b8173ffffffffffffffffffffffffffffffffffffffff168373ffffffffffffffffffffffffffffffffffffffff161415612dbb576040517f08c379a0000000000000000000000000000000000000000000000000000000008152600401612db290614fdc565b60405180910390fd5b80606a60008573ffffffffffffffffffffffffffffffffffffffff1673ffffffffffffffffffffffffffffffffffffffff16815260200190815260200160002060008473ffffffffffffffffffffffffffffffffffffffff1673ffffffffffffffffffffffffffffffffffffffff16815260200190815260200160002060006101000a81548160ff0219169083151502179055508173ffffffffffffffffffffffffffffffffffffffff168373ffffffffffffffffffffffffffffffffffffffff167f17307eab39ab6107e8899845ad3d59bd9653f200f220920489ca2b5937696c3183604051612eac9190613885565b60405180910390a3505050565b612ec48484846128a1565b612ed0848484846134e6565b612f0f576040517f08c379a0000000000000000000000000000000000000000000000000000000008152600401612f069061506e565b60405180910390fd5b50505050565b606060405180602001604052806000815250905090565b60606000821415612f74576040518060400160405280600181526020017f30000000000000000000000000000000000000000000000000000000000000008152509050613088565b600082905060005b60008214612fa6578080612f8f906144b5565b915050600a82612f9f91906143ac565b9150612f7c565b60008167ffffffffffffffff811115612fc257612fc1613d7d565b5b6040519080825280601f01601f191660200182016040528015612ff45781602001600182028036833780820191505090505b5090505b600085146130815760018261300d9190614a0b565b9150600a8561301c9190614c3f565b60306130289190614686565b60f81b81838151811061303e5761303d6141f1565b5b60200101907effffffffffffffffffffffffffffffffffffffffffffffffffffffffffffff1916908160001a905350600a8561307a91906143ac565b9450612ff8565b8093505050505b919050565b60007f80ac58cd000000000000000000000000000000000000000000000000000000007bffffffffffffffffffffffffffffffffffffffffffffffffffffffff1916827bffffffffffffffffffffffffffffffffffffffffffffffffffffffff1916148061315857507f5b5e139f000000000000000000000000000000000000000000000000000000007bffffffffffffffffffffffffffffffffffffffffffffffffffffffff1916827bffffffffffffffffffffffffffffffffffffffffffffffffffffffff1916145b8061316857506131678261366e565b5b9050919050565b60606000600283600261318291906142e1565b61318c9190614686565b67ffffffffffffffff8111156131a5576131a4613d7d565b5b6040519080825280601f01601f1916602001820160405280156131d75781602001600182028036833780820191505090505b5090507f30000000000000000000000000000000000000000000000000000000000000008160008151811061320f5761320e6141f1565b5b60200101907effffffffffffffffffffffffffffffffffffffffffffffffffffffffffffff1916908160001a9053507f780000000000000000000000000000000000000000000000000000000000000081600181518110613273576132726141f1565b5b60200101907effffffffffffffffffffffffffffffffffffffffffffffffffffffffffffff1916908160001a905350600060018460026132b391906142e1565b6132bd9190614686565b90505b600181111561335d577f3031323334353637383961626364656600000000000000000000000000000000600f8616601081106132ff576132fe6141f1565b5b1a60f81b828281518110613316576133156141f1565b5b60200101907effffffffffffffffffffffffffffffffffffffffffffffffffffffffffffff1916908160001a905350600485901c9450806133569061508e565b90506132c0565b50600084146133a1576040517f08c379a000000000000000000000000000000000000000000000000000000000815260040161339890615104565b60405180910390fd5b8091505092915050565b505050565b600080823b905060008111915050919050565b600060019054906101000a900460ff16613412576040517f08c379a000000000000000000000000000000000000000000000000000000000815260040161340990614f70565b60405180910390fd5b565b600060019054906101000a900460ff16613463576040517f08c379a000000000000000000000000000000000000000000000000000000000815260040161345a90614f70565b60405180910390fd5b565b600060019054906101000a900460ff166134b4576040517f08c379a00000000000000000000000000000000000000000000000000000000081526004016134ab90614f70565b60405180910390fd5b81606590805190602001906134ca9291906136fa565b5080606690805190602001906134e19291906136fa565b505050565b60006135078473ffffffffffffffffffffffffffffffffffffffff166133b0565b15613661578373ffffffffffffffffffffffffffffffffffffffff1663150b7a0261353061227e565b8786866040518563ffffffff1660e01b81526004016135529493929190615179565b6020604051808303816000875af192505050801561358e57506040513d601f19601f8201168201806040525081019061358b91906151da565b60015b613611573d80600081146135be576040519150601f19603f3d011682016040523d82523d6000602084013e6135c3565b606091505b50600081511415613609576040517f08c379a00000000000000000000000000000000000000000000000000000000081526004016136009061506e565b60405180910390fd5b805181602001fd5b63150b7a0260e01b7bffffffffffffffffffffffffffffffffffffffffffffffffffffffff1916817bffffffffffffffffffffffffffffffffffffffffffffffffffffffff191614915050613666565b600190505b949350505050565b60007f01ffc9a7000000000000000000000000000000000000000000000000000000007bffffffffffffffffffffffffffffffffffffffffffffffffffffffff1916827bffffffffffffffffffffffffffffffffffffffffffffffffffffffff1916149050919050565b6040518060200160405280600190602082028036833780820191505090505090565b82805461370690614009565b90600052602060002090601f016020900481019282613728576000855561376f565b82601f1061374157805160ff191683800117855561376f565b8280016001018555821561376f579182015b8281111561376e578251825591602001919060010190613753565b5b50905061377c9190613780565b5090565b5b80821115613799576000816000905550600101613781565b5090565b6000819050919050565b6137b08161379d565b82525050565b60006020820190506137cb60008301846137a7565b92915050565b6000604051905090565b600080fd5b600080fd5b60007fffffffff0000000000000000000000000000000000000000000000000000000082169050919050565b61381a816137e5565b811461382557600080fd5b50565b60008135905061383781613811565b92915050565b600060208284031215613853576138526137db565b5b600061386184828501613828565b91505092915050565b60008115159050919050565b61387f8161386a565b82525050565b600060208201905061389a6000830184613876565b92915050565b600081519050919050565b600082825260208201905092915050565b60005b838110156138da5780820151818401526020810190506138bf565b838111156138e9576000848401525b50505050565b6000601f19601f8301169050919050565b600061390b826138a0565b61391581856138ab565b93506139258185602086016138bc565b61392e816138ef565b840191505092915050565b600060208201905081810360008301526139538184613900565b905092915050565b6000819050919050565b61396e8161395b565b811461397957600080fd5b50565b60008135905061398b81613965565b92915050565b6000602082840312156139a7576139a66137db565b5b60006139b58482850161397c565b91505092915050565b600073ffffffffffffffffffffffffffffffffffffffff82169050919050565b60006139e9826139be565b9050919050565b6139f9816139de565b82525050565b6000602082019050613a1460008301846139f0565b92915050565b613a23816139de565b8114613a2e57600080fd5b50565b600081359050613a4081613a1a565b92915050565b60008060408385031215613a5d57613a5c6137db565b5b6000613a6b85828601613a31565b9250506020613a7c8582860161397c565b9150509250929050565b6000613a91826139be565b9050919050565b613aa181613a86565b8114613aac57600080fd5b50565b600081359050613abe81613a98565b92915050565b600060208284031215613ada57613ad96137db565b5b6000613ae884828501613aaf565b91505092915050565b600080600060608486031215613b0a57613b096137db565b5b6000613b1886828701613a31565b9350506020613b2986828701613a31565b9250506040613b3a8682870161397c565b9150509250925092565b613b4d8161379d565b8114613b5857600080fd5b50565b600081359050613b6a81613b44565b92915050565b600060208284031215613b8657613b856137db565b5b6000613b9484828501613b5b565b91505092915050565b600080600060608486031215613bb657613bb56137db565b5b6000613bc48682870161397c565b9350506020613bd58682870161397c565b9250506040613be68682870161397c565b9150509250925092565b60008060408385031215613c0757613c066137db565b5b6000613c158582860161397c565b9250506020613c2685828601613a31565b9150509250929050565b60008060408385031215613c4757613c466137db565b5b6000613c5585828601613b5b565b9250506020613c6685828601613a31565b9150509250929050565b613c798161395b565b82525050565b6000602082019050613c946000830184613c70565b92915050565b600060208284031215613cb057613caf6137db565b5b6000613cbe84828501613a31565b91505092915050565b60008060408385031215613cde57613cdd6137db565b5b6000613cec8582860161397c565b9250506020613cfd8582860161397c565b9150509250929050565b613d108161386a565b8114613d1b57600080fd5b50565b600081359050613d2d81613d07565b92915050565b60008060408385031215613d4a57613d496137db565b5b6000613d5885828601613a31565b9250506020613d6985828601613d1e565b9150509250929050565b600080fd5b600080fd5b7f4e487b7100000000000000000000000000000000000000000000000000000000600052604160045260246000fd5b613db5826138ef565b810181811067ffffffffffffffff82111715613dd457613dd3613d7d565b5b80604052505050565b6000613de76137d1565b9050613df38282613dac565b919050565b600067ffffffffffffffff821115613e1357613e12613d7d565b5b613e1c826138ef565b9050602081019050919050565b82818337600083830152505050565b6000613e4b613e4684613df8565b613ddd565b905082815260208101848484011115613e6757613e66613d78565b5b613e72848285613e29565b509392505050565b600082601f830112613e8f57613e8e613d73565b5b8135613e9f848260208601613e38565b91505092915050565b60008060008060808587031215613ec257613ec16137db565b5b6000613ed087828801613a31565b9450506020613ee187828801613a31565b9350506040613ef28782880161397c565b925050606085013567ffffffffffffffff811115613f1357613f126137e0565b5b613f1f87828801613e7a565b91505092959194509250565b600060e082019050613f40600083018a613c70565b613f4d6020830189613c70565b613f5a6040830188613c70565b613f676060830187613c70565b613f746080830186613c70565b613f8160a0830185613c70565b613f8e60c0830184613c70565b98975050505050505050565b60008060408385031215613fb157613fb06137db565b5b6000613fbf85828601613a31565b9250506020613fd085828601613a31565b9150509250929050565b7f4e487b7100000000000000000000000000000000000000000000000000000000600052602260045260246000fd5b6000600282049050600182168061402157607f821691505b6020821081141561403557614034613fda565b5b50919050565b7f4552433732313a20617070726f76656420717565727920666f72206e6f6e657860008201527f697374656e7420746f6b656e0000000000000000000000000000000000000000602082015250565b6000614097602c836138ab565b91506140a28261403b565b604082019050919050565b600060208201905081810360008301526140c68161408a565b9050919050565b7f4552433732313a20617070726f76616c20746f2063757272656e74206f776e6560008201527f7200000000000000000000000000000000000000000000000000000000000000602082015250565b60006141296021836138ab565b9150614134826140cd565b604082019050919050565b600060208201905081810360008301526141588161411c565b9050919050565b7f4552433732313a20617070726f76652063616c6c6572206973206e6f74206f7760008201527f6e6572206e6f7220617070726f76656420666f7220616c6c0000000000000000602082015250565b60006141bb6038836138ab565b91506141c68261415f565b604082019050919050565b600060208201905081810360008301526141ea816141ae565b9050919050565b7f4e487b7100000000000000000000000000000000000000000000000000000000600052603260045260246000fd5b7f4552433732313a207472616e736665722063616c6c6572206973206e6f74206f60008201527f776e6572206e6f7220617070726f766564000000000000000000000000000000602082015250565b600061427c6031836138ab565b915061428782614220565b604082019050919050565b600060208201905081810360008301526142ab8161426f565b9050919050565b7f4e487b7100000000000000000000000000000000000000000000000000000000600052601160045260246000fd5b60006142ec8261395b565b91506142f78361395b565b9250817fffffffffffffffffffffffffffffffffffffffffffffffffffffffffffffffff04831182151516156143305761432f6142b2565b5b828202905092915050565b60008151905061434a81613965565b92915050565b600060208284031215614366576143656137db565b5b60006143748482850161433b565b91505092915050565b7f4e487b7100000000000000000000000000000000000000000000000000000000600052601260045260246000fd5b60006143b78261395b565b91506143c28361395b565b9250826143d2576143d161437d565b5b828204905092915050565b6000819050919050565b60006144026143fd6143f8846139be565b6143dd565b6139be565b9050919050565b6000614414826143e7565b9050919050565b600061442682614409565b9050919050565b6144368161441b565b82525050565b600060608201905061445160008301866139f0565b61445e602083018561442d565b61446b6040830184613c70565b949350505050565b60008151905061448281613d07565b92915050565b60006020828403121561449e5761449d6137db565b5b60006144ac84828501614473565b91505092915050565b60006144c08261395b565b91507fffffffffffffffffffffffffffffffffffffffffffffffffffffffffffffffff8214156144f3576144f26142b2565b5b600182019050919050565b6000819050919050565b600061452361451e614519846144fe565b6143dd565b61395b565b9050919050565b61453381614508565b82525050565b600060408201905061454e6000830185613c70565b61455b602083018461452a565b9392505050565b7f416363657373436f6e74726f6c3a2063616e206f6e6c792072656e6f756e636560008201527f20726f6c657320666f722073656c660000000000000000000000000000000000602082015250565b60006145be602f836138ab565b91506145c982614562565b604082019050919050565b600060208201905081810360008301526145ed816145b1565b9050919050565b7f4552433732313a206f776e657220717565727920666f72206e6f6e657869737460008201527f656e7420746f6b656e0000000000000000000000000000000000000000000000602082015250565b60006146506029836138ab565b915061465b826145f4565b604082019050919050565b6000602082019050818103600083015261467f81614643565b9050919050565b60006146918261395b565b915061469c8361395b565b9250827fffffffffffffffffffffffffffffffffffffffffffffffffffffffffffffffff038211156146d1576146d06142b2565b5b828201905092915050565b60006040820190506146f16000830185613c70565b6146fe6020830184613c70565b9392505050565b7f4552433732313a2062616c616e636520717565727920666f7220746865207a6560008201527f726f206164647265737300000000000000000000000000000000000000000000602082015250565b6000614761602a836138ab565b915061476c82614705565b604082019050919050565b6000602082019050818103600083015261479081614754565b9050919050565b7f496e697469616c697a61626c653a20636f6e747261637420697320616c72656160008201527f647920696e697469616c697a6564000000000000000000000000000000000000602082015250565b60006147f3602e836138ab565b91506147fe82614797565b604082019050919050565b60006020820190508181036000830152614822816147e6565b9050919050565b60008160011c9050919050565b6000808291508390505b60018511156148805780860481111561485c5761485b6142b2565b5b600185161561486b5780820291505b808102905061487985614829565b9450614840565b94509492505050565b6000826148995760019050614955565b816148a75760009050614955565b81600181146148bd57600281146148c7576148f6565b6001915050614955565b60ff8411156148d9576148d86142b2565b5b8360020a9150848211156148f0576148ef6142b2565b5b50614955565b5060208310610133831016604e8410600b841016171561492b5782820a905083811115614926576149256142b2565b5b614955565b6149388484846001614836565b9250905081840481111561494f5761494e6142b2565b5b81810290505b9392505050565b60006149678261395b565b91506149728361395b565b925061499f7fffffffffffffffffffffffffffffffffffffffffffffffffffffffffffffffff8484614889565b905092915050565b6000819050919050565b60006149cc6149c76149c2846149a7565b6143dd565b61395b565b9050919050565b6149dc816149b1565b82525050565b60006040820190506149f76000830185613c70565b614a0460208301846149d3565b9392505050565b6000614a168261395b565b9150614a218361395b565b925082821015614a3457614a336142b2565b5b828203905092915050565b7f4552433732314d657461646174613a2055524920717565727920666f72206e6f60008201527f6e6578697374656e7420746f6b656e0000000000000000000000000000000000602082015250565b6000614a9b602f836138ab565b9150614aa682614a3f565b604082019050919050565b60006020820190508181036000830152614aca81614a8e565b9050919050565b600081905092915050565b6000614ae7826138a0565b614af18185614ad1565b9350614b018185602086016138bc565b80840191505092915050565b6000614b198285614adc565b9150614b258284614adc565b91508190509392505050565b7f416363657373436f6e74726f6c3a206163636f756e7420000000000000000000600082015250565b6000614b67601783614ad1565b9150614b7282614b31565b601782019050919050565b7f206973206d697373696e6720726f6c6520000000000000000000000000000000600082015250565b6000614bb3601183614ad1565b9150614bbe82614b7d565b601182019050919050565b6000614bd482614b5a565b9150614be08285614adc565b9150614beb82614ba6565b9150614bf78284614adc565b91508190509392505050565b6000819050919050565b614c1e614c198261379d565b614c03565b82525050565b6000614c308284614c0d565b60208201915081905092915050565b6000614c4a8261395b565b9150614c558361395b565b925082614c6557614c6461437d565b5b828206905092915050565b7f4552433732313a206d696e7420746f20746865207a65726f2061646472657373600082015250565b6000614ca66020836138ab565b9150614cb182614c70565b602082019050919050565b60006020820190508181036000830152614cd581614c99565b9050919050565b7f4552433732313a20746f6b656e20616c7265616479206d696e74656400000000600082015250565b6000614d12601c836138ab565b9150614d1d82614cdc565b602082019050919050565b60006020820190508181036000830152614d4181614d05565b9050919050565b7f4552433732313a206f70657261746f7220717565727920666f72206e6f6e657860008201527f697374656e7420746f6b656e0000000000000000000000000000000000000000602082015250565b6000614da4602c836138ab565b9150614daf82614d48565b604082019050919050565b60006020820190508181036000830152614dd381614d97565b9050919050565b7f4552433732313a207472616e73666572206f6620746f6b656e2074686174206960008201527f73206e6f74206f776e0000000000000000000000000000000000000000000000602082015250565b6000614e366029836138ab565b9150614e4182614dda565b604082019050919050565b60006020820190508181036000830152614e6581614e29565b9050919050565b7f4552433732313a207472616e7366657220746f20746865207a65726f2061646460008201527f7265737300000000000000000000000000000000000000000000000000000000602082015250565b6000614ec86024836138ab565b9150614ed382614e6c565b604082019050919050565b60006020820190508181036000830152614ef781614ebb565b9050919050565b7f496e697469616c697a61626c653a20636f6e7472616374206973206e6f74206960008201527f6e697469616c697a696e67000000000000000000000000000000000000000000602082015250565b6000614f5a602b836138ab565b9150614f6582614efe565b604082019050919050565b60006020820190508181036000830152614f8981614f4d565b9050919050565b7f4552433732313a20617070726f766520746f2063616c6c657200000000000000600082015250565b6000614fc66019836138ab565b9150614fd182614f90565b602082019050919050565b60006020820190508181036000830152614ff581614fb9565b9050919050565b7f4552433732313a207472616e7366657220746f206e6f6e20455243373231526560008201527f63656976657220696d706c656d656e7465720000000000000000000000000000602082015250565b60006150586032836138ab565b915061506382614ffc565b604082019050919050565b600060208201905081810360008301526150878161504b565b9050919050565b60006150998261395b565b915060008214156150ad576150ac6142b2565b5b600182039050919050565b7f537472696e67733a20686578206c656e67746820696e73756666696369656e74600082015250565b60006150ee6020836138ab565b91506150f9826150b8565b602082019050919050565b6000602082019050818103600083015261511d816150e1565b9050919050565b600081519050919050565b600082825260208201905092915050565b600061514b82615124565b615155818561512f565b93506151658185602086016138bc565b61516e816138ef565b840191505092915050565b600060808201905061518e60008301876139f0565b61519b60208301866139f0565b6151a86040830185613c70565b81810360608301526151ba8184615140565b905095945050505050565b6000815190506151d481613811565b92915050565b6000602082840312156151f0576151ef6137db565b5b60006151fe848285016151c5565b9150509291505056fea26469706673582212206f4d649f33c1e19124914c867d177ead596e70b176f08fdb813068a77ded954f64736f6c634300080c0033",
  "immutableReferences": {},
  "source": "// SPDX-License-Identifier: UNLICENSED\r\n\r\npragma solidity ^0.8.3;\r\n\r\nimport \"@openzeppelin/contracts-upgradeable/utils/CountersUpgradeable.sol\";\r\nimport \"@openzeppelin/contracts-upgradeable/access/AccessControlUpgradeable.sol\";\r\nimport \"@openzeppelin/contracts-upgradeable/token/ERC721/ERC721Upgradeable.sol\";\r\nimport \"@openzeppelin/contracts-upgradeable/token/ERC20/IERC20Upgradeable.sol\";\r\n\r\ncontract Tree is ERC721Upgradeable, AccessControlUpgradeable {\r\n\r\n    bytes32 public constant QUEST_ROLE = keccak256(\"QUEST_ROLE\");\r\n    bytes32 public constant UPG_ROLE = keccak256(\"UPG_ROLE\");\r\n\r\n    event NewTree(uint treeId);\r\n    event GainExp(uint treeId, uint amount);\r\n    event GainLevel(uint treeId);\r\n    event StatLevelUp (uint treeId, uint statId);\r\n\r\n    uint Digits;\r\n    uint Modulus;\r\n\r\n    address payable DevelopmentAddress;\r\n    address payable TreasuryAddress;\r\n    address TokenAddress;\r\n\r\n    struct TreeStruct {\r\n        uint treeDNA;\r\n        uint level;\r\n        uint exp;\r\n        uint roots;\r\n        uint branches;\r\n        uint action;\r\n        uint onActionUntil;\r\n    }\r\n\r\n    mapping(uint256 => TreeStruct) trees;\r\n\r\n    using CountersUpgradeable for CountersUpgradeable.Counter;\r\n    CountersUpgradeable.Counter private offerCounter;\r\n\r\n    function supportsInterface(bytes4 interfaceId) public view virtual override(ERC721Upgradeable, AccessControlUpgradeable) returns (bool) {\r\n        return super.supportsInterface(interfaceId);\r\n    }\r\n\r\n    function initialize() initializer public {\r\n        Digits = 16;\r\n        Modulus = 10 ** Digits;\r\n\r\n        DevelopmentAddress = payable(0x7C50D01C7Ba0EDE836bDA6daC88A952f325756e3);\r\n        TreasuryAddress = payable(0xa691623968855b91A066661b0552a7D3764c9a64);\r\n        _setupRole(DEFAULT_ADMIN_ROLE, msg.sender);\r\n        __ERC721_init(\"Patagonic Tree\", \"PTREE\");\r\n    }\r\n\r\n    //Util Functions\r\n\r\n    function vrf() public view returns (bytes32 result) {\r\n        uint[1] memory bn;\r\n        bn[0] = block.number;\r\n        assembly {\r\n            let memPtr := mload(0x40)\r\n            if iszero(staticcall(not(0), 0xff, bn, 0x20, memPtr, 0x20)) {\r\n                invalid()\r\n            }\r\n            result := mload(memPtr)\r\n        }\r\n    }\r\n\r\n    //View Functions\r\n\r\n    function getTree(uint256 treeId) external view returns (uint256, uint256, uint256, uint256, uint256, uint256, uint256) {\r\n        TreeStruct memory tree = trees[treeId];\r\n        return (tree.treeDNA, tree.level, tree.exp, tree.roots, tree.branches, tree.action, tree.onActionUntil);\r\n    }\r\n\r\n    function currentPrice() public view returns (uint) {\r\n        uint basePrice = 1;\r\n        uint scalingPrice = 1;\r\n        uint scalingAmount = 5;\r\n        uint price = (basePrice*10**18)+(offerCounter.current()/scalingAmount)*scalingPrice*10**18;\r\n        return price;\r\n    }\r\n\r\n    function _generateRandomDNA() internal view returns (uint) {\r\n        uint rand = uint(keccak256(abi.encodePacked(vrf())));\r\n        return rand % Modulus;\r\n    }\r\n\r\n    function getTreeQuantities() external view returns (uint) {\r\n        return offerCounter.current();\r\n    }\r\n\r\n    //External Functions\r\n\r\n    function gainLevel(uint treeId, address user) external onlyRole(UPG_ROLE) {\r\n        uint amount = trees[treeId].level*10**18;\r\n        require(IERC20Upgradeable(TokenAddress).balanceOf(user)>= amount);\r\n        IERC20Upgradeable(TokenAddress).transferFrom(user, TreasuryAddress, amount*96/100);\r\n        IERC20Upgradeable(TokenAddress).transferFrom(user, DevelopmentAddress, amount*4/100);\r\n        trees[treeId].exp = trees[treeId].exp-trees[treeId].level*100;\r\n        trees[treeId].level++;\r\n        emit GainLevel(treeId);\r\n    }\r\n\r\n    function gainExp(uint treeId, uint amount) external onlyRole(QUEST_ROLE) {\r\n        trees[treeId].exp = trees[treeId].exp + amount;\r\n        emit GainExp(treeId, amount);\r\n    }\r\n\r\n    function levelUpBranches(uint treeId, address user) external onlyRole(UPG_ROLE) {\r\n        uint amount = trees[treeId].branches*10**18;\r\n        require(IERC20Upgradeable(TokenAddress).balanceOf(user)>= amount);\r\n        IERC20Upgradeable(TokenAddress).transferFrom(user, TreasuryAddress, amount*96/100);\r\n        IERC20Upgradeable(TokenAddress).transferFrom(user, DevelopmentAddress, amount*4/100);\r\n        trees[treeId].branches++;\r\n        emit StatLevelUp (treeId, 0);\r\n    }\r\n    function levelUpRoots(uint treeId, address user) external onlyRole(UPG_ROLE) {\r\n        uint amount = trees[treeId].roots*10**18;\r\n        require(IERC20Upgradeable(TokenAddress).balanceOf(user)>= amount);\r\n        IERC20Upgradeable(TokenAddress).transferFrom(user, TreasuryAddress, amount*96/100);\r\n        IERC20Upgradeable(TokenAddress).transferFrom(user, DevelopmentAddress, amount*4/100);\r\n        trees[treeId].roots++;\r\n        emit StatLevelUp (treeId, 1);\r\n    }\r\n\r\n    function updateAction(uint treeId, uint action, uint time) external onlyRole(QUEST_ROLE) {\r\n        trees[treeId].onActionUntil = time;\r\n        trees[treeId].action = action;\r\n    }\r\n\r\n    //Payable Functions\r\n\r\n    function createNewTree() external payable {\r\n        require(msg.sender != address(0) && msg.sender != address(this));\r\n        require(msg.value == currentPrice());\r\n        uint DNA = _generateRandomDNA();\r\n        uint current = offerCounter.current();\r\n        offerCounter.increment();\r\n        trees[current] = TreeStruct(DNA, 1, 0, 1, 1, 0, 0);\r\n        _mint(msg.sender, current);\r\n        retrieveFunds(current);\r\n        emit NewTree(current);\r\n\r\n    }\r\n\r\n    //Retrive Funds\r\n\r\n    function retrieveFunds(uint treeId) internal {\r\n        if (treeId < 2000) {\r\n            TreasuryAddress.transfer(payable(address(this)).balance/2);\r\n            DevelopmentAddress.transfer(payable(address(this)).balance/2);\r\n        } else {\r\n            TreasuryAddress.transfer(payable(address(this)).balance);\r\n        }\r\n    }\r\n\r\n    //Transfer Functions\r\n\r\n    function transferDevelopmentAddress(address payable newDevelopment) external onlyRole(DEFAULT_ADMIN_ROLE) {\r\n        DevelopmentAddress = newDevelopment;\r\n    }\r\n\r\n    function transferTreasuryAddress(address payable newTreasury) external onlyRole(DEFAULT_ADMIN_ROLE) {\r\n        TreasuryAddress = newTreasury;\r\n    }\r\n\r\n    function transferTokenAddress(address newToken) external onlyRole(DEFAULT_ADMIN_ROLE) {\r\n        TokenAddress = newToken;\r\n    }\r\n\r\n}",
  "sourcePath": "C:\\Users\\jtsch\\OneDrive\\Escritorio\\Python\\SmartContracts-NFT-Agus\\contracts\\Tree.sol",
  "compiler": {
    "name": "solc",
    "version": "0.8.12+commit.f00d7308.Emscripten.clang"
  },
  "schemaVersion": "3.4.3",
  "updatedAt": "2022-02-22T16:33:11.111Z",
  "devdoc": {
    "kind": "dev",
    "methods": {
      "approve(address,uint256)": {
        "details": "See {IERC721-approve}."
      },
      "balanceOf(address)": {
        "details": "See {IERC721-balanceOf}."
      },
      "getApproved(uint256)": {
        "details": "See {IERC721-getApproved}."
      },
      "getRoleAdmin(bytes32)": {
        "details": "Returns the admin role that controls `role`. See {grantRole} and {revokeRole}. To change a role's admin, use {_setRoleAdmin}."
      },
      "grantRole(bytes32,address)": {
        "details": "Grants `role` to `account`. If `account` had not been already granted `role`, emits a {RoleGranted} event. Requirements: - the caller must have ``role``'s admin role."
      },
      "hasRole(bytes32,address)": {
        "details": "Returns `true` if `account` has been granted `role`."
      },
      "isApprovedForAll(address,address)": {
        "details": "See {IERC721-isApprovedForAll}."
      },
      "name()": {
        "details": "See {IERC721Metadata-name}."
      },
      "ownerOf(uint256)": {
        "details": "See {IERC721-ownerOf}."
      },
      "renounceRole(bytes32,address)": {
        "details": "Revokes `role` from the calling account. Roles are often managed via {grantRole} and {revokeRole}: this function's purpose is to provide a mechanism for accounts to lose their privileges if they are compromised (such as when a trusted device is misplaced). If the calling account had been revoked `role`, emits a {RoleRevoked} event. Requirements: - the caller must be `account`."
      },
      "revokeRole(bytes32,address)": {
        "details": "Revokes `role` from `account`. If `account` had been granted `role`, emits a {RoleRevoked} event. Requirements: - the caller must have ``role``'s admin role."
      },
      "safeTransferFrom(address,address,uint256)": {
        "details": "See {IERC721-safeTransferFrom}."
      },
      "safeTransferFrom(address,address,uint256,bytes)": {
        "details": "See {IERC721-safeTransferFrom}."
      },
      "setApprovalForAll(address,bool)": {
        "details": "See {IERC721-setApprovalForAll}."
      },
      "symbol()": {
        "details": "See {IERC721Metadata-symbol}."
      },
      "tokenURI(uint256)": {
        "details": "See {IERC721Metadata-tokenURI}."
      },
      "transferFrom(address,address,uint256)": {
        "details": "See {IERC721-transferFrom}."
      }
    },
    "version": 1
  },
  "userdoc": {
    "kind": "user",
    "methods": {},
    "version": 1
  }
}