{
  "contractName": "TreeQuests",
  "abi": [
    {
      "anonymous": false,
      "inputs": [
        {
          "indexed": false,
          "internalType": "uint256",
          "name": "treeId",
          "type": "uint256"
        },
        {
          "indexed": false,
          "internalType": "uint256",
          "name": "questId",
          "type": "uint256"
        }
      ],
      "name": "CancelQuest",
      "type": "event"
    },
    {
      "anonymous": false,
      "inputs": [
        {
          "indexed": false,
          "internalType": "uint256",
          "name": "treeId",
          "type": "uint256"
        },
        {
          "indexed": false,
          "internalType": "uint256",
          "name": "questId",
          "type": "uint256"
        }
      ],
      "name": "CompleteQuest",
      "type": "event"
    },
    {
      "anonymous": false,
      "inputs": [
        {
          "indexed": false,
          "internalType": "uint256",
          "name": "treeId",
          "type": "uint256"
        },
        {
          "indexed": false,
          "internalType": "uint256",
          "name": "questId",
          "type": "uint256"
        }
      ],
      "name": "StartQuest",
      "type": "event"
    },
    {
      "inputs": [],
      "name": "initialize",
      "outputs": [],
      "stateMutability": "nonpayable",
      "type": "function"
    },
    {
      "inputs": [],
      "name": "treasuryMultiplicator",
      "outputs": [
        {
          "internalType": "uint256",
          "name": "",
          "type": "uint256"
        }
      ],
      "stateMutability": "view",
      "type": "function"
    },
    {
      "inputs": [
        {
          "internalType": "uint256",
          "name": "treeId",
          "type": "uint256"
        }
      ],
      "name": "startQuest0",
      "outputs": [],
      "stateMutability": "payable",
      "type": "function"
    },
    {
      "inputs": [
        {
          "internalType": "uint256",
          "name": "treeId",
          "type": "uint256"
        }
      ],
      "name": "completeQuest0",
      "outputs": [],
      "stateMutability": "payable",
      "type": "function"
    },
    {
      "inputs": [
        {
          "internalType": "uint256",
          "name": "treeId",
          "type": "uint256"
        }
      ],
      "name": "cancelQuest0",
      "outputs": [],
      "stateMutability": "payable",
      "type": "function"
    },
    {
      "inputs": [
        {
          "internalType": "uint256",
          "name": "treeId",
          "type": "uint256"
        }
      ],
      "name": "startQuest1",
      "outputs": [],
      "stateMutability": "payable",
      "type": "function"
    },
    {
      "inputs": [
        {
          "internalType": "uint256",
          "name": "treeId",
          "type": "uint256"
        }
      ],
      "name": "completeQuest1",
      "outputs": [],
      "stateMutability": "payable",
      "type": "function"
    },
    {
      "inputs": [
        {
          "internalType": "uint256",
          "name": "treeId",
          "type": "uint256"
        }
      ],
      "name": "cancelQuest1",
      "outputs": [],
      "stateMutability": "payable",
      "type": "function"
    },
    {
      "inputs": [
        {
          "internalType": "address",
          "name": "newOwner",
          "type": "address"
        }
      ],
      "name": "transferOwnership",
      "outputs": [],
      "stateMutability": "payable",
      "type": "function"
    },
    {
      "inputs": [
        {
          "internalType": "address",
          "name": "newTreasury",
          "type": "address"
        }
      ],
      "name": "transferTreasury",
      "outputs": [],
      "stateMutability": "payable",
      "type": "function"
    }
  ],
  "bytecode": "0x608060405234801561001057600080fd5b5061208c806100206000396000f3fe6080604052600436106100915760003560e01c806383e70d7a1161005957806383e70d7a1461012c5780638a010a7d14610148578063d8a6021c14610164578063f2fde38b14610180578063f8a65c4c1461019c57610091565b80634fc0521714610096578063679fa4ad146100b25780636d9dcc45146100ce57806373842b49146100f95780638129fc1c14610115575b600080fd5b6100b060048036038101906100ab9190611b19565b6101b8565b005b6100cc60048036038101906100c79190611b19565b610405565b005b3480156100da57600080fd5b506100e3610723565b6040516100f09190611b55565b60405180910390f35b610113600480360381019061010e9190611b19565b6108f1565b005b34801561012157600080fd5b5061012a610c0f565b005b61014660048036038101906101419190611b19565b610eb4565b005b610162600480360381019061015d9190611b19565b611101565b005b61017e60048036038101906101799190611bce565b6113fe565b005b61019a60048036038101906101959190611bce565b61149c565b005b6101b660048036038101906101b19190611b19565b61153a565b005b803373ffffffffffffffffffffffffffffffffffffffff16600560009054906101000a900473ffffffffffffffffffffffffffffffffffffffff1673ffffffffffffffffffffffffffffffffffffffff16636352211e836040518263ffffffff1660e01b815260040161022b9190611b55565b602060405180830381865afa158015610248573d6000803e3d6000fd5b505050506040513d601f19601f8201168201806040525081019061026c9190611c10565b73ffffffffffffffffffffffffffffffffffffffff161461028c57600080fd5b6000600560009054906101000a900473ffffffffffffffffffffffffffffffffffffffff1673ffffffffffffffffffffffffffffffffffffffff1663850b0f3c846040518263ffffffff1660e01b81526004016102e99190611b55565b6020604051808303816000875af1158015610308573d6000803e3d6000fd5b505050506040513d601f19601f8201168201806040525081019061032c9190611c52565b141561033757600080fd5b600560009054906101000a900473ffffffffffffffffffffffffffffffffffffffff1673ffffffffffffffffffffffffffffffffffffffff16638536496f8360006040518363ffffffff1660e01b8152600401610395929190611cc4565b600060405180830381600087803b1580156103af57600080fd5b505af11580156103c3573d6000803e3d6000fd5b505050507fa176029de55f35a0e3bc1dc9eb8a1c24f3e5c63e42d329733e334a63db95a8898260016040516103f9929190611d28565b60405180910390a15050565b803373ffffffffffffffffffffffffffffffffffffffff16600560009054906101000a900473ffffffffffffffffffffffffffffffffffffffff1673ffffffffffffffffffffffffffffffffffffffff16636352211e836040518263ffffffff1660e01b81526004016104789190611b55565b602060405180830381865afa158015610495573d6000803e3d6000fd5b505050506040513d601f19601f820116820180604052508101906104b99190611c10565b73ffffffffffffffffffffffffffffffffffffffff16146104d957600080fd5b6000600560009054906101000a900473ffffffffffffffffffffffffffffffffffffffff1673ffffffffffffffffffffffffffffffffffffffff1663850b0f3c846040518263ffffffff1660e01b81526004016105369190611b55565b6020604051808303816000875af1158015610555573d6000803e3d6000fd5b505050506040513d601f19601f820116820180604052508101906105799190611c52565b1461058357600080fd5b6000603c6001600560009054906101000a900473ffffffffffffffffffffffffffffffffffffffff1673ffffffffffffffffffffffffffffffffffffffff16639c06eccd866040518263ffffffff1660e01b81526004016105e49190611b55565b6020604051808303816000875af1158015610603573d6000803e3d6000fd5b505050506040513d601f19601f820116820180604052508101906106279190611c52565b6106319190611d80565b61063b9190611d80565b6102586106489190611dda565b9050600560009054906101000a900473ffffffffffffffffffffffffffffffffffffffff1673ffffffffffffffffffffffffffffffffffffffff16638536496f8483426106959190611e0e565b6040518363ffffffff1660e01b81526004016106b2929190611e64565b600060405180830381600087803b1580156106cc57600080fd5b505af11580156106e0573d6000803e3d6000fd5b505050507ff4489fbfe0edc46e6905e1f77d624c12bcd689709fdd138371d8a7edf52f5e5d836001604051610716929190611d28565b60405180910390a1505050565b600080600360009054906101000a900473ffffffffffffffffffffffffffffffffffffffff1673ffffffffffffffffffffffffffffffffffffffff166370a08231600160009054906101000a900473ffffffffffffffffffffffffffffffffffffffff166040518263ffffffff1660e01b81526004016107a39190611e9c565b602060405180830381865afa1580156107c0573d6000803e3d6000fd5b505050506040513d601f19601f820116820180604052508101906107e49190611c52565b9050606460056004546107f79190611d80565b6108019190611ee6565b81106108115760649150506108ee565b6064600480546108219190611d80565b61082b9190611ee6565b811061083b5760509150506108ee565b6064600360045461084c9190611d80565b6108569190611ee6565b811061086657603c9150506108ee565b606460026004546108779190611d80565b6108819190611ee6565b81106108915760289150506108ee565b606460016004546108a29190611d80565b6108ac9190611ee6565b81106108bc5760149150506108ee565b6103e860016004546108ce9190611d80565b6108d89190611ee6565b81106108e85760059150506108ee565b60009150505b90565b803373ffffffffffffffffffffffffffffffffffffffff16600560009054906101000a900473ffffffffffffffffffffffffffffffffffffffff1673ffffffffffffffffffffffffffffffffffffffff16636352211e836040518263ffffffff1660e01b81526004016109649190611b55565b602060405180830381865afa158015610981573d6000803e3d6000fd5b505050506040513d601f19601f820116820180604052508101906109a59190611c10565b73ffffffffffffffffffffffffffffffffffffffff16146109c557600080fd5b6000600560009054906101000a900473ffffffffffffffffffffffffffffffffffffffff1673ffffffffffffffffffffffffffffffffffffffff1663850b0f3c846040518263ffffffff1660e01b8152600401610a229190611b55565b6020604051808303816000875af1158015610a41573d6000803e3d6000fd5b505050506040513d601f19601f82011682018060405250810190610a659190611c52565b14610a6f57600080fd5b6000603c6003600560009054906101000a900473ffffffffffffffffffffffffffffffffffffffff1673ffffffffffffffffffffffffffffffffffffffff16639c06eccd866040518263ffffffff1660e01b8152600401610ad09190611b55565b6020604051808303816000875af1158015610aef573d6000803e3d6000fd5b505050506040513d601f19601f82011682018060405250810190610b139190611c52565b610b1d9190611d80565b610b279190611d80565b610708610b349190611dda565b9050600560009054906101000a900473ffffffffffffffffffffffffffffffffffffffff1673ffffffffffffffffffffffffffffffffffffffff16638536496f848342610b819190611e0e565b6040518363ffffffff1660e01b8152600401610b9e929190611e64565b600060405180830381600087803b158015610bb857600080fd5b505af1158015610bcc573d6000803e3d6000fd5b505050507ff4489fbfe0edc46e6905e1f77d624c12bcd689709fdd138371d8a7edf52f5e5d836000604051610c02929190611cc4565b60405180910390a1505050565b600060019054906101000a900460ff16610c375760008054906101000a900460ff1615610c40565b610c3f611a82565b5b610c7f576040517f08c379a0000000000000000000000000000000000000000000000000000000008152600401610c7690611f9a565b60405180910390fd5b60008060019054906101000a900460ff161590508015610ccf576001600060016101000a81548160ff02191690831515021790555060016000806101000a81548160ff0219169083151502179055505b73f577601a5ef1d5079da672f01d7ab3b80dd2bd1d600060026101000a81548173ffffffffffffffffffffffffffffffffffffffff021916908373ffffffffffffffffffffffffffffffffffffffff16021790555073fd768e668a158c173e9549d1632902c2a4363178600160006101000a81548173ffffffffffffffffffffffffffffffffffffffff021916908373ffffffffffffffffffffffffffffffffffffffff1602179055507356ab64e87641864c0849d4a4ef4d1fd7245b2e27600260006101000a81548173ffffffffffffffffffffffffffffffffffffffff021916908373ffffffffffffffffffffffffffffffffffffffff16021790555073cd571ed43b347a4ab01bae2d23f9535bbafe955d600360006101000a81548173ffffffffffffffffffffffffffffffffffffffff021916908373ffffffffffffffffffffffffffffffffffffffff160217905550623d0900600481905550600260009054906101000a900473ffffffffffffffffffffffffffffffffffffffff16600560006101000a81548173ffffffffffffffffffffffffffffffffffffffff021916908373ffffffffffffffffffffffffffffffffffffffff1602179055508015610eb15760008060016101000a81548160ff0219169083151502179055505b50565b803373ffffffffffffffffffffffffffffffffffffffff16600560009054906101000a900473ffffffffffffffffffffffffffffffffffffffff1673ffffffffffffffffffffffffffffffffffffffff16636352211e836040518263ffffffff1660e01b8152600401610f279190611b55565b602060405180830381865afa158015610f44573d6000803e3d6000fd5b505050506040513d601f19601f82011682018060405250810190610f689190611c10565b73ffffffffffffffffffffffffffffffffffffffff1614610f8857600080fd5b6000600560009054906101000a900473ffffffffffffffffffffffffffffffffffffffff1673ffffffffffffffffffffffffffffffffffffffff1663850b0f3c846040518263ffffffff1660e01b8152600401610fe59190611b55565b6020604051808303816000875af1158015611004573d6000803e3d6000fd5b505050506040513d601f19601f820116820180604052508101906110289190611c52565b141561103357600080fd5b600560009054906101000a900473ffffffffffffffffffffffffffffffffffffffff1673ffffffffffffffffffffffffffffffffffffffff16638536496f8360006040518363ffffffff1660e01b8152600401611091929190611cc4565b600060405180830381600087803b1580156110ab57600080fd5b505af11580156110bf573d6000803e3d6000fd5b505050507fa176029de55f35a0e3bc1dc9eb8a1c24f3e5c63e42d329733e334a63db95a8898260006040516110f5929190611cc4565b60405180910390a15050565b803373ffffffffffffffffffffffffffffffffffffffff16600560009054906101000a900473ffffffffffffffffffffffffffffffffffffffff1673ffffffffffffffffffffffffffffffffffffffff16636352211e836040518263ffffffff1660e01b81526004016111749190611b55565b602060405180830381865afa158015611191573d6000803e3d6000fd5b505050506040513d601f19601f820116820180604052508101906111b59190611c10565b73ffffffffffffffffffffffffffffffffffffffff16146111d557600080fd5b6000600560009054906101000a900473ffffffffffffffffffffffffffffffffffffffff1673ffffffffffffffffffffffffffffffffffffffff1663850b0f3c846040518263ffffffff1660e01b81526004016112329190611b55565b6020604051808303816000875af1158015611251573d6000803e3d6000fd5b505050506040513d601f19601f820116820180604052508101906112759190611c52565b141561128057600080fd5b600560009054906101000a900473ffffffffffffffffffffffffffffffffffffffff1673ffffffffffffffffffffffffffffffffffffffff1663850b0f3c836040518263ffffffff1660e01b81526004016112db9190611b55565b6020604051808303816000875af11580156112fa573d6000803e3d6000fd5b505050506040513d601f19601f8201168201806040525081019061131e9190611c52565b42101561132a57600080fd5b600060649050600560009054906101000a900473ffffffffffffffffffffffffffffffffffffffff1673ffffffffffffffffffffffffffffffffffffffff16636cad693284836040518363ffffffff1660e01b815260040161138d929190611e64565b600060405180830381600087803b1580156113a757600080fd5b505af11580156113bb573d6000803e3d6000fd5b505050507f30ee9e16196ba30cdcc7b150805a842d6ee2b4e5f912753ec25aae5a8016c0128360016040516113f1929190611d28565b60405180910390a1505050565b3373ffffffffffffffffffffffffffffffffffffffff16600060029054906101000a900473ffffffffffffffffffffffffffffffffffffffff1673ffffffffffffffffffffffffffffffffffffffff161461145857600080fd5b80600160006101000a81548173ffffffffffffffffffffffffffffffffffffffff021916908373ffffffffffffffffffffffffffffffffffffffff16021790555050565b3373ffffffffffffffffffffffffffffffffffffffff16600060029054906101000a900473ffffffffffffffffffffffffffffffffffffffff1673ffffffffffffffffffffffffffffffffffffffff16146114f657600080fd5b80600060026101000a81548173ffffffffffffffffffffffffffffffffffffffff021916908373ffffffffffffffffffffffffffffffffffffffff16021790555050565b803373ffffffffffffffffffffffffffffffffffffffff16600560009054906101000a900473ffffffffffffffffffffffffffffffffffffffff1673ffffffffffffffffffffffffffffffffffffffff16636352211e836040518263ffffffff1660e01b81526004016115ad9190611b55565b602060405180830381865afa1580156115ca573d6000803e3d6000fd5b505050506040513d601f19601f820116820180604052508101906115ee9190611c10565b73ffffffffffffffffffffffffffffffffffffffff161461160e57600080fd5b6000600560009054906101000a900473ffffffffffffffffffffffffffffffffffffffff1673ffffffffffffffffffffffffffffffffffffffff1663850b0f3c846040518263ffffffff1660e01b815260040161166b9190611b55565b6020604051808303816000875af115801561168a573d6000803e3d6000fd5b505050506040513d601f19601f820116820180604052508101906116ae9190611c52565b14156116b957600080fd5b600560009054906101000a900473ffffffffffffffffffffffffffffffffffffffff1673ffffffffffffffffffffffffffffffffffffffff1663850b0f3c836040518263ffffffff1660e01b81526004016117149190611b55565b6020604051808303816000875af1158015611733573d6000803e3d6000fd5b505050506040513d601f19601f820116820180604052508101906117579190611c52565b42101561176357600080fd5b6000600a9050600560009054906101000a900473ffffffffffffffffffffffffffffffffffffffff1673ffffffffffffffffffffffffffffffffffffffff16636cad693284836040518363ffffffff1660e01b81526004016117c6929190611e64565b600060405180830381600087803b1580156117e057600080fd5b505af11580156117f4573d6000803e3d6000fd5b50505050600060056118a4600560009054906101000a900473ffffffffffffffffffffffffffffffffffffffff1673ffffffffffffffffffffffffffffffffffffffff16635e31fcc6876040518263ffffffff1660e01b815260040161185a9190611b55565b6020604051808303816000875af1158015611879573d6000803e3d6000fd5b505050506040513d601f19601f8201168201806040525081019061189d9190611c52565b6005611a93565b6118ae9190611ee6565b905060006118ba610723565b9050600060648383670de0b6b3a76400006118d59190611d80565b6118df9190611d80565b6118e99190611ee6565b9050600560009054906101000a900473ffffffffffffffffffffffffffffffffffffffff1673ffffffffffffffffffffffffffffffffffffffff16638536496f8760006040518363ffffffff1660e01b8152600401611949929190611cc4565b600060405180830381600087803b15801561196357600080fd5b505af1158015611977573d6000803e3d6000fd5b50505050600360009054906101000a900473ffffffffffffffffffffffffffffffffffffffff1673ffffffffffffffffffffffffffffffffffffffff166323b872dd600160009054906101000a900473ffffffffffffffffffffffffffffffffffffffff1633846040518463ffffffff1660e01b81526004016119fc93929190611fba565b6020604051808303816000875af1158015611a1b573d6000803e3d6000fd5b505050506040513d601f19601f82011682018060405250810190611a3f9190612029565b507f30ee9e16196ba30cdcc7b150805a842d6ee2b4e5f912753ec25aae5a8016c012866000604051611a72929190611cc4565b60405180910390a1505050505050565b6000611a8d30611acb565b15905090565b6000818260018486611aa59190611e0e565b611aaf9190611dda565b611ab99190611ee6565b611ac39190611d80565b905092915050565b600080823b905060008111915050919050565b600080fd5b6000819050919050565b611af681611ae3565b8114611b0157600080fd5b50565b600081359050611b1381611aed565b92915050565b600060208284031215611b2f57611b2e611ade565b5b6000611b3d84828501611b04565b91505092915050565b611b4f81611ae3565b82525050565b6000602082019050611b6a6000830184611b46565b92915050565b600073ffffffffffffffffffffffffffffffffffffffff82169050919050565b6000611b9b82611b70565b9050919050565b611bab81611b90565b8114611bb657600080fd5b50565b600081359050611bc881611ba2565b92915050565b600060208284031215611be457611be3611ade565b5b6000611bf284828501611bb9565b91505092915050565b600081519050611c0a81611ba2565b92915050565b600060208284031215611c2657611c25611ade565b5b6000611c3484828501611bfb565b91505092915050565b600081519050611c4c81611aed565b92915050565b600060208284031215611c6857611c67611ade565b5b6000611c7684828501611c3d565b91505092915050565b6000819050919050565b6000819050919050565b6000611cae611ca9611ca484611c7f565b611c89565b611ae3565b9050919050565b611cbe81611c93565b82525050565b6000604082019050611cd96000830185611b46565b611ce66020830184611cb5565b9392505050565b6000819050919050565b6000611d12611d0d611d0884611ced565b611c89565b611ae3565b9050919050565b611d2281611cf7565b82525050565b6000604082019050611d3d6000830185611b46565b611d4a6020830184611d19565b9392505050565b7f4e487b7100000000000000000000000000000000000000000000000000000000600052601160045260246000fd5b6000611d8b82611ae3565b9150611d9683611ae3565b9250817fffffffffffffffffffffffffffffffffffffffffffffffffffffffffffffffff0483118215151615611dcf57611dce611d51565b5b828202905092915050565b6000611de582611ae3565b9150611df083611ae3565b925082821015611e0357611e02611d51565b5b828203905092915050565b6000611e1982611ae3565b9150611e2483611ae3565b9250827fffffffffffffffffffffffffffffffffffffffffffffffffffffffffffffffff03821115611e5957611e58611d51565b5b828201905092915050565b6000604082019050611e796000830185611b46565b611e866020830184611b46565b9392505050565b611e9681611b90565b82525050565b6000602082019050611eb16000830184611e8d565b92915050565b7f4e487b7100000000000000000000000000000000000000000000000000000000600052601260045260246000fd5b6000611ef182611ae3565b9150611efc83611ae3565b925082611f0c57611f0b611eb7565b5b828204905092915050565b600082825260208201905092915050565b7f496e697469616c697a61626c653a20636f6e747261637420697320616c72656160008201527f647920696e697469616c697a6564000000000000000000000000000000000000602082015250565b6000611f84602e83611f17565b9150611f8f82611f28565b604082019050919050565b60006020820190508181036000830152611fb381611f77565b9050919050565b6000606082019050611fcf6000830186611e8d565b611fdc6020830185611e8d565b611fe96040830184611b46565b949350505050565b60008115159050919050565b61200681611ff1565b811461201157600080fd5b50565b60008151905061202381611ffd565b92915050565b60006020828403121561203f5761203e611ade565b5b600061204d84828501612014565b9150509291505056fea26469706673582212201b41ef70432f6787d6d1a3ac041e38a09e359dca6aa001fe541e6dd665dabd8d64736f6c634300080b0033",
  "immutableReferences": {},
  "source": "// SPDX-License-Identifier: UNLICENSED\r\n\r\npragma solidity ^0.8.0;\r\nimport \"./AbstractTree.sol\";\r\nimport \"../node_modules/@openzeppelin/contracts/token/ERC20/IERC20.sol\";\r\nimport \"../node_modules/@openzeppelin/contracts/proxy/utils/Initializable.sol\";\r\n\r\ncontract TreeQuests is Initializable {\r\n\r\n    event StartQuest(uint treeId, uint questId);\r\n    event CompleteQuest(uint treeId, uint questId);\r\n    event CancelQuest(uint treeId, uint questId);\r\n\r\n    address ContractOwner;\r\n    address Treasury;\r\n    \r\n    //Get TreeAddress after TreeContract Deployment\r\n    address TreeAddress;\r\n    \r\n    //Get TokenAddress after TokenContract Deployment\r\n    address Token;\r\n    uint totalTreasuryBalance;\r\n\r\n    Tree tree;\r\n\r\n    modifier onlyOwnerOf(uint _treeId) {\r\n        require(tree.ownerOf(_treeId) == msg.sender);\r\n        _;\r\n    }\r\n\r\n    modifier onlyOwner() {\r\n        require(ContractOwner == msg.sender);\r\n        _;\r\n    }\r\n\r\n    function initialize() initializer public {\r\n        ContractOwner = 0xf577601a5eF1d5079Da672f01D7aB3b80dD2bd1D;\r\n        Treasury = 0xfd768E668A158C173e9549d1632902C2A4363178;\r\n        TreeAddress = 0x56Ab64E87641864C0849d4A4Ef4D1Fd7245b2e27;\r\n        Token = 0xCd571eD43B347a4Ab01BAe2d23F9535BBAFe955d;\r\n        totalTreasuryBalance = 4000000;\r\n        tree = Tree(TreeAddress);\r\n    }\r\n    \r\n    // Util functions\r\n\r\n    function ceil(uint _a, uint _m) internal pure returns (uint ) {\r\n        return ((_a + _m - 1) / _m) * _m;\r\n    }\r\n    function treasuryMultiplicator() public view returns (uint) {\r\n        uint currentTreasuryBalance = IERC20(Token).balanceOf(Treasury);\r\n        if (currentTreasuryBalance >= totalTreasuryBalance*5/100) {\r\n            return 100;\r\n        } else if (currentTreasuryBalance >= totalTreasuryBalance*4/100) {\r\n            return 80;\r\n        } else if (currentTreasuryBalance >= totalTreasuryBalance*3/100) {\r\n            return 60;\r\n        } else if (currentTreasuryBalance >= totalTreasuryBalance*2/100) {\r\n            return 40;\r\n        } else if (currentTreasuryBalance >= totalTreasuryBalance*1/100) {\r\n            return 20;\r\n        } else if (currentTreasuryBalance >= totalTreasuryBalance*1/1000) {\r\n            return 5;\r\n        } else {\r\n            return 0;\r\n        }\r\n    }\r\n\r\n    //Payable Functions\r\n\r\n    //Quest0 Foraging\r\n\r\n    function startQuest0(uint treeId) public payable onlyOwnerOf(treeId) {\r\n        require(tree.questStatus(treeId) == 0);\r\n        uint questDuration = 30*60 - tree.treeTrainingGrounds(treeId)*3*60;\r\n        tree.updateQuestStatus(treeId, block.timestamp+questDuration);\r\n        emit StartQuest(treeId, 0);\r\n    }\r\n\r\n    function completeQuest0(uint treeId) public payable onlyOwnerOf(treeId) {\r\n        require(tree.questStatus(treeId) != 0);\r\n        require(block.timestamp >= tree.questStatus(treeId));\r\n\r\n        uint expReward = 10;\r\n        tree.gainExp(treeId, expReward);\r\n\r\n        uint treeMult = ceil(tree.treeBarracks(treeId),5)/5;\r\n        uint treasuryMult = treasuryMultiplicator();\r\n        uint tokenReward = (1*10**18)*treasuryMult*treeMult/100;\r\n        tree.updateQuestStatus(treeId, 0);\r\n        IERC20(Token).transferFrom(Treasury, msg.sender, tokenReward);\r\n        emit CompleteQuest(treeId, 0);\r\n\r\n    }\r\n\r\n    function cancelQuest0(uint treeId) public payable onlyOwnerOf(treeId) {\r\n        require(tree.questStatus(treeId) != 0);\r\n        tree.updateQuestStatus(treeId, 0);\r\n        emit CancelQuest(treeId, 0);\r\n\r\n    }\r\n\r\n    //Quest1 Clean Roots\r\n\r\n    function startQuest1(uint treeId) public payable onlyOwnerOf(treeId) {\r\n        require(tree.questStatus(treeId) == 0);\r\n        uint questDuration = 10*60 - tree.treeTrainingGrounds(treeId)*1*60;\r\n        tree.updateQuestStatus(treeId, block.timestamp+questDuration);\r\n        emit StartQuest(treeId, 1);\r\n    }\r\n\r\n    function completeQuest1(uint treeId) public payable onlyOwnerOf(treeId) {\r\n        require(tree.questStatus(treeId) != 0);\r\n        require(block.timestamp >= tree.questStatus(treeId));\r\n\r\n        uint expReward = 100;\r\n        tree.gainExp(treeId, expReward);\r\n        emit CompleteQuest(treeId, 1);\r\n\r\n    }\r\n\r\n    function cancelQuest1(uint treeId) public payable onlyOwnerOf(treeId) {\r\n        require(tree.questStatus(treeId) != 0);\r\n        tree.updateQuestStatus(treeId, 0);\r\n        emit CancelQuest(treeId, 1);\r\n\r\n    }\r\n\r\n    //Transfer functions\r\n\r\n    function transferOwnership(address newOwner) public payable onlyOwner() {\r\n        ContractOwner = newOwner;\r\n    }\r\n\r\n    function transferTreasury(address newTreasury) public payable onlyOwner() {\r\n        Treasury = newTreasury;\r\n    }\r\n}",
  "sourcePath": "C:\\Users\\jtsch\\OneDrive\\Escritorio\\Python\\SmartContracts-NFT-Agus\\contracts\\TreeQuests.sol",
  "compiler": {
    "name": "solc",
    "version": "0.8.11+commit.d7f03943.Emscripten.clang"
  },
  "schemaVersion": "3.4.3",
  "updatedAt": "2022-01-15T22:36:54.830Z",
  "devdoc": {
    "kind": "dev",
    "methods": {},
    "version": 1
  },
  "userdoc": {
    "kind": "user",
    "methods": {},
    "version": 1
  }
}