{
  "contractName": "TreeQuestsV3",
  "abi": [
    {
      "anonymous": false,
      "inputs": [
        {
          "indexed": false,
          "internalType": "uint256",
          "name": "treeId",
          "type": "uint256"
        },
        {
          "indexed": false,
          "internalType": "uint256",
          "name": "questId",
          "type": "uint256"
        }
      ],
      "name": "CancelQuest",
      "type": "event"
    },
    {
      "anonymous": false,
      "inputs": [
        {
          "indexed": false,
          "internalType": "uint256",
          "name": "treeId",
          "type": "uint256"
        },
        {
          "indexed": false,
          "internalType": "uint256",
          "name": "questId",
          "type": "uint256"
        }
      ],
      "name": "CompleteQuest",
      "type": "event"
    },
    {
      "anonymous": false,
      "inputs": [
        {
          "indexed": false,
          "internalType": "uint256",
          "name": "treeId",
          "type": "uint256"
        },
        {
          "indexed": false,
          "internalType": "uint256",
          "name": "questId",
          "type": "uint256"
        }
      ],
      "name": "StartQuest",
      "type": "event"
    },
    {
      "inputs": [],
      "name": "initialize",
      "outputs": [],
      "stateMutability": "nonpayable",
      "type": "function"
    },
    {
      "inputs": [],
      "name": "treasuryMultiplicator",
      "outputs": [
        {
          "internalType": "uint256",
          "name": "",
          "type": "uint256"
        }
      ],
      "stateMutability": "view",
      "type": "function"
    },
    {
      "inputs": [],
      "name": "vrf",
      "outputs": [
        {
          "internalType": "bytes32",
          "name": "result",
          "type": "bytes32"
        }
      ],
      "stateMutability": "view",
      "type": "function"
    },
    {
      "inputs": [
        {
          "internalType": "uint256",
          "name": "treeId",
          "type": "uint256"
        }
      ],
      "name": "startQuest0",
      "outputs": [],
      "stateMutability": "payable",
      "type": "function"
    },
    {
      "inputs": [
        {
          "internalType": "uint256",
          "name": "treeId",
          "type": "uint256"
        }
      ],
      "name": "completeQuest0",
      "outputs": [],
      "stateMutability": "payable",
      "type": "function"
    },
    {
      "inputs": [
        {
          "internalType": "uint256",
          "name": "treeId",
          "type": "uint256"
        }
      ],
      "name": "cancelQuest0",
      "outputs": [],
      "stateMutability": "payable",
      "type": "function"
    },
    {
      "inputs": [
        {
          "internalType": "uint256",
          "name": "treeId",
          "type": "uint256"
        }
      ],
      "name": "startQuest1",
      "outputs": [],
      "stateMutability": "payable",
      "type": "function"
    },
    {
      "inputs": [
        {
          "internalType": "uint256",
          "name": "treeId",
          "type": "uint256"
        }
      ],
      "name": "completeQuest1",
      "outputs": [],
      "stateMutability": "payable",
      "type": "function"
    },
    {
      "inputs": [
        {
          "internalType": "uint256",
          "name": "treeId",
          "type": "uint256"
        }
      ],
      "name": "cancelQuest1",
      "outputs": [],
      "stateMutability": "payable",
      "type": "function"
    },
    {
      "inputs": [
        {
          "internalType": "address",
          "name": "newOwner",
          "type": "address"
        }
      ],
      "name": "transferOwnership",
      "outputs": [],
      "stateMutability": "payable",
      "type": "function"
    },
    {
      "inputs": [
        {
          "internalType": "address",
          "name": "newTreasury",
          "type": "address"
        }
      ],
      "name": "transferTreasury",
      "outputs": [],
      "stateMutability": "payable",
      "type": "function"
    }
  ],
  "bytecode": "0x608060405234801561001057600080fd5b5061245e806100206000396000f3fe60806040526004361061009c5760003560e01c80638129fc1c116100645780638129fc1c1461014b57806383e70d7a146101625780638a010a7d1461017e578063d8a6021c1461019a578063f2fde38b146101b6578063f8a65c4c146101d25761009c565b80630c949043146100a15780634fc05217146100cc578063679fa4ad146100e85780636d9dcc451461010457806373842b491461012f575b600080fd5b3480156100ad57600080fd5b506100b66101ee565b6040516100c39190611dc2565b60405180910390f35b6100e660048036038101906100e19190611e18565b610234565b005b61010260048036038101906100fd9190611e18565b610481565b005b34801561011057600080fd5b5061011961079f565b6040516101269190611e54565b60405180910390f35b61014960048036038101906101449190611e18565b61096d565b005b34801561015757600080fd5b50610160610c8b565b005b61017c60048036038101906101779190611e18565b610fe8565b005b61019860048036038101906101939190611e18565b611235565b005b6101b460048036038101906101af9190611ecd565b6116a7565b005b6101d060048036038101906101cb9190611ecd565b611745565b005b6101ec60048036038101906101e79190611e18565b6117e3565b005b60006101f8611d87565b438160006001811061020d5761020c611efa565b5b60200201818152505060405160208160208460ff600019fa61022b57fe5b80519250505090565b803373ffffffffffffffffffffffffffffffffffffffff16600660009054906101000a900473ffffffffffffffffffffffffffffffffffffffff1673ffffffffffffffffffffffffffffffffffffffff16636352211e836040518263ffffffff1660e01b81526004016102a79190611e54565b602060405180830381865afa1580156102c4573d6000803e3d6000fd5b505050506040513d601f19601f820116820180604052508101906102e89190611f3e565b73ffffffffffffffffffffffffffffffffffffffff161461030857600080fd5b6000600660009054906101000a900473ffffffffffffffffffffffffffffffffffffffff1673ffffffffffffffffffffffffffffffffffffffff1663850b0f3c846040518263ffffffff1660e01b81526004016103659190611e54565b6020604051808303816000875af1158015610384573d6000803e3d6000fd5b505050506040513d601f19601f820116820180604052508101906103a89190611f80565b14156103b357600080fd5b600660009054906101000a900473ffffffffffffffffffffffffffffffffffffffff1673ffffffffffffffffffffffffffffffffffffffff16638536496f8360006040518363ffffffff1660e01b8152600401610411929190611ff2565b600060405180830381600087803b15801561042b57600080fd5b505af115801561043f573d6000803e3d6000fd5b505050507fa176029de55f35a0e3bc1dc9eb8a1c24f3e5c63e42d329733e334a63db95a889826001604051610475929190612056565b60405180910390a15050565b803373ffffffffffffffffffffffffffffffffffffffff16600660009054906101000a900473ffffffffffffffffffffffffffffffffffffffff1673ffffffffffffffffffffffffffffffffffffffff16636352211e836040518263ffffffff1660e01b81526004016104f49190611e54565b602060405180830381865afa158015610511573d6000803e3d6000fd5b505050506040513d601f19601f820116820180604052508101906105359190611f3e565b73ffffffffffffffffffffffffffffffffffffffff161461055557600080fd5b6000600660009054906101000a900473ffffffffffffffffffffffffffffffffffffffff1673ffffffffffffffffffffffffffffffffffffffff1663850b0f3c846040518263ffffffff1660e01b81526004016105b29190611e54565b6020604051808303816000875af11580156105d1573d6000803e3d6000fd5b505050506040513d601f19601f820116820180604052508101906105f59190611f80565b146105ff57600080fd5b6000603c6001600660009054906101000a900473ffffffffffffffffffffffffffffffffffffffff1673ffffffffffffffffffffffffffffffffffffffff16639c06eccd866040518263ffffffff1660e01b81526004016106609190611e54565b6020604051808303816000875af115801561067f573d6000803e3d6000fd5b505050506040513d601f19601f820116820180604052508101906106a39190611f80565b6106ad91906120ae565b6106b791906120ae565b6102586106c49190612108565b9050600660009054906101000a900473ffffffffffffffffffffffffffffffffffffffff1673ffffffffffffffffffffffffffffffffffffffff16638536496f848342610711919061213c565b6040518363ffffffff1660e01b815260040161072e929190612192565b600060405180830381600087803b15801561074857600080fd5b505af115801561075c573d6000803e3d6000fd5b505050507ff4489fbfe0edc46e6905e1f77d624c12bcd689709fdd138371d8a7edf52f5e5d836001604051610792929190612056565b60405180910390a1505050565b600080600360009054906101000a900473ffffffffffffffffffffffffffffffffffffffff1673ffffffffffffffffffffffffffffffffffffffff166370a08231600160009054906101000a900473ffffffffffffffffffffffffffffffffffffffff166040518263ffffffff1660e01b815260040161081f91906121ca565b602060405180830381865afa15801561083c573d6000803e3d6000fd5b505050506040513d601f19601f820116820180604052508101906108609190611f80565b905060646005805461087291906120ae565b61087c9190612214565b811061088c57606491505061096a565b6064600460055461089d91906120ae565b6108a79190612214565b81106108b757605091505061096a565b606460036005546108c891906120ae565b6108d29190612214565b81106108e257603c91505061096a565b606460026005546108f391906120ae565b6108fd9190612214565b811061090d57602891505061096a565b6064600160055461091e91906120ae565b6109289190612214565b811061093857601491505061096a565b6103e8600160055461094a91906120ae565b6109549190612214565b811061096457600591505061096a565b60009150505b90565b803373ffffffffffffffffffffffffffffffffffffffff16600660009054906101000a900473ffffffffffffffffffffffffffffffffffffffff1673ffffffffffffffffffffffffffffffffffffffff16636352211e836040518263ffffffff1660e01b81526004016109e09190611e54565b602060405180830381865afa1580156109fd573d6000803e3d6000fd5b505050506040513d601f19601f82011682018060405250810190610a219190611f3e565b73ffffffffffffffffffffffffffffffffffffffff1614610a4157600080fd5b6000600660009054906101000a900473ffffffffffffffffffffffffffffffffffffffff1673ffffffffffffffffffffffffffffffffffffffff1663850b0f3c846040518263ffffffff1660e01b8152600401610a9e9190611e54565b6020604051808303816000875af1158015610abd573d6000803e3d6000fd5b505050506040513d601f19601f82011682018060405250810190610ae19190611f80565b14610aeb57600080fd5b6000603c6003600660009054906101000a900473ffffffffffffffffffffffffffffffffffffffff1673ffffffffffffffffffffffffffffffffffffffff16639c06eccd866040518263ffffffff1660e01b8152600401610b4c9190611e54565b6020604051808303816000875af1158015610b6b573d6000803e3d6000fd5b505050506040513d601f19601f82011682018060405250810190610b8f9190611f80565b610b9991906120ae565b610ba391906120ae565b610708610bb09190612108565b9050600660009054906101000a900473ffffffffffffffffffffffffffffffffffffffff1673ffffffffffffffffffffffffffffffffffffffff16638536496f848342610bfd919061213c565b6040518363ffffffff1660e01b8152600401610c1a929190612192565b600060405180830381600087803b158015610c3457600080fd5b505af1158015610c48573d6000803e3d6000fd5b505050507ff4489fbfe0edc46e6905e1f77d624c12bcd689709fdd138371d8a7edf52f5e5d836000604051610c7e929190611ff2565b60405180910390a1505050565b600060019054906101000a900460ff16610cb35760008054906101000a900460ff1615610cbc565b610cbb611d2b565b5b610cfb576040517f08c379a0000000000000000000000000000000000000000000000000000000008152600401610cf2906122c8565b60405180910390fd5b60008060019054906101000a900460ff161590508015610d4b576001600060016101000a81548160ff02191690831515021790555060016000806101000a81548160ff0219169083151502179055505b73f577601a5ef1d5079da672f01d7ab3b80dd2bd1d600060026101000a81548173ffffffffffffffffffffffffffffffffffffffff021916908373ffffffffffffffffffffffffffffffffffffffff16021790555073fd768e668a158c173e9549d1632902c2a4363178600160006101000a81548173ffffffffffffffffffffffffffffffffffffffff021916908373ffffffffffffffffffffffffffffffffffffffff16021790555073066a907192376088248935abad90dacd06e87f64600260006101000a81548173ffffffffffffffffffffffffffffffffffffffff021916908373ffffffffffffffffffffffffffffffffffffffff1602179055507354301761569145d50da03d8cfdfa19913f20ed9b600360006101000a81548173ffffffffffffffffffffffffffffffffffffffff021916908373ffffffffffffffffffffffffffffffffffffffff1602179055507325ef7fdea435d7aaed551e8256792e46d0293d34600460006101000a81548173ffffffffffffffffffffffffffffffffffffffff021916908373ffffffffffffffffffffffffffffffffffffffff160217905550623d0900600581905550600260009054906101000a900473ffffffffffffffffffffffffffffffffffffffff16600660006101000a81548173ffffffffffffffffffffffffffffffffffffffff021916908373ffffffffffffffffffffffffffffffffffffffff160217905550600460009054906101000a900473ffffffffffffffffffffffffffffffffffffffff16600760006101000a81548173ffffffffffffffffffffffffffffffffffffffff021916908373ffffffffffffffffffffffffffffffffffffffff1602179055508015610fe55760008060016101000a81548160ff0219169083151502179055505b50565b803373ffffffffffffffffffffffffffffffffffffffff16600660009054906101000a900473ffffffffffffffffffffffffffffffffffffffff1673ffffffffffffffffffffffffffffffffffffffff16636352211e836040518263ffffffff1660e01b815260040161105b9190611e54565b602060405180830381865afa158015611078573d6000803e3d6000fd5b505050506040513d601f19601f8201168201806040525081019061109c9190611f3e565b73ffffffffffffffffffffffffffffffffffffffff16146110bc57600080fd5b6000600660009054906101000a900473ffffffffffffffffffffffffffffffffffffffff1673ffffffffffffffffffffffffffffffffffffffff1663850b0f3c846040518263ffffffff1660e01b81526004016111199190611e54565b6020604051808303816000875af1158015611138573d6000803e3d6000fd5b505050506040513d601f19601f8201168201806040525081019061115c9190611f80565b141561116757600080fd5b600660009054906101000a900473ffffffffffffffffffffffffffffffffffffffff1673ffffffffffffffffffffffffffffffffffffffff16638536496f8360006040518363ffffffff1660e01b81526004016111c5929190611ff2565b600060405180830381600087803b1580156111df57600080fd5b505af11580156111f3573d6000803e3d6000fd5b505050507fa176029de55f35a0e3bc1dc9eb8a1c24f3e5c63e42d329733e334a63db95a889826000604051611229929190611ff2565b60405180910390a15050565b803373ffffffffffffffffffffffffffffffffffffffff16600660009054906101000a900473ffffffffffffffffffffffffffffffffffffffff1673ffffffffffffffffffffffffffffffffffffffff16636352211e836040518263ffffffff1660e01b81526004016112a89190611e54565b602060405180830381865afa1580156112c5573d6000803e3d6000fd5b505050506040513d601f19601f820116820180604052508101906112e99190611f3e565b73ffffffffffffffffffffffffffffffffffffffff161461130957600080fd5b6000600660009054906101000a900473ffffffffffffffffffffffffffffffffffffffff1673ffffffffffffffffffffffffffffffffffffffff1663850b0f3c846040518263ffffffff1660e01b81526004016113669190611e54565b6020604051808303816000875af1158015611385573d6000803e3d6000fd5b505050506040513d601f19601f820116820180604052508101906113a99190611f80565b14156113b457600080fd5b600660009054906101000a900473ffffffffffffffffffffffffffffffffffffffff1673ffffffffffffffffffffffffffffffffffffffff1663850b0f3c836040518263ffffffff1660e01b815260040161140f9190611e54565b6020604051808303816000875af115801561142e573d6000803e3d6000fd5b505050506040513d601f19601f820116820180604052508101906114529190611f80565b42101561145e57600080fd5b600060649050600061146e6101ee565b60405160200161147e9190612309565b6040516020818303038152906040528051906020012060001c90506000600a826114a89190612324565b9050600660009054906101000a900473ffffffffffffffffffffffffffffffffffffffff1673ffffffffffffffffffffffffffffffffffffffff16638536496f8660006040518363ffffffff1660e01b8152600401611508929190611ff2565b600060405180830381600087803b15801561152257600080fd5b505af1158015611536573d6000803e3d6000fd5b50505050600660009054906101000a900473ffffffffffffffffffffffffffffffffffffffff1673ffffffffffffffffffffffffffffffffffffffff16636cad693286856040518363ffffffff1660e01b8152600401611597929190612192565b600060405180830381600087803b1580156115b157600080fd5b505af11580156115c5573d6000803e3d6000fd5b50505050600081141561166657600760009054906101000a900473ffffffffffffffffffffffffffffffffffffffff1673ffffffffffffffffffffffffffffffffffffffff1663156e29f633600060016040518463ffffffff1660e01b815260040161163393929190612355565b600060405180830381600087803b15801561164d57600080fd5b505af1158015611661573d6000803e3d6000fd5b505050505b7f30ee9e16196ba30cdcc7b150805a842d6ee2b4e5f912753ec25aae5a8016c012856001604051611698929190612056565b60405180910390a15050505050565b3373ffffffffffffffffffffffffffffffffffffffff16600060029054906101000a900473ffffffffffffffffffffffffffffffffffffffff1673ffffffffffffffffffffffffffffffffffffffff161461170157600080fd5b80600160006101000a81548173ffffffffffffffffffffffffffffffffffffffff021916908373ffffffffffffffffffffffffffffffffffffffff16021790555050565b3373ffffffffffffffffffffffffffffffffffffffff16600060029054906101000a900473ffffffffffffffffffffffffffffffffffffffff1673ffffffffffffffffffffffffffffffffffffffff161461179f57600080fd5b80600060026101000a81548173ffffffffffffffffffffffffffffffffffffffff021916908373ffffffffffffffffffffffffffffffffffffffff16021790555050565b803373ffffffffffffffffffffffffffffffffffffffff16600660009054906101000a900473ffffffffffffffffffffffffffffffffffffffff1673ffffffffffffffffffffffffffffffffffffffff16636352211e836040518263ffffffff1660e01b81526004016118569190611e54565b602060405180830381865afa158015611873573d6000803e3d6000fd5b505050506040513d601f19601f820116820180604052508101906118979190611f3e565b73ffffffffffffffffffffffffffffffffffffffff16146118b757600080fd5b6000600660009054906101000a900473ffffffffffffffffffffffffffffffffffffffff1673ffffffffffffffffffffffffffffffffffffffff1663850b0f3c846040518263ffffffff1660e01b81526004016119149190611e54565b6020604051808303816000875af1158015611933573d6000803e3d6000fd5b505050506040513d601f19601f820116820180604052508101906119579190611f80565b141561196257600080fd5b600660009054906101000a900473ffffffffffffffffffffffffffffffffffffffff1673ffffffffffffffffffffffffffffffffffffffff1663850b0f3c836040518263ffffffff1660e01b81526004016119bd9190611e54565b6020604051808303816000875af11580156119dc573d6000803e3d6000fd5b505050506040513d601f19601f82011682018060405250810190611a009190611f80565b421015611a0c57600080fd5b6000600a905060006005611abe600660009054906101000a900473ffffffffffffffffffffffffffffffffffffffff1673ffffffffffffffffffffffffffffffffffffffff16635e31fcc6876040518263ffffffff1660e01b8152600401611a749190611e54565b6020604051808303816000875af1158015611a93573d6000803e3d6000fd5b505050506040513d601f19601f82011682018060405250810190611ab79190611f80565b6005611d3c565b611ac89190612214565b90506000611ad461079f565b9050600060648383670de0b6b3a7640000611aef91906120ae565b611af991906120ae565b611b039190612214565b9050600660009054906101000a900473ffffffffffffffffffffffffffffffffffffffff1673ffffffffffffffffffffffffffffffffffffffff16638536496f8760006040518363ffffffff1660e01b8152600401611b63929190611ff2565b600060405180830381600087803b158015611b7d57600080fd5b505af1158015611b91573d6000803e3d6000fd5b50505050600660009054906101000a900473ffffffffffffffffffffffffffffffffffffffff1673ffffffffffffffffffffffffffffffffffffffff16636cad693287866040518363ffffffff1660e01b8152600401611bf2929190612192565b600060405180830381600087803b158015611c0c57600080fd5b505af1158015611c20573d6000803e3d6000fd5b50505050600360009054906101000a900473ffffffffffffffffffffffffffffffffffffffff1673ffffffffffffffffffffffffffffffffffffffff166323b872dd600160009054906101000a900473ffffffffffffffffffffffffffffffffffffffff1633846040518463ffffffff1660e01b8152600401611ca59392919061238c565b6020604051808303816000875af1158015611cc4573d6000803e3d6000fd5b505050506040513d601f19601f82011682018060405250810190611ce891906123fb565b507f30ee9e16196ba30cdcc7b150805a842d6ee2b4e5f912753ec25aae5a8016c012866000604051611d1b929190611ff2565b60405180910390a1505050505050565b6000611d3630611d74565b15905090565b6000818260018486611d4e919061213c565b611d589190612108565b611d629190612214565b611d6c91906120ae565b905092915050565b600080823b905060008111915050919050565b6040518060200160405280600190602082028036833780820191505090505090565b6000819050919050565b611dbc81611da9565b82525050565b6000602082019050611dd76000830184611db3565b92915050565b600080fd5b6000819050919050565b611df581611de2565b8114611e0057600080fd5b50565b600081359050611e1281611dec565b92915050565b600060208284031215611e2e57611e2d611ddd565b5b6000611e3c84828501611e03565b91505092915050565b611e4e81611de2565b82525050565b6000602082019050611e696000830184611e45565b92915050565b600073ffffffffffffffffffffffffffffffffffffffff82169050919050565b6000611e9a82611e6f565b9050919050565b611eaa81611e8f565b8114611eb557600080fd5b50565b600081359050611ec781611ea1565b92915050565b600060208284031215611ee357611ee2611ddd565b5b6000611ef184828501611eb8565b91505092915050565b7f4e487b7100000000000000000000000000000000000000000000000000000000600052603260045260246000fd5b600081519050611f3881611ea1565b92915050565b600060208284031215611f5457611f53611ddd565b5b6000611f6284828501611f29565b91505092915050565b600081519050611f7a81611dec565b92915050565b600060208284031215611f9657611f95611ddd565b5b6000611fa484828501611f6b565b91505092915050565b6000819050919050565b6000819050919050565b6000611fdc611fd7611fd284611fad565b611fb7565b611de2565b9050919050565b611fec81611fc1565b82525050565b60006040820190506120076000830185611e45565b6120146020830184611fe3565b9392505050565b6000819050919050565b600061204061203b6120368461201b565b611fb7565b611de2565b9050919050565b61205081612025565b82525050565b600060408201905061206b6000830185611e45565b6120786020830184612047565b9392505050565b7f4e487b7100000000000000000000000000000000000000000000000000000000600052601160045260246000fd5b60006120b982611de2565b91506120c483611de2565b9250817fffffffffffffffffffffffffffffffffffffffffffffffffffffffffffffffff04831182151516156120fd576120fc61207f565b5b828202905092915050565b600061211382611de2565b915061211e83611de2565b9250828210156121315761213061207f565b5b828203905092915050565b600061214782611de2565b915061215283611de2565b9250827fffffffffffffffffffffffffffffffffffffffffffffffffffffffffffffffff038211156121875761218661207f565b5b828201905092915050565b60006040820190506121a76000830185611e45565b6121b46020830184611e45565b9392505050565b6121c481611e8f565b82525050565b60006020820190506121df60008301846121bb565b92915050565b7f4e487b7100000000000000000000000000000000000000000000000000000000600052601260045260246000fd5b600061221f82611de2565b915061222a83611de2565b92508261223a576122396121e5565b5b828204905092915050565b600082825260208201905092915050565b7f496e697469616c697a61626c653a20636f6e747261637420697320616c72656160008201527f647920696e697469616c697a6564000000000000000000000000000000000000602082015250565b60006122b2602e83612245565b91506122bd82612256565b604082019050919050565b600060208201905081810360008301526122e1816122a5565b9050919050565b6000819050919050565b6123036122fe82611da9565b6122e8565b82525050565b600061231582846122f2565b60208201915081905092915050565b600061232f82611de2565b915061233a83611de2565b92508261234a576123496121e5565b5b828206905092915050565b600060608201905061236a60008301866121bb565b6123776020830185611fe3565b6123846040830184612047565b949350505050565b60006060820190506123a160008301866121bb565b6123ae60208301856121bb565b6123bb6040830184611e45565b949350505050565b60008115159050919050565b6123d8816123c3565b81146123e357600080fd5b50565b6000815190506123f5816123cf565b92915050565b60006020828403121561241157612410611ddd565b5b600061241f848285016123e6565b9150509291505056fea26469706673582212207cdfd000cdbdb47646faf67db09f26444208748ed06e3f975a755bde63a3289064736f6c634300080b0033",
  "immutableReferences": {},
  "source": "// SPDX-License-Identifier: UNLICENSED\r\n\r\npragma solidity ^0.8.3;\r\nimport \"./AbstractTree.sol\";\r\nimport \"./AbstractGameItems.sol\";\r\nimport \"../node_modules/@openzeppelin/contracts/token/ERC20/IERC20.sol\";\r\nimport \"../node_modules/@openzeppelin/contracts-upgradeable/proxy/utils/Initializable.sol\";\r\n\r\ncontract TreeQuestsV3 is Initializable {\r\n\r\n    event StartQuest(uint treeId, uint questId);\r\n    event CompleteQuest(uint treeId, uint questId);\r\n    event CancelQuest(uint treeId, uint questId);\r\n\r\n    address ContractOwner;\r\n    address TreasuryAddress;\r\n    \r\n    //Get TreeAddress after TreeContract Deployment\r\n    address TreeAddress;\r\n    \r\n    //Get TokenAddress after TokenContract Deployment\r\n    address TokenAddress;\r\n    address GameItemsAddress;\r\n    uint totalTreasuryBalance;\r\n\r\n    AbstractTree tree;\r\n    AbstractGameItems gameItems;\r\n\r\n    modifier onlyOwnerOf(uint _treeId) {\r\n        require(tree.ownerOf(_treeId) == msg.sender);\r\n        _;\r\n    }\r\n\r\n    modifier onlyOwner() {\r\n        require(ContractOwner == msg.sender);\r\n        _;\r\n    }\r\n\r\n    function initialize() initializer public {\r\n        ContractOwner = 0xf577601a5eF1d5079Da672f01D7aB3b80dD2bd1D;\r\n        TreasuryAddress = 0xfd768E668A158C173e9549d1632902C2A4363178;\r\n        TreeAddress = 0x066a907192376088248935AbaD90DaCD06E87F64;\r\n        TokenAddress = 0x54301761569145d50da03d8CfdfA19913f20Ed9b;\r\n        GameItemsAddress = 0x25ef7FdEA435D7Aaed551E8256792E46d0293d34;\r\n        totalTreasuryBalance = 4000000;\r\n        tree = AbstractTree(TreeAddress);\r\n        gameItems = AbstractGameItems(GameItemsAddress);\r\n    }\r\n    \r\n    // Util functions\r\n\r\n    function ceil(uint _a, uint _m) internal pure returns (uint ) {\r\n        return ((_a + _m - 1) / _m) * _m;\r\n    }\r\n\r\n    function treasuryMultiplicator() public view returns (uint) {\r\n        uint currentTreasuryBalance = IERC20(TokenAddress).balanceOf(TreasuryAddress);\r\n        if (currentTreasuryBalance >= totalTreasuryBalance*5/100) {\r\n            return 100;\r\n        } else if (currentTreasuryBalance >= totalTreasuryBalance*4/100) {\r\n            return 80;\r\n        } else if (currentTreasuryBalance >= totalTreasuryBalance*3/100) {\r\n            return 60;\r\n        } else if (currentTreasuryBalance >= totalTreasuryBalance*2/100) {\r\n            return 40;\r\n        } else if (currentTreasuryBalance >= totalTreasuryBalance*1/100) {\r\n            return 20;\r\n        } else if (currentTreasuryBalance >= totalTreasuryBalance*1/1000) {\r\n            return 5;\r\n        } else {\r\n            return 0;\r\n        }\r\n    }\r\n\r\n    function vrf() public view returns (bytes32 result) {\r\n        uint[1] memory bn;\r\n        bn[0] = block.number;\r\n        assembly {\r\n            let memPtr := mload(0x40)\r\n            if iszero(staticcall(not(0), 0xff, bn, 0x20, memPtr, 0x20)) {\r\n                invalid()\r\n            }\r\n            result := mload(memPtr)\r\n        }\r\n    }\r\n\r\n    //Payable Functions\r\n\r\n    //Quest0 Foraging\r\n\r\n    function startQuest0(uint treeId) public payable onlyOwnerOf(treeId) {\r\n        require(tree.questStatus(treeId) == 0);\r\n        uint questDuration = 30*60 - tree.treeTrainingGrounds(treeId)*3*60;\r\n        tree.updateQuestStatus(treeId, block.timestamp+questDuration);\r\n        emit StartQuest(treeId, 0);\r\n    }\r\n\r\n    function completeQuest0(uint treeId) public payable onlyOwnerOf(treeId) {\r\n        require(tree.questStatus(treeId) != 0);\r\n        require(block.timestamp >= tree.questStatus(treeId));\r\n\r\n        uint expReward = 10;\r\n        uint treeMult = ceil(tree.treeBarracks(treeId),5)/5;\r\n        uint treasuryMult = treasuryMultiplicator();\r\n        uint tokenReward = (1*10**18)*treasuryMult*treeMult/100;\r\n        \r\n        tree.updateQuestStatus(treeId, 0);\r\n        tree.gainExp(treeId, expReward);\r\n        IERC20(TokenAddress).transferFrom(TreasuryAddress, msg.sender, tokenReward);\r\n        emit CompleteQuest(treeId, 0);\r\n\r\n    }\r\n\r\n    function cancelQuest0(uint treeId) public payable onlyOwnerOf(treeId) {\r\n        require(tree.questStatus(treeId) != 0);\r\n        tree.updateQuestStatus(treeId, 0);\r\n        emit CancelQuest(treeId, 0);\r\n\r\n    }\r\n\r\n    //Quest1 Clean Roots\r\n\r\n    function startQuest1(uint treeId) public payable onlyOwnerOf(treeId) {\r\n        require(tree.questStatus(treeId) == 0);\r\n        uint questDuration = 10*60 - tree.treeTrainingGrounds(treeId)*1*60;\r\n        tree.updateQuestStatus(treeId, block.timestamp+questDuration);\r\n        emit StartQuest(treeId, 1);\r\n    }\r\n\r\n    function completeQuest1(uint treeId) public payable onlyOwnerOf(treeId) {\r\n        require(tree.questStatus(treeId) != 0);\r\n        require(block.timestamp >= tree.questStatus(treeId));\r\n\r\n        uint expReward = 100;\r\n        uint rand = uint(keccak256(abi.encodePacked(vrf())));\r\n        uint chance = rand%10;\r\n        tree.updateQuestStatus(treeId, 0);\r\n        tree.gainExp(treeId, expReward);\r\n        if (chance == 0) {\r\n            gameItems.mint(msg.sender, 0, 1);\r\n        }\r\n        emit CompleteQuest(treeId, 1);\r\n\r\n    }\r\n\r\n    function cancelQuest1(uint treeId) public payable onlyOwnerOf(treeId) {\r\n        require(tree.questStatus(treeId) != 0);\r\n        tree.updateQuestStatus(treeId, 0);\r\n        emit CancelQuest(treeId, 1);\r\n\r\n    }\r\n\r\n    //Transfer functions\r\n\r\n    function transferOwnership(address newOwner) public payable onlyOwner() {\r\n        ContractOwner = newOwner;\r\n    }\r\n\r\n    function transferTreasury(address newTreasury) public payable onlyOwner() {\r\n        TreasuryAddress = newTreasury;\r\n    }\r\n}",
  "sourcePath": "C:\\Users\\jtsch\\OneDrive\\Escritorio\\Python\\SmartContracts-NFT-Agus\\contracts\\TreeQuestsV3.sol",
  "compiler": {
    "name": "solc",
    "version": "0.8.11+commit.d7f03943.Emscripten.clang"
  },
  "schemaVersion": "3.4.3",
  "updatedAt": "2022-01-16T15:27:25.844Z",
  "devdoc": {
    "kind": "dev",
    "methods": {},
    "version": 1
  },
  "userdoc": {
    "kind": "user",
    "methods": {},
    "version": 1
  }
}