{
  "contractName": "TreeQuests",
  "abi": [
    {
      "anonymous": false,
      "inputs": [
        {
          "indexed": false,
          "internalType": "uint256",
          "name": "treeId",
          "type": "uint256"
        },
        {
          "indexed": false,
          "internalType": "uint256",
          "name": "questId",
          "type": "uint256"
        }
      ],
      "name": "CancelQuest",
      "type": "event"
    },
    {
      "anonymous": false,
      "inputs": [
        {
          "indexed": false,
          "internalType": "uint256",
          "name": "treeId",
          "type": "uint256"
        },
        {
          "indexed": false,
          "internalType": "uint256",
          "name": "questId",
          "type": "uint256"
        }
      ],
      "name": "CompleteQuest",
      "type": "event"
    },
    {
      "anonymous": false,
      "inputs": [
        {
          "indexed": false,
          "internalType": "uint256",
          "name": "treeId",
          "type": "uint256"
        },
        {
          "indexed": false,
          "internalType": "uint256",
          "name": "questId",
          "type": "uint256"
        }
      ],
      "name": "StartQuest",
      "type": "event"
    },
    {
      "inputs": [],
      "name": "initialize",
      "outputs": [],
      "stateMutability": "nonpayable",
      "type": "function"
    },
    {
      "inputs": [],
      "name": "treasuryMultiplicator",
      "outputs": [
        {
          "internalType": "uint256",
          "name": "",
          "type": "uint256"
        }
      ],
      "stateMutability": "view",
      "type": "function",
      "constant": true
    },
    {
      "inputs": [],
      "name": "vrf",
      "outputs": [
        {
          "internalType": "bytes32",
          "name": "result",
          "type": "bytes32"
        }
      ],
      "stateMutability": "view",
      "type": "function",
      "constant": true
    },
    {
      "inputs": [
        {
          "internalType": "uint256",
          "name": "treeId",
          "type": "uint256"
        }
      ],
      "name": "startQuest0",
      "outputs": [],
      "stateMutability": "payable",
      "type": "function",
      "payable": true
    },
    {
      "inputs": [
        {
          "internalType": "uint256",
          "name": "treeId",
          "type": "uint256"
        }
      ],
      "name": "completeQuest0",
      "outputs": [],
      "stateMutability": "payable",
      "type": "function",
      "payable": true
    },
    {
      "inputs": [
        {
          "internalType": "uint256",
          "name": "treeId",
          "type": "uint256"
        }
      ],
      "name": "cancelQuest0",
      "outputs": [],
      "stateMutability": "payable",
      "type": "function",
      "payable": true
    },
    {
      "inputs": [
        {
          "internalType": "uint256",
          "name": "treeId",
          "type": "uint256"
        }
      ],
      "name": "startQuest1",
      "outputs": [],
      "stateMutability": "payable",
      "type": "function",
      "payable": true
    },
    {
      "inputs": [
        {
          "internalType": "uint256",
          "name": "treeId",
          "type": "uint256"
        }
      ],
      "name": "completeQuest1",
      "outputs": [],
      "stateMutability": "payable",
      "type": "function",
      "payable": true
    },
    {
      "inputs": [
        {
          "internalType": "uint256",
          "name": "treeId",
          "type": "uint256"
        }
      ],
      "name": "cancelQuest1",
      "outputs": [],
      "stateMutability": "payable",
      "type": "function",
      "payable": true
    },
    {
      "inputs": [
        {
          "internalType": "address",
          "name": "newOwner",
          "type": "address"
        }
      ],
      "name": "transferOwnership",
      "outputs": [],
      "stateMutability": "payable",
      "type": "function",
      "payable": true
    },
    {
      "inputs": [
        {
          "internalType": "address",
          "name": "newTreasury",
          "type": "address"
        }
      ],
      "name": "transferTreasuryAddress",
      "outputs": [],
      "stateMutability": "payable",
      "type": "function",
      "payable": true
    },
    {
      "inputs": [
        {
          "internalType": "address",
          "name": "newToken",
          "type": "address"
        }
      ],
      "name": "transferTokenAddress",
      "outputs": [],
      "stateMutability": "payable",
      "type": "function",
      "payable": true
    },
    {
      "inputs": [
        {
          "internalType": "address",
          "name": "newGameItems",
          "type": "address"
        }
      ],
      "name": "transferGameItemsAddress",
      "outputs": [],
      "stateMutability": "payable",
      "type": "function",
      "payable": true
    },
    {
      "inputs": [
        {
          "internalType": "address",
          "name": "newTree",
          "type": "address"
        }
      ],
      "name": "transferTreeAddress",
      "outputs": [],
      "stateMutability": "payable",
      "type": "function",
      "payable": true
    }
  ],
  "bytecode": "0x608060405234801561001057600080fd5b506125ce806100206000396000f3fe6080604052600436106100dd5760003560e01c80636d9dcc451161007f57806383e70d7a1161005957806383e70d7a146102135780638a010a7d1461022f578063f2fde38b1461024b578063f8a65c4c14610267576100dd565b80636d9dcc45146101b557806373842b49146101e05780638129fc1c146101fc576100dd565b80634a6ed813116100bb5780634a6ed813146101455780634ed4d42a146101615780634fc052171461017d578063679fa4ad14610199576100dd565b8063098d7500146100e25780630c949043146100fe57806316f6bca914610129575b600080fd5b6100fc60048036038101906100f79190611f7c565b610283565b005b34801561010a57600080fd5b50610113610321565b6040516101209190611fc2565b60405180910390f35b610143600480360381019061013e9190611f7c565b610367565b005b61015f600480360381019061015a9190611f7c565b610468565b005b61017b60048036038101906101769190611f7c565b610569565b005b61019760048036038101906101929190612013565b610607565b005b6101b360048036038101906101ae9190612013565b610854565b005b3480156101c157600080fd5b506101ca610b72565b6040516101d7919061204f565b60405180910390f35b6101fa60048036038101906101f59190612013565b610d40565b005b34801561020857600080fd5b5061021161105e565b005b61022d60048036038101906102289190612013565b6111f6565b005b61024960048036038101906102449190612013565b611443565b005b61026560048036038101906102609190611f7c565b6118b5565b005b610281600480360381019061027c9190612013565b611953565b005b3373ffffffffffffffffffffffffffffffffffffffff16600060029054906101000a900473ffffffffffffffffffffffffffffffffffffffff1673ffffffffffffffffffffffffffffffffffffffff16146102dd57600080fd5b80600160006101000a81548173ffffffffffffffffffffffffffffffffffffffff021916908373ffffffffffffffffffffffffffffffffffffffff16021790555050565b600061032b611ef7565b43816000600181106103405761033f61206a565b5b60200201818152505060405160208160208460ff600019fa61035e57fe5b80519250505090565b3373ffffffffffffffffffffffffffffffffffffffff16600060029054906101000a900473ffffffffffffffffffffffffffffffffffffffff1673ffffffffffffffffffffffffffffffffffffffff16146103c157600080fd5b80600460006101000a81548173ffffffffffffffffffffffffffffffffffffffff021916908373ffffffffffffffffffffffffffffffffffffffff160217905550600460009054906101000a900473ffffffffffffffffffffffffffffffffffffffff16600760006101000a81548173ffffffffffffffffffffffffffffffffffffffff021916908373ffffffffffffffffffffffffffffffffffffffff16021790555050565b3373ffffffffffffffffffffffffffffffffffffffff16600060029054906101000a900473ffffffffffffffffffffffffffffffffffffffff1673ffffffffffffffffffffffffffffffffffffffff16146104c257600080fd5b80600260006101000a81548173ffffffffffffffffffffffffffffffffffffffff021916908373ffffffffffffffffffffffffffffffffffffffff160217905550600260009054906101000a900473ffffffffffffffffffffffffffffffffffffffff16600660006101000a81548173ffffffffffffffffffffffffffffffffffffffff021916908373ffffffffffffffffffffffffffffffffffffffff16021790555050565b3373ffffffffffffffffffffffffffffffffffffffff16600060029054906101000a900473ffffffffffffffffffffffffffffffffffffffff1673ffffffffffffffffffffffffffffffffffffffff16146105c357600080fd5b80600360006101000a81548173ffffffffffffffffffffffffffffffffffffffff021916908373ffffffffffffffffffffffffffffffffffffffff16021790555050565b803373ffffffffffffffffffffffffffffffffffffffff16600660009054906101000a900473ffffffffffffffffffffffffffffffffffffffff1673ffffffffffffffffffffffffffffffffffffffff16636352211e836040518263ffffffff1660e01b815260040161067a919061204f565b602060405180830381865afa158015610697573d6000803e3d6000fd5b505050506040513d601f19601f820116820180604052508101906106bb91906120ae565b73ffffffffffffffffffffffffffffffffffffffff16146106db57600080fd5b6000600660009054906101000a900473ffffffffffffffffffffffffffffffffffffffff1673ffffffffffffffffffffffffffffffffffffffff1663850b0f3c846040518263ffffffff1660e01b8152600401610738919061204f565b6020604051808303816000875af1158015610757573d6000803e3d6000fd5b505050506040513d601f19601f8201168201806040525081019061077b91906120f0565b141561078657600080fd5b600660009054906101000a900473ffffffffffffffffffffffffffffffffffffffff1673ffffffffffffffffffffffffffffffffffffffff16638536496f8360006040518363ffffffff1660e01b81526004016107e4929190612162565b600060405180830381600087803b1580156107fe57600080fd5b505af1158015610812573d6000803e3d6000fd5b505050507fa176029de55f35a0e3bc1dc9eb8a1c24f3e5c63e42d329733e334a63db95a8898260016040516108489291906121c6565b60405180910390a15050565b803373ffffffffffffffffffffffffffffffffffffffff16600660009054906101000a900473ffffffffffffffffffffffffffffffffffffffff1673ffffffffffffffffffffffffffffffffffffffff16636352211e836040518263ffffffff1660e01b81526004016108c7919061204f565b602060405180830381865afa1580156108e4573d6000803e3d6000fd5b505050506040513d601f19601f8201168201806040525081019061090891906120ae565b73ffffffffffffffffffffffffffffffffffffffff161461092857600080fd5b6000600660009054906101000a900473ffffffffffffffffffffffffffffffffffffffff1673ffffffffffffffffffffffffffffffffffffffff1663850b0f3c846040518263ffffffff1660e01b8152600401610985919061204f565b6020604051808303816000875af11580156109a4573d6000803e3d6000fd5b505050506040513d601f19601f820116820180604052508101906109c891906120f0565b146109d257600080fd5b6000603c6001600660009054906101000a900473ffffffffffffffffffffffffffffffffffffffff1673ffffffffffffffffffffffffffffffffffffffff16639c06eccd866040518263ffffffff1660e01b8152600401610a33919061204f565b6020604051808303816000875af1158015610a52573d6000803e3d6000fd5b505050506040513d601f19601f82011682018060405250810190610a7691906120f0565b610a80919061221e565b610a8a919061221e565b610258610a979190612278565b9050600660009054906101000a900473ffffffffffffffffffffffffffffffffffffffff1673ffffffffffffffffffffffffffffffffffffffff16638536496f848342610ae491906122ac565b6040518363ffffffff1660e01b8152600401610b01929190612302565b600060405180830381600087803b158015610b1b57600080fd5b505af1158015610b2f573d6000803e3d6000fd5b505050507ff4489fbfe0edc46e6905e1f77d624c12bcd689709fdd138371d8a7edf52f5e5d836001604051610b659291906121c6565b60405180910390a1505050565b600080600360009054906101000a900473ffffffffffffffffffffffffffffffffffffffff1673ffffffffffffffffffffffffffffffffffffffff166370a08231600160009054906101000a900473ffffffffffffffffffffffffffffffffffffffff166040518263ffffffff1660e01b8152600401610bf2919061233a565b602060405180830381865afa158015610c0f573d6000803e3d6000fd5b505050506040513d601f19601f82011682018060405250810190610c3391906120f0565b9050606460058054610c45919061221e565b610c4f9190612384565b8110610c5f576064915050610d3d565b60646004600554610c70919061221e565b610c7a9190612384565b8110610c8a576050915050610d3d565b60646003600554610c9b919061221e565b610ca59190612384565b8110610cb557603c915050610d3d565b60646002600554610cc6919061221e565b610cd09190612384565b8110610ce0576028915050610d3d565b60646001600554610cf1919061221e565b610cfb9190612384565b8110610d0b576014915050610d3d565b6103e86001600554610d1d919061221e565b610d279190612384565b8110610d37576005915050610d3d565b60009150505b90565b803373ffffffffffffffffffffffffffffffffffffffff16600660009054906101000a900473ffffffffffffffffffffffffffffffffffffffff1673ffffffffffffffffffffffffffffffffffffffff16636352211e836040518263ffffffff1660e01b8152600401610db3919061204f565b602060405180830381865afa158015610dd0573d6000803e3d6000fd5b505050506040513d601f19601f82011682018060405250810190610df491906120ae565b73ffffffffffffffffffffffffffffffffffffffff1614610e1457600080fd5b6000600660009054906101000a900473ffffffffffffffffffffffffffffffffffffffff1673ffffffffffffffffffffffffffffffffffffffff1663850b0f3c846040518263ffffffff1660e01b8152600401610e71919061204f565b6020604051808303816000875af1158015610e90573d6000803e3d6000fd5b505050506040513d601f19601f82011682018060405250810190610eb491906120f0565b14610ebe57600080fd5b6000603c6003600660009054906101000a900473ffffffffffffffffffffffffffffffffffffffff1673ffffffffffffffffffffffffffffffffffffffff16639c06eccd866040518263ffffffff1660e01b8152600401610f1f919061204f565b6020604051808303816000875af1158015610f3e573d6000803e3d6000fd5b505050506040513d601f19601f82011682018060405250810190610f6291906120f0565b610f6c919061221e565b610f76919061221e565b610708610f839190612278565b9050600660009054906101000a900473ffffffffffffffffffffffffffffffffffffffff1673ffffffffffffffffffffffffffffffffffffffff16638536496f848342610fd091906122ac565b6040518363ffffffff1660e01b8152600401610fed929190612302565b600060405180830381600087803b15801561100757600080fd5b505af115801561101b573d6000803e3d6000fd5b505050507ff4489fbfe0edc46e6905e1f77d624c12bcd689709fdd138371d8a7edf52f5e5d836000604051611051929190612162565b60405180910390a1505050565b600060019054906101000a900460ff166110865760008054906101000a900460ff161561108f565b61108e611e9b565b5b6110ce576040517f08c379a00000000000000000000000000000000000000000000000000000000081526004016110c590612438565b60405180910390fd5b60008060019054906101000a900460ff16159050801561111e576001600060016101000a81548160ff02191690831515021790555060016000806101000a81548160ff0219169083151502179055505b73f577601a5ef1d5079da672f01d7ab3b80dd2bd1d600060026101000a81548173ffffffffffffffffffffffffffffffffffffffff021916908373ffffffffffffffffffffffffffffffffffffffff16021790555073fd768e668a158c173e9549d1632902c2a4363178600160006101000a81548173ffffffffffffffffffffffffffffffffffffffff021916908373ffffffffffffffffffffffffffffffffffffffff160217905550623d090060058190555080156111f35760008060016101000a81548160ff0219169083151502179055505b50565b803373ffffffffffffffffffffffffffffffffffffffff16600660009054906101000a900473ffffffffffffffffffffffffffffffffffffffff1673ffffffffffffffffffffffffffffffffffffffff16636352211e836040518263ffffffff1660e01b8152600401611269919061204f565b602060405180830381865afa158015611286573d6000803e3d6000fd5b505050506040513d601f19601f820116820180604052508101906112aa91906120ae565b73ffffffffffffffffffffffffffffffffffffffff16146112ca57600080fd5b6000600660009054906101000a900473ffffffffffffffffffffffffffffffffffffffff1673ffffffffffffffffffffffffffffffffffffffff1663850b0f3c846040518263ffffffff1660e01b8152600401611327919061204f565b6020604051808303816000875af1158015611346573d6000803e3d6000fd5b505050506040513d601f19601f8201168201806040525081019061136a91906120f0565b141561137557600080fd5b600660009054906101000a900473ffffffffffffffffffffffffffffffffffffffff1673ffffffffffffffffffffffffffffffffffffffff16638536496f8360006040518363ffffffff1660e01b81526004016113d3929190612162565b600060405180830381600087803b1580156113ed57600080fd5b505af1158015611401573d6000803e3d6000fd5b505050507fa176029de55f35a0e3bc1dc9eb8a1c24f3e5c63e42d329733e334a63db95a889826000604051611437929190612162565b60405180910390a15050565b803373ffffffffffffffffffffffffffffffffffffffff16600660009054906101000a900473ffffffffffffffffffffffffffffffffffffffff1673ffffffffffffffffffffffffffffffffffffffff16636352211e836040518263ffffffff1660e01b81526004016114b6919061204f565b602060405180830381865afa1580156114d3573d6000803e3d6000fd5b505050506040513d601f19601f820116820180604052508101906114f791906120ae565b73ffffffffffffffffffffffffffffffffffffffff161461151757600080fd5b6000600660009054906101000a900473ffffffffffffffffffffffffffffffffffffffff1673ffffffffffffffffffffffffffffffffffffffff1663850b0f3c846040518263ffffffff1660e01b8152600401611574919061204f565b6020604051808303816000875af1158015611593573d6000803e3d6000fd5b505050506040513d601f19601f820116820180604052508101906115b791906120f0565b14156115c257600080fd5b600660009054906101000a900473ffffffffffffffffffffffffffffffffffffffff1673ffffffffffffffffffffffffffffffffffffffff1663850b0f3c836040518263ffffffff1660e01b815260040161161d919061204f565b6020604051808303816000875af115801561163c573d6000803e3d6000fd5b505050506040513d601f19601f8201168201806040525081019061166091906120f0565b42101561166c57600080fd5b600060649050600061167c610321565b60405160200161168c9190612479565b6040516020818303038152906040528051906020012060001c90506000600a826116b69190612494565b9050600660009054906101000a900473ffffffffffffffffffffffffffffffffffffffff1673ffffffffffffffffffffffffffffffffffffffff16638536496f8660006040518363ffffffff1660e01b8152600401611716929190612162565b600060405180830381600087803b15801561173057600080fd5b505af1158015611744573d6000803e3d6000fd5b50505050600660009054906101000a900473ffffffffffffffffffffffffffffffffffffffff1673ffffffffffffffffffffffffffffffffffffffff16636cad693286856040518363ffffffff1660e01b81526004016117a5929190612302565b600060405180830381600087803b1580156117bf57600080fd5b505af11580156117d3573d6000803e3d6000fd5b50505050600081141561187457600760009054906101000a900473ffffffffffffffffffffffffffffffffffffffff1673ffffffffffffffffffffffffffffffffffffffff1663156e29f633600060016040518463ffffffff1660e01b8152600401611841939291906124c5565b600060405180830381600087803b15801561185b57600080fd5b505af115801561186f573d6000803e3d6000fd5b505050505b7f30ee9e16196ba30cdcc7b150805a842d6ee2b4e5f912753ec25aae5a8016c0128560016040516118a69291906121c6565b60405180910390a15050505050565b3373ffffffffffffffffffffffffffffffffffffffff16600060029054906101000a900473ffffffffffffffffffffffffffffffffffffffff1673ffffffffffffffffffffffffffffffffffffffff161461190f57600080fd5b80600060026101000a81548173ffffffffffffffffffffffffffffffffffffffff021916908373ffffffffffffffffffffffffffffffffffffffff16021790555050565b803373ffffffffffffffffffffffffffffffffffffffff16600660009054906101000a900473ffffffffffffffffffffffffffffffffffffffff1673ffffffffffffffffffffffffffffffffffffffff16636352211e836040518263ffffffff1660e01b81526004016119c6919061204f565b602060405180830381865afa1580156119e3573d6000803e3d6000fd5b505050506040513d601f19601f82011682018060405250810190611a0791906120ae565b73ffffffffffffffffffffffffffffffffffffffff1614611a2757600080fd5b6000600660009054906101000a900473ffffffffffffffffffffffffffffffffffffffff1673ffffffffffffffffffffffffffffffffffffffff1663850b0f3c846040518263ffffffff1660e01b8152600401611a84919061204f565b6020604051808303816000875af1158015611aa3573d6000803e3d6000fd5b505050506040513d601f19601f82011682018060405250810190611ac791906120f0565b1415611ad257600080fd5b600660009054906101000a900473ffffffffffffffffffffffffffffffffffffffff1673ffffffffffffffffffffffffffffffffffffffff1663850b0f3c836040518263ffffffff1660e01b8152600401611b2d919061204f565b6020604051808303816000875af1158015611b4c573d6000803e3d6000fd5b505050506040513d601f19601f82011682018060405250810190611b7091906120f0565b421015611b7c57600080fd5b6000600a905060006005611c2e600660009054906101000a900473ffffffffffffffffffffffffffffffffffffffff1673ffffffffffffffffffffffffffffffffffffffff16635e31fcc6876040518263ffffffff1660e01b8152600401611be4919061204f565b6020604051808303816000875af1158015611c03573d6000803e3d6000fd5b505050506040513d601f19601f82011682018060405250810190611c2791906120f0565b6005611eac565b611c389190612384565b90506000611c44610b72565b9050600060648383670de0b6b3a7640000611c5f919061221e565b611c69919061221e565b611c739190612384565b9050600660009054906101000a900473ffffffffffffffffffffffffffffffffffffffff1673ffffffffffffffffffffffffffffffffffffffff16638536496f8760006040518363ffffffff1660e01b8152600401611cd3929190612162565b600060405180830381600087803b158015611ced57600080fd5b505af1158015611d01573d6000803e3d6000fd5b50505050600660009054906101000a900473ffffffffffffffffffffffffffffffffffffffff1673ffffffffffffffffffffffffffffffffffffffff16636cad693287866040518363ffffffff1660e01b8152600401611d62929190612302565b600060405180830381600087803b158015611d7c57600080fd5b505af1158015611d90573d6000803e3d6000fd5b50505050600360009054906101000a900473ffffffffffffffffffffffffffffffffffffffff1673ffffffffffffffffffffffffffffffffffffffff166323b872dd600160009054906101000a900473ffffffffffffffffffffffffffffffffffffffff1633846040518463ffffffff1660e01b8152600401611e15939291906124fc565b6020604051808303816000875af1158015611e34573d6000803e3d6000fd5b505050506040513d601f19601f82011682018060405250810190611e58919061256b565b507f30ee9e16196ba30cdcc7b150805a842d6ee2b4e5f912753ec25aae5a8016c012866000604051611e8b929190612162565b60405180910390a1505050505050565b6000611ea630611ee4565b15905090565b6000818260018486611ebe91906122ac565b611ec89190612278565b611ed29190612384565b611edc919061221e565b905092915050565b600080823b905060008111915050919050565b6040518060200160405280600190602082028036833780820191505090505090565b600080fd5b600073ffffffffffffffffffffffffffffffffffffffff82169050919050565b6000611f4982611f1e565b9050919050565b611f5981611f3e565b8114611f6457600080fd5b50565b600081359050611f7681611f50565b92915050565b600060208284031215611f9257611f91611f19565b5b6000611fa084828501611f67565b91505092915050565b6000819050919050565b611fbc81611fa9565b82525050565b6000602082019050611fd76000830184611fb3565b92915050565b6000819050919050565b611ff081611fdd565b8114611ffb57600080fd5b50565b60008135905061200d81611fe7565b92915050565b60006020828403121561202957612028611f19565b5b600061203784828501611ffe565b91505092915050565b61204981611fdd565b82525050565b60006020820190506120646000830184612040565b92915050565b7f4e487b7100000000000000000000000000000000000000000000000000000000600052603260045260246000fd5b6000815190506120a881611f50565b92915050565b6000602082840312156120c4576120c3611f19565b5b60006120d284828501612099565b91505092915050565b6000815190506120ea81611fe7565b92915050565b60006020828403121561210657612105611f19565b5b6000612114848285016120db565b91505092915050565b6000819050919050565b6000819050919050565b600061214c6121476121428461211d565b612127565b611fdd565b9050919050565b61215c81612131565b82525050565b60006040820190506121776000830185612040565b6121846020830184612153565b9392505050565b6000819050919050565b60006121b06121ab6121a68461218b565b612127565b611fdd565b9050919050565b6121c081612195565b82525050565b60006040820190506121db6000830185612040565b6121e860208301846121b7565b9392505050565b7f4e487b7100000000000000000000000000000000000000000000000000000000600052601160045260246000fd5b600061222982611fdd565b915061223483611fdd565b9250817fffffffffffffffffffffffffffffffffffffffffffffffffffffffffffffffff048311821515161561226d5761226c6121ef565b5b828202905092915050565b600061228382611fdd565b915061228e83611fdd565b9250828210156122a1576122a06121ef565b5b828203905092915050565b60006122b782611fdd565b91506122c283611fdd565b9250827fffffffffffffffffffffffffffffffffffffffffffffffffffffffffffffffff038211156122f7576122f66121ef565b5b828201905092915050565b60006040820190506123176000830185612040565b6123246020830184612040565b9392505050565b61233481611f3e565b82525050565b600060208201905061234f600083018461232b565b92915050565b7f4e487b7100000000000000000000000000000000000000000000000000000000600052601260045260246000fd5b600061238f82611fdd565b915061239a83611fdd565b9250826123aa576123a9612355565b5b828204905092915050565b600082825260208201905092915050565b7f496e697469616c697a61626c653a20636f6e747261637420697320616c72656160008201527f647920696e697469616c697a6564000000000000000000000000000000000000602082015250565b6000612422602e836123b5565b915061242d826123c6565b604082019050919050565b6000602082019050818103600083015261245181612415565b9050919050565b6000819050919050565b61247361246e82611fa9565b612458565b82525050565b60006124858284612462565b60208201915081905092915050565b600061249f82611fdd565b91506124aa83611fdd565b9250826124ba576124b9612355565b5b828206905092915050565b60006060820190506124da600083018661232b565b6124e76020830185612153565b6124f460408301846121b7565b949350505050565b6000606082019050612511600083018661232b565b61251e602083018561232b565b61252b6040830184612040565b949350505050565b60008115159050919050565b61254881612533565b811461255357600080fd5b50565b6000815190506125658161253f565b92915050565b60006020828403121561258157612580611f19565b5b600061258f84828501612556565b9150509291505056fea2646970667358221220e7e439922862a754d11036786da466e7f539080b4b0eec86f8f36deb63381a8864736f6c634300080b0033",
  "immutableReferences": {},
  "source": "// SPDX-License-Identifier: UNLICENSED\r\n\r\npragma solidity ^0.8.3;\r\nimport \"./AbstractTree.sol\";\r\nimport \"./AbstractGameItems.sol\";\r\nimport \"../node_modules/@openzeppelin/contracts/token/ERC20/IERC20.sol\";\r\nimport \"../node_modules/@openzeppelin/contracts-upgradeable/proxy/utils/Initializable.sol\";\r\n\r\ncontract TreeQuests is Initializable {\r\n\r\n    event StartQuest(uint treeId, uint questId);\r\n    event CompleteQuest(uint treeId, uint questId);\r\n    event CancelQuest(uint treeId, uint questId);\r\n\r\n    address ContractOwner;\r\n    address TreasuryAddress;\r\n    address TreeAddress;\r\n    address TokenAddress;\r\n    address GameItemsAddress;\r\n\r\n    uint totalTreasuryBalance;\r\n\r\n    AbstractTree tree;\r\n    AbstractGameItems gameItems;\r\n\r\n    modifier onlyOwnerOf(uint _treeId) {\r\n        require(tree.ownerOf(_treeId) == msg.sender);\r\n        _;\r\n    }\r\n\r\n    modifier onlyOwner() {\r\n        require(ContractOwner == msg.sender);\r\n        _;\r\n    }\r\n\r\n    function initialize() initializer public {\r\n        ContractOwner = 0xf577601a5eF1d5079Da672f01D7aB3b80dD2bd1D;\r\n        TreasuryAddress = 0xfd768E668A158C173e9549d1632902C2A4363178;\r\n\r\n        totalTreasuryBalance = 4000000;\r\n    }\r\n    \r\n    // Util functions\r\n\r\n    function ceil(uint _a, uint _m) internal pure returns (uint ) {\r\n        return ((_a + _m - 1) / _m) * _m;\r\n    }\r\n\r\n    function treasuryMultiplicator() public view returns (uint) {\r\n        uint currentTreasuryBalance = IERC20(TokenAddress).balanceOf(TreasuryAddress);\r\n        if (currentTreasuryBalance >= totalTreasuryBalance*5/100) {\r\n            return 100;\r\n        } else if (currentTreasuryBalance >= totalTreasuryBalance*4/100) {\r\n            return 80;\r\n        } else if (currentTreasuryBalance >= totalTreasuryBalance*3/100) {\r\n            return 60;\r\n        } else if (currentTreasuryBalance >= totalTreasuryBalance*2/100) {\r\n            return 40;\r\n        } else if (currentTreasuryBalance >= totalTreasuryBalance*1/100) {\r\n            return 20;\r\n        } else if (currentTreasuryBalance >= totalTreasuryBalance*1/1000) {\r\n            return 5;\r\n        } else {\r\n            return 0;\r\n        }\r\n    }\r\n\r\n    function vrf() public view returns (bytes32 result) {\r\n        uint[1] memory bn;\r\n        bn[0] = block.number;\r\n        assembly {\r\n            let memPtr := mload(0x40)\r\n            if iszero(staticcall(not(0), 0xff, bn, 0x20, memPtr, 0x20)) {\r\n                invalid()\r\n            }\r\n            result := mload(memPtr)\r\n        }\r\n    }\r\n\r\n    //Payable Functions\r\n\r\n    //Quest0 Foraging\r\n\r\n    function startQuest0(uint treeId) public payable onlyOwnerOf(treeId) {\r\n        require(tree.questStatus(treeId) == 0);\r\n        uint questDuration = 30*60 - tree.treeTrainingGrounds(treeId)*3*60;\r\n        tree.updateQuestStatus(treeId, block.timestamp+questDuration);\r\n        emit StartQuest(treeId, 0);\r\n    }\r\n\r\n    function completeQuest0(uint treeId) public payable onlyOwnerOf(treeId) {\r\n        require(tree.questStatus(treeId) != 0);\r\n        require(block.timestamp >= tree.questStatus(treeId));\r\n\r\n        uint expReward = 10;\r\n        uint treeMult = ceil(tree.treeBarracks(treeId),5)/5;\r\n        uint treasuryMult = treasuryMultiplicator();\r\n        uint tokenReward = (1*10**18)*treasuryMult*treeMult/100;\r\n        \r\n        tree.updateQuestStatus(treeId, 0);\r\n        tree.gainExp(treeId, expReward);\r\n        IERC20(TokenAddress).transferFrom(TreasuryAddress, msg.sender, tokenReward);\r\n        emit CompleteQuest(treeId, 0);\r\n\r\n    }\r\n\r\n    function cancelQuest0(uint treeId) public payable onlyOwnerOf(treeId) {\r\n        require(tree.questStatus(treeId) != 0);\r\n        tree.updateQuestStatus(treeId, 0);\r\n        emit CancelQuest(treeId, 0);\r\n\r\n    }\r\n\r\n    //Quest1 Clean Roots\r\n\r\n    function startQuest1(uint treeId) public payable onlyOwnerOf(treeId) {\r\n        require(tree.questStatus(treeId) == 0);\r\n        uint questDuration = 10*60 - tree.treeTrainingGrounds(treeId)*1*60;\r\n        tree.updateQuestStatus(treeId, block.timestamp+questDuration);\r\n        emit StartQuest(treeId, 1);\r\n    }\r\n\r\n    function completeQuest1(uint treeId) public payable onlyOwnerOf(treeId) {\r\n        require(tree.questStatus(treeId) != 0);\r\n        require(block.timestamp >= tree.questStatus(treeId));\r\n\r\n        uint expReward = 100;\r\n        uint rand = uint(keccak256(abi.encodePacked(vrf())));\r\n        uint chance = rand%10;\r\n        tree.updateQuestStatus(treeId, 0);\r\n        tree.gainExp(treeId, expReward);\r\n        if (chance == 0) {\r\n            gameItems.mint(msg.sender, 0, 1);\r\n        }\r\n        emit CompleteQuest(treeId, 1);\r\n\r\n    }\r\n\r\n    function cancelQuest1(uint treeId) public payable onlyOwnerOf(treeId) {\r\n        require(tree.questStatus(treeId) != 0);\r\n        tree.updateQuestStatus(treeId, 0);\r\n        emit CancelQuest(treeId, 1);\r\n\r\n    }\r\n\r\n    //Transfer functions\r\n\r\n    function transferOwnership(address newOwner) public payable onlyOwner() {\r\n        ContractOwner = newOwner;\r\n    }\r\n\r\n    function transferTreasuryAddress(address newTreasury) public payable onlyOwner() {\r\n        TreasuryAddress = newTreasury;\r\n    }\r\n\r\n    function transferTokenAddress(address newToken) public payable onlyOwner() {\r\n        TokenAddress = newToken;\r\n    }\r\n\r\n    function transferGameItemsAddress(address newGameItems) public payable onlyOwner() {\r\n        GameItemsAddress = newGameItems;\r\n        gameItems = AbstractGameItems(GameItemsAddress);\r\n    }\r\n\r\n    function transferTreeAddress(address newTree) public payable onlyOwner() {\r\n        TreeAddress = newTree;\r\n        tree = AbstractTree(TreeAddress);\r\n    }\r\n}",
  "sourcePath": "C:\\Users\\jtsch\\OneDrive\\Escritorio\\Python\\SmartContracts-NFT-Agus\\contracts\\TreeQuests.sol",
  "compiler": {
    "name": "solc",
    "version": "0.8.11+commit.d7f03943.Emscripten.clang"
  },
  "schemaVersion": "3.4.3",
  "updatedAt": "2022-01-16T16:07:54.603Z",
  "networkType": "ethereum",
  "devdoc": {
    "kind": "dev",
    "methods": {},
    "version": 1
  },
  "userdoc": {
    "kind": "user",
    "methods": {},
    "version": 1
  }
}