{
  "contractName": "Tree",
  "abi": [
    {
      "anonymous": false,
      "inputs": [
        {
          "indexed": true,
          "internalType": "address",
          "name": "owner",
          "type": "address"
        },
        {
          "indexed": true,
          "internalType": "address",
          "name": "approved",
          "type": "address"
        },
        {
          "indexed": true,
          "internalType": "uint256",
          "name": "tokenId",
          "type": "uint256"
        }
      ],
      "name": "Approval",
      "type": "event"
    },
    {
      "anonymous": false,
      "inputs": [
        {
          "indexed": true,
          "internalType": "address",
          "name": "owner",
          "type": "address"
        },
        {
          "indexed": true,
          "internalType": "address",
          "name": "operator",
          "type": "address"
        },
        {
          "indexed": false,
          "internalType": "bool",
          "name": "approved",
          "type": "bool"
        }
      ],
      "name": "ApprovalForAll",
      "type": "event"
    },
    {
      "anonymous": false,
      "inputs": [
        {
          "indexed": false,
          "internalType": "uint256",
          "name": "treeId",
          "type": "uint256"
        },
        {
          "indexed": false,
          "internalType": "uint256",
          "name": "amount",
          "type": "uint256"
        }
      ],
      "name": "GainExp",
      "type": "event"
    },
    {
      "anonymous": false,
      "inputs": [
        {
          "indexed": false,
          "internalType": "uint256",
          "name": "treeId",
          "type": "uint256"
        }
      ],
      "name": "GainLevel",
      "type": "event"
    },
    {
      "anonymous": false,
      "inputs": [
        {
          "indexed": false,
          "internalType": "uint256",
          "name": "treeId",
          "type": "uint256"
        }
      ],
      "name": "NewTree",
      "type": "event"
    },
    {
      "anonymous": false,
      "inputs": [
        {
          "indexed": true,
          "internalType": "bytes32",
          "name": "role",
          "type": "bytes32"
        },
        {
          "indexed": true,
          "internalType": "bytes32",
          "name": "previousAdminRole",
          "type": "bytes32"
        },
        {
          "indexed": true,
          "internalType": "bytes32",
          "name": "newAdminRole",
          "type": "bytes32"
        }
      ],
      "name": "RoleAdminChanged",
      "type": "event"
    },
    {
      "anonymous": false,
      "inputs": [
        {
          "indexed": true,
          "internalType": "bytes32",
          "name": "role",
          "type": "bytes32"
        },
        {
          "indexed": true,
          "internalType": "address",
          "name": "account",
          "type": "address"
        },
        {
          "indexed": true,
          "internalType": "address",
          "name": "sender",
          "type": "address"
        }
      ],
      "name": "RoleGranted",
      "type": "event"
    },
    {
      "anonymous": false,
      "inputs": [
        {
          "indexed": true,
          "internalType": "bytes32",
          "name": "role",
          "type": "bytes32"
        },
        {
          "indexed": true,
          "internalType": "address",
          "name": "account",
          "type": "address"
        },
        {
          "indexed": true,
          "internalType": "address",
          "name": "sender",
          "type": "address"
        }
      ],
      "name": "RoleRevoked",
      "type": "event"
    },
    {
      "anonymous": false,
      "inputs": [
        {
          "indexed": false,
          "internalType": "uint256",
          "name": "treeId",
          "type": "uint256"
        },
        {
          "indexed": false,
          "internalType": "uint256",
          "name": "statId",
          "type": "uint256"
        }
      ],
      "name": "StatLevelUp",
      "type": "event"
    },
    {
      "anonymous": false,
      "inputs": [
        {
          "indexed": true,
          "internalType": "address",
          "name": "from",
          "type": "address"
        },
        {
          "indexed": true,
          "internalType": "address",
          "name": "to",
          "type": "address"
        },
        {
          "indexed": true,
          "internalType": "uint256",
          "name": "tokenId",
          "type": "uint256"
        }
      ],
      "name": "Transfer",
      "type": "event"
    },
    {
      "inputs": [],
      "name": "DEFAULT_ADMIN_ROLE",
      "outputs": [
        {
          "internalType": "bytes32",
          "name": "",
          "type": "bytes32"
        }
      ],
      "stateMutability": "view",
      "type": "function",
      "constant": true
    },
    {
      "inputs": [],
      "name": "QUEST_ROLE",
      "outputs": [
        {
          "internalType": "bytes32",
          "name": "",
          "type": "bytes32"
        }
      ],
      "stateMutability": "view",
      "type": "function",
      "constant": true
    },
    {
      "inputs": [],
      "name": "UPG_ROLE",
      "outputs": [
        {
          "internalType": "bytes32",
          "name": "",
          "type": "bytes32"
        }
      ],
      "stateMutability": "view",
      "type": "function",
      "constant": true
    },
    {
      "inputs": [
        {
          "internalType": "address",
          "name": "to",
          "type": "address"
        },
        {
          "internalType": "uint256",
          "name": "tokenId",
          "type": "uint256"
        }
      ],
      "name": "approve",
      "outputs": [],
      "stateMutability": "nonpayable",
      "type": "function"
    },
    {
      "inputs": [
        {
          "internalType": "address",
          "name": "owner",
          "type": "address"
        }
      ],
      "name": "balanceOf",
      "outputs": [
        {
          "internalType": "uint256",
          "name": "",
          "type": "uint256"
        }
      ],
      "stateMutability": "view",
      "type": "function",
      "constant": true
    },
    {
      "inputs": [
        {
          "internalType": "uint256",
          "name": "tokenId",
          "type": "uint256"
        }
      ],
      "name": "getApproved",
      "outputs": [
        {
          "internalType": "address",
          "name": "",
          "type": "address"
        }
      ],
      "stateMutability": "view",
      "type": "function",
      "constant": true
    },
    {
      "inputs": [
        {
          "internalType": "bytes32",
          "name": "role",
          "type": "bytes32"
        }
      ],
      "name": "getRoleAdmin",
      "outputs": [
        {
          "internalType": "bytes32",
          "name": "",
          "type": "bytes32"
        }
      ],
      "stateMutability": "view",
      "type": "function",
      "constant": true
    },
    {
      "inputs": [
        {
          "internalType": "bytes32",
          "name": "role",
          "type": "bytes32"
        },
        {
          "internalType": "address",
          "name": "account",
          "type": "address"
        }
      ],
      "name": "grantRole",
      "outputs": [],
      "stateMutability": "nonpayable",
      "type": "function"
    },
    {
      "inputs": [
        {
          "internalType": "bytes32",
          "name": "role",
          "type": "bytes32"
        },
        {
          "internalType": "address",
          "name": "account",
          "type": "address"
        }
      ],
      "name": "hasRole",
      "outputs": [
        {
          "internalType": "bool",
          "name": "",
          "type": "bool"
        }
      ],
      "stateMutability": "view",
      "type": "function",
      "constant": true
    },
    {
      "inputs": [
        {
          "internalType": "address",
          "name": "owner",
          "type": "address"
        },
        {
          "internalType": "address",
          "name": "operator",
          "type": "address"
        }
      ],
      "name": "isApprovedForAll",
      "outputs": [
        {
          "internalType": "bool",
          "name": "",
          "type": "bool"
        }
      ],
      "stateMutability": "view",
      "type": "function",
      "constant": true
    },
    {
      "inputs": [],
      "name": "name",
      "outputs": [
        {
          "internalType": "string",
          "name": "",
          "type": "string"
        }
      ],
      "stateMutability": "view",
      "type": "function",
      "constant": true
    },
    {
      "inputs": [
        {
          "internalType": "uint256",
          "name": "tokenId",
          "type": "uint256"
        }
      ],
      "name": "ownerOf",
      "outputs": [
        {
          "internalType": "address",
          "name": "",
          "type": "address"
        }
      ],
      "stateMutability": "view",
      "type": "function",
      "constant": true
    },
    {
      "inputs": [
        {
          "internalType": "bytes32",
          "name": "role",
          "type": "bytes32"
        },
        {
          "internalType": "address",
          "name": "account",
          "type": "address"
        }
      ],
      "name": "renounceRole",
      "outputs": [],
      "stateMutability": "nonpayable",
      "type": "function"
    },
    {
      "inputs": [
        {
          "internalType": "bytes32",
          "name": "role",
          "type": "bytes32"
        },
        {
          "internalType": "address",
          "name": "account",
          "type": "address"
        }
      ],
      "name": "revokeRole",
      "outputs": [],
      "stateMutability": "nonpayable",
      "type": "function"
    },
    {
      "inputs": [
        {
          "internalType": "address",
          "name": "from",
          "type": "address"
        },
        {
          "internalType": "address",
          "name": "to",
          "type": "address"
        },
        {
          "internalType": "uint256",
          "name": "tokenId",
          "type": "uint256"
        }
      ],
      "name": "safeTransferFrom",
      "outputs": [],
      "stateMutability": "nonpayable",
      "type": "function"
    },
    {
      "inputs": [
        {
          "internalType": "address",
          "name": "from",
          "type": "address"
        },
        {
          "internalType": "address",
          "name": "to",
          "type": "address"
        },
        {
          "internalType": "uint256",
          "name": "tokenId",
          "type": "uint256"
        },
        {
          "internalType": "bytes",
          "name": "_data",
          "type": "bytes"
        }
      ],
      "name": "safeTransferFrom",
      "outputs": [],
      "stateMutability": "nonpayable",
      "type": "function"
    },
    {
      "inputs": [
        {
          "internalType": "address",
          "name": "operator",
          "type": "address"
        },
        {
          "internalType": "bool",
          "name": "approved",
          "type": "bool"
        }
      ],
      "name": "setApprovalForAll",
      "outputs": [],
      "stateMutability": "nonpayable",
      "type": "function"
    },
    {
      "inputs": [],
      "name": "symbol",
      "outputs": [
        {
          "internalType": "string",
          "name": "",
          "type": "string"
        }
      ],
      "stateMutability": "view",
      "type": "function",
      "constant": true
    },
    {
      "inputs": [
        {
          "internalType": "uint256",
          "name": "tokenId",
          "type": "uint256"
        }
      ],
      "name": "tokenURI",
      "outputs": [
        {
          "internalType": "string",
          "name": "",
          "type": "string"
        }
      ],
      "stateMutability": "view",
      "type": "function",
      "constant": true
    },
    {
      "inputs": [
        {
          "internalType": "address",
          "name": "from",
          "type": "address"
        },
        {
          "internalType": "address",
          "name": "to",
          "type": "address"
        },
        {
          "internalType": "uint256",
          "name": "tokenId",
          "type": "uint256"
        }
      ],
      "name": "transferFrom",
      "outputs": [],
      "stateMutability": "nonpayable",
      "type": "function"
    },
    {
      "inputs": [
        {
          "internalType": "uint256",
          "name": "",
          "type": "uint256"
        }
      ],
      "name": "trees",
      "outputs": [
        {
          "internalType": "uint256",
          "name": "treeDNA",
          "type": "uint256"
        },
        {
          "internalType": "uint256",
          "name": "level",
          "type": "uint256"
        },
        {
          "internalType": "uint256",
          "name": "exp",
          "type": "uint256"
        },
        {
          "internalType": "uint256",
          "name": "roots",
          "type": "uint256"
        },
        {
          "internalType": "uint256",
          "name": "branches",
          "type": "uint256"
        },
        {
          "internalType": "uint256",
          "name": "action",
          "type": "uint256"
        },
        {
          "internalType": "uint256",
          "name": "onActionUntil",
          "type": "uint256"
        }
      ],
      "stateMutability": "view",
      "type": "function",
      "constant": true
    },
    {
      "inputs": [
        {
          "internalType": "bytes4",
          "name": "interfaceId",
          "type": "bytes4"
        }
      ],
      "name": "supportsInterface",
      "outputs": [
        {
          "internalType": "bool",
          "name": "",
          "type": "bool"
        }
      ],
      "stateMutability": "view",
      "type": "function",
      "constant": true
    },
    {
      "inputs": [],
      "name": "initialize",
      "outputs": [],
      "stateMutability": "nonpayable",
      "type": "function"
    },
    {
      "inputs": [],
      "name": "vrf",
      "outputs": [
        {
          "internalType": "bytes32",
          "name": "result",
          "type": "bytes32"
        }
      ],
      "stateMutability": "view",
      "type": "function",
      "constant": true
    },
    {
      "inputs": [
        {
          "internalType": "uint256",
          "name": "treeId",
          "type": "uint256"
        }
      ],
      "name": "treeDNA",
      "outputs": [
        {
          "internalType": "uint256",
          "name": "",
          "type": "uint256"
        }
      ],
      "stateMutability": "view",
      "type": "function",
      "constant": true
    },
    {
      "inputs": [
        {
          "internalType": "uint256",
          "name": "treeId",
          "type": "uint256"
        }
      ],
      "name": "treeLevel",
      "outputs": [
        {
          "internalType": "uint256",
          "name": "",
          "type": "uint256"
        }
      ],
      "stateMutability": "view",
      "type": "function",
      "constant": true
    },
    {
      "inputs": [
        {
          "internalType": "uint256",
          "name": "treeId",
          "type": "uint256"
        }
      ],
      "name": "treeExp",
      "outputs": [
        {
          "internalType": "uint256",
          "name": "",
          "type": "uint256"
        }
      ],
      "stateMutability": "view",
      "type": "function",
      "constant": true
    },
    {
      "inputs": [
        {
          "internalType": "uint256",
          "name": "treeId",
          "type": "uint256"
        }
      ],
      "name": "treeRoots",
      "outputs": [
        {
          "internalType": "uint256",
          "name": "",
          "type": "uint256"
        }
      ],
      "stateMutability": "view",
      "type": "function",
      "constant": true
    },
    {
      "inputs": [
        {
          "internalType": "uint256",
          "name": "treeId",
          "type": "uint256"
        }
      ],
      "name": "treeBranches",
      "outputs": [
        {
          "internalType": "uint256",
          "name": "",
          "type": "uint256"
        }
      ],
      "stateMutability": "view",
      "type": "function",
      "constant": true
    },
    {
      "inputs": [
        {
          "internalType": "uint256",
          "name": "treeId",
          "type": "uint256"
        }
      ],
      "name": "actionStatus",
      "outputs": [
        {
          "internalType": "uint256",
          "name": "",
          "type": "uint256"
        }
      ],
      "stateMutability": "view",
      "type": "function",
      "constant": true
    },
    {
      "inputs": [
        {
          "internalType": "uint256",
          "name": "treeId",
          "type": "uint256"
        }
      ],
      "name": "currentAction",
      "outputs": [
        {
          "internalType": "uint256",
          "name": "",
          "type": "uint256"
        }
      ],
      "stateMutability": "view",
      "type": "function",
      "constant": true
    },
    {
      "inputs": [],
      "name": "currentPrice",
      "outputs": [
        {
          "internalType": "uint256",
          "name": "",
          "type": "uint256"
        }
      ],
      "stateMutability": "view",
      "type": "function",
      "constant": true
    },
    {
      "inputs": [],
      "name": "treesQuantity",
      "outputs": [
        {
          "internalType": "uint256",
          "name": "",
          "type": "uint256"
        }
      ],
      "stateMutability": "view",
      "type": "function",
      "constant": true
    },
    {
      "inputs": [
        {
          "internalType": "uint256",
          "name": "treeId",
          "type": "uint256"
        },
        {
          "internalType": "address",
          "name": "user",
          "type": "address"
        }
      ],
      "name": "gainLevel",
      "outputs": [],
      "stateMutability": "nonpayable",
      "type": "function"
    },
    {
      "inputs": [
        {
          "internalType": "uint256",
          "name": "treeId",
          "type": "uint256"
        },
        {
          "internalType": "uint256",
          "name": "amount",
          "type": "uint256"
        }
      ],
      "name": "gainExp",
      "outputs": [],
      "stateMutability": "nonpayable",
      "type": "function"
    },
    {
      "inputs": [
        {
          "internalType": "uint256",
          "name": "treeId",
          "type": "uint256"
        },
        {
          "internalType": "address",
          "name": "user",
          "type": "address"
        }
      ],
      "name": "levelUpBranches",
      "outputs": [],
      "stateMutability": "nonpayable",
      "type": "function"
    },
    {
      "inputs": [
        {
          "internalType": "uint256",
          "name": "treeId",
          "type": "uint256"
        },
        {
          "internalType": "address",
          "name": "user",
          "type": "address"
        }
      ],
      "name": "levelUpRoots",
      "outputs": [],
      "stateMutability": "nonpayable",
      "type": "function"
    },
    {
      "inputs": [
        {
          "internalType": "uint256",
          "name": "treeId",
          "type": "uint256"
        },
        {
          "internalType": "uint256",
          "name": "action",
          "type": "uint256"
        },
        {
          "internalType": "uint256",
          "name": "time",
          "type": "uint256"
        }
      ],
      "name": "updateAction",
      "outputs": [],
      "stateMutability": "nonpayable",
      "type": "function"
    },
    {
      "inputs": [],
      "name": "createNewTree",
      "outputs": [],
      "stateMutability": "payable",
      "type": "function",
      "payable": true
    },
    {
      "inputs": [
        {
          "internalType": "address payable",
          "name": "newDevelopment",
          "type": "address"
        }
      ],
      "name": "transferDevelopmentAddress",
      "outputs": [],
      "stateMutability": "nonpayable",
      "type": "function"
    },
    {
      "inputs": [
        {
          "internalType": "address payable",
          "name": "newTreasury",
          "type": "address"
        }
      ],
      "name": "transferTreasuryAddress",
      "outputs": [],
      "stateMutability": "nonpayable",
      "type": "function"
    },
    {
      "inputs": [
        {
          "internalType": "address",
          "name": "newToken",
          "type": "address"
        }
      ],
      "name": "transferTokenAddress",
      "outputs": [],
      "stateMutability": "nonpayable",
      "type": "function"
    }
  ],
  "bytecode": "0x608060405234801561001057600080fd5b506155c680620000216000396000f3fe6080604052600436106102505760003560e01c806370a0823111610139578063a217fddf116100b6578063b88d4fde1161007a578063b88d4fde146108ee578063b906866a14610917578063c87b56dd14610954578063d547741f14610991578063d94406f2146109ba578063e985e9c5146109f757610250565b8063a217fddf14610807578063a22cb46514610832578063a5caf0f61461085b578063af2fa83114610898578063b3c7663c146108c357610250565b80638bbfcac3116100fd5780638bbfcac31461070e57806391d148541461074b57806395d89b41146107885780639d1b464a146107b35780639dcb26e6146107de57610250565b806370a08231146106115780637a5080221461064e5780637b5aa51d146106915780638129fc1c146106ce578063862314c2146106e557610250565b8063248a9ca3116101d257806336568abe1161019657806336568abe146104f357806342842e0e1461051c5780634ed4d42a146105455780635fa461fc1461056e5780636352211e146105ab5780636cad6932146105e857610250565b8063248a9ca3146103fe5780632b60b9861461043b5780632cb98b65146104645780632f2ff15d1461048d578063364051a6146104b657610250565b8063098d750011610219578063098d75001461034e5780630c9490431461037757806310d1eb2a146103a25780631af92ed3146103ac57806323b872dd146103d557610250565b8062e23cfc1461025557806301ffc9a71461028057806306fdde03146102bd578063081812fc146102e8578063095ea7b314610325575b600080fd5b34801561026157600080fd5b5061026a610a34565b6040516102779190613b3f565b60405180910390f35b34801561028c57600080fd5b506102a760048036038101906102a29190613bc6565b610a58565b6040516102b49190613c0e565b60405180910390f35b3480156102c957600080fd5b506102d2610a6a565b6040516102df9190613cc2565b60405180910390f35b3480156102f457600080fd5b5061030f600480360381019061030a9190613d1a565b610afc565b60405161031c9190613d88565b60405180910390f35b34801561033157600080fd5b5061034c60048036038101906103479190613dcf565b610b81565b005b34801561035a57600080fd5b5061037560048036038101906103709190613e4d565b610c99565b005b34801561038357600080fd5b5061038c610cf3565b6040516103999190613b3f565b60405180910390f35b6103aa610d39565b005b3480156103b857600080fd5b506103d360048036038101906103ce9190613e4d565b610ece565b005b3480156103e157600080fd5b506103fc60048036038101906103f79190613e7a565b610f28565b005b34801561040a57600080fd5b5061042560048036038101906104209190613ef9565b610f88565b6040516104329190613b3f565b60405180910390f35b34801561044757600080fd5b50610462600480360381019061045d9190613f26565b610fa8565b005b34801561047057600080fd5b5061048b60048036038101906104869190613f79565b611034565b005b34801561049957600080fd5b506104b460048036038101906104af9190613fb9565b611380565b005b3480156104c257600080fd5b506104dd60048036038101906104d89190613d1a565b6113a9565b6040516104ea9190614008565b60405180910390f35b3480156104ff57600080fd5b5061051a60048036038101906105159190613fb9565b6113d8565b005b34801561052857600080fd5b50610543600480360381019061053e9190613e7a565b61145b565b005b34801561055157600080fd5b5061056c60048036038101906105679190614023565b61147b565b005b34801561057a57600080fd5b5061059560048036038101906105909190613d1a565b6114d5565b6040516105a29190614008565b60405180910390f35b3480156105b757600080fd5b506105d260048036038101906105cd9190613d1a565b611504565b6040516105df9190613d88565b60405180910390f35b3480156105f457600080fd5b5061060f600480360381019061060a9190614050565b6115b6565b005b34801561061d57600080fd5b5061063860048036038101906106339190614023565b611680565b6040516106459190614008565b60405180910390f35b34801561065a57600080fd5b5061067560048036038101906106709190613d1a565b611738565b6040516106889796959493929190614090565b60405180910390f35b34801561069d57600080fd5b506106b860048036038101906106b39190613d1a565b61178a565b6040516106c59190614008565b60405180910390f35b3480156106da57600080fd5b506106e36117b9565b005b3480156106f157600080fd5b5061070c60048036038101906107079190613f79565b6119e5565b005b34801561071a57600080fd5b5061073560048036038101906107309190613d1a565b611d31565b6040516107429190614008565b60405180910390f35b34801561075757600080fd5b50610772600480360381019061076d9190613fb9565b611d60565b60405161077f9190613c0e565b60405180910390f35b34801561079457600080fd5b5061079d611dcb565b6040516107aa9190613cc2565b60405180910390f35b3480156107bf57600080fd5b506107c8611e5d565b6040516107d59190614008565b60405180910390f35b3480156107ea57600080fd5b5061080560048036038101906108009190613f79565b611ecb565b005b34801561081357600080fd5b5061081c61229f565b6040516108299190613b3f565b60405180910390f35b34801561083e57600080fd5b506108596004803603810190610854919061412b565b6122a6565b005b34801561086757600080fd5b50610882600480360381019061087d9190613d1a565b6122bc565b60405161088f9190614008565b60405180910390f35b3480156108a457600080fd5b506108ad6122eb565b6040516108ba9190614008565b60405180910390f35b3480156108cf57600080fd5b506108d86122fd565b6040516108e59190613b3f565b60405180910390f35b3480156108fa57600080fd5b50610915600480360381019061091091906142a0565b612321565b005b34801561092357600080fd5b5061093e60048036038101906109399190613d1a565b612383565b60405161094b9190614008565b60405180910390f35b34801561096057600080fd5b5061097b60048036038101906109769190613d1a565b6123b2565b6040516109889190613cc2565b60405180910390f35b34801561099d57600080fd5b506109b860048036038101906109b39190613fb9565b612459565b005b3480156109c657600080fd5b506109e160048036038101906109dc9190613d1a565b612482565b6040516109ee9190614008565b60405180910390f35b348015610a0357600080fd5b50610a1e6004803603810190610a199190614323565b6124b1565b604051610a2b9190613c0e565b60405180910390f35b7f19ac353dd86d6954025a359137447e1fda8f14ba7ba6373372af73b706fa3b2281565b6000610a6382612545565b9050919050565b606060658054610a7990614392565b80601f0160208091040260200160405190810160405280929190818152602001828054610aa590614392565b8015610af25780601f10610ac757610100808354040283529160200191610af2565b820191906000526020600020905b815481529060010190602001808311610ad557829003601f168201915b5050505050905090565b6000610b07826125bf565b610b46576040517f08c379a0000000000000000000000000000000000000000000000000000000008152600401610b3d90614436565b60405180910390fd5b6069600083815260200190815260200160002060009054906101000a900473ffffffffffffffffffffffffffffffffffffffff169050919050565b6000610b8c82611504565b90508073ffffffffffffffffffffffffffffffffffffffff168373ffffffffffffffffffffffffffffffffffffffff161415610bfd576040517f08c379a0000000000000000000000000000000000000000000000000000000008152600401610bf4906144c8565b60405180910390fd5b8073ffffffffffffffffffffffffffffffffffffffff16610c1c61262b565b73ffffffffffffffffffffffffffffffffffffffff161480610c4b5750610c4a81610c4561262b565b6124b1565b5b610c8a576040517f08c379a0000000000000000000000000000000000000000000000000000000008152600401610c819061455a565b60405180910390fd5b610c948383612633565b505050565b6000801b610cae81610ca961262b565b6126ec565b8160cc60006101000a81548173ffffffffffffffffffffffffffffffffffffffff021916908373ffffffffffffffffffffffffffffffffffffffff1602179055505050565b6000610cfd613a61565b4381600060018110610d1257610d1161457a565b5b60200201818152505060405160208160208460ff600019fa610d3057fe5b80519250505090565b600073ffffffffffffffffffffffffffffffffffffffff163373ffffffffffffffffffffffffffffffffffffffff1614158015610da257503073ffffffffffffffffffffffffffffffffffffffff163373ffffffffffffffffffffffffffffffffffffffff1614155b610dab57600080fd5b610db3611e5d565b3414610dbe57600080fd5b600060ce8054905090506000610dd2612789565b905060ce6040518060e00160405280838152602001600181526020016000815260200160018152602001600181526020016000815260200160008152509080600181540180825580915050600190039060005260206000209060070201600090919091909150600082015181600001556020820151816001015560408201518160020155606082015181600301556080820151816004015560a0820151816005015560c082015181600601555050610e8a33836127d3565b610e93826129a1565b7f5aa7f45898fcb5638757632f4ea98818ccb1f1b865b0721648cfb14cfcd2da9a82604051610ec29190614008565b60405180910390a15050565b6000801b610ee381610ede61262b565b6126ec565b8160cb60006101000a81548173ffffffffffffffffffffffffffffffffffffffff021916908373ffffffffffffffffffffffffffffffffffffffff1602179055505050565b610f39610f3361262b565b82612b4c565b610f78576040517f08c379a0000000000000000000000000000000000000000000000000000000008152600401610f6f9061461b565b60405180910390fd5b610f83838383612c2a565b505050565b600060976000838152602001908152602001600020600101549050919050565b7f19ac353dd86d6954025a359137447e1fda8f14ba7ba6373372af73b706fa3b22610fda81610fd561262b565b6126ec565b8160ce8581548110610fef57610fee61457a565b5b9060005260206000209060070201600601819055508260ce85815481106110195761101861457a565b5b90600052602060002090600702016005018190555050505050565b7f8b83cff217526f65affab658236a6c4f2d8020cd01ccd4c27987c26870279b146110668161106161262b565b6126ec565b6000670de0b6b3a764000060ce85815481106110855761108461457a565b5b9060005260206000209060070201600301546110a1919061466a565b90508060cd60009054906101000a900473ffffffffffffffffffffffffffffffffffffffff1673ffffffffffffffffffffffffffffffffffffffff166370a08231856040518263ffffffff1660e01b81526004016110ff9190613d88565b602060405180830381865afa15801561111c573d6000803e3d6000fd5b505050506040513d601f19601f8201168201806040525081019061114091906146d9565b101561114b57600080fd5b60cd60009054906101000a900473ffffffffffffffffffffffffffffffffffffffff1673ffffffffffffffffffffffffffffffffffffffff166323b872dd8460cc60009054906101000a900473ffffffffffffffffffffffffffffffffffffffff1660646060866111bc919061466a565b6111c69190614735565b6040518463ffffffff1660e01b81526004016111e4939291906147c5565b6020604051808303816000875af1158015611203573d6000803e3d6000fd5b505050506040513d601f19601f820116820180604052508101906112279190614811565b5060cd60009054906101000a900473ffffffffffffffffffffffffffffffffffffffff1673ffffffffffffffffffffffffffffffffffffffff166323b872dd8460cb60009054906101000a900473ffffffffffffffffffffffffffffffffffffffff166064600486611299919061466a565b6112a39190614735565b6040518463ffffffff1660e01b81526004016112c1939291906147c5565b6020604051808303816000875af11580156112e0573d6000803e3d6000fd5b505050506040513d601f19601f820116820180604052508101906113049190614811565b5060ce84815481106113195761131861457a565b5b9060005260206000209060070201600301600081548092919061133b9061483e565b91905055507f20c31955b530563483aba79e1a051106dcb9ee48b987bfa568ef479e011c1a6c8460016040516113729291906148c2565b60405180910390a150505050565b61138982610f88565b61139a8161139561262b565b6126ec565b6113a48383612e86565b505050565b600060ce82815481106113bf576113be61457a565b5b9060005260206000209060070201600401549050919050565b6113e061262b565b73ffffffffffffffffffffffffffffffffffffffff168173ffffffffffffffffffffffffffffffffffffffff161461144d576040517f08c379a00000000000000000000000000000000000000000000000000000000081526004016114449061495d565b60405180910390fd5b6114578282612f67565b5050565b61147683838360405180602001604052806000815250612321565b505050565b6000801b6114908161148b61262b565b6126ec565b8160cd60006101000a81548173ffffffffffffffffffffffffffffffffffffffff021916908373ffffffffffffffffffffffffffffffffffffffff1602179055505050565b600060ce82815481106114eb576114ea61457a565b5b9060005260206000209060070201600201549050919050565b6000806067600084815260200190815260200160002060009054906101000a900473ffffffffffffffffffffffffffffffffffffffff169050600073ffffffffffffffffffffffffffffffffffffffff168173ffffffffffffffffffffffffffffffffffffffff1614156115ad576040517f08c379a00000000000000000000000000000000000000000000000000000000081526004016115a4906149ef565b60405180910390fd5b80915050919050565b7f19ac353dd86d6954025a359137447e1fda8f14ba7ba6373372af73b706fa3b226115e8816115e361262b565b6126ec565b8160ce84815481106115fd576115fc61457a565b5b9060005260206000209060070201600201546116199190614a0f565b60ce848154811061162d5761162c61457a565b5b9060005260206000209060070201600201819055507ffa65d54a674245861f726a6e25ffd7e32b5f7e7a6a62bd81b222ad6f53643d288383604051611673929190614a65565b60405180910390a1505050565b60008073ffffffffffffffffffffffffffffffffffffffff168273ffffffffffffffffffffffffffffffffffffffff1614156116f1576040517f08c379a00000000000000000000000000000000000000000000000000000000081526004016116e890614b00565b60405180910390fd5b606860008373ffffffffffffffffffffffffffffffffffffffff1673ffffffffffffffffffffffffffffffffffffffff168152602001908152602001600020549050919050565b60ce818154811061174857600080fd5b90600052602060002090600702016000915090508060000154908060010154908060020154908060030154908060040154908060050154908060060154905087565b600060ce82815481106117a05761179f61457a565b5b9060005260206000209060070201600301549050919050565b600060019054906101000a900460ff166117e15760008054906101000a900460ff16156117ea565b6117e9613049565b5b611829576040517f08c379a000000000000000000000000000000000000000000000000000000000815260040161182090614b92565b60405180910390fd5b60008060019054906101000a900460ff161590508015611879576001600060016101000a81548160ff02191690831515021790555060016000806101000a81548160ff0219169083151502179055505b601060c98190555060c954600a6118909190614ce5565b60ca81905550737c50d01c7ba0ede836bda6dac88a952f325756e360cb60006101000a81548173ffffffffffffffffffffffffffffffffffffffff021916908373ffffffffffffffffffffffffffffffffffffffff16021790555073a691623968855b91a066661b0552a7d3764c9a6460cc60006101000a81548173ffffffffffffffffffffffffffffffffffffffff021916908373ffffffffffffffffffffffffffffffffffffffff16021790555061194d6000801b3361305a565b6119c16040518060400160405280600e81526020017f50617461676f6e696320547265650000000000000000000000000000000000008152506040518060400160405280600581526020017f5054524545000000000000000000000000000000000000000000000000000000815250613068565b80156119e25760008060016101000a81548160ff0219169083151502179055505b50565b7f8b83cff217526f65affab658236a6c4f2d8020cd01ccd4c27987c26870279b14611a1781611a1261262b565b6126ec565b6000670de0b6b3a764000060ce8581548110611a3657611a3561457a565b5b906000526020600020906007020160040154611a52919061466a565b90508060cd60009054906101000a900473ffffffffffffffffffffffffffffffffffffffff1673ffffffffffffffffffffffffffffffffffffffff166370a08231856040518263ffffffff1660e01b8152600401611ab09190613d88565b602060405180830381865afa158015611acd573d6000803e3d6000fd5b505050506040513d601f19601f82011682018060405250810190611af191906146d9565b1015611afc57600080fd5b60cd60009054906101000a900473ffffffffffffffffffffffffffffffffffffffff1673ffffffffffffffffffffffffffffffffffffffff166323b872dd8460cc60009054906101000a900473ffffffffffffffffffffffffffffffffffffffff166064606086611b6d919061466a565b611b779190614735565b6040518463ffffffff1660e01b8152600401611b95939291906147c5565b6020604051808303816000875af1158015611bb4573d6000803e3d6000fd5b505050506040513d601f19601f82011682018060405250810190611bd89190614811565b5060cd60009054906101000a900473ffffffffffffffffffffffffffffffffffffffff1673ffffffffffffffffffffffffffffffffffffffff166323b872dd8460cb60009054906101000a900473ffffffffffffffffffffffffffffffffffffffff166064600486611c4a919061466a565b611c549190614735565b6040518463ffffffff1660e01b8152600401611c72939291906147c5565b6020604051808303816000875af1158015611c91573d6000803e3d6000fd5b505050506040513d601f19601f82011682018060405250810190611cb59190614811565b5060ce8481548110611cca57611cc961457a565b5b90600052602060002090600702016004016000815480929190611cec9061483e565b91905055507f20c31955b530563483aba79e1a051106dcb9ee48b987bfa568ef479e011c1a6c846000604051611d23929190614d6b565b60405180910390a150505050565b600060ce8281548110611d4757611d4661457a565b5b9060005260206000209060070201600101549050919050565b60006097600084815260200190815260200160002060000160008373ffffffffffffffffffffffffffffffffffffffff1673ffffffffffffffffffffffffffffffffffffffff16815260200190815260200160002060009054906101000a900460ff16905092915050565b606060668054611dda90614392565b80601f0160208091040260200160405190810160405280929190818152602001828054611e0690614392565b8015611e535780601f10611e2857610100808354040283529160200191611e53565b820191906000526020600020905b815481529060010190602001808311611e3657829003601f168201915b5050505050905090565b600080600190506000600190506000600590506000670de0b6b3a7640000838360ce80549050611e8d9190614735565b611e97919061466a565b611ea1919061466a565b670de0b6b3a764000085611eb5919061466a565b611ebf9190614a0f565b90508094505050505090565b7f8b83cff217526f65affab658236a6c4f2d8020cd01ccd4c27987c26870279b14611efd81611ef861262b565b6126ec565b6000670de0b6b3a764000060ce8581548110611f1c57611f1b61457a565b5b906000526020600020906007020160010154611f38919061466a565b90508060cd60009054906101000a900473ffffffffffffffffffffffffffffffffffffffff1673ffffffffffffffffffffffffffffffffffffffff166370a08231856040518263ffffffff1660e01b8152600401611f969190613d88565b602060405180830381865afa158015611fb3573d6000803e3d6000fd5b505050506040513d601f19601f82011682018060405250810190611fd791906146d9565b1015611fe257600080fd5b60cd60009054906101000a900473ffffffffffffffffffffffffffffffffffffffff1673ffffffffffffffffffffffffffffffffffffffff166323b872dd8460cc60009054906101000a900473ffffffffffffffffffffffffffffffffffffffff166064606086612053919061466a565b61205d9190614735565b6040518463ffffffff1660e01b815260040161207b939291906147c5565b6020604051808303816000875af115801561209a573d6000803e3d6000fd5b505050506040513d601f19601f820116820180604052508101906120be9190614811565b5060cd60009054906101000a900473ffffffffffffffffffffffffffffffffffffffff1673ffffffffffffffffffffffffffffffffffffffff166323b872dd8460cb60009054906101000a900473ffffffffffffffffffffffffffffffffffffffff166064600486612130919061466a565b61213a9190614735565b6040518463ffffffff1660e01b8152600401612158939291906147c5565b6020604051808303816000875af1158015612177573d6000803e3d6000fd5b505050506040513d601f19601f8201168201806040525081019061219b9190614811565b50606460ce85815481106121b2576121b161457a565b5b9060005260206000209060070201600101546121ce919061466a565b60ce85815481106121e2576121e161457a565b5b9060005260206000209060070201600201546121fe9190614d94565b60ce85815481106122125761221161457a565b5b90600052602060002090600702016002018190555060ce848154811061223b5761223a61457a565b5b9060005260206000209060070201600101600081548092919061225d9061483e565b91905055507f7ef1df0b6d95a41d9ebcaa695746726b382e110036a9127b009babdb11c656a2846040516122919190614008565b60405180910390a150505050565b6000801b81565b6122b86122b161262b565b83836130d5565b5050565b600060ce82815481106122d2576122d161457a565b5b9060005260206000209060070201600601549050919050565b60008060ce8054905090508091505090565b7f8b83cff217526f65affab658236a6c4f2d8020cd01ccd4c27987c26870279b1481565b61233261232c61262b565b83612b4c565b612371576040517f08c379a00000000000000000000000000000000000000000000000000000000081526004016123689061461b565b60405180910390fd5b61237d84848484613242565b50505050565b600060ce82815481106123995761239861457a565b5b9060005260206000209060070201600501549050919050565b60606123bd826125bf565b6123fc576040517f08c379a00000000000000000000000000000000000000000000000000000000081526004016123f390614e3a565b60405180910390fd5b600061240661329e565b905060008151116124265760405180602001604052806000815250612451565b80612430846132b5565b604051602001612441929190614e96565b6040516020818303038152906040525b915050919050565b61246282610f88565b6124738161246e61262b565b6126ec565b61247d8383612f67565b505050565b600060ce82815481106124985761249761457a565b5b9060005260206000209060070201600001549050919050565b6000606a60008473ffffffffffffffffffffffffffffffffffffffff1673ffffffffffffffffffffffffffffffffffffffff16815260200190815260200160002060008373ffffffffffffffffffffffffffffffffffffffff1673ffffffffffffffffffffffffffffffffffffffff16815260200190815260200160002060009054906101000a900460ff16905092915050565b60007f7965db0b000000000000000000000000000000000000000000000000000000007bffffffffffffffffffffffffffffffffffffffffffffffffffffffff1916827bffffffffffffffffffffffffffffffffffffffffffffffffffffffff191614806125b857506125b782613416565b5b9050919050565b60008073ffffffffffffffffffffffffffffffffffffffff166067600084815260200190815260200160002060009054906101000a900473ffffffffffffffffffffffffffffffffffffffff1673ffffffffffffffffffffffffffffffffffffffff1614159050919050565b600033905090565b816069600083815260200190815260200160002060006101000a81548173ffffffffffffffffffffffffffffffffffffffff021916908373ffffffffffffffffffffffffffffffffffffffff160217905550808273ffffffffffffffffffffffffffffffffffffffff166126a683611504565b73ffffffffffffffffffffffffffffffffffffffff167f8c5be1e5ebec7d5bd14f71427d1e84f3dd0314c0f7b2291e5b200ac8c7c3b92560405160405180910390a45050565b6126f68282611d60565b6127855761271b8173ffffffffffffffffffffffffffffffffffffffff1660146134f8565b6127298360001c60206134f8565b60405160200161273a929190614f52565b6040516020818303038152906040526040517f08c379a000000000000000000000000000000000000000000000000000000000815260040161277c9190613cc2565b60405180910390fd5b5050565b600080612794610cf3565b6040516020016127a49190614fad565b6040516020818303038152906040528051906020012060001c905060ca54816127cd9190614fc8565b91505090565b600073ffffffffffffffffffffffffffffffffffffffff168273ffffffffffffffffffffffffffffffffffffffff161415612843576040517f08c379a000000000000000000000000000000000000000000000000000000000815260040161283a90615045565b60405180910390fd5b61284c816125bf565b1561288c576040517f08c379a0000000000000000000000000000000000000000000000000000000008152600401612883906150b1565b60405180910390fd5b61289860008383613734565b6001606860008473ffffffffffffffffffffffffffffffffffffffff1673ffffffffffffffffffffffffffffffffffffffff16815260200190815260200160002060008282546128e89190614a0f565b92505081905550816067600083815260200190815260200160002060006101000a81548173ffffffffffffffffffffffffffffffffffffffff021916908373ffffffffffffffffffffffffffffffffffffffff160217905550808273ffffffffffffffffffffffffffffffffffffffff16600073ffffffffffffffffffffffffffffffffffffffff167fddf252ad1be2c89b69c2b068fc378daa952ba7f163c4a11628f55a4df523b3ef60405160405180910390a45050565b6107d0811015612ac85760cc60009054906101000a900473ffffffffffffffffffffffffffffffffffffffff1673ffffffffffffffffffffffffffffffffffffffff166108fc60023073ffffffffffffffffffffffffffffffffffffffff1631612a0b9190614735565b9081150290604051600060405180830381858888f19350505050158015612a36573d6000803e3d6000fd5b5060cb60009054906101000a900473ffffffffffffffffffffffffffffffffffffffff1673ffffffffffffffffffffffffffffffffffffffff166108fc60023073ffffffffffffffffffffffffffffffffffffffff1631612a979190614735565b9081150290604051600060405180830381858888f19350505050158015612ac2573d6000803e3d6000fd5b50612b49565b60cc60009054906101000a900473ffffffffffffffffffffffffffffffffffffffff1673ffffffffffffffffffffffffffffffffffffffff166108fc3073ffffffffffffffffffffffffffffffffffffffff16319081150290604051600060405180830381858888f19350505050158015612b47573d6000803e3d6000fd5b505b50565b6000612b57826125bf565b612b96576040517f08c379a0000000000000000000000000000000000000000000000000000000008152600401612b8d90615143565b60405180910390fd5b6000612ba183611504565b90508073ffffffffffffffffffffffffffffffffffffffff168473ffffffffffffffffffffffffffffffffffffffff161480612c1057508373ffffffffffffffffffffffffffffffffffffffff16612bf884610afc565b73ffffffffffffffffffffffffffffffffffffffff16145b80612c215750612c2081856124b1565b5b91505092915050565b8273ffffffffffffffffffffffffffffffffffffffff16612c4a82611504565b73ffffffffffffffffffffffffffffffffffffffff1614612ca0576040517f08c379a0000000000000000000000000000000000000000000000000000000008152600401612c97906151d5565b60405180910390fd5b600073ffffffffffffffffffffffffffffffffffffffff168273ffffffffffffffffffffffffffffffffffffffff161415612d10576040517f08c379a0000000000000000000000000000000000000000000000000000000008152600401612d0790615267565b60405180910390fd5b612d1b838383613734565b612d26600082612633565b6001606860008573ffffffffffffffffffffffffffffffffffffffff1673ffffffffffffffffffffffffffffffffffffffff1681526020019081526020016000206000828254612d769190614d94565b925050819055506001606860008473ffffffffffffffffffffffffffffffffffffffff1673ffffffffffffffffffffffffffffffffffffffff1681526020019081526020016000206000828254612dcd9190614a0f565b92505081905550816067600083815260200190815260200160002060006101000a81548173ffffffffffffffffffffffffffffffffffffffff021916908373ffffffffffffffffffffffffffffffffffffffff160217905550808273ffffffffffffffffffffffffffffffffffffffff168473ffffffffffffffffffffffffffffffffffffffff167fddf252ad1be2c89b69c2b068fc378daa952ba7f163c4a11628f55a4df523b3ef60405160405180910390a4505050565b612e908282611d60565b612f635760016097600084815260200190815260200160002060000160008373ffffffffffffffffffffffffffffffffffffffff1673ffffffffffffffffffffffffffffffffffffffff16815260200190815260200160002060006101000a81548160ff021916908315150217905550612f0861262b565b73ffffffffffffffffffffffffffffffffffffffff168173ffffffffffffffffffffffffffffffffffffffff16837f2f8788117e7eff1d82e926ec794901d17c78024a50270940304540a733656f0d60405160405180910390a45b5050565b612f718282611d60565b156130455760006097600084815260200190815260200160002060000160008373ffffffffffffffffffffffffffffffffffffffff1673ffffffffffffffffffffffffffffffffffffffff16815260200190815260200160002060006101000a81548160ff021916908315150217905550612fea61262b565b73ffffffffffffffffffffffffffffffffffffffff168173ffffffffffffffffffffffffffffffffffffffff16837ff6391f5c32d9c69d2a47ea670b442974b53935d1edc7fd64eb21e047a839171b60405160405180910390a45b5050565b600061305430613739565b15905090565b6130648282612e86565b5050565b600060019054906101000a900460ff166130b7576040517f08c379a00000000000000000000000000000000000000000000000000000000081526004016130ae906152f9565b60405180910390fd5b6130bf61374c565b6130c761379d565b6130d182826137ee565b5050565b8173ffffffffffffffffffffffffffffffffffffffff168373ffffffffffffffffffffffffffffffffffffffff161415613144576040517f08c379a000000000000000000000000000000000000000000000000000000000815260040161313b90615365565b60405180910390fd5b80606a60008573ffffffffffffffffffffffffffffffffffffffff1673ffffffffffffffffffffffffffffffffffffffff16815260200190815260200160002060008473ffffffffffffffffffffffffffffffffffffffff1673ffffffffffffffffffffffffffffffffffffffff16815260200190815260200160002060006101000a81548160ff0219169083151502179055508173ffffffffffffffffffffffffffffffffffffffff168373ffffffffffffffffffffffffffffffffffffffff167f17307eab39ab6107e8899845ad3d59bd9653f200f220920489ca2b5937696c31836040516132359190613c0e565b60405180910390a3505050565b61324d848484612c2a565b6132598484848461386f565b613298576040517f08c379a000000000000000000000000000000000000000000000000000000000815260040161328f906153f7565b60405180910390fd5b50505050565b606060405180602001604052806000815250905090565b606060008214156132fd576040518060400160405280600181526020017f30000000000000000000000000000000000000000000000000000000000000008152509050613411565b600082905060005b6000821461332f5780806133189061483e565b915050600a826133289190614735565b9150613305565b60008167ffffffffffffffff81111561334b5761334a614175565b5b6040519080825280601f01601f19166020018201604052801561337d5781602001600182028036833780820191505090505b5090505b6000851461340a576001826133969190614d94565b9150600a856133a59190614fc8565b60306133b19190614a0f565b60f81b8183815181106133c7576133c661457a565b5b60200101907effffffffffffffffffffffffffffffffffffffffffffffffffffffffffffff1916908160001a905350600a856134039190614735565b9450613381565b8093505050505b919050565b60007f80ac58cd000000000000000000000000000000000000000000000000000000007bffffffffffffffffffffffffffffffffffffffffffffffffffffffff1916827bffffffffffffffffffffffffffffffffffffffffffffffffffffffff191614806134e157507f5b5e139f000000000000000000000000000000000000000000000000000000007bffffffffffffffffffffffffffffffffffffffffffffffffffffffff1916827bffffffffffffffffffffffffffffffffffffffffffffffffffffffff1916145b806134f157506134f0826139f7565b5b9050919050565b60606000600283600261350b919061466a565b6135159190614a0f565b67ffffffffffffffff81111561352e5761352d614175565b5b6040519080825280601f01601f1916602001820160405280156135605781602001600182028036833780820191505090505b5090507f3000000000000000000000000000000000000000000000000000000000000000816000815181106135985761359761457a565b5b60200101907effffffffffffffffffffffffffffffffffffffffffffffffffffffffffffff1916908160001a9053507f7800000000000000000000000000000000000000000000000000000000000000816001815181106135fc576135fb61457a565b5b60200101907effffffffffffffffffffffffffffffffffffffffffffffffffffffffffffff1916908160001a9053506000600184600261363c919061466a565b6136469190614a0f565b90505b60018111156136e6577f3031323334353637383961626364656600000000000000000000000000000000600f8616601081106136885761368761457a565b5b1a60f81b82828151811061369f5761369e61457a565b5b60200101907effffffffffffffffffffffffffffffffffffffffffffffffffffffffffffff1916908160001a905350600485901c9450806136df90615417565b9050613649565b506000841461372a576040517f08c379a00000000000000000000000000000000000000000000000000000000081526004016137219061548d565b60405180910390fd5b8091505092915050565b505050565b600080823b905060008111915050919050565b600060019054906101000a900460ff1661379b576040517f08c379a0000000000000000000000000000000000000000000000000000000008152600401613792906152f9565b60405180910390fd5b565b600060019054906101000a900460ff166137ec576040517f08c379a00000000000000000000000000000000000000000000000000000000081526004016137e3906152f9565b60405180910390fd5b565b600060019054906101000a900460ff1661383d576040517f08c379a0000000000000000000000000000000000000000000000000000000008152600401613834906152f9565b60405180910390fd5b8160659080519060200190613853929190613a83565b50806066908051906020019061386a929190613a83565b505050565b60006138908473ffffffffffffffffffffffffffffffffffffffff16613739565b156139ea578373ffffffffffffffffffffffffffffffffffffffff1663150b7a026138b961262b565b8786866040518563ffffffff1660e01b81526004016138db9493929190615502565b6020604051808303816000875af192505050801561391757506040513d601f19601f820116820180604052508101906139149190615563565b60015b61399a573d8060008114613947576040519150601f19603f3d011682016040523d82523d6000602084013e61394c565b606091505b50600081511415613992576040517f08c379a0000000000000000000000000000000000000000000000000000000008152600401613989906153f7565b60405180910390fd5b805181602001fd5b63150b7a0260e01b7bffffffffffffffffffffffffffffffffffffffffffffffffffffffff1916817bffffffffffffffffffffffffffffffffffffffffffffffffffffffff1916149150506139ef565b600190505b949350505050565b60007f01ffc9a7000000000000000000000000000000000000000000000000000000007bffffffffffffffffffffffffffffffffffffffffffffffffffffffff1916827bffffffffffffffffffffffffffffffffffffffffffffffffffffffff1916149050919050565b6040518060200160405280600190602082028036833780820191505090505090565b828054613a8f90614392565b90600052602060002090601f016020900481019282613ab15760008555613af8565b82601f10613aca57805160ff1916838001178555613af8565b82800160010185558215613af8579182015b82811115613af7578251825591602001919060010190613adc565b5b509050613b059190613b09565b5090565b5b80821115613b22576000816000905550600101613b0a565b5090565b6000819050919050565b613b3981613b26565b82525050565b6000602082019050613b546000830184613b30565b92915050565b6000604051905090565b600080fd5b600080fd5b60007fffffffff0000000000000000000000000000000000000000000000000000000082169050919050565b613ba381613b6e565b8114613bae57600080fd5b50565b600081359050613bc081613b9a565b92915050565b600060208284031215613bdc57613bdb613b64565b5b6000613bea84828501613bb1565b91505092915050565b60008115159050919050565b613c0881613bf3565b82525050565b6000602082019050613c236000830184613bff565b92915050565b600081519050919050565b600082825260208201905092915050565b60005b83811015613c63578082015181840152602081019050613c48565b83811115613c72576000848401525b50505050565b6000601f19601f8301169050919050565b6000613c9482613c29565b613c9e8185613c34565b9350613cae818560208601613c45565b613cb781613c78565b840191505092915050565b60006020820190508181036000830152613cdc8184613c89565b905092915050565b6000819050919050565b613cf781613ce4565b8114613d0257600080fd5b50565b600081359050613d1481613cee565b92915050565b600060208284031215613d3057613d2f613b64565b5b6000613d3e84828501613d05565b91505092915050565b600073ffffffffffffffffffffffffffffffffffffffff82169050919050565b6000613d7282613d47565b9050919050565b613d8281613d67565b82525050565b6000602082019050613d9d6000830184613d79565b92915050565b613dac81613d67565b8114613db757600080fd5b50565b600081359050613dc981613da3565b92915050565b60008060408385031215613de657613de5613b64565b5b6000613df485828601613dba565b9250506020613e0585828601613d05565b9150509250929050565b6000613e1a82613d47565b9050919050565b613e2a81613e0f565b8114613e3557600080fd5b50565b600081359050613e4781613e21565b92915050565b600060208284031215613e6357613e62613b64565b5b6000613e7184828501613e38565b91505092915050565b600080600060608486031215613e9357613e92613b64565b5b6000613ea186828701613dba565b9350506020613eb286828701613dba565b9250506040613ec386828701613d05565b9150509250925092565b613ed681613b26565b8114613ee157600080fd5b50565b600081359050613ef381613ecd565b92915050565b600060208284031215613f0f57613f0e613b64565b5b6000613f1d84828501613ee4565b91505092915050565b600080600060608486031215613f3f57613f3e613b64565b5b6000613f4d86828701613d05565b9350506020613f5e86828701613d05565b9250506040613f6f86828701613d05565b9150509250925092565b60008060408385031215613f9057613f8f613b64565b5b6000613f9e85828601613d05565b9250506020613faf85828601613dba565b9150509250929050565b60008060408385031215613fd057613fcf613b64565b5b6000613fde85828601613ee4565b9250506020613fef85828601613dba565b9150509250929050565b61400281613ce4565b82525050565b600060208201905061401d6000830184613ff9565b92915050565b60006020828403121561403957614038613b64565b5b600061404784828501613dba565b91505092915050565b6000806040838503121561406757614066613b64565b5b600061407585828601613d05565b925050602061408685828601613d05565b9150509250929050565b600060e0820190506140a5600083018a613ff9565b6140b26020830189613ff9565b6140bf6040830188613ff9565b6140cc6060830187613ff9565b6140d96080830186613ff9565b6140e660a0830185613ff9565b6140f360c0830184613ff9565b98975050505050505050565b61410881613bf3565b811461411357600080fd5b50565b600081359050614125816140ff565b92915050565b6000806040838503121561414257614141613b64565b5b600061415085828601613dba565b925050602061416185828601614116565b9150509250929050565b600080fd5b600080fd5b7f4e487b7100000000000000000000000000000000000000000000000000000000600052604160045260246000fd5b6141ad82613c78565b810181811067ffffffffffffffff821117156141cc576141cb614175565b5b80604052505050565b60006141df613b5a565b90506141eb82826141a4565b919050565b600067ffffffffffffffff82111561420b5761420a614175565b5b61421482613c78565b9050602081019050919050565b82818337600083830152505050565b600061424361423e846141f0565b6141d5565b90508281526020810184848401111561425f5761425e614170565b5b61426a848285614221565b509392505050565b600082601f8301126142875761428661416b565b5b8135614297848260208601614230565b91505092915050565b600080600080608085870312156142ba576142b9613b64565b5b60006142c887828801613dba565b94505060206142d987828801613dba565b93505060406142ea87828801613d05565b925050606085013567ffffffffffffffff81111561430b5761430a613b69565b5b61431787828801614272565b91505092959194509250565b6000806040838503121561433a57614339613b64565b5b600061434885828601613dba565b925050602061435985828601613dba565b9150509250929050565b7f4e487b7100000000000000000000000000000000000000000000000000000000600052602260045260246000fd5b600060028204905060018216806143aa57607f821691505b602082108114156143be576143bd614363565b5b50919050565b7f4552433732313a20617070726f76656420717565727920666f72206e6f6e657860008201527f697374656e7420746f6b656e0000000000000000000000000000000000000000602082015250565b6000614420602c83613c34565b915061442b826143c4565b604082019050919050565b6000602082019050818103600083015261444f81614413565b9050919050565b7f4552433732313a20617070726f76616c20746f2063757272656e74206f776e6560008201527f7200000000000000000000000000000000000000000000000000000000000000602082015250565b60006144b2602183613c34565b91506144bd82614456565b604082019050919050565b600060208201905081810360008301526144e1816144a5565b9050919050565b7f4552433732313a20617070726f76652063616c6c6572206973206e6f74206f7760008201527f6e6572206e6f7220617070726f76656420666f7220616c6c0000000000000000602082015250565b6000614544603883613c34565b915061454f826144e8565b604082019050919050565b6000602082019050818103600083015261457381614537565b9050919050565b7f4e487b7100000000000000000000000000000000000000000000000000000000600052603260045260246000fd5b7f4552433732313a207472616e736665722063616c6c6572206973206e6f74206f60008201527f776e6572206e6f7220617070726f766564000000000000000000000000000000602082015250565b6000614605603183613c34565b9150614610826145a9565b604082019050919050565b60006020820190508181036000830152614634816145f8565b9050919050565b7f4e487b7100000000000000000000000000000000000000000000000000000000600052601160045260246000fd5b600061467582613ce4565b915061468083613ce4565b9250817fffffffffffffffffffffffffffffffffffffffffffffffffffffffffffffffff04831182151516156146b9576146b861463b565b5b828202905092915050565b6000815190506146d381613cee565b92915050565b6000602082840312156146ef576146ee613b64565b5b60006146fd848285016146c4565b91505092915050565b7f4e487b7100000000000000000000000000000000000000000000000000000000600052601260045260246000fd5b600061474082613ce4565b915061474b83613ce4565b92508261475b5761475a614706565b5b828204905092915050565b6000819050919050565b600061478b61478661478184613d47565b614766565b613d47565b9050919050565b600061479d82614770565b9050919050565b60006147af82614792565b9050919050565b6147bf816147a4565b82525050565b60006060820190506147da6000830186613d79565b6147e760208301856147b6565b6147f46040830184613ff9565b949350505050565b60008151905061480b816140ff565b92915050565b60006020828403121561482757614826613b64565b5b6000614835848285016147fc565b91505092915050565b600061484982613ce4565b91507fffffffffffffffffffffffffffffffffffffffffffffffffffffffffffffffff82141561487c5761487b61463b565b5b600182019050919050565b6000819050919050565b60006148ac6148a76148a284614887565b614766565b613ce4565b9050919050565b6148bc81614891565b82525050565b60006040820190506148d76000830185613ff9565b6148e460208301846148b3565b9392505050565b7f416363657373436f6e74726f6c3a2063616e206f6e6c792072656e6f756e636560008201527f20726f6c657320666f722073656c660000000000000000000000000000000000602082015250565b6000614947602f83613c34565b9150614952826148eb565b604082019050919050565b600060208201905081810360008301526149768161493a565b9050919050565b7f4552433732313a206f776e657220717565727920666f72206e6f6e657869737460008201527f656e7420746f6b656e0000000000000000000000000000000000000000000000602082015250565b60006149d9602983613c34565b91506149e48261497d565b604082019050919050565b60006020820190508181036000830152614a08816149cc565b9050919050565b6000614a1a82613ce4565b9150614a2583613ce4565b9250827fffffffffffffffffffffffffffffffffffffffffffffffffffffffffffffffff03821115614a5a57614a5961463b565b5b828201905092915050565b6000604082019050614a7a6000830185613ff9565b614a876020830184613ff9565b9392505050565b7f4552433732313a2062616c616e636520717565727920666f7220746865207a6560008201527f726f206164647265737300000000000000000000000000000000000000000000602082015250565b6000614aea602a83613c34565b9150614af582614a8e565b604082019050919050565b60006020820190508181036000830152614b1981614add565b9050919050565b7f496e697469616c697a61626c653a20636f6e747261637420697320616c72656160008201527f647920696e697469616c697a6564000000000000000000000000000000000000602082015250565b6000614b7c602e83613c34565b9150614b8782614b20565b604082019050919050565b60006020820190508181036000830152614bab81614b6f565b9050919050565b60008160011c9050919050565b6000808291508390505b6001851115614c0957808604811115614be557614be461463b565b5b6001851615614bf45780820291505b8081029050614c0285614bb2565b9450614bc9565b94509492505050565b600082614c225760019050614cde565b81614c305760009050614cde565b8160018114614c465760028114614c5057614c7f565b6001915050614cde565b60ff841115614c6257614c6161463b565b5b8360020a915084821115614c7957614c7861463b565b5b50614cde565b5060208310610133831016604e8410600b8410161715614cb45782820a905083811115614caf57614cae61463b565b5b614cde565b614cc18484846001614bbf565b92509050818404811115614cd857614cd761463b565b5b81810290505b9392505050565b6000614cf082613ce4565b9150614cfb83613ce4565b9250614d287fffffffffffffffffffffffffffffffffffffffffffffffffffffffffffffffff8484614c12565b905092915050565b6000819050919050565b6000614d55614d50614d4b84614d30565b614766565b613ce4565b9050919050565b614d6581614d3a565b82525050565b6000604082019050614d806000830185613ff9565b614d8d6020830184614d5c565b9392505050565b6000614d9f82613ce4565b9150614daa83613ce4565b925082821015614dbd57614dbc61463b565b5b828203905092915050565b7f4552433732314d657461646174613a2055524920717565727920666f72206e6f60008201527f6e6578697374656e7420746f6b656e0000000000000000000000000000000000602082015250565b6000614e24602f83613c34565b9150614e2f82614dc8565b604082019050919050565b60006020820190508181036000830152614e5381614e17565b9050919050565b600081905092915050565b6000614e7082613c29565b614e7a8185614e5a565b9350614e8a818560208601613c45565b80840191505092915050565b6000614ea28285614e65565b9150614eae8284614e65565b91508190509392505050565b7f416363657373436f6e74726f6c3a206163636f756e7420000000000000000000600082015250565b6000614ef0601783614e5a565b9150614efb82614eba565b601782019050919050565b7f206973206d697373696e6720726f6c6520000000000000000000000000000000600082015250565b6000614f3c601183614e5a565b9150614f4782614f06565b601182019050919050565b6000614f5d82614ee3565b9150614f698285614e65565b9150614f7482614f2f565b9150614f808284614e65565b91508190509392505050565b6000819050919050565b614fa7614fa282613b26565b614f8c565b82525050565b6000614fb98284614f96565b60208201915081905092915050565b6000614fd382613ce4565b9150614fde83613ce4565b925082614fee57614fed614706565b5b828206905092915050565b7f4552433732313a206d696e7420746f20746865207a65726f2061646472657373600082015250565b600061502f602083613c34565b915061503a82614ff9565b602082019050919050565b6000602082019050818103600083015261505e81615022565b9050919050565b7f4552433732313a20746f6b656e20616c7265616479206d696e74656400000000600082015250565b600061509b601c83613c34565b91506150a682615065565b602082019050919050565b600060208201905081810360008301526150ca8161508e565b9050919050565b7f4552433732313a206f70657261746f7220717565727920666f72206e6f6e657860008201527f697374656e7420746f6b656e0000000000000000000000000000000000000000602082015250565b600061512d602c83613c34565b9150615138826150d1565b604082019050919050565b6000602082019050818103600083015261515c81615120565b9050919050565b7f4552433732313a207472616e73666572206f6620746f6b656e2074686174206960008201527f73206e6f74206f776e0000000000000000000000000000000000000000000000602082015250565b60006151bf602983613c34565b91506151ca82615163565b604082019050919050565b600060208201905081810360008301526151ee816151b2565b9050919050565b7f4552433732313a207472616e7366657220746f20746865207a65726f2061646460008201527f7265737300000000000000000000000000000000000000000000000000000000602082015250565b6000615251602483613c34565b915061525c826151f5565b604082019050919050565b6000602082019050818103600083015261528081615244565b9050919050565b7f496e697469616c697a61626c653a20636f6e7472616374206973206e6f74206960008201527f6e697469616c697a696e67000000000000000000000000000000000000000000602082015250565b60006152e3602b83613c34565b91506152ee82615287565b604082019050919050565b60006020820190508181036000830152615312816152d6565b9050919050565b7f4552433732313a20617070726f766520746f2063616c6c657200000000000000600082015250565b600061534f601983613c34565b915061535a82615319565b602082019050919050565b6000602082019050818103600083015261537e81615342565b9050919050565b7f4552433732313a207472616e7366657220746f206e6f6e20455243373231526560008201527f63656976657220696d706c656d656e7465720000000000000000000000000000602082015250565b60006153e1603283613c34565b91506153ec82615385565b604082019050919050565b60006020820190508181036000830152615410816153d4565b9050919050565b600061542282613ce4565b915060008214156154365761543561463b565b5b600182039050919050565b7f537472696e67733a20686578206c656e67746820696e73756666696369656e74600082015250565b6000615477602083613c34565b915061548282615441565b602082019050919050565b600060208201905081810360008301526154a68161546a565b9050919050565b600081519050919050565b600082825260208201905092915050565b60006154d4826154ad565b6154de81856154b8565b93506154ee818560208601613c45565b6154f781613c78565b840191505092915050565b60006080820190506155176000830187613d79565b6155246020830186613d79565b6155316040830185613ff9565b818103606083015261554381846154c9565b905095945050505050565b60008151905061555d81613b9a565b92915050565b60006020828403121561557957615578613b64565b5b60006155878482850161554e565b9150509291505056fea2646970667358221220e2833bd993649db4a2be99faf24fb2932be9d25d4e50640e079c67e87971e8ba64736f6c634300080c0033",
  "immutableReferences": {},
  "source": "// SPDX-License-Identifier: UNLICENSED\r\n\r\npragma solidity ^0.8.3;\r\n\r\nimport \"../node_modules/@openzeppelin/contracts-upgradeable/access/AccessControlUpgradeable.sol\";\r\nimport \"../node_modules/@openzeppelin/contracts-upgradeable/token/ERC721/ERC721Upgradeable.sol\";\r\nimport \"../node_modules/@openzeppelin/contracts/token/ERC20/IERC20.sol\";\r\nimport \"../node_modules/@openzeppelin/contracts/token/ERC1155/IERC1155.sol\";\r\n\r\ncontract Tree is ERC721Upgradeable, AccessControlUpgradeable {\r\n\r\n    bytes32 public constant QUEST_ROLE = keccak256(\"QUEST_ROLE\");\r\n    bytes32 public constant UPG_ROLE = keccak256(\"UPG_ROLE\");\r\n\r\n    event NewTree(uint treeId);\r\n    event GainExp(uint treeId, uint amount);\r\n    event GainLevel(uint treeId);\r\n    event StatLevelUp (uint treeId, uint statId);\r\n\r\n    uint Digits;\r\n    uint Modulus;\r\n\r\n    address payable DevelopmentAddress;\r\n    address payable TreasuryAddress;\r\n    address TokenAddress;\r\n\r\n    struct TreeStruct {\r\n        uint treeDNA;\r\n        uint level;\r\n        uint exp;\r\n        uint roots;\r\n        uint branches;\r\n        uint action;\r\n        uint onActionUntil;\r\n    }\r\n\r\n    TreeStruct[] public trees;\r\n\r\n    //Modifiers\r\n\r\n    function supportsInterface(bytes4 interfaceId) public view virtual override(ERC721Upgradeable, AccessControlUpgradeable) returns (bool) {\r\n        return super.supportsInterface(interfaceId);\r\n    }\r\n\r\n    function initialize() initializer public {\r\n        Digits = 16;\r\n        Modulus = 10 ** Digits;\r\n\r\n        DevelopmentAddress = payable(0x7C50D01C7Ba0EDE836bDA6daC88A952f325756e3);\r\n        TreasuryAddress = payable(0xa691623968855b91A066661b0552a7D3764c9a64);\r\n        _setupRole(DEFAULT_ADMIN_ROLE, msg.sender);\r\n        __ERC721_init(\"Patagonic Tree\", \"PTREE\");\r\n    }\r\n\r\n    //Util Functions\r\n\r\n    function vrf() public view returns (bytes32 result) {\r\n        uint[1] memory bn;\r\n        bn[0] = block.number;\r\n        assembly {\r\n            let memPtr := mload(0x40)\r\n            if iszero(staticcall(not(0), 0xff, bn, 0x20, memPtr, 0x20)) {\r\n                invalid()\r\n            }\r\n            result := mload(memPtr)\r\n        }\r\n    }\r\n\r\n    //View Functions\r\n\r\n    function treeDNA(uint treeId) public view returns (uint) {\r\n        return trees[treeId].treeDNA;\r\n    }\r\n\r\n    function treeLevel(uint treeId) public view returns (uint) {\r\n        return trees[treeId].level;\r\n    }\r\n\r\n    function treeExp(uint treeId) public view returns (uint) {\r\n        return trees[treeId].exp;\r\n    }\r\n\r\n    function treeRoots(uint treeId) public view returns (uint) {\r\n        return trees[treeId].roots;\r\n    }\r\n\r\n    function treeBranches(uint treeId) public view returns (uint) {\r\n        return trees[treeId].branches;\r\n    }\r\n\r\n    function actionStatus(uint treeId) public view returns (uint) {\r\n        return trees[treeId].onActionUntil;\r\n    }\r\n\r\n    function currentAction(uint treeId) public view returns (uint) {\r\n        return trees[treeId].action;\r\n    }\r\n\r\n    function currentPrice() public view returns (uint) {\r\n        uint basePrice = 1;\r\n        uint scalingPrice = 1;\r\n        uint scalingAmount = 5;\r\n        uint price = (basePrice*10**18)+(trees.length/scalingAmount)*scalingPrice*10**18;\r\n        return price;\r\n    }\r\n\r\n    function _generateRandomDNA() internal view returns (uint) {\r\n        uint rand = uint(keccak256(abi.encodePacked(vrf())));\r\n        return rand % Modulus;\r\n    }\r\n\r\n    function treesQuantity() public view returns (uint) {\r\n        uint quantity = trees.length;\r\n        return quantity;\r\n    }\r\n\r\n    //Public Functions\r\n\r\n    function gainLevel(uint treeId, address user) public onlyRole(UPG_ROLE) {\r\n        uint amount = trees[treeId].level*10**18;\r\n        require(IERC20(TokenAddress).balanceOf(user)>= amount);\r\n        IERC20(TokenAddress).transferFrom(user, TreasuryAddress, amount*96/100);\r\n        IERC20(TokenAddress).transferFrom(user, DevelopmentAddress, amount*4/100);\r\n        trees[treeId].exp = trees[treeId].exp-trees[treeId].level*100;\r\n        trees[treeId].level++;\r\n        emit GainLevel(treeId);\r\n    }\r\n\r\n    function gainExp(uint treeId, uint amount) public onlyRole(QUEST_ROLE) {\r\n        trees[treeId].exp = trees[treeId].exp + amount;\r\n        emit GainExp(treeId, amount);\r\n    }\r\n\r\n    function levelUpBranches(uint treeId, address user) public onlyRole(UPG_ROLE) {\r\n        uint amount = trees[treeId].branches*10**18;\r\n        require(IERC20(TokenAddress).balanceOf(user)>= amount);\r\n        IERC20(TokenAddress).transferFrom(user, TreasuryAddress, amount*96/100);\r\n        IERC20(TokenAddress).transferFrom(user, DevelopmentAddress, amount*4/100);\r\n        trees[treeId].branches++;\r\n        emit StatLevelUp (treeId, 0);\r\n    }\r\n    function levelUpRoots(uint treeId, address user) public onlyRole(UPG_ROLE) {\r\n        uint amount = trees[treeId].roots*10**18;\r\n        require(IERC20(TokenAddress).balanceOf(user)>= amount);\r\n        IERC20(TokenAddress).transferFrom(user, TreasuryAddress, amount*96/100);\r\n        IERC20(TokenAddress).transferFrom(user, DevelopmentAddress, amount*4/100);\r\n        trees[treeId].roots++;\r\n        emit StatLevelUp (treeId, 1);\r\n    }\r\n\r\n    function updateAction(uint treeId, uint action, uint time) public onlyRole(QUEST_ROLE) {\r\n        trees[treeId].onActionUntil = time;\r\n        trees[treeId].action = action;\r\n    }\r\n\r\n    //Payable Functions\r\n\r\n    function createNewTree() public payable {\r\n        require(msg.sender != address(0) && msg.sender != address(this));\r\n        require(msg.value == currentPrice());\r\n        uint id = trees.length;\r\n        uint DNA = _generateRandomDNA();\r\n        trees.push(TreeStruct(DNA, 1, 0, 1, 1, 0, 0));\r\n        _mint(msg.sender, id);\r\n        retrieveFunds(id);\r\n        emit NewTree(id);\r\n\r\n    }\r\n\r\n    //Retrive Funds\r\n\r\n    function retrieveFunds(uint treeId) internal {\r\n        if (treeId < 2000) {\r\n            TreasuryAddress.transfer(payable(address(this)).balance/2);\r\n            DevelopmentAddress.transfer(payable(address(this)).balance/2);\r\n        } else {\r\n            TreasuryAddress.transfer(payable(address(this)).balance);\r\n        }\r\n    }\r\n\r\n    //Transfer Functions\r\n\r\n    function transferDevelopmentAddress(address payable newDevelopment) public onlyRole(DEFAULT_ADMIN_ROLE) {\r\n        DevelopmentAddress = newDevelopment;\r\n    }\r\n\r\n    function transferTreasuryAddress(address payable newTreasury) public onlyRole(DEFAULT_ADMIN_ROLE) {\r\n        TreasuryAddress = newTreasury;\r\n    }\r\n\r\n    function transferTokenAddress(address newToken) public onlyRole(DEFAULT_ADMIN_ROLE) {\r\n        TokenAddress = newToken;\r\n    }\r\n\r\n}",
  "sourcePath": "C:\\Users\\jtsch\\OneDrive\\Escritorio\\Python\\SmartContracts-NFT-Agus\\contracts\\Tree.sol",
  "compiler": {
    "name": "solc",
    "version": "0.8.12+commit.f00d7308.Emscripten.clang"
  },
  "schemaVersion": "3.4.3",
  "updatedAt": "2022-02-16T16:50:00.358Z",
  "networkType": "ethereum",
  "devdoc": {
    "kind": "dev",
    "methods": {
      "approve(address,uint256)": {
        "details": "See {IERC721-approve}."
      },
      "balanceOf(address)": {
        "details": "See {IERC721-balanceOf}."
      },
      "getApproved(uint256)": {
        "details": "See {IERC721-getApproved}."
      },
      "getRoleAdmin(bytes32)": {
        "details": "Returns the admin role that controls `role`. See {grantRole} and {revokeRole}. To change a role's admin, use {_setRoleAdmin}."
      },
      "grantRole(bytes32,address)": {
        "details": "Grants `role` to `account`. If `account` had not been already granted `role`, emits a {RoleGranted} event. Requirements: - the caller must have ``role``'s admin role."
      },
      "hasRole(bytes32,address)": {
        "details": "Returns `true` if `account` has been granted `role`."
      },
      "isApprovedForAll(address,address)": {
        "details": "See {IERC721-isApprovedForAll}."
      },
      "name()": {
        "details": "See {IERC721Metadata-name}."
      },
      "ownerOf(uint256)": {
        "details": "See {IERC721-ownerOf}."
      },
      "renounceRole(bytes32,address)": {
        "details": "Revokes `role` from the calling account. Roles are often managed via {grantRole} and {revokeRole}: this function's purpose is to provide a mechanism for accounts to lose their privileges if they are compromised (such as when a trusted device is misplaced). If the calling account had been revoked `role`, emits a {RoleRevoked} event. Requirements: - the caller must be `account`."
      },
      "revokeRole(bytes32,address)": {
        "details": "Revokes `role` from `account`. If `account` had been granted `role`, emits a {RoleRevoked} event. Requirements: - the caller must have ``role``'s admin role."
      },
      "safeTransferFrom(address,address,uint256)": {
        "details": "See {IERC721-safeTransferFrom}."
      },
      "safeTransferFrom(address,address,uint256,bytes)": {
        "details": "See {IERC721-safeTransferFrom}."
      },
      "setApprovalForAll(address,bool)": {
        "details": "See {IERC721-setApprovalForAll}."
      },
      "symbol()": {
        "details": "See {IERC721Metadata-symbol}."
      },
      "tokenURI(uint256)": {
        "details": "See {IERC721Metadata-tokenURI}."
      },
      "transferFrom(address,address,uint256)": {
        "details": "See {IERC721-transferFrom}."
      }
    },
    "version": 1
  },
  "userdoc": {
    "kind": "user",
    "methods": {},
    "version": 1
  }
}