{
  "contractName": "Tree",
  "abi": [
    {
      "anonymous": false,
      "inputs": [
        {
          "indexed": true,
          "internalType": "address",
          "name": "owner",
          "type": "address"
        },
        {
          "indexed": true,
          "internalType": "address",
          "name": "approved",
          "type": "address"
        },
        {
          "indexed": true,
          "internalType": "uint256",
          "name": "tokenId",
          "type": "uint256"
        }
      ],
      "name": "Approval",
      "type": "event"
    },
    {
      "anonymous": false,
      "inputs": [
        {
          "indexed": true,
          "internalType": "address",
          "name": "owner",
          "type": "address"
        },
        {
          "indexed": true,
          "internalType": "address",
          "name": "operator",
          "type": "address"
        },
        {
          "indexed": false,
          "internalType": "bool",
          "name": "approved",
          "type": "bool"
        }
      ],
      "name": "ApprovalForAll",
      "type": "event"
    },
    {
      "anonymous": false,
      "inputs": [
        {
          "indexed": false,
          "internalType": "uint256",
          "name": "treeId",
          "type": "uint256"
        },
        {
          "indexed": false,
          "internalType": "uint256",
          "name": "amount",
          "type": "uint256"
        }
      ],
      "name": "GainExp",
      "type": "event"
    },
    {
      "anonymous": false,
      "inputs": [
        {
          "indexed": false,
          "internalType": "uint256",
          "name": "treeId",
          "type": "uint256"
        }
      ],
      "name": "GainLevel",
      "type": "event"
    },
    {
      "anonymous": false,
      "inputs": [
        {
          "indexed": false,
          "internalType": "uint256",
          "name": "treeId",
          "type": "uint256"
        }
      ],
      "name": "NewTree",
      "type": "event"
    },
    {
      "anonymous": false,
      "inputs": [
        {
          "indexed": true,
          "internalType": "bytes32",
          "name": "role",
          "type": "bytes32"
        },
        {
          "indexed": true,
          "internalType": "bytes32",
          "name": "previousAdminRole",
          "type": "bytes32"
        },
        {
          "indexed": true,
          "internalType": "bytes32",
          "name": "newAdminRole",
          "type": "bytes32"
        }
      ],
      "name": "RoleAdminChanged",
      "type": "event"
    },
    {
      "anonymous": false,
      "inputs": [
        {
          "indexed": true,
          "internalType": "bytes32",
          "name": "role",
          "type": "bytes32"
        },
        {
          "indexed": true,
          "internalType": "address",
          "name": "account",
          "type": "address"
        },
        {
          "indexed": true,
          "internalType": "address",
          "name": "sender",
          "type": "address"
        }
      ],
      "name": "RoleGranted",
      "type": "event"
    },
    {
      "anonymous": false,
      "inputs": [
        {
          "indexed": true,
          "internalType": "bytes32",
          "name": "role",
          "type": "bytes32"
        },
        {
          "indexed": true,
          "internalType": "address",
          "name": "account",
          "type": "address"
        },
        {
          "indexed": true,
          "internalType": "address",
          "name": "sender",
          "type": "address"
        }
      ],
      "name": "RoleRevoked",
      "type": "event"
    },
    {
      "anonymous": false,
      "inputs": [
        {
          "indexed": false,
          "internalType": "uint256",
          "name": "treeId",
          "type": "uint256"
        },
        {
          "indexed": false,
          "internalType": "uint256",
          "name": "statId",
          "type": "uint256"
        }
      ],
      "name": "StatLevelUp",
      "type": "event"
    },
    {
      "anonymous": false,
      "inputs": [
        {
          "indexed": true,
          "internalType": "address",
          "name": "from",
          "type": "address"
        },
        {
          "indexed": true,
          "internalType": "address",
          "name": "to",
          "type": "address"
        },
        {
          "indexed": true,
          "internalType": "uint256",
          "name": "tokenId",
          "type": "uint256"
        }
      ],
      "name": "Transfer",
      "type": "event"
    },
    {
      "inputs": [],
      "name": "DEFAULT_ADMIN_ROLE",
      "outputs": [
        {
          "internalType": "bytes32",
          "name": "",
          "type": "bytes32"
        }
      ],
      "stateMutability": "view",
      "type": "function",
      "constant": true
    },
    {
      "inputs": [],
      "name": "QUEST_ROLE",
      "outputs": [
        {
          "internalType": "bytes32",
          "name": "",
          "type": "bytes32"
        }
      ],
      "stateMutability": "view",
      "type": "function",
      "constant": true
    },
    {
      "inputs": [
        {
          "internalType": "address",
          "name": "to",
          "type": "address"
        },
        {
          "internalType": "uint256",
          "name": "tokenId",
          "type": "uint256"
        }
      ],
      "name": "approve",
      "outputs": [],
      "stateMutability": "nonpayable",
      "type": "function"
    },
    {
      "inputs": [
        {
          "internalType": "address",
          "name": "owner",
          "type": "address"
        }
      ],
      "name": "balanceOf",
      "outputs": [
        {
          "internalType": "uint256",
          "name": "",
          "type": "uint256"
        }
      ],
      "stateMutability": "view",
      "type": "function",
      "constant": true
    },
    {
      "inputs": [
        {
          "internalType": "uint256",
          "name": "tokenId",
          "type": "uint256"
        }
      ],
      "name": "getApproved",
      "outputs": [
        {
          "internalType": "address",
          "name": "",
          "type": "address"
        }
      ],
      "stateMutability": "view",
      "type": "function",
      "constant": true
    },
    {
      "inputs": [
        {
          "internalType": "bytes32",
          "name": "role",
          "type": "bytes32"
        }
      ],
      "name": "getRoleAdmin",
      "outputs": [
        {
          "internalType": "bytes32",
          "name": "",
          "type": "bytes32"
        }
      ],
      "stateMutability": "view",
      "type": "function",
      "constant": true
    },
    {
      "inputs": [
        {
          "internalType": "bytes32",
          "name": "role",
          "type": "bytes32"
        },
        {
          "internalType": "address",
          "name": "account",
          "type": "address"
        }
      ],
      "name": "grantRole",
      "outputs": [],
      "stateMutability": "nonpayable",
      "type": "function"
    },
    {
      "inputs": [
        {
          "internalType": "bytes32",
          "name": "role",
          "type": "bytes32"
        },
        {
          "internalType": "address",
          "name": "account",
          "type": "address"
        }
      ],
      "name": "hasRole",
      "outputs": [
        {
          "internalType": "bool",
          "name": "",
          "type": "bool"
        }
      ],
      "stateMutability": "view",
      "type": "function",
      "constant": true
    },
    {
      "inputs": [
        {
          "internalType": "address",
          "name": "owner",
          "type": "address"
        },
        {
          "internalType": "address",
          "name": "operator",
          "type": "address"
        }
      ],
      "name": "isApprovedForAll",
      "outputs": [
        {
          "internalType": "bool",
          "name": "",
          "type": "bool"
        }
      ],
      "stateMutability": "view",
      "type": "function",
      "constant": true
    },
    {
      "inputs": [],
      "name": "name",
      "outputs": [
        {
          "internalType": "string",
          "name": "",
          "type": "string"
        }
      ],
      "stateMutability": "view",
      "type": "function",
      "constant": true
    },
    {
      "inputs": [
        {
          "internalType": "uint256",
          "name": "tokenId",
          "type": "uint256"
        }
      ],
      "name": "ownerOf",
      "outputs": [
        {
          "internalType": "address",
          "name": "",
          "type": "address"
        }
      ],
      "stateMutability": "view",
      "type": "function",
      "constant": true
    },
    {
      "inputs": [
        {
          "internalType": "bytes32",
          "name": "role",
          "type": "bytes32"
        },
        {
          "internalType": "address",
          "name": "account",
          "type": "address"
        }
      ],
      "name": "renounceRole",
      "outputs": [],
      "stateMutability": "nonpayable",
      "type": "function"
    },
    {
      "inputs": [
        {
          "internalType": "bytes32",
          "name": "role",
          "type": "bytes32"
        },
        {
          "internalType": "address",
          "name": "account",
          "type": "address"
        }
      ],
      "name": "revokeRole",
      "outputs": [],
      "stateMutability": "nonpayable",
      "type": "function"
    },
    {
      "inputs": [
        {
          "internalType": "address",
          "name": "from",
          "type": "address"
        },
        {
          "internalType": "address",
          "name": "to",
          "type": "address"
        },
        {
          "internalType": "uint256",
          "name": "tokenId",
          "type": "uint256"
        }
      ],
      "name": "safeTransferFrom",
      "outputs": [],
      "stateMutability": "nonpayable",
      "type": "function"
    },
    {
      "inputs": [
        {
          "internalType": "address",
          "name": "from",
          "type": "address"
        },
        {
          "internalType": "address",
          "name": "to",
          "type": "address"
        },
        {
          "internalType": "uint256",
          "name": "tokenId",
          "type": "uint256"
        },
        {
          "internalType": "bytes",
          "name": "_data",
          "type": "bytes"
        }
      ],
      "name": "safeTransferFrom",
      "outputs": [],
      "stateMutability": "nonpayable",
      "type": "function"
    },
    {
      "inputs": [
        {
          "internalType": "address",
          "name": "operator",
          "type": "address"
        },
        {
          "internalType": "bool",
          "name": "approved",
          "type": "bool"
        }
      ],
      "name": "setApprovalForAll",
      "outputs": [],
      "stateMutability": "nonpayable",
      "type": "function"
    },
    {
      "inputs": [],
      "name": "symbol",
      "outputs": [
        {
          "internalType": "string",
          "name": "",
          "type": "string"
        }
      ],
      "stateMutability": "view",
      "type": "function",
      "constant": true
    },
    {
      "inputs": [
        {
          "internalType": "uint256",
          "name": "tokenId",
          "type": "uint256"
        }
      ],
      "name": "tokenURI",
      "outputs": [
        {
          "internalType": "string",
          "name": "",
          "type": "string"
        }
      ],
      "stateMutability": "view",
      "type": "function",
      "constant": true
    },
    {
      "inputs": [
        {
          "internalType": "address",
          "name": "from",
          "type": "address"
        },
        {
          "internalType": "address",
          "name": "to",
          "type": "address"
        },
        {
          "internalType": "uint256",
          "name": "tokenId",
          "type": "uint256"
        }
      ],
      "name": "transferFrom",
      "outputs": [],
      "stateMutability": "nonpayable",
      "type": "function"
    },
    {
      "inputs": [
        {
          "internalType": "uint256",
          "name": "",
          "type": "uint256"
        }
      ],
      "name": "trees",
      "outputs": [
        {
          "internalType": "uint256",
          "name": "treeDNA",
          "type": "uint256"
        },
        {
          "internalType": "uint256",
          "name": "level",
          "type": "uint256"
        },
        {
          "internalType": "uint256",
          "name": "exp",
          "type": "uint256"
        },
        {
          "internalType": "uint256",
          "name": "roots",
          "type": "uint256"
        },
        {
          "internalType": "uint256",
          "name": "branches",
          "type": "uint256"
        },
        {
          "internalType": "uint256",
          "name": "action",
          "type": "uint256"
        },
        {
          "internalType": "uint256",
          "name": "onActionUntil",
          "type": "uint256"
        }
      ],
      "stateMutability": "view",
      "type": "function",
      "constant": true
    },
    {
      "inputs": [
        {
          "internalType": "bytes4",
          "name": "interfaceId",
          "type": "bytes4"
        }
      ],
      "name": "supportsInterface",
      "outputs": [
        {
          "internalType": "bool",
          "name": "",
          "type": "bool"
        }
      ],
      "stateMutability": "view",
      "type": "function",
      "constant": true
    },
    {
      "inputs": [],
      "name": "initialize",
      "outputs": [],
      "stateMutability": "nonpayable",
      "type": "function"
    },
    {
      "inputs": [],
      "name": "vrf",
      "outputs": [
        {
          "internalType": "bytes32",
          "name": "result",
          "type": "bytes32"
        }
      ],
      "stateMutability": "view",
      "type": "function",
      "constant": true
    },
    {
      "inputs": [
        {
          "internalType": "uint256",
          "name": "treeId",
          "type": "uint256"
        }
      ],
      "name": "treeDNA",
      "outputs": [
        {
          "internalType": "uint256",
          "name": "",
          "type": "uint256"
        }
      ],
      "stateMutability": "view",
      "type": "function",
      "constant": true
    },
    {
      "inputs": [
        {
          "internalType": "uint256",
          "name": "treeId",
          "type": "uint256"
        }
      ],
      "name": "treeLevel",
      "outputs": [
        {
          "internalType": "uint256",
          "name": "",
          "type": "uint256"
        }
      ],
      "stateMutability": "view",
      "type": "function",
      "constant": true
    },
    {
      "inputs": [
        {
          "internalType": "uint256",
          "name": "treeId",
          "type": "uint256"
        }
      ],
      "name": "treeExp",
      "outputs": [
        {
          "internalType": "uint256",
          "name": "",
          "type": "uint256"
        }
      ],
      "stateMutability": "view",
      "type": "function",
      "constant": true
    },
    {
      "inputs": [
        {
          "internalType": "uint256",
          "name": "treeId",
          "type": "uint256"
        }
      ],
      "name": "treeRoots",
      "outputs": [
        {
          "internalType": "uint256",
          "name": "",
          "type": "uint256"
        }
      ],
      "stateMutability": "view",
      "type": "function",
      "constant": true
    },
    {
      "inputs": [
        {
          "internalType": "uint256",
          "name": "treeId",
          "type": "uint256"
        }
      ],
      "name": "treeBranches",
      "outputs": [
        {
          "internalType": "uint256",
          "name": "",
          "type": "uint256"
        }
      ],
      "stateMutability": "view",
      "type": "function",
      "constant": true
    },
    {
      "inputs": [
        {
          "internalType": "uint256",
          "name": "treeId",
          "type": "uint256"
        }
      ],
      "name": "actionStatus",
      "outputs": [
        {
          "internalType": "uint256",
          "name": "",
          "type": "uint256"
        }
      ],
      "stateMutability": "view",
      "type": "function",
      "constant": true
    },
    {
      "inputs": [
        {
          "internalType": "uint256",
          "name": "treeId",
          "type": "uint256"
        }
      ],
      "name": "currentAction",
      "outputs": [
        {
          "internalType": "uint256",
          "name": "",
          "type": "uint256"
        }
      ],
      "stateMutability": "view",
      "type": "function",
      "constant": true
    },
    {
      "inputs": [],
      "name": "currentPrice",
      "outputs": [
        {
          "internalType": "uint256",
          "name": "",
          "type": "uint256"
        }
      ],
      "stateMutability": "view",
      "type": "function",
      "constant": true
    },
    {
      "inputs": [],
      "name": "treesQuantity",
      "outputs": [
        {
          "internalType": "uint256",
          "name": "",
          "type": "uint256"
        }
      ],
      "stateMutability": "view",
      "type": "function",
      "constant": true
    },
    {
      "inputs": [
        {
          "internalType": "uint256",
          "name": "treeId",
          "type": "uint256"
        }
      ],
      "name": "upgradeRoots",
      "outputs": [],
      "stateMutability": "payable",
      "type": "function",
      "payable": true
    },
    {
      "inputs": [
        {
          "internalType": "uint256",
          "name": "treeId",
          "type": "uint256"
        }
      ],
      "name": "upgradeBranches",
      "outputs": [],
      "stateMutability": "payable",
      "type": "function",
      "payable": true
    },
    {
      "inputs": [
        {
          "internalType": "uint256",
          "name": "treeId",
          "type": "uint256"
        },
        {
          "internalType": "uint256",
          "name": "action",
          "type": "uint256"
        },
        {
          "internalType": "uint256",
          "name": "time",
          "type": "uint256"
        }
      ],
      "name": "updateAction",
      "outputs": [],
      "stateMutability": "payable",
      "type": "function",
      "payable": true
    },
    {
      "inputs": [
        {
          "internalType": "uint256",
          "name": "treeId",
          "type": "uint256"
        },
        {
          "internalType": "uint256",
          "name": "amount",
          "type": "uint256"
        }
      ],
      "name": "gainExp",
      "outputs": [],
      "stateMutability": "payable",
      "type": "function",
      "payable": true
    },
    {
      "inputs": [
        {
          "internalType": "uint256",
          "name": "treeId",
          "type": "uint256"
        }
      ],
      "name": "gainLevel",
      "outputs": [],
      "stateMutability": "payable",
      "type": "function",
      "payable": true
    },
    {
      "inputs": [],
      "name": "createNewTree",
      "outputs": [],
      "stateMutability": "payable",
      "type": "function",
      "payable": true
    },
    {
      "inputs": [
        {
          "internalType": "address",
          "name": "newDevelopment",
          "type": "address"
        }
      ],
      "name": "transferDevelopmentAddress",
      "outputs": [],
      "stateMutability": "payable",
      "type": "function",
      "payable": true
    },
    {
      "inputs": [
        {
          "internalType": "address",
          "name": "newTreasury",
          "type": "address"
        }
      ],
      "name": "transferTreasuryAddress",
      "outputs": [],
      "stateMutability": "payable",
      "type": "function",
      "payable": true
    },
    {
      "inputs": [
        {
          "internalType": "address",
          "name": "newToken",
          "type": "address"
        }
      ],
      "name": "transferTokenAddress",
      "outputs": [],
      "stateMutability": "payable",
      "type": "function",
      "payable": true
    },
    {
      "inputs": [
        {
          "internalType": "address",
          "name": "newGameItems",
          "type": "address"
        }
      ],
      "name": "transferGameItemsAddress",
      "outputs": [],
      "stateMutability": "payable",
      "type": "function",
      "payable": true
    }
  ],
  "bytecode": "0x608060405234801561001057600080fd5b506158d880620000216000396000f3fe6080604052600436106102505760003560e01c80635fa461fc116101395780639d1b464a116100b6578063b88d4fde1161007a578063b88d4fde14610877578063b906866a146108a0578063c87b56dd146108dd578063d547741f1461091a578063d94406f214610943578063e985e9c51461098057610250565b80639d1b464a14610790578063a217fddf146107bb578063a22cb465146107e6578063a5caf0f61461080f578063af2fa8311461084c57610250565b80637b5aa51d116100fd5780637b5aa51d146106975780638129fc1c146106d45780638bbfcac3146106eb57806391d148541461072857806395d89b411461076557610250565b80635fa461fc146105815780636352211e146105be5780636cad6932146105fb57806370a08231146106175780637a5080221461065457610250565b806321cde202116101d25780632f2ff15d116101965780632f2ff15d14610491578063364051a6146104ba57806336568abe146104f757806342842e0e146105205780634630f73a146105495780634ed4d42a1461056557610250565b806321cde202146103d757806323b872dd146103f3578063248a9ca31461041c578063273a3ab6146104595780632b60b9861461047557610250565b8063098d750011610219578063098d75001461034e5780630c9490431461036a57806310d1eb2a1461039557806316f6bca91461039f5780631af92ed3146103bb57610250565b8062e23cfc1461025557806301ffc9a71461028057806306fdde03146102bd578063081812fc146102e8578063095ea7b314610325575b600080fd5b34801561026157600080fd5b5061026a6109bd565b6040516102779190613ef1565b60405180910390f35b34801561028c57600080fd5b506102a760048036038101906102a29190613f78565b6109e1565b6040516102b49190613fc0565b60405180910390f35b3480156102c957600080fd5b506102d26109f3565b6040516102df9190614074565b60405180910390f35b3480156102f457600080fd5b5061030f600480360381019061030a91906140cc565b610a85565b60405161031c919061413a565b60405180910390f35b34801561033157600080fd5b5061034c60048036038101906103479190614181565b610b0a565b005b610368600480360381019061036391906141c1565b610c22565b005b34801561037657600080fd5b5061037f610c7c565b60405161038c9190613ef1565b60405180910390f35b61039d610cc2565b005b6103b960048036038101906103b491906141c1565b610e4f565b005b6103d560048036038101906103d091906141c1565b610f0c565b005b6103f160048036038101906103ec91906140cc565b610f66565b005b3480156103ff57600080fd5b5061041a600480360381019061041591906141ee565b611367565b005b34801561042857600080fd5b50610443600480360381019061043e919061426d565b6113c7565b6040516104509190613ef1565b60405180910390f35b610473600480360381019061046e91906140cc565b6113e7565b005b61048f600480360381019061048a919061429a565b6117e6565b005b34801561049d57600080fd5b506104b860048036038101906104b391906142ed565b611872565b005b3480156104c657600080fd5b506104e160048036038101906104dc91906140cc565b61189b565b6040516104ee919061433c565b60405180910390f35b34801561050357600080fd5b5061051e600480360381019061051991906142ed565b6118ca565b005b34801561052c57600080fd5b50610547600480360381019061054291906141ee565b61194d565b005b610563600480360381019061055e91906140cc565b61196d565b005b61057f600480360381019061057a91906141c1565b611d6c565b005b34801561058d57600080fd5b506105a860048036038101906105a391906140cc565b611dc6565b6040516105b5919061433c565b60405180910390f35b3480156105ca57600080fd5b506105e560048036038101906105e091906140cc565b611df5565b6040516105f2919061413a565b60405180910390f35b61061560048036038101906106109190614357565b611ea7565b005b34801561062357600080fd5b5061063e600480360381019061063991906141c1565b611f71565b60405161064b919061433c565b60405180910390f35b34801561066057600080fd5b5061067b600480360381019061067691906140cc565b612029565b60405161068e9796959493929190614397565b60405180910390f35b3480156106a357600080fd5b506106be60048036038101906106b991906140cc565b61207b565b6040516106cb919061433c565b60405180910390f35b3480156106e057600080fd5b506106e96120aa565b005b3480156106f757600080fd5b50610712600480360381019061070d91906140cc565b6122d6565b60405161071f919061433c565b60405180910390f35b34801561073457600080fd5b5061074f600480360381019061074a91906142ed565b612305565b60405161075c9190613fc0565b60405180910390f35b34801561077157600080fd5b5061077a612370565b6040516107879190614074565b60405180910390f35b34801561079c57600080fd5b506107a5612402565b6040516107b2919061433c565b60405180910390f35b3480156107c757600080fd5b506107d061242e565b6040516107dd9190613ef1565b60405180910390f35b3480156107f257600080fd5b5061080d60048036038101906108089190614432565b612435565b005b34801561081b57600080fd5b50610836600480360381019061083191906140cc565b61244b565b604051610843919061433c565b60405180910390f35b34801561085857600080fd5b5061086161247a565b60405161086e919061433c565b60405180910390f35b34801561088357600080fd5b5061089e600480360381019061089991906145a7565b61248c565b005b3480156108ac57600080fd5b506108c760048036038101906108c291906140cc565b6124ee565b6040516108d4919061433c565b60405180910390f35b3480156108e957600080fd5b5061090460048036038101906108ff91906140cc565b61251d565b6040516109119190614074565b60405180910390f35b34801561092657600080fd5b50610941600480360381019061093c91906142ed565b6125c4565b005b34801561094f57600080fd5b5061096a600480360381019061096591906140cc565b6125ed565b604051610977919061433c565b60405180910390f35b34801561098c57600080fd5b506109a760048036038101906109a2919061462a565b61261c565b6040516109b49190613fc0565b60405180910390f35b7f19ac353dd86d6954025a359137447e1fda8f14ba7ba6373372af73b706fa3b2281565b60006109ec826126b0565b9050919050565b606060658054610a0290614699565b80601f0160208091040260200160405190810160405280929190818152602001828054610a2e90614699565b8015610a7b5780601f10610a5057610100808354040283529160200191610a7b565b820191906000526020600020905b815481529060010190602001808311610a5e57829003601f168201915b5050505050905090565b6000610a908261272a565b610acf576040517f08c379a0000000000000000000000000000000000000000000000000000000008152600401610ac69061473d565b60405180910390fd5b6069600083815260200190815260200160002060009054906101000a900473ffffffffffffffffffffffffffffffffffffffff169050919050565b6000610b1582611df5565b90508073ffffffffffffffffffffffffffffffffffffffff168373ffffffffffffffffffffffffffffffffffffffff161415610b86576040517f08c379a0000000000000000000000000000000000000000000000000000000008152600401610b7d906147cf565b60405180910390fd5b8073ffffffffffffffffffffffffffffffffffffffff16610ba5612796565b73ffffffffffffffffffffffffffffffffffffffff161480610bd45750610bd381610bce612796565b61261c565b5b610c13576040517f08c379a0000000000000000000000000000000000000000000000000000000008152600401610c0a90614861565b60405180910390fd5b610c1d838361279e565b505050565b6000801b610c3781610c32612796565b612857565b8160cc60006101000a81548173ffffffffffffffffffffffffffffffffffffffff021916908373ffffffffffffffffffffffffffffffffffffffff1602179055505050565b6000610c86613e13565b4381600060018110610c9b57610c9a614881565b5b60200201818152505060405160208160208460ff600019fa610cb957fe5b80519250505090565b600073ffffffffffffffffffffffffffffffffffffffff163373ffffffffffffffffffffffffffffffffffffffff1614158015610d2b57503073ffffffffffffffffffffffffffffffffffffffff163373ffffffffffffffffffffffffffffffffffffffff1614155b610d3457600080fd5b610d3c612402565b341015610d4857600080fd5b600060cf8054905090506000610d5c6128f4565b905060cf6040518060e00160405280838152602001600181526020016000815260200160018152602001600181526020016000815260200160008152509080600181540180825580915050600190039060005260206000209060070201600090919091909150600082015181600001556020820151816001015560408201518160020155606082015181600301556080820151816004015560a0820151816005015560c082015181600601555050610e14338361293e565b7f5aa7f45898fcb5638757632f4ea98818ccb1f1b865b0721648cfb14cfcd2da9a82604051610e43919061433c565b60405180910390a15050565b6000801b610e6481610e5f612796565b612857565b8160ce60006101000a81548173ffffffffffffffffffffffffffffffffffffffff021916908373ffffffffffffffffffffffffffffffffffffffff16021790555060ce60009054906101000a900473ffffffffffffffffffffffffffffffffffffffff1660d060006101000a81548173ffffffffffffffffffffffffffffffffffffffff021916908373ffffffffffffffffffffffffffffffffffffffff1602179055505050565b6000801b610f2181610f1c612796565b612857565b8160cb60006101000a81548173ffffffffffffffffffffffffffffffffffffffff021916908373ffffffffffffffffffffffffffffffffffffffff1602179055505050565b803373ffffffffffffffffffffffffffffffffffffffff16610f8782611df5565b73ffffffffffffffffffffffffffffffffffffffff1614610fa757600080fd5b606460cf8381548110610fbd57610fbc614881565b5b90600052602060002090600702016001015410610fd957600080fd5b606460cf8381548110610fef57610fee614881565b5b90600052602060002090600702016001015461100b91906148df565b60cf838154811061101f5761101e614881565b5b906000526020600020906007020160020154101561103c57600080fd5b600060cf838154811061105257611051614881565b5b9060005260206000209060070201600501541461106e57600080fd5b6000670de0b6b3a764000060cf848154811061108d5761108c614881565b5b9060005260206000209060070201600101546110a991906148df565b905060cd60009054906101000a900473ffffffffffffffffffffffffffffffffffffffff1673ffffffffffffffffffffffffffffffffffffffff166323b872dd3360cc60009054906101000a900473ffffffffffffffffffffffffffffffffffffffff16606460608661111c91906148df565b6111269190614968565b6040518463ffffffff1660e01b815260040161114493929190614999565b6020604051808303816000875af1158015611163573d6000803e3d6000fd5b505050506040513d601f19601f8201168201806040525081019061118791906149e5565b5060cd60009054906101000a900473ffffffffffffffffffffffffffffffffffffffff1673ffffffffffffffffffffffffffffffffffffffff166323b872dd3360cb60009054906101000a900473ffffffffffffffffffffffffffffffffffffffff1660646004866111f991906148df565b6112039190614968565b6040518463ffffffff1660e01b815260040161122193929190614999565b6020604051808303816000875af1158015611240573d6000803e3d6000fd5b505050506040513d601f19601f8201168201806040525081019061126491906149e5565b50606460cf848154811061127b5761127a614881565b5b90600052602060002090600702016001015461129791906148df565b60cf84815481106112ab576112aa614881565b5b9060005260206000209060070201600201546112c79190614a12565b60cf84815481106112db576112da614881565b5b90600052602060002090600702016002018190555060cf838154811061130457611303614881565b5b9060005260206000209060070201600101600081548092919061132690614a46565b91905055507f7ef1df0b6d95a41d9ebcaa695746726b382e110036a9127b009babdb11c656a28360405161135a919061433c565b60405180910390a1505050565b611378611372612796565b82612b0c565b6113b7576040517f08c379a00000000000000000000000000000000000000000000000000000000081526004016113ae90614b01565b60405180910390fd5b6113c2838383612bea565b505050565b600060976000838152602001908152602001600020600101549050919050565b803373ffffffffffffffffffffffffffffffffffffffff1661140882611df5565b73ffffffffffffffffffffffffffffffffffffffff161461142857600080fd5b60cf828154811061143c5761143b614881565b5b90600052602060002090600702016004015460cf838154811061146257611461614881565b5b9060005260206000209060070201600101541161147e57600080fd5b60cf828154811061149257611491614881565b5b9060005260206000209060070201600401546015116114b057600080fd5b600060cf83815481106114c6576114c5614881565b5b906000526020600020906007020160050154146114e257600080fd5b6000670de0b6b3a764000060cf848154811061150157611500614881565b5b90600052602060002090600702016004015461151d91906148df565b90508060cd60009054906101000a900473ffffffffffffffffffffffffffffffffffffffff1673ffffffffffffffffffffffffffffffffffffffff166370a08231336040518263ffffffff1660e01b815260040161157b919061413a565b602060405180830381865afa158015611598573d6000803e3d6000fd5b505050506040513d601f19601f820116820180604052508101906115bc9190614b36565b10156115c757600080fd5b600060cf84815481106115dd576115dc614881565b5b9060005260206000209060070201600401541180156116215750601560cf848154811061160d5761160c614881565b5b906000526020600020906007020160040154105b1561179c57600060cf848154811061163c5761163b614881565b5b90600052602060002090600702016004015490508060d060009054906101000a900473ffffffffffffffffffffffffffffffffffffffff1673ffffffffffffffffffffffffffffffffffffffff1662fdd58e3360006040518363ffffffff1660e01b81526004016116ae929190614ba8565b602060405180830381865afa1580156116cb573d6000803e3d6000fd5b505050506040513d601f19601f820116820180604052508101906116ef9190614b36565b10156116fa57600080fd5b60d060009054906101000a900473ffffffffffffffffffffffffffffffffffffffff1673ffffffffffffffffffffffffffffffffffffffff1663f5298aca336000846040518463ffffffff1660e01b815260040161175a93929190614bd1565b600060405180830381600087803b15801561177457600080fd5b505af1158015611788573d6000803e3d6000fd5b505050506117968483612e46565b506117a7565b6117a68382612e46565b5b7f20c31955b530563483aba79e1a051106dcb9ee48b987bfa568ef479e011c1a6c8360016040516117d9929190614c43565b60405180910390a1505050565b7f19ac353dd86d6954025a359137447e1fda8f14ba7ba6373372af73b706fa3b2261181881611813612796565b612857565b8160cf858154811061182d5761182c614881565b5b9060005260206000209060070201600601819055508260cf858154811061185757611856614881565b5b90600052602060002090600702016005018190555050505050565b61187b826113c7565b61188c81611887612796565b612857565b611896838361303f565b505050565b600060cf82815481106118b1576118b0614881565b5b9060005260206000209060070201600401549050919050565b6118d2612796565b73ffffffffffffffffffffffffffffffffffffffff168173ffffffffffffffffffffffffffffffffffffffff161461193f576040517f08c379a000000000000000000000000000000000000000000000000000000000815260040161193690614cde565b60405180910390fd5b6119498282613120565b5050565b6119688383836040518060200160405280600081525061248c565b505050565b803373ffffffffffffffffffffffffffffffffffffffff1661198e82611df5565b73ffffffffffffffffffffffffffffffffffffffff16146119ae57600080fd5b60cf82815481106119c2576119c1614881565b5b90600052602060002090600702016003015460cf83815481106119e8576119e7614881565b5b90600052602060002090600702016001015411611a0457600080fd5b60cf8281548110611a1857611a17614881565b5b906000526020600020906007020160030154601511611a3657600080fd5b600060cf8381548110611a4c57611a4b614881565b5b90600052602060002090600702016005015414611a6857600080fd5b6000670de0b6b3a764000060cf8481548110611a8757611a86614881565b5b906000526020600020906007020160030154611aa391906148df565b90508060cd60009054906101000a900473ffffffffffffffffffffffffffffffffffffffff1673ffffffffffffffffffffffffffffffffffffffff166370a08231336040518263ffffffff1660e01b8152600401611b01919061413a565b602060405180830381865afa158015611b1e573d6000803e3d6000fd5b505050506040513d601f19601f82011682018060405250810190611b429190614b36565b1015611b4d57600080fd5b600060cf8481548110611b6357611b62614881565b5b906000526020600020906007020160030154118015611ba75750601560cf8481548110611b9357611b92614881565b5b906000526020600020906007020160030154105b15611d2257600060cf8481548110611bc257611bc1614881565b5b90600052602060002090600702016003015490508060d060009054906101000a900473ffffffffffffffffffffffffffffffffffffffff1673ffffffffffffffffffffffffffffffffffffffff1662fdd58e3360006040518363ffffffff1660e01b8152600401611c34929190614ba8565b602060405180830381865afa158015611c51573d6000803e3d6000fd5b505050506040513d601f19601f82011682018060405250810190611c759190614b36565b1015611c8057600080fd5b60d060009054906101000a900473ffffffffffffffffffffffffffffffffffffffff1673ffffffffffffffffffffffffffffffffffffffff1663f5298aca336000846040518463ffffffff1660e01b8152600401611ce093929190614bd1565b600060405180830381600087803b158015611cfa57600080fd5b505af1158015611d0e573d6000803e3d6000fd5b50505050611d1c8483613202565b50611d2d565b611d2c8382613202565b5b7f20c31955b530563483aba79e1a051106dcb9ee48b987bfa568ef479e011c1a6c836000604051611d5f929190614cfe565b60405180910390a1505050565b6000801b611d8181611d7c612796565b612857565b8160cd60006101000a81548173ffffffffffffffffffffffffffffffffffffffff021916908373ffffffffffffffffffffffffffffffffffffffff1602179055505050565b600060cf8281548110611ddc57611ddb614881565b5b9060005260206000209060070201600201549050919050565b6000806067600084815260200190815260200160002060009054906101000a900473ffffffffffffffffffffffffffffffffffffffff169050600073ffffffffffffffffffffffffffffffffffffffff168173ffffffffffffffffffffffffffffffffffffffff161415611e9e576040517f08c379a0000000000000000000000000000000000000000000000000000000008152600401611e9590614d99565b60405180910390fd5b80915050919050565b7f19ac353dd86d6954025a359137447e1fda8f14ba7ba6373372af73b706fa3b22611ed981611ed4612796565b612857565b8160cf8481548110611eee57611eed614881565b5b906000526020600020906007020160020154611f0a9190614db9565b60cf8481548110611f1e57611f1d614881565b5b9060005260206000209060070201600201819055507ffa65d54a674245861f726a6e25ffd7e32b5f7e7a6a62bd81b222ad6f53643d288383604051611f64929190614e0f565b60405180910390a1505050565b60008073ffffffffffffffffffffffffffffffffffffffff168273ffffffffffffffffffffffffffffffffffffffff161415611fe2576040517f08c379a0000000000000000000000000000000000000000000000000000000008152600401611fd990614eaa565b60405180910390fd5b606860008373ffffffffffffffffffffffffffffffffffffffff1673ffffffffffffffffffffffffffffffffffffffff168152602001908152602001600020549050919050565b60cf818154811061203957600080fd5b90600052602060002090600702016000915090508060000154908060010154908060020154908060030154908060040154908060050154908060060154905087565b600060cf828154811061209157612090614881565b5b9060005260206000209060070201600301549050919050565b600060019054906101000a900460ff166120d25760008054906101000a900460ff16156120db565b6120da6133fb565b5b61211a576040517f08c379a000000000000000000000000000000000000000000000000000000000815260040161211190614f3c565b60405180910390fd5b60008060019054906101000a900460ff16159050801561216a576001600060016101000a81548160ff02191690831515021790555060016000806101000a81548160ff0219169083151502179055505b601060c98190555060c954600a612181919061508f565b60ca8190555073fd768e668a158c173e9549d1632902c2a436317860cb60006101000a81548173ffffffffffffffffffffffffffffffffffffffff021916908373ffffffffffffffffffffffffffffffffffffffff16021790555073fd768e668a158c173e9549d1632902c2a436317860cc60006101000a81548173ffffffffffffffffffffffffffffffffffffffff021916908373ffffffffffffffffffffffffffffffffffffffff16021790555061223e6000801b3361340c565b6122b26040518060400160405280600e81526020017f50617461676f6e696320547265650000000000000000000000000000000000008152506040518060400160405280600581526020017f505452454500000000000000000000000000000000000000000000000000000081525061341a565b80156122d35760008060016101000a81548160ff0219169083151502179055505b50565b600060cf82815481106122ec576122eb614881565b5b9060005260206000209060070201600101549050919050565b60006097600084815260200190815260200160002060000160008373ffffffffffffffffffffffffffffffffffffffff1673ffffffffffffffffffffffffffffffffffffffff16815260200190815260200160002060009054906101000a900460ff16905092915050565b60606066805461237f90614699565b80601f01602080910402602001604051908101604052809291908181526020018280546123ab90614699565b80156123f85780601f106123cd576101008083540402835291602001916123f8565b820191906000526020600020905b8154815290600101906020018083116123db57829003601f168201915b5050505050905090565b6000670de0b6b3a7640000600160cf8054905061241f9190614db9565b61242991906148df565b905090565b6000801b81565b612447612440612796565b8383613487565b5050565b600060cf828154811061246157612460614881565b5b9060005260206000209060070201600601549050919050565b60008060cf8054905090508091505090565b61249d612497612796565b83612b0c565b6124dc576040517f08c379a00000000000000000000000000000000000000000000000000000000081526004016124d390614b01565b60405180910390fd5b6124e8848484846135f4565b50505050565b600060cf828154811061250457612503614881565b5b9060005260206000209060070201600501549050919050565b60606125288261272a565b612567576040517f08c379a000000000000000000000000000000000000000000000000000000000815260040161255e9061514c565b60405180910390fd5b6000612571613650565b9050600081511161259157604051806020016040528060008152506125bc565b8061259b84613667565b6040516020016125ac9291906151a8565b6040516020818303038152906040525b915050919050565b6125cd826113c7565b6125de816125d9612796565b612857565b6125e88383613120565b505050565b600060cf828154811061260357612602614881565b5b9060005260206000209060070201600001549050919050565b6000606a60008473ffffffffffffffffffffffffffffffffffffffff1673ffffffffffffffffffffffffffffffffffffffff16815260200190815260200160002060008373ffffffffffffffffffffffffffffffffffffffff1673ffffffffffffffffffffffffffffffffffffffff16815260200190815260200160002060009054906101000a900460ff16905092915050565b60007f7965db0b000000000000000000000000000000000000000000000000000000007bffffffffffffffffffffffffffffffffffffffffffffffffffffffff1916827bffffffffffffffffffffffffffffffffffffffffffffffffffffffff191614806127235750612722826137c8565b5b9050919050565b60008073ffffffffffffffffffffffffffffffffffffffff166067600084815260200190815260200160002060009054906101000a900473ffffffffffffffffffffffffffffffffffffffff1673ffffffffffffffffffffffffffffffffffffffff1614159050919050565b600033905090565b816069600083815260200190815260200160002060006101000a81548173ffffffffffffffffffffffffffffffffffffffff021916908373ffffffffffffffffffffffffffffffffffffffff160217905550808273ffffffffffffffffffffffffffffffffffffffff1661281183611df5565b73ffffffffffffffffffffffffffffffffffffffff167f8c5be1e5ebec7d5bd14f71427d1e84f3dd0314c0f7b2291e5b200ac8c7c3b92560405160405180910390a45050565b6128618282612305565b6128f0576128868173ffffffffffffffffffffffffffffffffffffffff1660146138aa565b6128948360001c60206138aa565b6040516020016128a5929190615264565b6040516020818303038152906040526040517f08c379a00000000000000000000000000000000000000000000000000000000081526004016128e79190614074565b60405180910390fd5b5050565b6000806128ff610c7c565b60405160200161290f91906152bf565b6040516020818303038152906040528051906020012060001c905060ca548161293891906152da565b91505090565b600073ffffffffffffffffffffffffffffffffffffffff168273ffffffffffffffffffffffffffffffffffffffff1614156129ae576040517f08c379a00000000000000000000000000000000000000000000000000000000081526004016129a590615357565b60405180910390fd5b6129b78161272a565b156129f7576040517f08c379a00000000000000000000000000000000000000000000000000000000081526004016129ee906153c3565b60405180910390fd5b612a0360008383613ae6565b6001606860008473ffffffffffffffffffffffffffffffffffffffff1673ffffffffffffffffffffffffffffffffffffffff1681526020019081526020016000206000828254612a539190614db9565b92505081905550816067600083815260200190815260200160002060006101000a81548173ffffffffffffffffffffffffffffffffffffffff021916908373ffffffffffffffffffffffffffffffffffffffff160217905550808273ffffffffffffffffffffffffffffffffffffffff16600073ffffffffffffffffffffffffffffffffffffffff167fddf252ad1be2c89b69c2b068fc378daa952ba7f163c4a11628f55a4df523b3ef60405160405180910390a45050565b6000612b178261272a565b612b56576040517f08c379a0000000000000000000000000000000000000000000000000000000008152600401612b4d90615455565b60405180910390fd5b6000612b6183611df5565b90508073ffffffffffffffffffffffffffffffffffffffff168473ffffffffffffffffffffffffffffffffffffffff161480612bd057508373ffffffffffffffffffffffffffffffffffffffff16612bb884610a85565b73ffffffffffffffffffffffffffffffffffffffff16145b80612be15750612be0818561261c565b5b91505092915050565b8273ffffffffffffffffffffffffffffffffffffffff16612c0a82611df5565b73ffffffffffffffffffffffffffffffffffffffff1614612c60576040517f08c379a0000000000000000000000000000000000000000000000000000000008152600401612c57906154e7565b60405180910390fd5b600073ffffffffffffffffffffffffffffffffffffffff168273ffffffffffffffffffffffffffffffffffffffff161415612cd0576040517f08c379a0000000000000000000000000000000000000000000000000000000008152600401612cc790615579565b60405180910390fd5b612cdb838383613ae6565b612ce660008261279e565b6001606860008573ffffffffffffffffffffffffffffffffffffffff1673ffffffffffffffffffffffffffffffffffffffff1681526020019081526020016000206000828254612d369190614a12565b925050819055506001606860008473ffffffffffffffffffffffffffffffffffffffff1673ffffffffffffffffffffffffffffffffffffffff1681526020019081526020016000206000828254612d8d9190614db9565b92505081905550816067600083815260200190815260200160002060006101000a81548173ffffffffffffffffffffffffffffffffffffffff021916908373ffffffffffffffffffffffffffffffffffffffff160217905550808273ffffffffffffffffffffffffffffffffffffffff168473ffffffffffffffffffffffffffffffffffffffff167fddf252ad1be2c89b69c2b068fc378daa952ba7f163c4a11628f55a4df523b3ef60405160405180910390a4505050565b60cd60009054906101000a900473ffffffffffffffffffffffffffffffffffffffff1673ffffffffffffffffffffffffffffffffffffffff166323b872dd3360cc60009054906101000a900473ffffffffffffffffffffffffffffffffffffffff166064606086612eb791906148df565b612ec19190614968565b6040518463ffffffff1660e01b8152600401612edf93929190614999565b6020604051808303816000875af1158015612efe573d6000803e3d6000fd5b505050506040513d601f19601f82011682018060405250810190612f2291906149e5565b5060cd60009054906101000a900473ffffffffffffffffffffffffffffffffffffffff1673ffffffffffffffffffffffffffffffffffffffff166323b872dd3360cb60009054906101000a900473ffffffffffffffffffffffffffffffffffffffff166064600486612f9491906148df565b612f9e9190614968565b6040518463ffffffff1660e01b8152600401612fbc93929190614999565b6020604051808303816000875af1158015612fdb573d6000803e3d6000fd5b505050506040513d601f19601f82011682018060405250810190612fff91906149e5565b5060cf828154811061301457613013614881565b5b9060005260206000209060070201600401600081548092919061303690614a46565b91905055505050565b6130498282612305565b61311c5760016097600084815260200190815260200160002060000160008373ffffffffffffffffffffffffffffffffffffffff1673ffffffffffffffffffffffffffffffffffffffff16815260200190815260200160002060006101000a81548160ff0219169083151502179055506130c1612796565b73ffffffffffffffffffffffffffffffffffffffff168173ffffffffffffffffffffffffffffffffffffffff16837f2f8788117e7eff1d82e926ec794901d17c78024a50270940304540a733656f0d60405160405180910390a45b5050565b61312a8282612305565b156131fe5760006097600084815260200190815260200160002060000160008373ffffffffffffffffffffffffffffffffffffffff1673ffffffffffffffffffffffffffffffffffffffff16815260200190815260200160002060006101000a81548160ff0219169083151502179055506131a3612796565b73ffffffffffffffffffffffffffffffffffffffff168173ffffffffffffffffffffffffffffffffffffffff16837ff6391f5c32d9c69d2a47ea670b442974b53935d1edc7fd64eb21e047a839171b60405160405180910390a45b5050565b60cd60009054906101000a900473ffffffffffffffffffffffffffffffffffffffff1673ffffffffffffffffffffffffffffffffffffffff166323b872dd3360cc60009054906101000a900473ffffffffffffffffffffffffffffffffffffffff16606460608661327391906148df565b61327d9190614968565b6040518463ffffffff1660e01b815260040161329b93929190614999565b6020604051808303816000875af11580156132ba573d6000803e3d6000fd5b505050506040513d601f19601f820116820180604052508101906132de91906149e5565b5060cd60009054906101000a900473ffffffffffffffffffffffffffffffffffffffff1673ffffffffffffffffffffffffffffffffffffffff166323b872dd3360cb60009054906101000a900473ffffffffffffffffffffffffffffffffffffffff16606460048661335091906148df565b61335a9190614968565b6040518463ffffffff1660e01b815260040161337893929190614999565b6020604051808303816000875af1158015613397573d6000803e3d6000fd5b505050506040513d601f19601f820116820180604052508101906133bb91906149e5565b5060cf82815481106133d0576133cf614881565b5b906000526020600020906007020160030160008154809291906133f290614a46565b91905055505050565b600061340630613aeb565b15905090565b613416828261303f565b5050565b600060019054906101000a900460ff16613469576040517f08c379a00000000000000000000000000000000000000000000000000000000081526004016134609061560b565b60405180910390fd5b613471613afe565b613479613b4f565b6134838282613ba0565b5050565b8173ffffffffffffffffffffffffffffffffffffffff168373ffffffffffffffffffffffffffffffffffffffff1614156134f6576040517f08c379a00000000000000000000000000000000000000000000000000000000081526004016134ed90615677565b60405180910390fd5b80606a60008573ffffffffffffffffffffffffffffffffffffffff1673ffffffffffffffffffffffffffffffffffffffff16815260200190815260200160002060008473ffffffffffffffffffffffffffffffffffffffff1673ffffffffffffffffffffffffffffffffffffffff16815260200190815260200160002060006101000a81548160ff0219169083151502179055508173ffffffffffffffffffffffffffffffffffffffff168373ffffffffffffffffffffffffffffffffffffffff167f17307eab39ab6107e8899845ad3d59bd9653f200f220920489ca2b5937696c31836040516135e79190613fc0565b60405180910390a3505050565b6135ff848484612bea565b61360b84848484613c21565b61364a576040517f08c379a000000000000000000000000000000000000000000000000000000000815260040161364190615709565b60405180910390fd5b50505050565b606060405180602001604052806000815250905090565b606060008214156136af576040518060400160405280600181526020017f300000000000000000000000000000000000000000000000000000000000000081525090506137c3565b600082905060005b600082146136e15780806136ca90614a46565b915050600a826136da9190614968565b91506136b7565b60008167ffffffffffffffff8111156136fd576136fc61447c565b5b6040519080825280601f01601f19166020018201604052801561372f5781602001600182028036833780820191505090505b5090505b600085146137bc576001826137489190614a12565b9150600a8561375791906152da565b60306137639190614db9565b60f81b81838151811061377957613778614881565b5b60200101907effffffffffffffffffffffffffffffffffffffffffffffffffffffffffffff1916908160001a905350600a856137b59190614968565b9450613733565b8093505050505b919050565b60007f80ac58cd000000000000000000000000000000000000000000000000000000007bffffffffffffffffffffffffffffffffffffffffffffffffffffffff1916827bffffffffffffffffffffffffffffffffffffffffffffffffffffffff1916148061389357507f5b5e139f000000000000000000000000000000000000000000000000000000007bffffffffffffffffffffffffffffffffffffffffffffffffffffffff1916827bffffffffffffffffffffffffffffffffffffffffffffffffffffffff1916145b806138a357506138a282613da9565b5b9050919050565b6060600060028360026138bd91906148df565b6138c79190614db9565b67ffffffffffffffff8111156138e0576138df61447c565b5b6040519080825280601f01601f1916602001820160405280156139125781602001600182028036833780820191505090505b5090507f30000000000000000000000000000000000000000000000000000000000000008160008151811061394a57613949614881565b5b60200101907effffffffffffffffffffffffffffffffffffffffffffffffffffffffffffff1916908160001a9053507f7800000000000000000000000000000000000000000000000000000000000000816001815181106139ae576139ad614881565b5b60200101907effffffffffffffffffffffffffffffffffffffffffffffffffffffffffffff1916908160001a905350600060018460026139ee91906148df565b6139f89190614db9565b90505b6001811115613a98577f3031323334353637383961626364656600000000000000000000000000000000600f861660108110613a3a57613a39614881565b5b1a60f81b828281518110613a5157613a50614881565b5b60200101907effffffffffffffffffffffffffffffffffffffffffffffffffffffffffffff1916908160001a905350600485901c945080613a9190615729565b90506139fb565b5060008414613adc576040517f08c379a0000000000000000000000000000000000000000000000000000000008152600401613ad39061579f565b60405180910390fd5b8091505092915050565b505050565b600080823b905060008111915050919050565b600060019054906101000a900460ff16613b4d576040517f08c379a0000000000000000000000000000000000000000000000000000000008152600401613b449061560b565b60405180910390fd5b565b600060019054906101000a900460ff16613b9e576040517f08c379a0000000000000000000000000000000000000000000000000000000008152600401613b959061560b565b60405180910390fd5b565b600060019054906101000a900460ff16613bef576040517f08c379a0000000000000000000000000000000000000000000000000000000008152600401613be69061560b565b60405180910390fd5b8160659080519060200190613c05929190613e35565b508060669080519060200190613c1c929190613e35565b505050565b6000613c428473ffffffffffffffffffffffffffffffffffffffff16613aeb565b15613d9c578373ffffffffffffffffffffffffffffffffffffffff1663150b7a02613c6b612796565b8786866040518563ffffffff1660e01b8152600401613c8d9493929190615814565b6020604051808303816000875af1925050508015613cc957506040513d601f19601f82011682018060405250810190613cc69190615875565b60015b613d4c573d8060008114613cf9576040519150601f19603f3d011682016040523d82523d6000602084013e613cfe565b606091505b50600081511415613d44576040517f08c379a0000000000000000000000000000000000000000000000000000000008152600401613d3b90615709565b60405180910390fd5b805181602001fd5b63150b7a0260e01b7bffffffffffffffffffffffffffffffffffffffffffffffffffffffff1916817bffffffffffffffffffffffffffffffffffffffffffffffffffffffff191614915050613da1565b600190505b949350505050565b60007f01ffc9a7000000000000000000000000000000000000000000000000000000007bffffffffffffffffffffffffffffffffffffffffffffffffffffffff1916827bffffffffffffffffffffffffffffffffffffffffffffffffffffffff1916149050919050565b6040518060200160405280600190602082028036833780820191505090505090565b828054613e4190614699565b90600052602060002090601f016020900481019282613e635760008555613eaa565b82601f10613e7c57805160ff1916838001178555613eaa565b82800160010185558215613eaa579182015b82811115613ea9578251825591602001919060010190613e8e565b5b509050613eb79190613ebb565b5090565b5b80821115613ed4576000816000905550600101613ebc565b5090565b6000819050919050565b613eeb81613ed8565b82525050565b6000602082019050613f066000830184613ee2565b92915050565b6000604051905090565b600080fd5b600080fd5b60007fffffffff0000000000000000000000000000000000000000000000000000000082169050919050565b613f5581613f20565b8114613f6057600080fd5b50565b600081359050613f7281613f4c565b92915050565b600060208284031215613f8e57613f8d613f16565b5b6000613f9c84828501613f63565b91505092915050565b60008115159050919050565b613fba81613fa5565b82525050565b6000602082019050613fd56000830184613fb1565b92915050565b600081519050919050565b600082825260208201905092915050565b60005b83811015614015578082015181840152602081019050613ffa565b83811115614024576000848401525b50505050565b6000601f19601f8301169050919050565b600061404682613fdb565b6140508185613fe6565b9350614060818560208601613ff7565b6140698161402a565b840191505092915050565b6000602082019050818103600083015261408e818461403b565b905092915050565b6000819050919050565b6140a981614096565b81146140b457600080fd5b50565b6000813590506140c6816140a0565b92915050565b6000602082840312156140e2576140e1613f16565b5b60006140f0848285016140b7565b91505092915050565b600073ffffffffffffffffffffffffffffffffffffffff82169050919050565b6000614124826140f9565b9050919050565b61413481614119565b82525050565b600060208201905061414f600083018461412b565b92915050565b61415e81614119565b811461416957600080fd5b50565b60008135905061417b81614155565b92915050565b6000806040838503121561419857614197613f16565b5b60006141a68582860161416c565b92505060206141b7858286016140b7565b9150509250929050565b6000602082840312156141d7576141d6613f16565b5b60006141e58482850161416c565b91505092915050565b60008060006060848603121561420757614206613f16565b5b60006142158682870161416c565b93505060206142268682870161416c565b9250506040614237868287016140b7565b9150509250925092565b61424a81613ed8565b811461425557600080fd5b50565b60008135905061426781614241565b92915050565b60006020828403121561428357614282613f16565b5b600061429184828501614258565b91505092915050565b6000806000606084860312156142b3576142b2613f16565b5b60006142c1868287016140b7565b93505060206142d2868287016140b7565b92505060406142e3868287016140b7565b9150509250925092565b6000806040838503121561430457614303613f16565b5b600061431285828601614258565b92505060206143238582860161416c565b9150509250929050565b61433681614096565b82525050565b6000602082019050614351600083018461432d565b92915050565b6000806040838503121561436e5761436d613f16565b5b600061437c858286016140b7565b925050602061438d858286016140b7565b9150509250929050565b600060e0820190506143ac600083018a61432d565b6143b9602083018961432d565b6143c6604083018861432d565b6143d3606083018761432d565b6143e0608083018661432d565b6143ed60a083018561432d565b6143fa60c083018461432d565b98975050505050505050565b61440f81613fa5565b811461441a57600080fd5b50565b60008135905061442c81614406565b92915050565b6000806040838503121561444957614448613f16565b5b60006144578582860161416c565b92505060206144688582860161441d565b9150509250929050565b600080fd5b600080fd5b7f4e487b7100000000000000000000000000000000000000000000000000000000600052604160045260246000fd5b6144b48261402a565b810181811067ffffffffffffffff821117156144d3576144d261447c565b5b80604052505050565b60006144e6613f0c565b90506144f282826144ab565b919050565b600067ffffffffffffffff8211156145125761451161447c565b5b61451b8261402a565b9050602081019050919050565b82818337600083830152505050565b600061454a614545846144f7565b6144dc565b90508281526020810184848401111561456657614565614477565b5b614571848285614528565b509392505050565b600082601f83011261458e5761458d614472565b5b813561459e848260208601614537565b91505092915050565b600080600080608085870312156145c1576145c0613f16565b5b60006145cf8782880161416c565b94505060206145e08782880161416c565b93505060406145f1878288016140b7565b925050606085013567ffffffffffffffff81111561461257614611613f1b565b5b61461e87828801614579565b91505092959194509250565b6000806040838503121561464157614640613f16565b5b600061464f8582860161416c565b92505060206146608582860161416c565b9150509250929050565b7f4e487b7100000000000000000000000000000000000000000000000000000000600052602260045260246000fd5b600060028204905060018216806146b157607f821691505b602082108114156146c5576146c461466a565b5b50919050565b7f4552433732313a20617070726f76656420717565727920666f72206e6f6e657860008201527f697374656e7420746f6b656e0000000000000000000000000000000000000000602082015250565b6000614727602c83613fe6565b9150614732826146cb565b604082019050919050565b600060208201905081810360008301526147568161471a565b9050919050565b7f4552433732313a20617070726f76616c20746f2063757272656e74206f776e6560008201527f7200000000000000000000000000000000000000000000000000000000000000602082015250565b60006147b9602183613fe6565b91506147c48261475d565b604082019050919050565b600060208201905081810360008301526147e8816147ac565b9050919050565b7f4552433732313a20617070726f76652063616c6c6572206973206e6f74206f7760008201527f6e6572206e6f7220617070726f76656420666f7220616c6c0000000000000000602082015250565b600061484b603883613fe6565b9150614856826147ef565b604082019050919050565b6000602082019050818103600083015261487a8161483e565b9050919050565b7f4e487b7100000000000000000000000000000000000000000000000000000000600052603260045260246000fd5b7f4e487b7100000000000000000000000000000000000000000000000000000000600052601160045260246000fd5b60006148ea82614096565b91506148f583614096565b9250817fffffffffffffffffffffffffffffffffffffffffffffffffffffffffffffffff048311821515161561492e5761492d6148b0565b5b828202905092915050565b7f4e487b7100000000000000000000000000000000000000000000000000000000600052601260045260246000fd5b600061497382614096565b915061497e83614096565b92508261498e5761498d614939565b5b828204905092915050565b60006060820190506149ae600083018661412b565b6149bb602083018561412b565b6149c8604083018461432d565b949350505050565b6000815190506149df81614406565b92915050565b6000602082840312156149fb576149fa613f16565b5b6000614a09848285016149d0565b91505092915050565b6000614a1d82614096565b9150614a2883614096565b925082821015614a3b57614a3a6148b0565b5b828203905092915050565b6000614a5182614096565b91507fffffffffffffffffffffffffffffffffffffffffffffffffffffffffffffffff821415614a8457614a836148b0565b5b600182019050919050565b7f4552433732313a207472616e736665722063616c6c6572206973206e6f74206f60008201527f776e6572206e6f7220617070726f766564000000000000000000000000000000602082015250565b6000614aeb603183613fe6565b9150614af682614a8f565b604082019050919050565b60006020820190508181036000830152614b1a81614ade565b9050919050565b600081519050614b30816140a0565b92915050565b600060208284031215614b4c57614b4b613f16565b5b6000614b5a84828501614b21565b91505092915050565b6000819050919050565b6000819050919050565b6000614b92614b8d614b8884614b63565b614b6d565b614096565b9050919050565b614ba281614b77565b82525050565b6000604082019050614bbd600083018561412b565b614bca6020830184614b99565b9392505050565b6000606082019050614be6600083018661412b565b614bf36020830185614b99565b614c00604083018461432d565b949350505050565b6000819050919050565b6000614c2d614c28614c2384614c08565b614b6d565b614096565b9050919050565b614c3d81614c12565b82525050565b6000604082019050614c58600083018561432d565b614c656020830184614c34565b9392505050565b7f416363657373436f6e74726f6c3a2063616e206f6e6c792072656e6f756e636560008201527f20726f6c657320666f722073656c660000000000000000000000000000000000602082015250565b6000614cc8602f83613fe6565b9150614cd382614c6c565b604082019050919050565b60006020820190508181036000830152614cf781614cbb565b9050919050565b6000604082019050614d13600083018561432d565b614d206020830184614b99565b9392505050565b7f4552433732313a206f776e657220717565727920666f72206e6f6e657869737460008201527f656e7420746f6b656e0000000000000000000000000000000000000000000000602082015250565b6000614d83602983613fe6565b9150614d8e82614d27565b604082019050919050565b60006020820190508181036000830152614db281614d76565b9050919050565b6000614dc482614096565b9150614dcf83614096565b9250827fffffffffffffffffffffffffffffffffffffffffffffffffffffffffffffffff03821115614e0457614e036148b0565b5b828201905092915050565b6000604082019050614e24600083018561432d565b614e31602083018461432d565b9392505050565b7f4552433732313a2062616c616e636520717565727920666f7220746865207a6560008201527f726f206164647265737300000000000000000000000000000000000000000000602082015250565b6000614e94602a83613fe6565b9150614e9f82614e38565b604082019050919050565b60006020820190508181036000830152614ec381614e87565b9050919050565b7f496e697469616c697a61626c653a20636f6e747261637420697320616c72656160008201527f647920696e697469616c697a6564000000000000000000000000000000000000602082015250565b6000614f26602e83613fe6565b9150614f3182614eca565b604082019050919050565b60006020820190508181036000830152614f5581614f19565b9050919050565b60008160011c9050919050565b6000808291508390505b6001851115614fb357808604811115614f8f57614f8e6148b0565b5b6001851615614f9e5780820291505b8081029050614fac85614f5c565b9450614f73565b94509492505050565b600082614fcc5760019050615088565b81614fda5760009050615088565b8160018114614ff05760028114614ffa57615029565b6001915050615088565b60ff84111561500c5761500b6148b0565b5b8360020a915084821115615023576150226148b0565b5b50615088565b5060208310610133831016604e8410600b841016171561505e5782820a905083811115615059576150586148b0565b5b615088565b61506b8484846001614f69565b92509050818404811115615082576150816148b0565b5b81810290505b9392505050565b600061509a82614096565b91506150a583614096565b92506150d27fffffffffffffffffffffffffffffffffffffffffffffffffffffffffffffffff8484614fbc565b905092915050565b7f4552433732314d657461646174613a2055524920717565727920666f72206e6f60008201527f6e6578697374656e7420746f6b656e0000000000000000000000000000000000602082015250565b6000615136602f83613fe6565b9150615141826150da565b604082019050919050565b6000602082019050818103600083015261516581615129565b9050919050565b600081905092915050565b600061518282613fdb565b61518c818561516c565b935061519c818560208601613ff7565b80840191505092915050565b60006151b48285615177565b91506151c08284615177565b91508190509392505050565b7f416363657373436f6e74726f6c3a206163636f756e7420000000000000000000600082015250565b600061520260178361516c565b915061520d826151cc565b601782019050919050565b7f206973206d697373696e6720726f6c6520000000000000000000000000000000600082015250565b600061524e60118361516c565b915061525982615218565b601182019050919050565b600061526f826151f5565b915061527b8285615177565b915061528682615241565b91506152928284615177565b91508190509392505050565b6000819050919050565b6152b96152b482613ed8565b61529e565b82525050565b60006152cb82846152a8565b60208201915081905092915050565b60006152e582614096565b91506152f083614096565b925082615300576152ff614939565b5b828206905092915050565b7f4552433732313a206d696e7420746f20746865207a65726f2061646472657373600082015250565b6000615341602083613fe6565b915061534c8261530b565b602082019050919050565b6000602082019050818103600083015261537081615334565b9050919050565b7f4552433732313a20746f6b656e20616c7265616479206d696e74656400000000600082015250565b60006153ad601c83613fe6565b91506153b882615377565b602082019050919050565b600060208201905081810360008301526153dc816153a0565b9050919050565b7f4552433732313a206f70657261746f7220717565727920666f72206e6f6e657860008201527f697374656e7420746f6b656e0000000000000000000000000000000000000000602082015250565b600061543f602c83613fe6565b915061544a826153e3565b604082019050919050565b6000602082019050818103600083015261546e81615432565b9050919050565b7f4552433732313a207472616e73666572206f6620746f6b656e2074686174206960008201527f73206e6f74206f776e0000000000000000000000000000000000000000000000602082015250565b60006154d1602983613fe6565b91506154dc82615475565b604082019050919050565b60006020820190508181036000830152615500816154c4565b9050919050565b7f4552433732313a207472616e7366657220746f20746865207a65726f2061646460008201527f7265737300000000000000000000000000000000000000000000000000000000602082015250565b6000615563602483613fe6565b915061556e82615507565b604082019050919050565b6000602082019050818103600083015261559281615556565b9050919050565b7f496e697469616c697a61626c653a20636f6e7472616374206973206e6f74206960008201527f6e697469616c697a696e67000000000000000000000000000000000000000000602082015250565b60006155f5602b83613fe6565b915061560082615599565b604082019050919050565b60006020820190508181036000830152615624816155e8565b9050919050565b7f4552433732313a20617070726f766520746f2063616c6c657200000000000000600082015250565b6000615661601983613fe6565b915061566c8261562b565b602082019050919050565b6000602082019050818103600083015261569081615654565b9050919050565b7f4552433732313a207472616e7366657220746f206e6f6e20455243373231526560008201527f63656976657220696d706c656d656e7465720000000000000000000000000000602082015250565b60006156f3603283613fe6565b91506156fe82615697565b604082019050919050565b60006020820190508181036000830152615722816156e6565b9050919050565b600061573482614096565b91506000821415615748576157476148b0565b5b600182039050919050565b7f537472696e67733a20686578206c656e67746820696e73756666696369656e74600082015250565b6000615789602083613fe6565b915061579482615753565b602082019050919050565b600060208201905081810360008301526157b88161577c565b9050919050565b600081519050919050565b600082825260208201905092915050565b60006157e6826157bf565b6157f081856157ca565b9350615800818560208601613ff7565b6158098161402a565b840191505092915050565b6000608082019050615829600083018761412b565b615836602083018661412b565b615843604083018561432d565b818103606083015261585581846157db565b905095945050505050565b60008151905061586f81613f4c565b92915050565b60006020828403121561588b5761588a613f16565b5b600061589984828501615860565b9150509291505056fea26469706673582212205b7954dc9bfad156f61a2a291a8dda5552f05a984f9b67c3cb9fe28b44515cbe64736f6c634300080b0033",
  "immutableReferences": {},
  "source": "// SPDX-License-Identifier: UNLICENSED\r\n\r\npragma solidity ^0.8.3;\r\n\r\nimport \"./AbstractGameItems.sol\";\r\nimport \"../node_modules/@openzeppelin/contracts-upgradeable/access/AccessControlUpgradeable.sol\";\r\nimport \"../node_modules/@openzeppelin/contracts-upgradeable/token/ERC721/ERC721Upgradeable.sol\";\r\nimport \"../node_modules/@openzeppelin/contracts/token/ERC20/IERC20.sol\";\r\nimport \"../node_modules/@openzeppelin/contracts/token/ERC1155/IERC1155.sol\";\r\n\r\ncontract Tree is ERC721Upgradeable, AccessControlUpgradeable {\r\n\r\n    bytes32 public constant QUEST_ROLE = keccak256(\"QUEST_ROLE\");\r\n\r\n    event NewTree(uint treeId);\r\n    event GainExp(uint treeId, uint amount);\r\n    event GainLevel(uint treeId);\r\n    event StatLevelUp (uint treeId, uint statId);\r\n\r\n    uint Digits;\r\n    uint Modulus;\r\n\r\n    address DevelopmentAddress;\r\n    address TreasuryAddress;\r\n    address TokenAddress;\r\n    address GameItemsAddress;\r\n\r\n    struct TreeStruct {\r\n        uint treeDNA;\r\n        uint level;\r\n        uint exp;\r\n        uint roots;\r\n        uint branches;\r\n        uint action;\r\n        uint onActionUntil;\r\n    }\r\n\r\n    TreeStruct[] public trees;\r\n    AbstractGameItems gameItems;\r\n\r\n    //Modifiers\r\n\r\n    modifier onlyOwnerOf(uint _treeId) {\r\n        require(ownerOf(_treeId) == msg.sender);\r\n        _;\r\n    }\r\n\r\n    function supportsInterface(bytes4 interfaceId) public view virtual override(ERC721Upgradeable, AccessControlUpgradeable) returns (bool) {\r\n        return super.supportsInterface(interfaceId);\r\n    }\r\n\r\n    function initialize() initializer public {\r\n        Digits = 16;\r\n        Modulus = 10 ** Digits;\r\n\r\n        DevelopmentAddress = 0xfd768E668A158C173e9549d1632902C2A4363178;\r\n        TreasuryAddress = 0xfd768E668A158C173e9549d1632902C2A4363178;\r\n        _setupRole(DEFAULT_ADMIN_ROLE, msg.sender);\r\n        __ERC721_init(\"Patagonic Tree\", \"PTREE\");\r\n    }\r\n\r\n    //Util Functions\r\n\r\n    function vrf() public view returns (bytes32 result) {\r\n        uint[1] memory bn;\r\n        bn[0] = block.number;\r\n        assembly {\r\n            let memPtr := mload(0x40)\r\n            if iszero(staticcall(not(0), 0xff, bn, 0x20, memPtr, 0x20)) {\r\n                invalid()\r\n            }\r\n            result := mload(memPtr)\r\n        }\r\n    }\r\n\r\n    //View Functions\r\n\r\n    function treeDNA(uint treeId) public view returns (uint) {\r\n        return trees[treeId].treeDNA;\r\n    }\r\n\r\n    function treeLevel(uint treeId) public view returns (uint) {\r\n        return trees[treeId].level;\r\n    }\r\n\r\n    function treeExp(uint treeId) public view returns (uint) {\r\n        return trees[treeId].exp;\r\n    }\r\n\r\n    function treeRoots(uint treeId) public view returns (uint) {\r\n        return trees[treeId].roots;\r\n    }\r\n\r\n    function treeBranches(uint treeId) public view returns (uint) {\r\n        return trees[treeId].branches;\r\n    }\r\n\r\n    function actionStatus(uint treeId) public view returns (uint) {\r\n        return trees[treeId].onActionUntil;\r\n    }\r\n\r\n    function currentAction(uint treeId) public view returns (uint) {\r\n        return trees[treeId].action;\r\n    }\r\n\r\n    function currentPrice() public view returns (uint) {\r\n        return (trees.length+1)*10**18;\r\n    }\r\n\r\n    function _generateRandomDNA() internal view returns (uint) {\r\n        uint rand = uint(keccak256(abi.encodePacked(vrf())));\r\n        return rand % Modulus;\r\n    }\r\n\r\n    function treesQuantity() public view returns (uint) {\r\n        uint quantity = trees.length;\r\n        return quantity;\r\n    }\r\n\r\n    //Internal Functions\r\n\r\n    function levelUpBranches(uint treeId, uint amount) internal {\r\n        IERC20(TokenAddress).transferFrom(msg.sender, TreasuryAddress, amount*96/100);\r\n        IERC20(TokenAddress).transferFrom(msg.sender, DevelopmentAddress, amount*4/100);\r\n        trees[treeId].branches++;\r\n    }\r\n    function levelUpRoots(uint treeId, uint amount) internal {\r\n        IERC20(TokenAddress).transferFrom(msg.sender, TreasuryAddress, amount*96/100);\r\n        IERC20(TokenAddress).transferFrom(msg.sender, DevelopmentAddress, amount*4/100);\r\n        trees[treeId].roots++;\r\n    }\r\n\r\n    //Payable Functions\r\n\r\n    function upgradeRoots(uint treeId) public payable onlyOwnerOf(treeId) {\r\n        require(trees[treeId].level > trees[treeId].roots);\r\n        require(21 > trees[treeId].roots);\r\n        require(trees[treeId].action == 0);\r\n        uint amount = trees[treeId].roots*10**18;\r\n        require(IERC20(TokenAddress).balanceOf(msg.sender)>= amount);\r\n        \r\n        if (trees[treeId].roots > 0 && trees[treeId].roots < 21) {\r\n            uint BasicRuneAmount = (trees[treeId].roots);\r\n            require(gameItems.balanceOf(msg.sender, 0) >= BasicRuneAmount);\r\n            gameItems.burn(msg.sender, 0, BasicRuneAmount);\r\n            levelUpRoots(treeId, amount);\r\n        } else {\r\n            levelUpRoots(treeId, amount);\r\n        }\r\n       \r\n        emit StatLevelUp (treeId, 0);\r\n    }\r\n\r\n    function upgradeBranches(uint treeId) public payable onlyOwnerOf(treeId) {\r\n        require(trees[treeId].level > trees[treeId].branches);\r\n        require(21 > trees[treeId].branches);\r\n        require(trees[treeId].action == 0);\r\n        uint amount = trees[treeId].branches*10**18;\r\n        require(IERC20(TokenAddress).balanceOf(msg.sender)>= amount);\r\n\r\n        if (trees[treeId].branches > 0 && trees[treeId].branches < 21) {\r\n            uint BasicRuneAmount = (trees[treeId].branches);\r\n            require(gameItems.balanceOf(msg.sender, 0) >= BasicRuneAmount);\r\n            gameItems.burn(msg.sender, 0, BasicRuneAmount);\r\n            levelUpBranches(treeId, amount);\r\n        } else {\r\n            levelUpBranches(treeId, amount);\r\n        }\r\n        emit StatLevelUp (treeId, 1);\r\n    }\r\n\r\n    function updateAction(uint treeId, uint action, uint time) public payable onlyRole(QUEST_ROLE) {\r\n        trees[treeId].onActionUntil = time;\r\n        trees[treeId].action = action;\r\n    }\r\n\r\n    function gainExp(uint treeId, uint amount) public payable onlyRole(QUEST_ROLE) {\r\n        trees[treeId].exp = trees[treeId].exp + amount;\r\n        emit GainExp(treeId, amount);\r\n    }\r\n\r\n    function gainLevel(uint treeId) public payable onlyOwnerOf(treeId) {\r\n        require(trees[treeId].level < 100 );\r\n        require(trees[treeId].exp >= trees[treeId].level*100);\r\n        require(trees[treeId].action == 0);\r\n        //require enough PUDU Balance\r\n        uint amount = trees[treeId].level*10**18;\r\n        IERC20(TokenAddress).transferFrom(msg.sender, TreasuryAddress, amount*96/100);\r\n        IERC20(TokenAddress).transferFrom(msg.sender, DevelopmentAddress, amount*4/100);\r\n        trees[treeId].exp = trees[treeId].exp-trees[treeId].level*100;\r\n        trees[treeId].level++;\r\n        emit GainLevel(treeId);\r\n    }\r\n\r\n    function createNewTree() public payable {\r\n        require(msg.sender != address(0) && msg.sender != address(this));\r\n        require(msg.value >= currentPrice());\r\n        uint id = trees.length;\r\n        uint DNA = _generateRandomDNA();\r\n        trees.push(TreeStruct(DNA, 1, 0, 1, 1, 0, 0));\r\n        _mint(msg.sender, id);\r\n        emit NewTree(id);\r\n\r\n    }\r\n\r\n    //Transfer Functions\r\n\r\n    function transferDevelopmentAddress(address newDevelopment) public payable onlyRole(DEFAULT_ADMIN_ROLE) {\r\n        DevelopmentAddress = newDevelopment;\r\n    }\r\n\r\n    function transferTreasuryAddress(address newTreasury) public payable onlyRole(DEFAULT_ADMIN_ROLE) {\r\n        TreasuryAddress = newTreasury;\r\n    }\r\n\r\n    function transferTokenAddress(address newToken) public payable onlyRole(DEFAULT_ADMIN_ROLE) {\r\n        TokenAddress = newToken;\r\n    }\r\n\r\n    function transferGameItemsAddress(address newGameItems) public payable onlyRole(DEFAULT_ADMIN_ROLE) {\r\n        GameItemsAddress = newGameItems;\r\n        gameItems = AbstractGameItems(GameItemsAddress);\r\n    }\r\n}",
  "sourcePath": "C:\\Users\\jtsch\\OneDrive\\Escritorio\\Python\\SmartContracts-NFT-Agus\\contracts\\Tree.sol",
  "compiler": {
    "name": "solc",
    "version": "0.8.11+commit.d7f03943.Emscripten.clang"
  },
  "schemaVersion": "3.4.3",
  "updatedAt": "2022-02-09T16:56:37.069Z",
  "networkType": "ethereum",
  "devdoc": {
    "kind": "dev",
    "methods": {
      "approve(address,uint256)": {
        "details": "See {IERC721-approve}."
      },
      "balanceOf(address)": {
        "details": "See {IERC721-balanceOf}."
      },
      "getApproved(uint256)": {
        "details": "See {IERC721-getApproved}."
      },
      "getRoleAdmin(bytes32)": {
        "details": "Returns the admin role that controls `role`. See {grantRole} and {revokeRole}. To change a role's admin, use {_setRoleAdmin}."
      },
      "grantRole(bytes32,address)": {
        "details": "Grants `role` to `account`. If `account` had not been already granted `role`, emits a {RoleGranted} event. Requirements: - the caller must have ``role``'s admin role."
      },
      "hasRole(bytes32,address)": {
        "details": "Returns `true` if `account` has been granted `role`."
      },
      "isApprovedForAll(address,address)": {
        "details": "See {IERC721-isApprovedForAll}."
      },
      "name()": {
        "details": "See {IERC721Metadata-name}."
      },
      "ownerOf(uint256)": {
        "details": "See {IERC721-ownerOf}."
      },
      "renounceRole(bytes32,address)": {
        "details": "Revokes `role` from the calling account. Roles are often managed via {grantRole} and {revokeRole}: this function's purpose is to provide a mechanism for accounts to lose their privileges if they are compromised (such as when a trusted device is misplaced). If the calling account had been revoked `role`, emits a {RoleRevoked} event. Requirements: - the caller must be `account`."
      },
      "revokeRole(bytes32,address)": {
        "details": "Revokes `role` from `account`. If `account` had been granted `role`, emits a {RoleRevoked} event. Requirements: - the caller must have ``role``'s admin role."
      },
      "safeTransferFrom(address,address,uint256)": {
        "details": "See {IERC721-safeTransferFrom}."
      },
      "safeTransferFrom(address,address,uint256,bytes)": {
        "details": "See {IERC721-safeTransferFrom}."
      },
      "setApprovalForAll(address,bool)": {
        "details": "See {IERC721-setApprovalForAll}."
      },
      "symbol()": {
        "details": "See {IERC721Metadata-symbol}."
      },
      "tokenURI(uint256)": {
        "details": "See {IERC721Metadata-tokenURI}."
      },
      "transferFrom(address,address,uint256)": {
        "details": "See {IERC721-transferFrom}."
      }
    },
    "version": 1
  },
  "userdoc": {
    "kind": "user",
    "methods": {},
    "version": 1
  }
}