{
  "contractName": "TreeQuests",
  "abi": [
    {
      "anonymous": false,
      "inputs": [
        {
          "indexed": false,
          "internalType": "uint256",
          "name": "treeId",
          "type": "uint256"
        },
        {
          "indexed": false,
          "internalType": "uint256",
          "name": "questId",
          "type": "uint256"
        }
      ],
      "name": "CancelQuest",
      "type": "event"
    },
    {
      "anonymous": false,
      "inputs": [
        {
          "indexed": false,
          "internalType": "uint256",
          "name": "treeId",
          "type": "uint256"
        },
        {
          "indexed": false,
          "internalType": "uint256",
          "name": "questId",
          "type": "uint256"
        }
      ],
      "name": "CompleteQuest",
      "type": "event"
    },
    {
      "anonymous": false,
      "inputs": [
        {
          "indexed": true,
          "internalType": "bytes32",
          "name": "role",
          "type": "bytes32"
        },
        {
          "indexed": true,
          "internalType": "bytes32",
          "name": "previousAdminRole",
          "type": "bytes32"
        },
        {
          "indexed": true,
          "internalType": "bytes32",
          "name": "newAdminRole",
          "type": "bytes32"
        }
      ],
      "name": "RoleAdminChanged",
      "type": "event"
    },
    {
      "anonymous": false,
      "inputs": [
        {
          "indexed": true,
          "internalType": "bytes32",
          "name": "role",
          "type": "bytes32"
        },
        {
          "indexed": true,
          "internalType": "address",
          "name": "account",
          "type": "address"
        },
        {
          "indexed": true,
          "internalType": "address",
          "name": "sender",
          "type": "address"
        }
      ],
      "name": "RoleGranted",
      "type": "event"
    },
    {
      "anonymous": false,
      "inputs": [
        {
          "indexed": true,
          "internalType": "bytes32",
          "name": "role",
          "type": "bytes32"
        },
        {
          "indexed": true,
          "internalType": "address",
          "name": "account",
          "type": "address"
        },
        {
          "indexed": true,
          "internalType": "address",
          "name": "sender",
          "type": "address"
        }
      ],
      "name": "RoleRevoked",
      "type": "event"
    },
    {
      "anonymous": false,
      "inputs": [
        {
          "indexed": false,
          "internalType": "uint256",
          "name": "treeId",
          "type": "uint256"
        },
        {
          "indexed": false,
          "internalType": "uint256",
          "name": "questId",
          "type": "uint256"
        }
      ],
      "name": "StartQuest",
      "type": "event"
    },
    {
      "inputs": [],
      "name": "DEFAULT_ADMIN_ROLE",
      "outputs": [
        {
          "internalType": "bytes32",
          "name": "",
          "type": "bytes32"
        }
      ],
      "stateMutability": "view",
      "type": "function",
      "constant": true
    },
    {
      "inputs": [
        {
          "internalType": "bytes32",
          "name": "role",
          "type": "bytes32"
        }
      ],
      "name": "getRoleAdmin",
      "outputs": [
        {
          "internalType": "bytes32",
          "name": "",
          "type": "bytes32"
        }
      ],
      "stateMutability": "view",
      "type": "function",
      "constant": true
    },
    {
      "inputs": [
        {
          "internalType": "bytes32",
          "name": "role",
          "type": "bytes32"
        },
        {
          "internalType": "address",
          "name": "account",
          "type": "address"
        }
      ],
      "name": "grantRole",
      "outputs": [],
      "stateMutability": "nonpayable",
      "type": "function"
    },
    {
      "inputs": [
        {
          "internalType": "bytes32",
          "name": "role",
          "type": "bytes32"
        },
        {
          "internalType": "address",
          "name": "account",
          "type": "address"
        }
      ],
      "name": "hasRole",
      "outputs": [
        {
          "internalType": "bool",
          "name": "",
          "type": "bool"
        }
      ],
      "stateMutability": "view",
      "type": "function",
      "constant": true
    },
    {
      "inputs": [
        {
          "internalType": "bytes32",
          "name": "role",
          "type": "bytes32"
        },
        {
          "internalType": "address",
          "name": "account",
          "type": "address"
        }
      ],
      "name": "renounceRole",
      "outputs": [],
      "stateMutability": "nonpayable",
      "type": "function"
    },
    {
      "inputs": [
        {
          "internalType": "bytes32",
          "name": "role",
          "type": "bytes32"
        },
        {
          "internalType": "address",
          "name": "account",
          "type": "address"
        }
      ],
      "name": "revokeRole",
      "outputs": [],
      "stateMutability": "nonpayable",
      "type": "function"
    },
    {
      "inputs": [
        {
          "internalType": "bytes4",
          "name": "interfaceId",
          "type": "bytes4"
        }
      ],
      "name": "supportsInterface",
      "outputs": [
        {
          "internalType": "bool",
          "name": "",
          "type": "bool"
        }
      ],
      "stateMutability": "view",
      "type": "function",
      "constant": true
    },
    {
      "inputs": [],
      "name": "initialize",
      "outputs": [],
      "stateMutability": "nonpayable",
      "type": "function"
    },
    {
      "inputs": [],
      "name": "treasuryMultiplicator",
      "outputs": [
        {
          "internalType": "uint256",
          "name": "",
          "type": "uint256"
        }
      ],
      "stateMutability": "view",
      "type": "function",
      "constant": true
    },
    {
      "inputs": [],
      "name": "vrf",
      "outputs": [
        {
          "internalType": "bytes32",
          "name": "result",
          "type": "bytes32"
        }
      ],
      "stateMutability": "view",
      "type": "function",
      "constant": true
    },
    {
      "inputs": [
        {
          "internalType": "uint256",
          "name": "treeId",
          "type": "uint256"
        }
      ],
      "name": "startQuest2",
      "outputs": [],
      "stateMutability": "payable",
      "type": "function",
      "payable": true
    },
    {
      "inputs": [
        {
          "internalType": "uint256",
          "name": "treeId",
          "type": "uint256"
        }
      ],
      "name": "completeQuest2",
      "outputs": [],
      "stateMutability": "payable",
      "type": "function",
      "payable": true
    },
    {
      "inputs": [
        {
          "internalType": "uint256",
          "name": "treeId",
          "type": "uint256"
        }
      ],
      "name": "cancelQuest2",
      "outputs": [],
      "stateMutability": "payable",
      "type": "function",
      "payable": true
    },
    {
      "inputs": [
        {
          "internalType": "uint256",
          "name": "treeId",
          "type": "uint256"
        }
      ],
      "name": "startQuest3",
      "outputs": [],
      "stateMutability": "payable",
      "type": "function",
      "payable": true
    },
    {
      "inputs": [
        {
          "internalType": "uint256",
          "name": "treeId",
          "type": "uint256"
        }
      ],
      "name": "completeQuest3",
      "outputs": [],
      "stateMutability": "payable",
      "type": "function",
      "payable": true
    },
    {
      "inputs": [
        {
          "internalType": "uint256",
          "name": "treeId",
          "type": "uint256"
        }
      ],
      "name": "cancelQuest3",
      "outputs": [],
      "stateMutability": "payable",
      "type": "function",
      "payable": true
    },
    {
      "inputs": [
        {
          "internalType": "address",
          "name": "newTreasury",
          "type": "address"
        }
      ],
      "name": "transferTreasuryAddress",
      "outputs": [],
      "stateMutability": "payable",
      "type": "function",
      "payable": true
    },
    {
      "inputs": [
        {
          "internalType": "address",
          "name": "newToken",
          "type": "address"
        }
      ],
      "name": "transferTokenAddress",
      "outputs": [],
      "stateMutability": "payable",
      "type": "function",
      "payable": true
    },
    {
      "inputs": [
        {
          "internalType": "address",
          "name": "newGameItems",
          "type": "address"
        }
      ],
      "name": "transferGameItemsAddress",
      "outputs": [],
      "stateMutability": "payable",
      "type": "function",
      "payable": true
    },
    {
      "inputs": [
        {
          "internalType": "address",
          "name": "newTree",
          "type": "address"
        }
      ],
      "name": "transferTreeAddress",
      "outputs": [],
      "stateMutability": "payable",
      "type": "function",
      "payable": true
    }
  ],
  "bytecode": "0x608060405234801561001057600080fd5b50613536806100206000396000f3fe60806040526004361061011f5760003560e01c80634ed4d42a116100a05780638129fc1c116100645780638129fc1c1461034257806391d14854146103595780639d0149c914610396578063a217fddf146103b2578063d547741f146103dd5761011f565b80634ed4d42a146102a757806350b96162146102c35780636a4b561c146102df5780636d9dcc45146102fb57806373a689bb146103265761011f565b8063248a9ca3116100e7578063248a9ca3146101e057806325d9de4e1461021d5780632f2ff15d1461023957806336568abe146102625780634a6ed8131461028b5761011f565b806301ffc9a71461012457806307dbf5d114610161578063098d75001461017d5780630c9490431461019957806316f6bca9146101c4575b600080fd5b34801561013057600080fd5b5061014b600480360381019061014691906129d3565b610406565b6040516101589190612a1b565b60405180910390f35b61017b60048036038101906101769190612a6c565b610480565b005b61019760048036038101906101929190612af7565b610779565b005b3480156101a557600080fd5b506101ae6107d3565b6040516101bb9190612b3d565b60405180910390f35b6101de60048036038101906101d99190612af7565b610819565b005b3480156101ec57600080fd5b5061020760048036038101906102029190612b84565b6108d6565b6040516102149190612b3d565b60405180910390f35b61023760048036038101906102329190612a6c565b6108f6565b005b34801561024557600080fd5b50610260600480360381019061025b9190612bb1565b610e80565b005b34801561026e57600080fd5b5061028960048036038101906102849190612bb1565b610ea9565b005b6102a560048036038101906102a09190612af7565b610f2c565b005b6102c160048036038101906102bc9190612af7565b610fe9565b005b6102dd60048036038101906102d89190612a6c565b6110a6565b005b6102f960048036038101906102f49190612a6c565b611471565b005b34801561030757600080fd5b5061031061176a565b60405161031d9190612c00565b60405180910390f35b610340600480360381019061033b9190612a6c565b611939565b005b34801561034e57600080fd5b50610357611d03565b005b34801561036557600080fd5b50610380600480360381019061037b9190612bb1565b611e5b565b60405161038d9190612a1b565b60405180910390f35b6103b060048036038101906103ab9190612a6c565b611ec6565b005b3480156103be57600080fd5b506103c76123e4565b6040516103d49190612b3d565b60405180910390f35b3480156103e957600080fd5b5061040460048036038101906103ff9190612bb1565b6123eb565b005b60007f7965db0b000000000000000000000000000000000000000000000000000000007bffffffffffffffffffffffffffffffffffffffffffffffffffffffff1916827bffffffffffffffffffffffffffffffffffffffffffffffffffffffff19161480610479575061047882612414565b5b9050919050565b803373ffffffffffffffffffffffffffffffffffffffff16609c60009054906101000a900473ffffffffffffffffffffffffffffffffffffffff1673ffffffffffffffffffffffffffffffffffffffff16636352211e836040518263ffffffff1660e01b81526004016104f39190612c00565b602060405180830381865afa158015610510573d6000803e3d6000fd5b505050506040513d601f19601f820116820180604052508101906105349190612c30565b73ffffffffffffffffffffffffffffffffffffffff161461055457600080fd5b6000609c60009054906101000a900473ffffffffffffffffffffffffffffffffffffffff1673ffffffffffffffffffffffffffffffffffffffff1663a5caf0f6846040518263ffffffff1660e01b81526004016105b19190612c00565b6020604051808303816000875af11580156105d0573d6000803e3d6000fd5b505050506040513d601f19601f820116820180604052508101906105f49190612c72565b14156105ff57600080fd5b6002609c60009054906101000a900473ffffffffffffffffffffffffffffffffffffffff1673ffffffffffffffffffffffffffffffffffffffff1663b906866a846040518263ffffffff1660e01b815260040161065c9190612c00565b6020604051808303816000875af115801561067b573d6000803e3d6000fd5b505050506040513d601f19601f8201168201806040525081019061069f9190612c72565b146106a957600080fd5b609c60009054906101000a900473ffffffffffffffffffffffffffffffffffffffff1673ffffffffffffffffffffffffffffffffffffffff16632b60b986836000806040518463ffffffff1660e01b815260040161070993929190612ce4565b600060405180830381600087803b15801561072357600080fd5b505af1158015610737573d6000803e3d6000fd5b505050507fa176029de55f35a0e3bc1dc9eb8a1c24f3e5c63e42d329733e334a63db95a88982600260405161076d929190612d56565b60405180910390a15050565b6000801b61078e8161078961247e565b612486565b81609760006101000a81548173ffffffffffffffffffffffffffffffffffffffff021916908373ffffffffffffffffffffffffffffffffffffffff1602179055505050565b60006107dd612954565b43816000600181106107f2576107f1612d7f565b5b60200201818152505060405160208160208460ff600019fa61081057fe5b80519250505090565b6000801b61082e8161082961247e565b612486565b81609a60006101000a81548173ffffffffffffffffffffffffffffffffffffffff021916908373ffffffffffffffffffffffffffffffffffffffff160217905550609a60009054906101000a900473ffffffffffffffffffffffffffffffffffffffff16609d60006101000a81548173ffffffffffffffffffffffffffffffffffffffff021916908373ffffffffffffffffffffffffffffffffffffffff1602179055505050565b600060656000838152602001908152602001600020600101549050919050565b803373ffffffffffffffffffffffffffffffffffffffff16609c60009054906101000a900473ffffffffffffffffffffffffffffffffffffffff1673ffffffffffffffffffffffffffffffffffffffff16636352211e836040518263ffffffff1660e01b81526004016109699190612c00565b602060405180830381865afa158015610986573d6000803e3d6000fd5b505050506040513d601f19601f820116820180604052508101906109aa9190612c30565b73ffffffffffffffffffffffffffffffffffffffff16146109ca57600080fd5b6000609c60009054906101000a900473ffffffffffffffffffffffffffffffffffffffff1673ffffffffffffffffffffffffffffffffffffffff1663a5caf0f6846040518263ffffffff1660e01b8152600401610a279190612c00565b6020604051808303816000875af1158015610a46573d6000803e3d6000fd5b505050506040513d601f19601f82011682018060405250810190610a6a9190612c72565b1415610a7557600080fd5b6002609c60009054906101000a900473ffffffffffffffffffffffffffffffffffffffff1673ffffffffffffffffffffffffffffffffffffffff1663b906866a846040518263ffffffff1660e01b8152600401610ad29190612c00565b6020604051808303816000875af1158015610af1573d6000803e3d6000fd5b505050506040513d601f19601f82011682018060405250810190610b159190612c72565b14610b1f57600080fd5b609c60009054906101000a900473ffffffffffffffffffffffffffffffffffffffff1673ffffffffffffffffffffffffffffffffffffffff1663a5caf0f6836040518263ffffffff1660e01b8152600401610b7a9190612c00565b6020604051808303816000875af1158015610b99573d6000803e3d6000fd5b505050506040513d601f19601f82011682018060405250810190610bbd9190612c72565b421015610bc957600080fd5b6000600a90506000670de0b6b3a7640000905080609e60009054906101000a900473ffffffffffffffffffffffffffffffffffffffff1673ffffffffffffffffffffffffffffffffffffffff166318160ddd6040518163ffffffff1660e01b8152600401602060405180830381865afa158015610c4a573d6000803e3d6000fd5b505050506040513d601f19601f82011682018060405250810190610c6e9190612c72565b610c789190612ddd565b6b033b2e3c9fd0803ce80000001015610c9057600080fd5b609c60009054906101000a900473ffffffffffffffffffffffffffffffffffffffff1673ffffffffffffffffffffffffffffffffffffffff16632b60b986856000806040518463ffffffff1660e01b8152600401610cf093929190612ce4565b600060405180830381600087803b158015610d0a57600080fd5b505af1158015610d1e573d6000803e3d6000fd5b50505050609c60009054906101000a900473ffffffffffffffffffffffffffffffffffffffff1673ffffffffffffffffffffffffffffffffffffffff16636cad693285846040518363ffffffff1660e01b8152600401610d7f929190612e33565b600060405180830381600087803b158015610d9957600080fd5b505af1158015610dad573d6000803e3d6000fd5b50505050609e60009054906101000a900473ffffffffffffffffffffffffffffffffffffffff1673ffffffffffffffffffffffffffffffffffffffff166340c10f1933836040518363ffffffff1660e01b8152600401610e0e929190612e6b565b600060405180830381600087803b158015610e2857600080fd5b505af1158015610e3c573d6000803e3d6000fd5b505050507f30ee9e16196ba30cdcc7b150805a842d6ee2b4e5f912753ec25aae5a8016c012846002604051610e72929190612d56565b60405180910390a150505050565b610e89826108d6565b610e9a81610e9561247e565b612486565b610ea48383612523565b505050565b610eb161247e565b73ffffffffffffffffffffffffffffffffffffffff168173ffffffffffffffffffffffffffffffffffffffff1614610f1e576040517f08c379a0000000000000000000000000000000000000000000000000000000008152600401610f1590612f17565b60405180910390fd5b610f288282612604565b5050565b6000801b610f4181610f3c61247e565b612486565b81609860006101000a81548173ffffffffffffffffffffffffffffffffffffffff021916908373ffffffffffffffffffffffffffffffffffffffff160217905550609860009054906101000a900473ffffffffffffffffffffffffffffffffffffffff16609c60006101000a81548173ffffffffffffffffffffffffffffffffffffffff021916908373ffffffffffffffffffffffffffffffffffffffff1602179055505050565b6000801b610ffe81610ff961247e565b612486565b81609960006101000a81548173ffffffffffffffffffffffffffffffffffffffff021916908373ffffffffffffffffffffffffffffffffffffffff160217905550609960009054906101000a900473ffffffffffffffffffffffffffffffffffffffff16609e60006101000a81548173ffffffffffffffffffffffffffffffffffffffff021916908373ffffffffffffffffffffffffffffffffffffffff1602179055505050565b803373ffffffffffffffffffffffffffffffffffffffff16609c60009054906101000a900473ffffffffffffffffffffffffffffffffffffffff1673ffffffffffffffffffffffffffffffffffffffff16636352211e836040518263ffffffff1660e01b81526004016111199190612c00565b602060405180830381865afa158015611136573d6000803e3d6000fd5b505050506040513d601f19601f8201168201806040525081019061115a9190612c30565b73ffffffffffffffffffffffffffffffffffffffff161461117a57600080fd5b6000609c60009054906101000a900473ffffffffffffffffffffffffffffffffffffffff1673ffffffffffffffffffffffffffffffffffffffff1663a5caf0f6846040518263ffffffff1660e01b81526004016111d79190612c00565b6020604051808303816000875af11580156111f6573d6000803e3d6000fd5b505050506040513d601f19601f8201168201806040525081019061121a9190612c72565b1461122457600080fd5b6000609c60009054906101000a900473ffffffffffffffffffffffffffffffffffffffff1673ffffffffffffffffffffffffffffffffffffffff1663b906866a846040518263ffffffff1660e01b81526004016112819190612c00565b6020604051808303816000875af11580156112a0573d6000803e3d6000fd5b505050506040513d601f19601f820116820180604052508101906112c49190612c72565b146112ce57600080fd5b6000603c6001609c60009054906101000a900473ffffffffffffffffffffffffffffffffffffffff1673ffffffffffffffffffffffffffffffffffffffff16639c06eccd866040518263ffffffff1660e01b815260040161132f9190612c00565b6020604051808303816000875af115801561134e573d6000803e3d6000fd5b505050506040513d601f19601f820116820180604052508101906113729190612c72565b61137c9190612f37565b6113869190612f37565b6102586113939190612f91565b9050609c60009054906101000a900473ffffffffffffffffffffffffffffffffffffffff1673ffffffffffffffffffffffffffffffffffffffff16632b60b98684600384426113e29190612ddd565b6040518463ffffffff1660e01b815260040161140093929190613000565b600060405180830381600087803b15801561141a57600080fd5b505af115801561142e573d6000803e3d6000fd5b505050507ff4489fbfe0edc46e6905e1f77d624c12bcd689709fdd138371d8a7edf52f5e5d836003604051611464929190613037565b60405180910390a1505050565b803373ffffffffffffffffffffffffffffffffffffffff16609c60009054906101000a900473ffffffffffffffffffffffffffffffffffffffff1673ffffffffffffffffffffffffffffffffffffffff16636352211e836040518263ffffffff1660e01b81526004016114e49190612c00565b602060405180830381865afa158015611501573d6000803e3d6000fd5b505050506040513d601f19601f820116820180604052508101906115259190612c30565b73ffffffffffffffffffffffffffffffffffffffff161461154557600080fd5b6000609c60009054906101000a900473ffffffffffffffffffffffffffffffffffffffff1673ffffffffffffffffffffffffffffffffffffffff1663a5caf0f6846040518263ffffffff1660e01b81526004016115a29190612c00565b6020604051808303816000875af11580156115c1573d6000803e3d6000fd5b505050506040513d601f19601f820116820180604052508101906115e59190612c72565b14156115f057600080fd5b6003609c60009054906101000a900473ffffffffffffffffffffffffffffffffffffffff1673ffffffffffffffffffffffffffffffffffffffff1663b906866a846040518263ffffffff1660e01b815260040161164d9190612c00565b6020604051808303816000875af115801561166c573d6000803e3d6000fd5b505050506040513d601f19601f820116820180604052508101906116909190612c72565b1461169a57600080fd5b609c60009054906101000a900473ffffffffffffffffffffffffffffffffffffffff1673ffffffffffffffffffffffffffffffffffffffff16632b60b986836000806040518463ffffffff1660e01b81526004016116fa93929190612ce4565b600060405180830381600087803b15801561171457600080fd5b505af1158015611728573d6000803e3d6000fd5b505050507fa176029de55f35a0e3bc1dc9eb8a1c24f3e5c63e42d329733e334a63db95a88982600360405161175e929190613037565b60405180910390a15050565b600080609e60009054906101000a900473ffffffffffffffffffffffffffffffffffffffff1673ffffffffffffffffffffffffffffffffffffffff166370a08231609760009054906101000a900473ffffffffffffffffffffffffffffffffffffffff166040518263ffffffff1660e01b81526004016117ea9190613060565b602060405180830381865afa158015611807573d6000803e3d6000fd5b505050506040513d601f19601f8201168201806040525081019061182b9190612c72565b905060646005609b5461183e9190612f37565b61184891906130aa565b8110611858576064915050611936565b60646004609b546118699190612f37565b61187391906130aa565b8110611883576050915050611936565b60646003609b546118949190612f37565b61189e91906130aa565b81106118ae57603c915050611936565b60646002609b546118bf9190612f37565b6118c991906130aa565b81106118d9576028915050611936565b60646001609b546118ea9190612f37565b6118f491906130aa565b8110611904576014915050611936565b6103e86001609b546119169190612f37565b61192091906130aa565b8110611930576005915050611936565b60009150505b90565b803373ffffffffffffffffffffffffffffffffffffffff16609c60009054906101000a900473ffffffffffffffffffffffffffffffffffffffff1673ffffffffffffffffffffffffffffffffffffffff16636352211e836040518263ffffffff1660e01b81526004016119ac9190612c00565b602060405180830381865afa1580156119c9573d6000803e3d6000fd5b505050506040513d601f19601f820116820180604052508101906119ed9190612c30565b73ffffffffffffffffffffffffffffffffffffffff1614611a0d57600080fd5b6000609c60009054906101000a900473ffffffffffffffffffffffffffffffffffffffff1673ffffffffffffffffffffffffffffffffffffffff1663a5caf0f6846040518263ffffffff1660e01b8152600401611a6a9190612c00565b6020604051808303816000875af1158015611a89573d6000803e3d6000fd5b505050506040513d601f19601f82011682018060405250810190611aad9190612c72565b14611ab757600080fd5b6000609c60009054906101000a900473ffffffffffffffffffffffffffffffffffffffff1673ffffffffffffffffffffffffffffffffffffffff1663b906866a846040518263ffffffff1660e01b8152600401611b149190612c00565b6020604051808303816000875af1158015611b33573d6000803e3d6000fd5b505050506040513d601f19601f82011682018060405250810190611b579190612c72565b14611b6157600080fd5b6000603c6003609c60009054906101000a900473ffffffffffffffffffffffffffffffffffffffff1673ffffffffffffffffffffffffffffffffffffffff16639c06eccd866040518263ffffffff1660e01b8152600401611bc29190612c00565b6020604051808303816000875af1158015611be1573d6000803e3d6000fd5b505050506040513d601f19601f82011682018060405250810190611c059190612c72565b611c0f9190612f37565b611c199190612f37565b603c611c259190612f91565b9050609c60009054906101000a900473ffffffffffffffffffffffffffffffffffffffff1673ffffffffffffffffffffffffffffffffffffffff16632b60b9868460028442611c749190612ddd565b6040518463ffffffff1660e01b8152600401611c92939291906130db565b600060405180830381600087803b158015611cac57600080fd5b505af1158015611cc0573d6000803e3d6000fd5b505050507ff4489fbfe0edc46e6905e1f77d624c12bcd689709fdd138371d8a7edf52f5e5d836002604051611cf6929190612d56565b60405180910390a1505050565b600060019054906101000a900460ff16611d2b5760008054906101000a900460ff1615611d34565b611d336126e6565b5b611d73576040517f08c379a0000000000000000000000000000000000000000000000000000000008152600401611d6a90613184565b60405180910390fd5b60008060019054906101000a900460ff161590508015611dc3576001600060016101000a81548160ff02191690831515021790555060016000806101000a81548160ff0219169083151502179055505b73fd768e668a158c173e9549d1632902c2a4363178609760006101000a81548173ffffffffffffffffffffffffffffffffffffffff021916908373ffffffffffffffffffffffffffffffffffffffff1602179055506af8277896582678ac000000609b81905550611e376000801b336126f7565b8015611e585760008060016101000a81548160ff0219169083151502179055505b50565b60006065600084815260200190815260200160002060000160008373ffffffffffffffffffffffffffffffffffffffff1673ffffffffffffffffffffffffffffffffffffffff16815260200190815260200160002060009054906101000a900460ff16905092915050565b803373ffffffffffffffffffffffffffffffffffffffff16609c60009054906101000a900473ffffffffffffffffffffffffffffffffffffffff1673ffffffffffffffffffffffffffffffffffffffff16636352211e836040518263ffffffff1660e01b8152600401611f399190612c00565b602060405180830381865afa158015611f56573d6000803e3d6000fd5b505050506040513d601f19601f82011682018060405250810190611f7a9190612c30565b73ffffffffffffffffffffffffffffffffffffffff1614611f9a57600080fd5b6000609c60009054906101000a900473ffffffffffffffffffffffffffffffffffffffff1673ffffffffffffffffffffffffffffffffffffffff1663a5caf0f6846040518263ffffffff1660e01b8152600401611ff79190612c00565b6020604051808303816000875af1158015612016573d6000803e3d6000fd5b505050506040513d601f19601f8201168201806040525081019061203a9190612c72565b141561204557600080fd5b6003609c60009054906101000a900473ffffffffffffffffffffffffffffffffffffffff1673ffffffffffffffffffffffffffffffffffffffff1663b906866a846040518263ffffffff1660e01b81526004016120a29190612c00565b6020604051808303816000875af11580156120c1573d6000803e3d6000fd5b505050506040513d601f19601f820116820180604052508101906120e59190612c72565b146120ef57600080fd5b609c60009054906101000a900473ffffffffffffffffffffffffffffffffffffffff1673ffffffffffffffffffffffffffffffffffffffff1663a5caf0f6836040518263ffffffff1660e01b815260040161214a9190612c00565b6020604051808303816000875af1158015612169573d6000803e3d6000fd5b505050506040513d601f19601f8201168201806040525081019061218d9190612c72565b42101561219957600080fd5b60006064905060006121a96107d3565b6040516020016121b991906131c5565b6040516020818303038152906040528051906020012060001c90506000600a826121e391906131e0565b9050609c60009054906101000a900473ffffffffffffffffffffffffffffffffffffffff1673ffffffffffffffffffffffffffffffffffffffff16632b60b986866000806040518463ffffffff1660e01b815260040161224593929190612ce4565b600060405180830381600087803b15801561225f57600080fd5b505af1158015612273573d6000803e3d6000fd5b50505050609c60009054906101000a900473ffffffffffffffffffffffffffffffffffffffff1673ffffffffffffffffffffffffffffffffffffffff16636cad693286856040518363ffffffff1660e01b81526004016122d4929190612e33565b600060405180830381600087803b1580156122ee57600080fd5b505af1158015612302573d6000803e3d6000fd5b5050505060008114156123a357609d60009054906101000a900473ffffffffffffffffffffffffffffffffffffffff1673ffffffffffffffffffffffffffffffffffffffff1663156e29f633600060016040518463ffffffff1660e01b81526004016123709392919061324c565b600060405180830381600087803b15801561238a57600080fd5b505af115801561239e573d6000803e3d6000fd5b505050505b7f30ee9e16196ba30cdcc7b150805a842d6ee2b4e5f912753ec25aae5a8016c0128560036040516123d5929190613037565b60405180910390a15050505050565b6000801b81565b6123f4826108d6565b6124058161240061247e565b612486565b61240f8383612604565b505050565b60007f01ffc9a7000000000000000000000000000000000000000000000000000000007bffffffffffffffffffffffffffffffffffffffffffffffffffffffff1916827bffffffffffffffffffffffffffffffffffffffffffffffffffffffff1916149050919050565b600033905090565b6124908282611e5b565b61251f576124b58173ffffffffffffffffffffffffffffffffffffffff166014612705565b6124c38360001c6020612705565b6040516020016124d4929190613395565b6040516020818303038152906040526040517f08c379a00000000000000000000000000000000000000000000000000000000081526004016125169190613419565b60405180910390fd5b5050565b61252d8282611e5b565b6126005760016065600084815260200190815260200160002060000160008373ffffffffffffffffffffffffffffffffffffffff1673ffffffffffffffffffffffffffffffffffffffff16815260200190815260200160002060006101000a81548160ff0219169083151502179055506125a561247e565b73ffffffffffffffffffffffffffffffffffffffff168173ffffffffffffffffffffffffffffffffffffffff16837f2f8788117e7eff1d82e926ec794901d17c78024a50270940304540a733656f0d60405160405180910390a45b5050565b61260e8282611e5b565b156126e25760006065600084815260200190815260200160002060000160008373ffffffffffffffffffffffffffffffffffffffff1673ffffffffffffffffffffffffffffffffffffffff16815260200190815260200160002060006101000a81548160ff02191690831515021790555061268761247e565b73ffffffffffffffffffffffffffffffffffffffff168173ffffffffffffffffffffffffffffffffffffffff16837ff6391f5c32d9c69d2a47ea670b442974b53935d1edc7fd64eb21e047a839171b60405160405180910390a45b5050565b60006126f130612941565b15905090565b6127018282612523565b5050565b6060600060028360026127189190612f37565b6127229190612ddd565b67ffffffffffffffff81111561273b5761273a61343b565b5b6040519080825280601f01601f19166020018201604052801561276d5781602001600182028036833780820191505090505b5090507f3000000000000000000000000000000000000000000000000000000000000000816000815181106127a5576127a4612d7f565b5b60200101907effffffffffffffffffffffffffffffffffffffffffffffffffffffffffffff1916908160001a9053507f78000000000000000000000000000000000000000000000000000000000000008160018151811061280957612808612d7f565b5b60200101907effffffffffffffffffffffffffffffffffffffffffffffffffffffffffffff1916908160001a905350600060018460026128499190612f37565b6128539190612ddd565b90505b60018111156128f3577f3031323334353637383961626364656600000000000000000000000000000000600f86166010811061289557612894612d7f565b5b1a60f81b8282815181106128ac576128ab612d7f565b5b60200101907effffffffffffffffffffffffffffffffffffffffffffffffffffffffffffff1916908160001a905350600485901c9450806128ec9061346a565b9050612856565b5060008414612937576040517f08c379a000000000000000000000000000000000000000000000000000000000815260040161292e906134e0565b60405180910390fd5b8091505092915050565b600080823b905060008111915050919050565b6040518060200160405280600190602082028036833780820191505090505090565b600080fd5b60007fffffffff0000000000000000000000000000000000000000000000000000000082169050919050565b6129b08161297b565b81146129bb57600080fd5b50565b6000813590506129cd816129a7565b92915050565b6000602082840312156129e9576129e8612976565b5b60006129f7848285016129be565b91505092915050565b60008115159050919050565b612a1581612a00565b82525050565b6000602082019050612a306000830184612a0c565b92915050565b6000819050919050565b612a4981612a36565b8114612a5457600080fd5b50565b600081359050612a6681612a40565b92915050565b600060208284031215612a8257612a81612976565b5b6000612a9084828501612a57565b91505092915050565b600073ffffffffffffffffffffffffffffffffffffffff82169050919050565b6000612ac482612a99565b9050919050565b612ad481612ab9565b8114612adf57600080fd5b50565b600081359050612af181612acb565b92915050565b600060208284031215612b0d57612b0c612976565b5b6000612b1b84828501612ae2565b91505092915050565b6000819050919050565b612b3781612b24565b82525050565b6000602082019050612b526000830184612b2e565b92915050565b612b6181612b24565b8114612b6c57600080fd5b50565b600081359050612b7e81612b58565b92915050565b600060208284031215612b9a57612b99612976565b5b6000612ba884828501612b6f565b91505092915050565b60008060408385031215612bc857612bc7612976565b5b6000612bd685828601612b6f565b9250506020612be785828601612ae2565b9150509250929050565b612bfa81612a36565b82525050565b6000602082019050612c156000830184612bf1565b92915050565b600081519050612c2a81612acb565b92915050565b600060208284031215612c4657612c45612976565b5b6000612c5484828501612c1b565b91505092915050565b600081519050612c6c81612a40565b92915050565b600060208284031215612c8857612c87612976565b5b6000612c9684828501612c5d565b91505092915050565b6000819050919050565b6000819050919050565b6000612cce612cc9612cc484612c9f565b612ca9565b612a36565b9050919050565b612cde81612cb3565b82525050565b6000606082019050612cf96000830186612bf1565b612d066020830185612cd5565b612d136040830184612cd5565b949350505050565b6000819050919050565b6000612d40612d3b612d3684612d1b565b612ca9565b612a36565b9050919050565b612d5081612d25565b82525050565b6000604082019050612d6b6000830185612bf1565b612d786020830184612d47565b9392505050565b7f4e487b7100000000000000000000000000000000000000000000000000000000600052603260045260246000fd5b7f4e487b7100000000000000000000000000000000000000000000000000000000600052601160045260246000fd5b6000612de882612a36565b9150612df383612a36565b9250827fffffffffffffffffffffffffffffffffffffffffffffffffffffffffffffffff03821115612e2857612e27612dae565b5b828201905092915050565b6000604082019050612e486000830185612bf1565b612e556020830184612bf1565b9392505050565b612e6581612ab9565b82525050565b6000604082019050612e806000830185612e5c565b612e8d6020830184612bf1565b9392505050565b600082825260208201905092915050565b7f416363657373436f6e74726f6c3a2063616e206f6e6c792072656e6f756e636560008201527f20726f6c657320666f722073656c660000000000000000000000000000000000602082015250565b6000612f01602f83612e94565b9150612f0c82612ea5565b604082019050919050565b60006020820190508181036000830152612f3081612ef4565b9050919050565b6000612f4282612a36565b9150612f4d83612a36565b9250817fffffffffffffffffffffffffffffffffffffffffffffffffffffffffffffffff0483118215151615612f8657612f85612dae565b5b828202905092915050565b6000612f9c82612a36565b9150612fa783612a36565b925082821015612fba57612fb9612dae565b5b828203905092915050565b6000819050919050565b6000612fea612fe5612fe084612fc5565b612ca9565b612a36565b9050919050565b612ffa81612fcf565b82525050565b60006060820190506130156000830186612bf1565b6130226020830185612ff1565b61302f6040830184612bf1565b949350505050565b600060408201905061304c6000830185612bf1565b6130596020830184612ff1565b9392505050565b60006020820190506130756000830184612e5c565b92915050565b7f4e487b7100000000000000000000000000000000000000000000000000000000600052601260045260246000fd5b60006130b582612a36565b91506130c083612a36565b9250826130d0576130cf61307b565b5b828204905092915050565b60006060820190506130f06000830186612bf1565b6130fd6020830185612d47565b61310a6040830184612bf1565b949350505050565b7f496e697469616c697a61626c653a20636f6e747261637420697320616c72656160008201527f647920696e697469616c697a6564000000000000000000000000000000000000602082015250565b600061316e602e83612e94565b915061317982613112565b604082019050919050565b6000602082019050818103600083015261319d81613161565b9050919050565b6000819050919050565b6131bf6131ba82612b24565b6131a4565b82525050565b60006131d182846131ae565b60208201915081905092915050565b60006131eb82612a36565b91506131f683612a36565b9250826132065761320561307b565b5b828206905092915050565b6000819050919050565b600061323661323161322c84613211565b612ca9565b612a36565b9050919050565b6132468161321b565b82525050565b60006060820190506132616000830186612e5c565b61326e6020830185612cd5565b61327b604083018461323d565b949350505050565b600081905092915050565b7f416363657373436f6e74726f6c3a206163636f756e7420000000000000000000600082015250565b60006132c4601783613283565b91506132cf8261328e565b601782019050919050565b600081519050919050565b60005b838110156133035780820151818401526020810190506132e8565b83811115613312576000848401525b50505050565b6000613323826132da565b61332d8185613283565b935061333d8185602086016132e5565b80840191505092915050565b7f206973206d697373696e6720726f6c6520000000000000000000000000000000600082015250565b600061337f601183613283565b915061338a82613349565b601182019050919050565b60006133a0826132b7565b91506133ac8285613318565b91506133b782613372565b91506133c38284613318565b91508190509392505050565b6000601f19601f8301169050919050565b60006133eb826132da565b6133f58185612e94565b93506134058185602086016132e5565b61340e816133cf565b840191505092915050565b6000602082019050818103600083015261343381846133e0565b905092915050565b7f4e487b7100000000000000000000000000000000000000000000000000000000600052604160045260246000fd5b600061347582612a36565b9150600082141561348957613488612dae565b5b600182039050919050565b7f537472696e67733a20686578206c656e67746820696e73756666696369656e74600082015250565b60006134ca602083612e94565b91506134d582613494565b602082019050919050565b600060208201905081810360008301526134f9816134bd565b905091905056fea264697066735822122064fc0a978352476bae50a83990787b346bb2f3cb424914970a2db3cc4c49b9af64736f6c634300080b0033",
  "immutableReferences": {},
  "source": "// SPDX-License-Identifier: UNLICENSED\r\n\r\npragma solidity ^0.8.3;\r\nimport \"./AbstractTree.sol\";\r\nimport \"./AbstractGameItems.sol\";\r\nimport \"./AbstractPudu.sol\";\r\nimport \"../node_modules/@openzeppelin/contracts-upgradeable/access/AccessControlUpgradeable.sol\";\r\nimport \"../node_modules/@openzeppelin/contracts/token/ERC20/IERC20.sol\";\r\nimport \"../node_modules/@openzeppelin/contracts-upgradeable/proxy/utils/Initializable.sol\";\r\n\r\ncontract TreeQuests is Initializable, AccessControlUpgradeable {\r\n\r\n    event StartQuest(uint treeId, uint questId);\r\n    event CompleteQuest(uint treeId, uint questId);\r\n    event CancelQuest(uint treeId, uint questId);\r\n\r\n    address TreasuryAddress;\r\n    address TreeAddress;\r\n    address TokenAddress;\r\n    address GameItemsAddress;\r\n\r\n    uint totalTreasuryBalance;\r\n\r\n    AbstractTree tree;\r\n    AbstractGameItems gameItems;\r\n    AbstractPudu pudu;\r\n\r\n    modifier onlyOwnerOf(uint _treeId) {\r\n        require(tree.ownerOf(_treeId) == msg.sender);\r\n        _;\r\n    }\r\n\r\n    function initialize() initializer public {\r\n        TreasuryAddress = 0xfd768E668A158C173e9549d1632902C2A4363178;\r\n\r\n        totalTreasuryBalance = (1000000000*30*(10**18))/100;\r\n        _setupRole(DEFAULT_ADMIN_ROLE, msg.sender);\r\n    }\r\n    \r\n    // Util functions\r\n\r\n    function ceil(uint _a, uint _m) internal pure returns (uint ) {\r\n        return ((_a + _m - 1) / _m) * _m;\r\n    }\r\n\r\n    function treasuryMultiplicator() public view returns (uint) {\r\n        uint currentTreasuryBalance = pudu.balanceOf(TreasuryAddress);\r\n        if (currentTreasuryBalance >= totalTreasuryBalance*5/100) {\r\n            return 100;\r\n        } else if (currentTreasuryBalance >= totalTreasuryBalance*4/100) {\r\n            return 80;\r\n        } else if (currentTreasuryBalance >= totalTreasuryBalance*3/100) {\r\n            return 60;\r\n        } else if (currentTreasuryBalance >= totalTreasuryBalance*2/100) {\r\n            return 40;\r\n        } else if (currentTreasuryBalance >= totalTreasuryBalance*1/100) {\r\n            return 20;\r\n        } else if (currentTreasuryBalance >= totalTreasuryBalance*1/1000) {\r\n            return 5;\r\n        } else {\r\n            return 0;\r\n        }\r\n    }\r\n\r\n    function vrf() public view returns (bytes32 result) {\r\n        uint[1] memory bn;\r\n        bn[0] = block.number;\r\n        assembly {\r\n            let memPtr := mload(0x40)\r\n            if iszero(staticcall(not(0), 0xff, bn, 0x20, memPtr, 0x20)) {\r\n                invalid()\r\n            }\r\n            result := mload(memPtr)\r\n        }\r\n    }\r\n\r\n    //Payable Functions\r\n\r\n    //Quest0 Foraging\r\n\r\n    function startQuest2(uint treeId) public payable onlyOwnerOf(treeId) {\r\n        require(tree.actionStatus(treeId) == 0);\r\n        require(tree.currentAction(treeId) == 0);\r\n        uint questDuration = 1*60 - tree.treeTrainingGrounds(treeId)*3*60;\r\n        tree.updateAction(treeId, 2, block.timestamp+questDuration);\r\n        emit StartQuest(treeId, 2);\r\n    }\r\n\r\n    function completeQuest2(uint treeId) public payable onlyOwnerOf(treeId) {\r\n        require(tree.actionStatus(treeId) != 0);\r\n        require(tree.currentAction(treeId) == 2);\r\n        require(block.timestamp >= tree.actionStatus(treeId));\r\n\r\n        uint expReward = 10;\r\n        //uint treeMult = ceil(tree.treeBarracks(treeId), 5)/5;\r\n        uint tokenReward = (1*10**18);\r\n\r\n        require(1000000000*10**18 >= pudu.totalSupply()+tokenReward);\r\n\r\n        tree.updateAction(treeId, 0, 0);\r\n        tree.gainExp(treeId, expReward);\r\n        pudu.mint(msg.sender, tokenReward);\r\n\r\n        emit CompleteQuest(treeId, 2);\r\n\r\n    }\r\n\r\n    function cancelQuest2(uint treeId) public payable onlyOwnerOf(treeId) {\r\n        require(tree.actionStatus(treeId) != 0);\r\n        require(tree.currentAction(treeId) == 2);\r\n        tree.updateAction(treeId, 0, 0);\r\n        emit CancelQuest(treeId, 2);\r\n\r\n    }\r\n\r\n    //Quest1 Clean Roots\r\n\r\n    function startQuest3(uint treeId) public payable onlyOwnerOf(treeId) {\r\n        require(tree.actionStatus(treeId) == 0);\r\n        require(tree.currentAction(treeId) == 0);\r\n        uint questDuration = 10*60 - tree.treeTrainingGrounds(treeId)*1*60;\r\n        tree.updateAction(treeId, 3, block.timestamp+questDuration);\r\n        emit StartQuest(treeId, 3);\r\n    }\r\n\r\n    function completeQuest3(uint treeId) public payable onlyOwnerOf(treeId) {\r\n        require(tree.actionStatus(treeId) != 0);\r\n        require(tree.currentAction(treeId) == 3);\r\n        require(block.timestamp >= tree.actionStatus(treeId));\r\n\r\n        uint expReward = 100;\r\n        uint rand = uint(keccak256(abi.encodePacked(vrf())));\r\n        uint chance = rand%10;\r\n        tree.updateAction(treeId, 0, 0);\r\n        tree.gainExp(treeId, expReward);\r\n        if (chance == 0) {\r\n            gameItems.mint(msg.sender, 0, 1);\r\n        }\r\n        emit CompleteQuest(treeId, 3);\r\n\r\n    }\r\n\r\n    function cancelQuest3(uint treeId) public payable onlyOwnerOf(treeId) {\r\n        require(tree.actionStatus(treeId) != 0);\r\n        require(tree.currentAction(treeId) == 3);\r\n        tree.updateAction(treeId, 0, 0);\r\n        emit CancelQuest(treeId, 3);\r\n\r\n    }\r\n\r\n    //Transfer functions\r\n\r\n    function transferTreasuryAddress(address newTreasury) public payable onlyRole(DEFAULT_ADMIN_ROLE) {\r\n        TreasuryAddress = newTreasury;\r\n    }\r\n\r\n    function transferTokenAddress(address newToken) public payable onlyRole(DEFAULT_ADMIN_ROLE) {\r\n        TokenAddress = newToken;\r\n        pudu = AbstractPudu(TokenAddress);\r\n    }\r\n\r\n    function transferGameItemsAddress(address newGameItems) public payable onlyRole(DEFAULT_ADMIN_ROLE) {\r\n        GameItemsAddress = newGameItems;\r\n        gameItems = AbstractGameItems(GameItemsAddress);\r\n    }\r\n\r\n    function transferTreeAddress(address newTree) public payable onlyRole(DEFAULT_ADMIN_ROLE) {\r\n        TreeAddress = newTree;\r\n        tree = AbstractTree(TreeAddress);\r\n    }\r\n\r\n}",
  "sourcePath": "C:\\Users\\jtsch\\OneDrive\\Escritorio\\Python\\SmartContracts-NFT-Agus\\contracts\\TreeQuests.sol",
  "compiler": {
    "name": "solc",
    "version": "0.8.11+commit.d7f03943.Emscripten.clang"
  },
  "schemaVersion": "3.4.3",
  "updatedAt": "2022-01-24T23:25:39.306Z",
  "networkType": "ethereum",
  "devdoc": {
    "kind": "dev",
    "methods": {
      "getRoleAdmin(bytes32)": {
        "details": "Returns the admin role that controls `role`. See {grantRole} and {revokeRole}. To change a role's admin, use {_setRoleAdmin}."
      },
      "grantRole(bytes32,address)": {
        "details": "Grants `role` to `account`. If `account` had not been already granted `role`, emits a {RoleGranted} event. Requirements: - the caller must have ``role``'s admin role."
      },
      "hasRole(bytes32,address)": {
        "details": "Returns `true` if `account` has been granted `role`."
      },
      "renounceRole(bytes32,address)": {
        "details": "Revokes `role` from the calling account. Roles are often managed via {grantRole} and {revokeRole}: this function's purpose is to provide a mechanism for accounts to lose their privileges if they are compromised (such as when a trusted device is misplaced). If the calling account had been revoked `role`, emits a {RoleRevoked} event. Requirements: - the caller must be `account`."
      },
      "revokeRole(bytes32,address)": {
        "details": "Revokes `role` from `account`. If `account` had been granted `role`, emits a {RoleRevoked} event. Requirements: - the caller must have ``role``'s admin role."
      },
      "supportsInterface(bytes4)": {
        "details": "See {IERC165-supportsInterface}."
      }
    },
    "version": 1
  },
  "userdoc": {
    "kind": "user",
    "methods": {},
    "version": 1
  }
}