{
  "contractName": "Tree",
  "abi": [
    {
      "anonymous": false,
      "inputs": [
        {
          "indexed": true,
          "internalType": "address",
          "name": "owner",
          "type": "address"
        },
        {
          "indexed": true,
          "internalType": "address",
          "name": "approved",
          "type": "address"
        },
        {
          "indexed": true,
          "internalType": "uint256",
          "name": "tokenId",
          "type": "uint256"
        }
      ],
      "name": "Approval",
      "type": "event"
    },
    {
      "anonymous": false,
      "inputs": [
        {
          "indexed": true,
          "internalType": "address",
          "name": "owner",
          "type": "address"
        },
        {
          "indexed": true,
          "internalType": "address",
          "name": "operator",
          "type": "address"
        },
        {
          "indexed": false,
          "internalType": "bool",
          "name": "approved",
          "type": "bool"
        }
      ],
      "name": "ApprovalForAll",
      "type": "event"
    },
    {
      "anonymous": false,
      "inputs": [
        {
          "indexed": false,
          "internalType": "uint256",
          "name": "treeId",
          "type": "uint256"
        },
        {
          "indexed": false,
          "internalType": "uint256",
          "name": "amount",
          "type": "uint256"
        }
      ],
      "name": "GainExp",
      "type": "event"
    },
    {
      "anonymous": false,
      "inputs": [
        {
          "indexed": false,
          "internalType": "uint256",
          "name": "treeId",
          "type": "uint256"
        }
      ],
      "name": "GainLevel",
      "type": "event"
    },
    {
      "anonymous": false,
      "inputs": [
        {
          "indexed": false,
          "internalType": "uint256",
          "name": "treeId",
          "type": "uint256"
        }
      ],
      "name": "NewTree",
      "type": "event"
    },
    {
      "anonymous": false,
      "inputs": [
        {
          "indexed": true,
          "internalType": "address",
          "name": "from",
          "type": "address"
        },
        {
          "indexed": true,
          "internalType": "address",
          "name": "to",
          "type": "address"
        },
        {
          "indexed": true,
          "internalType": "uint256",
          "name": "tokenId",
          "type": "uint256"
        }
      ],
      "name": "Transfer",
      "type": "event"
    },
    {
      "inputs": [
        {
          "internalType": "address",
          "name": "to",
          "type": "address"
        },
        {
          "internalType": "uint256",
          "name": "tokenId",
          "type": "uint256"
        }
      ],
      "name": "approve",
      "outputs": [],
      "stateMutability": "nonpayable",
      "type": "function"
    },
    {
      "inputs": [
        {
          "internalType": "address",
          "name": "owner",
          "type": "address"
        }
      ],
      "name": "balanceOf",
      "outputs": [
        {
          "internalType": "uint256",
          "name": "",
          "type": "uint256"
        }
      ],
      "stateMutability": "view",
      "type": "function"
    },
    {
      "inputs": [
        {
          "internalType": "uint256",
          "name": "tokenId",
          "type": "uint256"
        }
      ],
      "name": "getApproved",
      "outputs": [
        {
          "internalType": "address",
          "name": "",
          "type": "address"
        }
      ],
      "stateMutability": "view",
      "type": "function"
    },
    {
      "inputs": [
        {
          "internalType": "address",
          "name": "owner",
          "type": "address"
        },
        {
          "internalType": "address",
          "name": "operator",
          "type": "address"
        }
      ],
      "name": "isApprovedForAll",
      "outputs": [
        {
          "internalType": "bool",
          "name": "",
          "type": "bool"
        }
      ],
      "stateMutability": "view",
      "type": "function"
    },
    {
      "inputs": [],
      "name": "name",
      "outputs": [
        {
          "internalType": "string",
          "name": "",
          "type": "string"
        }
      ],
      "stateMutability": "view",
      "type": "function"
    },
    {
      "inputs": [
        {
          "internalType": "uint256",
          "name": "tokenId",
          "type": "uint256"
        }
      ],
      "name": "ownerOf",
      "outputs": [
        {
          "internalType": "address",
          "name": "",
          "type": "address"
        }
      ],
      "stateMutability": "view",
      "type": "function"
    },
    {
      "inputs": [
        {
          "internalType": "address",
          "name": "from",
          "type": "address"
        },
        {
          "internalType": "address",
          "name": "to",
          "type": "address"
        },
        {
          "internalType": "uint256",
          "name": "tokenId",
          "type": "uint256"
        }
      ],
      "name": "safeTransferFrom",
      "outputs": [],
      "stateMutability": "nonpayable",
      "type": "function"
    },
    {
      "inputs": [
        {
          "internalType": "address",
          "name": "from",
          "type": "address"
        },
        {
          "internalType": "address",
          "name": "to",
          "type": "address"
        },
        {
          "internalType": "uint256",
          "name": "tokenId",
          "type": "uint256"
        },
        {
          "internalType": "bytes",
          "name": "_data",
          "type": "bytes"
        }
      ],
      "name": "safeTransferFrom",
      "outputs": [],
      "stateMutability": "nonpayable",
      "type": "function"
    },
    {
      "inputs": [
        {
          "internalType": "address",
          "name": "operator",
          "type": "address"
        },
        {
          "internalType": "bool",
          "name": "approved",
          "type": "bool"
        }
      ],
      "name": "setApprovalForAll",
      "outputs": [],
      "stateMutability": "nonpayable",
      "type": "function"
    },
    {
      "inputs": [
        {
          "internalType": "bytes4",
          "name": "interfaceId",
          "type": "bytes4"
        }
      ],
      "name": "supportsInterface",
      "outputs": [
        {
          "internalType": "bool",
          "name": "",
          "type": "bool"
        }
      ],
      "stateMutability": "view",
      "type": "function"
    },
    {
      "inputs": [],
      "name": "symbol",
      "outputs": [
        {
          "internalType": "string",
          "name": "",
          "type": "string"
        }
      ],
      "stateMutability": "view",
      "type": "function"
    },
    {
      "inputs": [
        {
          "internalType": "uint256",
          "name": "tokenId",
          "type": "uint256"
        }
      ],
      "name": "tokenURI",
      "outputs": [
        {
          "internalType": "string",
          "name": "",
          "type": "string"
        }
      ],
      "stateMutability": "view",
      "type": "function"
    },
    {
      "inputs": [
        {
          "internalType": "address",
          "name": "from",
          "type": "address"
        },
        {
          "internalType": "address",
          "name": "to",
          "type": "address"
        },
        {
          "internalType": "uint256",
          "name": "tokenId",
          "type": "uint256"
        }
      ],
      "name": "transferFrom",
      "outputs": [],
      "stateMutability": "nonpayable",
      "type": "function"
    },
    {
      "inputs": [
        {
          "internalType": "uint256",
          "name": "",
          "type": "uint256"
        }
      ],
      "name": "trees",
      "outputs": [
        {
          "internalType": "uint256",
          "name": "treeDNA",
          "type": "uint256"
        },
        {
          "internalType": "uint256",
          "name": "level",
          "type": "uint256"
        },
        {
          "internalType": "uint256",
          "name": "exp",
          "type": "uint256"
        },
        {
          "internalType": "uint256",
          "name": "onQuestUntil",
          "type": "uint256"
        }
      ],
      "stateMutability": "view",
      "type": "function"
    },
    {
      "inputs": [],
      "name": "initialize",
      "outputs": [],
      "stateMutability": "nonpayable",
      "type": "function"
    },
    {
      "inputs": [
        {
          "internalType": "uint256",
          "name": "treeId",
          "type": "uint256"
        }
      ],
      "name": "treeDNA",
      "outputs": [
        {
          "internalType": "uint256",
          "name": "",
          "type": "uint256"
        }
      ],
      "stateMutability": "view",
      "type": "function"
    },
    {
      "inputs": [
        {
          "internalType": "uint256",
          "name": "treeId",
          "type": "uint256"
        }
      ],
      "name": "treeLevel",
      "outputs": [
        {
          "internalType": "uint256",
          "name": "",
          "type": "uint256"
        }
      ],
      "stateMutability": "view",
      "type": "function"
    },
    {
      "inputs": [
        {
          "internalType": "uint256",
          "name": "treeId",
          "type": "uint256"
        }
      ],
      "name": "treeExp",
      "outputs": [
        {
          "internalType": "uint256",
          "name": "",
          "type": "uint256"
        }
      ],
      "stateMutability": "view",
      "type": "function"
    },
    {
      "inputs": [],
      "name": "currentPrice",
      "outputs": [
        {
          "internalType": "uint256",
          "name": "",
          "type": "uint256"
        }
      ],
      "stateMutability": "view",
      "type": "function"
    },
    {
      "inputs": [
        {
          "internalType": "uint256",
          "name": "treeId",
          "type": "uint256"
        }
      ],
      "name": "questStatus",
      "outputs": [
        {
          "internalType": "uint256",
          "name": "",
          "type": "uint256"
        }
      ],
      "stateMutability": "view",
      "type": "function"
    },
    {
      "inputs": [
        {
          "internalType": "uint256",
          "name": "treeId",
          "type": "uint256"
        },
        {
          "internalType": "uint256",
          "name": "newValue",
          "type": "uint256"
        }
      ],
      "name": "updateQuestStatus",
      "outputs": [],
      "stateMutability": "payable",
      "type": "function"
    },
    {
      "inputs": [
        {
          "internalType": "uint256",
          "name": "treeId",
          "type": "uint256"
        },
        {
          "internalType": "uint256",
          "name": "amount",
          "type": "uint256"
        }
      ],
      "name": "gainExp",
      "outputs": [],
      "stateMutability": "payable",
      "type": "function"
    },
    {
      "inputs": [
        {
          "internalType": "uint256",
          "name": "treeId",
          "type": "uint256"
        }
      ],
      "name": "gainLevel",
      "outputs": [],
      "stateMutability": "payable",
      "type": "function"
    },
    {
      "inputs": [],
      "name": "createNewTree",
      "outputs": [],
      "stateMutability": "payable",
      "type": "function"
    },
    {
      "inputs": [
        {
          "internalType": "address",
          "name": "newOwner",
          "type": "address"
        }
      ],
      "name": "transferOwnership",
      "outputs": [],
      "stateMutability": "payable",
      "type": "function"
    },
    {
      "inputs": [
        {
          "internalType": "address",
          "name": "newQuestContract",
          "type": "address"
        }
      ],
      "name": "transferQuestContract",
      "outputs": [],
      "stateMutability": "payable",
      "type": "function"
    }
  ],
  "bytecode": "0x608060405234801561001057600080fd5b50613aa6806100206000396000f3fe6080604052600436106101815760003560e01c80637a508022116100d15780639d1b464a1161008a578063c87b56dd11610064578063c87b56dd14610550578063d94406f21461058d578063e985e9c5146105ca578063f2fde38b1461060757610181565b80639d1b464a146104d3578063a22cb465146104fe578063b88d4fde1461052757610181565b80637a508022146103bb5780638129fc1c146103fb578063850b0f3c146104125780638536496f1461044f5780638bbfcac31461046b57806395d89b41146104a857610181565b806321cde2021161013e5780635fa461fc116101185780635fa461fc146102e85780636352211e146103255780636cad69321461036257806370a082311461037e57610181565b806321cde2021461027a57806323b872dd1461029657806342842e0e146102bf57610181565b806301ffc9a71461018657806306fdde03146101c3578063081812fc146101ee578063095ea7b31461022b578063104e21b21461025457806310d1eb2a14610270575b600080fd5b34801561019257600080fd5b506101ad60048036038101906101a891906125ca565b610623565b6040516101ba9190612612565b60405180910390f35b3480156101cf57600080fd5b506101d8610705565b6040516101e591906126c6565b60405180910390f35b3480156101fa57600080fd5b506102156004803603810190610210919061271e565b610797565b604051610222919061278c565b60405180910390f35b34801561023757600080fd5b50610252600480360381019061024d91906127d3565b61081c565b005b61026e60048036038101906102699190612813565b610934565b005b6102786109d2565b005b610294600480360381019061028f919061271e565b610b2d565b005b3480156102a257600080fd5b506102bd60048036038101906102b89190612840565b610d4e565b005b3480156102cb57600080fd5b506102e660048036038101906102e19190612840565b610dae565b005b3480156102f457600080fd5b5061030f600480360381019061030a919061271e565b610dce565b60405161031c91906128a2565b60405180910390f35b34801561033157600080fd5b5061034c6004803603810190610347919061271e565b610dfd565b604051610359919061278c565b60405180910390f35b61037c600480360381019061037791906128bd565b610eaf565b005b34801561038a57600080fd5b506103a560048036038101906103a09190612813565b610fa0565b6040516103b291906128a2565b60405180910390f35b3480156103c757600080fd5b506103e260048036038101906103dd919061271e565b611058565b6040516103f294939291906128fd565b60405180910390f35b34801561040757600080fd5b50610410611098565b005b34801561041e57600080fd5b506104396004803603810190610434919061271e565b611301565b60405161044691906128a2565b60405180910390f35b610469600480360381019061046491906128bd565b611330565b005b34801561047757600080fd5b50610492600480360381019061048d919061271e565b6113b8565b60405161049f91906128a2565b60405180910390f35b3480156104b457600080fd5b506104bd6113e7565b6040516104ca91906126c6565b60405180910390f35b3480156104df57600080fd5b506104e8611479565b6040516104f591906128a2565b60405180910390f35b34801561050a57600080fd5b506105256004803603810190610520919061296e565b6114b0565b005b34801561053357600080fd5b5061054e60048036038101906105499190612ae3565b6114c6565b005b34801561055c57600080fd5b506105776004803603810190610572919061271e565b611528565b60405161058491906126c6565b60405180910390f35b34801561059957600080fd5b506105b460048036038101906105af919061271e565b6115cf565b6040516105c191906128a2565b60405180910390f35b3480156105d657600080fd5b506105f160048036038101906105ec9190612b66565b6115fe565b6040516105fe9190612612565b60405180910390f35b610621600480360381019061061c9190612813565b611692565b005b60007f80ac58cd000000000000000000000000000000000000000000000000000000007bffffffffffffffffffffffffffffffffffffffffffffffffffffffff1916827bffffffffffffffffffffffffffffffffffffffffffffffffffffffff191614806106ee57507f5b5e139f000000000000000000000000000000000000000000000000000000007bffffffffffffffffffffffffffffffffffffffffffffffffffffffff1916827bffffffffffffffffffffffffffffffffffffffffffffffffffffffff1916145b806106fe57506106fd82611730565b5b9050919050565b60606065805461071490612bd5565b80601f016020809104026020016040519081016040528092919081815260200182805461074090612bd5565b801561078d5780601f106107625761010080835404028352916020019161078d565b820191906000526020600020905b81548152906001019060200180831161077057829003601f168201915b5050505050905090565b60006107a28261179a565b6107e1576040517f08c379a00000000000000000000000000000000000000000000000000000000081526004016107d890612c79565b60405180910390fd5b6069600083815260200190815260200160002060009054906101000a900473ffffffffffffffffffffffffffffffffffffffff169050919050565b600061082782610dfd565b90508073ffffffffffffffffffffffffffffffffffffffff168373ffffffffffffffffffffffffffffffffffffffff161415610898576040517f08c379a000000000000000000000000000000000000000000000000000000000815260040161088f90612d0b565b60405180910390fd5b8073ffffffffffffffffffffffffffffffffffffffff166108b7611806565b73ffffffffffffffffffffffffffffffffffffffff1614806108e657506108e5816108e0611806565b6115fe565b5b610925576040517f08c379a000000000000000000000000000000000000000000000000000000000815260040161091c90612d9d565b60405180910390fd5b61092f838361180e565b505050565b3373ffffffffffffffffffffffffffffffffffffffff16609a60009054906101000a900473ffffffffffffffffffffffffffffffffffffffff1673ffffffffffffffffffffffffffffffffffffffff161461098e57600080fd5b80609c60006101000a81548173ffffffffffffffffffffffffffffffffffffffff021916908373ffffffffffffffffffffffffffffffffffffffff16021790555050565b600073ffffffffffffffffffffffffffffffffffffffff163373ffffffffffffffffffffffffffffffffffffffff1614158015610a3b57503073ffffffffffffffffffffffffffffffffffffffff163373ffffffffffffffffffffffffffffffffffffffff1614155b610a4457600080fd5b610a4c611479565b341015610a5857600080fd5b6000609d8054905090506000610a6d826118c7565b9050609d6040518060800160405280838152602001600181526020016000815260200160008152509080600181540180825580915050600190039060005260206000209060040201600090919091909150600082015181600001556020820151816001015560408201518160020155606082015181600301555050610af23383611931565b7f5aa7f45898fcb5638757632f4ea98818ccb1f1b865b0721648cfb14cfcd2da9a82604051610b2191906128a2565b60405180910390a15050565b803373ffffffffffffffffffffffffffffffffffffffff16610b4e82610dfd565b73ffffffffffffffffffffffffffffffffffffffff1614610b6e57600080fd5b60006064610b7b846113b8565b610b859190612dec565b90506000670de0b6b3a7640000610b9b856113b8565b610ba59190612dec565b905081609d8581548110610bbc57610bbb612e46565b5b9060005260206000209060040201600201541015610bd957600080fd5b609b60009054906101000a900473ffffffffffffffffffffffffffffffffffffffff1673ffffffffffffffffffffffffffffffffffffffff166323b872dd3330846040518463ffffffff1660e01b8152600401610c3893929190612e75565b6020604051808303816000875af1158015610c57573d6000803e3d6000fd5b505050506040513d601f19601f82011682018060405250810190610c7b9190612ec1565b5081609d8581548110610c9157610c90612e46565b5b906000526020600020906004020160020154610cad9190612eee565b609d8581548110610cc157610cc0612e46565b5b906000526020600020906004020160020181905550609d8481548110610cea57610ce9612e46565b5b90600052602060002090600402016001016000815480929190610d0c90612f22565b91905055507f7ef1df0b6d95a41d9ebcaa695746726b382e110036a9127b009babdb11c656a284604051610d4091906128a2565b60405180910390a150505050565b610d5f610d59611806565b82611aff565b610d9e576040517f08c379a0000000000000000000000000000000000000000000000000000000008152600401610d9590612fdd565b60405180910390fd5b610da9838383611bdd565b505050565b610dc9838383604051806020016040528060008152506114c6565b505050565b6000609d8281548110610de457610de3612e46565b5b9060005260206000209060040201600201549050919050565b6000806067600084815260200190815260200160002060009054906101000a900473ffffffffffffffffffffffffffffffffffffffff169050600073ffffffffffffffffffffffffffffffffffffffff168173ffffffffffffffffffffffffffffffffffffffff161415610ea6576040517f08c379a0000000000000000000000000000000000000000000000000000000008152600401610e9d9061306f565b60405180910390fd5b80915050919050565b3373ffffffffffffffffffffffffffffffffffffffff16609c60009054906101000a900473ffffffffffffffffffffffffffffffffffffffff1673ffffffffffffffffffffffffffffffffffffffff1614610f0957600080fd5b80609d8381548110610f1e57610f1d612e46565b5b906000526020600020906004020160020154610f3a919061308f565b609d8381548110610f4e57610f4d612e46565b5b9060005260206000209060040201600201819055507ffa65d54a674245861f726a6e25ffd7e32b5f7e7a6a62bd81b222ad6f53643d288282604051610f949291906130e5565b60405180910390a15050565b60008073ffffffffffffffffffffffffffffffffffffffff168273ffffffffffffffffffffffffffffffffffffffff161415611011576040517f08c379a000000000000000000000000000000000000000000000000000000000815260040161100890613180565b60405180910390fd5b606860008373ffffffffffffffffffffffffffffffffffffffff1673ffffffffffffffffffffffffffffffffffffffff168152602001908152602001600020549050919050565b609d818154811061106857600080fd5b90600052602060002090600402016000915090508060000154908060010154908060020154908060030154905084565b600060019054906101000a900460ff166110c05760008054906101000a900460ff16156110c9565b6110c8611e39565b5b611108576040517f08c379a00000000000000000000000000000000000000000000000000000000081526004016110ff90613212565b60405180910390fd5b60008060019054906101000a900460ff161590508015611158576001600060016101000a81548160ff02191690831515021790555060016000806101000a81548160ff0219169083151502179055505b60016097819055506010609881905550609854600a6111779190613365565b60998190555073f577601a5ef1d5079da672f01d7ab3b80dd2bd1d609a60006101000a81548173ffffffffffffffffffffffffffffffffffffffff021916908373ffffffffffffffffffffffffffffffffffffffff16021790555073cd571ed43b347a4ab01bae2d23f9535bbafe955d609b60006101000a81548173ffffffffffffffffffffffffffffffffffffffff021916908373ffffffffffffffffffffffffffffffffffffffff1602179055506000609c60006101000a81548173ffffffffffffffffffffffffffffffffffffffff021916908373ffffffffffffffffffffffffffffffffffffffff1602179055506112dd6040518060400160405280600e81526020017f50617461676f6e696320547265650000000000000000000000000000000000008152506040518060400160405280600581526020017f5054524545000000000000000000000000000000000000000000000000000000815250611e4a565b80156112fe5760008060016101000a81548160ff0219169083151502179055505b50565b6000609d828154811061131757611316612e46565b5b9060005260206000209060040201600301549050919050565b3373ffffffffffffffffffffffffffffffffffffffff16609c60009054906101000a900473ffffffffffffffffffffffffffffffffffffffff1673ffffffffffffffffffffffffffffffffffffffff161461138a57600080fd5b80609d838154811061139f5761139e612e46565b5b9060005260206000209060040201600301819055505050565b6000609d82815481106113ce576113cd612e46565b5b9060005260206000209060040201600101549050919050565b6060606680546113f690612bd5565b80601f016020809104026020016040519081016040528092919081815260200182805461142290612bd5565b801561146f5780601f106114445761010080835404028352916020019161146f565b820191906000526020600020905b81548152906001019060200180831161145257829003601f168201915b5050505050905090565b6000670de0b6b3a7640000600180609d80549050611497919061308f565b6114a19190612dec565b6114ab9190612dec565b905090565b6114c26114bb611806565b8383611eb7565b5050565b6114d76114d1611806565b83611aff565b611516576040517f08c379a000000000000000000000000000000000000000000000000000000000815260040161150d90612fdd565b60405180910390fd5b61152284848484612024565b50505050565b60606115338261179a565b611572576040517f08c379a000000000000000000000000000000000000000000000000000000000815260040161156990613422565b60405180910390fd5b600061157c612080565b9050600081511161159c57604051806020016040528060008152506115c7565b806115a684612097565b6040516020016115b792919061347e565b6040516020818303038152906040525b915050919050565b6000609d82815481106115e5576115e4612e46565b5b9060005260206000209060040201600001549050919050565b6000606a60008473ffffffffffffffffffffffffffffffffffffffff1673ffffffffffffffffffffffffffffffffffffffff16815260200190815260200160002060008373ffffffffffffffffffffffffffffffffffffffff1673ffffffffffffffffffffffffffffffffffffffff16815260200190815260200160002060009054906101000a900460ff16905092915050565b3373ffffffffffffffffffffffffffffffffffffffff16609a60009054906101000a900473ffffffffffffffffffffffffffffffffffffffff1673ffffffffffffffffffffffffffffffffffffffff16146116ec57600080fd5b80609a60006101000a81548173ffffffffffffffffffffffffffffffffffffffff021916908373ffffffffffffffffffffffffffffffffffffffff16021790555050565b60007f01ffc9a7000000000000000000000000000000000000000000000000000000007bffffffffffffffffffffffffffffffffffffffffffffffffffffffff1916827bffffffffffffffffffffffffffffffffffffffffffffffffffffffff1916149050919050565b60008073ffffffffffffffffffffffffffffffffffffffff166067600084815260200190815260200160002060009054906101000a900473ffffffffffffffffffffffffffffffffffffffff1673ffffffffffffffffffffffffffffffffffffffff1614159050919050565b600033905090565b816069600083815260200190815260200160002060006101000a81548173ffffffffffffffffffffffffffffffffffffffff021916908373ffffffffffffffffffffffffffffffffffffffff160217905550808273ffffffffffffffffffffffffffffffffffffffff1661188183610dfd565b73ffffffffffffffffffffffffffffffffffffffff167f8c5be1e5ebec7d5bd14f71427d1e84f3dd0314c0f7b2291e5b200ac8c7c3b92560405160405180910390a45050565b600080609754836118d8919061308f565b6040516020016118e891906134c3565b6040516020818303038152906040528051906020012060001c90506097600081548092919061191690612f22565b919050555060995481611929919061350d565b915050919050565b600073ffffffffffffffffffffffffffffffffffffffff168273ffffffffffffffffffffffffffffffffffffffff1614156119a1576040517f08c379a00000000000000000000000000000000000000000000000000000000081526004016119989061358a565b60405180910390fd5b6119aa8161179a565b156119ea576040517f08c379a00000000000000000000000000000000000000000000000000000000081526004016119e1906135f6565b60405180910390fd5b6119f6600083836121f8565b6001606860008473ffffffffffffffffffffffffffffffffffffffff1673ffffffffffffffffffffffffffffffffffffffff1681526020019081526020016000206000828254611a46919061308f565b92505081905550816067600083815260200190815260200160002060006101000a81548173ffffffffffffffffffffffffffffffffffffffff021916908373ffffffffffffffffffffffffffffffffffffffff160217905550808273ffffffffffffffffffffffffffffffffffffffff16600073ffffffffffffffffffffffffffffffffffffffff167fddf252ad1be2c89b69c2b068fc378daa952ba7f163c4a11628f55a4df523b3ef60405160405180910390a45050565b6000611b0a8261179a565b611b49576040517f08c379a0000000000000000000000000000000000000000000000000000000008152600401611b4090613688565b60405180910390fd5b6000611b5483610dfd565b90508073ffffffffffffffffffffffffffffffffffffffff168473ffffffffffffffffffffffffffffffffffffffff161480611bc357508373ffffffffffffffffffffffffffffffffffffffff16611bab84610797565b73ffffffffffffffffffffffffffffffffffffffff16145b80611bd45750611bd381856115fe565b5b91505092915050565b8273ffffffffffffffffffffffffffffffffffffffff16611bfd82610dfd565b73ffffffffffffffffffffffffffffffffffffffff1614611c53576040517f08c379a0000000000000000000000000000000000000000000000000000000008152600401611c4a9061371a565b60405180910390fd5b600073ffffffffffffffffffffffffffffffffffffffff168273ffffffffffffffffffffffffffffffffffffffff161415611cc3576040517f08c379a0000000000000000000000000000000000000000000000000000000008152600401611cba906137ac565b60405180910390fd5b611cce8383836121f8565b611cd960008261180e565b6001606860008573ffffffffffffffffffffffffffffffffffffffff1673ffffffffffffffffffffffffffffffffffffffff1681526020019081526020016000206000828254611d299190612eee565b925050819055506001606860008473ffffffffffffffffffffffffffffffffffffffff1673ffffffffffffffffffffffffffffffffffffffff1681526020019081526020016000206000828254611d80919061308f565b92505081905550816067600083815260200190815260200160002060006101000a81548173ffffffffffffffffffffffffffffffffffffffff021916908373ffffffffffffffffffffffffffffffffffffffff160217905550808273ffffffffffffffffffffffffffffffffffffffff168473ffffffffffffffffffffffffffffffffffffffff167fddf252ad1be2c89b69c2b068fc378daa952ba7f163c4a11628f55a4df523b3ef60405160405180910390a4505050565b6000611e44306121fd565b15905090565b600060019054906101000a900460ff16611e99576040517f08c379a0000000000000000000000000000000000000000000000000000000008152600401611e909061383e565b60405180910390fd5b611ea1612210565b611ea9612261565b611eb382826122b2565b5050565b8173ffffffffffffffffffffffffffffffffffffffff168373ffffffffffffffffffffffffffffffffffffffff161415611f26576040517f08c379a0000000000000000000000000000000000000000000000000000000008152600401611f1d906138aa565b60405180910390fd5b80606a60008573ffffffffffffffffffffffffffffffffffffffff1673ffffffffffffffffffffffffffffffffffffffff16815260200190815260200160002060008473ffffffffffffffffffffffffffffffffffffffff1673ffffffffffffffffffffffffffffffffffffffff16815260200190815260200160002060006101000a81548160ff0219169083151502179055508173ffffffffffffffffffffffffffffffffffffffff168373ffffffffffffffffffffffffffffffffffffffff167f17307eab39ab6107e8899845ad3d59bd9653f200f220920489ca2b5937696c31836040516120179190612612565b60405180910390a3505050565b61202f848484611bdd565b61203b84848484612333565b61207a576040517f08c379a00000000000000000000000000000000000000000000000000000000081526004016120719061393c565b60405180910390fd5b50505050565b606060405180602001604052806000815250905090565b606060008214156120df576040518060400160405280600181526020017f300000000000000000000000000000000000000000000000000000000000000081525090506121f3565b600082905060005b600082146121115780806120fa90612f22565b915050600a8261210a919061395c565b91506120e7565b60008167ffffffffffffffff81111561212d5761212c6129b8565b5b6040519080825280601f01601f19166020018201604052801561215f5781602001600182028036833780820191505090505b5090505b600085146121ec576001826121789190612eee565b9150600a85612187919061350d565b6030612193919061308f565b60f81b8183815181106121a9576121a8612e46565b5b60200101907effffffffffffffffffffffffffffffffffffffffffffffffffffffffffffff1916908160001a905350600a856121e5919061395c565b9450612163565b8093505050505b919050565b505050565b600080823b905060008111915050919050565b600060019054906101000a900460ff1661225f576040517f08c379a00000000000000000000000000000000000000000000000000000000081526004016122569061383e565b60405180910390fd5b565b600060019054906101000a900460ff166122b0576040517f08c379a00000000000000000000000000000000000000000000000000000000081526004016122a79061383e565b60405180910390fd5b565b600060019054906101000a900460ff16612301576040517f08c379a00000000000000000000000000000000000000000000000000000000081526004016122f89061383e565b60405180910390fd5b81606590805190602001906123179291906124bb565b50806066908051906020019061232e9291906124bb565b505050565b60006123548473ffffffffffffffffffffffffffffffffffffffff166121fd565b156124ae578373ffffffffffffffffffffffffffffffffffffffff1663150b7a0261237d611806565b8786866040518563ffffffff1660e01b815260040161239f94939291906139e2565b6020604051808303816000875af19250505080156123db57506040513d601f19601f820116820180604052508101906123d89190613a43565b60015b61245e573d806000811461240b576040519150601f19603f3d011682016040523d82523d6000602084013e612410565b606091505b50600081511415612456576040517f08c379a000000000000000000000000000000000000000000000000000000000815260040161244d9061393c565b60405180910390fd5b805181602001fd5b63150b7a0260e01b7bffffffffffffffffffffffffffffffffffffffffffffffffffffffff1916817bffffffffffffffffffffffffffffffffffffffffffffffffffffffff1916149150506124b3565b600190505b949350505050565b8280546124c790612bd5565b90600052602060002090601f0160209004810192826124e95760008555612530565b82601f1061250257805160ff1916838001178555612530565b82800160010185558215612530579182015b8281111561252f578251825591602001919060010190612514565b5b50905061253d9190612541565b5090565b5b8082111561255a576000816000905550600101612542565b5090565b6000604051905090565b600080fd5b600080fd5b60007fffffffff0000000000000000000000000000000000000000000000000000000082169050919050565b6125a781612572565b81146125b257600080fd5b50565b6000813590506125c48161259e565b92915050565b6000602082840312156125e0576125df612568565b5b60006125ee848285016125b5565b91505092915050565b60008115159050919050565b61260c816125f7565b82525050565b60006020820190506126276000830184612603565b92915050565b600081519050919050565b600082825260208201905092915050565b60005b8381101561266757808201518184015260208101905061264c565b83811115612676576000848401525b50505050565b6000601f19601f8301169050919050565b60006126988261262d565b6126a28185612638565b93506126b2818560208601612649565b6126bb8161267c565b840191505092915050565b600060208201905081810360008301526126e0818461268d565b905092915050565b6000819050919050565b6126fb816126e8565b811461270657600080fd5b50565b600081359050612718816126f2565b92915050565b60006020828403121561273457612733612568565b5b600061274284828501612709565b91505092915050565b600073ffffffffffffffffffffffffffffffffffffffff82169050919050565b60006127768261274b565b9050919050565b6127868161276b565b82525050565b60006020820190506127a1600083018461277d565b92915050565b6127b08161276b565b81146127bb57600080fd5b50565b6000813590506127cd816127a7565b92915050565b600080604083850312156127ea576127e9612568565b5b60006127f8858286016127be565b925050602061280985828601612709565b9150509250929050565b60006020828403121561282957612828612568565b5b6000612837848285016127be565b91505092915050565b60008060006060848603121561285957612858612568565b5b6000612867868287016127be565b9350506020612878868287016127be565b925050604061288986828701612709565b9150509250925092565b61289c816126e8565b82525050565b60006020820190506128b76000830184612893565b92915050565b600080604083850312156128d4576128d3612568565b5b60006128e285828601612709565b92505060206128f385828601612709565b9150509250929050565b60006080820190506129126000830187612893565b61291f6020830186612893565b61292c6040830185612893565b6129396060830184612893565b95945050505050565b61294b816125f7565b811461295657600080fd5b50565b60008135905061296881612942565b92915050565b6000806040838503121561298557612984612568565b5b6000612993858286016127be565b92505060206129a485828601612959565b9150509250929050565b600080fd5b600080fd5b7f4e487b7100000000000000000000000000000000000000000000000000000000600052604160045260246000fd5b6129f08261267c565b810181811067ffffffffffffffff82111715612a0f57612a0e6129b8565b5b80604052505050565b6000612a2261255e565b9050612a2e82826129e7565b919050565b600067ffffffffffffffff821115612a4e57612a4d6129b8565b5b612a578261267c565b9050602081019050919050565b82818337600083830152505050565b6000612a86612a8184612a33565b612a18565b905082815260208101848484011115612aa257612aa16129b3565b5b612aad848285612a64565b509392505050565b600082601f830112612aca57612ac96129ae565b5b8135612ada848260208601612a73565b91505092915050565b60008060008060808587031215612afd57612afc612568565b5b6000612b0b878288016127be565b9450506020612b1c878288016127be565b9350506040612b2d87828801612709565b925050606085013567ffffffffffffffff811115612b4e57612b4d61256d565b5b612b5a87828801612ab5565b91505092959194509250565b60008060408385031215612b7d57612b7c612568565b5b6000612b8b858286016127be565b9250506020612b9c858286016127be565b9150509250929050565b7f4e487b7100000000000000000000000000000000000000000000000000000000600052602260045260246000fd5b60006002820490506001821680612bed57607f821691505b60208210811415612c0157612c00612ba6565b5b50919050565b7f4552433732313a20617070726f76656420717565727920666f72206e6f6e657860008201527f697374656e7420746f6b656e0000000000000000000000000000000000000000602082015250565b6000612c63602c83612638565b9150612c6e82612c07565b604082019050919050565b60006020820190508181036000830152612c9281612c56565b9050919050565b7f4552433732313a20617070726f76616c20746f2063757272656e74206f776e6560008201527f7200000000000000000000000000000000000000000000000000000000000000602082015250565b6000612cf5602183612638565b9150612d0082612c99565b604082019050919050565b60006020820190508181036000830152612d2481612ce8565b9050919050565b7f4552433732313a20617070726f76652063616c6c6572206973206e6f74206f7760008201527f6e6572206e6f7220617070726f76656420666f7220616c6c0000000000000000602082015250565b6000612d87603883612638565b9150612d9282612d2b565b604082019050919050565b60006020820190508181036000830152612db681612d7a565b9050919050565b7f4e487b7100000000000000000000000000000000000000000000000000000000600052601160045260246000fd5b6000612df7826126e8565b9150612e02836126e8565b9250817fffffffffffffffffffffffffffffffffffffffffffffffffffffffffffffffff0483118215151615612e3b57612e3a612dbd565b5b828202905092915050565b7f4e487b7100000000000000000000000000000000000000000000000000000000600052603260045260246000fd5b6000606082019050612e8a600083018661277d565b612e97602083018561277d565b612ea46040830184612893565b949350505050565b600081519050612ebb81612942565b92915050565b600060208284031215612ed757612ed6612568565b5b6000612ee584828501612eac565b91505092915050565b6000612ef9826126e8565b9150612f04836126e8565b925082821015612f1757612f16612dbd565b5b828203905092915050565b6000612f2d826126e8565b91507fffffffffffffffffffffffffffffffffffffffffffffffffffffffffffffffff821415612f6057612f5f612dbd565b5b600182019050919050565b7f4552433732313a207472616e736665722063616c6c6572206973206e6f74206f60008201527f776e6572206e6f7220617070726f766564000000000000000000000000000000602082015250565b6000612fc7603183612638565b9150612fd282612f6b565b604082019050919050565b60006020820190508181036000830152612ff681612fba565b9050919050565b7f4552433732313a206f776e657220717565727920666f72206e6f6e657869737460008201527f656e7420746f6b656e0000000000000000000000000000000000000000000000602082015250565b6000613059602983612638565b915061306482612ffd565b604082019050919050565b600060208201905081810360008301526130888161304c565b9050919050565b600061309a826126e8565b91506130a5836126e8565b9250827fffffffffffffffffffffffffffffffffffffffffffffffffffffffffffffffff038211156130da576130d9612dbd565b5b828201905092915050565b60006040820190506130fa6000830185612893565b6131076020830184612893565b9392505050565b7f4552433732313a2062616c616e636520717565727920666f7220746865207a6560008201527f726f206164647265737300000000000000000000000000000000000000000000602082015250565b600061316a602a83612638565b91506131758261310e565b604082019050919050565b600060208201905081810360008301526131998161315d565b9050919050565b7f496e697469616c697a61626c653a20636f6e747261637420697320616c72656160008201527f647920696e697469616c697a6564000000000000000000000000000000000000602082015250565b60006131fc602e83612638565b9150613207826131a0565b604082019050919050565b6000602082019050818103600083015261322b816131ef565b9050919050565b60008160011c9050919050565b6000808291508390505b60018511156132895780860481111561326557613264612dbd565b5b60018516156132745780820291505b808102905061328285613232565b9450613249565b94509492505050565b6000826132a2576001905061335e565b816132b0576000905061335e565b81600181146132c657600281146132d0576132ff565b600191505061335e565b60ff8411156132e2576132e1612dbd565b5b8360020a9150848211156132f9576132f8612dbd565b5b5061335e565b5060208310610133831016604e8410600b84101617156133345782820a90508381111561332f5761332e612dbd565b5b61335e565b613341848484600161323f565b9250905081840481111561335857613357612dbd565b5b81810290505b9392505050565b6000613370826126e8565b915061337b836126e8565b92506133a87fffffffffffffffffffffffffffffffffffffffffffffffffffffffffffffffff8484613292565b905092915050565b7f4552433732314d657461646174613a2055524920717565727920666f72206e6f60008201527f6e6578697374656e7420746f6b656e0000000000000000000000000000000000602082015250565b600061340c602f83612638565b9150613417826133b0565b604082019050919050565b6000602082019050818103600083015261343b816133ff565b9050919050565b600081905092915050565b60006134588261262d565b6134628185613442565b9350613472818560208601612649565b80840191505092915050565b600061348a828561344d565b9150613496828461344d565b91508190509392505050565b6000819050919050565b6134bd6134b8826126e8565b6134a2565b82525050565b60006134cf82846134ac565b60208201915081905092915050565b7f4e487b7100000000000000000000000000000000000000000000000000000000600052601260045260246000fd5b6000613518826126e8565b9150613523836126e8565b925082613533576135326134de565b5b828206905092915050565b7f4552433732313a206d696e7420746f20746865207a65726f2061646472657373600082015250565b6000613574602083612638565b915061357f8261353e565b602082019050919050565b600060208201905081810360008301526135a381613567565b9050919050565b7f4552433732313a20746f6b656e20616c7265616479206d696e74656400000000600082015250565b60006135e0601c83612638565b91506135eb826135aa565b602082019050919050565b6000602082019050818103600083015261360f816135d3565b9050919050565b7f4552433732313a206f70657261746f7220717565727920666f72206e6f6e657860008201527f697374656e7420746f6b656e0000000000000000000000000000000000000000602082015250565b6000613672602c83612638565b915061367d82613616565b604082019050919050565b600060208201905081810360008301526136a181613665565b9050919050565b7f4552433732313a207472616e73666572206f6620746f6b656e2074686174206960008201527f73206e6f74206f776e0000000000000000000000000000000000000000000000602082015250565b6000613704602983612638565b915061370f826136a8565b604082019050919050565b60006020820190508181036000830152613733816136f7565b9050919050565b7f4552433732313a207472616e7366657220746f20746865207a65726f2061646460008201527f7265737300000000000000000000000000000000000000000000000000000000602082015250565b6000613796602483612638565b91506137a18261373a565b604082019050919050565b600060208201905081810360008301526137c581613789565b9050919050565b7f496e697469616c697a61626c653a20636f6e7472616374206973206e6f74206960008201527f6e697469616c697a696e67000000000000000000000000000000000000000000602082015250565b6000613828602b83612638565b9150613833826137cc565b604082019050919050565b600060208201905081810360008301526138578161381b565b9050919050565b7f4552433732313a20617070726f766520746f2063616c6c657200000000000000600082015250565b6000613894601983612638565b915061389f8261385e565b602082019050919050565b600060208201905081810360008301526138c381613887565b9050919050565b7f4552433732313a207472616e7366657220746f206e6f6e20455243373231526560008201527f63656976657220696d706c656d656e7465720000000000000000000000000000602082015250565b6000613926603283612638565b9150613931826138ca565b604082019050919050565b6000602082019050818103600083015261395581613919565b9050919050565b6000613967826126e8565b9150613972836126e8565b925082613982576139816134de565b5b828204905092915050565b600081519050919050565b600082825260208201905092915050565b60006139b48261398d565b6139be8185613998565b93506139ce818560208601612649565b6139d78161267c565b840191505092915050565b60006080820190506139f7600083018761277d565b613a04602083018661277d565b613a116040830185612893565b8181036060830152613a2381846139a9565b905095945050505050565b600081519050613a3d8161259e565b92915050565b600060208284031215613a5957613a58612568565b5b6000613a6784828501613a2e565b9150509291505056fea2646970667358221220648383ee34a944f412b82c6ecfd8bac5b4a880233638a3be6cd3057f055120c264736f6c634300080b0033",
  "immutableReferences": {},
  "source": "// SPDX-License-Identifier: UNLICENSED\r\n\r\npragma solidity ^0.8.0;\r\n\r\nimport \"../node_modules/@openzeppelin/contracts-upgradeable/token/ERC721/ERC721Upgradeable.sol\";\r\nimport \"../node_modules/@openzeppelin/contracts/token/ERC20/IERC20.sol\";\r\n\r\ncontract Tree is ERC721Upgradeable {\r\n    event NewTree(uint treeId);\r\n    event GainExp(uint treeId, uint amount);\r\n    event GainLevel(uint treeId);\r\n\r\n    uint Nonce;\r\n    uint Digits;\r\n    uint Modulus;\r\n    address ContractOwner;\r\n    \r\n    //Get Token Address after TokenContract deployment\r\n    address Token;\r\n    \r\n    //QuestContract is updated after deployment\r\n    address QuestContract;\r\n\r\n    struct TreeStruct {\r\n        uint treeDNA;\r\n        uint level;\r\n        uint exp;\r\n        uint onQuestUntil;\r\n    }\r\n\r\n    TreeStruct[] public trees;\r\n\r\n    //Modifiers\r\n\r\n    modifier onlyOwnerOf(uint _treeId) {\r\n        require(ownerOf(_treeId) == msg.sender);\r\n        _;\r\n    }\r\n\r\n    modifier onlyOwner() {\r\n        require(ContractOwner == msg.sender);\r\n        _;\r\n    }\r\n\r\n    modifier onlyQuestContract() {\r\n        require(QuestContract == msg.sender);\r\n        _;\r\n    }\r\n\r\n    function initialize() initializer public {\r\n        Nonce = 1;\r\n        Digits = 16;\r\n        Modulus = 10 ** Digits;\r\n        ContractOwner = 0xf577601a5eF1d5079Da672f01D7aB3b80dD2bd1D;\r\n        Token = 0xCd571eD43B347a4Ab01BAe2d23F9535BBAFe955d;\r\n        QuestContract = address(0);\r\n        __ERC721_init(\"Patagonic Tree\", \"PTREE\");\r\n    }\r\n\r\n    //View Functions\r\n\r\n    function treeDNA(uint treeId) public view returns (uint) {\r\n        return trees[treeId].treeDNA;\r\n    }\r\n\r\n    function treeLevel(uint treeId) public view returns (uint) {\r\n        return trees[treeId].level;\r\n    }\r\n\r\n    function treeExp(uint treeId) public view returns (uint) {\r\n        return trees[treeId].exp;\r\n    }\r\n\r\n    function currentPrice() public view returns (uint) {\r\n        return ((trees.length+1)*1)*10**18;\r\n    }\r\n\r\n    function questStatus(uint treeId) public view returns (uint) {\r\n        return trees[treeId].onQuestUntil;\r\n    }\r\n\r\n\r\n    //Payable Functions\r\n\r\n    function updateQuestStatus(uint treeId, uint newValue) public payable onlyQuestContract() {\r\n        trees[treeId].onQuestUntil = newValue;\r\n    }\r\n\r\n    function gainExp(uint treeId, uint amount) public payable onlyQuestContract() {\r\n        //Cambiar a que solo lo pueda hacer el contrato de quests y no el usuario\r\n        trees[treeId].exp = trees[treeId].exp + amount;\r\n        emit GainExp(treeId, amount);\r\n    }\r\n\r\n    function gainLevel(uint treeId) public payable onlyOwnerOf(treeId) {\r\n        uint Exp = treeLevel(treeId)*100;\r\n        uint amount = treeLevel(treeId)*10**18;\r\n        require(trees[treeId].exp >= Exp);\r\n        IERC20(Token).transferFrom(msg.sender, address(this), amount);\r\n        trees[treeId].exp = trees[treeId].exp-Exp;\r\n        trees[treeId].level++;\r\n        emit GainLevel(treeId);\r\n    }\r\n\r\n    function _generateRandomDNA(uint _treeId) internal returns (uint) {\r\n        uint rand = uint(keccak256(abi.encodePacked(_treeId + Nonce)));\r\n        Nonce++;\r\n        return rand % Modulus;\r\n    }\r\n\r\n    function createNewTree() public payable {\r\n        require(msg.sender != address(0) && msg.sender != address(this));\r\n        require(msg.value >= currentPrice());\r\n        uint id = trees.length;\r\n        uint DNA = _generateRandomDNA(id);\r\n        trees.push(TreeStruct(DNA, 1, 0, 0));\r\n        _mint(msg.sender, id);\r\n        emit NewTree(id);\r\n\r\n    }\r\n\r\n    function transferOwnership(address newOwner) public payable onlyOwner() {\r\n        ContractOwner = newOwner;\r\n    }\r\n\r\n    function transferQuestContract(address newQuestContract) public payable onlyOwner() {\r\n        QuestContract = newQuestContract;\r\n    }\r\n\r\n}",
  "sourcePath": "C:\\Users\\jtsch\\OneDrive\\Escritorio\\Python\\SmartContracts-NFT-Agus\\contracts\\Tree.sol",
  "compiler": {
    "name": "solc",
    "version": "0.8.11+commit.d7f03943.Emscripten.clang"
  },
  "schemaVersion": "3.4.3",
  "updatedAt": "2022-01-15T17:54:33.776Z",
  "devdoc": {
    "kind": "dev",
    "methods": {
      "approve(address,uint256)": {
        "details": "See {IERC721-approve}."
      },
      "balanceOf(address)": {
        "details": "See {IERC721-balanceOf}."
      },
      "getApproved(uint256)": {
        "details": "See {IERC721-getApproved}."
      },
      "isApprovedForAll(address,address)": {
        "details": "See {IERC721-isApprovedForAll}."
      },
      "name()": {
        "details": "See {IERC721Metadata-name}."
      },
      "ownerOf(uint256)": {
        "details": "See {IERC721-ownerOf}."
      },
      "safeTransferFrom(address,address,uint256)": {
        "details": "See {IERC721-safeTransferFrom}."
      },
      "safeTransferFrom(address,address,uint256,bytes)": {
        "details": "See {IERC721-safeTransferFrom}."
      },
      "setApprovalForAll(address,bool)": {
        "details": "See {IERC721-setApprovalForAll}."
      },
      "supportsInterface(bytes4)": {
        "details": "See {IERC165-supportsInterface}."
      },
      "symbol()": {
        "details": "See {IERC721Metadata-symbol}."
      },
      "tokenURI(uint256)": {
        "details": "See {IERC721Metadata-tokenURI}."
      },
      "transferFrom(address,address,uint256)": {
        "details": "See {IERC721-transferFrom}."
      }
    },
    "version": 1
  },
  "userdoc": {
    "kind": "user",
    "methods": {},
    "version": 1
  }
}