{
  "contractName": "Tree",
  "abi": [
    {
      "anonymous": false,
      "inputs": [
        {
          "indexed": true,
          "internalType": "address",
          "name": "owner",
          "type": "address"
        },
        {
          "indexed": true,
          "internalType": "address",
          "name": "approved",
          "type": "address"
        },
        {
          "indexed": true,
          "internalType": "uint256",
          "name": "tokenId",
          "type": "uint256"
        }
      ],
      "name": "Approval",
      "type": "event"
    },
    {
      "anonymous": false,
      "inputs": [
        {
          "indexed": true,
          "internalType": "address",
          "name": "owner",
          "type": "address"
        },
        {
          "indexed": true,
          "internalType": "address",
          "name": "operator",
          "type": "address"
        },
        {
          "indexed": false,
          "internalType": "bool",
          "name": "approved",
          "type": "bool"
        }
      ],
      "name": "ApprovalForAll",
      "type": "event"
    },
    {
      "anonymous": false,
      "inputs": [
        {
          "indexed": false,
          "internalType": "uint256",
          "name": "treeId",
          "type": "uint256"
        },
        {
          "indexed": false,
          "internalType": "uint256",
          "name": "buildingId",
          "type": "uint256"
        }
      ],
      "name": "BuildingLevelUp",
      "type": "event"
    },
    {
      "anonymous": false,
      "inputs": [
        {
          "indexed": false,
          "internalType": "uint256",
          "name": "treeId",
          "type": "uint256"
        },
        {
          "indexed": false,
          "internalType": "uint256",
          "name": "amount",
          "type": "uint256"
        }
      ],
      "name": "GainExp",
      "type": "event"
    },
    {
      "anonymous": false,
      "inputs": [
        {
          "indexed": false,
          "internalType": "uint256",
          "name": "treeId",
          "type": "uint256"
        }
      ],
      "name": "GainLevel",
      "type": "event"
    },
    {
      "anonymous": false,
      "inputs": [
        {
          "indexed": false,
          "internalType": "uint256",
          "name": "treeId",
          "type": "uint256"
        }
      ],
      "name": "NewTree",
      "type": "event"
    },
    {
      "anonymous": false,
      "inputs": [
        {
          "indexed": true,
          "internalType": "address",
          "name": "from",
          "type": "address"
        },
        {
          "indexed": true,
          "internalType": "address",
          "name": "to",
          "type": "address"
        },
        {
          "indexed": true,
          "internalType": "uint256",
          "name": "tokenId",
          "type": "uint256"
        }
      ],
      "name": "Transfer",
      "type": "event"
    },
    {
      "inputs": [
        {
          "internalType": "address",
          "name": "to",
          "type": "address"
        },
        {
          "internalType": "uint256",
          "name": "tokenId",
          "type": "uint256"
        }
      ],
      "name": "approve",
      "outputs": [],
      "stateMutability": "nonpayable",
      "type": "function"
    },
    {
      "inputs": [
        {
          "internalType": "address",
          "name": "owner",
          "type": "address"
        }
      ],
      "name": "balanceOf",
      "outputs": [
        {
          "internalType": "uint256",
          "name": "",
          "type": "uint256"
        }
      ],
      "stateMutability": "view",
      "type": "function"
    },
    {
      "inputs": [
        {
          "internalType": "uint256",
          "name": "tokenId",
          "type": "uint256"
        }
      ],
      "name": "getApproved",
      "outputs": [
        {
          "internalType": "address",
          "name": "",
          "type": "address"
        }
      ],
      "stateMutability": "view",
      "type": "function"
    },
    {
      "inputs": [
        {
          "internalType": "address",
          "name": "owner",
          "type": "address"
        },
        {
          "internalType": "address",
          "name": "operator",
          "type": "address"
        }
      ],
      "name": "isApprovedForAll",
      "outputs": [
        {
          "internalType": "bool",
          "name": "",
          "type": "bool"
        }
      ],
      "stateMutability": "view",
      "type": "function"
    },
    {
      "inputs": [],
      "name": "name",
      "outputs": [
        {
          "internalType": "string",
          "name": "",
          "type": "string"
        }
      ],
      "stateMutability": "view",
      "type": "function"
    },
    {
      "inputs": [
        {
          "internalType": "uint256",
          "name": "tokenId",
          "type": "uint256"
        }
      ],
      "name": "ownerOf",
      "outputs": [
        {
          "internalType": "address",
          "name": "",
          "type": "address"
        }
      ],
      "stateMutability": "view",
      "type": "function"
    },
    {
      "inputs": [
        {
          "internalType": "address",
          "name": "from",
          "type": "address"
        },
        {
          "internalType": "address",
          "name": "to",
          "type": "address"
        },
        {
          "internalType": "uint256",
          "name": "tokenId",
          "type": "uint256"
        }
      ],
      "name": "safeTransferFrom",
      "outputs": [],
      "stateMutability": "nonpayable",
      "type": "function"
    },
    {
      "inputs": [
        {
          "internalType": "address",
          "name": "from",
          "type": "address"
        },
        {
          "internalType": "address",
          "name": "to",
          "type": "address"
        },
        {
          "internalType": "uint256",
          "name": "tokenId",
          "type": "uint256"
        },
        {
          "internalType": "bytes",
          "name": "_data",
          "type": "bytes"
        }
      ],
      "name": "safeTransferFrom",
      "outputs": [],
      "stateMutability": "nonpayable",
      "type": "function"
    },
    {
      "inputs": [
        {
          "internalType": "address",
          "name": "operator",
          "type": "address"
        },
        {
          "internalType": "bool",
          "name": "approved",
          "type": "bool"
        }
      ],
      "name": "setApprovalForAll",
      "outputs": [],
      "stateMutability": "nonpayable",
      "type": "function"
    },
    {
      "inputs": [
        {
          "internalType": "bytes4",
          "name": "interfaceId",
          "type": "bytes4"
        }
      ],
      "name": "supportsInterface",
      "outputs": [
        {
          "internalType": "bool",
          "name": "",
          "type": "bool"
        }
      ],
      "stateMutability": "view",
      "type": "function"
    },
    {
      "inputs": [],
      "name": "symbol",
      "outputs": [
        {
          "internalType": "string",
          "name": "",
          "type": "string"
        }
      ],
      "stateMutability": "view",
      "type": "function"
    },
    {
      "inputs": [
        {
          "internalType": "uint256",
          "name": "tokenId",
          "type": "uint256"
        }
      ],
      "name": "tokenURI",
      "outputs": [
        {
          "internalType": "string",
          "name": "",
          "type": "string"
        }
      ],
      "stateMutability": "view",
      "type": "function"
    },
    {
      "inputs": [
        {
          "internalType": "address",
          "name": "from",
          "type": "address"
        },
        {
          "internalType": "address",
          "name": "to",
          "type": "address"
        },
        {
          "internalType": "uint256",
          "name": "tokenId",
          "type": "uint256"
        }
      ],
      "name": "transferFrom",
      "outputs": [],
      "stateMutability": "nonpayable",
      "type": "function"
    },
    {
      "inputs": [
        {
          "internalType": "uint256",
          "name": "",
          "type": "uint256"
        }
      ],
      "name": "trees",
      "outputs": [
        {
          "internalType": "uint256",
          "name": "treeDNA",
          "type": "uint256"
        },
        {
          "internalType": "uint256",
          "name": "level",
          "type": "uint256"
        },
        {
          "internalType": "uint256",
          "name": "exp",
          "type": "uint256"
        },
        {
          "internalType": "uint256",
          "name": "barracks",
          "type": "uint256"
        },
        {
          "internalType": "uint256",
          "name": "trainingGrounds",
          "type": "uint256"
        },
        {
          "internalType": "uint256",
          "name": "onQuestUntil",
          "type": "uint256"
        }
      ],
      "stateMutability": "view",
      "type": "function"
    },
    {
      "inputs": [],
      "name": "initialize",
      "outputs": [],
      "stateMutability": "nonpayable",
      "type": "function"
    },
    {
      "inputs": [
        {
          "internalType": "uint256",
          "name": "treeId",
          "type": "uint256"
        }
      ],
      "name": "treeDNA",
      "outputs": [
        {
          "internalType": "uint256",
          "name": "",
          "type": "uint256"
        }
      ],
      "stateMutability": "view",
      "type": "function"
    },
    {
      "inputs": [
        {
          "internalType": "uint256",
          "name": "treeId",
          "type": "uint256"
        }
      ],
      "name": "treeLevel",
      "outputs": [
        {
          "internalType": "uint256",
          "name": "",
          "type": "uint256"
        }
      ],
      "stateMutability": "view",
      "type": "function"
    },
    {
      "inputs": [
        {
          "internalType": "uint256",
          "name": "treeId",
          "type": "uint256"
        }
      ],
      "name": "treeExp",
      "outputs": [
        {
          "internalType": "uint256",
          "name": "",
          "type": "uint256"
        }
      ],
      "stateMutability": "view",
      "type": "function"
    },
    {
      "inputs": [
        {
          "internalType": "uint256",
          "name": "treeId",
          "type": "uint256"
        }
      ],
      "name": "treeBarracks",
      "outputs": [
        {
          "internalType": "uint256",
          "name": "",
          "type": "uint256"
        }
      ],
      "stateMutability": "view",
      "type": "function"
    },
    {
      "inputs": [
        {
          "internalType": "uint256",
          "name": "treeId",
          "type": "uint256"
        }
      ],
      "name": "treeTrainingGrounds",
      "outputs": [
        {
          "internalType": "uint256",
          "name": "",
          "type": "uint256"
        }
      ],
      "stateMutability": "view",
      "type": "function"
    },
    {
      "inputs": [
        {
          "internalType": "uint256",
          "name": "treeId",
          "type": "uint256"
        }
      ],
      "name": "questStatus",
      "outputs": [
        {
          "internalType": "uint256",
          "name": "",
          "type": "uint256"
        }
      ],
      "stateMutability": "view",
      "type": "function"
    },
    {
      "inputs": [],
      "name": "currentPrice",
      "outputs": [
        {
          "internalType": "uint256",
          "name": "",
          "type": "uint256"
        }
      ],
      "stateMutability": "view",
      "type": "function"
    },
    {
      "inputs": [
        {
          "internalType": "uint256",
          "name": "treeId",
          "type": "uint256"
        }
      ],
      "name": "upgradeBarracks",
      "outputs": [],
      "stateMutability": "payable",
      "type": "function"
    },
    {
      "inputs": [
        {
          "internalType": "uint256",
          "name": "treeId",
          "type": "uint256"
        }
      ],
      "name": "upgradeTrainingGrounds",
      "outputs": [],
      "stateMutability": "payable",
      "type": "function"
    },
    {
      "inputs": [
        {
          "internalType": "uint256",
          "name": "treeId",
          "type": "uint256"
        },
        {
          "internalType": "uint256",
          "name": "newValue",
          "type": "uint256"
        }
      ],
      "name": "updateQuestStatus",
      "outputs": [],
      "stateMutability": "payable",
      "type": "function"
    },
    {
      "inputs": [
        {
          "internalType": "uint256",
          "name": "treeId",
          "type": "uint256"
        },
        {
          "internalType": "uint256",
          "name": "amount",
          "type": "uint256"
        }
      ],
      "name": "gainExp",
      "outputs": [],
      "stateMutability": "payable",
      "type": "function"
    },
    {
      "inputs": [
        {
          "internalType": "uint256",
          "name": "treeId",
          "type": "uint256"
        }
      ],
      "name": "gainLevel",
      "outputs": [],
      "stateMutability": "payable",
      "type": "function"
    },
    {
      "inputs": [],
      "name": "createNewTree",
      "outputs": [],
      "stateMutability": "payable",
      "type": "function"
    },
    {
      "inputs": [
        {
          "internalType": "address",
          "name": "newOwner",
          "type": "address"
        }
      ],
      "name": "transferOwnership",
      "outputs": [],
      "stateMutability": "payable",
      "type": "function"
    },
    {
      "inputs": [
        {
          "internalType": "address",
          "name": "newQuestContract",
          "type": "address"
        }
      ],
      "name": "transferQuestContract",
      "outputs": [],
      "stateMutability": "payable",
      "type": "function"
    }
  ],
  "bytecode": "0x608060405234801561001057600080fd5b5061464d806100206000396000f3fe6080604052600436106101cd5760003560e01c80637a508022116100f75780639c06eccd11610095578063c87b56dd11610064578063c87b56dd14610650578063d94406f21461068d578063e985e9c5146106ca578063f2fde38b14610707576101cd565b80639c06eccd146105965780639d1b464a146105d3578063a22cb465146105fe578063b88d4fde14610627576101cd565b80638536496f116100d15780638536496f146104f65780638bbfcac31461051257806395d89b411461054f5780639a0f02441461057a576101cd565b80637a508022146104605780638129fc1c146104a2578063850b0f3c146104b9576101cd565b806323b872dd1161016f5780635fa461fc1161013e5780635fa461fc1461038d5780636352211e146103ca5780636cad69321461040757806370a0823114610423576101cd565b806323b872dd146102e257806326bc4c5a1461030b57806342842e0e146103275780635e31fcc614610350576101cd565b8063095ea7b3116101ab578063095ea7b314610277578063104e21b2146102a057806310d1eb2a146102bc57806321cde202146102c6576101cd565b806301ffc9a7146101d257806306fdde031461020f578063081812fc1461023a575b600080fd5b3480156101de57600080fd5b506101f960048036038101906101f49190613083565b610723565b60405161020691906130cb565b60405180910390f35b34801561021b57600080fd5b50610224610805565b604051610231919061317f565b60405180910390f35b34801561024657600080fd5b50610261600480360381019061025c91906131d7565b610897565b60405161026e9190613245565b60405180910390f35b34801561028357600080fd5b5061029e6004803603810190610299919061328c565b61091c565b005b6102ba60048036038101906102b591906132cc565b610a34565b005b6102c4610ad2565b005b6102e060048036038101906102db91906131d7565b610c4f565b005b3480156102ee57600080fd5b50610309600480360381019061030491906132f9565b61101e565b005b610325600480360381019061032091906131d7565b61107e565b005b34801561033357600080fd5b5061034e600480360381019061034991906132f9565b611413565b005b34801561035c57600080fd5b50610377600480360381019061037291906131d7565b611433565b604051610384919061335b565b60405180910390f35b34801561039957600080fd5b506103b460048036038101906103af91906131d7565b611462565b6040516103c1919061335b565b60405180910390f35b3480156103d657600080fd5b506103f160048036038101906103ec91906131d7565b611491565b6040516103fe9190613245565b60405180910390f35b610421600480360381019061041c9190613376565b611543565b005b34801561042f57600080fd5b5061044a600480360381019061044591906132cc565b611634565b604051610457919061335b565b60405180910390f35b34801561046c57600080fd5b50610487600480360381019061048291906131d7565b6116ec565b604051610499969594939291906133b6565b60405180910390f35b3480156104ae57600080fd5b506104b7611738565b005b3480156104c557600080fd5b506104e060048036038101906104db91906131d7565b6119f6565b6040516104ed919061335b565b60405180910390f35b610510600480360381019061050b9190613376565b611a25565b005b34801561051e57600080fd5b50610539600480360381019061053491906131d7565b611aad565b604051610546919061335b565b60405180910390f35b34801561055b57600080fd5b50610564611adc565b604051610571919061317f565b60405180910390f35b610594600480360381019061058f91906131d7565b611b6e565b005b3480156105a257600080fd5b506105bd60048036038101906105b891906131d7565b611f03565b6040516105ca919061335b565b60405180910390f35b3480156105df57600080fd5b506105e8611f32565b6040516105f5919061335b565b60405180910390f35b34801561060a57600080fd5b5061062560048036038101906106209190613443565b611f69565b005b34801561063357600080fd5b5061064e600480360381019061064991906135b8565b611f7f565b005b34801561065c57600080fd5b50610677600480360381019061067291906131d7565b611fe1565b604051610684919061317f565b60405180910390f35b34801561069957600080fd5b506106b460048036038101906106af91906131d7565b612088565b6040516106c1919061335b565b60405180910390f35b3480156106d657600080fd5b506106f160048036038101906106ec919061363b565b6120b7565b6040516106fe91906130cb565b60405180910390f35b610721600480360381019061071c91906132cc565b61214b565b005b60007f80ac58cd000000000000000000000000000000000000000000000000000000007bffffffffffffffffffffffffffffffffffffffffffffffffffffffff1916827bffffffffffffffffffffffffffffffffffffffffffffffffffffffff191614806107ee57507f5b5e139f000000000000000000000000000000000000000000000000000000007bffffffffffffffffffffffffffffffffffffffffffffffffffffffff1916827bffffffffffffffffffffffffffffffffffffffffffffffffffffffff1916145b806107fe57506107fd826121e9565b5b9050919050565b606060658054610814906136aa565b80601f0160208091040260200160405190810160405280929190818152602001828054610840906136aa565b801561088d5780601f106108625761010080835404028352916020019161088d565b820191906000526020600020905b81548152906001019060200180831161087057829003601f168201915b5050505050905090565b60006108a282612253565b6108e1576040517f08c379a00000000000000000000000000000000000000000000000000000000081526004016108d89061374e565b60405180910390fd5b6069600083815260200190815260200160002060009054906101000a900473ffffffffffffffffffffffffffffffffffffffff169050919050565b600061092782611491565b90508073ffffffffffffffffffffffffffffffffffffffff168373ffffffffffffffffffffffffffffffffffffffff161415610998576040517f08c379a000000000000000000000000000000000000000000000000000000000815260040161098f906137e0565b60405180910390fd5b8073ffffffffffffffffffffffffffffffffffffffff166109b76122bf565b73ffffffffffffffffffffffffffffffffffffffff1614806109e657506109e5816109e06122bf565b6120b7565b5b610a25576040517f08c379a0000000000000000000000000000000000000000000000000000000008152600401610a1c90613872565b60405180910390fd5b610a2f83836122c7565b505050565b3373ffffffffffffffffffffffffffffffffffffffff16609a60009054906101000a900473ffffffffffffffffffffffffffffffffffffffff1673ffffffffffffffffffffffffffffffffffffffff1614610a8e57600080fd5b80609d60006101000a81548173ffffffffffffffffffffffffffffffffffffffff021916908373ffffffffffffffffffffffffffffffffffffffff16021790555050565b600073ffffffffffffffffffffffffffffffffffffffff163373ffffffffffffffffffffffffffffffffffffffff1614158015610b3b57503073ffffffffffffffffffffffffffffffffffffffff163373ffffffffffffffffffffffffffffffffffffffff1614155b610b4457600080fd5b610b4c611f32565b341015610b5857600080fd5b6000609e8054905090506000610b6d82612380565b9050609e6040518060c001604052808381526020016001815260200160008152602001600081526020016000815260200160008152509080600181540180825580915050600190039060005260206000209060060201600090919091909150600082015181600001556020820151816001015560408201518160020155606082015181600301556080820151816004015560a082015181600501555050610c1433836123ea565b7f5aa7f45898fcb5638757632f4ea98818ccb1f1b865b0721648cfb14cfcd2da9a82604051610c43919061335b565b60405180910390a15050565b803373ffffffffffffffffffffffffffffffffffffffff16610c7082611491565b73ffffffffffffffffffffffffffffffffffffffff1614610c9057600080fd5b6064609e8381548110610ca657610ca5613892565b5b90600052602060002090600602016001015410610cc257600080fd5b6064609e8381548110610cd857610cd7613892565b5b906000526020600020906006020160010154610cf491906138f0565b609e8381548110610d0857610d07613892565b5b9060005260206000209060060201600201541015610d2557600080fd5b6000670de0b6b3a7640000609e8481548110610d4457610d43613892565b5b906000526020600020906006020160010154610d6091906138f0565b9050609c60009054906101000a900473ffffffffffffffffffffffffffffffffffffffff1673ffffffffffffffffffffffffffffffffffffffff166323b872dd33609b60009054906101000a900473ffffffffffffffffffffffffffffffffffffffff166064604686610dd391906138f0565b610ddd9190613979565b6040518463ffffffff1660e01b8152600401610dfb939291906139aa565b6020604051808303816000875af1158015610e1a573d6000803e3d6000fd5b505050506040513d601f19601f82011682018060405250810190610e3e91906139f6565b50609c60009054906101000a900473ffffffffffffffffffffffffffffffffffffffff1673ffffffffffffffffffffffffffffffffffffffff166323b872dd33609a60009054906101000a900473ffffffffffffffffffffffffffffffffffffffff166064601e86610eb091906138f0565b610eba9190613979565b6040518463ffffffff1660e01b8152600401610ed8939291906139aa565b6020604051808303816000875af1158015610ef7573d6000803e3d6000fd5b505050506040513d601f19601f82011682018060405250810190610f1b91906139f6565b506064609e8481548110610f3257610f31613892565b5b906000526020600020906006020160010154610f4e91906138f0565b609e8481548110610f6257610f61613892565b5b906000526020600020906006020160020154610f7e9190613a23565b609e8481548110610f9257610f91613892565b5b906000526020600020906006020160020181905550609e8381548110610fbb57610fba613892565b5b90600052602060002090600602016001016000815480929190610fdd90613a57565b91905055507f7ef1df0b6d95a41d9ebcaa695746726b382e110036a9127b009babdb11c656a283604051611011919061335b565b60405180910390a1505050565b61102f6110296122bf565b826125b8565b61106e576040517f08c379a000000000000000000000000000000000000000000000000000000000815260040161106590613b12565b60405180910390fd5b611079838383612696565b505050565b803373ffffffffffffffffffffffffffffffffffffffff1661109f82611491565b73ffffffffffffffffffffffffffffffffffffffff16146110bf57600080fd5b609e82815481106110d3576110d2613892565b5b906000526020600020906006020160030154609e83815481106110f9576110f8613892565b5b9060005260206000209060060201600101541161111557600080fd5b609e828154811061112957611128613892565b5b906000526020600020906006020160030154600a1161114757600080fd5b6000670de0b6b3a7640000609e848154811061116657611165613892565b5b90600052602060002090600602016003015461118291906138f0565b9050600a609e848154811061119a57611199613892565b5b9060005260206000209060060201600301541180156111de57506015609e84815481106111ca576111c9613892565b5b906000526020600020906006020160030154105b50609c60009054906101000a900473ffffffffffffffffffffffffffffffffffffffff1673ffffffffffffffffffffffffffffffffffffffff166323b872dd33609b60009054906101000a900473ffffffffffffffffffffffffffffffffffffffff16606460468661125091906138f0565b61125a9190613979565b6040518463ffffffff1660e01b8152600401611278939291906139aa565b6020604051808303816000875af1158015611297573d6000803e3d6000fd5b505050506040513d601f19601f820116820180604052508101906112bb91906139f6565b50609c60009054906101000a900473ffffffffffffffffffffffffffffffffffffffff1673ffffffffffffffffffffffffffffffffffffffff166323b872dd33609a60009054906101000a900473ffffffffffffffffffffffffffffffffffffffff166064601e8661132d91906138f0565b6113379190613979565b6040518463ffffffff1660e01b8152600401611355939291906139aa565b6020604051808303816000875af1158015611374573d6000803e3d6000fd5b505050506040513d601f19601f8201168201806040525081019061139891906139f6565b50609e83815481106113ad576113ac613892565b5b906000526020600020906006020160030160008154809291906113cf90613a57565b91905055507f81697e2679db8e5249c35ec26a25db2189c65f1b3bc780d2f1b1129b5e57c41d836000604051611406929190613b77565b60405180910390a1505050565b61142e83838360405180602001604052806000815250611f7f565b505050565b6000609e828154811061144957611448613892565b5b9060005260206000209060060201600301549050919050565b6000609e828154811061147857611477613892565b5b9060005260206000209060060201600201549050919050565b6000806067600084815260200190815260200160002060009054906101000a900473ffffffffffffffffffffffffffffffffffffffff169050600073ffffffffffffffffffffffffffffffffffffffff168173ffffffffffffffffffffffffffffffffffffffff16141561153a576040517f08c379a000000000000000000000000000000000000000000000000000000000815260040161153190613c12565b60405180910390fd5b80915050919050565b3373ffffffffffffffffffffffffffffffffffffffff16609d60009054906101000a900473ffffffffffffffffffffffffffffffffffffffff1673ffffffffffffffffffffffffffffffffffffffff161461159d57600080fd5b80609e83815481106115b2576115b1613892565b5b9060005260206000209060060201600201546115ce9190613c32565b609e83815481106115e2576115e1613892565b5b9060005260206000209060060201600201819055507ffa65d54a674245861f726a6e25ffd7e32b5f7e7a6a62bd81b222ad6f53643d288282604051611628929190613c88565b60405180910390a15050565b60008073ffffffffffffffffffffffffffffffffffffffff168273ffffffffffffffffffffffffffffffffffffffff1614156116a5576040517f08c379a000000000000000000000000000000000000000000000000000000000815260040161169c90613d23565b60405180910390fd5b606860008373ffffffffffffffffffffffffffffffffffffffff1673ffffffffffffffffffffffffffffffffffffffff168152602001908152602001600020549050919050565b609e81815481106116fc57600080fd5b90600052602060002090600602016000915090508060000154908060010154908060020154908060030154908060040154908060050154905086565b600060019054906101000a900460ff166117605760008054906101000a900460ff1615611769565b6117686128f2565b5b6117a8576040517f08c379a000000000000000000000000000000000000000000000000000000000815260040161179f90613db5565b60405180910390fd5b60008060019054906101000a900460ff1615905080156117f8576001600060016101000a81548160ff02191690831515021790555060016000806101000a81548160ff0219169083151502179055505b60016097819055506010609881905550609854600a6118179190613f08565b60998190555073f577601a5ef1d5079da672f01d7ab3b80dd2bd1d609a60006101000a81548173ffffffffffffffffffffffffffffffffffffffff021916908373ffffffffffffffffffffffffffffffffffffffff16021790555073fd768e668a158c173e9549d1632902c2a4363178609b60006101000a81548173ffffffffffffffffffffffffffffffffffffffff021916908373ffffffffffffffffffffffffffffffffffffffff16021790555073cd571ed43b347a4ab01bae2d23f9535bbafe955d609c60006101000a81548173ffffffffffffffffffffffffffffffffffffffff021916908373ffffffffffffffffffffffffffffffffffffffff1602179055506000609d60006101000a81548173ffffffffffffffffffffffffffffffffffffffff021916908373ffffffffffffffffffffffffffffffffffffffff1602179055506119d26040518060400160405280600e81526020017f50617461676f6e696320547265650000000000000000000000000000000000008152506040518060400160405280600581526020017f5054524545000000000000000000000000000000000000000000000000000000815250612903565b80156119f35760008060016101000a81548160ff0219169083151502179055505b50565b6000609e8281548110611a0c57611a0b613892565b5b9060005260206000209060060201600501549050919050565b3373ffffffffffffffffffffffffffffffffffffffff16609d60009054906101000a900473ffffffffffffffffffffffffffffffffffffffff1673ffffffffffffffffffffffffffffffffffffffff1614611a7f57600080fd5b80609e8381548110611a9457611a93613892565b5b9060005260206000209060060201600501819055505050565b6000609e8281548110611ac357611ac2613892565b5b9060005260206000209060060201600101549050919050565b606060668054611aeb906136aa565b80601f0160208091040260200160405190810160405280929190818152602001828054611b17906136aa565b8015611b645780601f10611b3957610100808354040283529160200191611b64565b820191906000526020600020905b815481529060010190602001808311611b4757829003601f168201915b5050505050905090565b803373ffffffffffffffffffffffffffffffffffffffff16611b8f82611491565b73ffffffffffffffffffffffffffffffffffffffff1614611baf57600080fd5b609e8281548110611bc357611bc2613892565b5b906000526020600020906006020160040154609e8381548110611be957611be8613892565b5b90600052602060002090600602016001015411611c0557600080fd5b609e8281548110611c1957611c18613892565b5b906000526020600020906006020160040154600a11611c3757600080fd5b6000670de0b6b3a7640000609e8481548110611c5657611c55613892565b5b906000526020600020906006020160040154611c7291906138f0565b9050600a609e8481548110611c8a57611c89613892565b5b906000526020600020906006020160040154118015611cce57506015609e8481548110611cba57611cb9613892565b5b906000526020600020906006020160040154105b50609c60009054906101000a900473ffffffffffffffffffffffffffffffffffffffff1673ffffffffffffffffffffffffffffffffffffffff166323b872dd33609b60009054906101000a900473ffffffffffffffffffffffffffffffffffffffff166064604686611d4091906138f0565b611d4a9190613979565b6040518463ffffffff1660e01b8152600401611d68939291906139aa565b6020604051808303816000875af1158015611d87573d6000803e3d6000fd5b505050506040513d601f19601f82011682018060405250810190611dab91906139f6565b50609c60009054906101000a900473ffffffffffffffffffffffffffffffffffffffff1673ffffffffffffffffffffffffffffffffffffffff166323b872dd33609a60009054906101000a900473ffffffffffffffffffffffffffffffffffffffff166064601e86611e1d91906138f0565b611e279190613979565b6040518463ffffffff1660e01b8152600401611e45939291906139aa565b6020604051808303816000875af1158015611e64573d6000803e3d6000fd5b505050506040513d601f19601f82011682018060405250810190611e8891906139f6565b50609e8381548110611e9d57611e9c613892565b5b90600052602060002090600602016004016000815480929190611ebf90613a57565b91905055507f81697e2679db8e5249c35ec26a25db2189c65f1b3bc780d2f1b1129b5e57c41d836001604051611ef6929190613f8e565b60405180910390a1505050565b6000609e8281548110611f1957611f18613892565b5b9060005260206000209060060201600401549050919050565b6000670de0b6b3a7640000600180609e80549050611f509190613c32565b611f5a91906138f0565b611f6491906138f0565b905090565b611f7b611f746122bf565b8383612970565b5050565b611f90611f8a6122bf565b836125b8565b611fcf576040517f08c379a0000000000000000000000000000000000000000000000000000000008152600401611fc690613b12565b60405180910390fd5b611fdb84848484612add565b50505050565b6060611fec82612253565b61202b576040517f08c379a000000000000000000000000000000000000000000000000000000000815260040161202290614029565b60405180910390fd5b6000612035612b39565b905060008151116120555760405180602001604052806000815250612080565b8061205f84612b50565b604051602001612070929190614085565b6040516020818303038152906040525b915050919050565b6000609e828154811061209e5761209d613892565b5b9060005260206000209060060201600001549050919050565b6000606a60008473ffffffffffffffffffffffffffffffffffffffff1673ffffffffffffffffffffffffffffffffffffffff16815260200190815260200160002060008373ffffffffffffffffffffffffffffffffffffffff1673ffffffffffffffffffffffffffffffffffffffff16815260200190815260200160002060009054906101000a900460ff16905092915050565b3373ffffffffffffffffffffffffffffffffffffffff16609a60009054906101000a900473ffffffffffffffffffffffffffffffffffffffff1673ffffffffffffffffffffffffffffffffffffffff16146121a557600080fd5b80609a60006101000a81548173ffffffffffffffffffffffffffffffffffffffff021916908373ffffffffffffffffffffffffffffffffffffffff16021790555050565b60007f01ffc9a7000000000000000000000000000000000000000000000000000000007bffffffffffffffffffffffffffffffffffffffffffffffffffffffff1916827bffffffffffffffffffffffffffffffffffffffffffffffffffffffff1916149050919050565b60008073ffffffffffffffffffffffffffffffffffffffff166067600084815260200190815260200160002060009054906101000a900473ffffffffffffffffffffffffffffffffffffffff1673ffffffffffffffffffffffffffffffffffffffff1614159050919050565b600033905090565b816069600083815260200190815260200160002060006101000a81548173ffffffffffffffffffffffffffffffffffffffff021916908373ffffffffffffffffffffffffffffffffffffffff160217905550808273ffffffffffffffffffffffffffffffffffffffff1661233a83611491565b73ffffffffffffffffffffffffffffffffffffffff167f8c5be1e5ebec7d5bd14f71427d1e84f3dd0314c0f7b2291e5b200ac8c7c3b92560405160405180910390a45050565b600080609754836123919190613c32565b6040516020016123a191906140ca565b6040516020818303038152906040528051906020012060001c9050609760008154809291906123cf90613a57565b9190505550609954816123e291906140e5565b915050919050565b600073ffffffffffffffffffffffffffffffffffffffff168273ffffffffffffffffffffffffffffffffffffffff16141561245a576040517f08c379a000000000000000000000000000000000000000000000000000000000815260040161245190614162565b60405180910390fd5b61246381612253565b156124a3576040517f08c379a000000000000000000000000000000000000000000000000000000000815260040161249a906141ce565b60405180910390fd5b6124af60008383612cb1565b6001606860008473ffffffffffffffffffffffffffffffffffffffff1673ffffffffffffffffffffffffffffffffffffffff16815260200190815260200160002060008282546124ff9190613c32565b92505081905550816067600083815260200190815260200160002060006101000a81548173ffffffffffffffffffffffffffffffffffffffff021916908373ffffffffffffffffffffffffffffffffffffffff160217905550808273ffffffffffffffffffffffffffffffffffffffff16600073ffffffffffffffffffffffffffffffffffffffff167fddf252ad1be2c89b69c2b068fc378daa952ba7f163c4a11628f55a4df523b3ef60405160405180910390a45050565b60006125c382612253565b612602576040517f08c379a00000000000000000000000000000000000000000000000000000000081526004016125f990614260565b60405180910390fd5b600061260d83611491565b90508073ffffffffffffffffffffffffffffffffffffffff168473ffffffffffffffffffffffffffffffffffffffff16148061267c57508373ffffffffffffffffffffffffffffffffffffffff1661266484610897565b73ffffffffffffffffffffffffffffffffffffffff16145b8061268d575061268c81856120b7565b5b91505092915050565b8273ffffffffffffffffffffffffffffffffffffffff166126b682611491565b73ffffffffffffffffffffffffffffffffffffffff161461270c576040517f08c379a0000000000000000000000000000000000000000000000000000000008152600401612703906142f2565b60405180910390fd5b600073ffffffffffffffffffffffffffffffffffffffff168273ffffffffffffffffffffffffffffffffffffffff16141561277c576040517f08c379a000000000000000000000000000000000000000000000000000000000815260040161277390614384565b60405180910390fd5b612787838383612cb1565b6127926000826122c7565b6001606860008573ffffffffffffffffffffffffffffffffffffffff1673ffffffffffffffffffffffffffffffffffffffff16815260200190815260200160002060008282546127e29190613a23565b925050819055506001606860008473ffffffffffffffffffffffffffffffffffffffff1673ffffffffffffffffffffffffffffffffffffffff16815260200190815260200160002060008282546128399190613c32565b92505081905550816067600083815260200190815260200160002060006101000a81548173ffffffffffffffffffffffffffffffffffffffff021916908373ffffffffffffffffffffffffffffffffffffffff160217905550808273ffffffffffffffffffffffffffffffffffffffff168473ffffffffffffffffffffffffffffffffffffffff167fddf252ad1be2c89b69c2b068fc378daa952ba7f163c4a11628f55a4df523b3ef60405160405180910390a4505050565b60006128fd30612cb6565b15905090565b600060019054906101000a900460ff16612952576040517f08c379a000000000000000000000000000000000000000000000000000000000815260040161294990614416565b60405180910390fd5b61295a612cc9565b612962612d1a565b61296c8282612d6b565b5050565b8173ffffffffffffffffffffffffffffffffffffffff168373ffffffffffffffffffffffffffffffffffffffff1614156129df576040517f08c379a00000000000000000000000000000000000000000000000000000000081526004016129d690614482565b60405180910390fd5b80606a60008573ffffffffffffffffffffffffffffffffffffffff1673ffffffffffffffffffffffffffffffffffffffff16815260200190815260200160002060008473ffffffffffffffffffffffffffffffffffffffff1673ffffffffffffffffffffffffffffffffffffffff16815260200190815260200160002060006101000a81548160ff0219169083151502179055508173ffffffffffffffffffffffffffffffffffffffff168373ffffffffffffffffffffffffffffffffffffffff167f17307eab39ab6107e8899845ad3d59bd9653f200f220920489ca2b5937696c3183604051612ad091906130cb565b60405180910390a3505050565b612ae8848484612696565b612af484848484612dec565b612b33576040517f08c379a0000000000000000000000000000000000000000000000000000000008152600401612b2a90614514565b60405180910390fd5b50505050565b606060405180602001604052806000815250905090565b60606000821415612b98576040518060400160405280600181526020017f30000000000000000000000000000000000000000000000000000000000000008152509050612cac565b600082905060005b60008214612bca578080612bb390613a57565b915050600a82612bc39190613979565b9150612ba0565b60008167ffffffffffffffff811115612be657612be561348d565b5b6040519080825280601f01601f191660200182016040528015612c185781602001600182028036833780820191505090505b5090505b60008514612ca557600182612c319190613a23565b9150600a85612c4091906140e5565b6030612c4c9190613c32565b60f81b818381518110612c6257612c61613892565b5b60200101907effffffffffffffffffffffffffffffffffffffffffffffffffffffffffffff1916908160001a905350600a85612c9e9190613979565b9450612c1c565b8093505050505b919050565b505050565b600080823b905060008111915050919050565b600060019054906101000a900460ff16612d18576040517f08c379a0000000000000000000000000000000000000000000000000000000008152600401612d0f90614416565b60405180910390fd5b565b600060019054906101000a900460ff16612d69576040517f08c379a0000000000000000000000000000000000000000000000000000000008152600401612d6090614416565b60405180910390fd5b565b600060019054906101000a900460ff16612dba576040517f08c379a0000000000000000000000000000000000000000000000000000000008152600401612db190614416565b60405180910390fd5b8160659080519060200190612dd0929190612f74565b508060669080519060200190612de7929190612f74565b505050565b6000612e0d8473ffffffffffffffffffffffffffffffffffffffff16612cb6565b15612f67578373ffffffffffffffffffffffffffffffffffffffff1663150b7a02612e366122bf565b8786866040518563ffffffff1660e01b8152600401612e589493929190614589565b6020604051808303816000875af1925050508015612e9457506040513d601f19601f82011682018060405250810190612e9191906145ea565b60015b612f17573d8060008114612ec4576040519150601f19603f3d011682016040523d82523d6000602084013e612ec9565b606091505b50600081511415612f0f576040517f08c379a0000000000000000000000000000000000000000000000000000000008152600401612f0690614514565b60405180910390fd5b805181602001fd5b63150b7a0260e01b7bffffffffffffffffffffffffffffffffffffffffffffffffffffffff1916817bffffffffffffffffffffffffffffffffffffffffffffffffffffffff191614915050612f6c565b600190505b949350505050565b828054612f80906136aa565b90600052602060002090601f016020900481019282612fa25760008555612fe9565b82601f10612fbb57805160ff1916838001178555612fe9565b82800160010185558215612fe9579182015b82811115612fe8578251825591602001919060010190612fcd565b5b509050612ff69190612ffa565b5090565b5b80821115613013576000816000905550600101612ffb565b5090565b6000604051905090565b600080fd5b600080fd5b60007fffffffff0000000000000000000000000000000000000000000000000000000082169050919050565b6130608161302b565b811461306b57600080fd5b50565b60008135905061307d81613057565b92915050565b60006020828403121561309957613098613021565b5b60006130a78482850161306e565b91505092915050565b60008115159050919050565b6130c5816130b0565b82525050565b60006020820190506130e060008301846130bc565b92915050565b600081519050919050565b600082825260208201905092915050565b60005b83811015613120578082015181840152602081019050613105565b8381111561312f576000848401525b50505050565b6000601f19601f8301169050919050565b6000613151826130e6565b61315b81856130f1565b935061316b818560208601613102565b61317481613135565b840191505092915050565b600060208201905081810360008301526131998184613146565b905092915050565b6000819050919050565b6131b4816131a1565b81146131bf57600080fd5b50565b6000813590506131d1816131ab565b92915050565b6000602082840312156131ed576131ec613021565b5b60006131fb848285016131c2565b91505092915050565b600073ffffffffffffffffffffffffffffffffffffffff82169050919050565b600061322f82613204565b9050919050565b61323f81613224565b82525050565b600060208201905061325a6000830184613236565b92915050565b61326981613224565b811461327457600080fd5b50565b60008135905061328681613260565b92915050565b600080604083850312156132a3576132a2613021565b5b60006132b185828601613277565b92505060206132c2858286016131c2565b9150509250929050565b6000602082840312156132e2576132e1613021565b5b60006132f084828501613277565b91505092915050565b60008060006060848603121561331257613311613021565b5b600061332086828701613277565b935050602061333186828701613277565b9250506040613342868287016131c2565b9150509250925092565b613355816131a1565b82525050565b6000602082019050613370600083018461334c565b92915050565b6000806040838503121561338d5761338c613021565b5b600061339b858286016131c2565b92505060206133ac858286016131c2565b9150509250929050565b600060c0820190506133cb600083018961334c565b6133d8602083018861334c565b6133e5604083018761334c565b6133f2606083018661334c565b6133ff608083018561334c565b61340c60a083018461334c565b979650505050505050565b613420816130b0565b811461342b57600080fd5b50565b60008135905061343d81613417565b92915050565b6000806040838503121561345a57613459613021565b5b600061346885828601613277565b92505060206134798582860161342e565b9150509250929050565b600080fd5b600080fd5b7f4e487b7100000000000000000000000000000000000000000000000000000000600052604160045260246000fd5b6134c582613135565b810181811067ffffffffffffffff821117156134e4576134e361348d565b5b80604052505050565b60006134f7613017565b905061350382826134bc565b919050565b600067ffffffffffffffff8211156135235761352261348d565b5b61352c82613135565b9050602081019050919050565b82818337600083830152505050565b600061355b61355684613508565b6134ed565b90508281526020810184848401111561357757613576613488565b5b613582848285613539565b509392505050565b600082601f83011261359f5761359e613483565b5b81356135af848260208601613548565b91505092915050565b600080600080608085870312156135d2576135d1613021565b5b60006135e087828801613277565b94505060206135f187828801613277565b9350506040613602878288016131c2565b925050606085013567ffffffffffffffff81111561362357613622613026565b5b61362f8782880161358a565b91505092959194509250565b6000806040838503121561365257613651613021565b5b600061366085828601613277565b925050602061367185828601613277565b9150509250929050565b7f4e487b7100000000000000000000000000000000000000000000000000000000600052602260045260246000fd5b600060028204905060018216806136c257607f821691505b602082108114156136d6576136d561367b565b5b50919050565b7f4552433732313a20617070726f76656420717565727920666f72206e6f6e657860008201527f697374656e7420746f6b656e0000000000000000000000000000000000000000602082015250565b6000613738602c836130f1565b9150613743826136dc565b604082019050919050565b600060208201905081810360008301526137678161372b565b9050919050565b7f4552433732313a20617070726f76616c20746f2063757272656e74206f776e6560008201527f7200000000000000000000000000000000000000000000000000000000000000602082015250565b60006137ca6021836130f1565b91506137d58261376e565b604082019050919050565b600060208201905081810360008301526137f9816137bd565b9050919050565b7f4552433732313a20617070726f76652063616c6c6572206973206e6f74206f7760008201527f6e6572206e6f7220617070726f76656420666f7220616c6c0000000000000000602082015250565b600061385c6038836130f1565b915061386782613800565b604082019050919050565b6000602082019050818103600083015261388b8161384f565b9050919050565b7f4e487b7100000000000000000000000000000000000000000000000000000000600052603260045260246000fd5b7f4e487b7100000000000000000000000000000000000000000000000000000000600052601160045260246000fd5b60006138fb826131a1565b9150613906836131a1565b9250817fffffffffffffffffffffffffffffffffffffffffffffffffffffffffffffffff048311821515161561393f5761393e6138c1565b5b828202905092915050565b7f4e487b7100000000000000000000000000000000000000000000000000000000600052601260045260246000fd5b6000613984826131a1565b915061398f836131a1565b92508261399f5761399e61394a565b5b828204905092915050565b60006060820190506139bf6000830186613236565b6139cc6020830185613236565b6139d9604083018461334c565b949350505050565b6000815190506139f081613417565b92915050565b600060208284031215613a0c57613a0b613021565b5b6000613a1a848285016139e1565b91505092915050565b6000613a2e826131a1565b9150613a39836131a1565b925082821015613a4c57613a4b6138c1565b5b828203905092915050565b6000613a62826131a1565b91507fffffffffffffffffffffffffffffffffffffffffffffffffffffffffffffffff821415613a9557613a946138c1565b5b600182019050919050565b7f4552433732313a207472616e736665722063616c6c6572206973206e6f74206f60008201527f776e6572206e6f7220617070726f766564000000000000000000000000000000602082015250565b6000613afc6031836130f1565b9150613b0782613aa0565b604082019050919050565b60006020820190508181036000830152613b2b81613aef565b9050919050565b6000819050919050565b6000819050919050565b6000613b61613b5c613b5784613b32565b613b3c565b6131a1565b9050919050565b613b7181613b46565b82525050565b6000604082019050613b8c600083018561334c565b613b996020830184613b68565b9392505050565b7f4552433732313a206f776e657220717565727920666f72206e6f6e657869737460008201527f656e7420746f6b656e0000000000000000000000000000000000000000000000602082015250565b6000613bfc6029836130f1565b9150613c0782613ba0565b604082019050919050565b60006020820190508181036000830152613c2b81613bef565b9050919050565b6000613c3d826131a1565b9150613c48836131a1565b9250827fffffffffffffffffffffffffffffffffffffffffffffffffffffffffffffffff03821115613c7d57613c7c6138c1565b5b828201905092915050565b6000604082019050613c9d600083018561334c565b613caa602083018461334c565b9392505050565b7f4552433732313a2062616c616e636520717565727920666f7220746865207a6560008201527f726f206164647265737300000000000000000000000000000000000000000000602082015250565b6000613d0d602a836130f1565b9150613d1882613cb1565b604082019050919050565b60006020820190508181036000830152613d3c81613d00565b9050919050565b7f496e697469616c697a61626c653a20636f6e747261637420697320616c72656160008201527f647920696e697469616c697a6564000000000000000000000000000000000000602082015250565b6000613d9f602e836130f1565b9150613daa82613d43565b604082019050919050565b60006020820190508181036000830152613dce81613d92565b9050919050565b60008160011c9050919050565b6000808291508390505b6001851115613e2c57808604811115613e0857613e076138c1565b5b6001851615613e175780820291505b8081029050613e2585613dd5565b9450613dec565b94509492505050565b600082613e455760019050613f01565b81613e535760009050613f01565b8160018114613e695760028114613e7357613ea2565b6001915050613f01565b60ff841115613e8557613e846138c1565b5b8360020a915084821115613e9c57613e9b6138c1565b5b50613f01565b5060208310610133831016604e8410600b8410161715613ed75782820a905083811115613ed257613ed16138c1565b5b613f01565b613ee48484846001613de2565b92509050818404811115613efb57613efa6138c1565b5b81810290505b9392505050565b6000613f13826131a1565b9150613f1e836131a1565b9250613f4b7fffffffffffffffffffffffffffffffffffffffffffffffffffffffffffffffff8484613e35565b905092915050565b6000819050919050565b6000613f78613f73613f6e84613f53565b613b3c565b6131a1565b9050919050565b613f8881613f5d565b82525050565b6000604082019050613fa3600083018561334c565b613fb06020830184613f7f565b9392505050565b7f4552433732314d657461646174613a2055524920717565727920666f72206e6f60008201527f6e6578697374656e7420746f6b656e0000000000000000000000000000000000602082015250565b6000614013602f836130f1565b915061401e82613fb7565b604082019050919050565b6000602082019050818103600083015261404281614006565b9050919050565b600081905092915050565b600061405f826130e6565b6140698185614049565b9350614079818560208601613102565b80840191505092915050565b60006140918285614054565b915061409d8284614054565b91508190509392505050565b6000819050919050565b6140c46140bf826131a1565b6140a9565b82525050565b60006140d682846140b3565b60208201915081905092915050565b60006140f0826131a1565b91506140fb836131a1565b92508261410b5761410a61394a565b5b828206905092915050565b7f4552433732313a206d696e7420746f20746865207a65726f2061646472657373600082015250565b600061414c6020836130f1565b915061415782614116565b602082019050919050565b6000602082019050818103600083015261417b8161413f565b9050919050565b7f4552433732313a20746f6b656e20616c7265616479206d696e74656400000000600082015250565b60006141b8601c836130f1565b91506141c382614182565b602082019050919050565b600060208201905081810360008301526141e7816141ab565b9050919050565b7f4552433732313a206f70657261746f7220717565727920666f72206e6f6e657860008201527f697374656e7420746f6b656e0000000000000000000000000000000000000000602082015250565b600061424a602c836130f1565b9150614255826141ee565b604082019050919050565b600060208201905081810360008301526142798161423d565b9050919050565b7f4552433732313a207472616e73666572206f6620746f6b656e2074686174206960008201527f73206e6f74206f776e0000000000000000000000000000000000000000000000602082015250565b60006142dc6029836130f1565b91506142e782614280565b604082019050919050565b6000602082019050818103600083015261430b816142cf565b9050919050565b7f4552433732313a207472616e7366657220746f20746865207a65726f2061646460008201527f7265737300000000000000000000000000000000000000000000000000000000602082015250565b600061436e6024836130f1565b915061437982614312565b604082019050919050565b6000602082019050818103600083015261439d81614361565b9050919050565b7f496e697469616c697a61626c653a20636f6e7472616374206973206e6f74206960008201527f6e697469616c697a696e67000000000000000000000000000000000000000000602082015250565b6000614400602b836130f1565b915061440b826143a4565b604082019050919050565b6000602082019050818103600083015261442f816143f3565b9050919050565b7f4552433732313a20617070726f766520746f2063616c6c657200000000000000600082015250565b600061446c6019836130f1565b915061447782614436565b602082019050919050565b6000602082019050818103600083015261449b8161445f565b9050919050565b7f4552433732313a207472616e7366657220746f206e6f6e20455243373231526560008201527f63656976657220696d706c656d656e7465720000000000000000000000000000602082015250565b60006144fe6032836130f1565b9150614509826144a2565b604082019050919050565b6000602082019050818103600083015261452d816144f1565b9050919050565b600081519050919050565b600082825260208201905092915050565b600061455b82614534565b614565818561453f565b9350614575818560208601613102565b61457e81613135565b840191505092915050565b600060808201905061459e6000830187613236565b6145ab6020830186613236565b6145b8604083018561334c565b81810360608301526145ca8184614550565b905095945050505050565b6000815190506145e481613057565b92915050565b600060208284031215614600576145ff613021565b5b600061460e848285016145d5565b9150509291505056fea2646970667358221220ddcd2bf1630984a4b01c958ec91190a7ce780d90f27d4cdbdee0d129ccfbaacf64736f6c634300080b0033",
  "immutableReferences": {},
  "source": "// SPDX-License-Identifier: UNLICENSED\r\n\r\npragma solidity ^0.8.0;\r\n\r\nimport \"../node_modules/@openzeppelin/contracts-upgradeable/token/ERC721/ERC721Upgradeable.sol\";\r\nimport \"../node_modules/@openzeppelin/contracts/token/ERC20/IERC20.sol\";\r\n\r\ncontract Tree is ERC721Upgradeable {\r\n    event NewTree(uint treeId);\r\n    event GainExp(uint treeId, uint amount);\r\n    event GainLevel(uint treeId);\r\n    event BuildingLevelUp (uint treeId, uint buildingId);\r\n\r\n    uint Nonce;\r\n    uint Digits;\r\n    uint Modulus;\r\n    address ContractOwner;\r\n    address Treasury;\r\n    \r\n    //Get Token Address after TokenContract deployment\r\n    address Token;\r\n    \r\n    //QuestContract is updated after deployment\r\n    address QuestContract;\r\n\r\n    struct TreeStruct {\r\n        uint treeDNA;\r\n        uint level;\r\n        uint exp;\r\n        uint barracks;\r\n        uint trainingGrounds;\r\n        uint onQuestUntil;\r\n    }\r\n\r\n    TreeStruct[] public trees;\r\n\r\n    //Modifiers\r\n\r\n    modifier onlyOwnerOf(uint _treeId) {\r\n        require(ownerOf(_treeId) == msg.sender);\r\n        _;\r\n    }\r\n\r\n    modifier onlyOwner() {\r\n        require(ContractOwner == msg.sender);\r\n        _;\r\n    }\r\n\r\n    modifier onlyQuestContract() {\r\n        require(QuestContract == msg.sender);\r\n        _;\r\n    }\r\n\r\n    function initialize() initializer public {\r\n        Nonce = 1;\r\n        Digits = 16;\r\n        Modulus = 10 ** Digits;\r\n        ContractOwner = 0xf577601a5eF1d5079Da672f01D7aB3b80dD2bd1D;\r\n        Treasury = 0xfd768E668A158C173e9549d1632902C2A4363178;\r\n        Token = 0xCd571eD43B347a4Ab01BAe2d23F9535BBAFe955d;\r\n        QuestContract = address(0);\r\n        __ERC721_init(\"Patagonic Tree\", \"PTREE\");\r\n    }\r\n\r\n    //View Functions\r\n\r\n    function treeDNA(uint treeId) public view returns (uint) {\r\n        return trees[treeId].treeDNA;\r\n    }\r\n\r\n    function treeLevel(uint treeId) public view returns (uint) {\r\n        return trees[treeId].level;\r\n    }\r\n\r\n    function treeExp(uint treeId) public view returns (uint) {\r\n        return trees[treeId].exp;\r\n    }\r\n\r\n    function treeBarracks(uint treeId) public view returns (uint) {\r\n        return trees[treeId].barracks;\r\n    }\r\n\r\n    function treeTrainingGrounds(uint treeId) public view returns (uint) {\r\n        return trees[treeId].trainingGrounds;\r\n    }\r\n\r\n    function questStatus(uint treeId) public view returns (uint) {\r\n        return trees[treeId].onQuestUntil;\r\n    }\r\n\r\n    function currentPrice() public view returns (uint) {\r\n        return ((trees.length+1)*1)*10**18;\r\n    }\r\n\r\n    //Payable Functions\r\n\r\n    function upgradeBarracks(uint treeId) public payable onlyOwnerOf(treeId) {\r\n        require(trees[treeId].level > trees[treeId].barracks);\r\n        require(10 > trees[treeId].barracks);\r\n        uint amount = trees[treeId].barracks*10**18;\r\n        if (trees[treeId].barracks > 10 && trees[treeId].barracks < 21) {\r\n\r\n        }\r\n        IERC20(Token).transferFrom(msg.sender, Treasury, amount*70/100);\r\n        IERC20(Token).transferFrom(msg.sender, ContractOwner, amount*30/100);\r\n        trees[treeId].barracks++;\r\n        emit BuildingLevelUp (treeId, 0);\r\n    }\r\n\r\n    function upgradeTrainingGrounds(uint treeId) public payable onlyOwnerOf(treeId) {\r\n        require(trees[treeId].level > trees[treeId].trainingGrounds);\r\n        require(10 > trees[treeId].trainingGrounds);\r\n        uint amount = trees[treeId].trainingGrounds*10**18;\r\n        if (trees[treeId].trainingGrounds > 10 && trees[treeId].trainingGrounds < 21) {\r\n\r\n        }\r\n        IERC20(Token).transferFrom(msg.sender, Treasury, amount*70/100);\r\n        IERC20(Token).transferFrom(msg.sender, ContractOwner, amount*30/100);\r\n        trees[treeId].trainingGrounds++;\r\n        emit BuildingLevelUp (treeId, 1);\r\n    }\r\n\r\n    function updateQuestStatus(uint treeId, uint newValue) public payable onlyQuestContract() {\r\n        trees[treeId].onQuestUntil = newValue;\r\n    }\r\n\r\n    function gainExp(uint treeId, uint amount) public payable onlyQuestContract() {\r\n        //Cambiar a que solo lo pueda hacer el contrato de quests y no el usuario\r\n        trees[treeId].exp = trees[treeId].exp + amount;\r\n        emit GainExp(treeId, amount);\r\n    }\r\n\r\n    function gainLevel(uint treeId) public payable onlyOwnerOf(treeId) {\r\n        require(trees[treeId].level < 100 );\r\n        require(trees[treeId].exp >= trees[treeId].level*100);\r\n        uint amount = trees[treeId].level*10**18;\r\n        IERC20(Token).transferFrom(msg.sender, Treasury, amount*70/100);\r\n        IERC20(Token).transferFrom(msg.sender, ContractOwner, amount*30/100);\r\n        trees[treeId].exp = trees[treeId].exp-trees[treeId].level*100;\r\n        trees[treeId].level++;\r\n        emit GainLevel(treeId);\r\n    }\r\n\r\n    function _generateRandomDNA(uint _treeId) internal returns (uint) {\r\n        uint rand = uint(keccak256(abi.encodePacked(_treeId + Nonce)));\r\n        Nonce++;\r\n        return rand % Modulus;\r\n    }\r\n\r\n    function createNewTree() public payable {\r\n        require(msg.sender != address(0) && msg.sender != address(this));\r\n        require(msg.value >= currentPrice());\r\n        uint id = trees.length;\r\n        uint DNA = _generateRandomDNA(id);\r\n        trees.push(TreeStruct(DNA, 1, 0, 0, 0, 0));\r\n        _mint(msg.sender, id);\r\n        emit NewTree(id);\r\n\r\n    }\r\n\r\n    function transferOwnership(address newOwner) public payable onlyOwner() {\r\n        ContractOwner = newOwner;\r\n    }\r\n\r\n    function transferQuestContract(address newQuestContract) public payable onlyOwner() {\r\n        QuestContract = newQuestContract;\r\n    }\r\n\r\n}",
  "sourcePath": "C:\\Users\\jtsch\\OneDrive\\Escritorio\\Python\\SmartContracts-NFT-Agus\\contracts\\Tree.sol",
  "compiler": {
    "name": "solc",
    "version": "0.8.11+commit.d7f03943.Emscripten.clang"
  },
  "schemaVersion": "3.4.3",
  "updatedAt": "2022-01-15T22:36:54.788Z",
  "devdoc": {
    "kind": "dev",
    "methods": {
      "approve(address,uint256)": {
        "details": "See {IERC721-approve}."
      },
      "balanceOf(address)": {
        "details": "See {IERC721-balanceOf}."
      },
      "getApproved(uint256)": {
        "details": "See {IERC721-getApproved}."
      },
      "isApprovedForAll(address,address)": {
        "details": "See {IERC721-isApprovedForAll}."
      },
      "name()": {
        "details": "See {IERC721Metadata-name}."
      },
      "ownerOf(uint256)": {
        "details": "See {IERC721-ownerOf}."
      },
      "safeTransferFrom(address,address,uint256)": {
        "details": "See {IERC721-safeTransferFrom}."
      },
      "safeTransferFrom(address,address,uint256,bytes)": {
        "details": "See {IERC721-safeTransferFrom}."
      },
      "setApprovalForAll(address,bool)": {
        "details": "See {IERC721-setApprovalForAll}."
      },
      "supportsInterface(bytes4)": {
        "details": "See {IERC165-supportsInterface}."
      },
      "symbol()": {
        "details": "See {IERC721Metadata-symbol}."
      },
      "tokenURI(uint256)": {
        "details": "See {IERC721Metadata-tokenURI}."
      },
      "transferFrom(address,address,uint256)": {
        "details": "See {IERC721-transferFrom}."
      }
    },
    "version": 1
  },
  "userdoc": {
    "kind": "user",
    "methods": {},
    "version": 1
  }
}